{
	"compilerInput": "{\"language\":\"Solidity\",\"sources\":{\"contracts/Samhita DAO/LanguageDAO.sol\":{\"content\":\"// SPDX-License-Identifier: MIT\\r\\n\\r\\npragma solidity ^0.8.0;\\r\\n\\r\\nimport \\\"https://github.com/OpenZeppelin/openzeppelin-contracts/blob/master/contracts/token/ERC20/ERC20.sol\\\";\\r\\nimport \\\"https://github.com/OpenZeppelin/openzeppelin-contracts/blob/master/contracts/access/Ownable.sol\\\";\\r\\nimport \\\"https://github.com/OpenZeppelin/openzeppelin-contracts/blob/master/contracts/token/ERC20/IERC20.sol\\\";\\r\\nimport \\\"./ISamhitaDAO.sol\\\";\\r\\nimport \\\"./ITemplateNFT.sol\\\";\\r\\nimport \\\"./ILanguageToken.sol\\\";\\r\\n\\r\\ncontract LanguageDAO is Ownable{\\r\\n\\r\\n    ISamhitaDAO public samhita;\\r\\n    ITemplateNFT public templateNFT;\\r\\n    ILanguageToken public languageToken;\\r\\n\\r\\n    constructor(address _samhitaAddress, address _templateNFTAddress, address _languageTokenAddress) Ownable() {\\r\\n        samhita = ISamhitaDAO(_samhitaAddress);\\r\\n        templateNFT = ITemplateNFT(_templateNFTAddress);\\r\\n        languageToken = ILanguageToken(_languageTokenAddress);\\r\\n    }\\r\\n\\r\\n    struct Proposal {\\r\\n        uint256 proposalID;\\r\\n        string proposalName;\\r\\n        string proposalDescription;\\r\\n        string proposalIamge;\\r\\n        address proposalCreator;\\r\\n        uint256 upVoteCount;\\r\\n        uint256 downVoteCount;\\r\\n        uint256 proposedAt;\\r\\n        uint256 proposalExpireAt;\\r\\n        uint templateId;\\r\\n        string status;\\r\\n        bool votingResult;\\r\\n    }\\r\\n    // mapping to keep track of proposals\\r\\n    mapping(uint256 => Proposal) public proposals;\\r\\n    // mapping array to track whether the user has voted for the proposal\\r\\n    mapping(address => mapping(uint256 => bool)) public hasVotedForProposal;\\r\\n    // voters array on proposal\\r\\n    mapping(uint=>address[]) public votersForProposal;\\r\\n    // voters vote\\r\\n    // mapping(address=>mapping(uint=>bool)) public memberVoteResult;\\r\\n    mapping(uint=>address[]) public membersForUpvote;\\r\\n    mapping(uint=>address[]) public membersForDownvote;\\r\\n    // number of proposals currently in DAO\\r\\n    uint256 public proposalCount;\\r\\n    // array of memebrs in the Dao\\r\\n    address[] allDaoMemberAddress;\\r\\n    mapping(address=>bool) public isMemberAdded;\\r\\n    mapping(address=>uint) public memberWithdrawAmount;\\r\\n\\r\\n    uint tokenPrice;\\r\\n\\r\\n    struct VotingConfig{\\r\\n        uint condition;\\r\\n        uint minimunApproval;\\r\\n        uint votingPeriod;\\r\\n        uint votingStake;\\r\\n        uint proposalStake;\\r\\n    }\\r\\n    VotingConfig public votingconfigs;\\r\\n\\r\\n    // \\r\\n    uint public royaltyFee = 1000000;\\r\\n    address public chargeTokenAddress =\\r\\n        0xe9DcE89B076BA6107Bb64EF30678efec11939234; // USDC\\r\\n\\r\\n    function addMember(uint _tokens) public payable{\\r\\n        require(samhita.checkIsMemberAdded(msg.sender),\\\"First join the Samhita DAO\\\");\\r\\n        require(msg.value == (_tokens*languageToken.getTokenPrice()),\\\"Not enough value\\\");\\r\\n        require(languageToken.balanceOf(address(this))>=_tokens,\\\"Contract does not have enough tokens\\\");\\r\\n        if(!isMemberAdded[msg.sender]){\\r\\n            allDaoMemberAddress.push(msg.sender);\\r\\n            isMemberAdded[msg.sender]=true;\\r\\n        }\\r\\n        languageToken.transfer(msg.sender,_tokens);\\r\\n    }\\r\\n\\r\\n    /// @dev Creates a new proposal. \\r\\n    function createProposal(string memory _proposalName, string memory _proposalaDescription, string memory proposalIamge, uint _templateId) public payable{\\r\\n        require(samhita.checkIsMemberAdded(msg.sender),\\\"First join the Samhita DAO\\\");\\r\\n        require(isMemberAdded[msg.sender],\\\"You are not the member of ths Samhita DAO\\\");\\r\\n        require(msg.value==votingconfigs.proposalStake,\\\"You have to stake valid amount to create a proposal\\\");\\r\\n        proposalCount++;\\r\\n        Proposal memory proposal = Proposal(proposalCount,_proposalName,_proposalaDescription, proposalIamge, msg.sender, 0, 0, block.timestamp, block.timestamp + votingconfigs.votingPeriod,_templateId,\\\"pending\\\",false);\\r\\n        proposals[proposalCount] = proposal;\\r\\n    }\\r\\n   \\r\\n    function getAllProposals() public view returns (Proposal[] memory)\\r\\n    {\\r\\n        Proposal[] memory allProposals = new Proposal[](proposalCount);\\r\\n        for(uint i=0;i<proposalCount;i++)\\r\\n        {\\r\\n            allProposals[i] = proposals[i+1];\\r\\n        }\\r\\n        return allProposals;\\r\\n    }\\r\\n\\r\\n    // function to vote in favour of proposal\\r\\n    function upvoteProposal(uint256 proposalID) public payable{\\r\\n        // require function to check token balance, then only allow for voting\\r\\n        require(samhita.checkIsMemberAdded(msg.sender),\\\"First join the Samhita DAO\\\");\\r\\n        require(isMemberAdded[msg.sender],\\\"You are not a member of the SamhitaDAO\\\");\\r\\n        require(proposals[proposalID].proposalCreator!=msg.sender, \\\"Proposal Creator cannot vote his own proposal\\\");\\r\\n        require(!hasVotedForProposal[msg.sender][proposalID], \\\"Already Voted\\\");\\r\\n        require(proposals[proposalID].proposalExpireAt > block.timestamp, \\\"Voting Period Finished\\\");\\r\\n        require(msg.value==votingconfigs.votingStake,\\\"You have to stake valid amount to vote on a proposal\\\");\\r\\n        proposals[proposalID].upVoteCount = proposals[proposalID].upVoteCount + 1;\\r\\n        hasVotedForProposal[msg.sender][proposalID] = true;\\r\\n        votersForProposal[proposalID].push(msg.sender);\\r\\n        membersForUpvote[proposalID].push(msg.sender);\\r\\n    }\\r\\n\\r\\n    // function to vote in favour of proposal\\r\\n    function downvoteProposal(uint256 proposalID) public payable{\\r\\n        // require function to check token balance, then only allow for voting\\r\\n        require(samhita.checkIsMemberAdded(msg.sender),\\\"First join the Samhita DAO\\\");\\r\\n        require(isMemberAdded[msg.sender],\\\"You are not a member of the SamhitaDAO\\\");\\r\\n        require(proposals[proposalID].proposalCreator!=msg.sender, \\\"Proposal Creator cannot vote his own proposal\\\");\\r\\n        require(!hasVotedForProposal[msg.sender][proposalID], \\\"Already Voted\\\");\\r\\n        require(proposals[proposalID].proposalExpireAt > block.timestamp, \\\"Voting Period Finished\\\");\\r\\n        require(msg.value==votingconfigs.votingStake,\\\"You have to stake valid amount to vote on a proposal\\\");\\r\\n        proposals[proposalID].downVoteCount = proposals[proposalID].downVoteCount + 1;\\r\\n        hasVotedForProposal[msg.sender][proposalID] = true;\\r\\n        votersForProposal[proposalID].push(msg.sender);\\r\\n        membersForDownvote[proposalID].push(msg.sender);\\r\\n    }\\r\\n\\r\\n    //  voting\\r\\n    function votingResult(uint _proposalId, uint _templateId) public{\\r\\n        require(proposals[_proposalId].votingResult==false,\\\"Voting result is already given!\\\");\\r\\n        uint _totalVotes = proposals[_proposalId].upVoteCount+proposals[_proposalId].downVoteCount;\\r\\n        if(_totalVotes>((allDaoMemberAddress.length*votingconfigs.condition)/100)){\\r\\n            proposals[_proposalId].status=\\\"questionable\\\";\\r\\n        }else if(((proposals[_proposalId].upVoteCount/_totalVotes)*100)>votingconfigs.minimunApproval){\\r\\n            proposals[_proposalId].status=\\\"approved\\\";\\r\\n            address _member = proposals[_proposalId].proposalCreator;\\r\\n            memberWithdrawAmount[_member] += votingconfigs.proposalStake;\\r\\n            for(uint i=0;i<membersForUpvote[_proposalId].length;i++){\\r\\n                memberWithdrawAmount[membersForUpvote[_proposalId][i]]+=votingconfigs.votingStake;\\r\\n            }\\r\\n            // \\r\\n            if(proposals[_proposalId].templateId>0){\\r\\n                address creator = templateNFT.getTemplateDetails(_templateId);\\r\\n                IERC20 _token = IERC20(chargeTokenAddress);\\r\\n                require(\\r\\n                    _token.allowance(msg.sender, address(this)) >= royaltyFee,\\r\\n                    \\\"allowance is not enough!\\\"\\r\\n                );\\r\\n                _token.transferFrom(msg.sender, creator, royaltyFee);\\r\\n            }\\r\\n        }else if(((proposals[_proposalId].downVoteCount/_totalVotes)*100)>votingconfigs.minimunApproval){\\r\\n            proposals[_proposalId].status=\\\"rejected\\\";\\r\\n        }\\r\\n        proposals[_proposalId].votingResult=true;\\r\\n    }\\r\\n\\r\\n    // for getting and setting voting config\\r\\n    function setDataDaoVotingConfig(uint _condition, uint _minimunApproval,uint _votingPeriod, uint _votingStake, uint _proposalStake) public {\\r\\n        votingconfigs = VotingConfig(_condition,_minimunApproval,_votingPeriod, _votingStake, _proposalStake);\\r\\n    }\\r\\n    function getDataDaoVotingConfig() public view returns(VotingConfig memory){\\r\\n        return votingconfigs;\\r\\n    }\\r\\n\\r\\n}\"},\"contracts/Samhita DAO/ILanguageToken.sol\":{\"content\":\"// SPDX-License-Identifier: MIT\\r\\n\\r\\nimport \\\"https://github.com/OpenZeppelin/openzeppelin-contracts/blob/master/contracts/token/ERC20/IERC20.sol\\\";\\r\\n\\r\\npragma solidity ^0.8.0;\\r\\n\\r\\ninterface ILanguageToken{\\r\\n    \\r\\n    event Transfer(address indexed from, address indexed to, uint256 value);\\r\\n    event Approval(address indexed owner, address indexed spender, uint256 value);\\r\\n\\r\\n    function totalSupply() external view returns (uint256);\\r\\n\\r\\n    function balanceOf(address account) external view returns (uint256);\\r\\n\\r\\n    function transfer(address to, uint256 amount) external returns (bool);\\r\\n\\r\\n    function allowance(address owner, address spender) external view returns (uint256);\\r\\n\\r\\n    function approve(address spender, uint256 amount) external returns (bool);\\r\\n\\r\\n    function transferFrom(address from, address to, uint256 amount) external returns (bool);\\r\\n\\r\\n    function withdrawFromContract(uint _amount,address _tokenAddress) external payable;\\r\\n   \\r\\n    function setTokenprice(uint _tokenPrice) external;\\r\\n\\r\\n    function setAdmin(address _admin) external;\\r\\n\\r\\n    function getAdmin() external view returns(address);\\r\\n\\r\\n    function getTokenPrice() external view returns(uint);\\r\\n}\"},\"contracts/Samhita DAO/ITemplateNFT.sol\":{\"content\":\"// SPDX-License-Identifier: MIT\\r\\n\\r\\npragma solidity ^0.8.0;\\r\\n\\r\\ninterface ITemplateNFT{\\r\\n\\r\\n    struct TemplateData{\\r\\n        uint tokenIds;\\r\\n        address creator;\\r\\n        string tokenIpfsUri;\\r\\n    }\\r\\n\\r\\n    function safeMint(address to, uint256 tokenId, string memory uri) external;\\r\\n\\r\\n    function mintTemplate(address _to, string memory _uri) external;\\r\\n\\r\\n    function tokenURI(uint256 tokenId) external;  \\r\\n\\r\\n    function getTemplateDetails(uint _templateId) external view returns(address);\\r\\n}\"},\"contracts/Samhita DAO/ISamhitaDAO.sol\":{\"content\":\"//SPDX-License-Identifier:MIT\\r\\n\\r\\npragma solidity ^0.8.0;\\r\\n\\r\\ninterface ISamhitaDAO{\\r\\n\\r\\n    struct Proposal {\\r\\n        uint256 proposalID;\\r\\n        string proposalName;\\r\\n        string proposalDescription;\\r\\n        string proposalFile;\\r\\n        address proposalCreator;\\r\\n        uint256 upVoteCount;\\r\\n        uint256 downVoteCount;\\r\\n        uint256 proposedAt;\\r\\n        uint256 proposalExpireAt;\\r\\n        string status;\\r\\n        bool votingResult;\\r\\n        string category;\\r\\n    }\\r\\n\\r\\n    function checkIsMemberAdded(address _member) external view returns(bool);\\r\\n\\r\\n    function addMember(address _member) external;\\r\\n\\r\\n\\r\\n    /// @dev Creates a new proposal. \\r\\n    function createProposal(string memory _proposalName, string memory _proposalaDescription, string memory proposalIamge, string memory _category) external;\\r\\n   \\r\\n    function getaAllProposals() external view returns (Proposal[] memory);\\r\\n\\r\\n    function getAllTemplates() external view returns(Proposal[] memory);\\r\\n\\r\\n    // function to vote in favour of proposal\\r\\n    function upvoteProposal(uint256 proposalID) external payable;\\r\\n\\r\\n    // function to vote in favour of proposal\\r\\n    function downvoteProposal(uint256 proposalID) external payable;\\r\\n\\r\\n    //  voting\\r\\n    function votingResult(uint _proposalId) external;\\r\\n\\r\\n    // for getting and setting voting config\\r\\n    function setSamhitaDaoVotingConfig(uint _minimunApproval, uint _votingPeriod, uint _proposalStake, uint _votingStake) external;\\r\\n\\r\\n}\"},\"https://github.com/OpenZeppelin/openzeppelin-contracts/blob/master/contracts/token/ERC20/IERC20.sol\":{\"content\":\"// SPDX-License-Identifier: MIT\\n// OpenZeppelin Contracts (last updated v4.6.0) (token/ERC20/IERC20.sol)\\n\\npragma solidity ^0.8.0;\\n\\n/**\\n * @dev Interface of the ERC20 standard as defined in the EIP.\\n */\\ninterface IERC20 {\\n    /**\\n     * @dev Emitted when `value` tokens are moved from one account (`from`) to\\n     * another (`to`).\\n     *\\n     * Note that `value` may be zero.\\n     */\\n    event Transfer(address indexed from, address indexed to, uint256 value);\\n\\n    /**\\n     * @dev Emitted when the allowance of a `spender` for an `owner` is set by\\n     * a call to {approve}. `value` is the new allowance.\\n     */\\n    event Approval(address indexed owner, address indexed spender, uint256 value);\\n\\n    /**\\n     * @dev Returns the amount of tokens in existence.\\n     */\\n    function totalSupply() external view returns (uint256);\\n\\n    /**\\n     * @dev Returns the amount of tokens owned by `account`.\\n     */\\n    function balanceOf(address account) external view returns (uint256);\\n\\n    /**\\n     * @dev Moves `amount` tokens from the caller's account to `to`.\\n     *\\n     * Returns a boolean value indicating whether the operation succeeded.\\n     *\\n     * Emits a {Transfer} event.\\n     */\\n    function transfer(address to, uint256 amount) external returns (bool);\\n\\n    /**\\n     * @dev Returns the remaining number of tokens that `spender` will be\\n     * allowed to spend on behalf of `owner` through {transferFrom}. This is\\n     * zero by default.\\n     *\\n     * This value changes when {approve} or {transferFrom} are called.\\n     */\\n    function allowance(address owner, address spender) external view returns (uint256);\\n\\n    /**\\n     * @dev Sets `amount` as the allowance of `spender` over the caller's tokens.\\n     *\\n     * Returns a boolean value indicating whether the operation succeeded.\\n     *\\n     * IMPORTANT: Beware that changing an allowance with this method brings the risk\\n     * that someone may use both the old and the new allowance by unfortunate\\n     * transaction ordering. One possible solution to mitigate this race\\n     * condition is to first reduce the spender's allowance to 0 and set the\\n     * desired value afterwards:\\n     * https://github.com/ethereum/EIPs/issues/20#issuecomment-263524729\\n     *\\n     * Emits an {Approval} event.\\n     */\\n    function approve(address spender, uint256 amount) external returns (bool);\\n\\n    /**\\n     * @dev Moves `amount` tokens from `from` to `to` using the\\n     * allowance mechanism. `amount` is then deducted from the caller's\\n     * allowance.\\n     *\\n     * Returns a boolean value indicating whether the operation succeeded.\\n     *\\n     * Emits a {Transfer} event.\\n     */\\n    function transferFrom(address from, address to, uint256 amount) external returns (bool);\\n}\\n\"},\"https://github.com/OpenZeppelin/openzeppelin-contracts/blob/master/contracts/access/Ownable.sol\":{\"content\":\"// SPDX-License-Identifier: MIT\\n// OpenZeppelin Contracts (last updated v4.7.0) (access/Ownable.sol)\\n\\npragma solidity ^0.8.0;\\n\\nimport \\\"../utils/Context.sol\\\";\\n\\n/**\\n * @dev Contract module which provides a basic access control mechanism, where\\n * there is an account (an owner) that can be granted exclusive access to\\n * specific functions.\\n *\\n * By default, the owner account will be the one that deploys the contract. This\\n * can later be changed with {transferOwnership}.\\n *\\n * This module is used through inheritance. It will make available the modifier\\n * `onlyOwner`, which can be applied to your functions to restrict their use to\\n * the owner.\\n */\\nabstract contract Ownable is Context {\\n    address private _owner;\\n\\n    event OwnershipTransferred(address indexed previousOwner, address indexed newOwner);\\n\\n    /**\\n     * @dev Initializes the contract setting the deployer as the initial owner.\\n     */\\n    constructor() {\\n        _transferOwnership(_msgSender());\\n    }\\n\\n    /**\\n     * @dev Throws if called by any account other than the owner.\\n     */\\n    modifier onlyOwner() {\\n        _checkOwner();\\n        _;\\n    }\\n\\n    /**\\n     * @dev Returns the address of the current owner.\\n     */\\n    function owner() public view virtual returns (address) {\\n        return _owner;\\n    }\\n\\n    /**\\n     * @dev Throws if the sender is not the owner.\\n     */\\n    function _checkOwner() internal view virtual {\\n        require(owner() == _msgSender(), \\\"Ownable: caller is not the owner\\\");\\n    }\\n\\n    /**\\n     * @dev Leaves the contract without owner. It will not be possible to call\\n     * `onlyOwner` functions anymore. Can only be called by the current owner.\\n     *\\n     * NOTE: Renouncing ownership will leave the contract without an owner,\\n     * thereby removing any functionality that is only available to the owner.\\n     */\\n    function renounceOwnership() public virtual onlyOwner {\\n        _transferOwnership(address(0));\\n    }\\n\\n    /**\\n     * @dev Transfers ownership of the contract to a new account (`newOwner`).\\n     * Can only be called by the current owner.\\n     */\\n    function transferOwnership(address newOwner) public virtual onlyOwner {\\n        require(newOwner != address(0), \\\"Ownable: new owner is the zero address\\\");\\n        _transferOwnership(newOwner);\\n    }\\n\\n    /**\\n     * @dev Transfers ownership of the contract to a new account (`newOwner`).\\n     * Internal function without access restriction.\\n     */\\n    function _transferOwnership(address newOwner) internal virtual {\\n        address oldOwner = _owner;\\n        _owner = newOwner;\\n        emit OwnershipTransferred(oldOwner, newOwner);\\n    }\\n}\\n\"},\"https://github.com/OpenZeppelin/openzeppelin-contracts/blob/master/contracts/token/ERC20/ERC20.sol\":{\"content\":\"// SPDX-License-Identifier: MIT\\n// OpenZeppelin Contracts (last updated v4.8.0) (token/ERC20/ERC20.sol)\\n\\npragma solidity ^0.8.0;\\n\\nimport \\\"./IERC20.sol\\\";\\nimport \\\"./extensions/IERC20Metadata.sol\\\";\\nimport \\\"../../utils/Context.sol\\\";\\n\\n/**\\n * @dev Implementation of the {IERC20} interface.\\n *\\n * This implementation is agnostic to the way tokens are created. This means\\n * that a supply mechanism has to be added in a derived contract using {_mint}.\\n * For a generic mechanism see {ERC20PresetMinterPauser}.\\n *\\n * TIP: For a detailed writeup see our guide\\n * https://forum.openzeppelin.com/t/how-to-implement-erc20-supply-mechanisms/226[How\\n * to implement supply mechanisms].\\n *\\n * The default value of {decimals} is 18. To change this, you should override\\n * this function so it returns a different value.\\n *\\n * We have followed general OpenZeppelin Contracts guidelines: functions revert\\n * instead returning `false` on failure. This behavior is nonetheless\\n * conventional and does not conflict with the expectations of ERC20\\n * applications.\\n *\\n * Additionally, an {Approval} event is emitted on calls to {transferFrom}.\\n * This allows applications to reconstruct the allowance for all accounts just\\n * by listening to said events. Other implementations of the EIP may not emit\\n * these events, as it isn't required by the specification.\\n *\\n * Finally, the non-standard {decreaseAllowance} and {increaseAllowance}\\n * functions have been added to mitigate the well-known issues around setting\\n * allowances. See {IERC20-approve}.\\n */\\ncontract ERC20 is Context, IERC20, IERC20Metadata {\\n    mapping(address => uint256) private _balances;\\n\\n    mapping(address => mapping(address => uint256)) private _allowances;\\n\\n    uint256 private _totalSupply;\\n\\n    string private _name;\\n    string private _symbol;\\n\\n    /**\\n     * @dev Sets the values for {name} and {symbol}.\\n     *\\n     * All two of these values are immutable: they can only be set once during\\n     * construction.\\n     */\\n    constructor(string memory name_, string memory symbol_) {\\n        _name = name_;\\n        _symbol = symbol_;\\n    }\\n\\n    /**\\n     * @dev Returns the name of the token.\\n     */\\n    function name() public view virtual override returns (string memory) {\\n        return _name;\\n    }\\n\\n    /**\\n     * @dev Returns the symbol of the token, usually a shorter version of the\\n     * name.\\n     */\\n    function symbol() public view virtual override returns (string memory) {\\n        return _symbol;\\n    }\\n\\n    /**\\n     * @dev Returns the number of decimals used to get its user representation.\\n     * For example, if `decimals` equals `2`, a balance of `505` tokens should\\n     * be displayed to a user as `5.05` (`505 / 10 ** 2`).\\n     *\\n     * Tokens usually opt for a value of 18, imitating the relationship between\\n     * Ether and Wei. This is the default value returned by this function, unless\\n     * it's overridden.\\n     *\\n     * NOTE: This information is only used for _display_ purposes: it in\\n     * no way affects any of the arithmetic of the contract, including\\n     * {IERC20-balanceOf} and {IERC20-transfer}.\\n     */\\n    function decimals() public view virtual override returns (uint8) {\\n        return 18;\\n    }\\n\\n    /**\\n     * @dev See {IERC20-totalSupply}.\\n     */\\n    function totalSupply() public view virtual override returns (uint256) {\\n        return _totalSupply;\\n    }\\n\\n    /**\\n     * @dev See {IERC20-balanceOf}.\\n     */\\n    function balanceOf(address account) public view virtual override returns (uint256) {\\n        return _balances[account];\\n    }\\n\\n    /**\\n     * @dev See {IERC20-transfer}.\\n     *\\n     * Requirements:\\n     *\\n     * - `to` cannot be the zero address.\\n     * - the caller must have a balance of at least `amount`.\\n     */\\n    function transfer(address to, uint256 amount) public virtual override returns (bool) {\\n        address owner = _msgSender();\\n        _transfer(owner, to, amount);\\n        return true;\\n    }\\n\\n    /**\\n     * @dev See {IERC20-allowance}.\\n     */\\n    function allowance(address owner, address spender) public view virtual override returns (uint256) {\\n        return _allowances[owner][spender];\\n    }\\n\\n    /**\\n     * @dev See {IERC20-approve}.\\n     *\\n     * NOTE: If `amount` is the maximum `uint256`, the allowance is not updated on\\n     * `transferFrom`. This is semantically equivalent to an infinite approval.\\n     *\\n     * Requirements:\\n     *\\n     * - `spender` cannot be the zero address.\\n     */\\n    function approve(address spender, uint256 amount) public virtual override returns (bool) {\\n        address owner = _msgSender();\\n        _approve(owner, spender, amount);\\n        return true;\\n    }\\n\\n    /**\\n     * @dev See {IERC20-transferFrom}.\\n     *\\n     * Emits an {Approval} event indicating the updated allowance. This is not\\n     * required by the EIP. See the note at the beginning of {ERC20}.\\n     *\\n     * NOTE: Does not update the allowance if the current allowance\\n     * is the maximum `uint256`.\\n     *\\n     * Requirements:\\n     *\\n     * - `from` and `to` cannot be the zero address.\\n     * - `from` must have a balance of at least `amount`.\\n     * - the caller must have allowance for ``from``'s tokens of at least\\n     * `amount`.\\n     */\\n    function transferFrom(address from, address to, uint256 amount) public virtual override returns (bool) {\\n        address spender = _msgSender();\\n        _spendAllowance(from, spender, amount);\\n        _transfer(from, to, amount);\\n        return true;\\n    }\\n\\n    /**\\n     * @dev Atomically increases the allowance granted to `spender` by the caller.\\n     *\\n     * This is an alternative to {approve} that can be used as a mitigation for\\n     * problems described in {IERC20-approve}.\\n     *\\n     * Emits an {Approval} event indicating the updated allowance.\\n     *\\n     * Requirements:\\n     *\\n     * - `spender` cannot be the zero address.\\n     */\\n    function increaseAllowance(address spender, uint256 addedValue) public virtual returns (bool) {\\n        address owner = _msgSender();\\n        _approve(owner, spender, allowance(owner, spender) + addedValue);\\n        return true;\\n    }\\n\\n    /**\\n     * @dev Atomically decreases the allowance granted to `spender` by the caller.\\n     *\\n     * This is an alternative to {approve} that can be used as a mitigation for\\n     * problems described in {IERC20-approve}.\\n     *\\n     * Emits an {Approval} event indicating the updated allowance.\\n     *\\n     * Requirements:\\n     *\\n     * - `spender` cannot be the zero address.\\n     * - `spender` must have allowance for the caller of at least\\n     * `subtractedValue`.\\n     */\\n    function decreaseAllowance(address spender, uint256 subtractedValue) public virtual returns (bool) {\\n        address owner = _msgSender();\\n        uint256 currentAllowance = allowance(owner, spender);\\n        require(currentAllowance >= subtractedValue, \\\"ERC20: decreased allowance below zero\\\");\\n        unchecked {\\n            _approve(owner, spender, currentAllowance - subtractedValue);\\n        }\\n\\n        return true;\\n    }\\n\\n    /**\\n     * @dev Moves `amount` of tokens from `from` to `to`.\\n     *\\n     * This internal function is equivalent to {transfer}, and can be used to\\n     * e.g. implement automatic token fees, slashing mechanisms, etc.\\n     *\\n     * Emits a {Transfer} event.\\n     *\\n     * Requirements:\\n     *\\n     * - `from` cannot be the zero address.\\n     * - `to` cannot be the zero address.\\n     * - `from` must have a balance of at least `amount`.\\n     */\\n    function _transfer(address from, address to, uint256 amount) internal virtual {\\n        require(from != address(0), \\\"ERC20: transfer from the zero address\\\");\\n        require(to != address(0), \\\"ERC20: transfer to the zero address\\\");\\n\\n        _beforeTokenTransfer(from, to, amount);\\n\\n        uint256 fromBalance = _balances[from];\\n        require(fromBalance >= amount, \\\"ERC20: transfer amount exceeds balance\\\");\\n        unchecked {\\n            _balances[from] = fromBalance - amount;\\n            // Overflow not possible: the sum of all balances is capped by totalSupply, and the sum is preserved by\\n            // decrementing then incrementing.\\n            _balances[to] += amount;\\n        }\\n\\n        emit Transfer(from, to, amount);\\n\\n        _afterTokenTransfer(from, to, amount);\\n    }\\n\\n    /** @dev Creates `amount` tokens and assigns them to `account`, increasing\\n     * the total supply.\\n     *\\n     * Emits a {Transfer} event with `from` set to the zero address.\\n     *\\n     * Requirements:\\n     *\\n     * - `account` cannot be the zero address.\\n     */\\n    function _mint(address account, uint256 amount) internal virtual {\\n        require(account != address(0), \\\"ERC20: mint to the zero address\\\");\\n\\n        _beforeTokenTransfer(address(0), account, amount);\\n\\n        _totalSupply += amount;\\n        unchecked {\\n            // Overflow not possible: balance + amount is at most totalSupply + amount, which is checked above.\\n            _balances[account] += amount;\\n        }\\n        emit Transfer(address(0), account, amount);\\n\\n        _afterTokenTransfer(address(0), account, amount);\\n    }\\n\\n    /**\\n     * @dev Destroys `amount` tokens from `account`, reducing the\\n     * total supply.\\n     *\\n     * Emits a {Transfer} event with `to` set to the zero address.\\n     *\\n     * Requirements:\\n     *\\n     * - `account` cannot be the zero address.\\n     * - `account` must have at least `amount` tokens.\\n     */\\n    function _burn(address account, uint256 amount) internal virtual {\\n        require(account != address(0), \\\"ERC20: burn from the zero address\\\");\\n\\n        _beforeTokenTransfer(account, address(0), amount);\\n\\n        uint256 accountBalance = _balances[account];\\n        require(accountBalance >= amount, \\\"ERC20: burn amount exceeds balance\\\");\\n        unchecked {\\n            _balances[account] = accountBalance - amount;\\n            // Overflow not possible: amount <= accountBalance <= totalSupply.\\n            _totalSupply -= amount;\\n        }\\n\\n        emit Transfer(account, address(0), amount);\\n\\n        _afterTokenTransfer(account, address(0), amount);\\n    }\\n\\n    /**\\n     * @dev Sets `amount` as the allowance of `spender` over the `owner` s tokens.\\n     *\\n     * This internal function is equivalent to `approve`, and can be used to\\n     * e.g. set automatic allowances for certain subsystems, etc.\\n     *\\n     * Emits an {Approval} event.\\n     *\\n     * Requirements:\\n     *\\n     * - `owner` cannot be the zero address.\\n     * - `spender` cannot be the zero address.\\n     */\\n    function _approve(address owner, address spender, uint256 amount) internal virtual {\\n        require(owner != address(0), \\\"ERC20: approve from the zero address\\\");\\n        require(spender != address(0), \\\"ERC20: approve to the zero address\\\");\\n\\n        _allowances[owner][spender] = amount;\\n        emit Approval(owner, spender, amount);\\n    }\\n\\n    /**\\n     * @dev Updates `owner` s allowance for `spender` based on spent `amount`.\\n     *\\n     * Does not update the allowance amount in case of infinite allowance.\\n     * Revert if not enough allowance is available.\\n     *\\n     * Might emit an {Approval} event.\\n     */\\n    function _spendAllowance(address owner, address spender, uint256 amount) internal virtual {\\n        uint256 currentAllowance = allowance(owner, spender);\\n        if (currentAllowance != type(uint256).max) {\\n            require(currentAllowance >= amount, \\\"ERC20: insufficient allowance\\\");\\n            unchecked {\\n                _approve(owner, spender, currentAllowance - amount);\\n            }\\n        }\\n    }\\n\\n    /**\\n     * @dev Hook that is called before any transfer of tokens. This includes\\n     * minting and burning.\\n     *\\n     * Calling conditions:\\n     *\\n     * - when `from` and `to` are both non-zero, `amount` of ``from``'s tokens\\n     * will be transferred to `to`.\\n     * - when `from` is zero, `amount` tokens will be minted for `to`.\\n     * - when `to` is zero, `amount` of ``from``'s tokens will be burned.\\n     * - `from` and `to` are never both zero.\\n     *\\n     * To learn more about hooks, head to xref:ROOT:extending-contracts.adoc#using-hooks[Using Hooks].\\n     */\\n    function _beforeTokenTransfer(address from, address to, uint256 amount) internal virtual {}\\n\\n    /**\\n     * @dev Hook that is called after any transfer of tokens. This includes\\n     * minting and burning.\\n     *\\n     * Calling conditions:\\n     *\\n     * - when `from` and `to` are both non-zero, `amount` of ``from``'s tokens\\n     * has been transferred to `to`.\\n     * - when `from` is zero, `amount` tokens have been minted for `to`.\\n     * - when `to` is zero, `amount` of ``from``'s tokens have been burned.\\n     * - `from` and `to` are never both zero.\\n     *\\n     * To learn more about hooks, head to xref:ROOT:extending-contracts.adoc#using-hooks[Using Hooks].\\n     */\\n    function _afterTokenTransfer(address from, address to, uint256 amount) internal virtual {}\\n}\\n\"},\"https://github.com/OpenZeppelin/openzeppelin-contracts/blob/master/contracts/utils/Context.sol\":{\"content\":\"// SPDX-License-Identifier: MIT\\n// OpenZeppelin Contracts v4.4.1 (utils/Context.sol)\\n\\npragma solidity ^0.8.0;\\n\\n/**\\n * @dev Provides information about the current execution context, including the\\n * sender of the transaction and its data. While these are generally available\\n * via msg.sender and msg.data, they should not be accessed in such a direct\\n * manner, since when dealing with meta-transactions the account sending and\\n * paying for execution may not be the actual sender (as far as an application\\n * is concerned).\\n *\\n * This contract is only required for intermediate, library-like contracts.\\n */\\nabstract contract Context {\\n    function _msgSender() internal view virtual returns (address) {\\n        return msg.sender;\\n    }\\n\\n    function _msgData() internal view virtual returns (bytes calldata) {\\n        return msg.data;\\n    }\\n}\\n\"},\"https://github.com/OpenZeppelin/openzeppelin-contracts/blob/master/contracts/token/ERC20/extensions/IERC20Metadata.sol\":{\"content\":\"// SPDX-License-Identifier: MIT\\n// OpenZeppelin Contracts v4.4.1 (token/ERC20/extensions/IERC20Metadata.sol)\\n\\npragma solidity ^0.8.0;\\n\\nimport \\\"../IERC20.sol\\\";\\n\\n/**\\n * @dev Interface for the optional metadata functions from the ERC20 standard.\\n *\\n * _Available since v4.1._\\n */\\ninterface IERC20Metadata is IERC20 {\\n    /**\\n     * @dev Returns the name of the token.\\n     */\\n    function name() external view returns (string memory);\\n\\n    /**\\n     * @dev Returns the symbol of the token.\\n     */\\n    function symbol() external view returns (string memory);\\n\\n    /**\\n     * @dev Returns the decimals places of the token.\\n     */\\n    function decimals() external view returns (uint8);\\n}\\n\"}},\"settings\":{\"optimizer\":{\"enabled\":false,\"runs\":200},\"outputSelection\":{\"*\":{\"\":[\"ast\"],\"*\":[\"abi\",\"metadata\",\"devdoc\",\"userdoc\",\"storageLayout\",\"evm.legacyAssembly\",\"evm.bytecode\",\"evm.deployedBytecode\",\"evm.methodIdentifiers\",\"evm.gasEstimates\",\"evm.assembly\"]}}}}",
	"name": "LanguageDAO",
	"bytecode": {
		"linkReferences": {},
		"object": "6080604052620f424060135573e9dce89b076ba6107bb64ef30678efec11939234601460006101000a81548173ffffffffffffffffffffffffffffffffffffffff021916908373ffffffffffffffffffffffffffffffffffffffff1602179055503480156200006d57600080fd5b50604051620042c3380380620042c3833981810160405281019062000093919062000262565b620000b3620000a76200017f60201b60201c565b6200018760201b60201c565b82600160006101000a81548173ffffffffffffffffffffffffffffffffffffffff021916908373ffffffffffffffffffffffffffffffffffffffff16021790555081600260006101000a81548173ffffffffffffffffffffffffffffffffffffffff021916908373ffffffffffffffffffffffffffffffffffffffff16021790555080600360006101000a81548173ffffffffffffffffffffffffffffffffffffffff021916908373ffffffffffffffffffffffffffffffffffffffff16021790555050505062000311565b600033905090565b60008060009054906101000a900473ffffffffffffffffffffffffffffffffffffffff169050816000806101000a81548173ffffffffffffffffffffffffffffffffffffffff021916908373ffffffffffffffffffffffffffffffffffffffff1602179055508173ffffffffffffffffffffffffffffffffffffffff168173ffffffffffffffffffffffffffffffffffffffff167f8be0079c531659141344cd1fd0a4f28419497f9722a3daafe3b4186f6b6457e060405160405180910390a35050565b6000815190506200025c81620002f7565b92915050565b6000806000606084860312156200027e576200027d620002f2565b5b60006200028e868287016200024b565b9350506020620002a1868287016200024b565b9250506040620002b4868287016200024b565b9150509250925092565b6000620002cb82620002d2565b9050919050565b600073ffffffffffffffffffffffffffffffffffffffff82169050919050565b600080fd5b6200030281620002be565b81146200030e57600080fd5b50565b613fa280620003216000396000f3fe6080604052600436106101665760003560e01c806388fde90a116100d1578063cceb68f51161008a578063de0b27e511610064578063de0b27e514610517578063f2fde38b14610554578063f406517d1461057d578063f6ef8ac7146105ac57610166565b8063cceb68f514610496578063cf978530146104c1578063da35c664146104ec57610166565b806388fde90a146103915780638da5cb5b146103bc578063a4131a48146103e7578063a62de3ba14610403578063b8997a971461042e578063b93574371461045957610166565b80634c15676b116101235780634c15676b146102a25780635c042ae7146102be5780635dd3983a146102e957806369d20dd514610314578063715018a614610351578063805347f51461036857610166565b8063013cf08b1461016b5780630be4e999146101b35780631089f5ed146101cf57806312293e01146101eb57806332e0814214610228578063392317cd14610265575b600080fd5b34801561017757600080fd5b50610192600480360381019061018d9190612d4f565b6105d5565b6040516101aa9c9b9a99989796959493929190613679565b60405180910390f35b6101cd60048036038101906101c89190612d4f565b610882565b005b6101e960048036038101906101e49190612d4f565b610d6b565b005b3480156101f757600080fd5b50610212600480360381019061020d9190612da9565b6111ee565b60405161021f9190613351565b60405180910390f35b34801561023457600080fd5b5061024f600480360381019061024a9190612c27565b61123c565b60405161025c9190613417565b60405180910390f35b34801561027157600080fd5b5061028c60048036038101906102879190612bcd565b61126b565b604051610299919061365e565b60405180910390f35b6102bc60048036038101906102b79190612c94565b611283565b005b3480156102ca57600080fd5b506102d361164b565b6040516102e09190613351565b60405180910390f35b3480156102f557600080fd5b506102fe611671565b60405161030b9190613643565b60405180910390f35b34801561032057600080fd5b5061033b60048036038101906103369190612da9565b6116bd565b6040516103489190613351565b60405180910390f35b34801561035d57600080fd5b5061036661170b565b005b34801561037457600080fd5b5061038f600480360381019061038a9190612da9565b61171f565b005b34801561039d57600080fd5b506103a6611d92565b6040516103b39190613468565b60405180910390f35b3480156103c857600080fd5b506103d1611db8565b6040516103de9190613351565b60405180910390f35b61040160048036038101906103fc9190612d4f565b611de1565b005b34801561040f57600080fd5b506104186122ca565b604051610425919061344d565b60405180910390f35b34801561043a57600080fd5b506104436122f0565b604051610450919061365e565b60405180910390f35b34801561046557600080fd5b50610480600480360381019061047b9190612da9565b6122f6565b60405161048d9190613351565b60405180910390f35b3480156104a257600080fd5b506104ab612344565b6040516104b891906133f5565b60405180910390f35b3480156104cd57600080fd5b506104d6612706565b6040516104e39190613432565b60405180910390f35b3480156104f857600080fd5b5061050161272c565b60405161050e919061365e565b60405180910390f35b34801561052357600080fd5b5061053e60048036038101906105399190612bcd565b612732565b60405161054b9190613417565b60405180910390f35b34801561056057600080fd5b5061057b60048036038101906105769190612bcd565b612752565b005b34801561058957600080fd5b506105926127d6565b6040516105a395949392919061374f565b60405180910390f35b3480156105b857600080fd5b506105d360048036038101906105ce9190612de9565b6127fa565b005b60046020528060005260406000206000915090508060000154908060010180546105fe90613a23565b80601f016020809104026020016040519081016040528092919081815260200182805461062a90613a23565b80156106775780601f1061064c57610100808354040283529160200191610677565b820191906000526020600020905b81548152906001019060200180831161065a57829003601f168201915b50505050509080600201805461068c90613a23565b80601f01602080910402602001604051908101604052809291908181526020018280546106b890613a23565b80156107055780601f106106da57610100808354040283529160200191610705565b820191906000526020600020905b8154815290600101906020018083116106e857829003601f168201915b50505050509080600301805461071a90613a23565b80601f016020809104026020016040519081016040528092919081815260200182805461074690613a23565b80156107935780601f1061076857610100808354040283529160200191610793565b820191906000526020600020905b81548152906001019060200180831161077657829003601f168201915b5050505050908060040160009054906101000a900473ffffffffffffffffffffffffffffffffffffffff169080600501549080600601549080600701549080600801549080600901549080600a0180546107ec90613a23565b80601f016020809104026020016040519081016040528092919081815260200182805461081890613a23565b80156108655780601f1061083a57610100808354040283529160200191610865565b820191906000526020600020905b81548152906001019060200180831161084857829003601f168201915b50505050509080600b0160009054906101000a900460ff1690508c565b600160009054906101000a900473ffffffffffffffffffffffffffffffffffffffff1673ffffffffffffffffffffffffffffffffffffffff166393538631336040518263ffffffff1660e01b81526004016108dd9190613351565b60206040518083038186803b1580156108f557600080fd5b505afa158015610909573d6000803e3d6000fd5b505050506040513d601f19601f8201168201806040525081019061092d9190612c67565b61096c576040517f08c379a000000000000000000000000000000000000000000000000000000000815260040161096390613543565b60405180910390fd5b600b60003373ffffffffffffffffffffffffffffffffffffffff1673ffffffffffffffffffffffffffffffffffffffff16815260200190815260200160002060009054906101000a900460ff166109f8576040517f08c379a00000000000000000000000000000000000000000000000000000000081526004016109ef90613603565b60405180910390fd5b3373ffffffffffffffffffffffffffffffffffffffff166004600083815260200190815260200160002060040160009054906101000a900473ffffffffffffffffffffffffffffffffffffffff1673ffffffffffffffffffffffffffffffffffffffff161415610a9d576040517f08c379a0000000000000000000000000000000000000000000000000000000008152600401610a94906135e3565b60405180910390fd5b600560003373ffffffffffffffffffffffffffffffffffffffff1673ffffffffffffffffffffffffffffffffffffffff168152602001908152602001600020600082815260200190815260200160002060009054906101000a900460ff1615610b3b576040517f08c379a0000000000000000000000000000000000000000000000000000000008152600401610b32906134a3565b60405180910390fd5b42600460008381526020019081526020016000206008015411610b93576040517f08c379a0000000000000000000000000000000000000000000000000000000008152600401610b8a90613483565b60405180910390fd5b600e600301543414610bda576040517f08c379a0000000000000000000000000000000000000000000000000000000008152600401610bd190613583565b60405180910390fd5b60016004600083815260200190815260200160002060060154610bfd919061385e565b60046000838152602001908152602001600020600601819055506001600560003373ffffffffffffffffffffffffffffffffffffffff1673ffffffffffffffffffffffffffffffffffffffff168152602001908152602001600020600083815260200190815260200160002060006101000a81548160ff02191690831515021790555060066000828152602001908152602001600020339080600181540180825580915050600190039060005260206000200160009091909190916101000a81548173ffffffffffffffffffffffffffffffffffffffff021916908373ffffffffffffffffffffffffffffffffffffffff16021790555060086000828152602001908152602001600020339080600181540180825580915050600190039060005260206000200160009091909190916101000a81548173ffffffffffffffffffffffffffffffffffffffff021916908373ffffffffffffffffffffffffffffffffffffffff16021790555050565b600160009054906101000a900473ffffffffffffffffffffffffffffffffffffffff1673ffffffffffffffffffffffffffffffffffffffff166393538631336040518263ffffffff1660e01b8152600401610dc69190613351565b60206040518083038186803b158015610dde57600080fd5b505afa158015610df2573d6000803e3d6000fd5b505050506040513d601f19601f82011682018060405250810190610e169190612c67565b610e55576040517f08c379a0000000000000000000000000000000000000000000000000000000008152600401610e4c90613543565b60405180910390fd5b600360009054906101000a900473ffffffffffffffffffffffffffffffffffffffff1673ffffffffffffffffffffffffffffffffffffffff16634b94f50e6040518163ffffffff1660e01b815260040160206040518083038186803b158015610ebd57600080fd5b505afa158015610ed1573d6000803e3d6000fd5b505050506040513d601f19601f82011682018060405250810190610ef59190612d7c565b81610f0091906138e5565b3414610f41576040517f08c379a0000000000000000000000000000000000000000000000000000000008152600401610f3890613563565b60405180910390fd5b80600360009054906101000a900473ffffffffffffffffffffffffffffffffffffffff1673ffffffffffffffffffffffffffffffffffffffff166370a08231306040518263ffffffff1660e01b8152600401610f9d9190613351565b60206040518083038186803b158015610fb557600080fd5b505afa158015610fc9573d6000803e3d6000fd5b505050506040513d601f19601f82011682018060405250810190610fed9190612d7c565b101561102e576040517f08c379a0000000000000000000000000000000000000000000000000000000008152600401611025906134c3565b60405180910390fd5b600b60003373ffffffffffffffffffffffffffffffffffffffff1673ffffffffffffffffffffffffffffffffffffffff16815260200190815260200160002060009054906101000a900460ff1661113b57600a339080600181540180825580915050600190039060005260206000200160009091909190916101000a81548173ffffffffffffffffffffffffffffffffffffffff021916908373ffffffffffffffffffffffffffffffffffffffff1602179055506001600b60003373ffffffffffffffffffffffffffffffffffffffff1673ffffffffffffffffffffffffffffffffffffffff16815260200190815260200160002060006101000a81548160ff0219169083151502179055505b600360009054906101000a900473ffffffffffffffffffffffffffffffffffffffff1673ffffffffffffffffffffffffffffffffffffffff1663a9059cbb33836040518363ffffffff1660e01b81526004016111989291906133cc565b602060405180830381600087803b1580156111b257600080fd5b505af11580156111c6573d6000803e3d6000fd5b505050506040513d601f19601f820116820180604052508101906111ea9190612c67565b5050565b6008602052816000526040600020818154811061120a57600080fd5b906000526020600020016000915091509054906101000a900473ffffffffffffffffffffffffffffffffffffffff1681565b60056020528160005260406000206020528060005260406000206000915091509054906101000a900460ff1681565b600c6020528060005260406000206000915090505481565b600160009054906101000a900473ffffffffffffffffffffffffffffffffffffffff1673ffffffffffffffffffffffffffffffffffffffff166393538631336040518263ffffffff1660e01b81526004016112de9190613351565b60206040518083038186803b1580156112f657600080fd5b505afa15801561130a573d6000803e3d6000fd5b505050506040513d601f19601f8201168201806040525081019061132e9190612c67565b61136d576040517f08c379a000000000000000000000000000000000000000000000000000000000815260040161136490613543565b60405180910390fd5b600b60003373ffffffffffffffffffffffffffffffffffffffff1673ffffffffffffffffffffffffffffffffffffffff16815260200190815260200160002060009054906101000a900460ff166113f9576040517f08c379a00000000000000000000000000000000000000000000000000000000081526004016113f090613623565b60405180910390fd5b600e600401543414611440576040517f08c379a000000000000000000000000000000000000000000000000000000000815260040161143790613503565b60405180910390fd5b6009600081548092919061145390613a86565b9190505550600060405180610180016040528060095481526020018681526020018581526020018481526020013373ffffffffffffffffffffffffffffffffffffffff1681526020016000815260200160008152602001428152602001600e60020154426114c1919061385e565b81526020018381526020016040518060400160405280600781526020017f70656e64696e670000000000000000000000000000000000000000000000000081525081526020016000151581525090508060046000600954815260200190815260200160002060008201518160000155602082015181600101908051906020019061154c9291906129a9565b5060408201518160020190805190602001906115699291906129a9565b5060608201518160030190805190602001906115869291906129a9565b5060808201518160040160006101000a81548173ffffffffffffffffffffffffffffffffffffffff021916908373ffffffffffffffffffffffffffffffffffffffff16021790555060a0820151816005015560c0820151816006015560e082015181600701556101008201518160080155610120820151816009015561014082015181600a01908051906020019061161f9291906129a9565b5061016082015181600b0160006101000a81548160ff0219169083151502179055509050505050505050565b601460009054906101000a900473ffffffffffffffffffffffffffffffffffffffff1681565b611679612a2f565b600e6040518060a001604052908160008201548152602001600182015481526020016002820154815260200160038201548152602001600482015481525050905090565b600760205281600052604060002081815481106116d957600080fd5b906000526020600020016000915091509054906101000a900473ffffffffffffffffffffffffffffffffffffffff1681565b61171361285f565b61171d60006128dd565b565b6000151560046000848152602001908152602001600020600b0160009054906101000a900460ff16151514611789576040517f08c379a0000000000000000000000000000000000000000000000000000000008152600401611780906135c3565b60405180910390fd5b6000600460008481526020019081526020016000206006015460046000858152602001908152602001600020600501546117c3919061385e565b90506064600e60000154600a805490506117dd91906138e5565b6117e791906138b4565b811115611853576040518060400160405280600c81526020017f7175657374696f6e61626c65000000000000000000000000000000000000000081525060046000858152602001908152602001600020600a01908051906020019061184d9291906129a9565b50611d5e565b600e60010154606482600460008781526020019081526020016000206005015461187d91906138b4565b61188791906138e5565b1115611cc1576040518060400160405280600881526020017f617070726f76656400000000000000000000000000000000000000000000000081525060046000858152602001908152602001600020600a0190805190602001906118ec9291906129a9565b5060006004600085815260200190815260200160002060040160009054906101000a900473ffffffffffffffffffffffffffffffffffffffff169050600e60040154600c60008373ffffffffffffffffffffffffffffffffffffffff1673ffffffffffffffffffffffffffffffffffffffff168152602001908152602001600020600082825461197c919061385e565b9250508190555060005b6007600086815260200190815260200160002080549050811015611a6157600e60030154600c60006007600089815260200190815260200160002084815481106119d3576119d2613b5c565b5b9060005260206000200160009054906101000a900473ffffffffffffffffffffffffffffffffffffffff1673ffffffffffffffffffffffffffffffffffffffff1673ffffffffffffffffffffffffffffffffffffffff1681526020019081526020016000206000828254611a47919061385e565b925050819055508080611a5990613a86565b915050611986565b50600060046000868152602001908152602001600020600901541115611cbb576000600260009054906101000a900473ffffffffffffffffffffffffffffffffffffffff1673ffffffffffffffffffffffffffffffffffffffff1663cebf64f5856040518263ffffffff1660e01b8152600401611ade919061365e565b60206040518083038186803b158015611af657600080fd5b505afa158015611b0a573d6000803e3d6000fd5b505050506040513d601f19601f82011682018060405250810190611b2e9190612bfa565b90506000601460009054906101000a900473ffffffffffffffffffffffffffffffffffffffff1690506013548173ffffffffffffffffffffffffffffffffffffffff1663dd62ed3e33306040518363ffffffff1660e01b8152600401611b9592919061336c565b60206040518083038186803b158015611bad57600080fd5b505afa158015611bc1573d6000803e3d6000fd5b505050506040513d601f19601f82011682018060405250810190611be59190612d7c565b1015611c26576040517f08c379a0000000000000000000000000000000000000000000000000000000008152600401611c1d90613523565b60405180910390fd5b8073ffffffffffffffffffffffffffffffffffffffff166323b872dd33846013546040518463ffffffff1660e01b8152600401611c6593929190613395565b602060405180830381600087803b158015611c7f57600080fd5b505af1158015611c93573d6000803e3d6000fd5b505050506040513d601f19601f82011682018060405250810190611cb79190612c67565b5050505b50611d5d565b600e600101546064826004600087815260200190815260200160002060060154611ceb91906138b4565b611cf591906138e5565b1115611d5c576040518060400160405280600881526020017f72656a656374656400000000000000000000000000000000000000000000000081525060046000858152602001908152602001600020600a019080519060200190611d5a9291906129a9565b505b5b5b600160046000858152602001908152602001600020600b0160006101000a81548160ff021916908315150217905550505050565b600260009054906101000a900473ffffffffffffffffffffffffffffffffffffffff1681565b60008060009054906101000a900473ffffffffffffffffffffffffffffffffffffffff16905090565b600160009054906101000a900473ffffffffffffffffffffffffffffffffffffffff1673ffffffffffffffffffffffffffffffffffffffff166393538631336040518263ffffffff1660e01b8152600401611e3c9190613351565b60206040518083038186803b158015611e5457600080fd5b505afa158015611e68573d6000803e3d6000fd5b505050506040513d601f19601f82011682018060405250810190611e8c9190612c67565b611ecb576040517f08c379a0000000000000000000000000000000000000000000000000000000008152600401611ec290613543565b60405180910390fd5b600b60003373ffffffffffffffffffffffffffffffffffffffff1673ffffffffffffffffffffffffffffffffffffffff16815260200190815260200160002060009054906101000a900460ff16611f57576040517f08c379a0000000000000000000000000000000000000000000000000000000008152600401611f4e90613603565b60405180910390fd5b3373ffffffffffffffffffffffffffffffffffffffff166004600083815260200190815260200160002060040160009054906101000a900473ffffffffffffffffffffffffffffffffffffffff1673ffffffffffffffffffffffffffffffffffffffff161415611ffc576040517f08c379a0000000000000000000000000000000000000000000000000000000008152600401611ff3906135e3565b60405180910390fd5b600560003373ffffffffffffffffffffffffffffffffffffffff1673ffffffffffffffffffffffffffffffffffffffff168152602001908152602001600020600082815260200190815260200160002060009054906101000a900460ff161561209a576040517f08c379a0000000000000000000000000000000000000000000000000000000008152600401612091906134a3565b60405180910390fd5b426004600083815260200190815260200160002060080154116120f2576040517f08c379a00000000000000000000000000000000000000000000000000000000081526004016120e990613483565b60405180910390fd5b600e600301543414612139576040517f08c379a000000000000000000000000000000000000000000000000000000000815260040161213090613583565b60405180910390fd5b6001600460008381526020019081526020016000206005015461215c919061385e565b60046000838152602001908152602001600020600501819055506001600560003373ffffffffffffffffffffffffffffffffffffffff1673ffffffffffffffffffffffffffffffffffffffff168152602001908152602001600020600083815260200190815260200160002060006101000a81548160ff02191690831515021790555060066000828152602001908152602001600020339080600181540180825580915050600190039060005260206000200160009091909190916101000a81548173ffffffffffffffffffffffffffffffffffffffff021916908373ffffffffffffffffffffffffffffffffffffffff16021790555060076000828152602001908152602001600020339080600181540180825580915050600190039060005260206000200160009091909190916101000a81548173ffffffffffffffffffffffffffffffffffffffff021916908373ffffffffffffffffffffffffffffffffffffffff16021790555050565b600160009054906101000a900473ffffffffffffffffffffffffffffffffffffffff1681565b60135481565b6006602052816000526040600020818154811061231257600080fd5b906000526020600020016000915091509054906101000a900473ffffffffffffffffffffffffffffffffffffffff1681565b6060600060095467ffffffffffffffff81111561236457612363613b8b565b5b60405190808252806020026020018201604052801561239d57816020015b61238a612a5e565b8152602001906001900390816123825790505b50905060005b6009548110156126fe57600460006001836123be919061385e565b815260200190815260200160002060405180610180016040529081600082015481526020016001820180546123f290613a23565b80601f016020809104026020016040519081016040528092919081815260200182805461241e90613a23565b801561246b5780601f106124405761010080835404028352916020019161246b565b820191906000526020600020905b81548152906001019060200180831161244e57829003601f168201915b5050505050815260200160028201805461248490613a23565b80601f01602080910402602001604051908101604052809291908181526020018280546124b090613a23565b80156124fd5780601f106124d2576101008083540402835291602001916124fd565b820191906000526020600020905b8154815290600101906020018083116124e057829003601f168201915b5050505050815260200160038201805461251690613a23565b80601f016020809104026020016040519081016040528092919081815260200182805461254290613a23565b801561258f5780601f106125645761010080835404028352916020019161258f565b820191906000526020600020905b81548152906001019060200180831161257257829003601f168201915b505050505081526020016004820160009054906101000a900473ffffffffffffffffffffffffffffffffffffffff1673ffffffffffffffffffffffffffffffffffffffff1673ffffffffffffffffffffffffffffffffffffffff1681526020016005820154815260200160068201548152602001600782015481526020016008820154815260200160098201548152602001600a8201805461263090613a23565b80601f016020809104026020016040519081016040528092919081815260200182805461265c90613a23565b80156126a95780601f1061267e576101008083540402835291602001916126a9565b820191906000526020600020905b81548152906001019060200180831161268c57829003601f168201915b50505050508152602001600b820160009054906101000a900460ff1615151515815250508282815181106126e0576126df613b5c565b5b602002602001018190525080806126f690613a86565b9150506123a3565b508091505090565b600360009054906101000a900473ffffffffffffffffffffffffffffffffffffffff1681565b60095481565b600b6020528060005260406000206000915054906101000a900460ff1681565b61275a61285f565b600073ffffffffffffffffffffffffffffffffffffffff168173ffffffffffffffffffffffffffffffffffffffff1614156127ca576040517f08c379a00000000000000000000000000000000000000000000000000000000081526004016127c1906134e3565b60405180910390fd5b6127d3816128dd565b50565b600e8060000154908060010154908060020154908060030154908060040154905085565b6040518060a0016040528086815260200185815260200184815260200183815260200182815250600e60008201518160000155602082015181600101556040820151816002015560608201518160030155608082015181600401559050505050505050565b6128676129a1565b73ffffffffffffffffffffffffffffffffffffffff16612885611db8565b73ffffffffffffffffffffffffffffffffffffffff16146128db576040517f08c379a00000000000000000000000000000000000000000000000000000000081526004016128d2906135a3565b60405180910390fd5b565b60008060009054906101000a900473ffffffffffffffffffffffffffffffffffffffff169050816000806101000a81548173ffffffffffffffffffffffffffffffffffffffff021916908373ffffffffffffffffffffffffffffffffffffffff1602179055508173ffffffffffffffffffffffffffffffffffffffff168173ffffffffffffffffffffffffffffffffffffffff167f8be0079c531659141344cd1fd0a4f28419497f9722a3daafe3b4186f6b6457e060405160405180910390a35050565b600033905090565b8280546129b590613a23565b90600052602060002090601f0160209004810192826129d75760008555612a1e565b82601f106129f057805160ff1916838001178555612a1e565b82800160010185558215612a1e579182015b82811115612a1d578251825591602001919060010190612a02565b5b509050612a2b9190612ad7565b5090565b6040518060a0016040528060008152602001600081526020016000815260200160008152602001600081525090565b60405180610180016040528060008152602001606081526020016060815260200160608152602001600073ffffffffffffffffffffffffffffffffffffffff1681526020016000815260200160008152602001600081526020016000815260200160008152602001606081526020016000151581525090565b5b80821115612af0576000816000905550600101612ad8565b5090565b6000612b07612b02846137c7565b6137a2565b905082815260208101848484011115612b2357612b22613bbf565b5b612b2e8482856139e1565b509392505050565b600081359050612b4581613f27565b92915050565b600081519050612b5a81613f27565b92915050565b600081519050612b6f81613f3e565b92915050565b600082601f830112612b8a57612b89613bba565b5b8135612b9a848260208601612af4565b91505092915050565b600081359050612bb281613f55565b92915050565b600081519050612bc781613f55565b92915050565b600060208284031215612be357612be2613bc9565b5b6000612bf184828501612b36565b91505092915050565b600060208284031215612c1057612c0f613bc9565b5b6000612c1e84828501612b4b565b91505092915050565b60008060408385031215612c3e57612c3d613bc9565b5b6000612c4c85828601612b36565b9250506020612c5d85828601612ba3565b9150509250929050565b600060208284031215612c7d57612c7c613bc9565b5b6000612c8b84828501612b60565b91505092915050565b60008060008060808587031215612cae57612cad613bc9565b5b600085013567ffffffffffffffff811115612ccc57612ccb613bc4565b5b612cd887828801612b75565b945050602085013567ffffffffffffffff811115612cf957612cf8613bc4565b5b612d0587828801612b75565b935050604085013567ffffffffffffffff811115612d2657612d25613bc4565b5b612d3287828801612b75565b9250506060612d4387828801612ba3565b91505092959194509250565b600060208284031215612d6557612d64613bc9565b5b6000612d7384828501612ba3565b91505092915050565b600060208284031215612d9257612d91613bc9565b5b6000612da084828501612bb8565b91505092915050565b60008060408385031215612dc057612dbf613bc9565b5b6000612dce85828601612ba3565b9250506020612ddf85828601612ba3565b9150509250929050565b600080600080600060a08688031215612e0557612e04613bc9565b5b6000612e1388828901612ba3565b9550506020612e2488828901612ba3565b9450506040612e3588828901612ba3565b9350506060612e4688828901612ba3565b9250506080612e5788828901612ba3565b9150509295509295909350565b6000612e7083836131b2565b905092915050565b612e818161393f565b82525050565b612e908161393f565b82525050565b6000612ea182613808565b612eab818561382b565b935083602082028501612ebd856137f8565b8060005b85811015612ef95784840389528151612eda8582612e64565b9450612ee58361381e565b925060208a01995050600181019050612ec1565b50829750879550505050505092915050565b612f1481613951565b82525050565b612f2381613951565b82525050565b612f3281613987565b82525050565b612f4181613999565b82525050565b612f50816139ab565b82525050565b6000612f6182613813565b612f6b818561383c565b9350612f7b8185602086016139f0565b612f8481613bce565b840191505092915050565b6000612f9a82613813565b612fa4818561384d565b9350612fb48185602086016139f0565b612fbd81613bce565b840191505092915050565b6000612fd560168361384d565b9150612fe082613bdf565b602082019050919050565b6000612ff8600d8361384d565b915061300382613c08565b602082019050919050565b600061301b60248361384d565b915061302682613c31565b604082019050919050565b600061303e60268361384d565b915061304982613c80565b604082019050919050565b600061306160338361384d565b915061306c82613ccf565b604082019050919050565b600061308460188361384d565b915061308f82613d1e565b602082019050919050565b60006130a7601a8361384d565b91506130b282613d47565b602082019050919050565b60006130ca60108361384d565b91506130d582613d70565b602082019050919050565b60006130ed60348361384d565b91506130f882613d99565b604082019050919050565b600061311060208361384d565b915061311b82613de8565b602082019050919050565b6000613133601f8361384d565b915061313e82613e11565b602082019050919050565b6000613156602d8361384d565b915061316182613e3a565b604082019050919050565b600061317960268361384d565b915061318482613e89565b604082019050919050565b600061319c60298361384d565b91506131a782613ed8565b604082019050919050565b6000610180830160008301516131cb6000860182613333565b50602083015184820360208601526131e38282612f56565b915050604083015184820360408601526131fd8282612f56565b915050606083015184820360608601526132178282612f56565b915050608083015161322c6080860182612e78565b5060a083015161323f60a0860182613333565b5060c083015161325260c0860182613333565b5060e083015161326560e0860182613333565b5061010083015161327a610100860182613333565b5061012083015161328f610120860182613333565b506101408301518482036101408601526132a98282612f56565b9150506101608301516132c0610160860182612f0b565b508091505092915050565b60a0820160008201516132e16000850182613333565b5060208201516132f46020850182613333565b5060408201516133076040850182613333565b50606082015161331a6060850182613333565b50608082015161332d6080850182613333565b50505050565b61333c8161397d565b82525050565b61334b8161397d565b82525050565b60006020820190506133666000830184612e87565b92915050565b60006040820190506133816000830185612e87565b61338e6020830184612e87565b9392505050565b60006060820190506133aa6000830186612e87565b6133b76020830185612e87565b6133c46040830184613342565b949350505050565b60006040820190506133e16000830185612e87565b6133ee6020830184613342565b9392505050565b6000602082019050818103600083015261340f8184612e96565b905092915050565b600060208201905061342c6000830184612f1a565b92915050565b60006020820190506134476000830184612f29565b92915050565b60006020820190506134626000830184612f38565b92915050565b600060208201905061347d6000830184612f47565b92915050565b6000602082019050818103600083015261349c81612fc8565b9050919050565b600060208201905081810360008301526134bc81612feb565b9050919050565b600060208201905081810360008301526134dc8161300e565b9050919050565b600060208201905081810360008301526134fc81613031565b9050919050565b6000602082019050818103600083015261351c81613054565b9050919050565b6000602082019050818103600083015261353c81613077565b9050919050565b6000602082019050818103600083015261355c8161309a565b9050919050565b6000602082019050818103600083015261357c816130bd565b9050919050565b6000602082019050818103600083015261359c816130e0565b9050919050565b600060208201905081810360008301526135bc81613103565b9050919050565b600060208201905081810360008301526135dc81613126565b9050919050565b600060208201905081810360008301526135fc81613149565b9050919050565b6000602082019050818103600083015261361c8161316c565b9050919050565b6000602082019050818103600083015261363c8161318f565b9050919050565b600060a08201905061365860008301846132cb565b92915050565b60006020820190506136736000830184613342565b92915050565b60006101808201905061368f600083018f613342565b81810360208301526136a1818e612f8f565b905081810360408301526136b5818d612f8f565b905081810360608301526136c9818c612f8f565b90506136d8608083018b612e87565b6136e560a083018a613342565b6136f260c0830189613342565b6136ff60e0830188613342565b61370d610100830187613342565b61371b610120830186613342565b81810361014083015261372e8185612f8f565b905061373e610160830184612f1a565b9d9c50505050505050505050505050565b600060a0820190506137646000830188613342565b6137716020830187613342565b61377e6040830186613342565b61378b6060830185613342565b6137986080830184613342565b9695505050505050565b60006137ac6137bd565b90506137b88282613a55565b919050565b6000604051905090565b600067ffffffffffffffff8211156137e2576137e1613b8b565b5b6137eb82613bce565b9050602081019050919050565b6000819050602082019050919050565b600081519050919050565b600081519050919050565b6000602082019050919050565b600082825260208201905092915050565b600082825260208201905092915050565b600082825260208201905092915050565b60006138698261397d565b91506138748361397d565b9250827fffffffffffffffffffffffffffffffffffffffffffffffffffffffffffffffff038211156138a9576138a8613acf565b5b828201905092915050565b60006138bf8261397d565b91506138ca8361397d565b9250826138da576138d9613afe565b5b828204905092915050565b60006138f08261397d565b91506138fb8361397d565b9250817fffffffffffffffffffffffffffffffffffffffffffffffffffffffffffffffff048311821515161561393457613933613acf565b5b828202905092915050565b600061394a8261395d565b9050919050565b60008115159050919050565b600073ffffffffffffffffffffffffffffffffffffffff82169050919050565b6000819050919050565b6000613992826139bd565b9050919050565b60006139a4826139bd565b9050919050565b60006139b6826139bd565b9050919050565b60006139c8826139cf565b9050919050565b60006139da8261395d565b9050919050565b82818337600083830152505050565b60005b83811015613a0e5780820151818401526020810190506139f3565b83811115613a1d576000848401525b50505050565b60006002820490506001821680613a3b57607f821691505b60208210811415613a4f57613a4e613b2d565b5b50919050565b613a5e82613bce565b810181811067ffffffffffffffff82111715613a7d57613a7c613b8b565b5b80604052505050565b6000613a918261397d565b91507fffffffffffffffffffffffffffffffffffffffffffffffffffffffffffffffff821415613ac457613ac3613acf565b5b600182019050919050565b7f4e487b7100000000000000000000000000000000000000000000000000000000600052601160045260246000fd5b7f4e487b7100000000000000000000000000000000000000000000000000000000600052601260045260246000fd5b7f4e487b7100000000000000000000000000000000000000000000000000000000600052602260045260246000fd5b7f4e487b7100000000000000000000000000000000000000000000000000000000600052603260045260246000fd5b7f4e487b7100000000000000000000000000000000000000000000000000000000600052604160045260246000fd5b600080fd5b600080fd5b600080fd5b600080fd5b6000601f19601f8301169050919050565b7f566f74696e6720506572696f642046696e697368656400000000000000000000600082015250565b7f416c726561647920566f74656400000000000000000000000000000000000000600082015250565b7f436f6e747261637420646f6573206e6f74206861766520656e6f75676820746f60008201527f6b656e7300000000000000000000000000000000000000000000000000000000602082015250565b7f4f776e61626c653a206e6577206f776e657220697320746865207a65726f206160008201527f6464726573730000000000000000000000000000000000000000000000000000602082015250565b7f596f75206861766520746f207374616b652076616c696420616d6f756e74207460008201527f6f2063726561746520612070726f706f73616c00000000000000000000000000602082015250565b7f616c6c6f77616e6365206973206e6f7420656e6f756768210000000000000000600082015250565b7f4669727374206a6f696e207468652053616d686974612044414f000000000000600082015250565b7f4e6f7420656e6f7567682076616c756500000000000000000000000000000000600082015250565b7f596f75206861766520746f207374616b652076616c696420616d6f756e74207460008201527f6f20766f7465206f6e20612070726f706f73616c000000000000000000000000602082015250565b7f4f776e61626c653a2063616c6c6572206973206e6f7420746865206f776e6572600082015250565b7f566f74696e6720726573756c7420697320616c726561647920676976656e2100600082015250565b7f50726f706f73616c2043726561746f722063616e6e6f7420766f74652068697360008201527f206f776e2070726f706f73616c00000000000000000000000000000000000000602082015250565b7f596f7520617265206e6f742061206d656d626572206f66207468652053616d6860008201527f69746144414f0000000000000000000000000000000000000000000000000000602082015250565b7f596f7520617265206e6f7420746865206d656d626572206f662074687320536160008201527f6d686974612044414f0000000000000000000000000000000000000000000000602082015250565b613f308161393f565b8114613f3b57600080fd5b50565b613f4781613951565b8114613f5257600080fd5b50565b613f5e8161397d565b8114613f6957600080fd5b5056fea26469706673582212205771672dbd920c9da64fd3593e81f77159aa27ca1e85ac9c965dd5b9606d5bf864736f6c63430008070033",
		"opcodes": "PUSH1 0x80 PUSH1 0x40 MSTORE PUSH3 0xF4240 PUSH1 0x13 SSTORE PUSH20 0xE9DCE89B076BA6107BB64EF30678EFEC11939234 PUSH1 0x14 PUSH1 0x0 PUSH2 0x100 EXP DUP2 SLOAD DUP2 PUSH20 0xFFFFFFFFFFFFFFFFFFFFFFFFFFFFFFFFFFFFFFFF MUL NOT AND SWAP1 DUP4 PUSH20 0xFFFFFFFFFFFFFFFFFFFFFFFFFFFFFFFFFFFFFFFF AND MUL OR SWAP1 SSTORE POP CALLVALUE DUP1 ISZERO PUSH3 0x6D JUMPI PUSH1 0x0 DUP1 REVERT JUMPDEST POP PUSH1 0x40 MLOAD PUSH3 0x42C3 CODESIZE SUB DUP1 PUSH3 0x42C3 DUP4 CODECOPY DUP2 DUP2 ADD PUSH1 0x40 MSTORE DUP2 ADD SWAP1 PUSH3 0x93 SWAP2 SWAP1 PUSH3 0x262 JUMP JUMPDEST PUSH3 0xB3 PUSH3 0xA7 PUSH3 0x17F PUSH1 0x20 SHL PUSH1 0x20 SHR JUMP JUMPDEST PUSH3 0x187 PUSH1 0x20 SHL PUSH1 0x20 SHR JUMP JUMPDEST DUP3 PUSH1 0x1 PUSH1 0x0 PUSH2 0x100 EXP DUP2 SLOAD DUP2 PUSH20 0xFFFFFFFFFFFFFFFFFFFFFFFFFFFFFFFFFFFFFFFF MUL NOT AND SWAP1 DUP4 PUSH20 0xFFFFFFFFFFFFFFFFFFFFFFFFFFFFFFFFFFFFFFFF AND MUL OR SWAP1 SSTORE POP DUP2 PUSH1 0x2 PUSH1 0x0 PUSH2 0x100 EXP DUP2 SLOAD DUP2 PUSH20 0xFFFFFFFFFFFFFFFFFFFFFFFFFFFFFFFFFFFFFFFF MUL NOT AND SWAP1 DUP4 PUSH20 0xFFFFFFFFFFFFFFFFFFFFFFFFFFFFFFFFFFFFFFFF AND MUL OR SWAP1 SSTORE POP DUP1 PUSH1 0x3 PUSH1 0x0 PUSH2 0x100 EXP DUP2 SLOAD DUP2 PUSH20 0xFFFFFFFFFFFFFFFFFFFFFFFFFFFFFFFFFFFFFFFF MUL NOT AND SWAP1 DUP4 PUSH20 0xFFFFFFFFFFFFFFFFFFFFFFFFFFFFFFFFFFFFFFFF AND MUL OR SWAP1 SSTORE POP POP POP POP PUSH3 0x311 JUMP JUMPDEST PUSH1 0x0 CALLER SWAP1 POP SWAP1 JUMP JUMPDEST PUSH1 0x0 DUP1 PUSH1 0x0 SWAP1 SLOAD SWAP1 PUSH2 0x100 EXP SWAP1 DIV PUSH20 0xFFFFFFFFFFFFFFFFFFFFFFFFFFFFFFFFFFFFFFFF AND SWAP1 POP DUP2 PUSH1 0x0 DUP1 PUSH2 0x100 EXP DUP2 SLOAD DUP2 PUSH20 0xFFFFFFFFFFFFFFFFFFFFFFFFFFFFFFFFFFFFFFFF MUL NOT AND SWAP1 DUP4 PUSH20 0xFFFFFFFFFFFFFFFFFFFFFFFFFFFFFFFFFFFFFFFF AND MUL OR SWAP1 SSTORE POP DUP2 PUSH20 0xFFFFFFFFFFFFFFFFFFFFFFFFFFFFFFFFFFFFFFFF AND DUP2 PUSH20 0xFFFFFFFFFFFFFFFFFFFFFFFFFFFFFFFFFFFFFFFF AND PUSH32 0x8BE0079C531659141344CD1FD0A4F28419497F9722A3DAAFE3B4186F6B6457E0 PUSH1 0x40 MLOAD PUSH1 0x40 MLOAD DUP1 SWAP2 SUB SWAP1 LOG3 POP POP JUMP JUMPDEST PUSH1 0x0 DUP2 MLOAD SWAP1 POP PUSH3 0x25C DUP2 PUSH3 0x2F7 JUMP JUMPDEST SWAP3 SWAP2 POP POP JUMP JUMPDEST PUSH1 0x0 DUP1 PUSH1 0x0 PUSH1 0x60 DUP5 DUP7 SUB SLT ISZERO PUSH3 0x27E JUMPI PUSH3 0x27D PUSH3 0x2F2 JUMP JUMPDEST JUMPDEST PUSH1 0x0 PUSH3 0x28E DUP7 DUP3 DUP8 ADD PUSH3 0x24B JUMP JUMPDEST SWAP4 POP POP PUSH1 0x20 PUSH3 0x2A1 DUP7 DUP3 DUP8 ADD PUSH3 0x24B JUMP JUMPDEST SWAP3 POP POP PUSH1 0x40 PUSH3 0x2B4 DUP7 DUP3 DUP8 ADD PUSH3 0x24B JUMP JUMPDEST SWAP2 POP POP SWAP3 POP SWAP3 POP SWAP3 JUMP JUMPDEST PUSH1 0x0 PUSH3 0x2CB DUP3 PUSH3 0x2D2 JUMP JUMPDEST SWAP1 POP SWAP2 SWAP1 POP JUMP JUMPDEST PUSH1 0x0 PUSH20 0xFFFFFFFFFFFFFFFFFFFFFFFFFFFFFFFFFFFFFFFF DUP3 AND SWAP1 POP SWAP2 SWAP1 POP JUMP JUMPDEST PUSH1 0x0 DUP1 REVERT JUMPDEST PUSH3 0x302 DUP2 PUSH3 0x2BE JUMP JUMPDEST DUP2 EQ PUSH3 0x30E JUMPI PUSH1 0x0 DUP1 REVERT JUMPDEST POP JUMP JUMPDEST PUSH2 0x3FA2 DUP1 PUSH3 0x321 PUSH1 0x0 CODECOPY PUSH1 0x0 RETURN INVALID PUSH1 0x80 PUSH1 0x40 MSTORE PUSH1 0x4 CALLDATASIZE LT PUSH2 0x166 JUMPI PUSH1 0x0 CALLDATALOAD PUSH1 0xE0 SHR DUP1 PUSH4 0x88FDE90A GT PUSH2 0xD1 JUMPI DUP1 PUSH4 0xCCEB68F5 GT PUSH2 0x8A JUMPI DUP1 PUSH4 0xDE0B27E5 GT PUSH2 0x64 JUMPI DUP1 PUSH4 0xDE0B27E5 EQ PUSH2 0x517 JUMPI DUP1 PUSH4 0xF2FDE38B EQ PUSH2 0x554 JUMPI DUP1 PUSH4 0xF406517D EQ PUSH2 0x57D JUMPI DUP1 PUSH4 0xF6EF8AC7 EQ PUSH2 0x5AC JUMPI PUSH2 0x166 JUMP JUMPDEST DUP1 PUSH4 0xCCEB68F5 EQ PUSH2 0x496 JUMPI DUP1 PUSH4 0xCF978530 EQ PUSH2 0x4C1 JUMPI DUP1 PUSH4 0xDA35C664 EQ PUSH2 0x4EC JUMPI PUSH2 0x166 JUMP JUMPDEST DUP1 PUSH4 0x88FDE90A EQ PUSH2 0x391 JUMPI DUP1 PUSH4 0x8DA5CB5B EQ PUSH2 0x3BC JUMPI DUP1 PUSH4 0xA4131A48 EQ PUSH2 0x3E7 JUMPI DUP1 PUSH4 0xA62DE3BA EQ PUSH2 0x403 JUMPI DUP1 PUSH4 0xB8997A97 EQ PUSH2 0x42E JUMPI DUP1 PUSH4 0xB9357437 EQ PUSH2 0x459 JUMPI PUSH2 0x166 JUMP JUMPDEST DUP1 PUSH4 0x4C15676B GT PUSH2 0x123 JUMPI DUP1 PUSH4 0x4C15676B EQ PUSH2 0x2A2 JUMPI DUP1 PUSH4 0x5C042AE7 EQ PUSH2 0x2BE JUMPI DUP1 PUSH4 0x5DD3983A EQ PUSH2 0x2E9 JUMPI DUP1 PUSH4 0x69D20DD5 EQ PUSH2 0x314 JUMPI DUP1 PUSH4 0x715018A6 EQ PUSH2 0x351 JUMPI DUP1 PUSH4 0x805347F5 EQ PUSH2 0x368 JUMPI PUSH2 0x166 JUMP JUMPDEST DUP1 PUSH4 0x13CF08B EQ PUSH2 0x16B JUMPI DUP1 PUSH4 0xBE4E999 EQ PUSH2 0x1B3 JUMPI DUP1 PUSH4 0x1089F5ED EQ PUSH2 0x1CF JUMPI DUP1 PUSH4 0x12293E01 EQ PUSH2 0x1EB JUMPI DUP1 PUSH4 0x32E08142 EQ PUSH2 0x228 JUMPI DUP1 PUSH4 0x392317CD EQ PUSH2 0x265 JUMPI JUMPDEST PUSH1 0x0 DUP1 REVERT JUMPDEST CALLVALUE DUP1 ISZERO PUSH2 0x177 JUMPI PUSH1 0x0 DUP1 REVERT JUMPDEST POP PUSH2 0x192 PUSH1 0x4 DUP1 CALLDATASIZE SUB DUP2 ADD SWAP1 PUSH2 0x18D SWAP2 SWAP1 PUSH2 0x2D4F JUMP JUMPDEST PUSH2 0x5D5 JUMP JUMPDEST PUSH1 0x40 MLOAD PUSH2 0x1AA SWAP13 SWAP12 SWAP11 SWAP10 SWAP9 SWAP8 SWAP7 SWAP6 SWAP5 SWAP4 SWAP3 SWAP2 SWAP1 PUSH2 0x3679 JUMP JUMPDEST PUSH1 0x40 MLOAD DUP1 SWAP2 SUB SWAP1 RETURN JUMPDEST PUSH2 0x1CD PUSH1 0x4 DUP1 CALLDATASIZE SUB DUP2 ADD SWAP1 PUSH2 0x1C8 SWAP2 SWAP1 PUSH2 0x2D4F JUMP JUMPDEST PUSH2 0x882 JUMP JUMPDEST STOP JUMPDEST PUSH2 0x1E9 PUSH1 0x4 DUP1 CALLDATASIZE SUB DUP2 ADD SWAP1 PUSH2 0x1E4 SWAP2 SWAP1 PUSH2 0x2D4F JUMP JUMPDEST PUSH2 0xD6B JUMP JUMPDEST STOP JUMPDEST CALLVALUE DUP1 ISZERO PUSH2 0x1F7 JUMPI PUSH1 0x0 DUP1 REVERT JUMPDEST POP PUSH2 0x212 PUSH1 0x4 DUP1 CALLDATASIZE SUB DUP2 ADD SWAP1 PUSH2 0x20D SWAP2 SWAP1 PUSH2 0x2DA9 JUMP JUMPDEST PUSH2 0x11EE JUMP JUMPDEST PUSH1 0x40 MLOAD PUSH2 0x21F SWAP2 SWAP1 PUSH2 0x3351 JUMP JUMPDEST PUSH1 0x40 MLOAD DUP1 SWAP2 SUB SWAP1 RETURN JUMPDEST CALLVALUE DUP1 ISZERO PUSH2 0x234 JUMPI PUSH1 0x0 DUP1 REVERT JUMPDEST POP PUSH2 0x24F PUSH1 0x4 DUP1 CALLDATASIZE SUB DUP2 ADD SWAP1 PUSH2 0x24A SWAP2 SWAP1 PUSH2 0x2C27 JUMP JUMPDEST PUSH2 0x123C JUMP JUMPDEST PUSH1 0x40 MLOAD PUSH2 0x25C SWAP2 SWAP1 PUSH2 0x3417 JUMP JUMPDEST PUSH1 0x40 MLOAD DUP1 SWAP2 SUB SWAP1 RETURN JUMPDEST CALLVALUE DUP1 ISZERO PUSH2 0x271 JUMPI PUSH1 0x0 DUP1 REVERT JUMPDEST POP PUSH2 0x28C PUSH1 0x4 DUP1 CALLDATASIZE SUB DUP2 ADD SWAP1 PUSH2 0x287 SWAP2 SWAP1 PUSH2 0x2BCD JUMP JUMPDEST PUSH2 0x126B JUMP JUMPDEST PUSH1 0x40 MLOAD PUSH2 0x299 SWAP2 SWAP1 PUSH2 0x365E JUMP JUMPDEST PUSH1 0x40 MLOAD DUP1 SWAP2 SUB SWAP1 RETURN JUMPDEST PUSH2 0x2BC PUSH1 0x4 DUP1 CALLDATASIZE SUB DUP2 ADD SWAP1 PUSH2 0x2B7 SWAP2 SWAP1 PUSH2 0x2C94 JUMP JUMPDEST PUSH2 0x1283 JUMP JUMPDEST STOP JUMPDEST CALLVALUE DUP1 ISZERO PUSH2 0x2CA JUMPI PUSH1 0x0 DUP1 REVERT JUMPDEST POP PUSH2 0x2D3 PUSH2 0x164B JUMP JUMPDEST PUSH1 0x40 MLOAD PUSH2 0x2E0 SWAP2 SWAP1 PUSH2 0x3351 JUMP JUMPDEST PUSH1 0x40 MLOAD DUP1 SWAP2 SUB SWAP1 RETURN JUMPDEST CALLVALUE DUP1 ISZERO PUSH2 0x2F5 JUMPI PUSH1 0x0 DUP1 REVERT JUMPDEST POP PUSH2 0x2FE PUSH2 0x1671 JUMP JUMPDEST PUSH1 0x40 MLOAD PUSH2 0x30B SWAP2 SWAP1 PUSH2 0x3643 JUMP JUMPDEST PUSH1 0x40 MLOAD DUP1 SWAP2 SUB SWAP1 RETURN JUMPDEST CALLVALUE DUP1 ISZERO PUSH2 0x320 JUMPI PUSH1 0x0 DUP1 REVERT JUMPDEST POP PUSH2 0x33B PUSH1 0x4 DUP1 CALLDATASIZE SUB DUP2 ADD SWAP1 PUSH2 0x336 SWAP2 SWAP1 PUSH2 0x2DA9 JUMP JUMPDEST PUSH2 0x16BD JUMP JUMPDEST PUSH1 0x40 MLOAD PUSH2 0x348 SWAP2 SWAP1 PUSH2 0x3351 JUMP JUMPDEST PUSH1 0x40 MLOAD DUP1 SWAP2 SUB SWAP1 RETURN JUMPDEST CALLVALUE DUP1 ISZERO PUSH2 0x35D JUMPI PUSH1 0x0 DUP1 REVERT JUMPDEST POP PUSH2 0x366 PUSH2 0x170B JUMP JUMPDEST STOP JUMPDEST CALLVALUE DUP1 ISZERO PUSH2 0x374 JUMPI PUSH1 0x0 DUP1 REVERT JUMPDEST POP PUSH2 0x38F PUSH1 0x4 DUP1 CALLDATASIZE SUB DUP2 ADD SWAP1 PUSH2 0x38A SWAP2 SWAP1 PUSH2 0x2DA9 JUMP JUMPDEST PUSH2 0x171F JUMP JUMPDEST STOP JUMPDEST CALLVALUE DUP1 ISZERO PUSH2 0x39D JUMPI PUSH1 0x0 DUP1 REVERT JUMPDEST POP PUSH2 0x3A6 PUSH2 0x1D92 JUMP JUMPDEST PUSH1 0x40 MLOAD PUSH2 0x3B3 SWAP2 SWAP1 PUSH2 0x3468 JUMP JUMPDEST PUSH1 0x40 MLOAD DUP1 SWAP2 SUB SWAP1 RETURN JUMPDEST CALLVALUE DUP1 ISZERO PUSH2 0x3C8 JUMPI PUSH1 0x0 DUP1 REVERT JUMPDEST POP PUSH2 0x3D1 PUSH2 0x1DB8 JUMP JUMPDEST PUSH1 0x40 MLOAD PUSH2 0x3DE SWAP2 SWAP1 PUSH2 0x3351 JUMP JUMPDEST PUSH1 0x40 MLOAD DUP1 SWAP2 SUB SWAP1 RETURN JUMPDEST PUSH2 0x401 PUSH1 0x4 DUP1 CALLDATASIZE SUB DUP2 ADD SWAP1 PUSH2 0x3FC SWAP2 SWAP1 PUSH2 0x2D4F JUMP JUMPDEST PUSH2 0x1DE1 JUMP JUMPDEST STOP JUMPDEST CALLVALUE DUP1 ISZERO PUSH2 0x40F JUMPI PUSH1 0x0 DUP1 REVERT JUMPDEST POP PUSH2 0x418 PUSH2 0x22CA JUMP JUMPDEST PUSH1 0x40 MLOAD PUSH2 0x425 SWAP2 SWAP1 PUSH2 0x344D JUMP JUMPDEST PUSH1 0x40 MLOAD DUP1 SWAP2 SUB SWAP1 RETURN JUMPDEST CALLVALUE DUP1 ISZERO PUSH2 0x43A JUMPI PUSH1 0x0 DUP1 REVERT JUMPDEST POP PUSH2 0x443 PUSH2 0x22F0 JUMP JUMPDEST PUSH1 0x40 MLOAD PUSH2 0x450 SWAP2 SWAP1 PUSH2 0x365E JUMP JUMPDEST PUSH1 0x40 MLOAD DUP1 SWAP2 SUB SWAP1 RETURN JUMPDEST CALLVALUE DUP1 ISZERO PUSH2 0x465 JUMPI PUSH1 0x0 DUP1 REVERT JUMPDEST POP PUSH2 0x480 PUSH1 0x4 DUP1 CALLDATASIZE SUB DUP2 ADD SWAP1 PUSH2 0x47B SWAP2 SWAP1 PUSH2 0x2DA9 JUMP JUMPDEST PUSH2 0x22F6 JUMP JUMPDEST PUSH1 0x40 MLOAD PUSH2 0x48D SWAP2 SWAP1 PUSH2 0x3351 JUMP JUMPDEST PUSH1 0x40 MLOAD DUP1 SWAP2 SUB SWAP1 RETURN JUMPDEST CALLVALUE DUP1 ISZERO PUSH2 0x4A2 JUMPI PUSH1 0x0 DUP1 REVERT JUMPDEST POP PUSH2 0x4AB PUSH2 0x2344 JUMP JUMPDEST PUSH1 0x40 MLOAD PUSH2 0x4B8 SWAP2 SWAP1 PUSH2 0x33F5 JUMP JUMPDEST PUSH1 0x40 MLOAD DUP1 SWAP2 SUB SWAP1 RETURN JUMPDEST CALLVALUE DUP1 ISZERO PUSH2 0x4CD JUMPI PUSH1 0x0 DUP1 REVERT JUMPDEST POP PUSH2 0x4D6 PUSH2 0x2706 JUMP JUMPDEST PUSH1 0x40 MLOAD PUSH2 0x4E3 SWAP2 SWAP1 PUSH2 0x3432 JUMP JUMPDEST PUSH1 0x40 MLOAD DUP1 SWAP2 SUB SWAP1 RETURN JUMPDEST CALLVALUE DUP1 ISZERO PUSH2 0x4F8 JUMPI PUSH1 0x0 DUP1 REVERT JUMPDEST POP PUSH2 0x501 PUSH2 0x272C JUMP JUMPDEST PUSH1 0x40 MLOAD PUSH2 0x50E SWAP2 SWAP1 PUSH2 0x365E JUMP JUMPDEST PUSH1 0x40 MLOAD DUP1 SWAP2 SUB SWAP1 RETURN JUMPDEST CALLVALUE DUP1 ISZERO PUSH2 0x523 JUMPI PUSH1 0x0 DUP1 REVERT JUMPDEST POP PUSH2 0x53E PUSH1 0x4 DUP1 CALLDATASIZE SUB DUP2 ADD SWAP1 PUSH2 0x539 SWAP2 SWAP1 PUSH2 0x2BCD JUMP JUMPDEST PUSH2 0x2732 JUMP JUMPDEST PUSH1 0x40 MLOAD PUSH2 0x54B SWAP2 SWAP1 PUSH2 0x3417 JUMP JUMPDEST PUSH1 0x40 MLOAD DUP1 SWAP2 SUB SWAP1 RETURN JUMPDEST CALLVALUE DUP1 ISZERO PUSH2 0x560 JUMPI PUSH1 0x0 DUP1 REVERT JUMPDEST POP PUSH2 0x57B PUSH1 0x4 DUP1 CALLDATASIZE SUB DUP2 ADD SWAP1 PUSH2 0x576 SWAP2 SWAP1 PUSH2 0x2BCD JUMP JUMPDEST PUSH2 0x2752 JUMP JUMPDEST STOP JUMPDEST CALLVALUE DUP1 ISZERO PUSH2 0x589 JUMPI PUSH1 0x0 DUP1 REVERT JUMPDEST POP PUSH2 0x592 PUSH2 0x27D6 JUMP JUMPDEST PUSH1 0x40 MLOAD PUSH2 0x5A3 SWAP6 SWAP5 SWAP4 SWAP3 SWAP2 SWAP1 PUSH2 0x374F JUMP JUMPDEST PUSH1 0x40 MLOAD DUP1 SWAP2 SUB SWAP1 RETURN JUMPDEST CALLVALUE DUP1 ISZERO PUSH2 0x5B8 JUMPI PUSH1 0x0 DUP1 REVERT JUMPDEST POP PUSH2 0x5D3 PUSH1 0x4 DUP1 CALLDATASIZE SUB DUP2 ADD SWAP1 PUSH2 0x5CE SWAP2 SWAP1 PUSH2 0x2DE9 JUMP JUMPDEST PUSH2 0x27FA JUMP JUMPDEST STOP JUMPDEST PUSH1 0x4 PUSH1 0x20 MSTORE DUP1 PUSH1 0x0 MSTORE PUSH1 0x40 PUSH1 0x0 KECCAK256 PUSH1 0x0 SWAP2 POP SWAP1 POP DUP1 PUSH1 0x0 ADD SLOAD SWAP1 DUP1 PUSH1 0x1 ADD DUP1 SLOAD PUSH2 0x5FE SWAP1 PUSH2 0x3A23 JUMP JUMPDEST DUP1 PUSH1 0x1F ADD PUSH1 0x20 DUP1 SWAP2 DIV MUL PUSH1 0x20 ADD PUSH1 0x40 MLOAD SWAP1 DUP2 ADD PUSH1 0x40 MSTORE DUP1 SWAP3 SWAP2 SWAP1 DUP2 DUP2 MSTORE PUSH1 0x20 ADD DUP3 DUP1 SLOAD PUSH2 0x62A SWAP1 PUSH2 0x3A23 JUMP JUMPDEST DUP1 ISZERO PUSH2 0x677 JUMPI DUP1 PUSH1 0x1F LT PUSH2 0x64C JUMPI PUSH2 0x100 DUP1 DUP4 SLOAD DIV MUL DUP4 MSTORE SWAP2 PUSH1 0x20 ADD SWAP2 PUSH2 0x677 JUMP JUMPDEST DUP3 ADD SWAP2 SWAP1 PUSH1 0x0 MSTORE PUSH1 0x20 PUSH1 0x0 KECCAK256 SWAP1 JUMPDEST DUP2 SLOAD DUP2 MSTORE SWAP1 PUSH1 0x1 ADD SWAP1 PUSH1 0x20 ADD DUP1 DUP4 GT PUSH2 0x65A JUMPI DUP3 SWAP1 SUB PUSH1 0x1F AND DUP3 ADD SWAP2 JUMPDEST POP POP POP POP POP SWAP1 DUP1 PUSH1 0x2 ADD DUP1 SLOAD PUSH2 0x68C SWAP1 PUSH2 0x3A23 JUMP JUMPDEST DUP1 PUSH1 0x1F ADD PUSH1 0x20 DUP1 SWAP2 DIV MUL PUSH1 0x20 ADD PUSH1 0x40 MLOAD SWAP1 DUP2 ADD PUSH1 0x40 MSTORE DUP1 SWAP3 SWAP2 SWAP1 DUP2 DUP2 MSTORE PUSH1 0x20 ADD DUP3 DUP1 SLOAD PUSH2 0x6B8 SWAP1 PUSH2 0x3A23 JUMP JUMPDEST DUP1 ISZERO PUSH2 0x705 JUMPI DUP1 PUSH1 0x1F LT PUSH2 0x6DA JUMPI PUSH2 0x100 DUP1 DUP4 SLOAD DIV MUL DUP4 MSTORE SWAP2 PUSH1 0x20 ADD SWAP2 PUSH2 0x705 JUMP JUMPDEST DUP3 ADD SWAP2 SWAP1 PUSH1 0x0 MSTORE PUSH1 0x20 PUSH1 0x0 KECCAK256 SWAP1 JUMPDEST DUP2 SLOAD DUP2 MSTORE SWAP1 PUSH1 0x1 ADD SWAP1 PUSH1 0x20 ADD DUP1 DUP4 GT PUSH2 0x6E8 JUMPI DUP3 SWAP1 SUB PUSH1 0x1F AND DUP3 ADD SWAP2 JUMPDEST POP POP POP POP POP SWAP1 DUP1 PUSH1 0x3 ADD DUP1 SLOAD PUSH2 0x71A SWAP1 PUSH2 0x3A23 JUMP JUMPDEST DUP1 PUSH1 0x1F ADD PUSH1 0x20 DUP1 SWAP2 DIV MUL PUSH1 0x20 ADD PUSH1 0x40 MLOAD SWAP1 DUP2 ADD PUSH1 0x40 MSTORE DUP1 SWAP3 SWAP2 SWAP1 DUP2 DUP2 MSTORE PUSH1 0x20 ADD DUP3 DUP1 SLOAD PUSH2 0x746 SWAP1 PUSH2 0x3A23 JUMP JUMPDEST DUP1 ISZERO PUSH2 0x793 JUMPI DUP1 PUSH1 0x1F LT PUSH2 0x768 JUMPI PUSH2 0x100 DUP1 DUP4 SLOAD DIV MUL DUP4 MSTORE SWAP2 PUSH1 0x20 ADD SWAP2 PUSH2 0x793 JUMP JUMPDEST DUP3 ADD SWAP2 SWAP1 PUSH1 0x0 MSTORE PUSH1 0x20 PUSH1 0x0 KECCAK256 SWAP1 JUMPDEST DUP2 SLOAD DUP2 MSTORE SWAP1 PUSH1 0x1 ADD SWAP1 PUSH1 0x20 ADD DUP1 DUP4 GT PUSH2 0x776 JUMPI DUP3 SWAP1 SUB PUSH1 0x1F AND DUP3 ADD SWAP2 JUMPDEST POP POP POP POP POP SWAP1 DUP1 PUSH1 0x4 ADD PUSH1 0x0 SWAP1 SLOAD SWAP1 PUSH2 0x100 EXP SWAP1 DIV PUSH20 0xFFFFFFFFFFFFFFFFFFFFFFFFFFFFFFFFFFFFFFFF AND SWAP1 DUP1 PUSH1 0x5 ADD SLOAD SWAP1 DUP1 PUSH1 0x6 ADD SLOAD SWAP1 DUP1 PUSH1 0x7 ADD SLOAD SWAP1 DUP1 PUSH1 0x8 ADD SLOAD SWAP1 DUP1 PUSH1 0x9 ADD SLOAD SWAP1 DUP1 PUSH1 0xA ADD DUP1 SLOAD PUSH2 0x7EC SWAP1 PUSH2 0x3A23 JUMP JUMPDEST DUP1 PUSH1 0x1F ADD PUSH1 0x20 DUP1 SWAP2 DIV MUL PUSH1 0x20 ADD PUSH1 0x40 MLOAD SWAP1 DUP2 ADD PUSH1 0x40 MSTORE DUP1 SWAP3 SWAP2 SWAP1 DUP2 DUP2 MSTORE PUSH1 0x20 ADD DUP3 DUP1 SLOAD PUSH2 0x818 SWAP1 PUSH2 0x3A23 JUMP JUMPDEST DUP1 ISZERO PUSH2 0x865 JUMPI DUP1 PUSH1 0x1F LT PUSH2 0x83A JUMPI PUSH2 0x100 DUP1 DUP4 SLOAD DIV MUL DUP4 MSTORE SWAP2 PUSH1 0x20 ADD SWAP2 PUSH2 0x865 JUMP JUMPDEST DUP3 ADD SWAP2 SWAP1 PUSH1 0x0 MSTORE PUSH1 0x20 PUSH1 0x0 KECCAK256 SWAP1 JUMPDEST DUP2 SLOAD DUP2 MSTORE SWAP1 PUSH1 0x1 ADD SWAP1 PUSH1 0x20 ADD DUP1 DUP4 GT PUSH2 0x848 JUMPI DUP3 SWAP1 SUB PUSH1 0x1F AND DUP3 ADD SWAP2 JUMPDEST POP POP POP POP POP SWAP1 DUP1 PUSH1 0xB ADD PUSH1 0x0 SWAP1 SLOAD SWAP1 PUSH2 0x100 EXP SWAP1 DIV PUSH1 0xFF AND SWAP1 POP DUP13 JUMP JUMPDEST PUSH1 0x1 PUSH1 0x0 SWAP1 SLOAD SWAP1 PUSH2 0x100 EXP SWAP1 DIV PUSH20 0xFFFFFFFFFFFFFFFFFFFFFFFFFFFFFFFFFFFFFFFF AND PUSH20 0xFFFFFFFFFFFFFFFFFFFFFFFFFFFFFFFFFFFFFFFF AND PUSH4 0x93538631 CALLER PUSH1 0x40 MLOAD DUP3 PUSH4 0xFFFFFFFF AND PUSH1 0xE0 SHL DUP2 MSTORE PUSH1 0x4 ADD PUSH2 0x8DD SWAP2 SWAP1 PUSH2 0x3351 JUMP JUMPDEST PUSH1 0x20 PUSH1 0x40 MLOAD DUP1 DUP4 SUB DUP2 DUP7 DUP1 EXTCODESIZE ISZERO DUP1 ISZERO PUSH2 0x8F5 JUMPI PUSH1 0x0 DUP1 REVERT JUMPDEST POP GAS STATICCALL ISZERO DUP1 ISZERO PUSH2 0x909 JUMPI RETURNDATASIZE PUSH1 0x0 DUP1 RETURNDATACOPY RETURNDATASIZE PUSH1 0x0 REVERT JUMPDEST POP POP POP POP PUSH1 0x40 MLOAD RETURNDATASIZE PUSH1 0x1F NOT PUSH1 0x1F DUP3 ADD AND DUP3 ADD DUP1 PUSH1 0x40 MSTORE POP DUP2 ADD SWAP1 PUSH2 0x92D SWAP2 SWAP1 PUSH2 0x2C67 JUMP JUMPDEST PUSH2 0x96C JUMPI PUSH1 0x40 MLOAD PUSH32 0x8C379A000000000000000000000000000000000000000000000000000000000 DUP2 MSTORE PUSH1 0x4 ADD PUSH2 0x963 SWAP1 PUSH2 0x3543 JUMP JUMPDEST PUSH1 0x40 MLOAD DUP1 SWAP2 SUB SWAP1 REVERT JUMPDEST PUSH1 0xB PUSH1 0x0 CALLER PUSH20 0xFFFFFFFFFFFFFFFFFFFFFFFFFFFFFFFFFFFFFFFF AND PUSH20 0xFFFFFFFFFFFFFFFFFFFFFFFFFFFFFFFFFFFFFFFF AND DUP2 MSTORE PUSH1 0x20 ADD SWAP1 DUP2 MSTORE PUSH1 0x20 ADD PUSH1 0x0 KECCAK256 PUSH1 0x0 SWAP1 SLOAD SWAP1 PUSH2 0x100 EXP SWAP1 DIV PUSH1 0xFF AND PUSH2 0x9F8 JUMPI PUSH1 0x40 MLOAD PUSH32 0x8C379A000000000000000000000000000000000000000000000000000000000 DUP2 MSTORE PUSH1 0x4 ADD PUSH2 0x9EF SWAP1 PUSH2 0x3603 JUMP JUMPDEST PUSH1 0x40 MLOAD DUP1 SWAP2 SUB SWAP1 REVERT JUMPDEST CALLER PUSH20 0xFFFFFFFFFFFFFFFFFFFFFFFFFFFFFFFFFFFFFFFF AND PUSH1 0x4 PUSH1 0x0 DUP4 DUP2 MSTORE PUSH1 0x20 ADD SWAP1 DUP2 MSTORE PUSH1 0x20 ADD PUSH1 0x0 KECCAK256 PUSH1 0x4 ADD PUSH1 0x0 SWAP1 SLOAD SWAP1 PUSH2 0x100 EXP SWAP1 DIV PUSH20 0xFFFFFFFFFFFFFFFFFFFFFFFFFFFFFFFFFFFFFFFF AND PUSH20 0xFFFFFFFFFFFFFFFFFFFFFFFFFFFFFFFFFFFFFFFF AND EQ ISZERO PUSH2 0xA9D JUMPI PUSH1 0x40 MLOAD PUSH32 0x8C379A000000000000000000000000000000000000000000000000000000000 DUP2 MSTORE PUSH1 0x4 ADD PUSH2 0xA94 SWAP1 PUSH2 0x35E3 JUMP JUMPDEST PUSH1 0x40 MLOAD DUP1 SWAP2 SUB SWAP1 REVERT JUMPDEST PUSH1 0x5 PUSH1 0x0 CALLER PUSH20 0xFFFFFFFFFFFFFFFFFFFFFFFFFFFFFFFFFFFFFFFF AND PUSH20 0xFFFFFFFFFFFFFFFFFFFFFFFFFFFFFFFFFFFFFFFF AND DUP2 MSTORE PUSH1 0x20 ADD SWAP1 DUP2 MSTORE PUSH1 0x20 ADD PUSH1 0x0 KECCAK256 PUSH1 0x0 DUP3 DUP2 MSTORE PUSH1 0x20 ADD SWAP1 DUP2 MSTORE PUSH1 0x20 ADD PUSH1 0x0 KECCAK256 PUSH1 0x0 SWAP1 SLOAD SWAP1 PUSH2 0x100 EXP SWAP1 DIV PUSH1 0xFF AND ISZERO PUSH2 0xB3B JUMPI PUSH1 0x40 MLOAD PUSH32 0x8C379A000000000000000000000000000000000000000000000000000000000 DUP2 MSTORE PUSH1 0x4 ADD PUSH2 0xB32 SWAP1 PUSH2 0x34A3 JUMP JUMPDEST PUSH1 0x40 MLOAD DUP1 SWAP2 SUB SWAP1 REVERT JUMPDEST TIMESTAMP PUSH1 0x4 PUSH1 0x0 DUP4 DUP2 MSTORE PUSH1 0x20 ADD SWAP1 DUP2 MSTORE PUSH1 0x20 ADD PUSH1 0x0 KECCAK256 PUSH1 0x8 ADD SLOAD GT PUSH2 0xB93 JUMPI PUSH1 0x40 MLOAD PUSH32 0x8C379A000000000000000000000000000000000000000000000000000000000 DUP2 MSTORE PUSH1 0x4 ADD PUSH2 0xB8A SWAP1 PUSH2 0x3483 JUMP JUMPDEST PUSH1 0x40 MLOAD DUP1 SWAP2 SUB SWAP1 REVERT JUMPDEST PUSH1 0xE PUSH1 0x3 ADD SLOAD CALLVALUE EQ PUSH2 0xBDA JUMPI PUSH1 0x40 MLOAD PUSH32 0x8C379A000000000000000000000000000000000000000000000000000000000 DUP2 MSTORE PUSH1 0x4 ADD PUSH2 0xBD1 SWAP1 PUSH2 0x3583 JUMP JUMPDEST PUSH1 0x40 MLOAD DUP1 SWAP2 SUB SWAP1 REVERT JUMPDEST PUSH1 0x1 PUSH1 0x4 PUSH1 0x0 DUP4 DUP2 MSTORE PUSH1 0x20 ADD SWAP1 DUP2 MSTORE PUSH1 0x20 ADD PUSH1 0x0 KECCAK256 PUSH1 0x6 ADD SLOAD PUSH2 0xBFD SWAP2 SWAP1 PUSH2 0x385E JUMP JUMPDEST PUSH1 0x4 PUSH1 0x0 DUP4 DUP2 MSTORE PUSH1 0x20 ADD SWAP1 DUP2 MSTORE PUSH1 0x20 ADD PUSH1 0x0 KECCAK256 PUSH1 0x6 ADD DUP2 SWAP1 SSTORE POP PUSH1 0x1 PUSH1 0x5 PUSH1 0x0 CALLER PUSH20 0xFFFFFFFFFFFFFFFFFFFFFFFFFFFFFFFFFFFFFFFF AND PUSH20 0xFFFFFFFFFFFFFFFFFFFFFFFFFFFFFFFFFFFFFFFF AND DUP2 MSTORE PUSH1 0x20 ADD SWAP1 DUP2 MSTORE PUSH1 0x20 ADD PUSH1 0x0 KECCAK256 PUSH1 0x0 DUP4 DUP2 MSTORE PUSH1 0x20 ADD SWAP1 DUP2 MSTORE PUSH1 0x20 ADD PUSH1 0x0 KECCAK256 PUSH1 0x0 PUSH2 0x100 EXP DUP2 SLOAD DUP2 PUSH1 0xFF MUL NOT AND SWAP1 DUP4 ISZERO ISZERO MUL OR SWAP1 SSTORE POP PUSH1 0x6 PUSH1 0x0 DUP3 DUP2 MSTORE PUSH1 0x20 ADD SWAP1 DUP2 MSTORE PUSH1 0x20 ADD PUSH1 0x0 KECCAK256 CALLER SWAP1 DUP1 PUSH1 0x1 DUP2 SLOAD ADD DUP1 DUP3 SSTORE DUP1 SWAP2 POP POP PUSH1 0x1 SWAP1 SUB SWAP1 PUSH1 0x0 MSTORE PUSH1 0x20 PUSH1 0x0 KECCAK256 ADD PUSH1 0x0 SWAP1 SWAP2 SWAP1 SWAP2 SWAP1 SWAP2 PUSH2 0x100 EXP DUP2 SLOAD DUP2 PUSH20 0xFFFFFFFFFFFFFFFFFFFFFFFFFFFFFFFFFFFFFFFF MUL NOT AND SWAP1 DUP4 PUSH20 0xFFFFFFFFFFFFFFFFFFFFFFFFFFFFFFFFFFFFFFFF AND MUL OR SWAP1 SSTORE POP PUSH1 0x8 PUSH1 0x0 DUP3 DUP2 MSTORE PUSH1 0x20 ADD SWAP1 DUP2 MSTORE PUSH1 0x20 ADD PUSH1 0x0 KECCAK256 CALLER SWAP1 DUP1 PUSH1 0x1 DUP2 SLOAD ADD DUP1 DUP3 SSTORE DUP1 SWAP2 POP POP PUSH1 0x1 SWAP1 SUB SWAP1 PUSH1 0x0 MSTORE PUSH1 0x20 PUSH1 0x0 KECCAK256 ADD PUSH1 0x0 SWAP1 SWAP2 SWAP1 SWAP2 SWAP1 SWAP2 PUSH2 0x100 EXP DUP2 SLOAD DUP2 PUSH20 0xFFFFFFFFFFFFFFFFFFFFFFFFFFFFFFFFFFFFFFFF MUL NOT AND SWAP1 DUP4 PUSH20 0xFFFFFFFFFFFFFFFFFFFFFFFFFFFFFFFFFFFFFFFF AND MUL OR SWAP1 SSTORE POP POP JUMP JUMPDEST PUSH1 0x1 PUSH1 0x0 SWAP1 SLOAD SWAP1 PUSH2 0x100 EXP SWAP1 DIV PUSH20 0xFFFFFFFFFFFFFFFFFFFFFFFFFFFFFFFFFFFFFFFF AND PUSH20 0xFFFFFFFFFFFFFFFFFFFFFFFFFFFFFFFFFFFFFFFF AND PUSH4 0x93538631 CALLER PUSH1 0x40 MLOAD DUP3 PUSH4 0xFFFFFFFF AND PUSH1 0xE0 SHL DUP2 MSTORE PUSH1 0x4 ADD PUSH2 0xDC6 SWAP2 SWAP1 PUSH2 0x3351 JUMP JUMPDEST PUSH1 0x20 PUSH1 0x40 MLOAD DUP1 DUP4 SUB DUP2 DUP7 DUP1 EXTCODESIZE ISZERO DUP1 ISZERO PUSH2 0xDDE JUMPI PUSH1 0x0 DUP1 REVERT JUMPDEST POP GAS STATICCALL ISZERO DUP1 ISZERO PUSH2 0xDF2 JUMPI RETURNDATASIZE PUSH1 0x0 DUP1 RETURNDATACOPY RETURNDATASIZE PUSH1 0x0 REVERT JUMPDEST POP POP POP POP PUSH1 0x40 MLOAD RETURNDATASIZE PUSH1 0x1F NOT PUSH1 0x1F DUP3 ADD AND DUP3 ADD DUP1 PUSH1 0x40 MSTORE POP DUP2 ADD SWAP1 PUSH2 0xE16 SWAP2 SWAP1 PUSH2 0x2C67 JUMP JUMPDEST PUSH2 0xE55 JUMPI PUSH1 0x40 MLOAD PUSH32 0x8C379A000000000000000000000000000000000000000000000000000000000 DUP2 MSTORE PUSH1 0x4 ADD PUSH2 0xE4C SWAP1 PUSH2 0x3543 JUMP JUMPDEST PUSH1 0x40 MLOAD DUP1 SWAP2 SUB SWAP1 REVERT JUMPDEST PUSH1 0x3 PUSH1 0x0 SWAP1 SLOAD SWAP1 PUSH2 0x100 EXP SWAP1 DIV PUSH20 0xFFFFFFFFFFFFFFFFFFFFFFFFFFFFFFFFFFFFFFFF AND PUSH20 0xFFFFFFFFFFFFFFFFFFFFFFFFFFFFFFFFFFFFFFFF AND PUSH4 0x4B94F50E PUSH1 0x40 MLOAD DUP2 PUSH4 0xFFFFFFFF AND PUSH1 0xE0 SHL DUP2 MSTORE PUSH1 0x4 ADD PUSH1 0x20 PUSH1 0x40 MLOAD DUP1 DUP4 SUB DUP2 DUP7 DUP1 EXTCODESIZE ISZERO DUP1 ISZERO PUSH2 0xEBD JUMPI PUSH1 0x0 DUP1 REVERT JUMPDEST POP GAS STATICCALL ISZERO DUP1 ISZERO PUSH2 0xED1 JUMPI RETURNDATASIZE PUSH1 0x0 DUP1 RETURNDATACOPY RETURNDATASIZE PUSH1 0x0 REVERT JUMPDEST POP POP POP POP PUSH1 0x40 MLOAD RETURNDATASIZE PUSH1 0x1F NOT PUSH1 0x1F DUP3 ADD AND DUP3 ADD DUP1 PUSH1 0x40 MSTORE POP DUP2 ADD SWAP1 PUSH2 0xEF5 SWAP2 SWAP1 PUSH2 0x2D7C JUMP JUMPDEST DUP2 PUSH2 0xF00 SWAP2 SWAP1 PUSH2 0x38E5 JUMP JUMPDEST CALLVALUE EQ PUSH2 0xF41 JUMPI PUSH1 0x40 MLOAD PUSH32 0x8C379A000000000000000000000000000000000000000000000000000000000 DUP2 MSTORE PUSH1 0x4 ADD PUSH2 0xF38 SWAP1 PUSH2 0x3563 JUMP JUMPDEST PUSH1 0x40 MLOAD DUP1 SWAP2 SUB SWAP1 REVERT JUMPDEST DUP1 PUSH1 0x3 PUSH1 0x0 SWAP1 SLOAD SWAP1 PUSH2 0x100 EXP SWAP1 DIV PUSH20 0xFFFFFFFFFFFFFFFFFFFFFFFFFFFFFFFFFFFFFFFF AND PUSH20 0xFFFFFFFFFFFFFFFFFFFFFFFFFFFFFFFFFFFFFFFF AND PUSH4 0x70A08231 ADDRESS PUSH1 0x40 MLOAD DUP3 PUSH4 0xFFFFFFFF AND PUSH1 0xE0 SHL DUP2 MSTORE PUSH1 0x4 ADD PUSH2 0xF9D SWAP2 SWAP1 PUSH2 0x3351 JUMP JUMPDEST PUSH1 0x20 PUSH1 0x40 MLOAD DUP1 DUP4 SUB DUP2 DUP7 DUP1 EXTCODESIZE ISZERO DUP1 ISZERO PUSH2 0xFB5 JUMPI PUSH1 0x0 DUP1 REVERT JUMPDEST POP GAS STATICCALL ISZERO DUP1 ISZERO PUSH2 0xFC9 JUMPI RETURNDATASIZE PUSH1 0x0 DUP1 RETURNDATACOPY RETURNDATASIZE PUSH1 0x0 REVERT JUMPDEST POP POP POP POP PUSH1 0x40 MLOAD RETURNDATASIZE PUSH1 0x1F NOT PUSH1 0x1F DUP3 ADD AND DUP3 ADD DUP1 PUSH1 0x40 MSTORE POP DUP2 ADD SWAP1 PUSH2 0xFED SWAP2 SWAP1 PUSH2 0x2D7C JUMP JUMPDEST LT ISZERO PUSH2 0x102E JUMPI PUSH1 0x40 MLOAD PUSH32 0x8C379A000000000000000000000000000000000000000000000000000000000 DUP2 MSTORE PUSH1 0x4 ADD PUSH2 0x1025 SWAP1 PUSH2 0x34C3 JUMP JUMPDEST PUSH1 0x40 MLOAD DUP1 SWAP2 SUB SWAP1 REVERT JUMPDEST PUSH1 0xB PUSH1 0x0 CALLER PUSH20 0xFFFFFFFFFFFFFFFFFFFFFFFFFFFFFFFFFFFFFFFF AND PUSH20 0xFFFFFFFFFFFFFFFFFFFFFFFFFFFFFFFFFFFFFFFF AND DUP2 MSTORE PUSH1 0x20 ADD SWAP1 DUP2 MSTORE PUSH1 0x20 ADD PUSH1 0x0 KECCAK256 PUSH1 0x0 SWAP1 SLOAD SWAP1 PUSH2 0x100 EXP SWAP1 DIV PUSH1 0xFF AND PUSH2 0x113B JUMPI PUSH1 0xA CALLER SWAP1 DUP1 PUSH1 0x1 DUP2 SLOAD ADD DUP1 DUP3 SSTORE DUP1 SWAP2 POP POP PUSH1 0x1 SWAP1 SUB SWAP1 PUSH1 0x0 MSTORE PUSH1 0x20 PUSH1 0x0 KECCAK256 ADD PUSH1 0x0 SWAP1 SWAP2 SWAP1 SWAP2 SWAP1 SWAP2 PUSH2 0x100 EXP DUP2 SLOAD DUP2 PUSH20 0xFFFFFFFFFFFFFFFFFFFFFFFFFFFFFFFFFFFFFFFF MUL NOT AND SWAP1 DUP4 PUSH20 0xFFFFFFFFFFFFFFFFFFFFFFFFFFFFFFFFFFFFFFFF AND MUL OR SWAP1 SSTORE POP PUSH1 0x1 PUSH1 0xB PUSH1 0x0 CALLER PUSH20 0xFFFFFFFFFFFFFFFFFFFFFFFFFFFFFFFFFFFFFFFF AND PUSH20 0xFFFFFFFFFFFFFFFFFFFFFFFFFFFFFFFFFFFFFFFF AND DUP2 MSTORE PUSH1 0x20 ADD SWAP1 DUP2 MSTORE PUSH1 0x20 ADD PUSH1 0x0 KECCAK256 PUSH1 0x0 PUSH2 0x100 EXP DUP2 SLOAD DUP2 PUSH1 0xFF MUL NOT AND SWAP1 DUP4 ISZERO ISZERO MUL OR SWAP1 SSTORE POP JUMPDEST PUSH1 0x3 PUSH1 0x0 SWAP1 SLOAD SWAP1 PUSH2 0x100 EXP SWAP1 DIV PUSH20 0xFFFFFFFFFFFFFFFFFFFFFFFFFFFFFFFFFFFFFFFF AND PUSH20 0xFFFFFFFFFFFFFFFFFFFFFFFFFFFFFFFFFFFFFFFF AND PUSH4 0xA9059CBB CALLER DUP4 PUSH1 0x40 MLOAD DUP4 PUSH4 0xFFFFFFFF AND PUSH1 0xE0 SHL DUP2 MSTORE PUSH1 0x4 ADD PUSH2 0x1198 SWAP3 SWAP2 SWAP1 PUSH2 0x33CC JUMP JUMPDEST PUSH1 0x20 PUSH1 0x40 MLOAD DUP1 DUP4 SUB DUP2 PUSH1 0x0 DUP8 DUP1 EXTCODESIZE ISZERO DUP1 ISZERO PUSH2 0x11B2 JUMPI PUSH1 0x0 DUP1 REVERT JUMPDEST POP GAS CALL ISZERO DUP1 ISZERO PUSH2 0x11C6 JUMPI RETURNDATASIZE PUSH1 0x0 DUP1 RETURNDATACOPY RETURNDATASIZE PUSH1 0x0 REVERT JUMPDEST POP POP POP POP PUSH1 0x40 MLOAD RETURNDATASIZE PUSH1 0x1F NOT PUSH1 0x1F DUP3 ADD AND DUP3 ADD DUP1 PUSH1 0x40 MSTORE POP DUP2 ADD SWAP1 PUSH2 0x11EA SWAP2 SWAP1 PUSH2 0x2C67 JUMP JUMPDEST POP POP JUMP JUMPDEST PUSH1 0x8 PUSH1 0x20 MSTORE DUP2 PUSH1 0x0 MSTORE PUSH1 0x40 PUSH1 0x0 KECCAK256 DUP2 DUP2 SLOAD DUP2 LT PUSH2 0x120A JUMPI PUSH1 0x0 DUP1 REVERT JUMPDEST SWAP1 PUSH1 0x0 MSTORE PUSH1 0x20 PUSH1 0x0 KECCAK256 ADD PUSH1 0x0 SWAP2 POP SWAP2 POP SWAP1 SLOAD SWAP1 PUSH2 0x100 EXP SWAP1 DIV PUSH20 0xFFFFFFFFFFFFFFFFFFFFFFFFFFFFFFFFFFFFFFFF AND DUP2 JUMP JUMPDEST PUSH1 0x5 PUSH1 0x20 MSTORE DUP2 PUSH1 0x0 MSTORE PUSH1 0x40 PUSH1 0x0 KECCAK256 PUSH1 0x20 MSTORE DUP1 PUSH1 0x0 MSTORE PUSH1 0x40 PUSH1 0x0 KECCAK256 PUSH1 0x0 SWAP2 POP SWAP2 POP SWAP1 SLOAD SWAP1 PUSH2 0x100 EXP SWAP1 DIV PUSH1 0xFF AND DUP2 JUMP JUMPDEST PUSH1 0xC PUSH1 0x20 MSTORE DUP1 PUSH1 0x0 MSTORE PUSH1 0x40 PUSH1 0x0 KECCAK256 PUSH1 0x0 SWAP2 POP SWAP1 POP SLOAD DUP2 JUMP JUMPDEST PUSH1 0x1 PUSH1 0x0 SWAP1 SLOAD SWAP1 PUSH2 0x100 EXP SWAP1 DIV PUSH20 0xFFFFFFFFFFFFFFFFFFFFFFFFFFFFFFFFFFFFFFFF AND PUSH20 0xFFFFFFFFFFFFFFFFFFFFFFFFFFFFFFFFFFFFFFFF AND PUSH4 0x93538631 CALLER PUSH1 0x40 MLOAD DUP3 PUSH4 0xFFFFFFFF AND PUSH1 0xE0 SHL DUP2 MSTORE PUSH1 0x4 ADD PUSH2 0x12DE SWAP2 SWAP1 PUSH2 0x3351 JUMP JUMPDEST PUSH1 0x20 PUSH1 0x40 MLOAD DUP1 DUP4 SUB DUP2 DUP7 DUP1 EXTCODESIZE ISZERO DUP1 ISZERO PUSH2 0x12F6 JUMPI PUSH1 0x0 DUP1 REVERT JUMPDEST POP GAS STATICCALL ISZERO DUP1 ISZERO PUSH2 0x130A JUMPI RETURNDATASIZE PUSH1 0x0 DUP1 RETURNDATACOPY RETURNDATASIZE PUSH1 0x0 REVERT JUMPDEST POP POP POP POP PUSH1 0x40 MLOAD RETURNDATASIZE PUSH1 0x1F NOT PUSH1 0x1F DUP3 ADD AND DUP3 ADD DUP1 PUSH1 0x40 MSTORE POP DUP2 ADD SWAP1 PUSH2 0x132E SWAP2 SWAP1 PUSH2 0x2C67 JUMP JUMPDEST PUSH2 0x136D JUMPI PUSH1 0x40 MLOAD PUSH32 0x8C379A000000000000000000000000000000000000000000000000000000000 DUP2 MSTORE PUSH1 0x4 ADD PUSH2 0x1364 SWAP1 PUSH2 0x3543 JUMP JUMPDEST PUSH1 0x40 MLOAD DUP1 SWAP2 SUB SWAP1 REVERT JUMPDEST PUSH1 0xB PUSH1 0x0 CALLER PUSH20 0xFFFFFFFFFFFFFFFFFFFFFFFFFFFFFFFFFFFFFFFF AND PUSH20 0xFFFFFFFFFFFFFFFFFFFFFFFFFFFFFFFFFFFFFFFF AND DUP2 MSTORE PUSH1 0x20 ADD SWAP1 DUP2 MSTORE PUSH1 0x20 ADD PUSH1 0x0 KECCAK256 PUSH1 0x0 SWAP1 SLOAD SWAP1 PUSH2 0x100 EXP SWAP1 DIV PUSH1 0xFF AND PUSH2 0x13F9 JUMPI PUSH1 0x40 MLOAD PUSH32 0x8C379A000000000000000000000000000000000000000000000000000000000 DUP2 MSTORE PUSH1 0x4 ADD PUSH2 0x13F0 SWAP1 PUSH2 0x3623 JUMP JUMPDEST PUSH1 0x40 MLOAD DUP1 SWAP2 SUB SWAP1 REVERT JUMPDEST PUSH1 0xE PUSH1 0x4 ADD SLOAD CALLVALUE EQ PUSH2 0x1440 JUMPI PUSH1 0x40 MLOAD PUSH32 0x8C379A000000000000000000000000000000000000000000000000000000000 DUP2 MSTORE PUSH1 0x4 ADD PUSH2 0x1437 SWAP1 PUSH2 0x3503 JUMP JUMPDEST PUSH1 0x40 MLOAD DUP1 SWAP2 SUB SWAP1 REVERT JUMPDEST PUSH1 0x9 PUSH1 0x0 DUP2 SLOAD DUP1 SWAP3 SWAP2 SWAP1 PUSH2 0x1453 SWAP1 PUSH2 0x3A86 JUMP JUMPDEST SWAP2 SWAP1 POP SSTORE POP PUSH1 0x0 PUSH1 0x40 MLOAD DUP1 PUSH2 0x180 ADD PUSH1 0x40 MSTORE DUP1 PUSH1 0x9 SLOAD DUP2 MSTORE PUSH1 0x20 ADD DUP7 DUP2 MSTORE PUSH1 0x20 ADD DUP6 DUP2 MSTORE PUSH1 0x20 ADD DUP5 DUP2 MSTORE PUSH1 0x20 ADD CALLER PUSH20 0xFFFFFFFFFFFFFFFFFFFFFFFFFFFFFFFFFFFFFFFF AND DUP2 MSTORE PUSH1 0x20 ADD PUSH1 0x0 DUP2 MSTORE PUSH1 0x20 ADD PUSH1 0x0 DUP2 MSTORE PUSH1 0x20 ADD TIMESTAMP DUP2 MSTORE PUSH1 0x20 ADD PUSH1 0xE PUSH1 0x2 ADD SLOAD TIMESTAMP PUSH2 0x14C1 SWAP2 SWAP1 PUSH2 0x385E JUMP JUMPDEST DUP2 MSTORE PUSH1 0x20 ADD DUP4 DUP2 MSTORE PUSH1 0x20 ADD PUSH1 0x40 MLOAD DUP1 PUSH1 0x40 ADD PUSH1 0x40 MSTORE DUP1 PUSH1 0x7 DUP2 MSTORE PUSH1 0x20 ADD PUSH32 0x70656E64696E6700000000000000000000000000000000000000000000000000 DUP2 MSTORE POP DUP2 MSTORE PUSH1 0x20 ADD PUSH1 0x0 ISZERO ISZERO DUP2 MSTORE POP SWAP1 POP DUP1 PUSH1 0x4 PUSH1 0x0 PUSH1 0x9 SLOAD DUP2 MSTORE PUSH1 0x20 ADD SWAP1 DUP2 MSTORE PUSH1 0x20 ADD PUSH1 0x0 KECCAK256 PUSH1 0x0 DUP3 ADD MLOAD DUP2 PUSH1 0x0 ADD SSTORE PUSH1 0x20 DUP3 ADD MLOAD DUP2 PUSH1 0x1 ADD SWAP1 DUP1 MLOAD SWAP1 PUSH1 0x20 ADD SWAP1 PUSH2 0x154C SWAP3 SWAP2 SWAP1 PUSH2 0x29A9 JUMP JUMPDEST POP PUSH1 0x40 DUP3 ADD MLOAD DUP2 PUSH1 0x2 ADD SWAP1 DUP1 MLOAD SWAP1 PUSH1 0x20 ADD SWAP1 PUSH2 0x1569 SWAP3 SWAP2 SWAP1 PUSH2 0x29A9 JUMP JUMPDEST POP PUSH1 0x60 DUP3 ADD MLOAD DUP2 PUSH1 0x3 ADD SWAP1 DUP1 MLOAD SWAP1 PUSH1 0x20 ADD SWAP1 PUSH2 0x1586 SWAP3 SWAP2 SWAP1 PUSH2 0x29A9 JUMP JUMPDEST POP PUSH1 0x80 DUP3 ADD MLOAD DUP2 PUSH1 0x4 ADD PUSH1 0x0 PUSH2 0x100 EXP DUP2 SLOAD DUP2 PUSH20 0xFFFFFFFFFFFFFFFFFFFFFFFFFFFFFFFFFFFFFFFF MUL NOT AND SWAP1 DUP4 PUSH20 0xFFFFFFFFFFFFFFFFFFFFFFFFFFFFFFFFFFFFFFFF AND MUL OR SWAP1 SSTORE POP PUSH1 0xA0 DUP3 ADD MLOAD DUP2 PUSH1 0x5 ADD SSTORE PUSH1 0xC0 DUP3 ADD MLOAD DUP2 PUSH1 0x6 ADD SSTORE PUSH1 0xE0 DUP3 ADD MLOAD DUP2 PUSH1 0x7 ADD SSTORE PUSH2 0x100 DUP3 ADD MLOAD DUP2 PUSH1 0x8 ADD SSTORE PUSH2 0x120 DUP3 ADD MLOAD DUP2 PUSH1 0x9 ADD SSTORE PUSH2 0x140 DUP3 ADD MLOAD DUP2 PUSH1 0xA ADD SWAP1 DUP1 MLOAD SWAP1 PUSH1 0x20 ADD SWAP1 PUSH2 0x161F SWAP3 SWAP2 SWAP1 PUSH2 0x29A9 JUMP JUMPDEST POP PUSH2 0x160 DUP3 ADD MLOAD DUP2 PUSH1 0xB ADD PUSH1 0x0 PUSH2 0x100 EXP DUP2 SLOAD DUP2 PUSH1 0xFF MUL NOT AND SWAP1 DUP4 ISZERO ISZERO MUL OR SWAP1 SSTORE POP SWAP1 POP POP POP POP POP POP POP JUMP JUMPDEST PUSH1 0x14 PUSH1 0x0 SWAP1 SLOAD SWAP1 PUSH2 0x100 EXP SWAP1 DIV PUSH20 0xFFFFFFFFFFFFFFFFFFFFFFFFFFFFFFFFFFFFFFFF AND DUP2 JUMP JUMPDEST PUSH2 0x1679 PUSH2 0x2A2F JUMP JUMPDEST PUSH1 0xE PUSH1 0x40 MLOAD DUP1 PUSH1 0xA0 ADD PUSH1 0x40 MSTORE SWAP1 DUP2 PUSH1 0x0 DUP3 ADD SLOAD DUP2 MSTORE PUSH1 0x20 ADD PUSH1 0x1 DUP3 ADD SLOAD DUP2 MSTORE PUSH1 0x20 ADD PUSH1 0x2 DUP3 ADD SLOAD DUP2 MSTORE PUSH1 0x20 ADD PUSH1 0x3 DUP3 ADD SLOAD DUP2 MSTORE PUSH1 0x20 ADD PUSH1 0x4 DUP3 ADD SLOAD DUP2 MSTORE POP POP SWAP1 POP SWAP1 JUMP JUMPDEST PUSH1 0x7 PUSH1 0x20 MSTORE DUP2 PUSH1 0x0 MSTORE PUSH1 0x40 PUSH1 0x0 KECCAK256 DUP2 DUP2 SLOAD DUP2 LT PUSH2 0x16D9 JUMPI PUSH1 0x0 DUP1 REVERT JUMPDEST SWAP1 PUSH1 0x0 MSTORE PUSH1 0x20 PUSH1 0x0 KECCAK256 ADD PUSH1 0x0 SWAP2 POP SWAP2 POP SWAP1 SLOAD SWAP1 PUSH2 0x100 EXP SWAP1 DIV PUSH20 0xFFFFFFFFFFFFFFFFFFFFFFFFFFFFFFFFFFFFFFFF AND DUP2 JUMP JUMPDEST PUSH2 0x1713 PUSH2 0x285F JUMP JUMPDEST PUSH2 0x171D PUSH1 0x0 PUSH2 0x28DD JUMP JUMPDEST JUMP JUMPDEST PUSH1 0x0 ISZERO ISZERO PUSH1 0x4 PUSH1 0x0 DUP5 DUP2 MSTORE PUSH1 0x20 ADD SWAP1 DUP2 MSTORE PUSH1 0x20 ADD PUSH1 0x0 KECCAK256 PUSH1 0xB ADD PUSH1 0x0 SWAP1 SLOAD SWAP1 PUSH2 0x100 EXP SWAP1 DIV PUSH1 0xFF AND ISZERO ISZERO EQ PUSH2 0x1789 JUMPI PUSH1 0x40 MLOAD PUSH32 0x8C379A000000000000000000000000000000000000000000000000000000000 DUP2 MSTORE PUSH1 0x4 ADD PUSH2 0x1780 SWAP1 PUSH2 0x35C3 JUMP JUMPDEST PUSH1 0x40 MLOAD DUP1 SWAP2 SUB SWAP1 REVERT JUMPDEST PUSH1 0x0 PUSH1 0x4 PUSH1 0x0 DUP5 DUP2 MSTORE PUSH1 0x20 ADD SWAP1 DUP2 MSTORE PUSH1 0x20 ADD PUSH1 0x0 KECCAK256 PUSH1 0x6 ADD SLOAD PUSH1 0x4 PUSH1 0x0 DUP6 DUP2 MSTORE PUSH1 0x20 ADD SWAP1 DUP2 MSTORE PUSH1 0x20 ADD PUSH1 0x0 KECCAK256 PUSH1 0x5 ADD SLOAD PUSH2 0x17C3 SWAP2 SWAP1 PUSH2 0x385E JUMP JUMPDEST SWAP1 POP PUSH1 0x64 PUSH1 0xE PUSH1 0x0 ADD SLOAD PUSH1 0xA DUP1 SLOAD SWAP1 POP PUSH2 0x17DD SWAP2 SWAP1 PUSH2 0x38E5 JUMP JUMPDEST PUSH2 0x17E7 SWAP2 SWAP1 PUSH2 0x38B4 JUMP JUMPDEST DUP2 GT ISZERO PUSH2 0x1853 JUMPI PUSH1 0x40 MLOAD DUP1 PUSH1 0x40 ADD PUSH1 0x40 MSTORE DUP1 PUSH1 0xC DUP2 MSTORE PUSH1 0x20 ADD PUSH32 0x7175657374696F6E61626C650000000000000000000000000000000000000000 DUP2 MSTORE POP PUSH1 0x4 PUSH1 0x0 DUP6 DUP2 MSTORE PUSH1 0x20 ADD SWAP1 DUP2 MSTORE PUSH1 0x20 ADD PUSH1 0x0 KECCAK256 PUSH1 0xA ADD SWAP1 DUP1 MLOAD SWAP1 PUSH1 0x20 ADD SWAP1 PUSH2 0x184D SWAP3 SWAP2 SWAP1 PUSH2 0x29A9 JUMP JUMPDEST POP PUSH2 0x1D5E JUMP JUMPDEST PUSH1 0xE PUSH1 0x1 ADD SLOAD PUSH1 0x64 DUP3 PUSH1 0x4 PUSH1 0x0 DUP8 DUP2 MSTORE PUSH1 0x20 ADD SWAP1 DUP2 MSTORE PUSH1 0x20 ADD PUSH1 0x0 KECCAK256 PUSH1 0x5 ADD SLOAD PUSH2 0x187D SWAP2 SWAP1 PUSH2 0x38B4 JUMP JUMPDEST PUSH2 0x1887 SWAP2 SWAP1 PUSH2 0x38E5 JUMP JUMPDEST GT ISZERO PUSH2 0x1CC1 JUMPI PUSH1 0x40 MLOAD DUP1 PUSH1 0x40 ADD PUSH1 0x40 MSTORE DUP1 PUSH1 0x8 DUP2 MSTORE PUSH1 0x20 ADD PUSH32 0x617070726F766564000000000000000000000000000000000000000000000000 DUP2 MSTORE POP PUSH1 0x4 PUSH1 0x0 DUP6 DUP2 MSTORE PUSH1 0x20 ADD SWAP1 DUP2 MSTORE PUSH1 0x20 ADD PUSH1 0x0 KECCAK256 PUSH1 0xA ADD SWAP1 DUP1 MLOAD SWAP1 PUSH1 0x20 ADD SWAP1 PUSH2 0x18EC SWAP3 SWAP2 SWAP1 PUSH2 0x29A9 JUMP JUMPDEST POP PUSH1 0x0 PUSH1 0x4 PUSH1 0x0 DUP6 DUP2 MSTORE PUSH1 0x20 ADD SWAP1 DUP2 MSTORE PUSH1 0x20 ADD PUSH1 0x0 KECCAK256 PUSH1 0x4 ADD PUSH1 0x0 SWAP1 SLOAD SWAP1 PUSH2 0x100 EXP SWAP1 DIV PUSH20 0xFFFFFFFFFFFFFFFFFFFFFFFFFFFFFFFFFFFFFFFF AND SWAP1 POP PUSH1 0xE PUSH1 0x4 ADD SLOAD PUSH1 0xC PUSH1 0x0 DUP4 PUSH20 0xFFFFFFFFFFFFFFFFFFFFFFFFFFFFFFFFFFFFFFFF AND PUSH20 0xFFFFFFFFFFFFFFFFFFFFFFFFFFFFFFFFFFFFFFFF AND DUP2 MSTORE PUSH1 0x20 ADD SWAP1 DUP2 MSTORE PUSH1 0x20 ADD PUSH1 0x0 KECCAK256 PUSH1 0x0 DUP3 DUP3 SLOAD PUSH2 0x197C SWAP2 SWAP1 PUSH2 0x385E JUMP JUMPDEST SWAP3 POP POP DUP2 SWAP1 SSTORE POP PUSH1 0x0 JUMPDEST PUSH1 0x7 PUSH1 0x0 DUP7 DUP2 MSTORE PUSH1 0x20 ADD SWAP1 DUP2 MSTORE PUSH1 0x20 ADD PUSH1 0x0 KECCAK256 DUP1 SLOAD SWAP1 POP DUP2 LT ISZERO PUSH2 0x1A61 JUMPI PUSH1 0xE PUSH1 0x3 ADD SLOAD PUSH1 0xC PUSH1 0x0 PUSH1 0x7 PUSH1 0x0 DUP10 DUP2 MSTORE PUSH1 0x20 ADD SWAP1 DUP2 MSTORE PUSH1 0x20 ADD PUSH1 0x0 KECCAK256 DUP5 DUP2 SLOAD DUP2 LT PUSH2 0x19D3 JUMPI PUSH2 0x19D2 PUSH2 0x3B5C JUMP JUMPDEST JUMPDEST SWAP1 PUSH1 0x0 MSTORE PUSH1 0x20 PUSH1 0x0 KECCAK256 ADD PUSH1 0x0 SWAP1 SLOAD SWAP1 PUSH2 0x100 EXP SWAP1 DIV PUSH20 0xFFFFFFFFFFFFFFFFFFFFFFFFFFFFFFFFFFFFFFFF AND PUSH20 0xFFFFFFFFFFFFFFFFFFFFFFFFFFFFFFFFFFFFFFFF AND PUSH20 0xFFFFFFFFFFFFFFFFFFFFFFFFFFFFFFFFFFFFFFFF AND DUP2 MSTORE PUSH1 0x20 ADD SWAP1 DUP2 MSTORE PUSH1 0x20 ADD PUSH1 0x0 KECCAK256 PUSH1 0x0 DUP3 DUP3 SLOAD PUSH2 0x1A47 SWAP2 SWAP1 PUSH2 0x385E JUMP JUMPDEST SWAP3 POP POP DUP2 SWAP1 SSTORE POP DUP1 DUP1 PUSH2 0x1A59 SWAP1 PUSH2 0x3A86 JUMP JUMPDEST SWAP2 POP POP PUSH2 0x1986 JUMP JUMPDEST POP PUSH1 0x0 PUSH1 0x4 PUSH1 0x0 DUP7 DUP2 MSTORE PUSH1 0x20 ADD SWAP1 DUP2 MSTORE PUSH1 0x20 ADD PUSH1 0x0 KECCAK256 PUSH1 0x9 ADD SLOAD GT ISZERO PUSH2 0x1CBB JUMPI PUSH1 0x0 PUSH1 0x2 PUSH1 0x0 SWAP1 SLOAD SWAP1 PUSH2 0x100 EXP SWAP1 DIV PUSH20 0xFFFFFFFFFFFFFFFFFFFFFFFFFFFFFFFFFFFFFFFF AND PUSH20 0xFFFFFFFFFFFFFFFFFFFFFFFFFFFFFFFFFFFFFFFF AND PUSH4 0xCEBF64F5 DUP6 PUSH1 0x40 MLOAD DUP3 PUSH4 0xFFFFFFFF AND PUSH1 0xE0 SHL DUP2 MSTORE PUSH1 0x4 ADD PUSH2 0x1ADE SWAP2 SWAP1 PUSH2 0x365E JUMP JUMPDEST PUSH1 0x20 PUSH1 0x40 MLOAD DUP1 DUP4 SUB DUP2 DUP7 DUP1 EXTCODESIZE ISZERO DUP1 ISZERO PUSH2 0x1AF6 JUMPI PUSH1 0x0 DUP1 REVERT JUMPDEST POP GAS STATICCALL ISZERO DUP1 ISZERO PUSH2 0x1B0A JUMPI RETURNDATASIZE PUSH1 0x0 DUP1 RETURNDATACOPY RETURNDATASIZE PUSH1 0x0 REVERT JUMPDEST POP POP POP POP PUSH1 0x40 MLOAD RETURNDATASIZE PUSH1 0x1F NOT PUSH1 0x1F DUP3 ADD AND DUP3 ADD DUP1 PUSH1 0x40 MSTORE POP DUP2 ADD SWAP1 PUSH2 0x1B2E SWAP2 SWAP1 PUSH2 0x2BFA JUMP JUMPDEST SWAP1 POP PUSH1 0x0 PUSH1 0x14 PUSH1 0x0 SWAP1 SLOAD SWAP1 PUSH2 0x100 EXP SWAP1 DIV PUSH20 0xFFFFFFFFFFFFFFFFFFFFFFFFFFFFFFFFFFFFFFFF AND SWAP1 POP PUSH1 0x13 SLOAD DUP2 PUSH20 0xFFFFFFFFFFFFFFFFFFFFFFFFFFFFFFFFFFFFFFFF AND PUSH4 0xDD62ED3E CALLER ADDRESS PUSH1 0x40 MLOAD DUP4 PUSH4 0xFFFFFFFF AND PUSH1 0xE0 SHL DUP2 MSTORE PUSH1 0x4 ADD PUSH2 0x1B95 SWAP3 SWAP2 SWAP1 PUSH2 0x336C JUMP JUMPDEST PUSH1 0x20 PUSH1 0x40 MLOAD DUP1 DUP4 SUB DUP2 DUP7 DUP1 EXTCODESIZE ISZERO DUP1 ISZERO PUSH2 0x1BAD JUMPI PUSH1 0x0 DUP1 REVERT JUMPDEST POP GAS STATICCALL ISZERO DUP1 ISZERO PUSH2 0x1BC1 JUMPI RETURNDATASIZE PUSH1 0x0 DUP1 RETURNDATACOPY RETURNDATASIZE PUSH1 0x0 REVERT JUMPDEST POP POP POP POP PUSH1 0x40 MLOAD RETURNDATASIZE PUSH1 0x1F NOT PUSH1 0x1F DUP3 ADD AND DUP3 ADD DUP1 PUSH1 0x40 MSTORE POP DUP2 ADD SWAP1 PUSH2 0x1BE5 SWAP2 SWAP1 PUSH2 0x2D7C JUMP JUMPDEST LT ISZERO PUSH2 0x1C26 JUMPI PUSH1 0x40 MLOAD PUSH32 0x8C379A000000000000000000000000000000000000000000000000000000000 DUP2 MSTORE PUSH1 0x4 ADD PUSH2 0x1C1D SWAP1 PUSH2 0x3523 JUMP JUMPDEST PUSH1 0x40 MLOAD DUP1 SWAP2 SUB SWAP1 REVERT JUMPDEST DUP1 PUSH20 0xFFFFFFFFFFFFFFFFFFFFFFFFFFFFFFFFFFFFFFFF AND PUSH4 0x23B872DD CALLER DUP5 PUSH1 0x13 SLOAD PUSH1 0x40 MLOAD DUP5 PUSH4 0xFFFFFFFF AND PUSH1 0xE0 SHL DUP2 MSTORE PUSH1 0x4 ADD PUSH2 0x1C65 SWAP4 SWAP3 SWAP2 SWAP1 PUSH2 0x3395 JUMP JUMPDEST PUSH1 0x20 PUSH1 0x40 MLOAD DUP1 DUP4 SUB DUP2 PUSH1 0x0 DUP8 DUP1 EXTCODESIZE ISZERO DUP1 ISZERO PUSH2 0x1C7F JUMPI PUSH1 0x0 DUP1 REVERT JUMPDEST POP GAS CALL ISZERO DUP1 ISZERO PUSH2 0x1C93 JUMPI RETURNDATASIZE PUSH1 0x0 DUP1 RETURNDATACOPY RETURNDATASIZE PUSH1 0x0 REVERT JUMPDEST POP POP POP POP PUSH1 0x40 MLOAD RETURNDATASIZE PUSH1 0x1F NOT PUSH1 0x1F DUP3 ADD AND DUP3 ADD DUP1 PUSH1 0x40 MSTORE POP DUP2 ADD SWAP1 PUSH2 0x1CB7 SWAP2 SWAP1 PUSH2 0x2C67 JUMP JUMPDEST POP POP POP JUMPDEST POP PUSH2 0x1D5D JUMP JUMPDEST PUSH1 0xE PUSH1 0x1 ADD SLOAD PUSH1 0x64 DUP3 PUSH1 0x4 PUSH1 0x0 DUP8 DUP2 MSTORE PUSH1 0x20 ADD SWAP1 DUP2 MSTORE PUSH1 0x20 ADD PUSH1 0x0 KECCAK256 PUSH1 0x6 ADD SLOAD PUSH2 0x1CEB SWAP2 SWAP1 PUSH2 0x38B4 JUMP JUMPDEST PUSH2 0x1CF5 SWAP2 SWAP1 PUSH2 0x38E5 JUMP JUMPDEST GT ISZERO PUSH2 0x1D5C JUMPI PUSH1 0x40 MLOAD DUP1 PUSH1 0x40 ADD PUSH1 0x40 MSTORE DUP1 PUSH1 0x8 DUP2 MSTORE PUSH1 0x20 ADD PUSH32 0x72656A6563746564000000000000000000000000000000000000000000000000 DUP2 MSTORE POP PUSH1 0x4 PUSH1 0x0 DUP6 DUP2 MSTORE PUSH1 0x20 ADD SWAP1 DUP2 MSTORE PUSH1 0x20 ADD PUSH1 0x0 KECCAK256 PUSH1 0xA ADD SWAP1 DUP1 MLOAD SWAP1 PUSH1 0x20 ADD SWAP1 PUSH2 0x1D5A SWAP3 SWAP2 SWAP1 PUSH2 0x29A9 JUMP JUMPDEST POP JUMPDEST JUMPDEST JUMPDEST PUSH1 0x1 PUSH1 0x4 PUSH1 0x0 DUP6 DUP2 MSTORE PUSH1 0x20 ADD SWAP1 DUP2 MSTORE PUSH1 0x20 ADD PUSH1 0x0 KECCAK256 PUSH1 0xB ADD PUSH1 0x0 PUSH2 0x100 EXP DUP2 SLOAD DUP2 PUSH1 0xFF MUL NOT AND SWAP1 DUP4 ISZERO ISZERO MUL OR SWAP1 SSTORE POP POP POP POP JUMP JUMPDEST PUSH1 0x2 PUSH1 0x0 SWAP1 SLOAD SWAP1 PUSH2 0x100 EXP SWAP1 DIV PUSH20 0xFFFFFFFFFFFFFFFFFFFFFFFFFFFFFFFFFFFFFFFF AND DUP2 JUMP JUMPDEST PUSH1 0x0 DUP1 PUSH1 0x0 SWAP1 SLOAD SWAP1 PUSH2 0x100 EXP SWAP1 DIV PUSH20 0xFFFFFFFFFFFFFFFFFFFFFFFFFFFFFFFFFFFFFFFF AND SWAP1 POP SWAP1 JUMP JUMPDEST PUSH1 0x1 PUSH1 0x0 SWAP1 SLOAD SWAP1 PUSH2 0x100 EXP SWAP1 DIV PUSH20 0xFFFFFFFFFFFFFFFFFFFFFFFFFFFFFFFFFFFFFFFF AND PUSH20 0xFFFFFFFFFFFFFFFFFFFFFFFFFFFFFFFFFFFFFFFF AND PUSH4 0x93538631 CALLER PUSH1 0x40 MLOAD DUP3 PUSH4 0xFFFFFFFF AND PUSH1 0xE0 SHL DUP2 MSTORE PUSH1 0x4 ADD PUSH2 0x1E3C SWAP2 SWAP1 PUSH2 0x3351 JUMP JUMPDEST PUSH1 0x20 PUSH1 0x40 MLOAD DUP1 DUP4 SUB DUP2 DUP7 DUP1 EXTCODESIZE ISZERO DUP1 ISZERO PUSH2 0x1E54 JUMPI PUSH1 0x0 DUP1 REVERT JUMPDEST POP GAS STATICCALL ISZERO DUP1 ISZERO PUSH2 0x1E68 JUMPI RETURNDATASIZE PUSH1 0x0 DUP1 RETURNDATACOPY RETURNDATASIZE PUSH1 0x0 REVERT JUMPDEST POP POP POP POP PUSH1 0x40 MLOAD RETURNDATASIZE PUSH1 0x1F NOT PUSH1 0x1F DUP3 ADD AND DUP3 ADD DUP1 PUSH1 0x40 MSTORE POP DUP2 ADD SWAP1 PUSH2 0x1E8C SWAP2 SWAP1 PUSH2 0x2C67 JUMP JUMPDEST PUSH2 0x1ECB JUMPI PUSH1 0x40 MLOAD PUSH32 0x8C379A000000000000000000000000000000000000000000000000000000000 DUP2 MSTORE PUSH1 0x4 ADD PUSH2 0x1EC2 SWAP1 PUSH2 0x3543 JUMP JUMPDEST PUSH1 0x40 MLOAD DUP1 SWAP2 SUB SWAP1 REVERT JUMPDEST PUSH1 0xB PUSH1 0x0 CALLER PUSH20 0xFFFFFFFFFFFFFFFFFFFFFFFFFFFFFFFFFFFFFFFF AND PUSH20 0xFFFFFFFFFFFFFFFFFFFFFFFFFFFFFFFFFFFFFFFF AND DUP2 MSTORE PUSH1 0x20 ADD SWAP1 DUP2 MSTORE PUSH1 0x20 ADD PUSH1 0x0 KECCAK256 PUSH1 0x0 SWAP1 SLOAD SWAP1 PUSH2 0x100 EXP SWAP1 DIV PUSH1 0xFF AND PUSH2 0x1F57 JUMPI PUSH1 0x40 MLOAD PUSH32 0x8C379A000000000000000000000000000000000000000000000000000000000 DUP2 MSTORE PUSH1 0x4 ADD PUSH2 0x1F4E SWAP1 PUSH2 0x3603 JUMP JUMPDEST PUSH1 0x40 MLOAD DUP1 SWAP2 SUB SWAP1 REVERT JUMPDEST CALLER PUSH20 0xFFFFFFFFFFFFFFFFFFFFFFFFFFFFFFFFFFFFFFFF AND PUSH1 0x4 PUSH1 0x0 DUP4 DUP2 MSTORE PUSH1 0x20 ADD SWAP1 DUP2 MSTORE PUSH1 0x20 ADD PUSH1 0x0 KECCAK256 PUSH1 0x4 ADD PUSH1 0x0 SWAP1 SLOAD SWAP1 PUSH2 0x100 EXP SWAP1 DIV PUSH20 0xFFFFFFFFFFFFFFFFFFFFFFFFFFFFFFFFFFFFFFFF AND PUSH20 0xFFFFFFFFFFFFFFFFFFFFFFFFFFFFFFFFFFFFFFFF AND EQ ISZERO PUSH2 0x1FFC JUMPI PUSH1 0x40 MLOAD PUSH32 0x8C379A000000000000000000000000000000000000000000000000000000000 DUP2 MSTORE PUSH1 0x4 ADD PUSH2 0x1FF3 SWAP1 PUSH2 0x35E3 JUMP JUMPDEST PUSH1 0x40 MLOAD DUP1 SWAP2 SUB SWAP1 REVERT JUMPDEST PUSH1 0x5 PUSH1 0x0 CALLER PUSH20 0xFFFFFFFFFFFFFFFFFFFFFFFFFFFFFFFFFFFFFFFF AND PUSH20 0xFFFFFFFFFFFFFFFFFFFFFFFFFFFFFFFFFFFFFFFF AND DUP2 MSTORE PUSH1 0x20 ADD SWAP1 DUP2 MSTORE PUSH1 0x20 ADD PUSH1 0x0 KECCAK256 PUSH1 0x0 DUP3 DUP2 MSTORE PUSH1 0x20 ADD SWAP1 DUP2 MSTORE PUSH1 0x20 ADD PUSH1 0x0 KECCAK256 PUSH1 0x0 SWAP1 SLOAD SWAP1 PUSH2 0x100 EXP SWAP1 DIV PUSH1 0xFF AND ISZERO PUSH2 0x209A JUMPI PUSH1 0x40 MLOAD PUSH32 0x8C379A000000000000000000000000000000000000000000000000000000000 DUP2 MSTORE PUSH1 0x4 ADD PUSH2 0x2091 SWAP1 PUSH2 0x34A3 JUMP JUMPDEST PUSH1 0x40 MLOAD DUP1 SWAP2 SUB SWAP1 REVERT JUMPDEST TIMESTAMP PUSH1 0x4 PUSH1 0x0 DUP4 DUP2 MSTORE PUSH1 0x20 ADD SWAP1 DUP2 MSTORE PUSH1 0x20 ADD PUSH1 0x0 KECCAK256 PUSH1 0x8 ADD SLOAD GT PUSH2 0x20F2 JUMPI PUSH1 0x40 MLOAD PUSH32 0x8C379A000000000000000000000000000000000000000000000000000000000 DUP2 MSTORE PUSH1 0x4 ADD PUSH2 0x20E9 SWAP1 PUSH2 0x3483 JUMP JUMPDEST PUSH1 0x40 MLOAD DUP1 SWAP2 SUB SWAP1 REVERT JUMPDEST PUSH1 0xE PUSH1 0x3 ADD SLOAD CALLVALUE EQ PUSH2 0x2139 JUMPI PUSH1 0x40 MLOAD PUSH32 0x8C379A000000000000000000000000000000000000000000000000000000000 DUP2 MSTORE PUSH1 0x4 ADD PUSH2 0x2130 SWAP1 PUSH2 0x3583 JUMP JUMPDEST PUSH1 0x40 MLOAD DUP1 SWAP2 SUB SWAP1 REVERT JUMPDEST PUSH1 0x1 PUSH1 0x4 PUSH1 0x0 DUP4 DUP2 MSTORE PUSH1 0x20 ADD SWAP1 DUP2 MSTORE PUSH1 0x20 ADD PUSH1 0x0 KECCAK256 PUSH1 0x5 ADD SLOAD PUSH2 0x215C SWAP2 SWAP1 PUSH2 0x385E JUMP JUMPDEST PUSH1 0x4 PUSH1 0x0 DUP4 DUP2 MSTORE PUSH1 0x20 ADD SWAP1 DUP2 MSTORE PUSH1 0x20 ADD PUSH1 0x0 KECCAK256 PUSH1 0x5 ADD DUP2 SWAP1 SSTORE POP PUSH1 0x1 PUSH1 0x5 PUSH1 0x0 CALLER PUSH20 0xFFFFFFFFFFFFFFFFFFFFFFFFFFFFFFFFFFFFFFFF AND PUSH20 0xFFFFFFFFFFFFFFFFFFFFFFFFFFFFFFFFFFFFFFFF AND DUP2 MSTORE PUSH1 0x20 ADD SWAP1 DUP2 MSTORE PUSH1 0x20 ADD PUSH1 0x0 KECCAK256 PUSH1 0x0 DUP4 DUP2 MSTORE PUSH1 0x20 ADD SWAP1 DUP2 MSTORE PUSH1 0x20 ADD PUSH1 0x0 KECCAK256 PUSH1 0x0 PUSH2 0x100 EXP DUP2 SLOAD DUP2 PUSH1 0xFF MUL NOT AND SWAP1 DUP4 ISZERO ISZERO MUL OR SWAP1 SSTORE POP PUSH1 0x6 PUSH1 0x0 DUP3 DUP2 MSTORE PUSH1 0x20 ADD SWAP1 DUP2 MSTORE PUSH1 0x20 ADD PUSH1 0x0 KECCAK256 CALLER SWAP1 DUP1 PUSH1 0x1 DUP2 SLOAD ADD DUP1 DUP3 SSTORE DUP1 SWAP2 POP POP PUSH1 0x1 SWAP1 SUB SWAP1 PUSH1 0x0 MSTORE PUSH1 0x20 PUSH1 0x0 KECCAK256 ADD PUSH1 0x0 SWAP1 SWAP2 SWAP1 SWAP2 SWAP1 SWAP2 PUSH2 0x100 EXP DUP2 SLOAD DUP2 PUSH20 0xFFFFFFFFFFFFFFFFFFFFFFFFFFFFFFFFFFFFFFFF MUL NOT AND SWAP1 DUP4 PUSH20 0xFFFFFFFFFFFFFFFFFFFFFFFFFFFFFFFFFFFFFFFF AND MUL OR SWAP1 SSTORE POP PUSH1 0x7 PUSH1 0x0 DUP3 DUP2 MSTORE PUSH1 0x20 ADD SWAP1 DUP2 MSTORE PUSH1 0x20 ADD PUSH1 0x0 KECCAK256 CALLER SWAP1 DUP1 PUSH1 0x1 DUP2 SLOAD ADD DUP1 DUP3 SSTORE DUP1 SWAP2 POP POP PUSH1 0x1 SWAP1 SUB SWAP1 PUSH1 0x0 MSTORE PUSH1 0x20 PUSH1 0x0 KECCAK256 ADD PUSH1 0x0 SWAP1 SWAP2 SWAP1 SWAP2 SWAP1 SWAP2 PUSH2 0x100 EXP DUP2 SLOAD DUP2 PUSH20 0xFFFFFFFFFFFFFFFFFFFFFFFFFFFFFFFFFFFFFFFF MUL NOT AND SWAP1 DUP4 PUSH20 0xFFFFFFFFFFFFFFFFFFFFFFFFFFFFFFFFFFFFFFFF AND MUL OR SWAP1 SSTORE POP POP JUMP JUMPDEST PUSH1 0x1 PUSH1 0x0 SWAP1 SLOAD SWAP1 PUSH2 0x100 EXP SWAP1 DIV PUSH20 0xFFFFFFFFFFFFFFFFFFFFFFFFFFFFFFFFFFFFFFFF AND DUP2 JUMP JUMPDEST PUSH1 0x13 SLOAD DUP2 JUMP JUMPDEST PUSH1 0x6 PUSH1 0x20 MSTORE DUP2 PUSH1 0x0 MSTORE PUSH1 0x40 PUSH1 0x0 KECCAK256 DUP2 DUP2 SLOAD DUP2 LT PUSH2 0x2312 JUMPI PUSH1 0x0 DUP1 REVERT JUMPDEST SWAP1 PUSH1 0x0 MSTORE PUSH1 0x20 PUSH1 0x0 KECCAK256 ADD PUSH1 0x0 SWAP2 POP SWAP2 POP SWAP1 SLOAD SWAP1 PUSH2 0x100 EXP SWAP1 DIV PUSH20 0xFFFFFFFFFFFFFFFFFFFFFFFFFFFFFFFFFFFFFFFF AND DUP2 JUMP JUMPDEST PUSH1 0x60 PUSH1 0x0 PUSH1 0x9 SLOAD PUSH8 0xFFFFFFFFFFFFFFFF DUP2 GT ISZERO PUSH2 0x2364 JUMPI PUSH2 0x2363 PUSH2 0x3B8B JUMP JUMPDEST JUMPDEST PUSH1 0x40 MLOAD SWAP1 DUP1 DUP3 MSTORE DUP1 PUSH1 0x20 MUL PUSH1 0x20 ADD DUP3 ADD PUSH1 0x40 MSTORE DUP1 ISZERO PUSH2 0x239D JUMPI DUP2 PUSH1 0x20 ADD JUMPDEST PUSH2 0x238A PUSH2 0x2A5E JUMP JUMPDEST DUP2 MSTORE PUSH1 0x20 ADD SWAP1 PUSH1 0x1 SWAP1 SUB SWAP1 DUP2 PUSH2 0x2382 JUMPI SWAP1 POP JUMPDEST POP SWAP1 POP PUSH1 0x0 JUMPDEST PUSH1 0x9 SLOAD DUP2 LT ISZERO PUSH2 0x26FE JUMPI PUSH1 0x4 PUSH1 0x0 PUSH1 0x1 DUP4 PUSH2 0x23BE SWAP2 SWAP1 PUSH2 0x385E JUMP JUMPDEST DUP2 MSTORE PUSH1 0x20 ADD SWAP1 DUP2 MSTORE PUSH1 0x20 ADD PUSH1 0x0 KECCAK256 PUSH1 0x40 MLOAD DUP1 PUSH2 0x180 ADD PUSH1 0x40 MSTORE SWAP1 DUP2 PUSH1 0x0 DUP3 ADD SLOAD DUP2 MSTORE PUSH1 0x20 ADD PUSH1 0x1 DUP3 ADD DUP1 SLOAD PUSH2 0x23F2 SWAP1 PUSH2 0x3A23 JUMP JUMPDEST DUP1 PUSH1 0x1F ADD PUSH1 0x20 DUP1 SWAP2 DIV MUL PUSH1 0x20 ADD PUSH1 0x40 MLOAD SWAP1 DUP2 ADD PUSH1 0x40 MSTORE DUP1 SWAP3 SWAP2 SWAP1 DUP2 DUP2 MSTORE PUSH1 0x20 ADD DUP3 DUP1 SLOAD PUSH2 0x241E SWAP1 PUSH2 0x3A23 JUMP JUMPDEST DUP1 ISZERO PUSH2 0x246B JUMPI DUP1 PUSH1 0x1F LT PUSH2 0x2440 JUMPI PUSH2 0x100 DUP1 DUP4 SLOAD DIV MUL DUP4 MSTORE SWAP2 PUSH1 0x20 ADD SWAP2 PUSH2 0x246B JUMP JUMPDEST DUP3 ADD SWAP2 SWAP1 PUSH1 0x0 MSTORE PUSH1 0x20 PUSH1 0x0 KECCAK256 SWAP1 JUMPDEST DUP2 SLOAD DUP2 MSTORE SWAP1 PUSH1 0x1 ADD SWAP1 PUSH1 0x20 ADD DUP1 DUP4 GT PUSH2 0x244E JUMPI DUP3 SWAP1 SUB PUSH1 0x1F AND DUP3 ADD SWAP2 JUMPDEST POP POP POP POP POP DUP2 MSTORE PUSH1 0x20 ADD PUSH1 0x2 DUP3 ADD DUP1 SLOAD PUSH2 0x2484 SWAP1 PUSH2 0x3A23 JUMP JUMPDEST DUP1 PUSH1 0x1F ADD PUSH1 0x20 DUP1 SWAP2 DIV MUL PUSH1 0x20 ADD PUSH1 0x40 MLOAD SWAP1 DUP2 ADD PUSH1 0x40 MSTORE DUP1 SWAP3 SWAP2 SWAP1 DUP2 DUP2 MSTORE PUSH1 0x20 ADD DUP3 DUP1 SLOAD PUSH2 0x24B0 SWAP1 PUSH2 0x3A23 JUMP JUMPDEST DUP1 ISZERO PUSH2 0x24FD JUMPI DUP1 PUSH1 0x1F LT PUSH2 0x24D2 JUMPI PUSH2 0x100 DUP1 DUP4 SLOAD DIV MUL DUP4 MSTORE SWAP2 PUSH1 0x20 ADD SWAP2 PUSH2 0x24FD JUMP JUMPDEST DUP3 ADD SWAP2 SWAP1 PUSH1 0x0 MSTORE PUSH1 0x20 PUSH1 0x0 KECCAK256 SWAP1 JUMPDEST DUP2 SLOAD DUP2 MSTORE SWAP1 PUSH1 0x1 ADD SWAP1 PUSH1 0x20 ADD DUP1 DUP4 GT PUSH2 0x24E0 JUMPI DUP3 SWAP1 SUB PUSH1 0x1F AND DUP3 ADD SWAP2 JUMPDEST POP POP POP POP POP DUP2 MSTORE PUSH1 0x20 ADD PUSH1 0x3 DUP3 ADD DUP1 SLOAD PUSH2 0x2516 SWAP1 PUSH2 0x3A23 JUMP JUMPDEST DUP1 PUSH1 0x1F ADD PUSH1 0x20 DUP1 SWAP2 DIV MUL PUSH1 0x20 ADD PUSH1 0x40 MLOAD SWAP1 DUP2 ADD PUSH1 0x40 MSTORE DUP1 SWAP3 SWAP2 SWAP1 DUP2 DUP2 MSTORE PUSH1 0x20 ADD DUP3 DUP1 SLOAD PUSH2 0x2542 SWAP1 PUSH2 0x3A23 JUMP JUMPDEST DUP1 ISZERO PUSH2 0x258F JUMPI DUP1 PUSH1 0x1F LT PUSH2 0x2564 JUMPI PUSH2 0x100 DUP1 DUP4 SLOAD DIV MUL DUP4 MSTORE SWAP2 PUSH1 0x20 ADD SWAP2 PUSH2 0x258F JUMP JUMPDEST DUP3 ADD SWAP2 SWAP1 PUSH1 0x0 MSTORE PUSH1 0x20 PUSH1 0x0 KECCAK256 SWAP1 JUMPDEST DUP2 SLOAD DUP2 MSTORE SWAP1 PUSH1 0x1 ADD SWAP1 PUSH1 0x20 ADD DUP1 DUP4 GT PUSH2 0x2572 JUMPI DUP3 SWAP1 SUB PUSH1 0x1F AND DUP3 ADD SWAP2 JUMPDEST POP POP POP POP POP DUP2 MSTORE PUSH1 0x20 ADD PUSH1 0x4 DUP3 ADD PUSH1 0x0 SWAP1 SLOAD SWAP1 PUSH2 0x100 EXP SWAP1 DIV PUSH20 0xFFFFFFFFFFFFFFFFFFFFFFFFFFFFFFFFFFFFFFFF AND PUSH20 0xFFFFFFFFFFFFFFFFFFFFFFFFFFFFFFFFFFFFFFFF AND PUSH20 0xFFFFFFFFFFFFFFFFFFFFFFFFFFFFFFFFFFFFFFFF AND DUP2 MSTORE PUSH1 0x20 ADD PUSH1 0x5 DUP3 ADD SLOAD DUP2 MSTORE PUSH1 0x20 ADD PUSH1 0x6 DUP3 ADD SLOAD DUP2 MSTORE PUSH1 0x20 ADD PUSH1 0x7 DUP3 ADD SLOAD DUP2 MSTORE PUSH1 0x20 ADD PUSH1 0x8 DUP3 ADD SLOAD DUP2 MSTORE PUSH1 0x20 ADD PUSH1 0x9 DUP3 ADD SLOAD DUP2 MSTORE PUSH1 0x20 ADD PUSH1 0xA DUP3 ADD DUP1 SLOAD PUSH2 0x2630 SWAP1 PUSH2 0x3A23 JUMP JUMPDEST DUP1 PUSH1 0x1F ADD PUSH1 0x20 DUP1 SWAP2 DIV MUL PUSH1 0x20 ADD PUSH1 0x40 MLOAD SWAP1 DUP2 ADD PUSH1 0x40 MSTORE DUP1 SWAP3 SWAP2 SWAP1 DUP2 DUP2 MSTORE PUSH1 0x20 ADD DUP3 DUP1 SLOAD PUSH2 0x265C SWAP1 PUSH2 0x3A23 JUMP JUMPDEST DUP1 ISZERO PUSH2 0x26A9 JUMPI DUP1 PUSH1 0x1F LT PUSH2 0x267E JUMPI PUSH2 0x100 DUP1 DUP4 SLOAD DIV MUL DUP4 MSTORE SWAP2 PUSH1 0x20 ADD SWAP2 PUSH2 0x26A9 JUMP JUMPDEST DUP3 ADD SWAP2 SWAP1 PUSH1 0x0 MSTORE PUSH1 0x20 PUSH1 0x0 KECCAK256 SWAP1 JUMPDEST DUP2 SLOAD DUP2 MSTORE SWAP1 PUSH1 0x1 ADD SWAP1 PUSH1 0x20 ADD DUP1 DUP4 GT PUSH2 0x268C JUMPI DUP3 SWAP1 SUB PUSH1 0x1F AND DUP3 ADD SWAP2 JUMPDEST POP POP POP POP POP DUP2 MSTORE PUSH1 0x20 ADD PUSH1 0xB DUP3 ADD PUSH1 0x0 SWAP1 SLOAD SWAP1 PUSH2 0x100 EXP SWAP1 DIV PUSH1 0xFF AND ISZERO ISZERO ISZERO ISZERO DUP2 MSTORE POP POP DUP3 DUP3 DUP2 MLOAD DUP2 LT PUSH2 0x26E0 JUMPI PUSH2 0x26DF PUSH2 0x3B5C JUMP JUMPDEST JUMPDEST PUSH1 0x20 MUL PUSH1 0x20 ADD ADD DUP2 SWAP1 MSTORE POP DUP1 DUP1 PUSH2 0x26F6 SWAP1 PUSH2 0x3A86 JUMP JUMPDEST SWAP2 POP POP PUSH2 0x23A3 JUMP JUMPDEST POP DUP1 SWAP2 POP POP SWAP1 JUMP JUMPDEST PUSH1 0x3 PUSH1 0x0 SWAP1 SLOAD SWAP1 PUSH2 0x100 EXP SWAP1 DIV PUSH20 0xFFFFFFFFFFFFFFFFFFFFFFFFFFFFFFFFFFFFFFFF AND DUP2 JUMP JUMPDEST PUSH1 0x9 SLOAD DUP2 JUMP JUMPDEST PUSH1 0xB PUSH1 0x20 MSTORE DUP1 PUSH1 0x0 MSTORE PUSH1 0x40 PUSH1 0x0 KECCAK256 PUSH1 0x0 SWAP2 POP SLOAD SWAP1 PUSH2 0x100 EXP SWAP1 DIV PUSH1 0xFF AND DUP2 JUMP JUMPDEST PUSH2 0x275A PUSH2 0x285F JUMP JUMPDEST PUSH1 0x0 PUSH20 0xFFFFFFFFFFFFFFFFFFFFFFFFFFFFFFFFFFFFFFFF AND DUP2 PUSH20 0xFFFFFFFFFFFFFFFFFFFFFFFFFFFFFFFFFFFFFFFF AND EQ ISZERO PUSH2 0x27CA JUMPI PUSH1 0x40 MLOAD PUSH32 0x8C379A000000000000000000000000000000000000000000000000000000000 DUP2 MSTORE PUSH1 0x4 ADD PUSH2 0x27C1 SWAP1 PUSH2 0x34E3 JUMP JUMPDEST PUSH1 0x40 MLOAD DUP1 SWAP2 SUB SWAP1 REVERT JUMPDEST PUSH2 0x27D3 DUP2 PUSH2 0x28DD JUMP JUMPDEST POP JUMP JUMPDEST PUSH1 0xE DUP1 PUSH1 0x0 ADD SLOAD SWAP1 DUP1 PUSH1 0x1 ADD SLOAD SWAP1 DUP1 PUSH1 0x2 ADD SLOAD SWAP1 DUP1 PUSH1 0x3 ADD SLOAD SWAP1 DUP1 PUSH1 0x4 ADD SLOAD SWAP1 POP DUP6 JUMP JUMPDEST PUSH1 0x40 MLOAD DUP1 PUSH1 0xA0 ADD PUSH1 0x40 MSTORE DUP1 DUP7 DUP2 MSTORE PUSH1 0x20 ADD DUP6 DUP2 MSTORE PUSH1 0x20 ADD DUP5 DUP2 MSTORE PUSH1 0x20 ADD DUP4 DUP2 MSTORE PUSH1 0x20 ADD DUP3 DUP2 MSTORE POP PUSH1 0xE PUSH1 0x0 DUP3 ADD MLOAD DUP2 PUSH1 0x0 ADD SSTORE PUSH1 0x20 DUP3 ADD MLOAD DUP2 PUSH1 0x1 ADD SSTORE PUSH1 0x40 DUP3 ADD MLOAD DUP2 PUSH1 0x2 ADD SSTORE PUSH1 0x60 DUP3 ADD MLOAD DUP2 PUSH1 0x3 ADD SSTORE PUSH1 0x80 DUP3 ADD MLOAD DUP2 PUSH1 0x4 ADD SSTORE SWAP1 POP POP POP POP POP POP POP JUMP JUMPDEST PUSH2 0x2867 PUSH2 0x29A1 JUMP JUMPDEST PUSH20 0xFFFFFFFFFFFFFFFFFFFFFFFFFFFFFFFFFFFFFFFF AND PUSH2 0x2885 PUSH2 0x1DB8 JUMP JUMPDEST PUSH20 0xFFFFFFFFFFFFFFFFFFFFFFFFFFFFFFFFFFFFFFFF AND EQ PUSH2 0x28DB JUMPI PUSH1 0x40 MLOAD PUSH32 0x8C379A000000000000000000000000000000000000000000000000000000000 DUP2 MSTORE PUSH1 0x4 ADD PUSH2 0x28D2 SWAP1 PUSH2 0x35A3 JUMP JUMPDEST PUSH1 0x40 MLOAD DUP1 SWAP2 SUB SWAP1 REVERT JUMPDEST JUMP JUMPDEST PUSH1 0x0 DUP1 PUSH1 0x0 SWAP1 SLOAD SWAP1 PUSH2 0x100 EXP SWAP1 DIV PUSH20 0xFFFFFFFFFFFFFFFFFFFFFFFFFFFFFFFFFFFFFFFF AND SWAP1 POP DUP2 PUSH1 0x0 DUP1 PUSH2 0x100 EXP DUP2 SLOAD DUP2 PUSH20 0xFFFFFFFFFFFFFFFFFFFFFFFFFFFFFFFFFFFFFFFF MUL NOT AND SWAP1 DUP4 PUSH20 0xFFFFFFFFFFFFFFFFFFFFFFFFFFFFFFFFFFFFFFFF AND MUL OR SWAP1 SSTORE POP DUP2 PUSH20 0xFFFFFFFFFFFFFFFFFFFFFFFFFFFFFFFFFFFFFFFF AND DUP2 PUSH20 0xFFFFFFFFFFFFFFFFFFFFFFFFFFFFFFFFFFFFFFFF AND PUSH32 0x8BE0079C531659141344CD1FD0A4F28419497F9722A3DAAFE3B4186F6B6457E0 PUSH1 0x40 MLOAD PUSH1 0x40 MLOAD DUP1 SWAP2 SUB SWAP1 LOG3 POP POP JUMP JUMPDEST PUSH1 0x0 CALLER SWAP1 POP SWAP1 JUMP JUMPDEST DUP3 DUP1 SLOAD PUSH2 0x29B5 SWAP1 PUSH2 0x3A23 JUMP JUMPDEST SWAP1 PUSH1 0x0 MSTORE PUSH1 0x20 PUSH1 0x0 KECCAK256 SWAP1 PUSH1 0x1F ADD PUSH1 0x20 SWAP1 DIV DUP2 ADD SWAP3 DUP3 PUSH2 0x29D7 JUMPI PUSH1 0x0 DUP6 SSTORE PUSH2 0x2A1E JUMP JUMPDEST DUP3 PUSH1 0x1F LT PUSH2 0x29F0 JUMPI DUP1 MLOAD PUSH1 0xFF NOT AND DUP4 DUP1 ADD OR DUP6 SSTORE PUSH2 0x2A1E JUMP JUMPDEST DUP3 DUP1 ADD PUSH1 0x1 ADD DUP6 SSTORE DUP3 ISZERO PUSH2 0x2A1E JUMPI SWAP2 DUP3 ADD JUMPDEST DUP3 DUP2 GT ISZERO PUSH2 0x2A1D JUMPI DUP3 MLOAD DUP3 SSTORE SWAP2 PUSH1 0x20 ADD SWAP2 SWAP1 PUSH1 0x1 ADD SWAP1 PUSH2 0x2A02 JUMP JUMPDEST JUMPDEST POP SWAP1 POP PUSH2 0x2A2B SWAP2 SWAP1 PUSH2 0x2AD7 JUMP JUMPDEST POP SWAP1 JUMP JUMPDEST PUSH1 0x40 MLOAD DUP1 PUSH1 0xA0 ADD PUSH1 0x40 MSTORE DUP1 PUSH1 0x0 DUP2 MSTORE PUSH1 0x20 ADD PUSH1 0x0 DUP2 MSTORE PUSH1 0x20 ADD PUSH1 0x0 DUP2 MSTORE PUSH1 0x20 ADD PUSH1 0x0 DUP2 MSTORE PUSH1 0x20 ADD PUSH1 0x0 DUP2 MSTORE POP SWAP1 JUMP JUMPDEST PUSH1 0x40 MLOAD DUP1 PUSH2 0x180 ADD PUSH1 0x40 MSTORE DUP1 PUSH1 0x0 DUP2 MSTORE PUSH1 0x20 ADD PUSH1 0x60 DUP2 MSTORE PUSH1 0x20 ADD PUSH1 0x60 DUP2 MSTORE PUSH1 0x20 ADD PUSH1 0x60 DUP2 MSTORE PUSH1 0x20 ADD PUSH1 0x0 PUSH20 0xFFFFFFFFFFFFFFFFFFFFFFFFFFFFFFFFFFFFFFFF AND DUP2 MSTORE PUSH1 0x20 ADD PUSH1 0x0 DUP2 MSTORE PUSH1 0x20 ADD PUSH1 0x0 DUP2 MSTORE PUSH1 0x20 ADD PUSH1 0x0 DUP2 MSTORE PUSH1 0x20 ADD PUSH1 0x0 DUP2 MSTORE PUSH1 0x20 ADD PUSH1 0x0 DUP2 MSTORE PUSH1 0x20 ADD PUSH1 0x60 DUP2 MSTORE PUSH1 0x20 ADD PUSH1 0x0 ISZERO ISZERO DUP2 MSTORE POP SWAP1 JUMP JUMPDEST JUMPDEST DUP1 DUP3 GT ISZERO PUSH2 0x2AF0 JUMPI PUSH1 0x0 DUP2 PUSH1 0x0 SWAP1 SSTORE POP PUSH1 0x1 ADD PUSH2 0x2AD8 JUMP JUMPDEST POP SWAP1 JUMP JUMPDEST PUSH1 0x0 PUSH2 0x2B07 PUSH2 0x2B02 DUP5 PUSH2 0x37C7 JUMP JUMPDEST PUSH2 0x37A2 JUMP JUMPDEST SWAP1 POP DUP3 DUP2 MSTORE PUSH1 0x20 DUP2 ADD DUP5 DUP5 DUP5 ADD GT ISZERO PUSH2 0x2B23 JUMPI PUSH2 0x2B22 PUSH2 0x3BBF JUMP JUMPDEST JUMPDEST PUSH2 0x2B2E DUP5 DUP3 DUP6 PUSH2 0x39E1 JUMP JUMPDEST POP SWAP4 SWAP3 POP POP POP JUMP JUMPDEST PUSH1 0x0 DUP2 CALLDATALOAD SWAP1 POP PUSH2 0x2B45 DUP2 PUSH2 0x3F27 JUMP JUMPDEST SWAP3 SWAP2 POP POP JUMP JUMPDEST PUSH1 0x0 DUP2 MLOAD SWAP1 POP PUSH2 0x2B5A DUP2 PUSH2 0x3F27 JUMP JUMPDEST SWAP3 SWAP2 POP POP JUMP JUMPDEST PUSH1 0x0 DUP2 MLOAD SWAP1 POP PUSH2 0x2B6F DUP2 PUSH2 0x3F3E JUMP JUMPDEST SWAP3 SWAP2 POP POP JUMP JUMPDEST PUSH1 0x0 DUP3 PUSH1 0x1F DUP4 ADD SLT PUSH2 0x2B8A JUMPI PUSH2 0x2B89 PUSH2 0x3BBA JUMP JUMPDEST JUMPDEST DUP2 CALLDATALOAD PUSH2 0x2B9A DUP5 DUP3 PUSH1 0x20 DUP7 ADD PUSH2 0x2AF4 JUMP JUMPDEST SWAP2 POP POP SWAP3 SWAP2 POP POP JUMP JUMPDEST PUSH1 0x0 DUP2 CALLDATALOAD SWAP1 POP PUSH2 0x2BB2 DUP2 PUSH2 0x3F55 JUMP JUMPDEST SWAP3 SWAP2 POP POP JUMP JUMPDEST PUSH1 0x0 DUP2 MLOAD SWAP1 POP PUSH2 0x2BC7 DUP2 PUSH2 0x3F55 JUMP JUMPDEST SWAP3 SWAP2 POP POP JUMP JUMPDEST PUSH1 0x0 PUSH1 0x20 DUP3 DUP5 SUB SLT ISZERO PUSH2 0x2BE3 JUMPI PUSH2 0x2BE2 PUSH2 0x3BC9 JUMP JUMPDEST JUMPDEST PUSH1 0x0 PUSH2 0x2BF1 DUP5 DUP3 DUP6 ADD PUSH2 0x2B36 JUMP JUMPDEST SWAP2 POP POP SWAP3 SWAP2 POP POP JUMP JUMPDEST PUSH1 0x0 PUSH1 0x20 DUP3 DUP5 SUB SLT ISZERO PUSH2 0x2C10 JUMPI PUSH2 0x2C0F PUSH2 0x3BC9 JUMP JUMPDEST JUMPDEST PUSH1 0x0 PUSH2 0x2C1E DUP5 DUP3 DUP6 ADD PUSH2 0x2B4B JUMP JUMPDEST SWAP2 POP POP SWAP3 SWAP2 POP POP JUMP JUMPDEST PUSH1 0x0 DUP1 PUSH1 0x40 DUP4 DUP6 SUB SLT ISZERO PUSH2 0x2C3E JUMPI PUSH2 0x2C3D PUSH2 0x3BC9 JUMP JUMPDEST JUMPDEST PUSH1 0x0 PUSH2 0x2C4C DUP6 DUP3 DUP7 ADD PUSH2 0x2B36 JUMP JUMPDEST SWAP3 POP POP PUSH1 0x20 PUSH2 0x2C5D DUP6 DUP3 DUP7 ADD PUSH2 0x2BA3 JUMP JUMPDEST SWAP2 POP POP SWAP3 POP SWAP3 SWAP1 POP JUMP JUMPDEST PUSH1 0x0 PUSH1 0x20 DUP3 DUP5 SUB SLT ISZERO PUSH2 0x2C7D JUMPI PUSH2 0x2C7C PUSH2 0x3BC9 JUMP JUMPDEST JUMPDEST PUSH1 0x0 PUSH2 0x2C8B DUP5 DUP3 DUP6 ADD PUSH2 0x2B60 JUMP JUMPDEST SWAP2 POP POP SWAP3 SWAP2 POP POP JUMP JUMPDEST PUSH1 0x0 DUP1 PUSH1 0x0 DUP1 PUSH1 0x80 DUP6 DUP8 SUB SLT ISZERO PUSH2 0x2CAE JUMPI PUSH2 0x2CAD PUSH2 0x3BC9 JUMP JUMPDEST JUMPDEST PUSH1 0x0 DUP6 ADD CALLDATALOAD PUSH8 0xFFFFFFFFFFFFFFFF DUP2 GT ISZERO PUSH2 0x2CCC JUMPI PUSH2 0x2CCB PUSH2 0x3BC4 JUMP JUMPDEST JUMPDEST PUSH2 0x2CD8 DUP8 DUP3 DUP9 ADD PUSH2 0x2B75 JUMP JUMPDEST SWAP5 POP POP PUSH1 0x20 DUP6 ADD CALLDATALOAD PUSH8 0xFFFFFFFFFFFFFFFF DUP2 GT ISZERO PUSH2 0x2CF9 JUMPI PUSH2 0x2CF8 PUSH2 0x3BC4 JUMP JUMPDEST JUMPDEST PUSH2 0x2D05 DUP8 DUP3 DUP9 ADD PUSH2 0x2B75 JUMP JUMPDEST SWAP4 POP POP PUSH1 0x40 DUP6 ADD CALLDATALOAD PUSH8 0xFFFFFFFFFFFFFFFF DUP2 GT ISZERO PUSH2 0x2D26 JUMPI PUSH2 0x2D25 PUSH2 0x3BC4 JUMP JUMPDEST JUMPDEST PUSH2 0x2D32 DUP8 DUP3 DUP9 ADD PUSH2 0x2B75 JUMP JUMPDEST SWAP3 POP POP PUSH1 0x60 PUSH2 0x2D43 DUP8 DUP3 DUP9 ADD PUSH2 0x2BA3 JUMP JUMPDEST SWAP2 POP POP SWAP3 SWAP6 SWAP2 SWAP5 POP SWAP3 POP JUMP JUMPDEST PUSH1 0x0 PUSH1 0x20 DUP3 DUP5 SUB SLT ISZERO PUSH2 0x2D65 JUMPI PUSH2 0x2D64 PUSH2 0x3BC9 JUMP JUMPDEST JUMPDEST PUSH1 0x0 PUSH2 0x2D73 DUP5 DUP3 DUP6 ADD PUSH2 0x2BA3 JUMP JUMPDEST SWAP2 POP POP SWAP3 SWAP2 POP POP JUMP JUMPDEST PUSH1 0x0 PUSH1 0x20 DUP3 DUP5 SUB SLT ISZERO PUSH2 0x2D92 JUMPI PUSH2 0x2D91 PUSH2 0x3BC9 JUMP JUMPDEST JUMPDEST PUSH1 0x0 PUSH2 0x2DA0 DUP5 DUP3 DUP6 ADD PUSH2 0x2BB8 JUMP JUMPDEST SWAP2 POP POP SWAP3 SWAP2 POP POP JUMP JUMPDEST PUSH1 0x0 DUP1 PUSH1 0x40 DUP4 DUP6 SUB SLT ISZERO PUSH2 0x2DC0 JUMPI PUSH2 0x2DBF PUSH2 0x3BC9 JUMP JUMPDEST JUMPDEST PUSH1 0x0 PUSH2 0x2DCE DUP6 DUP3 DUP7 ADD PUSH2 0x2BA3 JUMP JUMPDEST SWAP3 POP POP PUSH1 0x20 PUSH2 0x2DDF DUP6 DUP3 DUP7 ADD PUSH2 0x2BA3 JUMP JUMPDEST SWAP2 POP POP SWAP3 POP SWAP3 SWAP1 POP JUMP JUMPDEST PUSH1 0x0 DUP1 PUSH1 0x0 DUP1 PUSH1 0x0 PUSH1 0xA0 DUP7 DUP9 SUB SLT ISZERO PUSH2 0x2E05 JUMPI PUSH2 0x2E04 PUSH2 0x3BC9 JUMP JUMPDEST JUMPDEST PUSH1 0x0 PUSH2 0x2E13 DUP9 DUP3 DUP10 ADD PUSH2 0x2BA3 JUMP JUMPDEST SWAP6 POP POP PUSH1 0x20 PUSH2 0x2E24 DUP9 DUP3 DUP10 ADD PUSH2 0x2BA3 JUMP JUMPDEST SWAP5 POP POP PUSH1 0x40 PUSH2 0x2E35 DUP9 DUP3 DUP10 ADD PUSH2 0x2BA3 JUMP JUMPDEST SWAP4 POP POP PUSH1 0x60 PUSH2 0x2E46 DUP9 DUP3 DUP10 ADD PUSH2 0x2BA3 JUMP JUMPDEST SWAP3 POP POP PUSH1 0x80 PUSH2 0x2E57 DUP9 DUP3 DUP10 ADD PUSH2 0x2BA3 JUMP JUMPDEST SWAP2 POP POP SWAP3 SWAP6 POP SWAP3 SWAP6 SWAP1 SWAP4 POP JUMP JUMPDEST PUSH1 0x0 PUSH2 0x2E70 DUP4 DUP4 PUSH2 0x31B2 JUMP JUMPDEST SWAP1 POP SWAP3 SWAP2 POP POP JUMP JUMPDEST PUSH2 0x2E81 DUP2 PUSH2 0x393F JUMP JUMPDEST DUP3 MSTORE POP POP JUMP JUMPDEST PUSH2 0x2E90 DUP2 PUSH2 0x393F JUMP JUMPDEST DUP3 MSTORE POP POP JUMP JUMPDEST PUSH1 0x0 PUSH2 0x2EA1 DUP3 PUSH2 0x3808 JUMP JUMPDEST PUSH2 0x2EAB DUP2 DUP6 PUSH2 0x382B JUMP JUMPDEST SWAP4 POP DUP4 PUSH1 0x20 DUP3 MUL DUP6 ADD PUSH2 0x2EBD DUP6 PUSH2 0x37F8 JUMP JUMPDEST DUP1 PUSH1 0x0 JUMPDEST DUP6 DUP2 LT ISZERO PUSH2 0x2EF9 JUMPI DUP5 DUP5 SUB DUP10 MSTORE DUP2 MLOAD PUSH2 0x2EDA DUP6 DUP3 PUSH2 0x2E64 JUMP JUMPDEST SWAP5 POP PUSH2 0x2EE5 DUP4 PUSH2 0x381E JUMP JUMPDEST SWAP3 POP PUSH1 0x20 DUP11 ADD SWAP10 POP POP PUSH1 0x1 DUP2 ADD SWAP1 POP PUSH2 0x2EC1 JUMP JUMPDEST POP DUP3 SWAP8 POP DUP8 SWAP6 POP POP POP POP POP POP SWAP3 SWAP2 POP POP JUMP JUMPDEST PUSH2 0x2F14 DUP2 PUSH2 0x3951 JUMP JUMPDEST DUP3 MSTORE POP POP JUMP JUMPDEST PUSH2 0x2F23 DUP2 PUSH2 0x3951 JUMP JUMPDEST DUP3 MSTORE POP POP JUMP JUMPDEST PUSH2 0x2F32 DUP2 PUSH2 0x3987 JUMP JUMPDEST DUP3 MSTORE POP POP JUMP JUMPDEST PUSH2 0x2F41 DUP2 PUSH2 0x3999 JUMP JUMPDEST DUP3 MSTORE POP POP JUMP JUMPDEST PUSH2 0x2F50 DUP2 PUSH2 0x39AB JUMP JUMPDEST DUP3 MSTORE POP POP JUMP JUMPDEST PUSH1 0x0 PUSH2 0x2F61 DUP3 PUSH2 0x3813 JUMP JUMPDEST PUSH2 0x2F6B DUP2 DUP6 PUSH2 0x383C JUMP JUMPDEST SWAP4 POP PUSH2 0x2F7B DUP2 DUP6 PUSH1 0x20 DUP7 ADD PUSH2 0x39F0 JUMP JUMPDEST PUSH2 0x2F84 DUP2 PUSH2 0x3BCE JUMP JUMPDEST DUP5 ADD SWAP2 POP POP SWAP3 SWAP2 POP POP JUMP JUMPDEST PUSH1 0x0 PUSH2 0x2F9A DUP3 PUSH2 0x3813 JUMP JUMPDEST PUSH2 0x2FA4 DUP2 DUP6 PUSH2 0x384D JUMP JUMPDEST SWAP4 POP PUSH2 0x2FB4 DUP2 DUP6 PUSH1 0x20 DUP7 ADD PUSH2 0x39F0 JUMP JUMPDEST PUSH2 0x2FBD DUP2 PUSH2 0x3BCE JUMP JUMPDEST DUP5 ADD SWAP2 POP POP SWAP3 SWAP2 POP POP JUMP JUMPDEST PUSH1 0x0 PUSH2 0x2FD5 PUSH1 0x16 DUP4 PUSH2 0x384D JUMP JUMPDEST SWAP2 POP PUSH2 0x2FE0 DUP3 PUSH2 0x3BDF JUMP JUMPDEST PUSH1 0x20 DUP3 ADD SWAP1 POP SWAP2 SWAP1 POP JUMP JUMPDEST PUSH1 0x0 PUSH2 0x2FF8 PUSH1 0xD DUP4 PUSH2 0x384D JUMP JUMPDEST SWAP2 POP PUSH2 0x3003 DUP3 PUSH2 0x3C08 JUMP JUMPDEST PUSH1 0x20 DUP3 ADD SWAP1 POP SWAP2 SWAP1 POP JUMP JUMPDEST PUSH1 0x0 PUSH2 0x301B PUSH1 0x24 DUP4 PUSH2 0x384D JUMP JUMPDEST SWAP2 POP PUSH2 0x3026 DUP3 PUSH2 0x3C31 JUMP JUMPDEST PUSH1 0x40 DUP3 ADD SWAP1 POP SWAP2 SWAP1 POP JUMP JUMPDEST PUSH1 0x0 PUSH2 0x303E PUSH1 0x26 DUP4 PUSH2 0x384D JUMP JUMPDEST SWAP2 POP PUSH2 0x3049 DUP3 PUSH2 0x3C80 JUMP JUMPDEST PUSH1 0x40 DUP3 ADD SWAP1 POP SWAP2 SWAP1 POP JUMP JUMPDEST PUSH1 0x0 PUSH2 0x3061 PUSH1 0x33 DUP4 PUSH2 0x384D JUMP JUMPDEST SWAP2 POP PUSH2 0x306C DUP3 PUSH2 0x3CCF JUMP JUMPDEST PUSH1 0x40 DUP3 ADD SWAP1 POP SWAP2 SWAP1 POP JUMP JUMPDEST PUSH1 0x0 PUSH2 0x3084 PUSH1 0x18 DUP4 PUSH2 0x384D JUMP JUMPDEST SWAP2 POP PUSH2 0x308F DUP3 PUSH2 0x3D1E JUMP JUMPDEST PUSH1 0x20 DUP3 ADD SWAP1 POP SWAP2 SWAP1 POP JUMP JUMPDEST PUSH1 0x0 PUSH2 0x30A7 PUSH1 0x1A DUP4 PUSH2 0x384D JUMP JUMPDEST SWAP2 POP PUSH2 0x30B2 DUP3 PUSH2 0x3D47 JUMP JUMPDEST PUSH1 0x20 DUP3 ADD SWAP1 POP SWAP2 SWAP1 POP JUMP JUMPDEST PUSH1 0x0 PUSH2 0x30CA PUSH1 0x10 DUP4 PUSH2 0x384D JUMP JUMPDEST SWAP2 POP PUSH2 0x30D5 DUP3 PUSH2 0x3D70 JUMP JUMPDEST PUSH1 0x20 DUP3 ADD SWAP1 POP SWAP2 SWAP1 POP JUMP JUMPDEST PUSH1 0x0 PUSH2 0x30ED PUSH1 0x34 DUP4 PUSH2 0x384D JUMP JUMPDEST SWAP2 POP PUSH2 0x30F8 DUP3 PUSH2 0x3D99 JUMP JUMPDEST PUSH1 0x40 DUP3 ADD SWAP1 POP SWAP2 SWAP1 POP JUMP JUMPDEST PUSH1 0x0 PUSH2 0x3110 PUSH1 0x20 DUP4 PUSH2 0x384D JUMP JUMPDEST SWAP2 POP PUSH2 0x311B DUP3 PUSH2 0x3DE8 JUMP JUMPDEST PUSH1 0x20 DUP3 ADD SWAP1 POP SWAP2 SWAP1 POP JUMP JUMPDEST PUSH1 0x0 PUSH2 0x3133 PUSH1 0x1F DUP4 PUSH2 0x384D JUMP JUMPDEST SWAP2 POP PUSH2 0x313E DUP3 PUSH2 0x3E11 JUMP JUMPDEST PUSH1 0x20 DUP3 ADD SWAP1 POP SWAP2 SWAP1 POP JUMP JUMPDEST PUSH1 0x0 PUSH2 0x3156 PUSH1 0x2D DUP4 PUSH2 0x384D JUMP JUMPDEST SWAP2 POP PUSH2 0x3161 DUP3 PUSH2 0x3E3A JUMP JUMPDEST PUSH1 0x40 DUP3 ADD SWAP1 POP SWAP2 SWAP1 POP JUMP JUMPDEST PUSH1 0x0 PUSH2 0x3179 PUSH1 0x26 DUP4 PUSH2 0x384D JUMP JUMPDEST SWAP2 POP PUSH2 0x3184 DUP3 PUSH2 0x3E89 JUMP JUMPDEST PUSH1 0x40 DUP3 ADD SWAP1 POP SWAP2 SWAP1 POP JUMP JUMPDEST PUSH1 0x0 PUSH2 0x319C PUSH1 0x29 DUP4 PUSH2 0x384D JUMP JUMPDEST SWAP2 POP PUSH2 0x31A7 DUP3 PUSH2 0x3ED8 JUMP JUMPDEST PUSH1 0x40 DUP3 ADD SWAP1 POP SWAP2 SWAP1 POP JUMP JUMPDEST PUSH1 0x0 PUSH2 0x180 DUP4 ADD PUSH1 0x0 DUP4 ADD MLOAD PUSH2 0x31CB PUSH1 0x0 DUP7 ADD DUP3 PUSH2 0x3333 JUMP JUMPDEST POP PUSH1 0x20 DUP4 ADD MLOAD DUP5 DUP3 SUB PUSH1 0x20 DUP7 ADD MSTORE PUSH2 0x31E3 DUP3 DUP3 PUSH2 0x2F56 JUMP JUMPDEST SWAP2 POP POP PUSH1 0x40 DUP4 ADD MLOAD DUP5 DUP3 SUB PUSH1 0x40 DUP7 ADD MSTORE PUSH2 0x31FD DUP3 DUP3 PUSH2 0x2F56 JUMP JUMPDEST SWAP2 POP POP PUSH1 0x60 DUP4 ADD MLOAD DUP5 DUP3 SUB PUSH1 0x60 DUP7 ADD MSTORE PUSH2 0x3217 DUP3 DUP3 PUSH2 0x2F56 JUMP JUMPDEST SWAP2 POP POP PUSH1 0x80 DUP4 ADD MLOAD PUSH2 0x322C PUSH1 0x80 DUP7 ADD DUP3 PUSH2 0x2E78 JUMP JUMPDEST POP PUSH1 0xA0 DUP4 ADD MLOAD PUSH2 0x323F PUSH1 0xA0 DUP7 ADD DUP3 PUSH2 0x3333 JUMP JUMPDEST POP PUSH1 0xC0 DUP4 ADD MLOAD PUSH2 0x3252 PUSH1 0xC0 DUP7 ADD DUP3 PUSH2 0x3333 JUMP JUMPDEST POP PUSH1 0xE0 DUP4 ADD MLOAD PUSH2 0x3265 PUSH1 0xE0 DUP7 ADD DUP3 PUSH2 0x3333 JUMP JUMPDEST POP PUSH2 0x100 DUP4 ADD MLOAD PUSH2 0x327A PUSH2 0x100 DUP7 ADD DUP3 PUSH2 0x3333 JUMP JUMPDEST POP PUSH2 0x120 DUP4 ADD MLOAD PUSH2 0x328F PUSH2 0x120 DUP7 ADD DUP3 PUSH2 0x3333 JUMP JUMPDEST POP PUSH2 0x140 DUP4 ADD MLOAD DUP5 DUP3 SUB PUSH2 0x140 DUP7 ADD MSTORE PUSH2 0x32A9 DUP3 DUP3 PUSH2 0x2F56 JUMP JUMPDEST SWAP2 POP POP PUSH2 0x160 DUP4 ADD MLOAD PUSH2 0x32C0 PUSH2 0x160 DUP7 ADD DUP3 PUSH2 0x2F0B JUMP JUMPDEST POP DUP1 SWAP2 POP POP SWAP3 SWAP2 POP POP JUMP JUMPDEST PUSH1 0xA0 DUP3 ADD PUSH1 0x0 DUP3 ADD MLOAD PUSH2 0x32E1 PUSH1 0x0 DUP6 ADD DUP3 PUSH2 0x3333 JUMP JUMPDEST POP PUSH1 0x20 DUP3 ADD MLOAD PUSH2 0x32F4 PUSH1 0x20 DUP6 ADD DUP3 PUSH2 0x3333 JUMP JUMPDEST POP PUSH1 0x40 DUP3 ADD MLOAD PUSH2 0x3307 PUSH1 0x40 DUP6 ADD DUP3 PUSH2 0x3333 JUMP JUMPDEST POP PUSH1 0x60 DUP3 ADD MLOAD PUSH2 0x331A PUSH1 0x60 DUP6 ADD DUP3 PUSH2 0x3333 JUMP JUMPDEST POP PUSH1 0x80 DUP3 ADD MLOAD PUSH2 0x332D PUSH1 0x80 DUP6 ADD DUP3 PUSH2 0x3333 JUMP JUMPDEST POP POP POP POP JUMP JUMPDEST PUSH2 0x333C DUP2 PUSH2 0x397D JUMP JUMPDEST DUP3 MSTORE POP POP JUMP JUMPDEST PUSH2 0x334B DUP2 PUSH2 0x397D JUMP JUMPDEST DUP3 MSTORE POP POP JUMP JUMPDEST PUSH1 0x0 PUSH1 0x20 DUP3 ADD SWAP1 POP PUSH2 0x3366 PUSH1 0x0 DUP4 ADD DUP5 PUSH2 0x2E87 JUMP JUMPDEST SWAP3 SWAP2 POP POP JUMP JUMPDEST PUSH1 0x0 PUSH1 0x40 DUP3 ADD SWAP1 POP PUSH2 0x3381 PUSH1 0x0 DUP4 ADD DUP6 PUSH2 0x2E87 JUMP JUMPDEST PUSH2 0x338E PUSH1 0x20 DUP4 ADD DUP5 PUSH2 0x2E87 JUMP JUMPDEST SWAP4 SWAP3 POP POP POP JUMP JUMPDEST PUSH1 0x0 PUSH1 0x60 DUP3 ADD SWAP1 POP PUSH2 0x33AA PUSH1 0x0 DUP4 ADD DUP7 PUSH2 0x2E87 JUMP JUMPDEST PUSH2 0x33B7 PUSH1 0x20 DUP4 ADD DUP6 PUSH2 0x2E87 JUMP JUMPDEST PUSH2 0x33C4 PUSH1 0x40 DUP4 ADD DUP5 PUSH2 0x3342 JUMP JUMPDEST SWAP5 SWAP4 POP POP POP POP JUMP JUMPDEST PUSH1 0x0 PUSH1 0x40 DUP3 ADD SWAP1 POP PUSH2 0x33E1 PUSH1 0x0 DUP4 ADD DUP6 PUSH2 0x2E87 JUMP JUMPDEST PUSH2 0x33EE PUSH1 0x20 DUP4 ADD DUP5 PUSH2 0x3342 JUMP JUMPDEST SWAP4 SWAP3 POP POP POP JUMP JUMPDEST PUSH1 0x0 PUSH1 0x20 DUP3 ADD SWAP1 POP DUP2 DUP2 SUB PUSH1 0x0 DUP4 ADD MSTORE PUSH2 0x340F DUP2 DUP5 PUSH2 0x2E96 JUMP JUMPDEST SWAP1 POP SWAP3 SWAP2 POP POP JUMP JUMPDEST PUSH1 0x0 PUSH1 0x20 DUP3 ADD SWAP1 POP PUSH2 0x342C PUSH1 0x0 DUP4 ADD DUP5 PUSH2 0x2F1A JUMP JUMPDEST SWAP3 SWAP2 POP POP JUMP JUMPDEST PUSH1 0x0 PUSH1 0x20 DUP3 ADD SWAP1 POP PUSH2 0x3447 PUSH1 0x0 DUP4 ADD DUP5 PUSH2 0x2F29 JUMP JUMPDEST SWAP3 SWAP2 POP POP JUMP JUMPDEST PUSH1 0x0 PUSH1 0x20 DUP3 ADD SWAP1 POP PUSH2 0x3462 PUSH1 0x0 DUP4 ADD DUP5 PUSH2 0x2F38 JUMP JUMPDEST SWAP3 SWAP2 POP POP JUMP JUMPDEST PUSH1 0x0 PUSH1 0x20 DUP3 ADD SWAP1 POP PUSH2 0x347D PUSH1 0x0 DUP4 ADD DUP5 PUSH2 0x2F47 JUMP JUMPDEST SWAP3 SWAP2 POP POP JUMP JUMPDEST PUSH1 0x0 PUSH1 0x20 DUP3 ADD SWAP1 POP DUP2 DUP2 SUB PUSH1 0x0 DUP4 ADD MSTORE PUSH2 0x349C DUP2 PUSH2 0x2FC8 JUMP JUMPDEST SWAP1 POP SWAP2 SWAP1 POP JUMP JUMPDEST PUSH1 0x0 PUSH1 0x20 DUP3 ADD SWAP1 POP DUP2 DUP2 SUB PUSH1 0x0 DUP4 ADD MSTORE PUSH2 0x34BC DUP2 PUSH2 0x2FEB JUMP JUMPDEST SWAP1 POP SWAP2 SWAP1 POP JUMP JUMPDEST PUSH1 0x0 PUSH1 0x20 DUP3 ADD SWAP1 POP DUP2 DUP2 SUB PUSH1 0x0 DUP4 ADD MSTORE PUSH2 0x34DC DUP2 PUSH2 0x300E JUMP JUMPDEST SWAP1 POP SWAP2 SWAP1 POP JUMP JUMPDEST PUSH1 0x0 PUSH1 0x20 DUP3 ADD SWAP1 POP DUP2 DUP2 SUB PUSH1 0x0 DUP4 ADD MSTORE PUSH2 0x34FC DUP2 PUSH2 0x3031 JUMP JUMPDEST SWAP1 POP SWAP2 SWAP1 POP JUMP JUMPDEST PUSH1 0x0 PUSH1 0x20 DUP3 ADD SWAP1 POP DUP2 DUP2 SUB PUSH1 0x0 DUP4 ADD MSTORE PUSH2 0x351C DUP2 PUSH2 0x3054 JUMP JUMPDEST SWAP1 POP SWAP2 SWAP1 POP JUMP JUMPDEST PUSH1 0x0 PUSH1 0x20 DUP3 ADD SWAP1 POP DUP2 DUP2 SUB PUSH1 0x0 DUP4 ADD MSTORE PUSH2 0x353C DUP2 PUSH2 0x3077 JUMP JUMPDEST SWAP1 POP SWAP2 SWAP1 POP JUMP JUMPDEST PUSH1 0x0 PUSH1 0x20 DUP3 ADD SWAP1 POP DUP2 DUP2 SUB PUSH1 0x0 DUP4 ADD MSTORE PUSH2 0x355C DUP2 PUSH2 0x309A JUMP JUMPDEST SWAP1 POP SWAP2 SWAP1 POP JUMP JUMPDEST PUSH1 0x0 PUSH1 0x20 DUP3 ADD SWAP1 POP DUP2 DUP2 SUB PUSH1 0x0 DUP4 ADD MSTORE PUSH2 0x357C DUP2 PUSH2 0x30BD JUMP JUMPDEST SWAP1 POP SWAP2 SWAP1 POP JUMP JUMPDEST PUSH1 0x0 PUSH1 0x20 DUP3 ADD SWAP1 POP DUP2 DUP2 SUB PUSH1 0x0 DUP4 ADD MSTORE PUSH2 0x359C DUP2 PUSH2 0x30E0 JUMP JUMPDEST SWAP1 POP SWAP2 SWAP1 POP JUMP JUMPDEST PUSH1 0x0 PUSH1 0x20 DUP3 ADD SWAP1 POP DUP2 DUP2 SUB PUSH1 0x0 DUP4 ADD MSTORE PUSH2 0x35BC DUP2 PUSH2 0x3103 JUMP JUMPDEST SWAP1 POP SWAP2 SWAP1 POP JUMP JUMPDEST PUSH1 0x0 PUSH1 0x20 DUP3 ADD SWAP1 POP DUP2 DUP2 SUB PUSH1 0x0 DUP4 ADD MSTORE PUSH2 0x35DC DUP2 PUSH2 0x3126 JUMP JUMPDEST SWAP1 POP SWAP2 SWAP1 POP JUMP JUMPDEST PUSH1 0x0 PUSH1 0x20 DUP3 ADD SWAP1 POP DUP2 DUP2 SUB PUSH1 0x0 DUP4 ADD MSTORE PUSH2 0x35FC DUP2 PUSH2 0x3149 JUMP JUMPDEST SWAP1 POP SWAP2 SWAP1 POP JUMP JUMPDEST PUSH1 0x0 PUSH1 0x20 DUP3 ADD SWAP1 POP DUP2 DUP2 SUB PUSH1 0x0 DUP4 ADD MSTORE PUSH2 0x361C DUP2 PUSH2 0x316C JUMP JUMPDEST SWAP1 POP SWAP2 SWAP1 POP JUMP JUMPDEST PUSH1 0x0 PUSH1 0x20 DUP3 ADD SWAP1 POP DUP2 DUP2 SUB PUSH1 0x0 DUP4 ADD MSTORE PUSH2 0x363C DUP2 PUSH2 0x318F JUMP JUMPDEST SWAP1 POP SWAP2 SWAP1 POP JUMP JUMPDEST PUSH1 0x0 PUSH1 0xA0 DUP3 ADD SWAP1 POP PUSH2 0x3658 PUSH1 0x0 DUP4 ADD DUP5 PUSH2 0x32CB JUMP JUMPDEST SWAP3 SWAP2 POP POP JUMP JUMPDEST PUSH1 0x0 PUSH1 0x20 DUP3 ADD SWAP1 POP PUSH2 0x3673 PUSH1 0x0 DUP4 ADD DUP5 PUSH2 0x3342 JUMP JUMPDEST SWAP3 SWAP2 POP POP JUMP JUMPDEST PUSH1 0x0 PUSH2 0x180 DUP3 ADD SWAP1 POP PUSH2 0x368F PUSH1 0x0 DUP4 ADD DUP16 PUSH2 0x3342 JUMP JUMPDEST DUP2 DUP2 SUB PUSH1 0x20 DUP4 ADD MSTORE PUSH2 0x36A1 DUP2 DUP15 PUSH2 0x2F8F JUMP JUMPDEST SWAP1 POP DUP2 DUP2 SUB PUSH1 0x40 DUP4 ADD MSTORE PUSH2 0x36B5 DUP2 DUP14 PUSH2 0x2F8F JUMP JUMPDEST SWAP1 POP DUP2 DUP2 SUB PUSH1 0x60 DUP4 ADD MSTORE PUSH2 0x36C9 DUP2 DUP13 PUSH2 0x2F8F JUMP JUMPDEST SWAP1 POP PUSH2 0x36D8 PUSH1 0x80 DUP4 ADD DUP12 PUSH2 0x2E87 JUMP JUMPDEST PUSH2 0x36E5 PUSH1 0xA0 DUP4 ADD DUP11 PUSH2 0x3342 JUMP JUMPDEST PUSH2 0x36F2 PUSH1 0xC0 DUP4 ADD DUP10 PUSH2 0x3342 JUMP JUMPDEST PUSH2 0x36FF PUSH1 0xE0 DUP4 ADD DUP9 PUSH2 0x3342 JUMP JUMPDEST PUSH2 0x370D PUSH2 0x100 DUP4 ADD DUP8 PUSH2 0x3342 JUMP JUMPDEST PUSH2 0x371B PUSH2 0x120 DUP4 ADD DUP7 PUSH2 0x3342 JUMP JUMPDEST DUP2 DUP2 SUB PUSH2 0x140 DUP4 ADD MSTORE PUSH2 0x372E DUP2 DUP6 PUSH2 0x2F8F JUMP JUMPDEST SWAP1 POP PUSH2 0x373E PUSH2 0x160 DUP4 ADD DUP5 PUSH2 0x2F1A JUMP JUMPDEST SWAP14 SWAP13 POP POP POP POP POP POP POP POP POP POP POP POP POP JUMP JUMPDEST PUSH1 0x0 PUSH1 0xA0 DUP3 ADD SWAP1 POP PUSH2 0x3764 PUSH1 0x0 DUP4 ADD DUP9 PUSH2 0x3342 JUMP JUMPDEST PUSH2 0x3771 PUSH1 0x20 DUP4 ADD DUP8 PUSH2 0x3342 JUMP JUMPDEST PUSH2 0x377E PUSH1 0x40 DUP4 ADD DUP7 PUSH2 0x3342 JUMP JUMPDEST PUSH2 0x378B PUSH1 0x60 DUP4 ADD DUP6 PUSH2 0x3342 JUMP JUMPDEST PUSH2 0x3798 PUSH1 0x80 DUP4 ADD DUP5 PUSH2 0x3342 JUMP JUMPDEST SWAP7 SWAP6 POP POP POP POP POP POP JUMP JUMPDEST PUSH1 0x0 PUSH2 0x37AC PUSH2 0x37BD JUMP JUMPDEST SWAP1 POP PUSH2 0x37B8 DUP3 DUP3 PUSH2 0x3A55 JUMP JUMPDEST SWAP2 SWAP1 POP JUMP JUMPDEST PUSH1 0x0 PUSH1 0x40 MLOAD SWAP1 POP SWAP1 JUMP JUMPDEST PUSH1 0x0 PUSH8 0xFFFFFFFFFFFFFFFF DUP3 GT ISZERO PUSH2 0x37E2 JUMPI PUSH2 0x37E1 PUSH2 0x3B8B JUMP JUMPDEST JUMPDEST PUSH2 0x37EB DUP3 PUSH2 0x3BCE JUMP JUMPDEST SWAP1 POP PUSH1 0x20 DUP2 ADD SWAP1 POP SWAP2 SWAP1 POP JUMP JUMPDEST PUSH1 0x0 DUP2 SWAP1 POP PUSH1 0x20 DUP3 ADD SWAP1 POP SWAP2 SWAP1 POP JUMP JUMPDEST PUSH1 0x0 DUP2 MLOAD SWAP1 POP SWAP2 SWAP1 POP JUMP JUMPDEST PUSH1 0x0 DUP2 MLOAD SWAP1 POP SWAP2 SWAP1 POP JUMP JUMPDEST PUSH1 0x0 PUSH1 0x20 DUP3 ADD SWAP1 POP SWAP2 SWAP1 POP JUMP JUMPDEST PUSH1 0x0 DUP3 DUP3 MSTORE PUSH1 0x20 DUP3 ADD SWAP1 POP SWAP3 SWAP2 POP POP JUMP JUMPDEST PUSH1 0x0 DUP3 DUP3 MSTORE PUSH1 0x20 DUP3 ADD SWAP1 POP SWAP3 SWAP2 POP POP JUMP JUMPDEST PUSH1 0x0 DUP3 DUP3 MSTORE PUSH1 0x20 DUP3 ADD SWAP1 POP SWAP3 SWAP2 POP POP JUMP JUMPDEST PUSH1 0x0 PUSH2 0x3869 DUP3 PUSH2 0x397D JUMP JUMPDEST SWAP2 POP PUSH2 0x3874 DUP4 PUSH2 0x397D JUMP JUMPDEST SWAP3 POP DUP3 PUSH32 0xFFFFFFFFFFFFFFFFFFFFFFFFFFFFFFFFFFFFFFFFFFFFFFFFFFFFFFFFFFFFFFFF SUB DUP3 GT ISZERO PUSH2 0x38A9 JUMPI PUSH2 0x38A8 PUSH2 0x3ACF JUMP JUMPDEST JUMPDEST DUP3 DUP3 ADD SWAP1 POP SWAP3 SWAP2 POP POP JUMP JUMPDEST PUSH1 0x0 PUSH2 0x38BF DUP3 PUSH2 0x397D JUMP JUMPDEST SWAP2 POP PUSH2 0x38CA DUP4 PUSH2 0x397D JUMP JUMPDEST SWAP3 POP DUP3 PUSH2 0x38DA JUMPI PUSH2 0x38D9 PUSH2 0x3AFE JUMP JUMPDEST JUMPDEST DUP3 DUP3 DIV SWAP1 POP SWAP3 SWAP2 POP POP JUMP JUMPDEST PUSH1 0x0 PUSH2 0x38F0 DUP3 PUSH2 0x397D JUMP JUMPDEST SWAP2 POP PUSH2 0x38FB DUP4 PUSH2 0x397D JUMP JUMPDEST SWAP3 POP DUP2 PUSH32 0xFFFFFFFFFFFFFFFFFFFFFFFFFFFFFFFFFFFFFFFFFFFFFFFFFFFFFFFFFFFFFFFF DIV DUP4 GT DUP3 ISZERO ISZERO AND ISZERO PUSH2 0x3934 JUMPI PUSH2 0x3933 PUSH2 0x3ACF JUMP JUMPDEST JUMPDEST DUP3 DUP3 MUL SWAP1 POP SWAP3 SWAP2 POP POP JUMP JUMPDEST PUSH1 0x0 PUSH2 0x394A DUP3 PUSH2 0x395D JUMP JUMPDEST SWAP1 POP SWAP2 SWAP1 POP JUMP JUMPDEST PUSH1 0x0 DUP2 ISZERO ISZERO SWAP1 POP SWAP2 SWAP1 POP JUMP JUMPDEST PUSH1 0x0 PUSH20 0xFFFFFFFFFFFFFFFFFFFFFFFFFFFFFFFFFFFFFFFF DUP3 AND SWAP1 POP SWAP2 SWAP1 POP JUMP JUMPDEST PUSH1 0x0 DUP2 SWAP1 POP SWAP2 SWAP1 POP JUMP JUMPDEST PUSH1 0x0 PUSH2 0x3992 DUP3 PUSH2 0x39BD JUMP JUMPDEST SWAP1 POP SWAP2 SWAP1 POP JUMP JUMPDEST PUSH1 0x0 PUSH2 0x39A4 DUP3 PUSH2 0x39BD JUMP JUMPDEST SWAP1 POP SWAP2 SWAP1 POP JUMP JUMPDEST PUSH1 0x0 PUSH2 0x39B6 DUP3 PUSH2 0x39BD JUMP JUMPDEST SWAP1 POP SWAP2 SWAP1 POP JUMP JUMPDEST PUSH1 0x0 PUSH2 0x39C8 DUP3 PUSH2 0x39CF JUMP JUMPDEST SWAP1 POP SWAP2 SWAP1 POP JUMP JUMPDEST PUSH1 0x0 PUSH2 0x39DA DUP3 PUSH2 0x395D JUMP JUMPDEST SWAP1 POP SWAP2 SWAP1 POP JUMP JUMPDEST DUP3 DUP2 DUP4 CALLDATACOPY PUSH1 0x0 DUP4 DUP4 ADD MSTORE POP POP POP JUMP JUMPDEST PUSH1 0x0 JUMPDEST DUP4 DUP2 LT ISZERO PUSH2 0x3A0E JUMPI DUP1 DUP3 ADD MLOAD DUP2 DUP5 ADD MSTORE PUSH1 0x20 DUP2 ADD SWAP1 POP PUSH2 0x39F3 JUMP JUMPDEST DUP4 DUP2 GT ISZERO PUSH2 0x3A1D JUMPI PUSH1 0x0 DUP5 DUP5 ADD MSTORE JUMPDEST POP POP POP POP JUMP JUMPDEST PUSH1 0x0 PUSH1 0x2 DUP3 DIV SWAP1 POP PUSH1 0x1 DUP3 AND DUP1 PUSH2 0x3A3B JUMPI PUSH1 0x7F DUP3 AND SWAP2 POP JUMPDEST PUSH1 0x20 DUP3 LT DUP2 EQ ISZERO PUSH2 0x3A4F JUMPI PUSH2 0x3A4E PUSH2 0x3B2D JUMP JUMPDEST JUMPDEST POP SWAP2 SWAP1 POP JUMP JUMPDEST PUSH2 0x3A5E DUP3 PUSH2 0x3BCE JUMP JUMPDEST DUP2 ADD DUP2 DUP2 LT PUSH8 0xFFFFFFFFFFFFFFFF DUP3 GT OR ISZERO PUSH2 0x3A7D JUMPI PUSH2 0x3A7C PUSH2 0x3B8B JUMP JUMPDEST JUMPDEST DUP1 PUSH1 0x40 MSTORE POP POP POP JUMP JUMPDEST PUSH1 0x0 PUSH2 0x3A91 DUP3 PUSH2 0x397D JUMP JUMPDEST SWAP2 POP PUSH32 0xFFFFFFFFFFFFFFFFFFFFFFFFFFFFFFFFFFFFFFFFFFFFFFFFFFFFFFFFFFFFFFFF DUP3 EQ ISZERO PUSH2 0x3AC4 JUMPI PUSH2 0x3AC3 PUSH2 0x3ACF JUMP JUMPDEST JUMPDEST PUSH1 0x1 DUP3 ADD SWAP1 POP SWAP2 SWAP1 POP JUMP JUMPDEST PUSH32 0x4E487B7100000000000000000000000000000000000000000000000000000000 PUSH1 0x0 MSTORE PUSH1 0x11 PUSH1 0x4 MSTORE PUSH1 0x24 PUSH1 0x0 REVERT JUMPDEST PUSH32 0x4E487B7100000000000000000000000000000000000000000000000000000000 PUSH1 0x0 MSTORE PUSH1 0x12 PUSH1 0x4 MSTORE PUSH1 0x24 PUSH1 0x0 REVERT JUMPDEST PUSH32 0x4E487B7100000000000000000000000000000000000000000000000000000000 PUSH1 0x0 MSTORE PUSH1 0x22 PUSH1 0x4 MSTORE PUSH1 0x24 PUSH1 0x0 REVERT JUMPDEST PUSH32 0x4E487B7100000000000000000000000000000000000000000000000000000000 PUSH1 0x0 MSTORE PUSH1 0x32 PUSH1 0x4 MSTORE PUSH1 0x24 PUSH1 0x0 REVERT JUMPDEST PUSH32 0x4E487B7100000000000000000000000000000000000000000000000000000000 PUSH1 0x0 MSTORE PUSH1 0x41 PUSH1 0x4 MSTORE PUSH1 0x24 PUSH1 0x0 REVERT JUMPDEST PUSH1 0x0 DUP1 REVERT JUMPDEST PUSH1 0x0 DUP1 REVERT JUMPDEST PUSH1 0x0 DUP1 REVERT JUMPDEST PUSH1 0x0 DUP1 REVERT JUMPDEST PUSH1 0x0 PUSH1 0x1F NOT PUSH1 0x1F DUP4 ADD AND SWAP1 POP SWAP2 SWAP1 POP JUMP JUMPDEST PUSH32 0x566F74696E6720506572696F642046696E697368656400000000000000000000 PUSH1 0x0 DUP3 ADD MSTORE POP JUMP JUMPDEST PUSH32 0x416C726561647920566F74656400000000000000000000000000000000000000 PUSH1 0x0 DUP3 ADD MSTORE POP JUMP JUMPDEST PUSH32 0x436F6E747261637420646F6573206E6F74206861766520656E6F75676820746F PUSH1 0x0 DUP3 ADD MSTORE PUSH32 0x6B656E7300000000000000000000000000000000000000000000000000000000 PUSH1 0x20 DUP3 ADD MSTORE POP JUMP JUMPDEST PUSH32 0x4F776E61626C653A206E6577206F776E657220697320746865207A65726F2061 PUSH1 0x0 DUP3 ADD MSTORE PUSH32 0x6464726573730000000000000000000000000000000000000000000000000000 PUSH1 0x20 DUP3 ADD MSTORE POP JUMP JUMPDEST PUSH32 0x596F75206861766520746F207374616B652076616C696420616D6F756E742074 PUSH1 0x0 DUP3 ADD MSTORE PUSH32 0x6F2063726561746520612070726F706F73616C00000000000000000000000000 PUSH1 0x20 DUP3 ADD MSTORE POP JUMP JUMPDEST PUSH32 0x616C6C6F77616E6365206973206E6F7420656E6F756768210000000000000000 PUSH1 0x0 DUP3 ADD MSTORE POP JUMP JUMPDEST PUSH32 0x4669727374206A6F696E207468652053616D686974612044414F000000000000 PUSH1 0x0 DUP3 ADD MSTORE POP JUMP JUMPDEST PUSH32 0x4E6F7420656E6F7567682076616C756500000000000000000000000000000000 PUSH1 0x0 DUP3 ADD MSTORE POP JUMP JUMPDEST PUSH32 0x596F75206861766520746F207374616B652076616C696420616D6F756E742074 PUSH1 0x0 DUP3 ADD MSTORE PUSH32 0x6F20766F7465206F6E20612070726F706F73616C000000000000000000000000 PUSH1 0x20 DUP3 ADD MSTORE POP JUMP JUMPDEST PUSH32 0x4F776E61626C653A2063616C6C6572206973206E6F7420746865206F776E6572 PUSH1 0x0 DUP3 ADD MSTORE POP JUMP JUMPDEST PUSH32 0x566F74696E6720726573756C7420697320616C726561647920676976656E2100 PUSH1 0x0 DUP3 ADD MSTORE POP JUMP JUMPDEST PUSH32 0x50726F706F73616C2043726561746F722063616E6E6F7420766F746520686973 PUSH1 0x0 DUP3 ADD MSTORE PUSH32 0x206F776E2070726F706F73616C00000000000000000000000000000000000000 PUSH1 0x20 DUP3 ADD MSTORE POP JUMP JUMPDEST PUSH32 0x596F7520617265206E6F742061206D656D626572206F66207468652053616D68 PUSH1 0x0 DUP3 ADD MSTORE PUSH32 0x69746144414F0000000000000000000000000000000000000000000000000000 PUSH1 0x20 DUP3 ADD MSTORE POP JUMP JUMPDEST PUSH32 0x596F7520617265206E6F7420746865206D656D626572206F6620746873205361 PUSH1 0x0 DUP3 ADD MSTORE PUSH32 0x6D686974612044414F0000000000000000000000000000000000000000000000 PUSH1 0x20 DUP3 ADD MSTORE POP JUMP JUMPDEST PUSH2 0x3F30 DUP2 PUSH2 0x393F JUMP JUMPDEST DUP2 EQ PUSH2 0x3F3B JUMPI PUSH1 0x0 DUP1 REVERT JUMPDEST POP JUMP JUMPDEST PUSH2 0x3F47 DUP2 PUSH2 0x3951 JUMP JUMPDEST DUP2 EQ PUSH2 0x3F52 JUMPI PUSH1 0x0 DUP1 REVERT JUMPDEST POP JUMP JUMPDEST PUSH2 0x3F5E DUP2 PUSH2 0x397D JUMP JUMPDEST DUP2 EQ PUSH2 0x3F69 JUMPI PUSH1 0x0 DUP1 REVERT JUMPDEST POP JUMP INVALID LOG2 PUSH5 0x6970667358 0x22 SLT KECCAK256 JUMPI PUSH18 0x672DBD920C9DA64FD3593E81F77159AA27CA 0x1E DUP6 0xAC SWAP13 SWAP7 0x5D 0xD5 0xB9 PUSH1 0x6D JUMPDEST 0xF8 PUSH5 0x736F6C6343 STOP ADDMOD SMOD STOP CALLER "
	},
	"abi": [
		{
			"inputs": [
				{
					"internalType": "address",
					"name": "_samhitaAddress",
					"type": "address"
				},
				{
					"internalType": "address",
					"name": "_templateNFTAddress",
					"type": "address"
				},
				{
					"internalType": "address",
					"name": "_languageTokenAddress",
					"type": "address"
				}
			],
			"stateMutability": "nonpayable",
			"type": "constructor"
		},
		{
			"anonymous": false,
			"inputs": [
				{
					"indexed": true,
					"internalType": "address",
					"name": "previousOwner",
					"type": "address"
				},
				{
					"indexed": true,
					"internalType": "address",
					"name": "newOwner",
					"type": "address"
				}
			],
			"name": "OwnershipTransferred",
			"type": "event"
		},
		{
			"inputs": [
				{
					"internalType": "uint256",
					"name": "_tokens",
					"type": "uint256"
				}
			],
			"name": "addMember",
			"outputs": [],
			"stateMutability": "payable",
			"type": "function"
		},
		{
			"inputs": [],
			"name": "chargeTokenAddress",
			"outputs": [
				{
					"internalType": "address",
					"name": "",
					"type": "address"
				}
			],
			"stateMutability": "view",
			"type": "function"
		},
		{
			"inputs": [
				{
					"internalType": "string",
					"name": "_proposalName",
					"type": "string"
				},
				{
					"internalType": "string",
					"name": "_proposalaDescription",
					"type": "string"
				},
				{
					"internalType": "string",
					"name": "proposalIamge",
					"type": "string"
				},
				{
					"internalType": "uint256",
					"name": "_templateId",
					"type": "uint256"
				}
			],
			"name": "createProposal",
			"outputs": [],
			"stateMutability": "payable",
			"type": "function"
		},
		{
			"inputs": [
				{
					"internalType": "uint256",
					"name": "proposalID",
					"type": "uint256"
				}
			],
			"name": "downvoteProposal",
			"outputs": [],
			"stateMutability": "payable",
			"type": "function"
		},
		{
			"inputs": [],
			"name": "getAllProposals",
			"outputs": [
				{
					"components": [
						{
							"internalType": "uint256",
							"name": "proposalID",
							"type": "uint256"
						},
						{
							"internalType": "string",
							"name": "proposalName",
							"type": "string"
						},
						{
							"internalType": "string",
							"name": "proposalDescription",
							"type": "string"
						},
						{
							"internalType": "string",
							"name": "proposalIamge",
							"type": "string"
						},
						{
							"internalType": "address",
							"name": "proposalCreator",
							"type": "address"
						},
						{
							"internalType": "uint256",
							"name": "upVoteCount",
							"type": "uint256"
						},
						{
							"internalType": "uint256",
							"name": "downVoteCount",
							"type": "uint256"
						},
						{
							"internalType": "uint256",
							"name": "proposedAt",
							"type": "uint256"
						},
						{
							"internalType": "uint256",
							"name": "proposalExpireAt",
							"type": "uint256"
						},
						{
							"internalType": "uint256",
							"name": "templateId",
							"type": "uint256"
						},
						{
							"internalType": "string",
							"name": "status",
							"type": "string"
						},
						{
							"internalType": "bool",
							"name": "votingResult",
							"type": "bool"
						}
					],
					"internalType": "struct LanguageDAO.Proposal[]",
					"name": "",
					"type": "tuple[]"
				}
			],
			"stateMutability": "view",
			"type": "function"
		},
		{
			"inputs": [],
			"name": "getDataDaoVotingConfig",
			"outputs": [
				{
					"components": [
						{
							"internalType": "uint256",
							"name": "condition",
							"type": "uint256"
						},
						{
							"internalType": "uint256",
							"name": "minimunApproval",
							"type": "uint256"
						},
						{
							"internalType": "uint256",
							"name": "votingPeriod",
							"type": "uint256"
						},
						{
							"internalType": "uint256",
							"name": "votingStake",
							"type": "uint256"
						},
						{
							"internalType": "uint256",
							"name": "proposalStake",
							"type": "uint256"
						}
					],
					"internalType": "struct LanguageDAO.VotingConfig",
					"name": "",
					"type": "tuple"
				}
			],
			"stateMutability": "view",
			"type": "function"
		},
		{
			"inputs": [
				{
					"internalType": "address",
					"name": "",
					"type": "address"
				},
				{
					"internalType": "uint256",
					"name": "",
					"type": "uint256"
				}
			],
			"name": "hasVotedForProposal",
			"outputs": [
				{
					"internalType": "bool",
					"name": "",
					"type": "bool"
				}
			],
			"stateMutability": "view",
			"type": "function"
		},
		{
			"inputs": [
				{
					"internalType": "address",
					"name": "",
					"type": "address"
				}
			],
			"name": "isMemberAdded",
			"outputs": [
				{
					"internalType": "bool",
					"name": "",
					"type": "bool"
				}
			],
			"stateMutability": "view",
			"type": "function"
		},
		{
			"inputs": [],
			"name": "languageToken",
			"outputs": [
				{
					"internalType": "contract ILanguageToken",
					"name": "",
					"type": "address"
				}
			],
			"stateMutability": "view",
			"type": "function"
		},
		{
			"inputs": [
				{
					"internalType": "address",
					"name": "",
					"type": "address"
				}
			],
			"name": "memberWithdrawAmount",
			"outputs": [
				{
					"internalType": "uint256",
					"name": "",
					"type": "uint256"
				}
			],
			"stateMutability": "view",
			"type": "function"
		},
		{
			"inputs": [
				{
					"internalType": "uint256",
					"name": "",
					"type": "uint256"
				},
				{
					"internalType": "uint256",
					"name": "",
					"type": "uint256"
				}
			],
			"name": "membersForDownvote",
			"outputs": [
				{
					"internalType": "address",
					"name": "",
					"type": "address"
				}
			],
			"stateMutability": "view",
			"type": "function"
		},
		{
			"inputs": [
				{
					"internalType": "uint256",
					"name": "",
					"type": "uint256"
				},
				{
					"internalType": "uint256",
					"name": "",
					"type": "uint256"
				}
			],
			"name": "membersForUpvote",
			"outputs": [
				{
					"internalType": "address",
					"name": "",
					"type": "address"
				}
			],
			"stateMutability": "view",
			"type": "function"
		},
		{
			"inputs": [],
			"name": "owner",
			"outputs": [
				{
					"internalType": "address",
					"name": "",
					"type": "address"
				}
			],
			"stateMutability": "view",
			"type": "function"
		},
		{
			"inputs": [],
			"name": "proposalCount",
			"outputs": [
				{
					"internalType": "uint256",
					"name": "",
					"type": "uint256"
				}
			],
			"stateMutability": "view",
			"type": "function"
		},
		{
			"inputs": [
				{
					"internalType": "uint256",
					"name": "",
					"type": "uint256"
				}
			],
			"name": "proposals",
			"outputs": [
				{
					"internalType": "uint256",
					"name": "proposalID",
					"type": "uint256"
				},
				{
					"internalType": "string",
					"name": "proposalName",
					"type": "string"
				},
				{
					"internalType": "string",
					"name": "proposalDescription",
					"type": "string"
				},
				{
					"internalType": "string",
					"name": "proposalIamge",
					"type": "string"
				},
				{
					"internalType": "address",
					"name": "proposalCreator",
					"type": "address"
				},
				{
					"internalType": "uint256",
					"name": "upVoteCount",
					"type": "uint256"
				},
				{
					"internalType": "uint256",
					"name": "downVoteCount",
					"type": "uint256"
				},
				{
					"internalType": "uint256",
					"name": "proposedAt",
					"type": "uint256"
				},
				{
					"internalType": "uint256",
					"name": "proposalExpireAt",
					"type": "uint256"
				},
				{
					"internalType": "uint256",
					"name": "templateId",
					"type": "uint256"
				},
				{
					"internalType": "string",
					"name": "status",
					"type": "string"
				},
				{
					"internalType": "bool",
					"name": "votingResult",
					"type": "bool"
				}
			],
			"stateMutability": "view",
			"type": "function"
		},
		{
			"inputs": [],
			"name": "renounceOwnership",
			"outputs": [],
			"stateMutability": "nonpayable",
			"type": "function"
		},
		{
			"inputs": [],
			"name": "royaltyFee",
			"outputs": [
				{
					"internalType": "uint256",
					"name": "",
					"type": "uint256"
				}
			],
			"stateMutability": "view",
			"type": "function"
		},
		{
			"inputs": [],
			"name": "samhita",
			"outputs": [
				{
					"internalType": "contract ISamhitaDAO",
					"name": "",
					"type": "address"
				}
			],
			"stateMutability": "view",
			"type": "function"
		},
		{
			"inputs": [
				{
					"internalType": "uint256",
					"name": "_condition",
					"type": "uint256"
				},
				{
					"internalType": "uint256",
					"name": "_minimunApproval",
					"type": "uint256"
				},
				{
					"internalType": "uint256",
					"name": "_votingPeriod",
					"type": "uint256"
				},
				{
					"internalType": "uint256",
					"name": "_votingStake",
					"type": "uint256"
				},
				{
					"internalType": "uint256",
					"name": "_proposalStake",
					"type": "uint256"
				}
			],
			"name": "setDataDaoVotingConfig",
			"outputs": [],
			"stateMutability": "nonpayable",
			"type": "function"
		},
		{
			"inputs": [],
			"name": "templateNFT",
			"outputs": [
				{
					"internalType": "contract ITemplateNFT",
					"name": "",
					"type": "address"
				}
			],
			"stateMutability": "view",
			"type": "function"
		},
		{
			"inputs": [
				{
					"internalType": "address",
					"name": "newOwner",
					"type": "address"
				}
			],
			"name": "transferOwnership",
			"outputs": [],
			"stateMutability": "nonpayable",
			"type": "function"
		},
		{
			"inputs": [
				{
					"internalType": "uint256",
					"name": "proposalID",
					"type": "uint256"
				}
			],
			"name": "upvoteProposal",
			"outputs": [],
			"stateMutability": "payable",
			"type": "function"
		},
		{
			"inputs": [
				{
					"internalType": "uint256",
					"name": "",
					"type": "uint256"
				},
				{
					"internalType": "uint256",
					"name": "",
					"type": "uint256"
				}
			],
			"name": "votersForProposal",
			"outputs": [
				{
					"internalType": "address",
					"name": "",
					"type": "address"
				}
			],
			"stateMutability": "view",
			"type": "function"
		},
		{
			"inputs": [
				{
					"internalType": "uint256",
					"name": "_proposalId",
					"type": "uint256"
				},
				{
					"internalType": "uint256",
					"name": "_templateId",
					"type": "uint256"
				}
			],
			"name": "votingResult",
			"outputs": [],
			"stateMutability": "nonpayable",
			"type": "function"
		},
		{
			"inputs": [],
			"name": "votingconfigs",
			"outputs": [
				{
					"internalType": "uint256",
					"name": "condition",
					"type": "uint256"
				},
				{
					"internalType": "uint256",
					"name": "minimunApproval",
					"type": "uint256"
				},
				{
					"internalType": "uint256",
					"name": "votingPeriod",
					"type": "uint256"
				},
				{
					"internalType": "uint256",
					"name": "votingStake",
					"type": "uint256"
				},
				{
					"internalType": "uint256",
					"name": "proposalStake",
					"type": "uint256"
				}
			],
			"stateMutability": "view",
			"type": "function"
		}
	],
	"storageLayout": {
		"storage": [
			{
				"astId": 980,
				"contract": "contracts/Samhita DAO/LanguageDAO.sol:LanguageDAO",
				"label": "_owner",
				"offset": 0,
				"slot": "0",
				"type": "t_address"
			},
			{
				"astId": 239,
				"contract": "contracts/Samhita DAO/LanguageDAO.sol:LanguageDAO",
				"label": "samhita",
				"offset": 0,
				"slot": "1",
				"type": "t_contract(ISamhitaDAO)188"
			},
			{
				"astId": 242,
				"contract": "contracts/Samhita DAO/LanguageDAO.sol:LanguageDAO",
				"label": "templateNFT",
				"offset": 0,
				"slot": "2",
				"type": "t_contract(ITemplateNFT)226"
			},
			{
				"astId": 245,
				"contract": "contracts/Samhita DAO/LanguageDAO.sol:LanguageDAO",
				"label": "languageToken",
				"offset": 0,
				"slot": "3",
				"type": "t_contract(ILanguageToken)96"
			},
			{
				"astId": 305,
				"contract": "contracts/Samhita DAO/LanguageDAO.sol:LanguageDAO",
				"label": "proposals",
				"offset": 0,
				"slot": "4",
				"type": "t_mapping(t_uint256,t_struct(Proposal)300_storage)"
			},
			{
				"astId": 311,
				"contract": "contracts/Samhita DAO/LanguageDAO.sol:LanguageDAO",
				"label": "hasVotedForProposal",
				"offset": 0,
				"slot": "5",
				"type": "t_mapping(t_address,t_mapping(t_uint256,t_bool))"
			},
			{
				"astId": 316,
				"contract": "contracts/Samhita DAO/LanguageDAO.sol:LanguageDAO",
				"label": "votersForProposal",
				"offset": 0,
				"slot": "6",
				"type": "t_mapping(t_uint256,t_array(t_address)dyn_storage)"
			},
			{
				"astId": 321,
				"contract": "contracts/Samhita DAO/LanguageDAO.sol:LanguageDAO",
				"label": "membersForUpvote",
				"offset": 0,
				"slot": "7",
				"type": "t_mapping(t_uint256,t_array(t_address)dyn_storage)"
			},
			{
				"astId": 326,
				"contract": "contracts/Samhita DAO/LanguageDAO.sol:LanguageDAO",
				"label": "membersForDownvote",
				"offset": 0,
				"slot": "8",
				"type": "t_mapping(t_uint256,t_array(t_address)dyn_storage)"
			},
			{
				"astId": 328,
				"contract": "contracts/Samhita DAO/LanguageDAO.sol:LanguageDAO",
				"label": "proposalCount",
				"offset": 0,
				"slot": "9",
				"type": "t_uint256"
			},
			{
				"astId": 331,
				"contract": "contracts/Samhita DAO/LanguageDAO.sol:LanguageDAO",
				"label": "allDaoMemberAddress",
				"offset": 0,
				"slot": "10",
				"type": "t_array(t_address)dyn_storage"
			},
			{
				"astId": 335,
				"contract": "contracts/Samhita DAO/LanguageDAO.sol:LanguageDAO",
				"label": "isMemberAdded",
				"offset": 0,
				"slot": "11",
				"type": "t_mapping(t_address,t_bool)"
			},
			{
				"astId": 339,
				"contract": "contracts/Samhita DAO/LanguageDAO.sol:LanguageDAO",
				"label": "memberWithdrawAmount",
				"offset": 0,
				"slot": "12",
				"type": "t_mapping(t_address,t_uint256)"
			},
			{
				"astId": 341,
				"contract": "contracts/Samhita DAO/LanguageDAO.sol:LanguageDAO",
				"label": "tokenPrice",
				"offset": 0,
				"slot": "13",
				"type": "t_uint256"
			},
			{
				"astId": 355,
				"contract": "contracts/Samhita DAO/LanguageDAO.sol:LanguageDAO",
				"label": "votingconfigs",
				"offset": 0,
				"slot": "14",
				"type": "t_struct(VotingConfig)352_storage"
			},
			{
				"astId": 358,
				"contract": "contracts/Samhita DAO/LanguageDAO.sol:LanguageDAO",
				"label": "royaltyFee",
				"offset": 0,
				"slot": "19",
				"type": "t_uint256"
			},
			{
				"astId": 361,
				"contract": "contracts/Samhita DAO/LanguageDAO.sol:LanguageDAO",
				"label": "chargeTokenAddress",
				"offset": 0,
				"slot": "20",
				"type": "t_address"
			}
		],
		"types": {
			"t_address": {
				"encoding": "inplace",
				"label": "address",
				"numberOfBytes": "20"
			},
			"t_array(t_address)dyn_storage": {
				"base": "t_address",
				"encoding": "dynamic_array",
				"label": "address[]",
				"numberOfBytes": "32"
			},
			"t_bool": {
				"encoding": "inplace",
				"label": "bool",
				"numberOfBytes": "1"
			},
			"t_contract(ILanguageToken)96": {
				"encoding": "inplace",
				"label": "contract ILanguageToken",
				"numberOfBytes": "20"
			},
			"t_contract(ISamhitaDAO)188": {
				"encoding": "inplace",
				"label": "contract ISamhitaDAO",
				"numberOfBytes": "20"
			},
			"t_contract(ITemplateNFT)226": {
				"encoding": "inplace",
				"label": "contract ITemplateNFT",
				"numberOfBytes": "20"
			},
			"t_mapping(t_address,t_bool)": {
				"encoding": "mapping",
				"key": "t_address",
				"label": "mapping(address => bool)",
				"numberOfBytes": "32",
				"value": "t_bool"
			},
			"t_mapping(t_address,t_mapping(t_uint256,t_bool))": {
				"encoding": "mapping",
				"key": "t_address",
				"label": "mapping(address => mapping(uint256 => bool))",
				"numberOfBytes": "32",
				"value": "t_mapping(t_uint256,t_bool)"
			},
			"t_mapping(t_address,t_uint256)": {
				"encoding": "mapping",
				"key": "t_address",
				"label": "mapping(address => uint256)",
				"numberOfBytes": "32",
				"value": "t_uint256"
			},
			"t_mapping(t_uint256,t_array(t_address)dyn_storage)": {
				"encoding": "mapping",
				"key": "t_uint256",
				"label": "mapping(uint256 => address[])",
				"numberOfBytes": "32",
				"value": "t_array(t_address)dyn_storage"
			},
			"t_mapping(t_uint256,t_bool)": {
				"encoding": "mapping",
				"key": "t_uint256",
				"label": "mapping(uint256 => bool)",
				"numberOfBytes": "32",
				"value": "t_bool"
			},
			"t_mapping(t_uint256,t_struct(Proposal)300_storage)": {
				"encoding": "mapping",
				"key": "t_uint256",
				"label": "mapping(uint256 => struct LanguageDAO.Proposal)",
				"numberOfBytes": "32",
				"value": "t_struct(Proposal)300_storage"
			},
			"t_string_storage": {
				"encoding": "bytes",
				"label": "string",
				"numberOfBytes": "32"
			},
			"t_struct(Proposal)300_storage": {
				"encoding": "inplace",
				"label": "struct LanguageDAO.Proposal",
				"members": [
					{
						"astId": 277,
						"contract": "contracts/Samhita DAO/LanguageDAO.sol:LanguageDAO",
						"label": "proposalID",
						"offset": 0,
						"slot": "0",
						"type": "t_uint256"
					},
					{
						"astId": 279,
						"contract": "contracts/Samhita DAO/LanguageDAO.sol:LanguageDAO",
						"label": "proposalName",
						"offset": 0,
						"slot": "1",
						"type": "t_string_storage"
					},
					{
						"astId": 281,
						"contract": "contracts/Samhita DAO/LanguageDAO.sol:LanguageDAO",
						"label": "proposalDescription",
						"offset": 0,
						"slot": "2",
						"type": "t_string_storage"
					},
					{
						"astId": 283,
						"contract": "contracts/Samhita DAO/LanguageDAO.sol:LanguageDAO",
						"label": "proposalIamge",
						"offset": 0,
						"slot": "3",
						"type": "t_string_storage"
					},
					{
						"astId": 285,
						"contract": "contracts/Samhita DAO/LanguageDAO.sol:LanguageDAO",
						"label": "proposalCreator",
						"offset": 0,
						"slot": "4",
						"type": "t_address"
					},
					{
						"astId": 287,
						"contract": "contracts/Samhita DAO/LanguageDAO.sol:LanguageDAO",
						"label": "upVoteCount",
						"offset": 0,
						"slot": "5",
						"type": "t_uint256"
					},
					{
						"astId": 289,
						"contract": "contracts/Samhita DAO/LanguageDAO.sol:LanguageDAO",
						"label": "downVoteCount",
						"offset": 0,
						"slot": "6",
						"type": "t_uint256"
					},
					{
						"astId": 291,
						"contract": "contracts/Samhita DAO/LanguageDAO.sol:LanguageDAO",
						"label": "proposedAt",
						"offset": 0,
						"slot": "7",
						"type": "t_uint256"
					},
					{
						"astId": 293,
						"contract": "contracts/Samhita DAO/LanguageDAO.sol:LanguageDAO",
						"label": "proposalExpireAt",
						"offset": 0,
						"slot": "8",
						"type": "t_uint256"
					},
					{
						"astId": 295,
						"contract": "contracts/Samhita DAO/LanguageDAO.sol:LanguageDAO",
						"label": "templateId",
						"offset": 0,
						"slot": "9",
						"type": "t_uint256"
					},
					{
						"astId": 297,
						"contract": "contracts/Samhita DAO/LanguageDAO.sol:LanguageDAO",
						"label": "status",
						"offset": 0,
						"slot": "10",
						"type": "t_string_storage"
					},
					{
						"astId": 299,
						"contract": "contracts/Samhita DAO/LanguageDAO.sol:LanguageDAO",
						"label": "votingResult",
						"offset": 0,
						"slot": "11",
						"type": "t_bool"
					}
				],
				"numberOfBytes": "384"
			},
			"t_struct(VotingConfig)352_storage": {
				"encoding": "inplace",
				"label": "struct LanguageDAO.VotingConfig",
				"members": [
					{
						"astId": 343,
						"contract": "contracts/Samhita DAO/LanguageDAO.sol:LanguageDAO",
						"label": "condition",
						"offset": 0,
						"slot": "0",
						"type": "t_uint256"
					},
					{
						"astId": 345,
						"contract": "contracts/Samhita DAO/LanguageDAO.sol:LanguageDAO",
						"label": "minimunApproval",
						"offset": 0,
						"slot": "1",
						"type": "t_uint256"
					},
					{
						"astId": 347,
						"contract": "contracts/Samhita DAO/LanguageDAO.sol:LanguageDAO",
						"label": "votingPeriod",
						"offset": 0,
						"slot": "2",
						"type": "t_uint256"
					},
					{
						"astId": 349,
						"contract": "contracts/Samhita DAO/LanguageDAO.sol:LanguageDAO",
						"label": "votingStake",
						"offset": 0,
						"slot": "3",
						"type": "t_uint256"
					},
					{
						"astId": 351,
						"contract": "contracts/Samhita DAO/LanguageDAO.sol:LanguageDAO",
						"label": "proposalStake",
						"offset": 0,
						"slot": "4",
						"type": "t_uint256"
					}
				],
				"numberOfBytes": "160"
			},
			"t_uint256": {
				"encoding": "inplace",
				"label": "uint256",
				"numberOfBytes": "32"
			}
		}
	},
	"web3Deploy": "var _samhitaAddress = /* var of type address here */ ;\nvar _templateNFTAddress = /* var of type address here */ ;\nvar _languageTokenAddress = /* var of type address here */ ;\nvar languagedaoContract = new web3.eth.Contract([{\"inputs\":[{\"internalType\":\"address\",\"name\":\"_samhitaAddress\",\"type\":\"address\"},{\"internalType\":\"address\",\"name\":\"_templateNFTAddress\",\"type\":\"address\"},{\"internalType\":\"address\",\"name\":\"_languageTokenAddress\",\"type\":\"address\"}],\"stateMutability\":\"nonpayable\",\"type\":\"constructor\"},{\"anonymous\":false,\"inputs\":[{\"indexed\":true,\"internalType\":\"address\",\"name\":\"previousOwner\",\"type\":\"address\"},{\"indexed\":true,\"internalType\":\"address\",\"name\":\"newOwner\",\"type\":\"address\"}],\"name\":\"OwnershipTransferred\",\"type\":\"event\"},{\"inputs\":[{\"internalType\":\"uint256\",\"name\":\"_tokens\",\"type\":\"uint256\"}],\"name\":\"addMember\",\"outputs\":[],\"stateMutability\":\"payable\",\"type\":\"function\"},{\"inputs\":[],\"name\":\"chargeTokenAddress\",\"outputs\":[{\"internalType\":\"address\",\"name\":\"\",\"type\":\"address\"}],\"stateMutability\":\"view\",\"type\":\"function\"},{\"inputs\":[{\"internalType\":\"string\",\"name\":\"_proposalName\",\"type\":\"string\"},{\"internalType\":\"string\",\"name\":\"_proposalaDescription\",\"type\":\"string\"},{\"internalType\":\"string\",\"name\":\"proposalIamge\",\"type\":\"string\"},{\"internalType\":\"uint256\",\"name\":\"_templateId\",\"type\":\"uint256\"}],\"name\":\"createProposal\",\"outputs\":[],\"stateMutability\":\"payable\",\"type\":\"function\"},{\"inputs\":[{\"internalType\":\"uint256\",\"name\":\"proposalID\",\"type\":\"uint256\"}],\"name\":\"downvoteProposal\",\"outputs\":[],\"stateMutability\":\"payable\",\"type\":\"function\"},{\"inputs\":[],\"name\":\"getAllProposals\",\"outputs\":[{\"components\":[{\"internalType\":\"uint256\",\"name\":\"proposalID\",\"type\":\"uint256\"},{\"internalType\":\"string\",\"name\":\"proposalName\",\"type\":\"string\"},{\"internalType\":\"string\",\"name\":\"proposalDescription\",\"type\":\"string\"},{\"internalType\":\"string\",\"name\":\"proposalIamge\",\"type\":\"string\"},{\"internalType\":\"address\",\"name\":\"proposalCreator\",\"type\":\"address\"},{\"internalType\":\"uint256\",\"name\":\"upVoteCount\",\"type\":\"uint256\"},{\"internalType\":\"uint256\",\"name\":\"downVoteCount\",\"type\":\"uint256\"},{\"internalType\":\"uint256\",\"name\":\"proposedAt\",\"type\":\"uint256\"},{\"internalType\":\"uint256\",\"name\":\"proposalExpireAt\",\"type\":\"uint256\"},{\"internalType\":\"uint256\",\"name\":\"templateId\",\"type\":\"uint256\"},{\"internalType\":\"string\",\"name\":\"status\",\"type\":\"string\"},{\"internalType\":\"bool\",\"name\":\"votingResult\",\"type\":\"bool\"}],\"internalType\":\"struct LanguageDAO.Proposal[]\",\"name\":\"\",\"type\":\"tuple[]\"}],\"stateMutability\":\"view\",\"type\":\"function\"},{\"inputs\":[],\"name\":\"getDataDaoVotingConfig\",\"outputs\":[{\"components\":[{\"internalType\":\"uint256\",\"name\":\"condition\",\"type\":\"uint256\"},{\"internalType\":\"uint256\",\"name\":\"minimunApproval\",\"type\":\"uint256\"},{\"internalType\":\"uint256\",\"name\":\"votingPeriod\",\"type\":\"uint256\"},{\"internalType\":\"uint256\",\"name\":\"votingStake\",\"type\":\"uint256\"},{\"internalType\":\"uint256\",\"name\":\"proposalStake\",\"type\":\"uint256\"}],\"internalType\":\"struct LanguageDAO.VotingConfig\",\"name\":\"\",\"type\":\"tuple\"}],\"stateMutability\":\"view\",\"type\":\"function\"},{\"inputs\":[{\"internalType\":\"address\",\"name\":\"\",\"type\":\"address\"},{\"internalType\":\"uint256\",\"name\":\"\",\"type\":\"uint256\"}],\"name\":\"hasVotedForProposal\",\"outputs\":[{\"internalType\":\"bool\",\"name\":\"\",\"type\":\"bool\"}],\"stateMutability\":\"view\",\"type\":\"function\"},{\"inputs\":[{\"internalType\":\"address\",\"name\":\"\",\"type\":\"address\"}],\"name\":\"isMemberAdded\",\"outputs\":[{\"internalType\":\"bool\",\"name\":\"\",\"type\":\"bool\"}],\"stateMutability\":\"view\",\"type\":\"function\"},{\"inputs\":[],\"name\":\"languageToken\",\"outputs\":[{\"internalType\":\"contract ILanguageToken\",\"name\":\"\",\"type\":\"address\"}],\"stateMutability\":\"view\",\"type\":\"function\"},{\"inputs\":[{\"internalType\":\"address\",\"name\":\"\",\"type\":\"address\"}],\"name\":\"memberWithdrawAmount\",\"outputs\":[{\"internalType\":\"uint256\",\"name\":\"\",\"type\":\"uint256\"}],\"stateMutability\":\"view\",\"type\":\"function\"},{\"inputs\":[{\"internalType\":\"uint256\",\"name\":\"\",\"type\":\"uint256\"},{\"internalType\":\"uint256\",\"name\":\"\",\"type\":\"uint256\"}],\"name\":\"membersForDownvote\",\"outputs\":[{\"internalType\":\"address\",\"name\":\"\",\"type\":\"address\"}],\"stateMutability\":\"view\",\"type\":\"function\"},{\"inputs\":[{\"internalType\":\"uint256\",\"name\":\"\",\"type\":\"uint256\"},{\"internalType\":\"uint256\",\"name\":\"\",\"type\":\"uint256\"}],\"name\":\"membersForUpvote\",\"outputs\":[{\"internalType\":\"address\",\"name\":\"\",\"type\":\"address\"}],\"stateMutability\":\"view\",\"type\":\"function\"},{\"inputs\":[],\"name\":\"owner\",\"outputs\":[{\"internalType\":\"address\",\"name\":\"\",\"type\":\"address\"}],\"stateMutability\":\"view\",\"type\":\"function\"},{\"inputs\":[],\"name\":\"proposalCount\",\"outputs\":[{\"internalType\":\"uint256\",\"name\":\"\",\"type\":\"uint256\"}],\"stateMutability\":\"view\",\"type\":\"function\"},{\"inputs\":[{\"internalType\":\"uint256\",\"name\":\"\",\"type\":\"uint256\"}],\"name\":\"proposals\",\"outputs\":[{\"internalType\":\"uint256\",\"name\":\"proposalID\",\"type\":\"uint256\"},{\"internalType\":\"string\",\"name\":\"proposalName\",\"type\":\"string\"},{\"internalType\":\"string\",\"name\":\"proposalDescription\",\"type\":\"string\"},{\"internalType\":\"string\",\"name\":\"proposalIamge\",\"type\":\"string\"},{\"internalType\":\"address\",\"name\":\"proposalCreator\",\"type\":\"address\"},{\"internalType\":\"uint256\",\"name\":\"upVoteCount\",\"type\":\"uint256\"},{\"internalType\":\"uint256\",\"name\":\"downVoteCount\",\"type\":\"uint256\"},{\"internalType\":\"uint256\",\"name\":\"proposedAt\",\"type\":\"uint256\"},{\"internalType\":\"uint256\",\"name\":\"proposalExpireAt\",\"type\":\"uint256\"},{\"internalType\":\"uint256\",\"name\":\"templateId\",\"type\":\"uint256\"},{\"internalType\":\"string\",\"name\":\"status\",\"type\":\"string\"},{\"internalType\":\"bool\",\"name\":\"votingResult\",\"type\":\"bool\"}],\"stateMutability\":\"view\",\"type\":\"function\"},{\"inputs\":[],\"name\":\"renounceOwnership\",\"outputs\":[],\"stateMutability\":\"nonpayable\",\"type\":\"function\"},{\"inputs\":[],\"name\":\"royaltyFee\",\"outputs\":[{\"internalType\":\"uint256\",\"name\":\"\",\"type\":\"uint256\"}],\"stateMutability\":\"view\",\"type\":\"function\"},{\"inputs\":[],\"name\":\"samhita\",\"outputs\":[{\"internalType\":\"contract ISamhitaDAO\",\"name\":\"\",\"type\":\"address\"}],\"stateMutability\":\"view\",\"type\":\"function\"},{\"inputs\":[{\"internalType\":\"uint256\",\"name\":\"_condition\",\"type\":\"uint256\"},{\"internalType\":\"uint256\",\"name\":\"_minimunApproval\",\"type\":\"uint256\"},{\"internalType\":\"uint256\",\"name\":\"_votingPeriod\",\"type\":\"uint256\"},{\"internalType\":\"uint256\",\"name\":\"_votingStake\",\"type\":\"uint256\"},{\"internalType\":\"uint256\",\"name\":\"_proposalStake\",\"type\":\"uint256\"}],\"name\":\"setDataDaoVotingConfig\",\"outputs\":[],\"stateMutability\":\"nonpayable\",\"type\":\"function\"},{\"inputs\":[],\"name\":\"templateNFT\",\"outputs\":[{\"internalType\":\"contract ITemplateNFT\",\"name\":\"\",\"type\":\"address\"}],\"stateMutability\":\"view\",\"type\":\"function\"},{\"inputs\":[{\"internalType\":\"address\",\"name\":\"newOwner\",\"type\":\"address\"}],\"name\":\"transferOwnership\",\"outputs\":[],\"stateMutability\":\"nonpayable\",\"type\":\"function\"},{\"inputs\":[{\"internalType\":\"uint256\",\"name\":\"proposalID\",\"type\":\"uint256\"}],\"name\":\"upvoteProposal\",\"outputs\":[],\"stateMutability\":\"payable\",\"type\":\"function\"},{\"inputs\":[{\"internalType\":\"uint256\",\"name\":\"\",\"type\":\"uint256\"},{\"internalType\":\"uint256\",\"name\":\"\",\"type\":\"uint256\"}],\"name\":\"votersForProposal\",\"outputs\":[{\"internalType\":\"address\",\"name\":\"\",\"type\":\"address\"}],\"stateMutability\":\"view\",\"type\":\"function\"},{\"inputs\":[{\"internalType\":\"uint256\",\"name\":\"_proposalId\",\"type\":\"uint256\"},{\"internalType\":\"uint256\",\"name\":\"_templateId\",\"type\":\"uint256\"}],\"name\":\"votingResult\",\"outputs\":[],\"stateMutability\":\"nonpayable\",\"type\":\"function\"},{\"inputs\":[],\"name\":\"votingconfigs\",\"outputs\":[{\"internalType\":\"uint256\",\"name\":\"condition\",\"type\":\"uint256\"},{\"internalType\":\"uint256\",\"name\":\"minimunApproval\",\"type\":\"uint256\"},{\"internalType\":\"uint256\",\"name\":\"votingPeriod\",\"type\":\"uint256\"},{\"internalType\":\"uint256\",\"name\":\"votingStake\",\"type\":\"uint256\"},{\"internalType\":\"uint256\",\"name\":\"proposalStake\",\"type\":\"uint256\"}],\"stateMutability\":\"view\",\"type\":\"function\"}]);\nvar languagedao = languagedaoContract.deploy({\n     data: '0x6080604052620f424060135573e9dce89b076ba6107bb64ef30678efec11939234601460006101000a81548173ffffffffffffffffffffffffffffffffffffffff021916908373ffffffffffffffffffffffffffffffffffffffff1602179055503480156200006d57600080fd5b50604051620042c3380380620042c3833981810160405281019062000093919062000262565b620000b3620000a76200017f60201b60201c565b6200018760201b60201c565b82600160006101000a81548173ffffffffffffffffffffffffffffffffffffffff021916908373ffffffffffffffffffffffffffffffffffffffff16021790555081600260006101000a81548173ffffffffffffffffffffffffffffffffffffffff021916908373ffffffffffffffffffffffffffffffffffffffff16021790555080600360006101000a81548173ffffffffffffffffffffffffffffffffffffffff021916908373ffffffffffffffffffffffffffffffffffffffff16021790555050505062000311565b600033905090565b60008060009054906101000a900473ffffffffffffffffffffffffffffffffffffffff169050816000806101000a81548173ffffffffffffffffffffffffffffffffffffffff021916908373ffffffffffffffffffffffffffffffffffffffff1602179055508173ffffffffffffffffffffffffffffffffffffffff168173ffffffffffffffffffffffffffffffffffffffff167f8be0079c531659141344cd1fd0a4f28419497f9722a3daafe3b4186f6b6457e060405160405180910390a35050565b6000815190506200025c81620002f7565b92915050565b6000806000606084860312156200027e576200027d620002f2565b5b60006200028e868287016200024b565b9350506020620002a1868287016200024b565b9250506040620002b4868287016200024b565b9150509250925092565b6000620002cb82620002d2565b9050919050565b600073ffffffffffffffffffffffffffffffffffffffff82169050919050565b600080fd5b6200030281620002be565b81146200030e57600080fd5b50565b613fa280620003216000396000f3fe6080604052600436106101665760003560e01c806388fde90a116100d1578063cceb68f51161008a578063de0b27e511610064578063de0b27e514610517578063f2fde38b14610554578063f406517d1461057d578063f6ef8ac7146105ac57610166565b8063cceb68f514610496578063cf978530146104c1578063da35c664146104ec57610166565b806388fde90a146103915780638da5cb5b146103bc578063a4131a48146103e7578063a62de3ba14610403578063b8997a971461042e578063b93574371461045957610166565b80634c15676b116101235780634c15676b146102a25780635c042ae7146102be5780635dd3983a146102e957806369d20dd514610314578063715018a614610351578063805347f51461036857610166565b8063013cf08b1461016b5780630be4e999146101b35780631089f5ed146101cf57806312293e01146101eb57806332e0814214610228578063392317cd14610265575b600080fd5b34801561017757600080fd5b50610192600480360381019061018d9190612d4f565b6105d5565b6040516101aa9c9b9a99989796959493929190613679565b60405180910390f35b6101cd60048036038101906101c89190612d4f565b610882565b005b6101e960048036038101906101e49190612d4f565b610d6b565b005b3480156101f757600080fd5b50610212600480360381019061020d9190612da9565b6111ee565b60405161021f9190613351565b60405180910390f35b34801561023457600080fd5b5061024f600480360381019061024a9190612c27565b61123c565b60405161025c9190613417565b60405180910390f35b34801561027157600080fd5b5061028c60048036038101906102879190612bcd565b61126b565b604051610299919061365e565b60405180910390f35b6102bc60048036038101906102b79190612c94565b611283565b005b3480156102ca57600080fd5b506102d361164b565b6040516102e09190613351565b60405180910390f35b3480156102f557600080fd5b506102fe611671565b60405161030b9190613643565b60405180910390f35b34801561032057600080fd5b5061033b60048036038101906103369190612da9565b6116bd565b6040516103489190613351565b60405180910390f35b34801561035d57600080fd5b5061036661170b565b005b34801561037457600080fd5b5061038f600480360381019061038a9190612da9565b61171f565b005b34801561039d57600080fd5b506103a6611d92565b6040516103b39190613468565b60405180910390f35b3480156103c857600080fd5b506103d1611db8565b6040516103de9190613351565b60405180910390f35b61040160048036038101906103fc9190612d4f565b611de1565b005b34801561040f57600080fd5b506104186122ca565b604051610425919061344d565b60405180910390f35b34801561043a57600080fd5b506104436122f0565b604051610450919061365e565b60405180910390f35b34801561046557600080fd5b50610480600480360381019061047b9190612da9565b6122f6565b60405161048d9190613351565b60405180910390f35b3480156104a257600080fd5b506104ab612344565b6040516104b891906133f5565b60405180910390f35b3480156104cd57600080fd5b506104d6612706565b6040516104e39190613432565b60405180910390f35b3480156104f857600080fd5b5061050161272c565b60405161050e919061365e565b60405180910390f35b34801561052357600080fd5b5061053e60048036038101906105399190612bcd565b612732565b60405161054b9190613417565b60405180910390f35b34801561056057600080fd5b5061057b60048036038101906105769190612bcd565b612752565b005b34801561058957600080fd5b506105926127d6565b6040516105a395949392919061374f565b60405180910390f35b3480156105b857600080fd5b506105d360048036038101906105ce9190612de9565b6127fa565b005b60046020528060005260406000206000915090508060000154908060010180546105fe90613a23565b80601f016020809104026020016040519081016040528092919081815260200182805461062a90613a23565b80156106775780601f1061064c57610100808354040283529160200191610677565b820191906000526020600020905b81548152906001019060200180831161065a57829003601f168201915b50505050509080600201805461068c90613a23565b80601f01602080910402602001604051908101604052809291908181526020018280546106b890613a23565b80156107055780601f106106da57610100808354040283529160200191610705565b820191906000526020600020905b8154815290600101906020018083116106e857829003601f168201915b50505050509080600301805461071a90613a23565b80601f016020809104026020016040519081016040528092919081815260200182805461074690613a23565b80156107935780601f1061076857610100808354040283529160200191610793565b820191906000526020600020905b81548152906001019060200180831161077657829003601f168201915b5050505050908060040160009054906101000a900473ffffffffffffffffffffffffffffffffffffffff169080600501549080600601549080600701549080600801549080600901549080600a0180546107ec90613a23565b80601f016020809104026020016040519081016040528092919081815260200182805461081890613a23565b80156108655780601f1061083a57610100808354040283529160200191610865565b820191906000526020600020905b81548152906001019060200180831161084857829003601f168201915b50505050509080600b0160009054906101000a900460ff1690508c565b600160009054906101000a900473ffffffffffffffffffffffffffffffffffffffff1673ffffffffffffffffffffffffffffffffffffffff166393538631336040518263ffffffff1660e01b81526004016108dd9190613351565b60206040518083038186803b1580156108f557600080fd5b505afa158015610909573d6000803e3d6000fd5b505050506040513d601f19601f8201168201806040525081019061092d9190612c67565b61096c576040517f08c379a000000000000000000000000000000000000000000000000000000000815260040161096390613543565b60405180910390fd5b600b60003373ffffffffffffffffffffffffffffffffffffffff1673ffffffffffffffffffffffffffffffffffffffff16815260200190815260200160002060009054906101000a900460ff166109f8576040517f08c379a00000000000000000000000000000000000000000000000000000000081526004016109ef90613603565b60405180910390fd5b3373ffffffffffffffffffffffffffffffffffffffff166004600083815260200190815260200160002060040160009054906101000a900473ffffffffffffffffffffffffffffffffffffffff1673ffffffffffffffffffffffffffffffffffffffff161415610a9d576040517f08c379a0000000000000000000000000000000000000000000000000000000008152600401610a94906135e3565b60405180910390fd5b600560003373ffffffffffffffffffffffffffffffffffffffff1673ffffffffffffffffffffffffffffffffffffffff168152602001908152602001600020600082815260200190815260200160002060009054906101000a900460ff1615610b3b576040517f08c379a0000000000000000000000000000000000000000000000000000000008152600401610b32906134a3565b60405180910390fd5b42600460008381526020019081526020016000206008015411610b93576040517f08c379a0000000000000000000000000000000000000000000000000000000008152600401610b8a90613483565b60405180910390fd5b600e600301543414610bda576040517f08c379a0000000000000000000000000000000000000000000000000000000008152600401610bd190613583565b60405180910390fd5b60016004600083815260200190815260200160002060060154610bfd919061385e565b60046000838152602001908152602001600020600601819055506001600560003373ffffffffffffffffffffffffffffffffffffffff1673ffffffffffffffffffffffffffffffffffffffff168152602001908152602001600020600083815260200190815260200160002060006101000a81548160ff02191690831515021790555060066000828152602001908152602001600020339080600181540180825580915050600190039060005260206000200160009091909190916101000a81548173ffffffffffffffffffffffffffffffffffffffff021916908373ffffffffffffffffffffffffffffffffffffffff16021790555060086000828152602001908152602001600020339080600181540180825580915050600190039060005260206000200160009091909190916101000a81548173ffffffffffffffffffffffffffffffffffffffff021916908373ffffffffffffffffffffffffffffffffffffffff16021790555050565b600160009054906101000a900473ffffffffffffffffffffffffffffffffffffffff1673ffffffffffffffffffffffffffffffffffffffff166393538631336040518263ffffffff1660e01b8152600401610dc69190613351565b60206040518083038186803b158015610dde57600080fd5b505afa158015610df2573d6000803e3d6000fd5b505050506040513d601f19601f82011682018060405250810190610e169190612c67565b610e55576040517f08c379a0000000000000000000000000000000000000000000000000000000008152600401610e4c90613543565b60405180910390fd5b600360009054906101000a900473ffffffffffffffffffffffffffffffffffffffff1673ffffffffffffffffffffffffffffffffffffffff16634b94f50e6040518163ffffffff1660e01b815260040160206040518083038186803b158015610ebd57600080fd5b505afa158015610ed1573d6000803e3d6000fd5b505050506040513d601f19601f82011682018060405250810190610ef59190612d7c565b81610f0091906138e5565b3414610f41576040517f08c379a0000000000000000000000000000000000000000000000000000000008152600401610f3890613563565b60405180910390fd5b80600360009054906101000a900473ffffffffffffffffffffffffffffffffffffffff1673ffffffffffffffffffffffffffffffffffffffff166370a08231306040518263ffffffff1660e01b8152600401610f9d9190613351565b60206040518083038186803b158015610fb557600080fd5b505afa158015610fc9573d6000803e3d6000fd5b505050506040513d601f19601f82011682018060405250810190610fed9190612d7c565b101561102e576040517f08c379a0000000000000000000000000000000000000000000000000000000008152600401611025906134c3565b60405180910390fd5b600b60003373ffffffffffffffffffffffffffffffffffffffff1673ffffffffffffffffffffffffffffffffffffffff16815260200190815260200160002060009054906101000a900460ff1661113b57600a339080600181540180825580915050600190039060005260206000200160009091909190916101000a81548173ffffffffffffffffffffffffffffffffffffffff021916908373ffffffffffffffffffffffffffffffffffffffff1602179055506001600b60003373ffffffffffffffffffffffffffffffffffffffff1673ffffffffffffffffffffffffffffffffffffffff16815260200190815260200160002060006101000a81548160ff0219169083151502179055505b600360009054906101000a900473ffffffffffffffffffffffffffffffffffffffff1673ffffffffffffffffffffffffffffffffffffffff1663a9059cbb33836040518363ffffffff1660e01b81526004016111989291906133cc565b602060405180830381600087803b1580156111b257600080fd5b505af11580156111c6573d6000803e3d6000fd5b505050506040513d601f19601f820116820180604052508101906111ea9190612c67565b5050565b6008602052816000526040600020818154811061120a57600080fd5b906000526020600020016000915091509054906101000a900473ffffffffffffffffffffffffffffffffffffffff1681565b60056020528160005260406000206020528060005260406000206000915091509054906101000a900460ff1681565b600c6020528060005260406000206000915090505481565b600160009054906101000a900473ffffffffffffffffffffffffffffffffffffffff1673ffffffffffffffffffffffffffffffffffffffff166393538631336040518263ffffffff1660e01b81526004016112de9190613351565b60206040518083038186803b1580156112f657600080fd5b505afa15801561130a573d6000803e3d6000fd5b505050506040513d601f19601f8201168201806040525081019061132e9190612c67565b61136d576040517f08c379a000000000000000000000000000000000000000000000000000000000815260040161136490613543565b60405180910390fd5b600b60003373ffffffffffffffffffffffffffffffffffffffff1673ffffffffffffffffffffffffffffffffffffffff16815260200190815260200160002060009054906101000a900460ff166113f9576040517f08c379a00000000000000000000000000000000000000000000000000000000081526004016113f090613623565b60405180910390fd5b600e600401543414611440576040517f08c379a000000000000000000000000000000000000000000000000000000000815260040161143790613503565b60405180910390fd5b6009600081548092919061145390613a86565b9190505550600060405180610180016040528060095481526020018681526020018581526020018481526020013373ffffffffffffffffffffffffffffffffffffffff1681526020016000815260200160008152602001428152602001600e60020154426114c1919061385e565b81526020018381526020016040518060400160405280600781526020017f70656e64696e670000000000000000000000000000000000000000000000000081525081526020016000151581525090508060046000600954815260200190815260200160002060008201518160000155602082015181600101908051906020019061154c9291906129a9565b5060408201518160020190805190602001906115699291906129a9565b5060608201518160030190805190602001906115869291906129a9565b5060808201518160040160006101000a81548173ffffffffffffffffffffffffffffffffffffffff021916908373ffffffffffffffffffffffffffffffffffffffff16021790555060a0820151816005015560c0820151816006015560e082015181600701556101008201518160080155610120820151816009015561014082015181600a01908051906020019061161f9291906129a9565b5061016082015181600b0160006101000a81548160ff0219169083151502179055509050505050505050565b601460009054906101000a900473ffffffffffffffffffffffffffffffffffffffff1681565b611679612a2f565b600e6040518060a001604052908160008201548152602001600182015481526020016002820154815260200160038201548152602001600482015481525050905090565b600760205281600052604060002081815481106116d957600080fd5b906000526020600020016000915091509054906101000a900473ffffffffffffffffffffffffffffffffffffffff1681565b61171361285f565b61171d60006128dd565b565b6000151560046000848152602001908152602001600020600b0160009054906101000a900460ff16151514611789576040517f08c379a0000000000000000000000000000000000000000000000000000000008152600401611780906135c3565b60405180910390fd5b6000600460008481526020019081526020016000206006015460046000858152602001908152602001600020600501546117c3919061385e565b90506064600e60000154600a805490506117dd91906138e5565b6117e791906138b4565b811115611853576040518060400160405280600c81526020017f7175657374696f6e61626c65000000000000000000000000000000000000000081525060046000858152602001908152602001600020600a01908051906020019061184d9291906129a9565b50611d5e565b600e60010154606482600460008781526020019081526020016000206005015461187d91906138b4565b61188791906138e5565b1115611cc1576040518060400160405280600881526020017f617070726f76656400000000000000000000000000000000000000000000000081525060046000858152602001908152602001600020600a0190805190602001906118ec9291906129a9565b5060006004600085815260200190815260200160002060040160009054906101000a900473ffffffffffffffffffffffffffffffffffffffff169050600e60040154600c60008373ffffffffffffffffffffffffffffffffffffffff1673ffffffffffffffffffffffffffffffffffffffff168152602001908152602001600020600082825461197c919061385e565b9250508190555060005b6007600086815260200190815260200160002080549050811015611a6157600e60030154600c60006007600089815260200190815260200160002084815481106119d3576119d2613b5c565b5b9060005260206000200160009054906101000a900473ffffffffffffffffffffffffffffffffffffffff1673ffffffffffffffffffffffffffffffffffffffff1673ffffffffffffffffffffffffffffffffffffffff1681526020019081526020016000206000828254611a47919061385e565b925050819055508080611a5990613a86565b915050611986565b50600060046000868152602001908152602001600020600901541115611cbb576000600260009054906101000a900473ffffffffffffffffffffffffffffffffffffffff1673ffffffffffffffffffffffffffffffffffffffff1663cebf64f5856040518263ffffffff1660e01b8152600401611ade919061365e565b60206040518083038186803b158015611af657600080fd5b505afa158015611b0a573d6000803e3d6000fd5b505050506040513d601f19601f82011682018060405250810190611b2e9190612bfa565b90506000601460009054906101000a900473ffffffffffffffffffffffffffffffffffffffff1690506013548173ffffffffffffffffffffffffffffffffffffffff1663dd62ed3e33306040518363ffffffff1660e01b8152600401611b9592919061336c565b60206040518083038186803b158015611bad57600080fd5b505afa158015611bc1573d6000803e3d6000fd5b505050506040513d601f19601f82011682018060405250810190611be59190612d7c565b1015611c26576040517f08c379a0000000000000000000000000000000000000000000000000000000008152600401611c1d90613523565b60405180910390fd5b8073ffffffffffffffffffffffffffffffffffffffff166323b872dd33846013546040518463ffffffff1660e01b8152600401611c6593929190613395565b602060405180830381600087803b158015611c7f57600080fd5b505af1158015611c93573d6000803e3d6000fd5b505050506040513d601f19601f82011682018060405250810190611cb79190612c67565b5050505b50611d5d565b600e600101546064826004600087815260200190815260200160002060060154611ceb91906138b4565b611cf591906138e5565b1115611d5c576040518060400160405280600881526020017f72656a656374656400000000000000000000000000000000000000000000000081525060046000858152602001908152602001600020600a019080519060200190611d5a9291906129a9565b505b5b5b600160046000858152602001908152602001600020600b0160006101000a81548160ff021916908315150217905550505050565b600260009054906101000a900473ffffffffffffffffffffffffffffffffffffffff1681565b60008060009054906101000a900473ffffffffffffffffffffffffffffffffffffffff16905090565b600160009054906101000a900473ffffffffffffffffffffffffffffffffffffffff1673ffffffffffffffffffffffffffffffffffffffff166393538631336040518263ffffffff1660e01b8152600401611e3c9190613351565b60206040518083038186803b158015611e5457600080fd5b505afa158015611e68573d6000803e3d6000fd5b505050506040513d601f19601f82011682018060405250810190611e8c9190612c67565b611ecb576040517f08c379a0000000000000000000000000000000000000000000000000000000008152600401611ec290613543565b60405180910390fd5b600b60003373ffffffffffffffffffffffffffffffffffffffff1673ffffffffffffffffffffffffffffffffffffffff16815260200190815260200160002060009054906101000a900460ff16611f57576040517f08c379a0000000000000000000000000000000000000000000000000000000008152600401611f4e90613603565b60405180910390fd5b3373ffffffffffffffffffffffffffffffffffffffff166004600083815260200190815260200160002060040160009054906101000a900473ffffffffffffffffffffffffffffffffffffffff1673ffffffffffffffffffffffffffffffffffffffff161415611ffc576040517f08c379a0000000000000000000000000000000000000000000000000000000008152600401611ff3906135e3565b60405180910390fd5b600560003373ffffffffffffffffffffffffffffffffffffffff1673ffffffffffffffffffffffffffffffffffffffff168152602001908152602001600020600082815260200190815260200160002060009054906101000a900460ff161561209a576040517f08c379a0000000000000000000000000000000000000000000000000000000008152600401612091906134a3565b60405180910390fd5b426004600083815260200190815260200160002060080154116120f2576040517f08c379a00000000000000000000000000000000000000000000000000000000081526004016120e990613483565b60405180910390fd5b600e600301543414612139576040517f08c379a000000000000000000000000000000000000000000000000000000000815260040161213090613583565b60405180910390fd5b6001600460008381526020019081526020016000206005015461215c919061385e565b60046000838152602001908152602001600020600501819055506001600560003373ffffffffffffffffffffffffffffffffffffffff1673ffffffffffffffffffffffffffffffffffffffff168152602001908152602001600020600083815260200190815260200160002060006101000a81548160ff02191690831515021790555060066000828152602001908152602001600020339080600181540180825580915050600190039060005260206000200160009091909190916101000a81548173ffffffffffffffffffffffffffffffffffffffff021916908373ffffffffffffffffffffffffffffffffffffffff16021790555060076000828152602001908152602001600020339080600181540180825580915050600190039060005260206000200160009091909190916101000a81548173ffffffffffffffffffffffffffffffffffffffff021916908373ffffffffffffffffffffffffffffffffffffffff16021790555050565b600160009054906101000a900473ffffffffffffffffffffffffffffffffffffffff1681565b60135481565b6006602052816000526040600020818154811061231257600080fd5b906000526020600020016000915091509054906101000a900473ffffffffffffffffffffffffffffffffffffffff1681565b6060600060095467ffffffffffffffff81111561236457612363613b8b565b5b60405190808252806020026020018201604052801561239d57816020015b61238a612a5e565b8152602001906001900390816123825790505b50905060005b6009548110156126fe57600460006001836123be919061385e565b815260200190815260200160002060405180610180016040529081600082015481526020016001820180546123f290613a23565b80601f016020809104026020016040519081016040528092919081815260200182805461241e90613a23565b801561246b5780601f106124405761010080835404028352916020019161246b565b820191906000526020600020905b81548152906001019060200180831161244e57829003601f168201915b5050505050815260200160028201805461248490613a23565b80601f01602080910402602001604051908101604052809291908181526020018280546124b090613a23565b80156124fd5780601f106124d2576101008083540402835291602001916124fd565b820191906000526020600020905b8154815290600101906020018083116124e057829003601f168201915b5050505050815260200160038201805461251690613a23565b80601f016020809104026020016040519081016040528092919081815260200182805461254290613a23565b801561258f5780601f106125645761010080835404028352916020019161258f565b820191906000526020600020905b81548152906001019060200180831161257257829003601f168201915b505050505081526020016004820160009054906101000a900473ffffffffffffffffffffffffffffffffffffffff1673ffffffffffffffffffffffffffffffffffffffff1673ffffffffffffffffffffffffffffffffffffffff1681526020016005820154815260200160068201548152602001600782015481526020016008820154815260200160098201548152602001600a8201805461263090613a23565b80601f016020809104026020016040519081016040528092919081815260200182805461265c90613a23565b80156126a95780601f1061267e576101008083540402835291602001916126a9565b820191906000526020600020905b81548152906001019060200180831161268c57829003601f168201915b50505050508152602001600b820160009054906101000a900460ff1615151515815250508282815181106126e0576126df613b5c565b5b602002602001018190525080806126f690613a86565b9150506123a3565b508091505090565b600360009054906101000a900473ffffffffffffffffffffffffffffffffffffffff1681565b60095481565b600b6020528060005260406000206000915054906101000a900460ff1681565b61275a61285f565b600073ffffffffffffffffffffffffffffffffffffffff168173ffffffffffffffffffffffffffffffffffffffff1614156127ca576040517f08c379a00000000000000000000000000000000000000000000000000000000081526004016127c1906134e3565b60405180910390fd5b6127d3816128dd565b50565b600e8060000154908060010154908060020154908060030154908060040154905085565b6040518060a0016040528086815260200185815260200184815260200183815260200182815250600e60008201518160000155602082015181600101556040820151816002015560608201518160030155608082015181600401559050505050505050565b6128676129a1565b73ffffffffffffffffffffffffffffffffffffffff16612885611db8565b73ffffffffffffffffffffffffffffffffffffffff16146128db576040517f08c379a00000000000000000000000000000000000000000000000000000000081526004016128d2906135a3565b60405180910390fd5b565b60008060009054906101000a900473ffffffffffffffffffffffffffffffffffffffff169050816000806101000a81548173ffffffffffffffffffffffffffffffffffffffff021916908373ffffffffffffffffffffffffffffffffffffffff1602179055508173ffffffffffffffffffffffffffffffffffffffff168173ffffffffffffffffffffffffffffffffffffffff167f8be0079c531659141344cd1fd0a4f28419497f9722a3daafe3b4186f6b6457e060405160405180910390a35050565b600033905090565b8280546129b590613a23565b90600052602060002090601f0160209004810192826129d75760008555612a1e565b82601f106129f057805160ff1916838001178555612a1e565b82800160010185558215612a1e579182015b82811115612a1d578251825591602001919060010190612a02565b5b509050612a2b9190612ad7565b5090565b6040518060a0016040528060008152602001600081526020016000815260200160008152602001600081525090565b60405180610180016040528060008152602001606081526020016060815260200160608152602001600073ffffffffffffffffffffffffffffffffffffffff1681526020016000815260200160008152602001600081526020016000815260200160008152602001606081526020016000151581525090565b5b80821115612af0576000816000905550600101612ad8565b5090565b6000612b07612b02846137c7565b6137a2565b905082815260208101848484011115612b2357612b22613bbf565b5b612b2e8482856139e1565b509392505050565b600081359050612b4581613f27565b92915050565b600081519050612b5a81613f27565b92915050565b600081519050612b6f81613f3e565b92915050565b600082601f830112612b8a57612b89613bba565b5b8135612b9a848260208601612af4565b91505092915050565b600081359050612bb281613f55565b92915050565b600081519050612bc781613f55565b92915050565b600060208284031215612be357612be2613bc9565b5b6000612bf184828501612b36565b91505092915050565b600060208284031215612c1057612c0f613bc9565b5b6000612c1e84828501612b4b565b91505092915050565b60008060408385031215612c3e57612c3d613bc9565b5b6000612c4c85828601612b36565b9250506020612c5d85828601612ba3565b9150509250929050565b600060208284031215612c7d57612c7c613bc9565b5b6000612c8b84828501612b60565b91505092915050565b60008060008060808587031215612cae57612cad613bc9565b5b600085013567ffffffffffffffff811115612ccc57612ccb613bc4565b5b612cd887828801612b75565b945050602085013567ffffffffffffffff811115612cf957612cf8613bc4565b5b612d0587828801612b75565b935050604085013567ffffffffffffffff811115612d2657612d25613bc4565b5b612d3287828801612b75565b9250506060612d4387828801612ba3565b91505092959194509250565b600060208284031215612d6557612d64613bc9565b5b6000612d7384828501612ba3565b91505092915050565b600060208284031215612d9257612d91613bc9565b5b6000612da084828501612bb8565b91505092915050565b60008060408385031215612dc057612dbf613bc9565b5b6000612dce85828601612ba3565b9250506020612ddf85828601612ba3565b9150509250929050565b600080600080600060a08688031215612e0557612e04613bc9565b5b6000612e1388828901612ba3565b9550506020612e2488828901612ba3565b9450506040612e3588828901612ba3565b9350506060612e4688828901612ba3565b9250506080612e5788828901612ba3565b9150509295509295909350565b6000612e7083836131b2565b905092915050565b612e818161393f565b82525050565b612e908161393f565b82525050565b6000612ea182613808565b612eab818561382b565b935083602082028501612ebd856137f8565b8060005b85811015612ef95784840389528151612eda8582612e64565b9450612ee58361381e565b925060208a01995050600181019050612ec1565b50829750879550505050505092915050565b612f1481613951565b82525050565b612f2381613951565b82525050565b612f3281613987565b82525050565b612f4181613999565b82525050565b612f50816139ab565b82525050565b6000612f6182613813565b612f6b818561383c565b9350612f7b8185602086016139f0565b612f8481613bce565b840191505092915050565b6000612f9a82613813565b612fa4818561384d565b9350612fb48185602086016139f0565b612fbd81613bce565b840191505092915050565b6000612fd560168361384d565b9150612fe082613bdf565b602082019050919050565b6000612ff8600d8361384d565b915061300382613c08565b602082019050919050565b600061301b60248361384d565b915061302682613c31565b604082019050919050565b600061303e60268361384d565b915061304982613c80565b604082019050919050565b600061306160338361384d565b915061306c82613ccf565b604082019050919050565b600061308460188361384d565b915061308f82613d1e565b602082019050919050565b60006130a7601a8361384d565b91506130b282613d47565b602082019050919050565b60006130ca60108361384d565b91506130d582613d70565b602082019050919050565b60006130ed60348361384d565b91506130f882613d99565b604082019050919050565b600061311060208361384d565b915061311b82613de8565b602082019050919050565b6000613133601f8361384d565b915061313e82613e11565b602082019050919050565b6000613156602d8361384d565b915061316182613e3a565b604082019050919050565b600061317960268361384d565b915061318482613e89565b604082019050919050565b600061319c60298361384d565b91506131a782613ed8565b604082019050919050565b6000610180830160008301516131cb6000860182613333565b50602083015184820360208601526131e38282612f56565b915050604083015184820360408601526131fd8282612f56565b915050606083015184820360608601526132178282612f56565b915050608083015161322c6080860182612e78565b5060a083015161323f60a0860182613333565b5060c083015161325260c0860182613333565b5060e083015161326560e0860182613333565b5061010083015161327a610100860182613333565b5061012083015161328f610120860182613333565b506101408301518482036101408601526132a98282612f56565b9150506101608301516132c0610160860182612f0b565b508091505092915050565b60a0820160008201516132e16000850182613333565b5060208201516132f46020850182613333565b5060408201516133076040850182613333565b50606082015161331a6060850182613333565b50608082015161332d6080850182613333565b50505050565b61333c8161397d565b82525050565b61334b8161397d565b82525050565b60006020820190506133666000830184612e87565b92915050565b60006040820190506133816000830185612e87565b61338e6020830184612e87565b9392505050565b60006060820190506133aa6000830186612e87565b6133b76020830185612e87565b6133c46040830184613342565b949350505050565b60006040820190506133e16000830185612e87565b6133ee6020830184613342565b9392505050565b6000602082019050818103600083015261340f8184612e96565b905092915050565b600060208201905061342c6000830184612f1a565b92915050565b60006020820190506134476000830184612f29565b92915050565b60006020820190506134626000830184612f38565b92915050565b600060208201905061347d6000830184612f47565b92915050565b6000602082019050818103600083015261349c81612fc8565b9050919050565b600060208201905081810360008301526134bc81612feb565b9050919050565b600060208201905081810360008301526134dc8161300e565b9050919050565b600060208201905081810360008301526134fc81613031565b9050919050565b6000602082019050818103600083015261351c81613054565b9050919050565b6000602082019050818103600083015261353c81613077565b9050919050565b6000602082019050818103600083015261355c8161309a565b9050919050565b6000602082019050818103600083015261357c816130bd565b9050919050565b6000602082019050818103600083015261359c816130e0565b9050919050565b600060208201905081810360008301526135bc81613103565b9050919050565b600060208201905081810360008301526135dc81613126565b9050919050565b600060208201905081810360008301526135fc81613149565b9050919050565b6000602082019050818103600083015261361c8161316c565b9050919050565b6000602082019050818103600083015261363c8161318f565b9050919050565b600060a08201905061365860008301846132cb565b92915050565b60006020820190506136736000830184613342565b92915050565b60006101808201905061368f600083018f613342565b81810360208301526136a1818e612f8f565b905081810360408301526136b5818d612f8f565b905081810360608301526136c9818c612f8f565b90506136d8608083018b612e87565b6136e560a083018a613342565b6136f260c0830189613342565b6136ff60e0830188613342565b61370d610100830187613342565b61371b610120830186613342565b81810361014083015261372e8185612f8f565b905061373e610160830184612f1a565b9d9c50505050505050505050505050565b600060a0820190506137646000830188613342565b6137716020830187613342565b61377e6040830186613342565b61378b6060830185613342565b6137986080830184613342565b9695505050505050565b60006137ac6137bd565b90506137b88282613a55565b919050565b6000604051905090565b600067ffffffffffffffff8211156137e2576137e1613b8b565b5b6137eb82613bce565b9050602081019050919050565b6000819050602082019050919050565b600081519050919050565b600081519050919050565b6000602082019050919050565b600082825260208201905092915050565b600082825260208201905092915050565b600082825260208201905092915050565b60006138698261397d565b91506138748361397d565b9250827fffffffffffffffffffffffffffffffffffffffffffffffffffffffffffffffff038211156138a9576138a8613acf565b5b828201905092915050565b60006138bf8261397d565b91506138ca8361397d565b9250826138da576138d9613afe565b5b828204905092915050565b60006138f08261397d565b91506138fb8361397d565b9250817fffffffffffffffffffffffffffffffffffffffffffffffffffffffffffffffff048311821515161561393457613933613acf565b5b828202905092915050565b600061394a8261395d565b9050919050565b60008115159050919050565b600073ffffffffffffffffffffffffffffffffffffffff82169050919050565b6000819050919050565b6000613992826139bd565b9050919050565b60006139a4826139bd565b9050919050565b60006139b6826139bd565b9050919050565b60006139c8826139cf565b9050919050565b60006139da8261395d565b9050919050565b82818337600083830152505050565b60005b83811015613a0e5780820151818401526020810190506139f3565b83811115613a1d576000848401525b50505050565b60006002820490506001821680613a3b57607f821691505b60208210811415613a4f57613a4e613b2d565b5b50919050565b613a5e82613bce565b810181811067ffffffffffffffff82111715613a7d57613a7c613b8b565b5b80604052505050565b6000613a918261397d565b91507fffffffffffffffffffffffffffffffffffffffffffffffffffffffffffffffff821415613ac457613ac3613acf565b5b600182019050919050565b7f4e487b7100000000000000000000000000000000000000000000000000000000600052601160045260246000fd5b7f4e487b7100000000000000000000000000000000000000000000000000000000600052601260045260246000fd5b7f4e487b7100000000000000000000000000000000000000000000000000000000600052602260045260246000fd5b7f4e487b7100000000000000000000000000000000000000000000000000000000600052603260045260246000fd5b7f4e487b7100000000000000000000000000000000000000000000000000000000600052604160045260246000fd5b600080fd5b600080fd5b600080fd5b600080fd5b6000601f19601f8301169050919050565b7f566f74696e6720506572696f642046696e697368656400000000000000000000600082015250565b7f416c726561647920566f74656400000000000000000000000000000000000000600082015250565b7f436f6e747261637420646f6573206e6f74206861766520656e6f75676820746f60008201527f6b656e7300000000000000000000000000000000000000000000000000000000602082015250565b7f4f776e61626c653a206e6577206f776e657220697320746865207a65726f206160008201527f6464726573730000000000000000000000000000000000000000000000000000602082015250565b7f596f75206861766520746f207374616b652076616c696420616d6f756e74207460008201527f6f2063726561746520612070726f706f73616c00000000000000000000000000602082015250565b7f616c6c6f77616e6365206973206e6f7420656e6f756768210000000000000000600082015250565b7f4669727374206a6f696e207468652053616d686974612044414f000000000000600082015250565b7f4e6f7420656e6f7567682076616c756500000000000000000000000000000000600082015250565b7f596f75206861766520746f207374616b652076616c696420616d6f756e74207460008201527f6f20766f7465206f6e20612070726f706f73616c000000000000000000000000602082015250565b7f4f776e61626c653a2063616c6c6572206973206e6f7420746865206f776e6572600082015250565b7f566f74696e6720726573756c7420697320616c726561647920676976656e2100600082015250565b7f50726f706f73616c2043726561746f722063616e6e6f7420766f74652068697360008201527f206f776e2070726f706f73616c00000000000000000000000000000000000000602082015250565b7f596f7520617265206e6f742061206d656d626572206f66207468652053616d6860008201527f69746144414f0000000000000000000000000000000000000000000000000000602082015250565b7f596f7520617265206e6f7420746865206d656d626572206f662074687320536160008201527f6d686974612044414f0000000000000000000000000000000000000000000000602082015250565b613f308161393f565b8114613f3b57600080fd5b50565b613f4781613951565b8114613f5257600080fd5b50565b613f5e8161397d565b8114613f6957600080fd5b5056fea26469706673582212205771672dbd920c9da64fd3593e81f77159aa27ca1e85ac9c965dd5b9606d5bf864736f6c63430008070033', \n     arguments: [\n          _samhitaAddress,\n          _templateNFTAddress,\n          _languageTokenAddress,\n     ]\n}).send({\n     from: web3.eth.accounts[0], \n     gas: '4700000'\n   }, function (e, contract){\n    console.log(e, contract);\n    if (typeof contract.address !== 'undefined') {\n         console.log('Contract mined! address: ' + contract.address + ' transactionHash: ' + contract.transactionHash);\n    }\n })",
	"functionHashes": {
		"1089f5ed": "addMember(uint256)",
		"5c042ae7": "chargeTokenAddress()",
		"4c15676b": "createProposal(string,string,string,uint256)",
		"0be4e999": "downvoteProposal(uint256)",
		"cceb68f5": "getAllProposals()",
		"5dd3983a": "getDataDaoVotingConfig()",
		"32e08142": "hasVotedForProposal(address,uint256)",
		"de0b27e5": "isMemberAdded(address)",
		"cf978530": "languageToken()",
		"392317cd": "memberWithdrawAmount(address)",
		"12293e01": "membersForDownvote(uint256,uint256)",
		"69d20dd5": "membersForUpvote(uint256,uint256)",
		"8da5cb5b": "owner()",
		"da35c664": "proposalCount()",
		"013cf08b": "proposals(uint256)",
		"715018a6": "renounceOwnership()",
		"b8997a97": "royaltyFee()",
		"a62de3ba": "samhita()",
		"f6ef8ac7": "setDataDaoVotingConfig(uint256,uint256,uint256,uint256,uint256)",
		"88fde90a": "templateNFT()",
		"f2fde38b": "transferOwnership(address)",
		"a4131a48": "upvoteProposal(uint256)",
		"b9357437": "votersForProposal(uint256,uint256)",
		"805347f5": "votingResult(uint256,uint256)",
		"f406517d": "votingconfigs()"
	},
	"gasEstimates": {
		"Creation": {
			"codeDepositCost": "3258000",
			"executionCost": "infinite",
			"totalCost": "infinite"
		},
		"External": {
			"addMember(uint256)": "infinite",
			"chargeTokenAddress()": "2559",
			"createProposal(string,string,string,uint256)": "infinite",
			"downvoteProposal(uint256)": "infinite",
			"getAllProposals()": "infinite",
			"getDataDaoVotingConfig()": "infinite",
			"hasVotedForProposal(address,uint256)": "3199",
			"isMemberAdded(address)": "2889",
			"languageToken()": "2667",
			"memberWithdrawAmount(address)": "2948",
			"membersForDownvote(uint256,uint256)": "infinite",
			"membersForUpvote(uint256,uint256)": "infinite",
			"owner()": "2567",
			"proposalCount()": "2518",
			"proposals(uint256)": "infinite",
			"renounceOwnership()": "30509",
			"royaltyFee()": "2540",
			"samhita()": "2689",
			"setDataDaoVotingConfig(uint256,uint256,uint256,uint256,uint256)": "infinite",
			"templateNFT()": "2623",
			"transferOwnership(address)": "30813",
			"upvoteProposal(uint256)": "infinite",
			"votersForProposal(uint256,uint256)": "infinite",
			"votingResult(uint256,uint256)": "infinite",
			"votingconfigs()": "infinite"
		}
	},
	"devdoc": {
		"kind": "dev",
		"methods": {
			"createProposal(string,string,string,uint256)": {
				"details": "Creates a new proposal. "
			},
			"owner()": {
				"details": "Returns the address of the current owner."
			},
			"renounceOwnership()": {
				"details": "Leaves the contract without owner. It will not be possible to call `onlyOwner` functions anymore. Can only be called by the current owner. NOTE: Renouncing ownership will leave the contract without an owner, thereby removing any functionality that is only available to the owner."
			},
			"transferOwnership(address)": {
				"details": "Transfers ownership of the contract to a new account (`newOwner`). Can only be called by the current owner."
			}
		},
		"version": 1
	},
	"userdoc": {
		"kind": "user",
		"methods": {},
		"version": 1
	},
	"Runtime Bytecode": {
		"immutableReferences": {},
		"linkReferences": {},
		"object": "6080604052600436106101665760003560e01c806388fde90a116100d1578063cceb68f51161008a578063de0b27e511610064578063de0b27e514610517578063f2fde38b14610554578063f406517d1461057d578063f6ef8ac7146105ac57610166565b8063cceb68f514610496578063cf978530146104c1578063da35c664146104ec57610166565b806388fde90a146103915780638da5cb5b146103bc578063a4131a48146103e7578063a62de3ba14610403578063b8997a971461042e578063b93574371461045957610166565b80634c15676b116101235780634c15676b146102a25780635c042ae7146102be5780635dd3983a146102e957806369d20dd514610314578063715018a614610351578063805347f51461036857610166565b8063013cf08b1461016b5780630be4e999146101b35780631089f5ed146101cf57806312293e01146101eb57806332e0814214610228578063392317cd14610265575b600080fd5b34801561017757600080fd5b50610192600480360381019061018d9190612d4f565b6105d5565b6040516101aa9c9b9a99989796959493929190613679565b60405180910390f35b6101cd60048036038101906101c89190612d4f565b610882565b005b6101e960048036038101906101e49190612d4f565b610d6b565b005b3480156101f757600080fd5b50610212600480360381019061020d9190612da9565b6111ee565b60405161021f9190613351565b60405180910390f35b34801561023457600080fd5b5061024f600480360381019061024a9190612c27565b61123c565b60405161025c9190613417565b60405180910390f35b34801561027157600080fd5b5061028c60048036038101906102879190612bcd565b61126b565b604051610299919061365e565b60405180910390f35b6102bc60048036038101906102b79190612c94565b611283565b005b3480156102ca57600080fd5b506102d361164b565b6040516102e09190613351565b60405180910390f35b3480156102f557600080fd5b506102fe611671565b60405161030b9190613643565b60405180910390f35b34801561032057600080fd5b5061033b60048036038101906103369190612da9565b6116bd565b6040516103489190613351565b60405180910390f35b34801561035d57600080fd5b5061036661170b565b005b34801561037457600080fd5b5061038f600480360381019061038a9190612da9565b61171f565b005b34801561039d57600080fd5b506103a6611d92565b6040516103b39190613468565b60405180910390f35b3480156103c857600080fd5b506103d1611db8565b6040516103de9190613351565b60405180910390f35b61040160048036038101906103fc9190612d4f565b611de1565b005b34801561040f57600080fd5b506104186122ca565b604051610425919061344d565b60405180910390f35b34801561043a57600080fd5b506104436122f0565b604051610450919061365e565b60405180910390f35b34801561046557600080fd5b50610480600480360381019061047b9190612da9565b6122f6565b60405161048d9190613351565b60405180910390f35b3480156104a257600080fd5b506104ab612344565b6040516104b891906133f5565b60405180910390f35b3480156104cd57600080fd5b506104d6612706565b6040516104e39190613432565b60405180910390f35b3480156104f857600080fd5b5061050161272c565b60405161050e919061365e565b60405180910390f35b34801561052357600080fd5b5061053e60048036038101906105399190612bcd565b612732565b60405161054b9190613417565b60405180910390f35b34801561056057600080fd5b5061057b60048036038101906105769190612bcd565b612752565b005b34801561058957600080fd5b506105926127d6565b6040516105a395949392919061374f565b60405180910390f35b3480156105b857600080fd5b506105d360048036038101906105ce9190612de9565b6127fa565b005b60046020528060005260406000206000915090508060000154908060010180546105fe90613a23565b80601f016020809104026020016040519081016040528092919081815260200182805461062a90613a23565b80156106775780601f1061064c57610100808354040283529160200191610677565b820191906000526020600020905b81548152906001019060200180831161065a57829003601f168201915b50505050509080600201805461068c90613a23565b80601f01602080910402602001604051908101604052809291908181526020018280546106b890613a23565b80156107055780601f106106da57610100808354040283529160200191610705565b820191906000526020600020905b8154815290600101906020018083116106e857829003601f168201915b50505050509080600301805461071a90613a23565b80601f016020809104026020016040519081016040528092919081815260200182805461074690613a23565b80156107935780601f1061076857610100808354040283529160200191610793565b820191906000526020600020905b81548152906001019060200180831161077657829003601f168201915b5050505050908060040160009054906101000a900473ffffffffffffffffffffffffffffffffffffffff169080600501549080600601549080600701549080600801549080600901549080600a0180546107ec90613a23565b80601f016020809104026020016040519081016040528092919081815260200182805461081890613a23565b80156108655780601f1061083a57610100808354040283529160200191610865565b820191906000526020600020905b81548152906001019060200180831161084857829003601f168201915b50505050509080600b0160009054906101000a900460ff1690508c565b600160009054906101000a900473ffffffffffffffffffffffffffffffffffffffff1673ffffffffffffffffffffffffffffffffffffffff166393538631336040518263ffffffff1660e01b81526004016108dd9190613351565b60206040518083038186803b1580156108f557600080fd5b505afa158015610909573d6000803e3d6000fd5b505050506040513d601f19601f8201168201806040525081019061092d9190612c67565b61096c576040517f08c379a000000000000000000000000000000000000000000000000000000000815260040161096390613543565b60405180910390fd5b600b60003373ffffffffffffffffffffffffffffffffffffffff1673ffffffffffffffffffffffffffffffffffffffff16815260200190815260200160002060009054906101000a900460ff166109f8576040517f08c379a00000000000000000000000000000000000000000000000000000000081526004016109ef90613603565b60405180910390fd5b3373ffffffffffffffffffffffffffffffffffffffff166004600083815260200190815260200160002060040160009054906101000a900473ffffffffffffffffffffffffffffffffffffffff1673ffffffffffffffffffffffffffffffffffffffff161415610a9d576040517f08c379a0000000000000000000000000000000000000000000000000000000008152600401610a94906135e3565b60405180910390fd5b600560003373ffffffffffffffffffffffffffffffffffffffff1673ffffffffffffffffffffffffffffffffffffffff168152602001908152602001600020600082815260200190815260200160002060009054906101000a900460ff1615610b3b576040517f08c379a0000000000000000000000000000000000000000000000000000000008152600401610b32906134a3565b60405180910390fd5b42600460008381526020019081526020016000206008015411610b93576040517f08c379a0000000000000000000000000000000000000000000000000000000008152600401610b8a90613483565b60405180910390fd5b600e600301543414610bda576040517f08c379a0000000000000000000000000000000000000000000000000000000008152600401610bd190613583565b60405180910390fd5b60016004600083815260200190815260200160002060060154610bfd919061385e565b60046000838152602001908152602001600020600601819055506001600560003373ffffffffffffffffffffffffffffffffffffffff1673ffffffffffffffffffffffffffffffffffffffff168152602001908152602001600020600083815260200190815260200160002060006101000a81548160ff02191690831515021790555060066000828152602001908152602001600020339080600181540180825580915050600190039060005260206000200160009091909190916101000a81548173ffffffffffffffffffffffffffffffffffffffff021916908373ffffffffffffffffffffffffffffffffffffffff16021790555060086000828152602001908152602001600020339080600181540180825580915050600190039060005260206000200160009091909190916101000a81548173ffffffffffffffffffffffffffffffffffffffff021916908373ffffffffffffffffffffffffffffffffffffffff16021790555050565b600160009054906101000a900473ffffffffffffffffffffffffffffffffffffffff1673ffffffffffffffffffffffffffffffffffffffff166393538631336040518263ffffffff1660e01b8152600401610dc69190613351565b60206040518083038186803b158015610dde57600080fd5b505afa158015610df2573d6000803e3d6000fd5b505050506040513d601f19601f82011682018060405250810190610e169190612c67565b610e55576040517f08c379a0000000000000000000000000000000000000000000000000000000008152600401610e4c90613543565b60405180910390fd5b600360009054906101000a900473ffffffffffffffffffffffffffffffffffffffff1673ffffffffffffffffffffffffffffffffffffffff16634b94f50e6040518163ffffffff1660e01b815260040160206040518083038186803b158015610ebd57600080fd5b505afa158015610ed1573d6000803e3d6000fd5b505050506040513d601f19601f82011682018060405250810190610ef59190612d7c565b81610f0091906138e5565b3414610f41576040517f08c379a0000000000000000000000000000000000000000000000000000000008152600401610f3890613563565b60405180910390fd5b80600360009054906101000a900473ffffffffffffffffffffffffffffffffffffffff1673ffffffffffffffffffffffffffffffffffffffff166370a08231306040518263ffffffff1660e01b8152600401610f9d9190613351565b60206040518083038186803b158015610fb557600080fd5b505afa158015610fc9573d6000803e3d6000fd5b505050506040513d601f19601f82011682018060405250810190610fed9190612d7c565b101561102e576040517f08c379a0000000000000000000000000000000000000000000000000000000008152600401611025906134c3565b60405180910390fd5b600b60003373ffffffffffffffffffffffffffffffffffffffff1673ffffffffffffffffffffffffffffffffffffffff16815260200190815260200160002060009054906101000a900460ff1661113b57600a339080600181540180825580915050600190039060005260206000200160009091909190916101000a81548173ffffffffffffffffffffffffffffffffffffffff021916908373ffffffffffffffffffffffffffffffffffffffff1602179055506001600b60003373ffffffffffffffffffffffffffffffffffffffff1673ffffffffffffffffffffffffffffffffffffffff16815260200190815260200160002060006101000a81548160ff0219169083151502179055505b600360009054906101000a900473ffffffffffffffffffffffffffffffffffffffff1673ffffffffffffffffffffffffffffffffffffffff1663a9059cbb33836040518363ffffffff1660e01b81526004016111989291906133cc565b602060405180830381600087803b1580156111b257600080fd5b505af11580156111c6573d6000803e3d6000fd5b505050506040513d601f19601f820116820180604052508101906111ea9190612c67565b5050565b6008602052816000526040600020818154811061120a57600080fd5b906000526020600020016000915091509054906101000a900473ffffffffffffffffffffffffffffffffffffffff1681565b60056020528160005260406000206020528060005260406000206000915091509054906101000a900460ff1681565b600c6020528060005260406000206000915090505481565b600160009054906101000a900473ffffffffffffffffffffffffffffffffffffffff1673ffffffffffffffffffffffffffffffffffffffff166393538631336040518263ffffffff1660e01b81526004016112de9190613351565b60206040518083038186803b1580156112f657600080fd5b505afa15801561130a573d6000803e3d6000fd5b505050506040513d601f19601f8201168201806040525081019061132e9190612c67565b61136d576040517f08c379a000000000000000000000000000000000000000000000000000000000815260040161136490613543565b60405180910390fd5b600b60003373ffffffffffffffffffffffffffffffffffffffff1673ffffffffffffffffffffffffffffffffffffffff16815260200190815260200160002060009054906101000a900460ff166113f9576040517f08c379a00000000000000000000000000000000000000000000000000000000081526004016113f090613623565b60405180910390fd5b600e600401543414611440576040517f08c379a000000000000000000000000000000000000000000000000000000000815260040161143790613503565b60405180910390fd5b6009600081548092919061145390613a86565b9190505550600060405180610180016040528060095481526020018681526020018581526020018481526020013373ffffffffffffffffffffffffffffffffffffffff1681526020016000815260200160008152602001428152602001600e60020154426114c1919061385e565b81526020018381526020016040518060400160405280600781526020017f70656e64696e670000000000000000000000000000000000000000000000000081525081526020016000151581525090508060046000600954815260200190815260200160002060008201518160000155602082015181600101908051906020019061154c9291906129a9565b5060408201518160020190805190602001906115699291906129a9565b5060608201518160030190805190602001906115869291906129a9565b5060808201518160040160006101000a81548173ffffffffffffffffffffffffffffffffffffffff021916908373ffffffffffffffffffffffffffffffffffffffff16021790555060a0820151816005015560c0820151816006015560e082015181600701556101008201518160080155610120820151816009015561014082015181600a01908051906020019061161f9291906129a9565b5061016082015181600b0160006101000a81548160ff0219169083151502179055509050505050505050565b601460009054906101000a900473ffffffffffffffffffffffffffffffffffffffff1681565b611679612a2f565b600e6040518060a001604052908160008201548152602001600182015481526020016002820154815260200160038201548152602001600482015481525050905090565b600760205281600052604060002081815481106116d957600080fd5b906000526020600020016000915091509054906101000a900473ffffffffffffffffffffffffffffffffffffffff1681565b61171361285f565b61171d60006128dd565b565b6000151560046000848152602001908152602001600020600b0160009054906101000a900460ff16151514611789576040517f08c379a0000000000000000000000000000000000000000000000000000000008152600401611780906135c3565b60405180910390fd5b6000600460008481526020019081526020016000206006015460046000858152602001908152602001600020600501546117c3919061385e565b90506064600e60000154600a805490506117dd91906138e5565b6117e791906138b4565b811115611853576040518060400160405280600c81526020017f7175657374696f6e61626c65000000000000000000000000000000000000000081525060046000858152602001908152602001600020600a01908051906020019061184d9291906129a9565b50611d5e565b600e60010154606482600460008781526020019081526020016000206005015461187d91906138b4565b61188791906138e5565b1115611cc1576040518060400160405280600881526020017f617070726f76656400000000000000000000000000000000000000000000000081525060046000858152602001908152602001600020600a0190805190602001906118ec9291906129a9565b5060006004600085815260200190815260200160002060040160009054906101000a900473ffffffffffffffffffffffffffffffffffffffff169050600e60040154600c60008373ffffffffffffffffffffffffffffffffffffffff1673ffffffffffffffffffffffffffffffffffffffff168152602001908152602001600020600082825461197c919061385e565b9250508190555060005b6007600086815260200190815260200160002080549050811015611a6157600e60030154600c60006007600089815260200190815260200160002084815481106119d3576119d2613b5c565b5b9060005260206000200160009054906101000a900473ffffffffffffffffffffffffffffffffffffffff1673ffffffffffffffffffffffffffffffffffffffff1673ffffffffffffffffffffffffffffffffffffffff1681526020019081526020016000206000828254611a47919061385e565b925050819055508080611a5990613a86565b915050611986565b50600060046000868152602001908152602001600020600901541115611cbb576000600260009054906101000a900473ffffffffffffffffffffffffffffffffffffffff1673ffffffffffffffffffffffffffffffffffffffff1663cebf64f5856040518263ffffffff1660e01b8152600401611ade919061365e565b60206040518083038186803b158015611af657600080fd5b505afa158015611b0a573d6000803e3d6000fd5b505050506040513d601f19601f82011682018060405250810190611b2e9190612bfa565b90506000601460009054906101000a900473ffffffffffffffffffffffffffffffffffffffff1690506013548173ffffffffffffffffffffffffffffffffffffffff1663dd62ed3e33306040518363ffffffff1660e01b8152600401611b9592919061336c565b60206040518083038186803b158015611bad57600080fd5b505afa158015611bc1573d6000803e3d6000fd5b505050506040513d601f19601f82011682018060405250810190611be59190612d7c565b1015611c26576040517f08c379a0000000000000000000000000000000000000000000000000000000008152600401611c1d90613523565b60405180910390fd5b8073ffffffffffffffffffffffffffffffffffffffff166323b872dd33846013546040518463ffffffff1660e01b8152600401611c6593929190613395565b602060405180830381600087803b158015611c7f57600080fd5b505af1158015611c93573d6000803e3d6000fd5b505050506040513d601f19601f82011682018060405250810190611cb79190612c67565b5050505b50611d5d565b600e600101546064826004600087815260200190815260200160002060060154611ceb91906138b4565b611cf591906138e5565b1115611d5c576040518060400160405280600881526020017f72656a656374656400000000000000000000000000000000000000000000000081525060046000858152602001908152602001600020600a019080519060200190611d5a9291906129a9565b505b5b5b600160046000858152602001908152602001600020600b0160006101000a81548160ff021916908315150217905550505050565b600260009054906101000a900473ffffffffffffffffffffffffffffffffffffffff1681565b60008060009054906101000a900473ffffffffffffffffffffffffffffffffffffffff16905090565b600160009054906101000a900473ffffffffffffffffffffffffffffffffffffffff1673ffffffffffffffffffffffffffffffffffffffff166393538631336040518263ffffffff1660e01b8152600401611e3c9190613351565b60206040518083038186803b158015611e5457600080fd5b505afa158015611e68573d6000803e3d6000fd5b505050506040513d601f19601f82011682018060405250810190611e8c9190612c67565b611ecb576040517f08c379a0000000000000000000000000000000000000000000000000000000008152600401611ec290613543565b60405180910390fd5b600b60003373ffffffffffffffffffffffffffffffffffffffff1673ffffffffffffffffffffffffffffffffffffffff16815260200190815260200160002060009054906101000a900460ff16611f57576040517f08c379a0000000000000000000000000000000000000000000000000000000008152600401611f4e90613603565b60405180910390fd5b3373ffffffffffffffffffffffffffffffffffffffff166004600083815260200190815260200160002060040160009054906101000a900473ffffffffffffffffffffffffffffffffffffffff1673ffffffffffffffffffffffffffffffffffffffff161415611ffc576040517f08c379a0000000000000000000000000000000000000000000000000000000008152600401611ff3906135e3565b60405180910390fd5b600560003373ffffffffffffffffffffffffffffffffffffffff1673ffffffffffffffffffffffffffffffffffffffff168152602001908152602001600020600082815260200190815260200160002060009054906101000a900460ff161561209a576040517f08c379a0000000000000000000000000000000000000000000000000000000008152600401612091906134a3565b60405180910390fd5b426004600083815260200190815260200160002060080154116120f2576040517f08c379a00000000000000000000000000000000000000000000000000000000081526004016120e990613483565b60405180910390fd5b600e600301543414612139576040517f08c379a000000000000000000000000000000000000000000000000000000000815260040161213090613583565b60405180910390fd5b6001600460008381526020019081526020016000206005015461215c919061385e565b60046000838152602001908152602001600020600501819055506001600560003373ffffffffffffffffffffffffffffffffffffffff1673ffffffffffffffffffffffffffffffffffffffff168152602001908152602001600020600083815260200190815260200160002060006101000a81548160ff02191690831515021790555060066000828152602001908152602001600020339080600181540180825580915050600190039060005260206000200160009091909190916101000a81548173ffffffffffffffffffffffffffffffffffffffff021916908373ffffffffffffffffffffffffffffffffffffffff16021790555060076000828152602001908152602001600020339080600181540180825580915050600190039060005260206000200160009091909190916101000a81548173ffffffffffffffffffffffffffffffffffffffff021916908373ffffffffffffffffffffffffffffffffffffffff16021790555050565b600160009054906101000a900473ffffffffffffffffffffffffffffffffffffffff1681565b60135481565b6006602052816000526040600020818154811061231257600080fd5b906000526020600020016000915091509054906101000a900473ffffffffffffffffffffffffffffffffffffffff1681565b6060600060095467ffffffffffffffff81111561236457612363613b8b565b5b60405190808252806020026020018201604052801561239d57816020015b61238a612a5e565b8152602001906001900390816123825790505b50905060005b6009548110156126fe57600460006001836123be919061385e565b815260200190815260200160002060405180610180016040529081600082015481526020016001820180546123f290613a23565b80601f016020809104026020016040519081016040528092919081815260200182805461241e90613a23565b801561246b5780601f106124405761010080835404028352916020019161246b565b820191906000526020600020905b81548152906001019060200180831161244e57829003601f168201915b5050505050815260200160028201805461248490613a23565b80601f01602080910402602001604051908101604052809291908181526020018280546124b090613a23565b80156124fd5780601f106124d2576101008083540402835291602001916124fd565b820191906000526020600020905b8154815290600101906020018083116124e057829003601f168201915b5050505050815260200160038201805461251690613a23565b80601f016020809104026020016040519081016040528092919081815260200182805461254290613a23565b801561258f5780601f106125645761010080835404028352916020019161258f565b820191906000526020600020905b81548152906001019060200180831161257257829003601f168201915b505050505081526020016004820160009054906101000a900473ffffffffffffffffffffffffffffffffffffffff1673ffffffffffffffffffffffffffffffffffffffff1673ffffffffffffffffffffffffffffffffffffffff1681526020016005820154815260200160068201548152602001600782015481526020016008820154815260200160098201548152602001600a8201805461263090613a23565b80601f016020809104026020016040519081016040528092919081815260200182805461265c90613a23565b80156126a95780601f1061267e576101008083540402835291602001916126a9565b820191906000526020600020905b81548152906001019060200180831161268c57829003601f168201915b50505050508152602001600b820160009054906101000a900460ff1615151515815250508282815181106126e0576126df613b5c565b5b602002602001018190525080806126f690613a86565b9150506123a3565b508091505090565b600360009054906101000a900473ffffffffffffffffffffffffffffffffffffffff1681565b60095481565b600b6020528060005260406000206000915054906101000a900460ff1681565b61275a61285f565b600073ffffffffffffffffffffffffffffffffffffffff168173ffffffffffffffffffffffffffffffffffffffff1614156127ca576040517f08c379a00000000000000000000000000000000000000000000000000000000081526004016127c1906134e3565b60405180910390fd5b6127d3816128dd565b50565b600e8060000154908060010154908060020154908060030154908060040154905085565b6040518060a0016040528086815260200185815260200184815260200183815260200182815250600e60008201518160000155602082015181600101556040820151816002015560608201518160030155608082015181600401559050505050505050565b6128676129a1565b73ffffffffffffffffffffffffffffffffffffffff16612885611db8565b73ffffffffffffffffffffffffffffffffffffffff16146128db576040517f08c379a00000000000000000000000000000000000000000000000000000000081526004016128d2906135a3565b60405180910390fd5b565b60008060009054906101000a900473ffffffffffffffffffffffffffffffffffffffff169050816000806101000a81548173ffffffffffffffffffffffffffffffffffffffff021916908373ffffffffffffffffffffffffffffffffffffffff1602179055508173ffffffffffffffffffffffffffffffffffffffff168173ffffffffffffffffffffffffffffffffffffffff167f8be0079c531659141344cd1fd0a4f28419497f9722a3daafe3b4186f6b6457e060405160405180910390a35050565b600033905090565b8280546129b590613a23565b90600052602060002090601f0160209004810192826129d75760008555612a1e565b82601f106129f057805160ff1916838001178555612a1e565b82800160010185558215612a1e579182015b82811115612a1d578251825591602001919060010190612a02565b5b509050612a2b9190612ad7565b5090565b6040518060a0016040528060008152602001600081526020016000815260200160008152602001600081525090565b60405180610180016040528060008152602001606081526020016060815260200160608152602001600073ffffffffffffffffffffffffffffffffffffffff1681526020016000815260200160008152602001600081526020016000815260200160008152602001606081526020016000151581525090565b5b80821115612af0576000816000905550600101612ad8565b5090565b6000612b07612b02846137c7565b6137a2565b905082815260208101848484011115612b2357612b22613bbf565b5b612b2e8482856139e1565b509392505050565b600081359050612b4581613f27565b92915050565b600081519050612b5a81613f27565b92915050565b600081519050612b6f81613f3e565b92915050565b600082601f830112612b8a57612b89613bba565b5b8135612b9a848260208601612af4565b91505092915050565b600081359050612bb281613f55565b92915050565b600081519050612bc781613f55565b92915050565b600060208284031215612be357612be2613bc9565b5b6000612bf184828501612b36565b91505092915050565b600060208284031215612c1057612c0f613bc9565b5b6000612c1e84828501612b4b565b91505092915050565b60008060408385031215612c3e57612c3d613bc9565b5b6000612c4c85828601612b36565b9250506020612c5d85828601612ba3565b9150509250929050565b600060208284031215612c7d57612c7c613bc9565b5b6000612c8b84828501612b60565b91505092915050565b60008060008060808587031215612cae57612cad613bc9565b5b600085013567ffffffffffffffff811115612ccc57612ccb613bc4565b5b612cd887828801612b75565b945050602085013567ffffffffffffffff811115612cf957612cf8613bc4565b5b612d0587828801612b75565b935050604085013567ffffffffffffffff811115612d2657612d25613bc4565b5b612d3287828801612b75565b9250506060612d4387828801612ba3565b91505092959194509250565b600060208284031215612d6557612d64613bc9565b5b6000612d7384828501612ba3565b91505092915050565b600060208284031215612d9257612d91613bc9565b5b6000612da084828501612bb8565b91505092915050565b60008060408385031215612dc057612dbf613bc9565b5b6000612dce85828601612ba3565b9250506020612ddf85828601612ba3565b9150509250929050565b600080600080600060a08688031215612e0557612e04613bc9565b5b6000612e1388828901612ba3565b9550506020612e2488828901612ba3565b9450506040612e3588828901612ba3565b9350506060612e4688828901612ba3565b9250506080612e5788828901612ba3565b9150509295509295909350565b6000612e7083836131b2565b905092915050565b612e818161393f565b82525050565b612e908161393f565b82525050565b6000612ea182613808565b612eab818561382b565b935083602082028501612ebd856137f8565b8060005b85811015612ef95784840389528151612eda8582612e64565b9450612ee58361381e565b925060208a01995050600181019050612ec1565b50829750879550505050505092915050565b612f1481613951565b82525050565b612f2381613951565b82525050565b612f3281613987565b82525050565b612f4181613999565b82525050565b612f50816139ab565b82525050565b6000612f6182613813565b612f6b818561383c565b9350612f7b8185602086016139f0565b612f8481613bce565b840191505092915050565b6000612f9a82613813565b612fa4818561384d565b9350612fb48185602086016139f0565b612fbd81613bce565b840191505092915050565b6000612fd560168361384d565b9150612fe082613bdf565b602082019050919050565b6000612ff8600d8361384d565b915061300382613c08565b602082019050919050565b600061301b60248361384d565b915061302682613c31565b604082019050919050565b600061303e60268361384d565b915061304982613c80565b604082019050919050565b600061306160338361384d565b915061306c82613ccf565b604082019050919050565b600061308460188361384d565b915061308f82613d1e565b602082019050919050565b60006130a7601a8361384d565b91506130b282613d47565b602082019050919050565b60006130ca60108361384d565b91506130d582613d70565b602082019050919050565b60006130ed60348361384d565b91506130f882613d99565b604082019050919050565b600061311060208361384d565b915061311b82613de8565b602082019050919050565b6000613133601f8361384d565b915061313e82613e11565b602082019050919050565b6000613156602d8361384d565b915061316182613e3a565b604082019050919050565b600061317960268361384d565b915061318482613e89565b604082019050919050565b600061319c60298361384d565b91506131a782613ed8565b604082019050919050565b6000610180830160008301516131cb6000860182613333565b50602083015184820360208601526131e38282612f56565b915050604083015184820360408601526131fd8282612f56565b915050606083015184820360608601526132178282612f56565b915050608083015161322c6080860182612e78565b5060a083015161323f60a0860182613333565b5060c083015161325260c0860182613333565b5060e083015161326560e0860182613333565b5061010083015161327a610100860182613333565b5061012083015161328f610120860182613333565b506101408301518482036101408601526132a98282612f56565b9150506101608301516132c0610160860182612f0b565b508091505092915050565b60a0820160008201516132e16000850182613333565b5060208201516132f46020850182613333565b5060408201516133076040850182613333565b50606082015161331a6060850182613333565b50608082015161332d6080850182613333565b50505050565b61333c8161397d565b82525050565b61334b8161397d565b82525050565b60006020820190506133666000830184612e87565b92915050565b60006040820190506133816000830185612e87565b61338e6020830184612e87565b9392505050565b60006060820190506133aa6000830186612e87565b6133b76020830185612e87565b6133c46040830184613342565b949350505050565b60006040820190506133e16000830185612e87565b6133ee6020830184613342565b9392505050565b6000602082019050818103600083015261340f8184612e96565b905092915050565b600060208201905061342c6000830184612f1a565b92915050565b60006020820190506134476000830184612f29565b92915050565b60006020820190506134626000830184612f38565b92915050565b600060208201905061347d6000830184612f47565b92915050565b6000602082019050818103600083015261349c81612fc8565b9050919050565b600060208201905081810360008301526134bc81612feb565b9050919050565b600060208201905081810360008301526134dc8161300e565b9050919050565b600060208201905081810360008301526134fc81613031565b9050919050565b6000602082019050818103600083015261351c81613054565b9050919050565b6000602082019050818103600083015261353c81613077565b9050919050565b6000602082019050818103600083015261355c8161309a565b9050919050565b6000602082019050818103600083015261357c816130bd565b9050919050565b6000602082019050818103600083015261359c816130e0565b9050919050565b600060208201905081810360008301526135bc81613103565b9050919050565b600060208201905081810360008301526135dc81613126565b9050919050565b600060208201905081810360008301526135fc81613149565b9050919050565b6000602082019050818103600083015261361c8161316c565b9050919050565b6000602082019050818103600083015261363c8161318f565b9050919050565b600060a08201905061365860008301846132cb565b92915050565b60006020820190506136736000830184613342565b92915050565b60006101808201905061368f600083018f613342565b81810360208301526136a1818e612f8f565b905081810360408301526136b5818d612f8f565b905081810360608301526136c9818c612f8f565b90506136d8608083018b612e87565b6136e560a083018a613342565b6136f260c0830189613342565b6136ff60e0830188613342565b61370d610100830187613342565b61371b610120830186613342565b81810361014083015261372e8185612f8f565b905061373e610160830184612f1a565b9d9c50505050505050505050505050565b600060a0820190506137646000830188613342565b6137716020830187613342565b61377e6040830186613342565b61378b6060830185613342565b6137986080830184613342565b9695505050505050565b60006137ac6137bd565b90506137b88282613a55565b919050565b6000604051905090565b600067ffffffffffffffff8211156137e2576137e1613b8b565b5b6137eb82613bce565b9050602081019050919050565b6000819050602082019050919050565b600081519050919050565b600081519050919050565b6000602082019050919050565b600082825260208201905092915050565b600082825260208201905092915050565b600082825260208201905092915050565b60006138698261397d565b91506138748361397d565b9250827fffffffffffffffffffffffffffffffffffffffffffffffffffffffffffffffff038211156138a9576138a8613acf565b5b828201905092915050565b60006138bf8261397d565b91506138ca8361397d565b9250826138da576138d9613afe565b5b828204905092915050565b60006138f08261397d565b91506138fb8361397d565b9250817fffffffffffffffffffffffffffffffffffffffffffffffffffffffffffffffff048311821515161561393457613933613acf565b5b828202905092915050565b600061394a8261395d565b9050919050565b60008115159050919050565b600073ffffffffffffffffffffffffffffffffffffffff82169050919050565b6000819050919050565b6000613992826139bd565b9050919050565b60006139a4826139bd565b9050919050565b60006139b6826139bd565b9050919050565b60006139c8826139cf565b9050919050565b60006139da8261395d565b9050919050565b82818337600083830152505050565b60005b83811015613a0e5780820151818401526020810190506139f3565b83811115613a1d576000848401525b50505050565b60006002820490506001821680613a3b57607f821691505b60208210811415613a4f57613a4e613b2d565b5b50919050565b613a5e82613bce565b810181811067ffffffffffffffff82111715613a7d57613a7c613b8b565b5b80604052505050565b6000613a918261397d565b91507fffffffffffffffffffffffffffffffffffffffffffffffffffffffffffffffff821415613ac457613ac3613acf565b5b600182019050919050565b7f4e487b7100000000000000000000000000000000000000000000000000000000600052601160045260246000fd5b7f4e487b7100000000000000000000000000000000000000000000000000000000600052601260045260246000fd5b7f4e487b7100000000000000000000000000000000000000000000000000000000600052602260045260246000fd5b7f4e487b7100000000000000000000000000000000000000000000000000000000600052603260045260246000fd5b7f4e487b7100000000000000000000000000000000000000000000000000000000600052604160045260246000fd5b600080fd5b600080fd5b600080fd5b600080fd5b6000601f19601f8301169050919050565b7f566f74696e6720506572696f642046696e697368656400000000000000000000600082015250565b7f416c726561647920566f74656400000000000000000000000000000000000000600082015250565b7f436f6e747261637420646f6573206e6f74206861766520656e6f75676820746f60008201527f6b656e7300000000000000000000000000000000000000000000000000000000602082015250565b7f4f776e61626c653a206e6577206f776e657220697320746865207a65726f206160008201527f6464726573730000000000000000000000000000000000000000000000000000602082015250565b7f596f75206861766520746f207374616b652076616c696420616d6f756e74207460008201527f6f2063726561746520612070726f706f73616c00000000000000000000000000602082015250565b7f616c6c6f77616e6365206973206e6f7420656e6f756768210000000000000000600082015250565b7f4669727374206a6f696e207468652053616d686974612044414f000000000000600082015250565b7f4e6f7420656e6f7567682076616c756500000000000000000000000000000000600082015250565b7f596f75206861766520746f207374616b652076616c696420616d6f756e74207460008201527f6f20766f7465206f6e20612070726f706f73616c000000000000000000000000602082015250565b7f4f776e61626c653a2063616c6c6572206973206e6f7420746865206f776e6572600082015250565b7f566f74696e6720726573756c7420697320616c726561647920676976656e2100600082015250565b7f50726f706f73616c2043726561746f722063616e6e6f7420766f74652068697360008201527f206f776e2070726f706f73616c00000000000000000000000000000000000000602082015250565b7f596f7520617265206e6f742061206d656d626572206f66207468652053616d6860008201527f69746144414f0000000000000000000000000000000000000000000000000000602082015250565b7f596f7520617265206e6f7420746865206d656d626572206f662074687320536160008201527f6d686974612044414f0000000000000000000000000000000000000000000000602082015250565b613f308161393f565b8114613f3b57600080fd5b50565b613f4781613951565b8114613f5257600080fd5b50565b613f5e8161397d565b8114613f6957600080fd5b5056fea26469706673582212205771672dbd920c9da64fd3593e81f77159aa27ca1e85ac9c965dd5b9606d5bf864736f6c63430008070033",
		"opcodes": "PUSH1 0x80 PUSH1 0x40 MSTORE PUSH1 0x4 CALLDATASIZE LT PUSH2 0x166 JUMPI PUSH1 0x0 CALLDATALOAD PUSH1 0xE0 SHR DUP1 PUSH4 0x88FDE90A GT PUSH2 0xD1 JUMPI DUP1 PUSH4 0xCCEB68F5 GT PUSH2 0x8A JUMPI DUP1 PUSH4 0xDE0B27E5 GT PUSH2 0x64 JUMPI DUP1 PUSH4 0xDE0B27E5 EQ PUSH2 0x517 JUMPI DUP1 PUSH4 0xF2FDE38B EQ PUSH2 0x554 JUMPI DUP1 PUSH4 0xF406517D EQ PUSH2 0x57D JUMPI DUP1 PUSH4 0xF6EF8AC7 EQ PUSH2 0x5AC JUMPI PUSH2 0x166 JUMP JUMPDEST DUP1 PUSH4 0xCCEB68F5 EQ PUSH2 0x496 JUMPI DUP1 PUSH4 0xCF978530 EQ PUSH2 0x4C1 JUMPI DUP1 PUSH4 0xDA35C664 EQ PUSH2 0x4EC JUMPI PUSH2 0x166 JUMP JUMPDEST DUP1 PUSH4 0x88FDE90A EQ PUSH2 0x391 JUMPI DUP1 PUSH4 0x8DA5CB5B EQ PUSH2 0x3BC JUMPI DUP1 PUSH4 0xA4131A48 EQ PUSH2 0x3E7 JUMPI DUP1 PUSH4 0xA62DE3BA EQ PUSH2 0x403 JUMPI DUP1 PUSH4 0xB8997A97 EQ PUSH2 0x42E JUMPI DUP1 PUSH4 0xB9357437 EQ PUSH2 0x459 JUMPI PUSH2 0x166 JUMP JUMPDEST DUP1 PUSH4 0x4C15676B GT PUSH2 0x123 JUMPI DUP1 PUSH4 0x4C15676B EQ PUSH2 0x2A2 JUMPI DUP1 PUSH4 0x5C042AE7 EQ PUSH2 0x2BE JUMPI DUP1 PUSH4 0x5DD3983A EQ PUSH2 0x2E9 JUMPI DUP1 PUSH4 0x69D20DD5 EQ PUSH2 0x314 JUMPI DUP1 PUSH4 0x715018A6 EQ PUSH2 0x351 JUMPI DUP1 PUSH4 0x805347F5 EQ PUSH2 0x368 JUMPI PUSH2 0x166 JUMP JUMPDEST DUP1 PUSH4 0x13CF08B EQ PUSH2 0x16B JUMPI DUP1 PUSH4 0xBE4E999 EQ PUSH2 0x1B3 JUMPI DUP1 PUSH4 0x1089F5ED EQ PUSH2 0x1CF JUMPI DUP1 PUSH4 0x12293E01 EQ PUSH2 0x1EB JUMPI DUP1 PUSH4 0x32E08142 EQ PUSH2 0x228 JUMPI DUP1 PUSH4 0x392317CD EQ PUSH2 0x265 JUMPI JUMPDEST PUSH1 0x0 DUP1 REVERT JUMPDEST CALLVALUE DUP1 ISZERO PUSH2 0x177 JUMPI PUSH1 0x0 DUP1 REVERT JUMPDEST POP PUSH2 0x192 PUSH1 0x4 DUP1 CALLDATASIZE SUB DUP2 ADD SWAP1 PUSH2 0x18D SWAP2 SWAP1 PUSH2 0x2D4F JUMP JUMPDEST PUSH2 0x5D5 JUMP JUMPDEST PUSH1 0x40 MLOAD PUSH2 0x1AA SWAP13 SWAP12 SWAP11 SWAP10 SWAP9 SWAP8 SWAP7 SWAP6 SWAP5 SWAP4 SWAP3 SWAP2 SWAP1 PUSH2 0x3679 JUMP JUMPDEST PUSH1 0x40 MLOAD DUP1 SWAP2 SUB SWAP1 RETURN JUMPDEST PUSH2 0x1CD PUSH1 0x4 DUP1 CALLDATASIZE SUB DUP2 ADD SWAP1 PUSH2 0x1C8 SWAP2 SWAP1 PUSH2 0x2D4F JUMP JUMPDEST PUSH2 0x882 JUMP JUMPDEST STOP JUMPDEST PUSH2 0x1E9 PUSH1 0x4 DUP1 CALLDATASIZE SUB DUP2 ADD SWAP1 PUSH2 0x1E4 SWAP2 SWAP1 PUSH2 0x2D4F JUMP JUMPDEST PUSH2 0xD6B JUMP JUMPDEST STOP JUMPDEST CALLVALUE DUP1 ISZERO PUSH2 0x1F7 JUMPI PUSH1 0x0 DUP1 REVERT JUMPDEST POP PUSH2 0x212 PUSH1 0x4 DUP1 CALLDATASIZE SUB DUP2 ADD SWAP1 PUSH2 0x20D SWAP2 SWAP1 PUSH2 0x2DA9 JUMP JUMPDEST PUSH2 0x11EE JUMP JUMPDEST PUSH1 0x40 MLOAD PUSH2 0x21F SWAP2 SWAP1 PUSH2 0x3351 JUMP JUMPDEST PUSH1 0x40 MLOAD DUP1 SWAP2 SUB SWAP1 RETURN JUMPDEST CALLVALUE DUP1 ISZERO PUSH2 0x234 JUMPI PUSH1 0x0 DUP1 REVERT JUMPDEST POP PUSH2 0x24F PUSH1 0x4 DUP1 CALLDATASIZE SUB DUP2 ADD SWAP1 PUSH2 0x24A SWAP2 SWAP1 PUSH2 0x2C27 JUMP JUMPDEST PUSH2 0x123C JUMP JUMPDEST PUSH1 0x40 MLOAD PUSH2 0x25C SWAP2 SWAP1 PUSH2 0x3417 JUMP JUMPDEST PUSH1 0x40 MLOAD DUP1 SWAP2 SUB SWAP1 RETURN JUMPDEST CALLVALUE DUP1 ISZERO PUSH2 0x271 JUMPI PUSH1 0x0 DUP1 REVERT JUMPDEST POP PUSH2 0x28C PUSH1 0x4 DUP1 CALLDATASIZE SUB DUP2 ADD SWAP1 PUSH2 0x287 SWAP2 SWAP1 PUSH2 0x2BCD JUMP JUMPDEST PUSH2 0x126B JUMP JUMPDEST PUSH1 0x40 MLOAD PUSH2 0x299 SWAP2 SWAP1 PUSH2 0x365E JUMP JUMPDEST PUSH1 0x40 MLOAD DUP1 SWAP2 SUB SWAP1 RETURN JUMPDEST PUSH2 0x2BC PUSH1 0x4 DUP1 CALLDATASIZE SUB DUP2 ADD SWAP1 PUSH2 0x2B7 SWAP2 SWAP1 PUSH2 0x2C94 JUMP JUMPDEST PUSH2 0x1283 JUMP JUMPDEST STOP JUMPDEST CALLVALUE DUP1 ISZERO PUSH2 0x2CA JUMPI PUSH1 0x0 DUP1 REVERT JUMPDEST POP PUSH2 0x2D3 PUSH2 0x164B JUMP JUMPDEST PUSH1 0x40 MLOAD PUSH2 0x2E0 SWAP2 SWAP1 PUSH2 0x3351 JUMP JUMPDEST PUSH1 0x40 MLOAD DUP1 SWAP2 SUB SWAP1 RETURN JUMPDEST CALLVALUE DUP1 ISZERO PUSH2 0x2F5 JUMPI PUSH1 0x0 DUP1 REVERT JUMPDEST POP PUSH2 0x2FE PUSH2 0x1671 JUMP JUMPDEST PUSH1 0x40 MLOAD PUSH2 0x30B SWAP2 SWAP1 PUSH2 0x3643 JUMP JUMPDEST PUSH1 0x40 MLOAD DUP1 SWAP2 SUB SWAP1 RETURN JUMPDEST CALLVALUE DUP1 ISZERO PUSH2 0x320 JUMPI PUSH1 0x0 DUP1 REVERT JUMPDEST POP PUSH2 0x33B PUSH1 0x4 DUP1 CALLDATASIZE SUB DUP2 ADD SWAP1 PUSH2 0x336 SWAP2 SWAP1 PUSH2 0x2DA9 JUMP JUMPDEST PUSH2 0x16BD JUMP JUMPDEST PUSH1 0x40 MLOAD PUSH2 0x348 SWAP2 SWAP1 PUSH2 0x3351 JUMP JUMPDEST PUSH1 0x40 MLOAD DUP1 SWAP2 SUB SWAP1 RETURN JUMPDEST CALLVALUE DUP1 ISZERO PUSH2 0x35D JUMPI PUSH1 0x0 DUP1 REVERT JUMPDEST POP PUSH2 0x366 PUSH2 0x170B JUMP JUMPDEST STOP JUMPDEST CALLVALUE DUP1 ISZERO PUSH2 0x374 JUMPI PUSH1 0x0 DUP1 REVERT JUMPDEST POP PUSH2 0x38F PUSH1 0x4 DUP1 CALLDATASIZE SUB DUP2 ADD SWAP1 PUSH2 0x38A SWAP2 SWAP1 PUSH2 0x2DA9 JUMP JUMPDEST PUSH2 0x171F JUMP JUMPDEST STOP JUMPDEST CALLVALUE DUP1 ISZERO PUSH2 0x39D JUMPI PUSH1 0x0 DUP1 REVERT JUMPDEST POP PUSH2 0x3A6 PUSH2 0x1D92 JUMP JUMPDEST PUSH1 0x40 MLOAD PUSH2 0x3B3 SWAP2 SWAP1 PUSH2 0x3468 JUMP JUMPDEST PUSH1 0x40 MLOAD DUP1 SWAP2 SUB SWAP1 RETURN JUMPDEST CALLVALUE DUP1 ISZERO PUSH2 0x3C8 JUMPI PUSH1 0x0 DUP1 REVERT JUMPDEST POP PUSH2 0x3D1 PUSH2 0x1DB8 JUMP JUMPDEST PUSH1 0x40 MLOAD PUSH2 0x3DE SWAP2 SWAP1 PUSH2 0x3351 JUMP JUMPDEST PUSH1 0x40 MLOAD DUP1 SWAP2 SUB SWAP1 RETURN JUMPDEST PUSH2 0x401 PUSH1 0x4 DUP1 CALLDATASIZE SUB DUP2 ADD SWAP1 PUSH2 0x3FC SWAP2 SWAP1 PUSH2 0x2D4F JUMP JUMPDEST PUSH2 0x1DE1 JUMP JUMPDEST STOP JUMPDEST CALLVALUE DUP1 ISZERO PUSH2 0x40F JUMPI PUSH1 0x0 DUP1 REVERT JUMPDEST POP PUSH2 0x418 PUSH2 0x22CA JUMP JUMPDEST PUSH1 0x40 MLOAD PUSH2 0x425 SWAP2 SWAP1 PUSH2 0x344D JUMP JUMPDEST PUSH1 0x40 MLOAD DUP1 SWAP2 SUB SWAP1 RETURN JUMPDEST CALLVALUE DUP1 ISZERO PUSH2 0x43A JUMPI PUSH1 0x0 DUP1 REVERT JUMPDEST POP PUSH2 0x443 PUSH2 0x22F0 JUMP JUMPDEST PUSH1 0x40 MLOAD PUSH2 0x450 SWAP2 SWAP1 PUSH2 0x365E JUMP JUMPDEST PUSH1 0x40 MLOAD DUP1 SWAP2 SUB SWAP1 RETURN JUMPDEST CALLVALUE DUP1 ISZERO PUSH2 0x465 JUMPI PUSH1 0x0 DUP1 REVERT JUMPDEST POP PUSH2 0x480 PUSH1 0x4 DUP1 CALLDATASIZE SUB DUP2 ADD SWAP1 PUSH2 0x47B SWAP2 SWAP1 PUSH2 0x2DA9 JUMP JUMPDEST PUSH2 0x22F6 JUMP JUMPDEST PUSH1 0x40 MLOAD PUSH2 0x48D SWAP2 SWAP1 PUSH2 0x3351 JUMP JUMPDEST PUSH1 0x40 MLOAD DUP1 SWAP2 SUB SWAP1 RETURN JUMPDEST CALLVALUE DUP1 ISZERO PUSH2 0x4A2 JUMPI PUSH1 0x0 DUP1 REVERT JUMPDEST POP PUSH2 0x4AB PUSH2 0x2344 JUMP JUMPDEST PUSH1 0x40 MLOAD PUSH2 0x4B8 SWAP2 SWAP1 PUSH2 0x33F5 JUMP JUMPDEST PUSH1 0x40 MLOAD DUP1 SWAP2 SUB SWAP1 RETURN JUMPDEST CALLVALUE DUP1 ISZERO PUSH2 0x4CD JUMPI PUSH1 0x0 DUP1 REVERT JUMPDEST POP PUSH2 0x4D6 PUSH2 0x2706 JUMP JUMPDEST PUSH1 0x40 MLOAD PUSH2 0x4E3 SWAP2 SWAP1 PUSH2 0x3432 JUMP JUMPDEST PUSH1 0x40 MLOAD DUP1 SWAP2 SUB SWAP1 RETURN JUMPDEST CALLVALUE DUP1 ISZERO PUSH2 0x4F8 JUMPI PUSH1 0x0 DUP1 REVERT JUMPDEST POP PUSH2 0x501 PUSH2 0x272C JUMP JUMPDEST PUSH1 0x40 MLOAD PUSH2 0x50E SWAP2 SWAP1 PUSH2 0x365E JUMP JUMPDEST PUSH1 0x40 MLOAD DUP1 SWAP2 SUB SWAP1 RETURN JUMPDEST CALLVALUE DUP1 ISZERO PUSH2 0x523 JUMPI PUSH1 0x0 DUP1 REVERT JUMPDEST POP PUSH2 0x53E PUSH1 0x4 DUP1 CALLDATASIZE SUB DUP2 ADD SWAP1 PUSH2 0x539 SWAP2 SWAP1 PUSH2 0x2BCD JUMP JUMPDEST PUSH2 0x2732 JUMP JUMPDEST PUSH1 0x40 MLOAD PUSH2 0x54B SWAP2 SWAP1 PUSH2 0x3417 JUMP JUMPDEST PUSH1 0x40 MLOAD DUP1 SWAP2 SUB SWAP1 RETURN JUMPDEST CALLVALUE DUP1 ISZERO PUSH2 0x560 JUMPI PUSH1 0x0 DUP1 REVERT JUMPDEST POP PUSH2 0x57B PUSH1 0x4 DUP1 CALLDATASIZE SUB DUP2 ADD SWAP1 PUSH2 0x576 SWAP2 SWAP1 PUSH2 0x2BCD JUMP JUMPDEST PUSH2 0x2752 JUMP JUMPDEST STOP JUMPDEST CALLVALUE DUP1 ISZERO PUSH2 0x589 JUMPI PUSH1 0x0 DUP1 REVERT JUMPDEST POP PUSH2 0x592 PUSH2 0x27D6 JUMP JUMPDEST PUSH1 0x40 MLOAD PUSH2 0x5A3 SWAP6 SWAP5 SWAP4 SWAP3 SWAP2 SWAP1 PUSH2 0x374F JUMP JUMPDEST PUSH1 0x40 MLOAD DUP1 SWAP2 SUB SWAP1 RETURN JUMPDEST CALLVALUE DUP1 ISZERO PUSH2 0x5B8 JUMPI PUSH1 0x0 DUP1 REVERT JUMPDEST POP PUSH2 0x5D3 PUSH1 0x4 DUP1 CALLDATASIZE SUB DUP2 ADD SWAP1 PUSH2 0x5CE SWAP2 SWAP1 PUSH2 0x2DE9 JUMP JUMPDEST PUSH2 0x27FA JUMP JUMPDEST STOP JUMPDEST PUSH1 0x4 PUSH1 0x20 MSTORE DUP1 PUSH1 0x0 MSTORE PUSH1 0x40 PUSH1 0x0 KECCAK256 PUSH1 0x0 SWAP2 POP SWAP1 POP DUP1 PUSH1 0x0 ADD SLOAD SWAP1 DUP1 PUSH1 0x1 ADD DUP1 SLOAD PUSH2 0x5FE SWAP1 PUSH2 0x3A23 JUMP JUMPDEST DUP1 PUSH1 0x1F ADD PUSH1 0x20 DUP1 SWAP2 DIV MUL PUSH1 0x20 ADD PUSH1 0x40 MLOAD SWAP1 DUP2 ADD PUSH1 0x40 MSTORE DUP1 SWAP3 SWAP2 SWAP1 DUP2 DUP2 MSTORE PUSH1 0x20 ADD DUP3 DUP1 SLOAD PUSH2 0x62A SWAP1 PUSH2 0x3A23 JUMP JUMPDEST DUP1 ISZERO PUSH2 0x677 JUMPI DUP1 PUSH1 0x1F LT PUSH2 0x64C JUMPI PUSH2 0x100 DUP1 DUP4 SLOAD DIV MUL DUP4 MSTORE SWAP2 PUSH1 0x20 ADD SWAP2 PUSH2 0x677 JUMP JUMPDEST DUP3 ADD SWAP2 SWAP1 PUSH1 0x0 MSTORE PUSH1 0x20 PUSH1 0x0 KECCAK256 SWAP1 JUMPDEST DUP2 SLOAD DUP2 MSTORE SWAP1 PUSH1 0x1 ADD SWAP1 PUSH1 0x20 ADD DUP1 DUP4 GT PUSH2 0x65A JUMPI DUP3 SWAP1 SUB PUSH1 0x1F AND DUP3 ADD SWAP2 JUMPDEST POP POP POP POP POP SWAP1 DUP1 PUSH1 0x2 ADD DUP1 SLOAD PUSH2 0x68C SWAP1 PUSH2 0x3A23 JUMP JUMPDEST DUP1 PUSH1 0x1F ADD PUSH1 0x20 DUP1 SWAP2 DIV MUL PUSH1 0x20 ADD PUSH1 0x40 MLOAD SWAP1 DUP2 ADD PUSH1 0x40 MSTORE DUP1 SWAP3 SWAP2 SWAP1 DUP2 DUP2 MSTORE PUSH1 0x20 ADD DUP3 DUP1 SLOAD PUSH2 0x6B8 SWAP1 PUSH2 0x3A23 JUMP JUMPDEST DUP1 ISZERO PUSH2 0x705 JUMPI DUP1 PUSH1 0x1F LT PUSH2 0x6DA JUMPI PUSH2 0x100 DUP1 DUP4 SLOAD DIV MUL DUP4 MSTORE SWAP2 PUSH1 0x20 ADD SWAP2 PUSH2 0x705 JUMP JUMPDEST DUP3 ADD SWAP2 SWAP1 PUSH1 0x0 MSTORE PUSH1 0x20 PUSH1 0x0 KECCAK256 SWAP1 JUMPDEST DUP2 SLOAD DUP2 MSTORE SWAP1 PUSH1 0x1 ADD SWAP1 PUSH1 0x20 ADD DUP1 DUP4 GT PUSH2 0x6E8 JUMPI DUP3 SWAP1 SUB PUSH1 0x1F AND DUP3 ADD SWAP2 JUMPDEST POP POP POP POP POP SWAP1 DUP1 PUSH1 0x3 ADD DUP1 SLOAD PUSH2 0x71A SWAP1 PUSH2 0x3A23 JUMP JUMPDEST DUP1 PUSH1 0x1F ADD PUSH1 0x20 DUP1 SWAP2 DIV MUL PUSH1 0x20 ADD PUSH1 0x40 MLOAD SWAP1 DUP2 ADD PUSH1 0x40 MSTORE DUP1 SWAP3 SWAP2 SWAP1 DUP2 DUP2 MSTORE PUSH1 0x20 ADD DUP3 DUP1 SLOAD PUSH2 0x746 SWAP1 PUSH2 0x3A23 JUMP JUMPDEST DUP1 ISZERO PUSH2 0x793 JUMPI DUP1 PUSH1 0x1F LT PUSH2 0x768 JUMPI PUSH2 0x100 DUP1 DUP4 SLOAD DIV MUL DUP4 MSTORE SWAP2 PUSH1 0x20 ADD SWAP2 PUSH2 0x793 JUMP JUMPDEST DUP3 ADD SWAP2 SWAP1 PUSH1 0x0 MSTORE PUSH1 0x20 PUSH1 0x0 KECCAK256 SWAP1 JUMPDEST DUP2 SLOAD DUP2 MSTORE SWAP1 PUSH1 0x1 ADD SWAP1 PUSH1 0x20 ADD DUP1 DUP4 GT PUSH2 0x776 JUMPI DUP3 SWAP1 SUB PUSH1 0x1F AND DUP3 ADD SWAP2 JUMPDEST POP POP POP POP POP SWAP1 DUP1 PUSH1 0x4 ADD PUSH1 0x0 SWAP1 SLOAD SWAP1 PUSH2 0x100 EXP SWAP1 DIV PUSH20 0xFFFFFFFFFFFFFFFFFFFFFFFFFFFFFFFFFFFFFFFF AND SWAP1 DUP1 PUSH1 0x5 ADD SLOAD SWAP1 DUP1 PUSH1 0x6 ADD SLOAD SWAP1 DUP1 PUSH1 0x7 ADD SLOAD SWAP1 DUP1 PUSH1 0x8 ADD SLOAD SWAP1 DUP1 PUSH1 0x9 ADD SLOAD SWAP1 DUP1 PUSH1 0xA ADD DUP1 SLOAD PUSH2 0x7EC SWAP1 PUSH2 0x3A23 JUMP JUMPDEST DUP1 PUSH1 0x1F ADD PUSH1 0x20 DUP1 SWAP2 DIV MUL PUSH1 0x20 ADD PUSH1 0x40 MLOAD SWAP1 DUP2 ADD PUSH1 0x40 MSTORE DUP1 SWAP3 SWAP2 SWAP1 DUP2 DUP2 MSTORE PUSH1 0x20 ADD DUP3 DUP1 SLOAD PUSH2 0x818 SWAP1 PUSH2 0x3A23 JUMP JUMPDEST DUP1 ISZERO PUSH2 0x865 JUMPI DUP1 PUSH1 0x1F LT PUSH2 0x83A JUMPI PUSH2 0x100 DUP1 DUP4 SLOAD DIV MUL DUP4 MSTORE SWAP2 PUSH1 0x20 ADD SWAP2 PUSH2 0x865 JUMP JUMPDEST DUP3 ADD SWAP2 SWAP1 PUSH1 0x0 MSTORE PUSH1 0x20 PUSH1 0x0 KECCAK256 SWAP1 JUMPDEST DUP2 SLOAD DUP2 MSTORE SWAP1 PUSH1 0x1 ADD SWAP1 PUSH1 0x20 ADD DUP1 DUP4 GT PUSH2 0x848 JUMPI DUP3 SWAP1 SUB PUSH1 0x1F AND DUP3 ADD SWAP2 JUMPDEST POP POP POP POP POP SWAP1 DUP1 PUSH1 0xB ADD PUSH1 0x0 SWAP1 SLOAD SWAP1 PUSH2 0x100 EXP SWAP1 DIV PUSH1 0xFF AND SWAP1 POP DUP13 JUMP JUMPDEST PUSH1 0x1 PUSH1 0x0 SWAP1 SLOAD SWAP1 PUSH2 0x100 EXP SWAP1 DIV PUSH20 0xFFFFFFFFFFFFFFFFFFFFFFFFFFFFFFFFFFFFFFFF AND PUSH20 0xFFFFFFFFFFFFFFFFFFFFFFFFFFFFFFFFFFFFFFFF AND PUSH4 0x93538631 CALLER PUSH1 0x40 MLOAD DUP3 PUSH4 0xFFFFFFFF AND PUSH1 0xE0 SHL DUP2 MSTORE PUSH1 0x4 ADD PUSH2 0x8DD SWAP2 SWAP1 PUSH2 0x3351 JUMP JUMPDEST PUSH1 0x20 PUSH1 0x40 MLOAD DUP1 DUP4 SUB DUP2 DUP7 DUP1 EXTCODESIZE ISZERO DUP1 ISZERO PUSH2 0x8F5 JUMPI PUSH1 0x0 DUP1 REVERT JUMPDEST POP GAS STATICCALL ISZERO DUP1 ISZERO PUSH2 0x909 JUMPI RETURNDATASIZE PUSH1 0x0 DUP1 RETURNDATACOPY RETURNDATASIZE PUSH1 0x0 REVERT JUMPDEST POP POP POP POP PUSH1 0x40 MLOAD RETURNDATASIZE PUSH1 0x1F NOT PUSH1 0x1F DUP3 ADD AND DUP3 ADD DUP1 PUSH1 0x40 MSTORE POP DUP2 ADD SWAP1 PUSH2 0x92D SWAP2 SWAP1 PUSH2 0x2C67 JUMP JUMPDEST PUSH2 0x96C JUMPI PUSH1 0x40 MLOAD PUSH32 0x8C379A000000000000000000000000000000000000000000000000000000000 DUP2 MSTORE PUSH1 0x4 ADD PUSH2 0x963 SWAP1 PUSH2 0x3543 JUMP JUMPDEST PUSH1 0x40 MLOAD DUP1 SWAP2 SUB SWAP1 REVERT JUMPDEST PUSH1 0xB PUSH1 0x0 CALLER PUSH20 0xFFFFFFFFFFFFFFFFFFFFFFFFFFFFFFFFFFFFFFFF AND PUSH20 0xFFFFFFFFFFFFFFFFFFFFFFFFFFFFFFFFFFFFFFFF AND DUP2 MSTORE PUSH1 0x20 ADD SWAP1 DUP2 MSTORE PUSH1 0x20 ADD PUSH1 0x0 KECCAK256 PUSH1 0x0 SWAP1 SLOAD SWAP1 PUSH2 0x100 EXP SWAP1 DIV PUSH1 0xFF AND PUSH2 0x9F8 JUMPI PUSH1 0x40 MLOAD PUSH32 0x8C379A000000000000000000000000000000000000000000000000000000000 DUP2 MSTORE PUSH1 0x4 ADD PUSH2 0x9EF SWAP1 PUSH2 0x3603 JUMP JUMPDEST PUSH1 0x40 MLOAD DUP1 SWAP2 SUB SWAP1 REVERT JUMPDEST CALLER PUSH20 0xFFFFFFFFFFFFFFFFFFFFFFFFFFFFFFFFFFFFFFFF AND PUSH1 0x4 PUSH1 0x0 DUP4 DUP2 MSTORE PUSH1 0x20 ADD SWAP1 DUP2 MSTORE PUSH1 0x20 ADD PUSH1 0x0 KECCAK256 PUSH1 0x4 ADD PUSH1 0x0 SWAP1 SLOAD SWAP1 PUSH2 0x100 EXP SWAP1 DIV PUSH20 0xFFFFFFFFFFFFFFFFFFFFFFFFFFFFFFFFFFFFFFFF AND PUSH20 0xFFFFFFFFFFFFFFFFFFFFFFFFFFFFFFFFFFFFFFFF AND EQ ISZERO PUSH2 0xA9D JUMPI PUSH1 0x40 MLOAD PUSH32 0x8C379A000000000000000000000000000000000000000000000000000000000 DUP2 MSTORE PUSH1 0x4 ADD PUSH2 0xA94 SWAP1 PUSH2 0x35E3 JUMP JUMPDEST PUSH1 0x40 MLOAD DUP1 SWAP2 SUB SWAP1 REVERT JUMPDEST PUSH1 0x5 PUSH1 0x0 CALLER PUSH20 0xFFFFFFFFFFFFFFFFFFFFFFFFFFFFFFFFFFFFFFFF AND PUSH20 0xFFFFFFFFFFFFFFFFFFFFFFFFFFFFFFFFFFFFFFFF AND DUP2 MSTORE PUSH1 0x20 ADD SWAP1 DUP2 MSTORE PUSH1 0x20 ADD PUSH1 0x0 KECCAK256 PUSH1 0x0 DUP3 DUP2 MSTORE PUSH1 0x20 ADD SWAP1 DUP2 MSTORE PUSH1 0x20 ADD PUSH1 0x0 KECCAK256 PUSH1 0x0 SWAP1 SLOAD SWAP1 PUSH2 0x100 EXP SWAP1 DIV PUSH1 0xFF AND ISZERO PUSH2 0xB3B JUMPI PUSH1 0x40 MLOAD PUSH32 0x8C379A000000000000000000000000000000000000000000000000000000000 DUP2 MSTORE PUSH1 0x4 ADD PUSH2 0xB32 SWAP1 PUSH2 0x34A3 JUMP JUMPDEST PUSH1 0x40 MLOAD DUP1 SWAP2 SUB SWAP1 REVERT JUMPDEST TIMESTAMP PUSH1 0x4 PUSH1 0x0 DUP4 DUP2 MSTORE PUSH1 0x20 ADD SWAP1 DUP2 MSTORE PUSH1 0x20 ADD PUSH1 0x0 KECCAK256 PUSH1 0x8 ADD SLOAD GT PUSH2 0xB93 JUMPI PUSH1 0x40 MLOAD PUSH32 0x8C379A000000000000000000000000000000000000000000000000000000000 DUP2 MSTORE PUSH1 0x4 ADD PUSH2 0xB8A SWAP1 PUSH2 0x3483 JUMP JUMPDEST PUSH1 0x40 MLOAD DUP1 SWAP2 SUB SWAP1 REVERT JUMPDEST PUSH1 0xE PUSH1 0x3 ADD SLOAD CALLVALUE EQ PUSH2 0xBDA JUMPI PUSH1 0x40 MLOAD PUSH32 0x8C379A000000000000000000000000000000000000000000000000000000000 DUP2 MSTORE PUSH1 0x4 ADD PUSH2 0xBD1 SWAP1 PUSH2 0x3583 JUMP JUMPDEST PUSH1 0x40 MLOAD DUP1 SWAP2 SUB SWAP1 REVERT JUMPDEST PUSH1 0x1 PUSH1 0x4 PUSH1 0x0 DUP4 DUP2 MSTORE PUSH1 0x20 ADD SWAP1 DUP2 MSTORE PUSH1 0x20 ADD PUSH1 0x0 KECCAK256 PUSH1 0x6 ADD SLOAD PUSH2 0xBFD SWAP2 SWAP1 PUSH2 0x385E JUMP JUMPDEST PUSH1 0x4 PUSH1 0x0 DUP4 DUP2 MSTORE PUSH1 0x20 ADD SWAP1 DUP2 MSTORE PUSH1 0x20 ADD PUSH1 0x0 KECCAK256 PUSH1 0x6 ADD DUP2 SWAP1 SSTORE POP PUSH1 0x1 PUSH1 0x5 PUSH1 0x0 CALLER PUSH20 0xFFFFFFFFFFFFFFFFFFFFFFFFFFFFFFFFFFFFFFFF AND PUSH20 0xFFFFFFFFFFFFFFFFFFFFFFFFFFFFFFFFFFFFFFFF AND DUP2 MSTORE PUSH1 0x20 ADD SWAP1 DUP2 MSTORE PUSH1 0x20 ADD PUSH1 0x0 KECCAK256 PUSH1 0x0 DUP4 DUP2 MSTORE PUSH1 0x20 ADD SWAP1 DUP2 MSTORE PUSH1 0x20 ADD PUSH1 0x0 KECCAK256 PUSH1 0x0 PUSH2 0x100 EXP DUP2 SLOAD DUP2 PUSH1 0xFF MUL NOT AND SWAP1 DUP4 ISZERO ISZERO MUL OR SWAP1 SSTORE POP PUSH1 0x6 PUSH1 0x0 DUP3 DUP2 MSTORE PUSH1 0x20 ADD SWAP1 DUP2 MSTORE PUSH1 0x20 ADD PUSH1 0x0 KECCAK256 CALLER SWAP1 DUP1 PUSH1 0x1 DUP2 SLOAD ADD DUP1 DUP3 SSTORE DUP1 SWAP2 POP POP PUSH1 0x1 SWAP1 SUB SWAP1 PUSH1 0x0 MSTORE PUSH1 0x20 PUSH1 0x0 KECCAK256 ADD PUSH1 0x0 SWAP1 SWAP2 SWAP1 SWAP2 SWAP1 SWAP2 PUSH2 0x100 EXP DUP2 SLOAD DUP2 PUSH20 0xFFFFFFFFFFFFFFFFFFFFFFFFFFFFFFFFFFFFFFFF MUL NOT AND SWAP1 DUP4 PUSH20 0xFFFFFFFFFFFFFFFFFFFFFFFFFFFFFFFFFFFFFFFF AND MUL OR SWAP1 SSTORE POP PUSH1 0x8 PUSH1 0x0 DUP3 DUP2 MSTORE PUSH1 0x20 ADD SWAP1 DUP2 MSTORE PUSH1 0x20 ADD PUSH1 0x0 KECCAK256 CALLER SWAP1 DUP1 PUSH1 0x1 DUP2 SLOAD ADD DUP1 DUP3 SSTORE DUP1 SWAP2 POP POP PUSH1 0x1 SWAP1 SUB SWAP1 PUSH1 0x0 MSTORE PUSH1 0x20 PUSH1 0x0 KECCAK256 ADD PUSH1 0x0 SWAP1 SWAP2 SWAP1 SWAP2 SWAP1 SWAP2 PUSH2 0x100 EXP DUP2 SLOAD DUP2 PUSH20 0xFFFFFFFFFFFFFFFFFFFFFFFFFFFFFFFFFFFFFFFF MUL NOT AND SWAP1 DUP4 PUSH20 0xFFFFFFFFFFFFFFFFFFFFFFFFFFFFFFFFFFFFFFFF AND MUL OR SWAP1 SSTORE POP POP JUMP JUMPDEST PUSH1 0x1 PUSH1 0x0 SWAP1 SLOAD SWAP1 PUSH2 0x100 EXP SWAP1 DIV PUSH20 0xFFFFFFFFFFFFFFFFFFFFFFFFFFFFFFFFFFFFFFFF AND PUSH20 0xFFFFFFFFFFFFFFFFFFFFFFFFFFFFFFFFFFFFFFFF AND PUSH4 0x93538631 CALLER PUSH1 0x40 MLOAD DUP3 PUSH4 0xFFFFFFFF AND PUSH1 0xE0 SHL DUP2 MSTORE PUSH1 0x4 ADD PUSH2 0xDC6 SWAP2 SWAP1 PUSH2 0x3351 JUMP JUMPDEST PUSH1 0x20 PUSH1 0x40 MLOAD DUP1 DUP4 SUB DUP2 DUP7 DUP1 EXTCODESIZE ISZERO DUP1 ISZERO PUSH2 0xDDE JUMPI PUSH1 0x0 DUP1 REVERT JUMPDEST POP GAS STATICCALL ISZERO DUP1 ISZERO PUSH2 0xDF2 JUMPI RETURNDATASIZE PUSH1 0x0 DUP1 RETURNDATACOPY RETURNDATASIZE PUSH1 0x0 REVERT JUMPDEST POP POP POP POP PUSH1 0x40 MLOAD RETURNDATASIZE PUSH1 0x1F NOT PUSH1 0x1F DUP3 ADD AND DUP3 ADD DUP1 PUSH1 0x40 MSTORE POP DUP2 ADD SWAP1 PUSH2 0xE16 SWAP2 SWAP1 PUSH2 0x2C67 JUMP JUMPDEST PUSH2 0xE55 JUMPI PUSH1 0x40 MLOAD PUSH32 0x8C379A000000000000000000000000000000000000000000000000000000000 DUP2 MSTORE PUSH1 0x4 ADD PUSH2 0xE4C SWAP1 PUSH2 0x3543 JUMP JUMPDEST PUSH1 0x40 MLOAD DUP1 SWAP2 SUB SWAP1 REVERT JUMPDEST PUSH1 0x3 PUSH1 0x0 SWAP1 SLOAD SWAP1 PUSH2 0x100 EXP SWAP1 DIV PUSH20 0xFFFFFFFFFFFFFFFFFFFFFFFFFFFFFFFFFFFFFFFF AND PUSH20 0xFFFFFFFFFFFFFFFFFFFFFFFFFFFFFFFFFFFFFFFF AND PUSH4 0x4B94F50E PUSH1 0x40 MLOAD DUP2 PUSH4 0xFFFFFFFF AND PUSH1 0xE0 SHL DUP2 MSTORE PUSH1 0x4 ADD PUSH1 0x20 PUSH1 0x40 MLOAD DUP1 DUP4 SUB DUP2 DUP7 DUP1 EXTCODESIZE ISZERO DUP1 ISZERO PUSH2 0xEBD JUMPI PUSH1 0x0 DUP1 REVERT JUMPDEST POP GAS STATICCALL ISZERO DUP1 ISZERO PUSH2 0xED1 JUMPI RETURNDATASIZE PUSH1 0x0 DUP1 RETURNDATACOPY RETURNDATASIZE PUSH1 0x0 REVERT JUMPDEST POP POP POP POP PUSH1 0x40 MLOAD RETURNDATASIZE PUSH1 0x1F NOT PUSH1 0x1F DUP3 ADD AND DUP3 ADD DUP1 PUSH1 0x40 MSTORE POP DUP2 ADD SWAP1 PUSH2 0xEF5 SWAP2 SWAP1 PUSH2 0x2D7C JUMP JUMPDEST DUP2 PUSH2 0xF00 SWAP2 SWAP1 PUSH2 0x38E5 JUMP JUMPDEST CALLVALUE EQ PUSH2 0xF41 JUMPI PUSH1 0x40 MLOAD PUSH32 0x8C379A000000000000000000000000000000000000000000000000000000000 DUP2 MSTORE PUSH1 0x4 ADD PUSH2 0xF38 SWAP1 PUSH2 0x3563 JUMP JUMPDEST PUSH1 0x40 MLOAD DUP1 SWAP2 SUB SWAP1 REVERT JUMPDEST DUP1 PUSH1 0x3 PUSH1 0x0 SWAP1 SLOAD SWAP1 PUSH2 0x100 EXP SWAP1 DIV PUSH20 0xFFFFFFFFFFFFFFFFFFFFFFFFFFFFFFFFFFFFFFFF AND PUSH20 0xFFFFFFFFFFFFFFFFFFFFFFFFFFFFFFFFFFFFFFFF AND PUSH4 0x70A08231 ADDRESS PUSH1 0x40 MLOAD DUP3 PUSH4 0xFFFFFFFF AND PUSH1 0xE0 SHL DUP2 MSTORE PUSH1 0x4 ADD PUSH2 0xF9D SWAP2 SWAP1 PUSH2 0x3351 JUMP JUMPDEST PUSH1 0x20 PUSH1 0x40 MLOAD DUP1 DUP4 SUB DUP2 DUP7 DUP1 EXTCODESIZE ISZERO DUP1 ISZERO PUSH2 0xFB5 JUMPI PUSH1 0x0 DUP1 REVERT JUMPDEST POP GAS STATICCALL ISZERO DUP1 ISZERO PUSH2 0xFC9 JUMPI RETURNDATASIZE PUSH1 0x0 DUP1 RETURNDATACOPY RETURNDATASIZE PUSH1 0x0 REVERT JUMPDEST POP POP POP POP PUSH1 0x40 MLOAD RETURNDATASIZE PUSH1 0x1F NOT PUSH1 0x1F DUP3 ADD AND DUP3 ADD DUP1 PUSH1 0x40 MSTORE POP DUP2 ADD SWAP1 PUSH2 0xFED SWAP2 SWAP1 PUSH2 0x2D7C JUMP JUMPDEST LT ISZERO PUSH2 0x102E JUMPI PUSH1 0x40 MLOAD PUSH32 0x8C379A000000000000000000000000000000000000000000000000000000000 DUP2 MSTORE PUSH1 0x4 ADD PUSH2 0x1025 SWAP1 PUSH2 0x34C3 JUMP JUMPDEST PUSH1 0x40 MLOAD DUP1 SWAP2 SUB SWAP1 REVERT JUMPDEST PUSH1 0xB PUSH1 0x0 CALLER PUSH20 0xFFFFFFFFFFFFFFFFFFFFFFFFFFFFFFFFFFFFFFFF AND PUSH20 0xFFFFFFFFFFFFFFFFFFFFFFFFFFFFFFFFFFFFFFFF AND DUP2 MSTORE PUSH1 0x20 ADD SWAP1 DUP2 MSTORE PUSH1 0x20 ADD PUSH1 0x0 KECCAK256 PUSH1 0x0 SWAP1 SLOAD SWAP1 PUSH2 0x100 EXP SWAP1 DIV PUSH1 0xFF AND PUSH2 0x113B JUMPI PUSH1 0xA CALLER SWAP1 DUP1 PUSH1 0x1 DUP2 SLOAD ADD DUP1 DUP3 SSTORE DUP1 SWAP2 POP POP PUSH1 0x1 SWAP1 SUB SWAP1 PUSH1 0x0 MSTORE PUSH1 0x20 PUSH1 0x0 KECCAK256 ADD PUSH1 0x0 SWAP1 SWAP2 SWAP1 SWAP2 SWAP1 SWAP2 PUSH2 0x100 EXP DUP2 SLOAD DUP2 PUSH20 0xFFFFFFFFFFFFFFFFFFFFFFFFFFFFFFFFFFFFFFFF MUL NOT AND SWAP1 DUP4 PUSH20 0xFFFFFFFFFFFFFFFFFFFFFFFFFFFFFFFFFFFFFFFF AND MUL OR SWAP1 SSTORE POP PUSH1 0x1 PUSH1 0xB PUSH1 0x0 CALLER PUSH20 0xFFFFFFFFFFFFFFFFFFFFFFFFFFFFFFFFFFFFFFFF AND PUSH20 0xFFFFFFFFFFFFFFFFFFFFFFFFFFFFFFFFFFFFFFFF AND DUP2 MSTORE PUSH1 0x20 ADD SWAP1 DUP2 MSTORE PUSH1 0x20 ADD PUSH1 0x0 KECCAK256 PUSH1 0x0 PUSH2 0x100 EXP DUP2 SLOAD DUP2 PUSH1 0xFF MUL NOT AND SWAP1 DUP4 ISZERO ISZERO MUL OR SWAP1 SSTORE POP JUMPDEST PUSH1 0x3 PUSH1 0x0 SWAP1 SLOAD SWAP1 PUSH2 0x100 EXP SWAP1 DIV PUSH20 0xFFFFFFFFFFFFFFFFFFFFFFFFFFFFFFFFFFFFFFFF AND PUSH20 0xFFFFFFFFFFFFFFFFFFFFFFFFFFFFFFFFFFFFFFFF AND PUSH4 0xA9059CBB CALLER DUP4 PUSH1 0x40 MLOAD DUP4 PUSH4 0xFFFFFFFF AND PUSH1 0xE0 SHL DUP2 MSTORE PUSH1 0x4 ADD PUSH2 0x1198 SWAP3 SWAP2 SWAP1 PUSH2 0x33CC JUMP JUMPDEST PUSH1 0x20 PUSH1 0x40 MLOAD DUP1 DUP4 SUB DUP2 PUSH1 0x0 DUP8 DUP1 EXTCODESIZE ISZERO DUP1 ISZERO PUSH2 0x11B2 JUMPI PUSH1 0x0 DUP1 REVERT JUMPDEST POP GAS CALL ISZERO DUP1 ISZERO PUSH2 0x11C6 JUMPI RETURNDATASIZE PUSH1 0x0 DUP1 RETURNDATACOPY RETURNDATASIZE PUSH1 0x0 REVERT JUMPDEST POP POP POP POP PUSH1 0x40 MLOAD RETURNDATASIZE PUSH1 0x1F NOT PUSH1 0x1F DUP3 ADD AND DUP3 ADD DUP1 PUSH1 0x40 MSTORE POP DUP2 ADD SWAP1 PUSH2 0x11EA SWAP2 SWAP1 PUSH2 0x2C67 JUMP JUMPDEST POP POP JUMP JUMPDEST PUSH1 0x8 PUSH1 0x20 MSTORE DUP2 PUSH1 0x0 MSTORE PUSH1 0x40 PUSH1 0x0 KECCAK256 DUP2 DUP2 SLOAD DUP2 LT PUSH2 0x120A JUMPI PUSH1 0x0 DUP1 REVERT JUMPDEST SWAP1 PUSH1 0x0 MSTORE PUSH1 0x20 PUSH1 0x0 KECCAK256 ADD PUSH1 0x0 SWAP2 POP SWAP2 POP SWAP1 SLOAD SWAP1 PUSH2 0x100 EXP SWAP1 DIV PUSH20 0xFFFFFFFFFFFFFFFFFFFFFFFFFFFFFFFFFFFFFFFF AND DUP2 JUMP JUMPDEST PUSH1 0x5 PUSH1 0x20 MSTORE DUP2 PUSH1 0x0 MSTORE PUSH1 0x40 PUSH1 0x0 KECCAK256 PUSH1 0x20 MSTORE DUP1 PUSH1 0x0 MSTORE PUSH1 0x40 PUSH1 0x0 KECCAK256 PUSH1 0x0 SWAP2 POP SWAP2 POP SWAP1 SLOAD SWAP1 PUSH2 0x100 EXP SWAP1 DIV PUSH1 0xFF AND DUP2 JUMP JUMPDEST PUSH1 0xC PUSH1 0x20 MSTORE DUP1 PUSH1 0x0 MSTORE PUSH1 0x40 PUSH1 0x0 KECCAK256 PUSH1 0x0 SWAP2 POP SWAP1 POP SLOAD DUP2 JUMP JUMPDEST PUSH1 0x1 PUSH1 0x0 SWAP1 SLOAD SWAP1 PUSH2 0x100 EXP SWAP1 DIV PUSH20 0xFFFFFFFFFFFFFFFFFFFFFFFFFFFFFFFFFFFFFFFF AND PUSH20 0xFFFFFFFFFFFFFFFFFFFFFFFFFFFFFFFFFFFFFFFF AND PUSH4 0x93538631 CALLER PUSH1 0x40 MLOAD DUP3 PUSH4 0xFFFFFFFF AND PUSH1 0xE0 SHL DUP2 MSTORE PUSH1 0x4 ADD PUSH2 0x12DE SWAP2 SWAP1 PUSH2 0x3351 JUMP JUMPDEST PUSH1 0x20 PUSH1 0x40 MLOAD DUP1 DUP4 SUB DUP2 DUP7 DUP1 EXTCODESIZE ISZERO DUP1 ISZERO PUSH2 0x12F6 JUMPI PUSH1 0x0 DUP1 REVERT JUMPDEST POP GAS STATICCALL ISZERO DUP1 ISZERO PUSH2 0x130A JUMPI RETURNDATASIZE PUSH1 0x0 DUP1 RETURNDATACOPY RETURNDATASIZE PUSH1 0x0 REVERT JUMPDEST POP POP POP POP PUSH1 0x40 MLOAD RETURNDATASIZE PUSH1 0x1F NOT PUSH1 0x1F DUP3 ADD AND DUP3 ADD DUP1 PUSH1 0x40 MSTORE POP DUP2 ADD SWAP1 PUSH2 0x132E SWAP2 SWAP1 PUSH2 0x2C67 JUMP JUMPDEST PUSH2 0x136D JUMPI PUSH1 0x40 MLOAD PUSH32 0x8C379A000000000000000000000000000000000000000000000000000000000 DUP2 MSTORE PUSH1 0x4 ADD PUSH2 0x1364 SWAP1 PUSH2 0x3543 JUMP JUMPDEST PUSH1 0x40 MLOAD DUP1 SWAP2 SUB SWAP1 REVERT JUMPDEST PUSH1 0xB PUSH1 0x0 CALLER PUSH20 0xFFFFFFFFFFFFFFFFFFFFFFFFFFFFFFFFFFFFFFFF AND PUSH20 0xFFFFFFFFFFFFFFFFFFFFFFFFFFFFFFFFFFFFFFFF AND DUP2 MSTORE PUSH1 0x20 ADD SWAP1 DUP2 MSTORE PUSH1 0x20 ADD PUSH1 0x0 KECCAK256 PUSH1 0x0 SWAP1 SLOAD SWAP1 PUSH2 0x100 EXP SWAP1 DIV PUSH1 0xFF AND PUSH2 0x13F9 JUMPI PUSH1 0x40 MLOAD PUSH32 0x8C379A000000000000000000000000000000000000000000000000000000000 DUP2 MSTORE PUSH1 0x4 ADD PUSH2 0x13F0 SWAP1 PUSH2 0x3623 JUMP JUMPDEST PUSH1 0x40 MLOAD DUP1 SWAP2 SUB SWAP1 REVERT JUMPDEST PUSH1 0xE PUSH1 0x4 ADD SLOAD CALLVALUE EQ PUSH2 0x1440 JUMPI PUSH1 0x40 MLOAD PUSH32 0x8C379A000000000000000000000000000000000000000000000000000000000 DUP2 MSTORE PUSH1 0x4 ADD PUSH2 0x1437 SWAP1 PUSH2 0x3503 JUMP JUMPDEST PUSH1 0x40 MLOAD DUP1 SWAP2 SUB SWAP1 REVERT JUMPDEST PUSH1 0x9 PUSH1 0x0 DUP2 SLOAD DUP1 SWAP3 SWAP2 SWAP1 PUSH2 0x1453 SWAP1 PUSH2 0x3A86 JUMP JUMPDEST SWAP2 SWAP1 POP SSTORE POP PUSH1 0x0 PUSH1 0x40 MLOAD DUP1 PUSH2 0x180 ADD PUSH1 0x40 MSTORE DUP1 PUSH1 0x9 SLOAD DUP2 MSTORE PUSH1 0x20 ADD DUP7 DUP2 MSTORE PUSH1 0x20 ADD DUP6 DUP2 MSTORE PUSH1 0x20 ADD DUP5 DUP2 MSTORE PUSH1 0x20 ADD CALLER PUSH20 0xFFFFFFFFFFFFFFFFFFFFFFFFFFFFFFFFFFFFFFFF AND DUP2 MSTORE PUSH1 0x20 ADD PUSH1 0x0 DUP2 MSTORE PUSH1 0x20 ADD PUSH1 0x0 DUP2 MSTORE PUSH1 0x20 ADD TIMESTAMP DUP2 MSTORE PUSH1 0x20 ADD PUSH1 0xE PUSH1 0x2 ADD SLOAD TIMESTAMP PUSH2 0x14C1 SWAP2 SWAP1 PUSH2 0x385E JUMP JUMPDEST DUP2 MSTORE PUSH1 0x20 ADD DUP4 DUP2 MSTORE PUSH1 0x20 ADD PUSH1 0x40 MLOAD DUP1 PUSH1 0x40 ADD PUSH1 0x40 MSTORE DUP1 PUSH1 0x7 DUP2 MSTORE PUSH1 0x20 ADD PUSH32 0x70656E64696E6700000000000000000000000000000000000000000000000000 DUP2 MSTORE POP DUP2 MSTORE PUSH1 0x20 ADD PUSH1 0x0 ISZERO ISZERO DUP2 MSTORE POP SWAP1 POP DUP1 PUSH1 0x4 PUSH1 0x0 PUSH1 0x9 SLOAD DUP2 MSTORE PUSH1 0x20 ADD SWAP1 DUP2 MSTORE PUSH1 0x20 ADD PUSH1 0x0 KECCAK256 PUSH1 0x0 DUP3 ADD MLOAD DUP2 PUSH1 0x0 ADD SSTORE PUSH1 0x20 DUP3 ADD MLOAD DUP2 PUSH1 0x1 ADD SWAP1 DUP1 MLOAD SWAP1 PUSH1 0x20 ADD SWAP1 PUSH2 0x154C SWAP3 SWAP2 SWAP1 PUSH2 0x29A9 JUMP JUMPDEST POP PUSH1 0x40 DUP3 ADD MLOAD DUP2 PUSH1 0x2 ADD SWAP1 DUP1 MLOAD SWAP1 PUSH1 0x20 ADD SWAP1 PUSH2 0x1569 SWAP3 SWAP2 SWAP1 PUSH2 0x29A9 JUMP JUMPDEST POP PUSH1 0x60 DUP3 ADD MLOAD DUP2 PUSH1 0x3 ADD SWAP1 DUP1 MLOAD SWAP1 PUSH1 0x20 ADD SWAP1 PUSH2 0x1586 SWAP3 SWAP2 SWAP1 PUSH2 0x29A9 JUMP JUMPDEST POP PUSH1 0x80 DUP3 ADD MLOAD DUP2 PUSH1 0x4 ADD PUSH1 0x0 PUSH2 0x100 EXP DUP2 SLOAD DUP2 PUSH20 0xFFFFFFFFFFFFFFFFFFFFFFFFFFFFFFFFFFFFFFFF MUL NOT AND SWAP1 DUP4 PUSH20 0xFFFFFFFFFFFFFFFFFFFFFFFFFFFFFFFFFFFFFFFF AND MUL OR SWAP1 SSTORE POP PUSH1 0xA0 DUP3 ADD MLOAD DUP2 PUSH1 0x5 ADD SSTORE PUSH1 0xC0 DUP3 ADD MLOAD DUP2 PUSH1 0x6 ADD SSTORE PUSH1 0xE0 DUP3 ADD MLOAD DUP2 PUSH1 0x7 ADD SSTORE PUSH2 0x100 DUP3 ADD MLOAD DUP2 PUSH1 0x8 ADD SSTORE PUSH2 0x120 DUP3 ADD MLOAD DUP2 PUSH1 0x9 ADD SSTORE PUSH2 0x140 DUP3 ADD MLOAD DUP2 PUSH1 0xA ADD SWAP1 DUP1 MLOAD SWAP1 PUSH1 0x20 ADD SWAP1 PUSH2 0x161F SWAP3 SWAP2 SWAP1 PUSH2 0x29A9 JUMP JUMPDEST POP PUSH2 0x160 DUP3 ADD MLOAD DUP2 PUSH1 0xB ADD PUSH1 0x0 PUSH2 0x100 EXP DUP2 SLOAD DUP2 PUSH1 0xFF MUL NOT AND SWAP1 DUP4 ISZERO ISZERO MUL OR SWAP1 SSTORE POP SWAP1 POP POP POP POP POP POP POP JUMP JUMPDEST PUSH1 0x14 PUSH1 0x0 SWAP1 SLOAD SWAP1 PUSH2 0x100 EXP SWAP1 DIV PUSH20 0xFFFFFFFFFFFFFFFFFFFFFFFFFFFFFFFFFFFFFFFF AND DUP2 JUMP JUMPDEST PUSH2 0x1679 PUSH2 0x2A2F JUMP JUMPDEST PUSH1 0xE PUSH1 0x40 MLOAD DUP1 PUSH1 0xA0 ADD PUSH1 0x40 MSTORE SWAP1 DUP2 PUSH1 0x0 DUP3 ADD SLOAD DUP2 MSTORE PUSH1 0x20 ADD PUSH1 0x1 DUP3 ADD SLOAD DUP2 MSTORE PUSH1 0x20 ADD PUSH1 0x2 DUP3 ADD SLOAD DUP2 MSTORE PUSH1 0x20 ADD PUSH1 0x3 DUP3 ADD SLOAD DUP2 MSTORE PUSH1 0x20 ADD PUSH1 0x4 DUP3 ADD SLOAD DUP2 MSTORE POP POP SWAP1 POP SWAP1 JUMP JUMPDEST PUSH1 0x7 PUSH1 0x20 MSTORE DUP2 PUSH1 0x0 MSTORE PUSH1 0x40 PUSH1 0x0 KECCAK256 DUP2 DUP2 SLOAD DUP2 LT PUSH2 0x16D9 JUMPI PUSH1 0x0 DUP1 REVERT JUMPDEST SWAP1 PUSH1 0x0 MSTORE PUSH1 0x20 PUSH1 0x0 KECCAK256 ADD PUSH1 0x0 SWAP2 POP SWAP2 POP SWAP1 SLOAD SWAP1 PUSH2 0x100 EXP SWAP1 DIV PUSH20 0xFFFFFFFFFFFFFFFFFFFFFFFFFFFFFFFFFFFFFFFF AND DUP2 JUMP JUMPDEST PUSH2 0x1713 PUSH2 0x285F JUMP JUMPDEST PUSH2 0x171D PUSH1 0x0 PUSH2 0x28DD JUMP JUMPDEST JUMP JUMPDEST PUSH1 0x0 ISZERO ISZERO PUSH1 0x4 PUSH1 0x0 DUP5 DUP2 MSTORE PUSH1 0x20 ADD SWAP1 DUP2 MSTORE PUSH1 0x20 ADD PUSH1 0x0 KECCAK256 PUSH1 0xB ADD PUSH1 0x0 SWAP1 SLOAD SWAP1 PUSH2 0x100 EXP SWAP1 DIV PUSH1 0xFF AND ISZERO ISZERO EQ PUSH2 0x1789 JUMPI PUSH1 0x40 MLOAD PUSH32 0x8C379A000000000000000000000000000000000000000000000000000000000 DUP2 MSTORE PUSH1 0x4 ADD PUSH2 0x1780 SWAP1 PUSH2 0x35C3 JUMP JUMPDEST PUSH1 0x40 MLOAD DUP1 SWAP2 SUB SWAP1 REVERT JUMPDEST PUSH1 0x0 PUSH1 0x4 PUSH1 0x0 DUP5 DUP2 MSTORE PUSH1 0x20 ADD SWAP1 DUP2 MSTORE PUSH1 0x20 ADD PUSH1 0x0 KECCAK256 PUSH1 0x6 ADD SLOAD PUSH1 0x4 PUSH1 0x0 DUP6 DUP2 MSTORE PUSH1 0x20 ADD SWAP1 DUP2 MSTORE PUSH1 0x20 ADD PUSH1 0x0 KECCAK256 PUSH1 0x5 ADD SLOAD PUSH2 0x17C3 SWAP2 SWAP1 PUSH2 0x385E JUMP JUMPDEST SWAP1 POP PUSH1 0x64 PUSH1 0xE PUSH1 0x0 ADD SLOAD PUSH1 0xA DUP1 SLOAD SWAP1 POP PUSH2 0x17DD SWAP2 SWAP1 PUSH2 0x38E5 JUMP JUMPDEST PUSH2 0x17E7 SWAP2 SWAP1 PUSH2 0x38B4 JUMP JUMPDEST DUP2 GT ISZERO PUSH2 0x1853 JUMPI PUSH1 0x40 MLOAD DUP1 PUSH1 0x40 ADD PUSH1 0x40 MSTORE DUP1 PUSH1 0xC DUP2 MSTORE PUSH1 0x20 ADD PUSH32 0x7175657374696F6E61626C650000000000000000000000000000000000000000 DUP2 MSTORE POP PUSH1 0x4 PUSH1 0x0 DUP6 DUP2 MSTORE PUSH1 0x20 ADD SWAP1 DUP2 MSTORE PUSH1 0x20 ADD PUSH1 0x0 KECCAK256 PUSH1 0xA ADD SWAP1 DUP1 MLOAD SWAP1 PUSH1 0x20 ADD SWAP1 PUSH2 0x184D SWAP3 SWAP2 SWAP1 PUSH2 0x29A9 JUMP JUMPDEST POP PUSH2 0x1D5E JUMP JUMPDEST PUSH1 0xE PUSH1 0x1 ADD SLOAD PUSH1 0x64 DUP3 PUSH1 0x4 PUSH1 0x0 DUP8 DUP2 MSTORE PUSH1 0x20 ADD SWAP1 DUP2 MSTORE PUSH1 0x20 ADD PUSH1 0x0 KECCAK256 PUSH1 0x5 ADD SLOAD PUSH2 0x187D SWAP2 SWAP1 PUSH2 0x38B4 JUMP JUMPDEST PUSH2 0x1887 SWAP2 SWAP1 PUSH2 0x38E5 JUMP JUMPDEST GT ISZERO PUSH2 0x1CC1 JUMPI PUSH1 0x40 MLOAD DUP1 PUSH1 0x40 ADD PUSH1 0x40 MSTORE DUP1 PUSH1 0x8 DUP2 MSTORE PUSH1 0x20 ADD PUSH32 0x617070726F766564000000000000000000000000000000000000000000000000 DUP2 MSTORE POP PUSH1 0x4 PUSH1 0x0 DUP6 DUP2 MSTORE PUSH1 0x20 ADD SWAP1 DUP2 MSTORE PUSH1 0x20 ADD PUSH1 0x0 KECCAK256 PUSH1 0xA ADD SWAP1 DUP1 MLOAD SWAP1 PUSH1 0x20 ADD SWAP1 PUSH2 0x18EC SWAP3 SWAP2 SWAP1 PUSH2 0x29A9 JUMP JUMPDEST POP PUSH1 0x0 PUSH1 0x4 PUSH1 0x0 DUP6 DUP2 MSTORE PUSH1 0x20 ADD SWAP1 DUP2 MSTORE PUSH1 0x20 ADD PUSH1 0x0 KECCAK256 PUSH1 0x4 ADD PUSH1 0x0 SWAP1 SLOAD SWAP1 PUSH2 0x100 EXP SWAP1 DIV PUSH20 0xFFFFFFFFFFFFFFFFFFFFFFFFFFFFFFFFFFFFFFFF AND SWAP1 POP PUSH1 0xE PUSH1 0x4 ADD SLOAD PUSH1 0xC PUSH1 0x0 DUP4 PUSH20 0xFFFFFFFFFFFFFFFFFFFFFFFFFFFFFFFFFFFFFFFF AND PUSH20 0xFFFFFFFFFFFFFFFFFFFFFFFFFFFFFFFFFFFFFFFF AND DUP2 MSTORE PUSH1 0x20 ADD SWAP1 DUP2 MSTORE PUSH1 0x20 ADD PUSH1 0x0 KECCAK256 PUSH1 0x0 DUP3 DUP3 SLOAD PUSH2 0x197C SWAP2 SWAP1 PUSH2 0x385E JUMP JUMPDEST SWAP3 POP POP DUP2 SWAP1 SSTORE POP PUSH1 0x0 JUMPDEST PUSH1 0x7 PUSH1 0x0 DUP7 DUP2 MSTORE PUSH1 0x20 ADD SWAP1 DUP2 MSTORE PUSH1 0x20 ADD PUSH1 0x0 KECCAK256 DUP1 SLOAD SWAP1 POP DUP2 LT ISZERO PUSH2 0x1A61 JUMPI PUSH1 0xE PUSH1 0x3 ADD SLOAD PUSH1 0xC PUSH1 0x0 PUSH1 0x7 PUSH1 0x0 DUP10 DUP2 MSTORE PUSH1 0x20 ADD SWAP1 DUP2 MSTORE PUSH1 0x20 ADD PUSH1 0x0 KECCAK256 DUP5 DUP2 SLOAD DUP2 LT PUSH2 0x19D3 JUMPI PUSH2 0x19D2 PUSH2 0x3B5C JUMP JUMPDEST JUMPDEST SWAP1 PUSH1 0x0 MSTORE PUSH1 0x20 PUSH1 0x0 KECCAK256 ADD PUSH1 0x0 SWAP1 SLOAD SWAP1 PUSH2 0x100 EXP SWAP1 DIV PUSH20 0xFFFFFFFFFFFFFFFFFFFFFFFFFFFFFFFFFFFFFFFF AND PUSH20 0xFFFFFFFFFFFFFFFFFFFFFFFFFFFFFFFFFFFFFFFF AND PUSH20 0xFFFFFFFFFFFFFFFFFFFFFFFFFFFFFFFFFFFFFFFF AND DUP2 MSTORE PUSH1 0x20 ADD SWAP1 DUP2 MSTORE PUSH1 0x20 ADD PUSH1 0x0 KECCAK256 PUSH1 0x0 DUP3 DUP3 SLOAD PUSH2 0x1A47 SWAP2 SWAP1 PUSH2 0x385E JUMP JUMPDEST SWAP3 POP POP DUP2 SWAP1 SSTORE POP DUP1 DUP1 PUSH2 0x1A59 SWAP1 PUSH2 0x3A86 JUMP JUMPDEST SWAP2 POP POP PUSH2 0x1986 JUMP JUMPDEST POP PUSH1 0x0 PUSH1 0x4 PUSH1 0x0 DUP7 DUP2 MSTORE PUSH1 0x20 ADD SWAP1 DUP2 MSTORE PUSH1 0x20 ADD PUSH1 0x0 KECCAK256 PUSH1 0x9 ADD SLOAD GT ISZERO PUSH2 0x1CBB JUMPI PUSH1 0x0 PUSH1 0x2 PUSH1 0x0 SWAP1 SLOAD SWAP1 PUSH2 0x100 EXP SWAP1 DIV PUSH20 0xFFFFFFFFFFFFFFFFFFFFFFFFFFFFFFFFFFFFFFFF AND PUSH20 0xFFFFFFFFFFFFFFFFFFFFFFFFFFFFFFFFFFFFFFFF AND PUSH4 0xCEBF64F5 DUP6 PUSH1 0x40 MLOAD DUP3 PUSH4 0xFFFFFFFF AND PUSH1 0xE0 SHL DUP2 MSTORE PUSH1 0x4 ADD PUSH2 0x1ADE SWAP2 SWAP1 PUSH2 0x365E JUMP JUMPDEST PUSH1 0x20 PUSH1 0x40 MLOAD DUP1 DUP4 SUB DUP2 DUP7 DUP1 EXTCODESIZE ISZERO DUP1 ISZERO PUSH2 0x1AF6 JUMPI PUSH1 0x0 DUP1 REVERT JUMPDEST POP GAS STATICCALL ISZERO DUP1 ISZERO PUSH2 0x1B0A JUMPI RETURNDATASIZE PUSH1 0x0 DUP1 RETURNDATACOPY RETURNDATASIZE PUSH1 0x0 REVERT JUMPDEST POP POP POP POP PUSH1 0x40 MLOAD RETURNDATASIZE PUSH1 0x1F NOT PUSH1 0x1F DUP3 ADD AND DUP3 ADD DUP1 PUSH1 0x40 MSTORE POP DUP2 ADD SWAP1 PUSH2 0x1B2E SWAP2 SWAP1 PUSH2 0x2BFA JUMP JUMPDEST SWAP1 POP PUSH1 0x0 PUSH1 0x14 PUSH1 0x0 SWAP1 SLOAD SWAP1 PUSH2 0x100 EXP SWAP1 DIV PUSH20 0xFFFFFFFFFFFFFFFFFFFFFFFFFFFFFFFFFFFFFFFF AND SWAP1 POP PUSH1 0x13 SLOAD DUP2 PUSH20 0xFFFFFFFFFFFFFFFFFFFFFFFFFFFFFFFFFFFFFFFF AND PUSH4 0xDD62ED3E CALLER ADDRESS PUSH1 0x40 MLOAD DUP4 PUSH4 0xFFFFFFFF AND PUSH1 0xE0 SHL DUP2 MSTORE PUSH1 0x4 ADD PUSH2 0x1B95 SWAP3 SWAP2 SWAP1 PUSH2 0x336C JUMP JUMPDEST PUSH1 0x20 PUSH1 0x40 MLOAD DUP1 DUP4 SUB DUP2 DUP7 DUP1 EXTCODESIZE ISZERO DUP1 ISZERO PUSH2 0x1BAD JUMPI PUSH1 0x0 DUP1 REVERT JUMPDEST POP GAS STATICCALL ISZERO DUP1 ISZERO PUSH2 0x1BC1 JUMPI RETURNDATASIZE PUSH1 0x0 DUP1 RETURNDATACOPY RETURNDATASIZE PUSH1 0x0 REVERT JUMPDEST POP POP POP POP PUSH1 0x40 MLOAD RETURNDATASIZE PUSH1 0x1F NOT PUSH1 0x1F DUP3 ADD AND DUP3 ADD DUP1 PUSH1 0x40 MSTORE POP DUP2 ADD SWAP1 PUSH2 0x1BE5 SWAP2 SWAP1 PUSH2 0x2D7C JUMP JUMPDEST LT ISZERO PUSH2 0x1C26 JUMPI PUSH1 0x40 MLOAD PUSH32 0x8C379A000000000000000000000000000000000000000000000000000000000 DUP2 MSTORE PUSH1 0x4 ADD PUSH2 0x1C1D SWAP1 PUSH2 0x3523 JUMP JUMPDEST PUSH1 0x40 MLOAD DUP1 SWAP2 SUB SWAP1 REVERT JUMPDEST DUP1 PUSH20 0xFFFFFFFFFFFFFFFFFFFFFFFFFFFFFFFFFFFFFFFF AND PUSH4 0x23B872DD CALLER DUP5 PUSH1 0x13 SLOAD PUSH1 0x40 MLOAD DUP5 PUSH4 0xFFFFFFFF AND PUSH1 0xE0 SHL DUP2 MSTORE PUSH1 0x4 ADD PUSH2 0x1C65 SWAP4 SWAP3 SWAP2 SWAP1 PUSH2 0x3395 JUMP JUMPDEST PUSH1 0x20 PUSH1 0x40 MLOAD DUP1 DUP4 SUB DUP2 PUSH1 0x0 DUP8 DUP1 EXTCODESIZE ISZERO DUP1 ISZERO PUSH2 0x1C7F JUMPI PUSH1 0x0 DUP1 REVERT JUMPDEST POP GAS CALL ISZERO DUP1 ISZERO PUSH2 0x1C93 JUMPI RETURNDATASIZE PUSH1 0x0 DUP1 RETURNDATACOPY RETURNDATASIZE PUSH1 0x0 REVERT JUMPDEST POP POP POP POP PUSH1 0x40 MLOAD RETURNDATASIZE PUSH1 0x1F NOT PUSH1 0x1F DUP3 ADD AND DUP3 ADD DUP1 PUSH1 0x40 MSTORE POP DUP2 ADD SWAP1 PUSH2 0x1CB7 SWAP2 SWAP1 PUSH2 0x2C67 JUMP JUMPDEST POP POP POP JUMPDEST POP PUSH2 0x1D5D JUMP JUMPDEST PUSH1 0xE PUSH1 0x1 ADD SLOAD PUSH1 0x64 DUP3 PUSH1 0x4 PUSH1 0x0 DUP8 DUP2 MSTORE PUSH1 0x20 ADD SWAP1 DUP2 MSTORE PUSH1 0x20 ADD PUSH1 0x0 KECCAK256 PUSH1 0x6 ADD SLOAD PUSH2 0x1CEB SWAP2 SWAP1 PUSH2 0x38B4 JUMP JUMPDEST PUSH2 0x1CF5 SWAP2 SWAP1 PUSH2 0x38E5 JUMP JUMPDEST GT ISZERO PUSH2 0x1D5C JUMPI PUSH1 0x40 MLOAD DUP1 PUSH1 0x40 ADD PUSH1 0x40 MSTORE DUP1 PUSH1 0x8 DUP2 MSTORE PUSH1 0x20 ADD PUSH32 0x72656A6563746564000000000000000000000000000000000000000000000000 DUP2 MSTORE POP PUSH1 0x4 PUSH1 0x0 DUP6 DUP2 MSTORE PUSH1 0x20 ADD SWAP1 DUP2 MSTORE PUSH1 0x20 ADD PUSH1 0x0 KECCAK256 PUSH1 0xA ADD SWAP1 DUP1 MLOAD SWAP1 PUSH1 0x20 ADD SWAP1 PUSH2 0x1D5A SWAP3 SWAP2 SWAP1 PUSH2 0x29A9 JUMP JUMPDEST POP JUMPDEST JUMPDEST JUMPDEST PUSH1 0x1 PUSH1 0x4 PUSH1 0x0 DUP6 DUP2 MSTORE PUSH1 0x20 ADD SWAP1 DUP2 MSTORE PUSH1 0x20 ADD PUSH1 0x0 KECCAK256 PUSH1 0xB ADD PUSH1 0x0 PUSH2 0x100 EXP DUP2 SLOAD DUP2 PUSH1 0xFF MUL NOT AND SWAP1 DUP4 ISZERO ISZERO MUL OR SWAP1 SSTORE POP POP POP POP JUMP JUMPDEST PUSH1 0x2 PUSH1 0x0 SWAP1 SLOAD SWAP1 PUSH2 0x100 EXP SWAP1 DIV PUSH20 0xFFFFFFFFFFFFFFFFFFFFFFFFFFFFFFFFFFFFFFFF AND DUP2 JUMP JUMPDEST PUSH1 0x0 DUP1 PUSH1 0x0 SWAP1 SLOAD SWAP1 PUSH2 0x100 EXP SWAP1 DIV PUSH20 0xFFFFFFFFFFFFFFFFFFFFFFFFFFFFFFFFFFFFFFFF AND SWAP1 POP SWAP1 JUMP JUMPDEST PUSH1 0x1 PUSH1 0x0 SWAP1 SLOAD SWAP1 PUSH2 0x100 EXP SWAP1 DIV PUSH20 0xFFFFFFFFFFFFFFFFFFFFFFFFFFFFFFFFFFFFFFFF AND PUSH20 0xFFFFFFFFFFFFFFFFFFFFFFFFFFFFFFFFFFFFFFFF AND PUSH4 0x93538631 CALLER PUSH1 0x40 MLOAD DUP3 PUSH4 0xFFFFFFFF AND PUSH1 0xE0 SHL DUP2 MSTORE PUSH1 0x4 ADD PUSH2 0x1E3C SWAP2 SWAP1 PUSH2 0x3351 JUMP JUMPDEST PUSH1 0x20 PUSH1 0x40 MLOAD DUP1 DUP4 SUB DUP2 DUP7 DUP1 EXTCODESIZE ISZERO DUP1 ISZERO PUSH2 0x1E54 JUMPI PUSH1 0x0 DUP1 REVERT JUMPDEST POP GAS STATICCALL ISZERO DUP1 ISZERO PUSH2 0x1E68 JUMPI RETURNDATASIZE PUSH1 0x0 DUP1 RETURNDATACOPY RETURNDATASIZE PUSH1 0x0 REVERT JUMPDEST POP POP POP POP PUSH1 0x40 MLOAD RETURNDATASIZE PUSH1 0x1F NOT PUSH1 0x1F DUP3 ADD AND DUP3 ADD DUP1 PUSH1 0x40 MSTORE POP DUP2 ADD SWAP1 PUSH2 0x1E8C SWAP2 SWAP1 PUSH2 0x2C67 JUMP JUMPDEST PUSH2 0x1ECB JUMPI PUSH1 0x40 MLOAD PUSH32 0x8C379A000000000000000000000000000000000000000000000000000000000 DUP2 MSTORE PUSH1 0x4 ADD PUSH2 0x1EC2 SWAP1 PUSH2 0x3543 JUMP JUMPDEST PUSH1 0x40 MLOAD DUP1 SWAP2 SUB SWAP1 REVERT JUMPDEST PUSH1 0xB PUSH1 0x0 CALLER PUSH20 0xFFFFFFFFFFFFFFFFFFFFFFFFFFFFFFFFFFFFFFFF AND PUSH20 0xFFFFFFFFFFFFFFFFFFFFFFFFFFFFFFFFFFFFFFFF AND DUP2 MSTORE PUSH1 0x20 ADD SWAP1 DUP2 MSTORE PUSH1 0x20 ADD PUSH1 0x0 KECCAK256 PUSH1 0x0 SWAP1 SLOAD SWAP1 PUSH2 0x100 EXP SWAP1 DIV PUSH1 0xFF AND PUSH2 0x1F57 JUMPI PUSH1 0x40 MLOAD PUSH32 0x8C379A000000000000000000000000000000000000000000000000000000000 DUP2 MSTORE PUSH1 0x4 ADD PUSH2 0x1F4E SWAP1 PUSH2 0x3603 JUMP JUMPDEST PUSH1 0x40 MLOAD DUP1 SWAP2 SUB SWAP1 REVERT JUMPDEST CALLER PUSH20 0xFFFFFFFFFFFFFFFFFFFFFFFFFFFFFFFFFFFFFFFF AND PUSH1 0x4 PUSH1 0x0 DUP4 DUP2 MSTORE PUSH1 0x20 ADD SWAP1 DUP2 MSTORE PUSH1 0x20 ADD PUSH1 0x0 KECCAK256 PUSH1 0x4 ADD PUSH1 0x0 SWAP1 SLOAD SWAP1 PUSH2 0x100 EXP SWAP1 DIV PUSH20 0xFFFFFFFFFFFFFFFFFFFFFFFFFFFFFFFFFFFFFFFF AND PUSH20 0xFFFFFFFFFFFFFFFFFFFFFFFFFFFFFFFFFFFFFFFF AND EQ ISZERO PUSH2 0x1FFC JUMPI PUSH1 0x40 MLOAD PUSH32 0x8C379A000000000000000000000000000000000000000000000000000000000 DUP2 MSTORE PUSH1 0x4 ADD PUSH2 0x1FF3 SWAP1 PUSH2 0x35E3 JUMP JUMPDEST PUSH1 0x40 MLOAD DUP1 SWAP2 SUB SWAP1 REVERT JUMPDEST PUSH1 0x5 PUSH1 0x0 CALLER PUSH20 0xFFFFFFFFFFFFFFFFFFFFFFFFFFFFFFFFFFFFFFFF AND PUSH20 0xFFFFFFFFFFFFFFFFFFFFFFFFFFFFFFFFFFFFFFFF AND DUP2 MSTORE PUSH1 0x20 ADD SWAP1 DUP2 MSTORE PUSH1 0x20 ADD PUSH1 0x0 KECCAK256 PUSH1 0x0 DUP3 DUP2 MSTORE PUSH1 0x20 ADD SWAP1 DUP2 MSTORE PUSH1 0x20 ADD PUSH1 0x0 KECCAK256 PUSH1 0x0 SWAP1 SLOAD SWAP1 PUSH2 0x100 EXP SWAP1 DIV PUSH1 0xFF AND ISZERO PUSH2 0x209A JUMPI PUSH1 0x40 MLOAD PUSH32 0x8C379A000000000000000000000000000000000000000000000000000000000 DUP2 MSTORE PUSH1 0x4 ADD PUSH2 0x2091 SWAP1 PUSH2 0x34A3 JUMP JUMPDEST PUSH1 0x40 MLOAD DUP1 SWAP2 SUB SWAP1 REVERT JUMPDEST TIMESTAMP PUSH1 0x4 PUSH1 0x0 DUP4 DUP2 MSTORE PUSH1 0x20 ADD SWAP1 DUP2 MSTORE PUSH1 0x20 ADD PUSH1 0x0 KECCAK256 PUSH1 0x8 ADD SLOAD GT PUSH2 0x20F2 JUMPI PUSH1 0x40 MLOAD PUSH32 0x8C379A000000000000000000000000000000000000000000000000000000000 DUP2 MSTORE PUSH1 0x4 ADD PUSH2 0x20E9 SWAP1 PUSH2 0x3483 JUMP JUMPDEST PUSH1 0x40 MLOAD DUP1 SWAP2 SUB SWAP1 REVERT JUMPDEST PUSH1 0xE PUSH1 0x3 ADD SLOAD CALLVALUE EQ PUSH2 0x2139 JUMPI PUSH1 0x40 MLOAD PUSH32 0x8C379A000000000000000000000000000000000000000000000000000000000 DUP2 MSTORE PUSH1 0x4 ADD PUSH2 0x2130 SWAP1 PUSH2 0x3583 JUMP JUMPDEST PUSH1 0x40 MLOAD DUP1 SWAP2 SUB SWAP1 REVERT JUMPDEST PUSH1 0x1 PUSH1 0x4 PUSH1 0x0 DUP4 DUP2 MSTORE PUSH1 0x20 ADD SWAP1 DUP2 MSTORE PUSH1 0x20 ADD PUSH1 0x0 KECCAK256 PUSH1 0x5 ADD SLOAD PUSH2 0x215C SWAP2 SWAP1 PUSH2 0x385E JUMP JUMPDEST PUSH1 0x4 PUSH1 0x0 DUP4 DUP2 MSTORE PUSH1 0x20 ADD SWAP1 DUP2 MSTORE PUSH1 0x20 ADD PUSH1 0x0 KECCAK256 PUSH1 0x5 ADD DUP2 SWAP1 SSTORE POP PUSH1 0x1 PUSH1 0x5 PUSH1 0x0 CALLER PUSH20 0xFFFFFFFFFFFFFFFFFFFFFFFFFFFFFFFFFFFFFFFF AND PUSH20 0xFFFFFFFFFFFFFFFFFFFFFFFFFFFFFFFFFFFFFFFF AND DUP2 MSTORE PUSH1 0x20 ADD SWAP1 DUP2 MSTORE PUSH1 0x20 ADD PUSH1 0x0 KECCAK256 PUSH1 0x0 DUP4 DUP2 MSTORE PUSH1 0x20 ADD SWAP1 DUP2 MSTORE PUSH1 0x20 ADD PUSH1 0x0 KECCAK256 PUSH1 0x0 PUSH2 0x100 EXP DUP2 SLOAD DUP2 PUSH1 0xFF MUL NOT AND SWAP1 DUP4 ISZERO ISZERO MUL OR SWAP1 SSTORE POP PUSH1 0x6 PUSH1 0x0 DUP3 DUP2 MSTORE PUSH1 0x20 ADD SWAP1 DUP2 MSTORE PUSH1 0x20 ADD PUSH1 0x0 KECCAK256 CALLER SWAP1 DUP1 PUSH1 0x1 DUP2 SLOAD ADD DUP1 DUP3 SSTORE DUP1 SWAP2 POP POP PUSH1 0x1 SWAP1 SUB SWAP1 PUSH1 0x0 MSTORE PUSH1 0x20 PUSH1 0x0 KECCAK256 ADD PUSH1 0x0 SWAP1 SWAP2 SWAP1 SWAP2 SWAP1 SWAP2 PUSH2 0x100 EXP DUP2 SLOAD DUP2 PUSH20 0xFFFFFFFFFFFFFFFFFFFFFFFFFFFFFFFFFFFFFFFF MUL NOT AND SWAP1 DUP4 PUSH20 0xFFFFFFFFFFFFFFFFFFFFFFFFFFFFFFFFFFFFFFFF AND MUL OR SWAP1 SSTORE POP PUSH1 0x7 PUSH1 0x0 DUP3 DUP2 MSTORE PUSH1 0x20 ADD SWAP1 DUP2 MSTORE PUSH1 0x20 ADD PUSH1 0x0 KECCAK256 CALLER SWAP1 DUP1 PUSH1 0x1 DUP2 SLOAD ADD DUP1 DUP3 SSTORE DUP1 SWAP2 POP POP PUSH1 0x1 SWAP1 SUB SWAP1 PUSH1 0x0 MSTORE PUSH1 0x20 PUSH1 0x0 KECCAK256 ADD PUSH1 0x0 SWAP1 SWAP2 SWAP1 SWAP2 SWAP1 SWAP2 PUSH2 0x100 EXP DUP2 SLOAD DUP2 PUSH20 0xFFFFFFFFFFFFFFFFFFFFFFFFFFFFFFFFFFFFFFFF MUL NOT AND SWAP1 DUP4 PUSH20 0xFFFFFFFFFFFFFFFFFFFFFFFFFFFFFFFFFFFFFFFF AND MUL OR SWAP1 SSTORE POP POP JUMP JUMPDEST PUSH1 0x1 PUSH1 0x0 SWAP1 SLOAD SWAP1 PUSH2 0x100 EXP SWAP1 DIV PUSH20 0xFFFFFFFFFFFFFFFFFFFFFFFFFFFFFFFFFFFFFFFF AND DUP2 JUMP JUMPDEST PUSH1 0x13 SLOAD DUP2 JUMP JUMPDEST PUSH1 0x6 PUSH1 0x20 MSTORE DUP2 PUSH1 0x0 MSTORE PUSH1 0x40 PUSH1 0x0 KECCAK256 DUP2 DUP2 SLOAD DUP2 LT PUSH2 0x2312 JUMPI PUSH1 0x0 DUP1 REVERT JUMPDEST SWAP1 PUSH1 0x0 MSTORE PUSH1 0x20 PUSH1 0x0 KECCAK256 ADD PUSH1 0x0 SWAP2 POP SWAP2 POP SWAP1 SLOAD SWAP1 PUSH2 0x100 EXP SWAP1 DIV PUSH20 0xFFFFFFFFFFFFFFFFFFFFFFFFFFFFFFFFFFFFFFFF AND DUP2 JUMP JUMPDEST PUSH1 0x60 PUSH1 0x0 PUSH1 0x9 SLOAD PUSH8 0xFFFFFFFFFFFFFFFF DUP2 GT ISZERO PUSH2 0x2364 JUMPI PUSH2 0x2363 PUSH2 0x3B8B JUMP JUMPDEST JUMPDEST PUSH1 0x40 MLOAD SWAP1 DUP1 DUP3 MSTORE DUP1 PUSH1 0x20 MUL PUSH1 0x20 ADD DUP3 ADD PUSH1 0x40 MSTORE DUP1 ISZERO PUSH2 0x239D JUMPI DUP2 PUSH1 0x20 ADD JUMPDEST PUSH2 0x238A PUSH2 0x2A5E JUMP JUMPDEST DUP2 MSTORE PUSH1 0x20 ADD SWAP1 PUSH1 0x1 SWAP1 SUB SWAP1 DUP2 PUSH2 0x2382 JUMPI SWAP1 POP JUMPDEST POP SWAP1 POP PUSH1 0x0 JUMPDEST PUSH1 0x9 SLOAD DUP2 LT ISZERO PUSH2 0x26FE JUMPI PUSH1 0x4 PUSH1 0x0 PUSH1 0x1 DUP4 PUSH2 0x23BE SWAP2 SWAP1 PUSH2 0x385E JUMP JUMPDEST DUP2 MSTORE PUSH1 0x20 ADD SWAP1 DUP2 MSTORE PUSH1 0x20 ADD PUSH1 0x0 KECCAK256 PUSH1 0x40 MLOAD DUP1 PUSH2 0x180 ADD PUSH1 0x40 MSTORE SWAP1 DUP2 PUSH1 0x0 DUP3 ADD SLOAD DUP2 MSTORE PUSH1 0x20 ADD PUSH1 0x1 DUP3 ADD DUP1 SLOAD PUSH2 0x23F2 SWAP1 PUSH2 0x3A23 JUMP JUMPDEST DUP1 PUSH1 0x1F ADD PUSH1 0x20 DUP1 SWAP2 DIV MUL PUSH1 0x20 ADD PUSH1 0x40 MLOAD SWAP1 DUP2 ADD PUSH1 0x40 MSTORE DUP1 SWAP3 SWAP2 SWAP1 DUP2 DUP2 MSTORE PUSH1 0x20 ADD DUP3 DUP1 SLOAD PUSH2 0x241E SWAP1 PUSH2 0x3A23 JUMP JUMPDEST DUP1 ISZERO PUSH2 0x246B JUMPI DUP1 PUSH1 0x1F LT PUSH2 0x2440 JUMPI PUSH2 0x100 DUP1 DUP4 SLOAD DIV MUL DUP4 MSTORE SWAP2 PUSH1 0x20 ADD SWAP2 PUSH2 0x246B JUMP JUMPDEST DUP3 ADD SWAP2 SWAP1 PUSH1 0x0 MSTORE PUSH1 0x20 PUSH1 0x0 KECCAK256 SWAP1 JUMPDEST DUP2 SLOAD DUP2 MSTORE SWAP1 PUSH1 0x1 ADD SWAP1 PUSH1 0x20 ADD DUP1 DUP4 GT PUSH2 0x244E JUMPI DUP3 SWAP1 SUB PUSH1 0x1F AND DUP3 ADD SWAP2 JUMPDEST POP POP POP POP POP DUP2 MSTORE PUSH1 0x20 ADD PUSH1 0x2 DUP3 ADD DUP1 SLOAD PUSH2 0x2484 SWAP1 PUSH2 0x3A23 JUMP JUMPDEST DUP1 PUSH1 0x1F ADD PUSH1 0x20 DUP1 SWAP2 DIV MUL PUSH1 0x20 ADD PUSH1 0x40 MLOAD SWAP1 DUP2 ADD PUSH1 0x40 MSTORE DUP1 SWAP3 SWAP2 SWAP1 DUP2 DUP2 MSTORE PUSH1 0x20 ADD DUP3 DUP1 SLOAD PUSH2 0x24B0 SWAP1 PUSH2 0x3A23 JUMP JUMPDEST DUP1 ISZERO PUSH2 0x24FD JUMPI DUP1 PUSH1 0x1F LT PUSH2 0x24D2 JUMPI PUSH2 0x100 DUP1 DUP4 SLOAD DIV MUL DUP4 MSTORE SWAP2 PUSH1 0x20 ADD SWAP2 PUSH2 0x24FD JUMP JUMPDEST DUP3 ADD SWAP2 SWAP1 PUSH1 0x0 MSTORE PUSH1 0x20 PUSH1 0x0 KECCAK256 SWAP1 JUMPDEST DUP2 SLOAD DUP2 MSTORE SWAP1 PUSH1 0x1 ADD SWAP1 PUSH1 0x20 ADD DUP1 DUP4 GT PUSH2 0x24E0 JUMPI DUP3 SWAP1 SUB PUSH1 0x1F AND DUP3 ADD SWAP2 JUMPDEST POP POP POP POP POP DUP2 MSTORE PUSH1 0x20 ADD PUSH1 0x3 DUP3 ADD DUP1 SLOAD PUSH2 0x2516 SWAP1 PUSH2 0x3A23 JUMP JUMPDEST DUP1 PUSH1 0x1F ADD PUSH1 0x20 DUP1 SWAP2 DIV MUL PUSH1 0x20 ADD PUSH1 0x40 MLOAD SWAP1 DUP2 ADD PUSH1 0x40 MSTORE DUP1 SWAP3 SWAP2 SWAP1 DUP2 DUP2 MSTORE PUSH1 0x20 ADD DUP3 DUP1 SLOAD PUSH2 0x2542 SWAP1 PUSH2 0x3A23 JUMP JUMPDEST DUP1 ISZERO PUSH2 0x258F JUMPI DUP1 PUSH1 0x1F LT PUSH2 0x2564 JUMPI PUSH2 0x100 DUP1 DUP4 SLOAD DIV MUL DUP4 MSTORE SWAP2 PUSH1 0x20 ADD SWAP2 PUSH2 0x258F JUMP JUMPDEST DUP3 ADD SWAP2 SWAP1 PUSH1 0x0 MSTORE PUSH1 0x20 PUSH1 0x0 KECCAK256 SWAP1 JUMPDEST DUP2 SLOAD DUP2 MSTORE SWAP1 PUSH1 0x1 ADD SWAP1 PUSH1 0x20 ADD DUP1 DUP4 GT PUSH2 0x2572 JUMPI DUP3 SWAP1 SUB PUSH1 0x1F AND DUP3 ADD SWAP2 JUMPDEST POP POP POP POP POP DUP2 MSTORE PUSH1 0x20 ADD PUSH1 0x4 DUP3 ADD PUSH1 0x0 SWAP1 SLOAD SWAP1 PUSH2 0x100 EXP SWAP1 DIV PUSH20 0xFFFFFFFFFFFFFFFFFFFFFFFFFFFFFFFFFFFFFFFF AND PUSH20 0xFFFFFFFFFFFFFFFFFFFFFFFFFFFFFFFFFFFFFFFF AND PUSH20 0xFFFFFFFFFFFFFFFFFFFFFFFFFFFFFFFFFFFFFFFF AND DUP2 MSTORE PUSH1 0x20 ADD PUSH1 0x5 DUP3 ADD SLOAD DUP2 MSTORE PUSH1 0x20 ADD PUSH1 0x6 DUP3 ADD SLOAD DUP2 MSTORE PUSH1 0x20 ADD PUSH1 0x7 DUP3 ADD SLOAD DUP2 MSTORE PUSH1 0x20 ADD PUSH1 0x8 DUP3 ADD SLOAD DUP2 MSTORE PUSH1 0x20 ADD PUSH1 0x9 DUP3 ADD SLOAD DUP2 MSTORE PUSH1 0x20 ADD PUSH1 0xA DUP3 ADD DUP1 SLOAD PUSH2 0x2630 SWAP1 PUSH2 0x3A23 JUMP JUMPDEST DUP1 PUSH1 0x1F ADD PUSH1 0x20 DUP1 SWAP2 DIV MUL PUSH1 0x20 ADD PUSH1 0x40 MLOAD SWAP1 DUP2 ADD PUSH1 0x40 MSTORE DUP1 SWAP3 SWAP2 SWAP1 DUP2 DUP2 MSTORE PUSH1 0x20 ADD DUP3 DUP1 SLOAD PUSH2 0x265C SWAP1 PUSH2 0x3A23 JUMP JUMPDEST DUP1 ISZERO PUSH2 0x26A9 JUMPI DUP1 PUSH1 0x1F LT PUSH2 0x267E JUMPI PUSH2 0x100 DUP1 DUP4 SLOAD DIV MUL DUP4 MSTORE SWAP2 PUSH1 0x20 ADD SWAP2 PUSH2 0x26A9 JUMP JUMPDEST DUP3 ADD SWAP2 SWAP1 PUSH1 0x0 MSTORE PUSH1 0x20 PUSH1 0x0 KECCAK256 SWAP1 JUMPDEST DUP2 SLOAD DUP2 MSTORE SWAP1 PUSH1 0x1 ADD SWAP1 PUSH1 0x20 ADD DUP1 DUP4 GT PUSH2 0x268C JUMPI DUP3 SWAP1 SUB PUSH1 0x1F AND DUP3 ADD SWAP2 JUMPDEST POP POP POP POP POP DUP2 MSTORE PUSH1 0x20 ADD PUSH1 0xB DUP3 ADD PUSH1 0x0 SWAP1 SLOAD SWAP1 PUSH2 0x100 EXP SWAP1 DIV PUSH1 0xFF AND ISZERO ISZERO ISZERO ISZERO DUP2 MSTORE POP POP DUP3 DUP3 DUP2 MLOAD DUP2 LT PUSH2 0x26E0 JUMPI PUSH2 0x26DF PUSH2 0x3B5C JUMP JUMPDEST JUMPDEST PUSH1 0x20 MUL PUSH1 0x20 ADD ADD DUP2 SWAP1 MSTORE POP DUP1 DUP1 PUSH2 0x26F6 SWAP1 PUSH2 0x3A86 JUMP JUMPDEST SWAP2 POP POP PUSH2 0x23A3 JUMP JUMPDEST POP DUP1 SWAP2 POP POP SWAP1 JUMP JUMPDEST PUSH1 0x3 PUSH1 0x0 SWAP1 SLOAD SWAP1 PUSH2 0x100 EXP SWAP1 DIV PUSH20 0xFFFFFFFFFFFFFFFFFFFFFFFFFFFFFFFFFFFFFFFF AND DUP2 JUMP JUMPDEST PUSH1 0x9 SLOAD DUP2 JUMP JUMPDEST PUSH1 0xB PUSH1 0x20 MSTORE DUP1 PUSH1 0x0 MSTORE PUSH1 0x40 PUSH1 0x0 KECCAK256 PUSH1 0x0 SWAP2 POP SLOAD SWAP1 PUSH2 0x100 EXP SWAP1 DIV PUSH1 0xFF AND DUP2 JUMP JUMPDEST PUSH2 0x275A PUSH2 0x285F JUMP JUMPDEST PUSH1 0x0 PUSH20 0xFFFFFFFFFFFFFFFFFFFFFFFFFFFFFFFFFFFFFFFF AND DUP2 PUSH20 0xFFFFFFFFFFFFFFFFFFFFFFFFFFFFFFFFFFFFFFFF AND EQ ISZERO PUSH2 0x27CA JUMPI PUSH1 0x40 MLOAD PUSH32 0x8C379A000000000000000000000000000000000000000000000000000000000 DUP2 MSTORE PUSH1 0x4 ADD PUSH2 0x27C1 SWAP1 PUSH2 0x34E3 JUMP JUMPDEST PUSH1 0x40 MLOAD DUP1 SWAP2 SUB SWAP1 REVERT JUMPDEST PUSH2 0x27D3 DUP2 PUSH2 0x28DD JUMP JUMPDEST POP JUMP JUMPDEST PUSH1 0xE DUP1 PUSH1 0x0 ADD SLOAD SWAP1 DUP1 PUSH1 0x1 ADD SLOAD SWAP1 DUP1 PUSH1 0x2 ADD SLOAD SWAP1 DUP1 PUSH1 0x3 ADD SLOAD SWAP1 DUP1 PUSH1 0x4 ADD SLOAD SWAP1 POP DUP6 JUMP JUMPDEST PUSH1 0x40 MLOAD DUP1 PUSH1 0xA0 ADD PUSH1 0x40 MSTORE DUP1 DUP7 DUP2 MSTORE PUSH1 0x20 ADD DUP6 DUP2 MSTORE PUSH1 0x20 ADD DUP5 DUP2 MSTORE PUSH1 0x20 ADD DUP4 DUP2 MSTORE PUSH1 0x20 ADD DUP3 DUP2 MSTORE POP PUSH1 0xE PUSH1 0x0 DUP3 ADD MLOAD DUP2 PUSH1 0x0 ADD SSTORE PUSH1 0x20 DUP3 ADD MLOAD DUP2 PUSH1 0x1 ADD SSTORE PUSH1 0x40 DUP3 ADD MLOAD DUP2 PUSH1 0x2 ADD SSTORE PUSH1 0x60 DUP3 ADD MLOAD DUP2 PUSH1 0x3 ADD SSTORE PUSH1 0x80 DUP3 ADD MLOAD DUP2 PUSH1 0x4 ADD SSTORE SWAP1 POP POP POP POP POP POP POP JUMP JUMPDEST PUSH2 0x2867 PUSH2 0x29A1 JUMP JUMPDEST PUSH20 0xFFFFFFFFFFFFFFFFFFFFFFFFFFFFFFFFFFFFFFFF AND PUSH2 0x2885 PUSH2 0x1DB8 JUMP JUMPDEST PUSH20 0xFFFFFFFFFFFFFFFFFFFFFFFFFFFFFFFFFFFFFFFF AND EQ PUSH2 0x28DB JUMPI PUSH1 0x40 MLOAD PUSH32 0x8C379A000000000000000000000000000000000000000000000000000000000 DUP2 MSTORE PUSH1 0x4 ADD PUSH2 0x28D2 SWAP1 PUSH2 0x35A3 JUMP JUMPDEST PUSH1 0x40 MLOAD DUP1 SWAP2 SUB SWAP1 REVERT JUMPDEST JUMP JUMPDEST PUSH1 0x0 DUP1 PUSH1 0x0 SWAP1 SLOAD SWAP1 PUSH2 0x100 EXP SWAP1 DIV PUSH20 0xFFFFFFFFFFFFFFFFFFFFFFFFFFFFFFFFFFFFFFFF AND SWAP1 POP DUP2 PUSH1 0x0 DUP1 PUSH2 0x100 EXP DUP2 SLOAD DUP2 PUSH20 0xFFFFFFFFFFFFFFFFFFFFFFFFFFFFFFFFFFFFFFFF MUL NOT AND SWAP1 DUP4 PUSH20 0xFFFFFFFFFFFFFFFFFFFFFFFFFFFFFFFFFFFFFFFF AND MUL OR SWAP1 SSTORE POP DUP2 PUSH20 0xFFFFFFFFFFFFFFFFFFFFFFFFFFFFFFFFFFFFFFFF AND DUP2 PUSH20 0xFFFFFFFFFFFFFFFFFFFFFFFFFFFFFFFFFFFFFFFF AND PUSH32 0x8BE0079C531659141344CD1FD0A4F28419497F9722A3DAAFE3B4186F6B6457E0 PUSH1 0x40 MLOAD PUSH1 0x40 MLOAD DUP1 SWAP2 SUB SWAP1 LOG3 POP POP JUMP JUMPDEST PUSH1 0x0 CALLER SWAP1 POP SWAP1 JUMP JUMPDEST DUP3 DUP1 SLOAD PUSH2 0x29B5 SWAP1 PUSH2 0x3A23 JUMP JUMPDEST SWAP1 PUSH1 0x0 MSTORE PUSH1 0x20 PUSH1 0x0 KECCAK256 SWAP1 PUSH1 0x1F ADD PUSH1 0x20 SWAP1 DIV DUP2 ADD SWAP3 DUP3 PUSH2 0x29D7 JUMPI PUSH1 0x0 DUP6 SSTORE PUSH2 0x2A1E JUMP JUMPDEST DUP3 PUSH1 0x1F LT PUSH2 0x29F0 JUMPI DUP1 MLOAD PUSH1 0xFF NOT AND DUP4 DUP1 ADD OR DUP6 SSTORE PUSH2 0x2A1E JUMP JUMPDEST DUP3 DUP1 ADD PUSH1 0x1 ADD DUP6 SSTORE DUP3 ISZERO PUSH2 0x2A1E JUMPI SWAP2 DUP3 ADD JUMPDEST DUP3 DUP2 GT ISZERO PUSH2 0x2A1D JUMPI DUP3 MLOAD DUP3 SSTORE SWAP2 PUSH1 0x20 ADD SWAP2 SWAP1 PUSH1 0x1 ADD SWAP1 PUSH2 0x2A02 JUMP JUMPDEST JUMPDEST POP SWAP1 POP PUSH2 0x2A2B SWAP2 SWAP1 PUSH2 0x2AD7 JUMP JUMPDEST POP SWAP1 JUMP JUMPDEST PUSH1 0x40 MLOAD DUP1 PUSH1 0xA0 ADD PUSH1 0x40 MSTORE DUP1 PUSH1 0x0 DUP2 MSTORE PUSH1 0x20 ADD PUSH1 0x0 DUP2 MSTORE PUSH1 0x20 ADD PUSH1 0x0 DUP2 MSTORE PUSH1 0x20 ADD PUSH1 0x0 DUP2 MSTORE PUSH1 0x20 ADD PUSH1 0x0 DUP2 MSTORE POP SWAP1 JUMP JUMPDEST PUSH1 0x40 MLOAD DUP1 PUSH2 0x180 ADD PUSH1 0x40 MSTORE DUP1 PUSH1 0x0 DUP2 MSTORE PUSH1 0x20 ADD PUSH1 0x60 DUP2 MSTORE PUSH1 0x20 ADD PUSH1 0x60 DUP2 MSTORE PUSH1 0x20 ADD PUSH1 0x60 DUP2 MSTORE PUSH1 0x20 ADD PUSH1 0x0 PUSH20 0xFFFFFFFFFFFFFFFFFFFFFFFFFFFFFFFFFFFFFFFF AND DUP2 MSTORE PUSH1 0x20 ADD PUSH1 0x0 DUP2 MSTORE PUSH1 0x20 ADD PUSH1 0x0 DUP2 MSTORE PUSH1 0x20 ADD PUSH1 0x0 DUP2 MSTORE PUSH1 0x20 ADD PUSH1 0x0 DUP2 MSTORE PUSH1 0x20 ADD PUSH1 0x0 DUP2 MSTORE PUSH1 0x20 ADD PUSH1 0x60 DUP2 MSTORE PUSH1 0x20 ADD PUSH1 0x0 ISZERO ISZERO DUP2 MSTORE POP SWAP1 JUMP JUMPDEST JUMPDEST DUP1 DUP3 GT ISZERO PUSH2 0x2AF0 JUMPI PUSH1 0x0 DUP2 PUSH1 0x0 SWAP1 SSTORE POP PUSH1 0x1 ADD PUSH2 0x2AD8 JUMP JUMPDEST POP SWAP1 JUMP JUMPDEST PUSH1 0x0 PUSH2 0x2B07 PUSH2 0x2B02 DUP5 PUSH2 0x37C7 JUMP JUMPDEST PUSH2 0x37A2 JUMP JUMPDEST SWAP1 POP DUP3 DUP2 MSTORE PUSH1 0x20 DUP2 ADD DUP5 DUP5 DUP5 ADD GT ISZERO PUSH2 0x2B23 JUMPI PUSH2 0x2B22 PUSH2 0x3BBF JUMP JUMPDEST JUMPDEST PUSH2 0x2B2E DUP5 DUP3 DUP6 PUSH2 0x39E1 JUMP JUMPDEST POP SWAP4 SWAP3 POP POP POP JUMP JUMPDEST PUSH1 0x0 DUP2 CALLDATALOAD SWAP1 POP PUSH2 0x2B45 DUP2 PUSH2 0x3F27 JUMP JUMPDEST SWAP3 SWAP2 POP POP JUMP JUMPDEST PUSH1 0x0 DUP2 MLOAD SWAP1 POP PUSH2 0x2B5A DUP2 PUSH2 0x3F27 JUMP JUMPDEST SWAP3 SWAP2 POP POP JUMP JUMPDEST PUSH1 0x0 DUP2 MLOAD SWAP1 POP PUSH2 0x2B6F DUP2 PUSH2 0x3F3E JUMP JUMPDEST SWAP3 SWAP2 POP POP JUMP JUMPDEST PUSH1 0x0 DUP3 PUSH1 0x1F DUP4 ADD SLT PUSH2 0x2B8A JUMPI PUSH2 0x2B89 PUSH2 0x3BBA JUMP JUMPDEST JUMPDEST DUP2 CALLDATALOAD PUSH2 0x2B9A DUP5 DUP3 PUSH1 0x20 DUP7 ADD PUSH2 0x2AF4 JUMP JUMPDEST SWAP2 POP POP SWAP3 SWAP2 POP POP JUMP JUMPDEST PUSH1 0x0 DUP2 CALLDATALOAD SWAP1 POP PUSH2 0x2BB2 DUP2 PUSH2 0x3F55 JUMP JUMPDEST SWAP3 SWAP2 POP POP JUMP JUMPDEST PUSH1 0x0 DUP2 MLOAD SWAP1 POP PUSH2 0x2BC7 DUP2 PUSH2 0x3F55 JUMP JUMPDEST SWAP3 SWAP2 POP POP JUMP JUMPDEST PUSH1 0x0 PUSH1 0x20 DUP3 DUP5 SUB SLT ISZERO PUSH2 0x2BE3 JUMPI PUSH2 0x2BE2 PUSH2 0x3BC9 JUMP JUMPDEST JUMPDEST PUSH1 0x0 PUSH2 0x2BF1 DUP5 DUP3 DUP6 ADD PUSH2 0x2B36 JUMP JUMPDEST SWAP2 POP POP SWAP3 SWAP2 POP POP JUMP JUMPDEST PUSH1 0x0 PUSH1 0x20 DUP3 DUP5 SUB SLT ISZERO PUSH2 0x2C10 JUMPI PUSH2 0x2C0F PUSH2 0x3BC9 JUMP JUMPDEST JUMPDEST PUSH1 0x0 PUSH2 0x2C1E DUP5 DUP3 DUP6 ADD PUSH2 0x2B4B JUMP JUMPDEST SWAP2 POP POP SWAP3 SWAP2 POP POP JUMP JUMPDEST PUSH1 0x0 DUP1 PUSH1 0x40 DUP4 DUP6 SUB SLT ISZERO PUSH2 0x2C3E JUMPI PUSH2 0x2C3D PUSH2 0x3BC9 JUMP JUMPDEST JUMPDEST PUSH1 0x0 PUSH2 0x2C4C DUP6 DUP3 DUP7 ADD PUSH2 0x2B36 JUMP JUMPDEST SWAP3 POP POP PUSH1 0x20 PUSH2 0x2C5D DUP6 DUP3 DUP7 ADD PUSH2 0x2BA3 JUMP JUMPDEST SWAP2 POP POP SWAP3 POP SWAP3 SWAP1 POP JUMP JUMPDEST PUSH1 0x0 PUSH1 0x20 DUP3 DUP5 SUB SLT ISZERO PUSH2 0x2C7D JUMPI PUSH2 0x2C7C PUSH2 0x3BC9 JUMP JUMPDEST JUMPDEST PUSH1 0x0 PUSH2 0x2C8B DUP5 DUP3 DUP6 ADD PUSH2 0x2B60 JUMP JUMPDEST SWAP2 POP POP SWAP3 SWAP2 POP POP JUMP JUMPDEST PUSH1 0x0 DUP1 PUSH1 0x0 DUP1 PUSH1 0x80 DUP6 DUP8 SUB SLT ISZERO PUSH2 0x2CAE JUMPI PUSH2 0x2CAD PUSH2 0x3BC9 JUMP JUMPDEST JUMPDEST PUSH1 0x0 DUP6 ADD CALLDATALOAD PUSH8 0xFFFFFFFFFFFFFFFF DUP2 GT ISZERO PUSH2 0x2CCC JUMPI PUSH2 0x2CCB PUSH2 0x3BC4 JUMP JUMPDEST JUMPDEST PUSH2 0x2CD8 DUP8 DUP3 DUP9 ADD PUSH2 0x2B75 JUMP JUMPDEST SWAP5 POP POP PUSH1 0x20 DUP6 ADD CALLDATALOAD PUSH8 0xFFFFFFFFFFFFFFFF DUP2 GT ISZERO PUSH2 0x2CF9 JUMPI PUSH2 0x2CF8 PUSH2 0x3BC4 JUMP JUMPDEST JUMPDEST PUSH2 0x2D05 DUP8 DUP3 DUP9 ADD PUSH2 0x2B75 JUMP JUMPDEST SWAP4 POP POP PUSH1 0x40 DUP6 ADD CALLDATALOAD PUSH8 0xFFFFFFFFFFFFFFFF DUP2 GT ISZERO PUSH2 0x2D26 JUMPI PUSH2 0x2D25 PUSH2 0x3BC4 JUMP JUMPDEST JUMPDEST PUSH2 0x2D32 DUP8 DUP3 DUP9 ADD PUSH2 0x2B75 JUMP JUMPDEST SWAP3 POP POP PUSH1 0x60 PUSH2 0x2D43 DUP8 DUP3 DUP9 ADD PUSH2 0x2BA3 JUMP JUMPDEST SWAP2 POP POP SWAP3 SWAP6 SWAP2 SWAP5 POP SWAP3 POP JUMP JUMPDEST PUSH1 0x0 PUSH1 0x20 DUP3 DUP5 SUB SLT ISZERO PUSH2 0x2D65 JUMPI PUSH2 0x2D64 PUSH2 0x3BC9 JUMP JUMPDEST JUMPDEST PUSH1 0x0 PUSH2 0x2D73 DUP5 DUP3 DUP6 ADD PUSH2 0x2BA3 JUMP JUMPDEST SWAP2 POP POP SWAP3 SWAP2 POP POP JUMP JUMPDEST PUSH1 0x0 PUSH1 0x20 DUP3 DUP5 SUB SLT ISZERO PUSH2 0x2D92 JUMPI PUSH2 0x2D91 PUSH2 0x3BC9 JUMP JUMPDEST JUMPDEST PUSH1 0x0 PUSH2 0x2DA0 DUP5 DUP3 DUP6 ADD PUSH2 0x2BB8 JUMP JUMPDEST SWAP2 POP POP SWAP3 SWAP2 POP POP JUMP JUMPDEST PUSH1 0x0 DUP1 PUSH1 0x40 DUP4 DUP6 SUB SLT ISZERO PUSH2 0x2DC0 JUMPI PUSH2 0x2DBF PUSH2 0x3BC9 JUMP JUMPDEST JUMPDEST PUSH1 0x0 PUSH2 0x2DCE DUP6 DUP3 DUP7 ADD PUSH2 0x2BA3 JUMP JUMPDEST SWAP3 POP POP PUSH1 0x20 PUSH2 0x2DDF DUP6 DUP3 DUP7 ADD PUSH2 0x2BA3 JUMP JUMPDEST SWAP2 POP POP SWAP3 POP SWAP3 SWAP1 POP JUMP JUMPDEST PUSH1 0x0 DUP1 PUSH1 0x0 DUP1 PUSH1 0x0 PUSH1 0xA0 DUP7 DUP9 SUB SLT ISZERO PUSH2 0x2E05 JUMPI PUSH2 0x2E04 PUSH2 0x3BC9 JUMP JUMPDEST JUMPDEST PUSH1 0x0 PUSH2 0x2E13 DUP9 DUP3 DUP10 ADD PUSH2 0x2BA3 JUMP JUMPDEST SWAP6 POP POP PUSH1 0x20 PUSH2 0x2E24 DUP9 DUP3 DUP10 ADD PUSH2 0x2BA3 JUMP JUMPDEST SWAP5 POP POP PUSH1 0x40 PUSH2 0x2E35 DUP9 DUP3 DUP10 ADD PUSH2 0x2BA3 JUMP JUMPDEST SWAP4 POP POP PUSH1 0x60 PUSH2 0x2E46 DUP9 DUP3 DUP10 ADD PUSH2 0x2BA3 JUMP JUMPDEST SWAP3 POP POP PUSH1 0x80 PUSH2 0x2E57 DUP9 DUP3 DUP10 ADD PUSH2 0x2BA3 JUMP JUMPDEST SWAP2 POP POP SWAP3 SWAP6 POP SWAP3 SWAP6 SWAP1 SWAP4 POP JUMP JUMPDEST PUSH1 0x0 PUSH2 0x2E70 DUP4 DUP4 PUSH2 0x31B2 JUMP JUMPDEST SWAP1 POP SWAP3 SWAP2 POP POP JUMP JUMPDEST PUSH2 0x2E81 DUP2 PUSH2 0x393F JUMP JUMPDEST DUP3 MSTORE POP POP JUMP JUMPDEST PUSH2 0x2E90 DUP2 PUSH2 0x393F JUMP JUMPDEST DUP3 MSTORE POP POP JUMP JUMPDEST PUSH1 0x0 PUSH2 0x2EA1 DUP3 PUSH2 0x3808 JUMP JUMPDEST PUSH2 0x2EAB DUP2 DUP6 PUSH2 0x382B JUMP JUMPDEST SWAP4 POP DUP4 PUSH1 0x20 DUP3 MUL DUP6 ADD PUSH2 0x2EBD DUP6 PUSH2 0x37F8 JUMP JUMPDEST DUP1 PUSH1 0x0 JUMPDEST DUP6 DUP2 LT ISZERO PUSH2 0x2EF9 JUMPI DUP5 DUP5 SUB DUP10 MSTORE DUP2 MLOAD PUSH2 0x2EDA DUP6 DUP3 PUSH2 0x2E64 JUMP JUMPDEST SWAP5 POP PUSH2 0x2EE5 DUP4 PUSH2 0x381E JUMP JUMPDEST SWAP3 POP PUSH1 0x20 DUP11 ADD SWAP10 POP POP PUSH1 0x1 DUP2 ADD SWAP1 POP PUSH2 0x2EC1 JUMP JUMPDEST POP DUP3 SWAP8 POP DUP8 SWAP6 POP POP POP POP POP POP SWAP3 SWAP2 POP POP JUMP JUMPDEST PUSH2 0x2F14 DUP2 PUSH2 0x3951 JUMP JUMPDEST DUP3 MSTORE POP POP JUMP JUMPDEST PUSH2 0x2F23 DUP2 PUSH2 0x3951 JUMP JUMPDEST DUP3 MSTORE POP POP JUMP JUMPDEST PUSH2 0x2F32 DUP2 PUSH2 0x3987 JUMP JUMPDEST DUP3 MSTORE POP POP JUMP JUMPDEST PUSH2 0x2F41 DUP2 PUSH2 0x3999 JUMP JUMPDEST DUP3 MSTORE POP POP JUMP JUMPDEST PUSH2 0x2F50 DUP2 PUSH2 0x39AB JUMP JUMPDEST DUP3 MSTORE POP POP JUMP JUMPDEST PUSH1 0x0 PUSH2 0x2F61 DUP3 PUSH2 0x3813 JUMP JUMPDEST PUSH2 0x2F6B DUP2 DUP6 PUSH2 0x383C JUMP JUMPDEST SWAP4 POP PUSH2 0x2F7B DUP2 DUP6 PUSH1 0x20 DUP7 ADD PUSH2 0x39F0 JUMP JUMPDEST PUSH2 0x2F84 DUP2 PUSH2 0x3BCE JUMP JUMPDEST DUP5 ADD SWAP2 POP POP SWAP3 SWAP2 POP POP JUMP JUMPDEST PUSH1 0x0 PUSH2 0x2F9A DUP3 PUSH2 0x3813 JUMP JUMPDEST PUSH2 0x2FA4 DUP2 DUP6 PUSH2 0x384D JUMP JUMPDEST SWAP4 POP PUSH2 0x2FB4 DUP2 DUP6 PUSH1 0x20 DUP7 ADD PUSH2 0x39F0 JUMP JUMPDEST PUSH2 0x2FBD DUP2 PUSH2 0x3BCE JUMP JUMPDEST DUP5 ADD SWAP2 POP POP SWAP3 SWAP2 POP POP JUMP JUMPDEST PUSH1 0x0 PUSH2 0x2FD5 PUSH1 0x16 DUP4 PUSH2 0x384D JUMP JUMPDEST SWAP2 POP PUSH2 0x2FE0 DUP3 PUSH2 0x3BDF JUMP JUMPDEST PUSH1 0x20 DUP3 ADD SWAP1 POP SWAP2 SWAP1 POP JUMP JUMPDEST PUSH1 0x0 PUSH2 0x2FF8 PUSH1 0xD DUP4 PUSH2 0x384D JUMP JUMPDEST SWAP2 POP PUSH2 0x3003 DUP3 PUSH2 0x3C08 JUMP JUMPDEST PUSH1 0x20 DUP3 ADD SWAP1 POP SWAP2 SWAP1 POP JUMP JUMPDEST PUSH1 0x0 PUSH2 0x301B PUSH1 0x24 DUP4 PUSH2 0x384D JUMP JUMPDEST SWAP2 POP PUSH2 0x3026 DUP3 PUSH2 0x3C31 JUMP JUMPDEST PUSH1 0x40 DUP3 ADD SWAP1 POP SWAP2 SWAP1 POP JUMP JUMPDEST PUSH1 0x0 PUSH2 0x303E PUSH1 0x26 DUP4 PUSH2 0x384D JUMP JUMPDEST SWAP2 POP PUSH2 0x3049 DUP3 PUSH2 0x3C80 JUMP JUMPDEST PUSH1 0x40 DUP3 ADD SWAP1 POP SWAP2 SWAP1 POP JUMP JUMPDEST PUSH1 0x0 PUSH2 0x3061 PUSH1 0x33 DUP4 PUSH2 0x384D JUMP JUMPDEST SWAP2 POP PUSH2 0x306C DUP3 PUSH2 0x3CCF JUMP JUMPDEST PUSH1 0x40 DUP3 ADD SWAP1 POP SWAP2 SWAP1 POP JUMP JUMPDEST PUSH1 0x0 PUSH2 0x3084 PUSH1 0x18 DUP4 PUSH2 0x384D JUMP JUMPDEST SWAP2 POP PUSH2 0x308F DUP3 PUSH2 0x3D1E JUMP JUMPDEST PUSH1 0x20 DUP3 ADD SWAP1 POP SWAP2 SWAP1 POP JUMP JUMPDEST PUSH1 0x0 PUSH2 0x30A7 PUSH1 0x1A DUP4 PUSH2 0x384D JUMP JUMPDEST SWAP2 POP PUSH2 0x30B2 DUP3 PUSH2 0x3D47 JUMP JUMPDEST PUSH1 0x20 DUP3 ADD SWAP1 POP SWAP2 SWAP1 POP JUMP JUMPDEST PUSH1 0x0 PUSH2 0x30CA PUSH1 0x10 DUP4 PUSH2 0x384D JUMP JUMPDEST SWAP2 POP PUSH2 0x30D5 DUP3 PUSH2 0x3D70 JUMP JUMPDEST PUSH1 0x20 DUP3 ADD SWAP1 POP SWAP2 SWAP1 POP JUMP JUMPDEST PUSH1 0x0 PUSH2 0x30ED PUSH1 0x34 DUP4 PUSH2 0x384D JUMP JUMPDEST SWAP2 POP PUSH2 0x30F8 DUP3 PUSH2 0x3D99 JUMP JUMPDEST PUSH1 0x40 DUP3 ADD SWAP1 POP SWAP2 SWAP1 POP JUMP JUMPDEST PUSH1 0x0 PUSH2 0x3110 PUSH1 0x20 DUP4 PUSH2 0x384D JUMP JUMPDEST SWAP2 POP PUSH2 0x311B DUP3 PUSH2 0x3DE8 JUMP JUMPDEST PUSH1 0x20 DUP3 ADD SWAP1 POP SWAP2 SWAP1 POP JUMP JUMPDEST PUSH1 0x0 PUSH2 0x3133 PUSH1 0x1F DUP4 PUSH2 0x384D JUMP JUMPDEST SWAP2 POP PUSH2 0x313E DUP3 PUSH2 0x3E11 JUMP JUMPDEST PUSH1 0x20 DUP3 ADD SWAP1 POP SWAP2 SWAP1 POP JUMP JUMPDEST PUSH1 0x0 PUSH2 0x3156 PUSH1 0x2D DUP4 PUSH2 0x384D JUMP JUMPDEST SWAP2 POP PUSH2 0x3161 DUP3 PUSH2 0x3E3A JUMP JUMPDEST PUSH1 0x40 DUP3 ADD SWAP1 POP SWAP2 SWAP1 POP JUMP JUMPDEST PUSH1 0x0 PUSH2 0x3179 PUSH1 0x26 DUP4 PUSH2 0x384D JUMP JUMPDEST SWAP2 POP PUSH2 0x3184 DUP3 PUSH2 0x3E89 JUMP JUMPDEST PUSH1 0x40 DUP3 ADD SWAP1 POP SWAP2 SWAP1 POP JUMP JUMPDEST PUSH1 0x0 PUSH2 0x319C PUSH1 0x29 DUP4 PUSH2 0x384D JUMP JUMPDEST SWAP2 POP PUSH2 0x31A7 DUP3 PUSH2 0x3ED8 JUMP JUMPDEST PUSH1 0x40 DUP3 ADD SWAP1 POP SWAP2 SWAP1 POP JUMP JUMPDEST PUSH1 0x0 PUSH2 0x180 DUP4 ADD PUSH1 0x0 DUP4 ADD MLOAD PUSH2 0x31CB PUSH1 0x0 DUP7 ADD DUP3 PUSH2 0x3333 JUMP JUMPDEST POP PUSH1 0x20 DUP4 ADD MLOAD DUP5 DUP3 SUB PUSH1 0x20 DUP7 ADD MSTORE PUSH2 0x31E3 DUP3 DUP3 PUSH2 0x2F56 JUMP JUMPDEST SWAP2 POP POP PUSH1 0x40 DUP4 ADD MLOAD DUP5 DUP3 SUB PUSH1 0x40 DUP7 ADD MSTORE PUSH2 0x31FD DUP3 DUP3 PUSH2 0x2F56 JUMP JUMPDEST SWAP2 POP POP PUSH1 0x60 DUP4 ADD MLOAD DUP5 DUP3 SUB PUSH1 0x60 DUP7 ADD MSTORE PUSH2 0x3217 DUP3 DUP3 PUSH2 0x2F56 JUMP JUMPDEST SWAP2 POP POP PUSH1 0x80 DUP4 ADD MLOAD PUSH2 0x322C PUSH1 0x80 DUP7 ADD DUP3 PUSH2 0x2E78 JUMP JUMPDEST POP PUSH1 0xA0 DUP4 ADD MLOAD PUSH2 0x323F PUSH1 0xA0 DUP7 ADD DUP3 PUSH2 0x3333 JUMP JUMPDEST POP PUSH1 0xC0 DUP4 ADD MLOAD PUSH2 0x3252 PUSH1 0xC0 DUP7 ADD DUP3 PUSH2 0x3333 JUMP JUMPDEST POP PUSH1 0xE0 DUP4 ADD MLOAD PUSH2 0x3265 PUSH1 0xE0 DUP7 ADD DUP3 PUSH2 0x3333 JUMP JUMPDEST POP PUSH2 0x100 DUP4 ADD MLOAD PUSH2 0x327A PUSH2 0x100 DUP7 ADD DUP3 PUSH2 0x3333 JUMP JUMPDEST POP PUSH2 0x120 DUP4 ADD MLOAD PUSH2 0x328F PUSH2 0x120 DUP7 ADD DUP3 PUSH2 0x3333 JUMP JUMPDEST POP PUSH2 0x140 DUP4 ADD MLOAD DUP5 DUP3 SUB PUSH2 0x140 DUP7 ADD MSTORE PUSH2 0x32A9 DUP3 DUP3 PUSH2 0x2F56 JUMP JUMPDEST SWAP2 POP POP PUSH2 0x160 DUP4 ADD MLOAD PUSH2 0x32C0 PUSH2 0x160 DUP7 ADD DUP3 PUSH2 0x2F0B JUMP JUMPDEST POP DUP1 SWAP2 POP POP SWAP3 SWAP2 POP POP JUMP JUMPDEST PUSH1 0xA0 DUP3 ADD PUSH1 0x0 DUP3 ADD MLOAD PUSH2 0x32E1 PUSH1 0x0 DUP6 ADD DUP3 PUSH2 0x3333 JUMP JUMPDEST POP PUSH1 0x20 DUP3 ADD MLOAD PUSH2 0x32F4 PUSH1 0x20 DUP6 ADD DUP3 PUSH2 0x3333 JUMP JUMPDEST POP PUSH1 0x40 DUP3 ADD MLOAD PUSH2 0x3307 PUSH1 0x40 DUP6 ADD DUP3 PUSH2 0x3333 JUMP JUMPDEST POP PUSH1 0x60 DUP3 ADD MLOAD PUSH2 0x331A PUSH1 0x60 DUP6 ADD DUP3 PUSH2 0x3333 JUMP JUMPDEST POP PUSH1 0x80 DUP3 ADD MLOAD PUSH2 0x332D PUSH1 0x80 DUP6 ADD DUP3 PUSH2 0x3333 JUMP JUMPDEST POP POP POP POP JUMP JUMPDEST PUSH2 0x333C DUP2 PUSH2 0x397D JUMP JUMPDEST DUP3 MSTORE POP POP JUMP JUMPDEST PUSH2 0x334B DUP2 PUSH2 0x397D JUMP JUMPDEST DUP3 MSTORE POP POP JUMP JUMPDEST PUSH1 0x0 PUSH1 0x20 DUP3 ADD SWAP1 POP PUSH2 0x3366 PUSH1 0x0 DUP4 ADD DUP5 PUSH2 0x2E87 JUMP JUMPDEST SWAP3 SWAP2 POP POP JUMP JUMPDEST PUSH1 0x0 PUSH1 0x40 DUP3 ADD SWAP1 POP PUSH2 0x3381 PUSH1 0x0 DUP4 ADD DUP6 PUSH2 0x2E87 JUMP JUMPDEST PUSH2 0x338E PUSH1 0x20 DUP4 ADD DUP5 PUSH2 0x2E87 JUMP JUMPDEST SWAP4 SWAP3 POP POP POP JUMP JUMPDEST PUSH1 0x0 PUSH1 0x60 DUP3 ADD SWAP1 POP PUSH2 0x33AA PUSH1 0x0 DUP4 ADD DUP7 PUSH2 0x2E87 JUMP JUMPDEST PUSH2 0x33B7 PUSH1 0x20 DUP4 ADD DUP6 PUSH2 0x2E87 JUMP JUMPDEST PUSH2 0x33C4 PUSH1 0x40 DUP4 ADD DUP5 PUSH2 0x3342 JUMP JUMPDEST SWAP5 SWAP4 POP POP POP POP JUMP JUMPDEST PUSH1 0x0 PUSH1 0x40 DUP3 ADD SWAP1 POP PUSH2 0x33E1 PUSH1 0x0 DUP4 ADD DUP6 PUSH2 0x2E87 JUMP JUMPDEST PUSH2 0x33EE PUSH1 0x20 DUP4 ADD DUP5 PUSH2 0x3342 JUMP JUMPDEST SWAP4 SWAP3 POP POP POP JUMP JUMPDEST PUSH1 0x0 PUSH1 0x20 DUP3 ADD SWAP1 POP DUP2 DUP2 SUB PUSH1 0x0 DUP4 ADD MSTORE PUSH2 0x340F DUP2 DUP5 PUSH2 0x2E96 JUMP JUMPDEST SWAP1 POP SWAP3 SWAP2 POP POP JUMP JUMPDEST PUSH1 0x0 PUSH1 0x20 DUP3 ADD SWAP1 POP PUSH2 0x342C PUSH1 0x0 DUP4 ADD DUP5 PUSH2 0x2F1A JUMP JUMPDEST SWAP3 SWAP2 POP POP JUMP JUMPDEST PUSH1 0x0 PUSH1 0x20 DUP3 ADD SWAP1 POP PUSH2 0x3447 PUSH1 0x0 DUP4 ADD DUP5 PUSH2 0x2F29 JUMP JUMPDEST SWAP3 SWAP2 POP POP JUMP JUMPDEST PUSH1 0x0 PUSH1 0x20 DUP3 ADD SWAP1 POP PUSH2 0x3462 PUSH1 0x0 DUP4 ADD DUP5 PUSH2 0x2F38 JUMP JUMPDEST SWAP3 SWAP2 POP POP JUMP JUMPDEST PUSH1 0x0 PUSH1 0x20 DUP3 ADD SWAP1 POP PUSH2 0x347D PUSH1 0x0 DUP4 ADD DUP5 PUSH2 0x2F47 JUMP JUMPDEST SWAP3 SWAP2 POP POP JUMP JUMPDEST PUSH1 0x0 PUSH1 0x20 DUP3 ADD SWAP1 POP DUP2 DUP2 SUB PUSH1 0x0 DUP4 ADD MSTORE PUSH2 0x349C DUP2 PUSH2 0x2FC8 JUMP JUMPDEST SWAP1 POP SWAP2 SWAP1 POP JUMP JUMPDEST PUSH1 0x0 PUSH1 0x20 DUP3 ADD SWAP1 POP DUP2 DUP2 SUB PUSH1 0x0 DUP4 ADD MSTORE PUSH2 0x34BC DUP2 PUSH2 0x2FEB JUMP JUMPDEST SWAP1 POP SWAP2 SWAP1 POP JUMP JUMPDEST PUSH1 0x0 PUSH1 0x20 DUP3 ADD SWAP1 POP DUP2 DUP2 SUB PUSH1 0x0 DUP4 ADD MSTORE PUSH2 0x34DC DUP2 PUSH2 0x300E JUMP JUMPDEST SWAP1 POP SWAP2 SWAP1 POP JUMP JUMPDEST PUSH1 0x0 PUSH1 0x20 DUP3 ADD SWAP1 POP DUP2 DUP2 SUB PUSH1 0x0 DUP4 ADD MSTORE PUSH2 0x34FC DUP2 PUSH2 0x3031 JUMP JUMPDEST SWAP1 POP SWAP2 SWAP1 POP JUMP JUMPDEST PUSH1 0x0 PUSH1 0x20 DUP3 ADD SWAP1 POP DUP2 DUP2 SUB PUSH1 0x0 DUP4 ADD MSTORE PUSH2 0x351C DUP2 PUSH2 0x3054 JUMP JUMPDEST SWAP1 POP SWAP2 SWAP1 POP JUMP JUMPDEST PUSH1 0x0 PUSH1 0x20 DUP3 ADD SWAP1 POP DUP2 DUP2 SUB PUSH1 0x0 DUP4 ADD MSTORE PUSH2 0x353C DUP2 PUSH2 0x3077 JUMP JUMPDEST SWAP1 POP SWAP2 SWAP1 POP JUMP JUMPDEST PUSH1 0x0 PUSH1 0x20 DUP3 ADD SWAP1 POP DUP2 DUP2 SUB PUSH1 0x0 DUP4 ADD MSTORE PUSH2 0x355C DUP2 PUSH2 0x309A JUMP JUMPDEST SWAP1 POP SWAP2 SWAP1 POP JUMP JUMPDEST PUSH1 0x0 PUSH1 0x20 DUP3 ADD SWAP1 POP DUP2 DUP2 SUB PUSH1 0x0 DUP4 ADD MSTORE PUSH2 0x357C DUP2 PUSH2 0x30BD JUMP JUMPDEST SWAP1 POP SWAP2 SWAP1 POP JUMP JUMPDEST PUSH1 0x0 PUSH1 0x20 DUP3 ADD SWAP1 POP DUP2 DUP2 SUB PUSH1 0x0 DUP4 ADD MSTORE PUSH2 0x359C DUP2 PUSH2 0x30E0 JUMP JUMPDEST SWAP1 POP SWAP2 SWAP1 POP JUMP JUMPDEST PUSH1 0x0 PUSH1 0x20 DUP3 ADD SWAP1 POP DUP2 DUP2 SUB PUSH1 0x0 DUP4 ADD MSTORE PUSH2 0x35BC DUP2 PUSH2 0x3103 JUMP JUMPDEST SWAP1 POP SWAP2 SWAP1 POP JUMP JUMPDEST PUSH1 0x0 PUSH1 0x20 DUP3 ADD SWAP1 POP DUP2 DUP2 SUB PUSH1 0x0 DUP4 ADD MSTORE PUSH2 0x35DC DUP2 PUSH2 0x3126 JUMP JUMPDEST SWAP1 POP SWAP2 SWAP1 POP JUMP JUMPDEST PUSH1 0x0 PUSH1 0x20 DUP3 ADD SWAP1 POP DUP2 DUP2 SUB PUSH1 0x0 DUP4 ADD MSTORE PUSH2 0x35FC DUP2 PUSH2 0x3149 JUMP JUMPDEST SWAP1 POP SWAP2 SWAP1 POP JUMP JUMPDEST PUSH1 0x0 PUSH1 0x20 DUP3 ADD SWAP1 POP DUP2 DUP2 SUB PUSH1 0x0 DUP4 ADD MSTORE PUSH2 0x361C DUP2 PUSH2 0x316C JUMP JUMPDEST SWAP1 POP SWAP2 SWAP1 POP JUMP JUMPDEST PUSH1 0x0 PUSH1 0x20 DUP3 ADD SWAP1 POP DUP2 DUP2 SUB PUSH1 0x0 DUP4 ADD MSTORE PUSH2 0x363C DUP2 PUSH2 0x318F JUMP JUMPDEST SWAP1 POP SWAP2 SWAP1 POP JUMP JUMPDEST PUSH1 0x0 PUSH1 0xA0 DUP3 ADD SWAP1 POP PUSH2 0x3658 PUSH1 0x0 DUP4 ADD DUP5 PUSH2 0x32CB JUMP JUMPDEST SWAP3 SWAP2 POP POP JUMP JUMPDEST PUSH1 0x0 PUSH1 0x20 DUP3 ADD SWAP1 POP PUSH2 0x3673 PUSH1 0x0 DUP4 ADD DUP5 PUSH2 0x3342 JUMP JUMPDEST SWAP3 SWAP2 POP POP JUMP JUMPDEST PUSH1 0x0 PUSH2 0x180 DUP3 ADD SWAP1 POP PUSH2 0x368F PUSH1 0x0 DUP4 ADD DUP16 PUSH2 0x3342 JUMP JUMPDEST DUP2 DUP2 SUB PUSH1 0x20 DUP4 ADD MSTORE PUSH2 0x36A1 DUP2 DUP15 PUSH2 0x2F8F JUMP JUMPDEST SWAP1 POP DUP2 DUP2 SUB PUSH1 0x40 DUP4 ADD MSTORE PUSH2 0x36B5 DUP2 DUP14 PUSH2 0x2F8F JUMP JUMPDEST SWAP1 POP DUP2 DUP2 SUB PUSH1 0x60 DUP4 ADD MSTORE PUSH2 0x36C9 DUP2 DUP13 PUSH2 0x2F8F JUMP JUMPDEST SWAP1 POP PUSH2 0x36D8 PUSH1 0x80 DUP4 ADD DUP12 PUSH2 0x2E87 JUMP JUMPDEST PUSH2 0x36E5 PUSH1 0xA0 DUP4 ADD DUP11 PUSH2 0x3342 JUMP JUMPDEST PUSH2 0x36F2 PUSH1 0xC0 DUP4 ADD DUP10 PUSH2 0x3342 JUMP JUMPDEST PUSH2 0x36FF PUSH1 0xE0 DUP4 ADD DUP9 PUSH2 0x3342 JUMP JUMPDEST PUSH2 0x370D PUSH2 0x100 DUP4 ADD DUP8 PUSH2 0x3342 JUMP JUMPDEST PUSH2 0x371B PUSH2 0x120 DUP4 ADD DUP7 PUSH2 0x3342 JUMP JUMPDEST DUP2 DUP2 SUB PUSH2 0x140 DUP4 ADD MSTORE PUSH2 0x372E DUP2 DUP6 PUSH2 0x2F8F JUMP JUMPDEST SWAP1 POP PUSH2 0x373E PUSH2 0x160 DUP4 ADD DUP5 PUSH2 0x2F1A JUMP JUMPDEST SWAP14 SWAP13 POP POP POP POP POP POP POP POP POP POP POP POP POP JUMP JUMPDEST PUSH1 0x0 PUSH1 0xA0 DUP3 ADD SWAP1 POP PUSH2 0x3764 PUSH1 0x0 DUP4 ADD DUP9 PUSH2 0x3342 JUMP JUMPDEST PUSH2 0x3771 PUSH1 0x20 DUP4 ADD DUP8 PUSH2 0x3342 JUMP JUMPDEST PUSH2 0x377E PUSH1 0x40 DUP4 ADD DUP7 PUSH2 0x3342 JUMP JUMPDEST PUSH2 0x378B PUSH1 0x60 DUP4 ADD DUP6 PUSH2 0x3342 JUMP JUMPDEST PUSH2 0x3798 PUSH1 0x80 DUP4 ADD DUP5 PUSH2 0x3342 JUMP JUMPDEST SWAP7 SWAP6 POP POP POP POP POP POP JUMP JUMPDEST PUSH1 0x0 PUSH2 0x37AC PUSH2 0x37BD JUMP JUMPDEST SWAP1 POP PUSH2 0x37B8 DUP3 DUP3 PUSH2 0x3A55 JUMP JUMPDEST SWAP2 SWAP1 POP JUMP JUMPDEST PUSH1 0x0 PUSH1 0x40 MLOAD SWAP1 POP SWAP1 JUMP JUMPDEST PUSH1 0x0 PUSH8 0xFFFFFFFFFFFFFFFF DUP3 GT ISZERO PUSH2 0x37E2 JUMPI PUSH2 0x37E1 PUSH2 0x3B8B JUMP JUMPDEST JUMPDEST PUSH2 0x37EB DUP3 PUSH2 0x3BCE JUMP JUMPDEST SWAP1 POP PUSH1 0x20 DUP2 ADD SWAP1 POP SWAP2 SWAP1 POP JUMP JUMPDEST PUSH1 0x0 DUP2 SWAP1 POP PUSH1 0x20 DUP3 ADD SWAP1 POP SWAP2 SWAP1 POP JUMP JUMPDEST PUSH1 0x0 DUP2 MLOAD SWAP1 POP SWAP2 SWAP1 POP JUMP JUMPDEST PUSH1 0x0 DUP2 MLOAD SWAP1 POP SWAP2 SWAP1 POP JUMP JUMPDEST PUSH1 0x0 PUSH1 0x20 DUP3 ADD SWAP1 POP SWAP2 SWAP1 POP JUMP JUMPDEST PUSH1 0x0 DUP3 DUP3 MSTORE PUSH1 0x20 DUP3 ADD SWAP1 POP SWAP3 SWAP2 POP POP JUMP JUMPDEST PUSH1 0x0 DUP3 DUP3 MSTORE PUSH1 0x20 DUP3 ADD SWAP1 POP SWAP3 SWAP2 POP POP JUMP JUMPDEST PUSH1 0x0 DUP3 DUP3 MSTORE PUSH1 0x20 DUP3 ADD SWAP1 POP SWAP3 SWAP2 POP POP JUMP JUMPDEST PUSH1 0x0 PUSH2 0x3869 DUP3 PUSH2 0x397D JUMP JUMPDEST SWAP2 POP PUSH2 0x3874 DUP4 PUSH2 0x397D JUMP JUMPDEST SWAP3 POP DUP3 PUSH32 0xFFFFFFFFFFFFFFFFFFFFFFFFFFFFFFFFFFFFFFFFFFFFFFFFFFFFFFFFFFFFFFFF SUB DUP3 GT ISZERO PUSH2 0x38A9 JUMPI PUSH2 0x38A8 PUSH2 0x3ACF JUMP JUMPDEST JUMPDEST DUP3 DUP3 ADD SWAP1 POP SWAP3 SWAP2 POP POP JUMP JUMPDEST PUSH1 0x0 PUSH2 0x38BF DUP3 PUSH2 0x397D JUMP JUMPDEST SWAP2 POP PUSH2 0x38CA DUP4 PUSH2 0x397D JUMP JUMPDEST SWAP3 POP DUP3 PUSH2 0x38DA JUMPI PUSH2 0x38D9 PUSH2 0x3AFE JUMP JUMPDEST JUMPDEST DUP3 DUP3 DIV SWAP1 POP SWAP3 SWAP2 POP POP JUMP JUMPDEST PUSH1 0x0 PUSH2 0x38F0 DUP3 PUSH2 0x397D JUMP JUMPDEST SWAP2 POP PUSH2 0x38FB DUP4 PUSH2 0x397D JUMP JUMPDEST SWAP3 POP DUP2 PUSH32 0xFFFFFFFFFFFFFFFFFFFFFFFFFFFFFFFFFFFFFFFFFFFFFFFFFFFFFFFFFFFFFFFF DIV DUP4 GT DUP3 ISZERO ISZERO AND ISZERO PUSH2 0x3934 JUMPI PUSH2 0x3933 PUSH2 0x3ACF JUMP JUMPDEST JUMPDEST DUP3 DUP3 MUL SWAP1 POP SWAP3 SWAP2 POP POP JUMP JUMPDEST PUSH1 0x0 PUSH2 0x394A DUP3 PUSH2 0x395D JUMP JUMPDEST SWAP1 POP SWAP2 SWAP1 POP JUMP JUMPDEST PUSH1 0x0 DUP2 ISZERO ISZERO SWAP1 POP SWAP2 SWAP1 POP JUMP JUMPDEST PUSH1 0x0 PUSH20 0xFFFFFFFFFFFFFFFFFFFFFFFFFFFFFFFFFFFFFFFF DUP3 AND SWAP1 POP SWAP2 SWAP1 POP JUMP JUMPDEST PUSH1 0x0 DUP2 SWAP1 POP SWAP2 SWAP1 POP JUMP JUMPDEST PUSH1 0x0 PUSH2 0x3992 DUP3 PUSH2 0x39BD JUMP JUMPDEST SWAP1 POP SWAP2 SWAP1 POP JUMP JUMPDEST PUSH1 0x0 PUSH2 0x39A4 DUP3 PUSH2 0x39BD JUMP JUMPDEST SWAP1 POP SWAP2 SWAP1 POP JUMP JUMPDEST PUSH1 0x0 PUSH2 0x39B6 DUP3 PUSH2 0x39BD JUMP JUMPDEST SWAP1 POP SWAP2 SWAP1 POP JUMP JUMPDEST PUSH1 0x0 PUSH2 0x39C8 DUP3 PUSH2 0x39CF JUMP JUMPDEST SWAP1 POP SWAP2 SWAP1 POP JUMP JUMPDEST PUSH1 0x0 PUSH2 0x39DA DUP3 PUSH2 0x395D JUMP JUMPDEST SWAP1 POP SWAP2 SWAP1 POP JUMP JUMPDEST DUP3 DUP2 DUP4 CALLDATACOPY PUSH1 0x0 DUP4 DUP4 ADD MSTORE POP POP POP JUMP JUMPDEST PUSH1 0x0 JUMPDEST DUP4 DUP2 LT ISZERO PUSH2 0x3A0E JUMPI DUP1 DUP3 ADD MLOAD DUP2 DUP5 ADD MSTORE PUSH1 0x20 DUP2 ADD SWAP1 POP PUSH2 0x39F3 JUMP JUMPDEST DUP4 DUP2 GT ISZERO PUSH2 0x3A1D JUMPI PUSH1 0x0 DUP5 DUP5 ADD MSTORE JUMPDEST POP POP POP POP JUMP JUMPDEST PUSH1 0x0 PUSH1 0x2 DUP3 DIV SWAP1 POP PUSH1 0x1 DUP3 AND DUP1 PUSH2 0x3A3B JUMPI PUSH1 0x7F DUP3 AND SWAP2 POP JUMPDEST PUSH1 0x20 DUP3 LT DUP2 EQ ISZERO PUSH2 0x3A4F JUMPI PUSH2 0x3A4E PUSH2 0x3B2D JUMP JUMPDEST JUMPDEST POP SWAP2 SWAP1 POP JUMP JUMPDEST PUSH2 0x3A5E DUP3 PUSH2 0x3BCE JUMP JUMPDEST DUP2 ADD DUP2 DUP2 LT PUSH8 0xFFFFFFFFFFFFFFFF DUP3 GT OR ISZERO PUSH2 0x3A7D JUMPI PUSH2 0x3A7C PUSH2 0x3B8B JUMP JUMPDEST JUMPDEST DUP1 PUSH1 0x40 MSTORE POP POP POP JUMP JUMPDEST PUSH1 0x0 PUSH2 0x3A91 DUP3 PUSH2 0x397D JUMP JUMPDEST SWAP2 POP PUSH32 0xFFFFFFFFFFFFFFFFFFFFFFFFFFFFFFFFFFFFFFFFFFFFFFFFFFFFFFFFFFFFFFFF DUP3 EQ ISZERO PUSH2 0x3AC4 JUMPI PUSH2 0x3AC3 PUSH2 0x3ACF JUMP JUMPDEST JUMPDEST PUSH1 0x1 DUP3 ADD SWAP1 POP SWAP2 SWAP1 POP JUMP JUMPDEST PUSH32 0x4E487B7100000000000000000000000000000000000000000000000000000000 PUSH1 0x0 MSTORE PUSH1 0x11 PUSH1 0x4 MSTORE PUSH1 0x24 PUSH1 0x0 REVERT JUMPDEST PUSH32 0x4E487B7100000000000000000000000000000000000000000000000000000000 PUSH1 0x0 MSTORE PUSH1 0x12 PUSH1 0x4 MSTORE PUSH1 0x24 PUSH1 0x0 REVERT JUMPDEST PUSH32 0x4E487B7100000000000000000000000000000000000000000000000000000000 PUSH1 0x0 MSTORE PUSH1 0x22 PUSH1 0x4 MSTORE PUSH1 0x24 PUSH1 0x0 REVERT JUMPDEST PUSH32 0x4E487B7100000000000000000000000000000000000000000000000000000000 PUSH1 0x0 MSTORE PUSH1 0x32 PUSH1 0x4 MSTORE PUSH1 0x24 PUSH1 0x0 REVERT JUMPDEST PUSH32 0x4E487B7100000000000000000000000000000000000000000000000000000000 PUSH1 0x0 MSTORE PUSH1 0x41 PUSH1 0x4 MSTORE PUSH1 0x24 PUSH1 0x0 REVERT JUMPDEST PUSH1 0x0 DUP1 REVERT JUMPDEST PUSH1 0x0 DUP1 REVERT JUMPDEST PUSH1 0x0 DUP1 REVERT JUMPDEST PUSH1 0x0 DUP1 REVERT JUMPDEST PUSH1 0x0 PUSH1 0x1F NOT PUSH1 0x1F DUP4 ADD AND SWAP1 POP SWAP2 SWAP1 POP JUMP JUMPDEST PUSH32 0x566F74696E6720506572696F642046696E697368656400000000000000000000 PUSH1 0x0 DUP3 ADD MSTORE POP JUMP JUMPDEST PUSH32 0x416C726561647920566F74656400000000000000000000000000000000000000 PUSH1 0x0 DUP3 ADD MSTORE POP JUMP JUMPDEST PUSH32 0x436F6E747261637420646F6573206E6F74206861766520656E6F75676820746F PUSH1 0x0 DUP3 ADD MSTORE PUSH32 0x6B656E7300000000000000000000000000000000000000000000000000000000 PUSH1 0x20 DUP3 ADD MSTORE POP JUMP JUMPDEST PUSH32 0x4F776E61626C653A206E6577206F776E657220697320746865207A65726F2061 PUSH1 0x0 DUP3 ADD MSTORE PUSH32 0x6464726573730000000000000000000000000000000000000000000000000000 PUSH1 0x20 DUP3 ADD MSTORE POP JUMP JUMPDEST PUSH32 0x596F75206861766520746F207374616B652076616C696420616D6F756E742074 PUSH1 0x0 DUP3 ADD MSTORE PUSH32 0x6F2063726561746520612070726F706F73616C00000000000000000000000000 PUSH1 0x20 DUP3 ADD MSTORE POP JUMP JUMPDEST PUSH32 0x616C6C6F77616E6365206973206E6F7420656E6F756768210000000000000000 PUSH1 0x0 DUP3 ADD MSTORE POP JUMP JUMPDEST PUSH32 0x4669727374206A6F696E207468652053616D686974612044414F000000000000 PUSH1 0x0 DUP3 ADD MSTORE POP JUMP JUMPDEST PUSH32 0x4E6F7420656E6F7567682076616C756500000000000000000000000000000000 PUSH1 0x0 DUP3 ADD MSTORE POP JUMP JUMPDEST PUSH32 0x596F75206861766520746F207374616B652076616C696420616D6F756E742074 PUSH1 0x0 DUP3 ADD MSTORE PUSH32 0x6F20766F7465206F6E20612070726F706F73616C000000000000000000000000 PUSH1 0x20 DUP3 ADD MSTORE POP JUMP JUMPDEST PUSH32 0x4F776E61626C653A2063616C6C6572206973206E6F7420746865206F776E6572 PUSH1 0x0 DUP3 ADD MSTORE POP JUMP JUMPDEST PUSH32 0x566F74696E6720726573756C7420697320616C726561647920676976656E2100 PUSH1 0x0 DUP3 ADD MSTORE POP JUMP JUMPDEST PUSH32 0x50726F706F73616C2043726561746F722063616E6E6F7420766F746520686973 PUSH1 0x0 DUP3 ADD MSTORE PUSH32 0x206F776E2070726F706F73616C00000000000000000000000000000000000000 PUSH1 0x20 DUP3 ADD MSTORE POP JUMP JUMPDEST PUSH32 0x596F7520617265206E6F742061206D656D626572206F66207468652053616D68 PUSH1 0x0 DUP3 ADD MSTORE PUSH32 0x69746144414F0000000000000000000000000000000000000000000000000000 PUSH1 0x20 DUP3 ADD MSTORE POP JUMP JUMPDEST PUSH32 0x596F7520617265206E6F7420746865206D656D626572206F6620746873205361 PUSH1 0x0 DUP3 ADD MSTORE PUSH32 0x6D686974612044414F0000000000000000000000000000000000000000000000 PUSH1 0x20 DUP3 ADD MSTORE POP JUMP JUMPDEST PUSH2 0x3F30 DUP2 PUSH2 0x393F JUMP JUMPDEST DUP2 EQ PUSH2 0x3F3B JUMPI PUSH1 0x0 DUP1 REVERT JUMPDEST POP JUMP JUMPDEST PUSH2 0x3F47 DUP2 PUSH2 0x3951 JUMP JUMPDEST DUP2 EQ PUSH2 0x3F52 JUMPI PUSH1 0x0 DUP1 REVERT JUMPDEST POP JUMP JUMPDEST PUSH2 0x3F5E DUP2 PUSH2 0x397D JUMP JUMPDEST DUP2 EQ PUSH2 0x3F69 JUMPI PUSH1 0x0 DUP1 REVERT JUMPDEST POP JUMP INVALID LOG2 PUSH5 0x6970667358 0x22 SLT KECCAK256 JUMPI PUSH18 0x672DBD920C9DA64FD3593E81F77159AA27CA 0x1E DUP6 0xAC SWAP13 SWAP7 0x5D 0xD5 0xB9 PUSH1 0x6D JUMPDEST 0xF8 PUSH5 0x736F6C6343 STOP ADDMOD SMOD STOP CALLER "
	},
	"Assembly": ".code\n  PUSH 80\t\t\tcontract LanguageDAO is Ownabl...\n  PUSH 40\t\t\tcontract LanguageDAO is Ownabl...\n  MSTORE \t\t\tcontract LanguageDAO is Ownabl...\n  PUSH F4240\t\t\t1000000\n  PUSH 13\t\t\tuint public royaltyFee = 10000...\n  SSTORE \t\t\tuint public royaltyFee = 10000...\n  PUSH E9DCE89B076BA6107BB64EF30678EFEC11939234\t\t\t0xe9DcE89B076BA6107Bb64EF30678...\n  PUSH 14\t\t\taddress public chargeTokenAddr...\n  PUSH 0\t\t\taddress public chargeTokenAddr...\n  PUSH 100\t\t\taddress public chargeTokenAddr...\n  EXP \t\t\taddress public chargeTokenAddr...\n  DUP2 \t\t\taddress public chargeTokenAddr...\n  SLOAD \t\t\taddress public chargeTokenAddr...\n  DUP2 \t\t\taddress public chargeTokenAddr...\n  PUSH FFFFFFFFFFFFFFFFFFFFFFFFFFFFFFFFFFFFFFFF\t\t\taddress public chargeTokenAddr...\n  MUL \t\t\taddress public chargeTokenAddr...\n  NOT \t\t\taddress public chargeTokenAddr...\n  AND \t\t\taddress public chargeTokenAddr...\n  SWAP1 \t\t\taddress public chargeTokenAddr...\n  DUP4 \t\t\taddress public chargeTokenAddr...\n  PUSH FFFFFFFFFFFFFFFFFFFFFFFFFFFFFFFFFFFFFFFF\t\t\taddress public chargeTokenAddr...\n  AND \t\t\taddress public chargeTokenAddr...\n  MUL \t\t\taddress public chargeTokenAddr...\n  OR \t\t\taddress public chargeTokenAddr...\n  SWAP1 \t\t\taddress public chargeTokenAddr...\n  SSTORE \t\t\taddress public chargeTokenAddr...\n  POP \t\t\taddress public chargeTokenAddr...\n  CALLVALUE \t\t\tconstructor(address _samhitaAd...\n  DUP1 \t\t\tconstructor(address _samhitaAd...\n  ISZERO \t\t\tconstructor(address _samhitaAd...\n  PUSH [tag] 1\t\t\tconstructor(address _samhitaAd...\n  JUMPI \t\t\tconstructor(address _samhitaAd...\n  PUSH 0\t\t\tconstructor(address _samhitaAd...\n  DUP1 \t\t\tconstructor(address _samhitaAd...\n  REVERT \t\t\tconstructor(address _samhitaAd...\ntag 1\t\t\tconstructor(address _samhitaAd...\n  JUMPDEST \t\t\tconstructor(address _samhitaAd...\n  POP \t\t\tconstructor(address _samhitaAd...\n  PUSH 40\t\t\tconstructor(address _samhitaAd...\n  MLOAD \t\t\tconstructor(address _samhitaAd...\n  PUSHSIZE \t\t\tconstructor(address _samhitaAd...\n  CODESIZE \t\t\tconstructor(address _samhitaAd...\n  SUB \t\t\tconstructor(address _samhitaAd...\n  DUP1 \t\t\tconstructor(address _samhitaAd...\n  PUSHSIZE \t\t\tconstructor(address _samhitaAd...\n  DUP4 \t\t\tconstructor(address _samhitaAd...\n  CODECOPY \t\t\tconstructor(address _samhitaAd...\n  DUP2 \t\t\tconstructor(address _samhitaAd...\n  DUP2 \t\t\tconstructor(address _samhitaAd...\n  ADD \t\t\tconstructor(address _samhitaAd...\n  PUSH 40\t\t\tconstructor(address _samhitaAd...\n  MSTORE \t\t\tconstructor(address _samhitaAd...\n  DUP2 \t\t\tconstructor(address _samhitaAd...\n  ADD \t\t\tconstructor(address _samhitaAd...\n  SWAP1 \t\t\tconstructor(address _samhitaAd...\n  PUSH [tag] 2\t\t\tconstructor(address _samhitaAd...\n  SWAP2 \t\t\tconstructor(address _samhitaAd...\n  SWAP1 \t\t\tconstructor(address _samhitaAd...\n  PUSH [tag] 3\t\t\tconstructor(address _samhitaAd...\n  JUMP [in]\t\t\tconstructor(address _samhitaAd...\ntag 2\t\t\tconstructor(address _samhitaAd...\n  JUMPDEST \t\t\tconstructor(address _samhitaAd...\n  PUSH [tag] 7\t\t\tct Proposal {\\r\\n        uint2...\n  PUSH [tag] 8\t\t\t    uint256 \n  PUSH [tag] 9\t\t\t    uint25\n  PUSH 20\t\t\t    uint25\n  SHL \t\t\t    uint25\n  PUSH 20\t\t\t    uint256 \n  SHR \t\t\t    uint256 \n  JUMP [in]\t\t\t    uint256 \ntag 8\t\t\t    uint256 \n  JUMPDEST \t\t\t    uint256 \n  PUSH [tag] 10\t\t\tct Proposal {\\r\\n   \n  PUSH 20\t\t\tct Proposal {\\r\\n   \n  SHL \t\t\tct Proposal {\\r\\n   \n  PUSH 20\t\t\tct Proposal {\\r\\n        uint2...\n  SHR \t\t\tct Proposal {\\r\\n        uint2...\n  JUMP [in]\t\t\tct Proposal {\\r\\n        uint2...\ntag 7\t\t\tct Proposal {\\r\\n        uint2...\n  JUMPDEST \t\t\tct Proposal {\\r\\n        uint2...\n  DUP3 \t\t\t_samhitaAddress\n  PUSH 1\t\t\tsamhita\n  PUSH 0\t\t\tsamhita\n  PUSH 100\t\t\tsamhita = ISamhitaDAO(_samhita...\n  EXP \t\t\tsamhita = ISamhitaDAO(_samhita...\n  DUP2 \t\t\tsamhita = ISamhitaDAO(_samhita...\n  SLOAD \t\t\tsamhita = ISamhitaDAO(_samhita...\n  DUP2 \t\t\tsamhita = ISamhitaDAO(_samhita...\n  PUSH FFFFFFFFFFFFFFFFFFFFFFFFFFFFFFFFFFFFFFFF\t\t\tsamhita = ISamhitaDAO(_samhita...\n  MUL \t\t\tsamhita = ISamhitaDAO(_samhita...\n  NOT \t\t\tsamhita = ISamhitaDAO(_samhita...\n  AND \t\t\tsamhita = ISamhitaDAO(_samhita...\n  SWAP1 \t\t\tsamhita = ISamhitaDAO(_samhita...\n  DUP4 \t\t\tsamhita = ISamhitaDAO(_samhita...\n  PUSH FFFFFFFFFFFFFFFFFFFFFFFFFFFFFFFFFFFFFFFF\t\t\tsamhita = ISamhitaDAO(_samhita...\n  AND \t\t\tsamhita = ISamhitaDAO(_samhita...\n  MUL \t\t\tsamhita = ISamhitaDAO(_samhita...\n  OR \t\t\tsamhita = ISamhitaDAO(_samhita...\n  SWAP1 \t\t\tsamhita = ISamhitaDAO(_samhita...\n  SSTORE \t\t\tsamhita = ISamhitaDAO(_samhita...\n  POP \t\t\tsamhita = ISamhitaDAO(_samhita...\n  DUP2 \t\t\t_templateNFTAddress\n  PUSH 2\t\t\ttemplateNFT\n  PUSH 0\t\t\ttemplateNFT\n  PUSH 100\t\t\ttemplateNFT = ITemplateNFT(_te...\n  EXP \t\t\ttemplateNFT = ITemplateNFT(_te...\n  DUP2 \t\t\ttemplateNFT = ITemplateNFT(_te...\n  SLOAD \t\t\ttemplateNFT = ITemplateNFT(_te...\n  DUP2 \t\t\ttemplateNFT = ITemplateNFT(_te...\n  PUSH FFFFFFFFFFFFFFFFFFFFFFFFFFFFFFFFFFFFFFFF\t\t\ttemplateNFT = ITemplateNFT(_te...\n  MUL \t\t\ttemplateNFT = ITemplateNFT(_te...\n  NOT \t\t\ttemplateNFT = ITemplateNFT(_te...\n  AND \t\t\ttemplateNFT = ITemplateNFT(_te...\n  SWAP1 \t\t\ttemplateNFT = ITemplateNFT(_te...\n  DUP4 \t\t\ttemplateNFT = ITemplateNFT(_te...\n  PUSH FFFFFFFFFFFFFFFFFFFFFFFFFFFFFFFFFFFFFFFF\t\t\ttemplateNFT = ITemplateNFT(_te...\n  AND \t\t\ttemplateNFT = ITemplateNFT(_te...\n  MUL \t\t\ttemplateNFT = ITemplateNFT(_te...\n  OR \t\t\ttemplateNFT = ITemplateNFT(_te...\n  SWAP1 \t\t\ttemplateNFT = ITemplateNFT(_te...\n  SSTORE \t\t\ttemplateNFT = ITemplateNFT(_te...\n  POP \t\t\ttemplateNFT = ITemplateNFT(_te...\n  DUP1 \t\t\t_languageTokenAddress\n  PUSH 3\t\t\tlanguageToken\n  PUSH 0\t\t\tlanguageToken\n  PUSH 100\t\t\tlanguageToken = ILanguageToken...\n  EXP \t\t\tlanguageToken = ILanguageToken...\n  DUP2 \t\t\tlanguageToken = ILanguageToken...\n  SLOAD \t\t\tlanguageToken = ILanguageToken...\n  DUP2 \t\t\tlanguageToken = ILanguageToken...\n  PUSH FFFFFFFFFFFFFFFFFFFFFFFFFFFFFFFFFFFFFFFF\t\t\tlanguageToken = ILanguageToken...\n  MUL \t\t\tlanguageToken = ILanguageToken...\n  NOT \t\t\tlanguageToken = ILanguageToken...\n  AND \t\t\tlanguageToken = ILanguageToken...\n  SWAP1 \t\t\tlanguageToken = ILanguageToken...\n  DUP4 \t\t\tlanguageToken = ILanguageToken...\n  PUSH FFFFFFFFFFFFFFFFFFFFFFFFFFFFFFFFFFFFFFFF\t\t\tlanguageToken = ILanguageToken...\n  AND \t\t\tlanguageToken = ILanguageToken...\n  MUL \t\t\tlanguageToken = ILanguageToken...\n  OR \t\t\tlanguageToken = ILanguageToken...\n  SWAP1 \t\t\tlanguageToken = ILanguageToken...\n  SSTORE \t\t\tlanguageToken = ILanguageToken...\n  POP \t\t\tlanguageToken = ILanguageToken...\n  POP \t\t\tconstructor(address _samhitaAd...\n  POP \t\t\tconstructor(address _samhitaAd...\n  POP \t\t\tconstructor(address _samhitaAd...\n  PUSH [tag] 12\t\t\tcontract LanguageDAO is Ownabl...\n  JUMP \t\t\tcontract LanguageDAO is Ownabl...\ntag 9\t\t\tnstructor(address _samhitaAddr...\n  JUMPDEST \t\t\tnstructor(address _samhitaAddr...\n  PUSH 0\t\t\tFTAddre\n  CALLER \t\t\tgeTokenAdd\n  SWAP1 \t\t\t_languageTokenAdd\n  POP \t\t\t_languageTokenAdd\n  SWAP1 \t\t\tnstructor(address _samhitaAddr...\n  JUMP [out]\t\t\tnstructor(address _samhitaAddr...\ntag 10\t\t\trgeTokenAddress =\\r\\n        0...\n  JUMPDEST \t\t\trgeTokenAddress =\\r\\n        0...\n  PUSH 0\t\t\t USDC\\r\\n\\r\\n    fun\n  DUP1 \t\t\ton add\n  PUSH 0\t\t\ton add\n  SWAP1 \t\t\ton add\n  SLOAD \t\t\ton add\n  SWAP1 \t\t\ton add\n  PUSH 100\t\t\ton add\n  EXP \t\t\ton add\n  SWAP1 \t\t\ton add\n  DIV \t\t\ton add\n  PUSH FFFFFFFFFFFFFFFFFFFFFFFFFFFFFFFFFFFFFFFF\t\t\ton add\n  AND \t\t\ton add\n  SWAP1 \t\t\t USDC\\r\\n\\r\\n    function add\n  POP \t\t\t USDC\\r\\n\\r\\n    function add\n  DUP2 \t\t\t) public\n  PUSH 0\t\t\tt _tok\n  DUP1 \t\t\tt _tok\n  PUSH 100\t\t\tt _tokens) public\n  EXP \t\t\tt _tokens) public\n  DUP2 \t\t\tt _tokens) public\n  SLOAD \t\t\tt _tokens) public\n  DUP2 \t\t\tt _tokens) public\n  PUSH FFFFFFFFFFFFFFFFFFFFFFFFFFFFFFFFFFFFFFFF\t\t\tt _tokens) public\n  MUL \t\t\tt _tokens) public\n  NOT \t\t\tt _tokens) public\n  AND \t\t\tt _tokens) public\n  SWAP1 \t\t\tt _tokens) public\n  DUP4 \t\t\tt _tokens) public\n  PUSH FFFFFFFFFFFFFFFFFFFFFFFFFFFFFFFFFFFFFFFF\t\t\tt _tokens) public\n  AND \t\t\tt _tokens) public\n  MUL \t\t\tt _tokens) public\n  OR \t\t\tt _tokens) public\n  SWAP1 \t\t\tt _tokens) public\n  SSTORE \t\t\tt _tokens) public\n  POP \t\t\tt _tokens) public\n  DUP2 \t\t\terAdded(\n  PUSH FFFFFFFFFFFFFFFFFFFFFFFFFFFFFFFFFFFFFFFF\t\t\t    require(samhita.checkIsMem...\n  AND \t\t\t    require(samhita.checkIsMem...\n  DUP2 \t\t\theckIsMe\n  PUSH FFFFFFFFFFFFFFFFFFFFFFFFFFFFFFFFFFFFFFFF\t\t\t    require(samhita.checkIsMem...\n  AND \t\t\t    require(samhita.checkIsMem...\n  PUSH 8BE0079C531659141344CD1FD0A4F28419497F9722A3DAAFE3B4186F6B6457E0\t\t\t    require(samhita.checkIsMem...\n  PUSH 40\t\t\t    require(samhita.checkIsMem...\n  MLOAD \t\t\t    require(samhita.checkIsMem...\n  PUSH 40\t\t\t    require(samhita.checkIsMem...\n  MLOAD \t\t\t    require(samhita.checkIsMem...\n  DUP1 \t\t\t    require(samhita.checkIsMem...\n  SWAP2 \t\t\t    require(samhita.checkIsMem...\n  SUB \t\t\t    require(samhita.checkIsMem...\n  SWAP1 \t\t\t    require(samhita.checkIsMem...\n  LOG3 \t\t\t    require(samhita.checkIsMem...\n  POP \t\t\t939234; // USDC\\r\\n\\r\\n    fun...\n  POP \t\t\trgeTokenAddress =\\r\\n        0...\n  JUMP [out]\t\t\trgeTokenAddress =\\r\\n        0...\ntag 16\t\t\t-License-Identifier: MIT\\r\\n\\r...\n  JUMPDEST \t\t\t-License-Identifier: MIT\\r\\n\\r...\n  PUSH 0\t\t\tport \n  DUP2 \t\t\tppelin\n  MLOAD \t\t\tOpenZeppelin/\n  SWAP1 \t\t\tthub.com/OpenZeppelin/\n  POP \t\t\tthub.com/OpenZeppelin/\n  PUSH [tag] 18\t\t\tlin-contracts/blob/master/cont...\n  DUP2 \t\t\tontra\n  PUSH [tag] 19\t\t\tlin-contracts/blob/master/cont...\n  JUMP [in]\t\t\tlin-contracts/blob/master/cont...\ntag 18\t\t\tlin-contracts/blob/master/cont...\n  JUMPDEST \t\t\tlin-contracts/blob/master/cont...\n  SWAP3 \t\t\t-License-Identifier: MIT\\r\\n\\r...\n  SWAP2 \t\t\t-License-Identifier: MIT\\r\\n\\r...\n  POP \t\t\t-License-Identifier: MIT\\r\\n\\r...\n  POP \t\t\t-License-Identifier: MIT\\r\\n\\r...\n  JUMP [out]\t\t\t-License-Identifier: MIT\\r\\n\\r...\ntag 3\t\t\t20/ERC20.sol\";\\r\\nimport \"http...\n  JUMPDEST \t\t\t20/ERC20.sol\";\\r\\nimport \"http...\n  PUSH 0\t\t\ter/con\n  DUP1 \t\t\tacts/a\n  PUSH 0\t\t\tess/Ow\n  PUSH 60\t\t\tnZ\n  DUP5 \t\t\tthub.com/\n  DUP7 \t\t\tttps://\n  SUB \t\t\tt \"https://github.com/O\n  SLT \t\t\tmport \"https://github.com/Open...\n  ISZERO \t\t\t\\r\\nimport \"https://github.com...\n  PUSH [tag] 21\t\t\t\\r\\nimport \"https://github.com...\n  JUMPI \t\t\t\\r\\nimport \"https://github.com...\n  PUSH [tag] 22\t\t\tlin/openzeppelin-contracts/blo...\n  PUSH [tag] 23\t\t\tlin/openzeppelin-contracts/blo...\n  JUMP [in]\t\t\tlin/openzeppelin-contracts/blo...\ntag 22\t\t\tlin/openzeppelin-contracts/blo...\n  JUMPDEST \t\t\tlin/openzeppelin-contracts/blo...\ntag 21\t\t\t\\r\\nimport \"https://github.com...\n  JUMPDEST \t\t\t\\r\\nimport \"https://github.com...\n  PUSH 0\t\t\ta\n  PUSH [tag] 24\t\t\tLanguageToken.sol\";\\r\\n\\r\\ncon...\n  DUP7 \t\t\t\\n\\r\\n    \n  DUP3 \t\t\tOwnabl\n  DUP8 \t\t\tuageDAO i\n  ADD \t\t\tLanguageDAO is Ownable\n  PUSH [tag] 16\t\t\tLanguageToken.sol\";\\r\\n\\r\\ncon...\n  JUMP [in]\t\t\tLanguageToken.sol\";\\r\\n\\r\\ncon...\ntag 24\t\t\tLanguageToken.sol\";\\r\\n\\r\\ncon...\n  JUMPDEST \t\t\tLanguageToken.sol\";\\r\\n\\r\\ncon...\n  SWAP4 \t\t\tmport \"./ILanguageToken.sol\";\\...\n  POP \t\t\tmport \"./ILanguageToken.sol\";\\...\n  POP \t\t\ttaDAO.sol\";\\r\\nimport \"./ITemp...\n  PUSH 20\t\t\tic\n  PUSH [tag] 25\t\t\tuageToken public languageToken...\n  DUP7 \t\t\tss _sam\n  DUP3 \t\t\ttor(ad\n  DUP8 \t\t\t   constr\n  ADD \t\t\t\\n\\r\\n    constructor(add\n  PUSH [tag] 16\t\t\tuageToken public languageToken...\n  JUMP [in]\t\t\tuageToken public languageToken...\ntag 25\t\t\tuageToken public languageToken...\n  JUMPDEST \t\t\tuageToken public languageToken...\n  SWAP3 \t\t\t\\n    ILanguageToken public la...\n  POP \t\t\t\\n    ILanguageToken public la...\n  POP \t\t\tmhita;\\r\\n    ITemplateNFT pub...\n  PUSH 40\t\t\t_l\n  PUSH [tag] 26\t\t\table() {\\r\\n        samhita = ...\n  DUP7 \t\t\t;\\r\\n    \n  DUP3 \t\t\taAddre\n  DUP8 \t\t\tDAO(_samh\n  ADD \t\t\thitaDAO(_samhitaAddres\n  PUSH [tag] 16\t\t\table() {\\r\\n        samhita = ...\n  JUMP [in]\t\t\table() {\\r\\n        samhita = ...\ntag 26\t\t\table() {\\r\\n        samhita = ...\n  JUMPDEST \t\t\table() {\\r\\n        samhita = ...\n  SWAP2 \t\t\tdress) Ownable() {\\r\\n        ...\n  POP \t\t\tdress) Ownable() {\\r\\n        ...\n  POP \t\t\t_templateNFTAddress, address _...\n  SWAP3 \t\t\t20/ERC20.sol\";\\r\\nimport \"http...\n  POP \t\t\t20/ERC20.sol\";\\r\\nimport \"http...\n  SWAP3 \t\t\t20/ERC20.sol\";\\r\\nimport \"http...\n  POP \t\t\t20/ERC20.sol\";\\r\\nimport \"http...\n  SWAP3 \t\t\t20/ERC20.sol\";\\r\\nimport \"http...\n  JUMP [out]\t\t\t20/ERC20.sol\";\\r\\nimport \"http...\ntag 29\t\t\tenAddress);\\r\\n    }\\r\\n\\r\\n  ...\n  JUMPDEST \t\t\tenAddress);\\r\\n    }\\r\\n\\r\\n  ...\n  PUSH 0\t\t\tosal {\\r\n  PUSH [tag] 31\t\t\tsalID;\\r\\n        string p\n  DUP3 \t\t\tring \n  PUSH [tag] 32\t\t\tsalID;\\r\\n        string p\n  JUMP [in]\t\t\tsalID;\\r\\n        string p\ntag 31\t\t\tsalID;\\r\\n        string p\n  JUMPDEST \t\t\tsalID;\\r\\n        string p\n  SWAP1 \t\t\tnt256 proposalID;\\r\\n        s...\n  POP \t\t\tnt256 proposalID;\\r\\n        s...\n  SWAP2 \t\t\tenAddress);\\r\\n    }\\r\\n\\r\\n  ...\n  SWAP1 \t\t\tenAddress);\\r\\n    }\\r\\n\\r\\n  ...\n  POP \t\t\tenAddress);\\r\\n    }\\r\\n\\r\\n  ...\n  JUMP [out]\t\t\tenAddress);\\r\\n    }\\r\\n\\r\\n  ...\ntag 32\t\t\t\\r\\n        string proposalDes...\n  JUMPDEST \t\t\t\\r\\n        string proposalDes...\n  PUSH 0\t\t\t\\r\\n     \n  PUSH FFFFFFFFFFFFFFFFFFFFFFFFFFFFFFFFFFFFFFFF\t\t\t address proposalCreator;\\r\\n ...\n  DUP3 \t\t\t     \n  AND \t\t\te;\\r\\n        address proposal...\n  SWAP1 \t\t\troposalIamge;\\r\\n        addre...\n  POP \t\t\troposalIamge;\\r\\n        addre...\n  SWAP2 \t\t\t\\r\\n        string proposalDes...\n  SWAP1 \t\t\t\\r\\n        string proposalDes...\n  POP \t\t\t\\r\\n        string proposalDes...\n  JUMP [out]\t\t\t\\r\\n        string proposalDes...\ntag 23\t\t\t\\n        string status;\\r\\n  ...\n  JUMPDEST \t\t\t\\n        string status;\\r\\n  ...\n  PUSH 0\t\t\tp\n  DUP1 \t\t\t \n  REVERT \t\t\tls\\r\\n    mapp\ntag 19\t\t\t=> Proposal) public proposals;...\n  JUMPDEST \t\t\t=> Proposal) public proposals;...\n  PUSH [tag] 38\t\t\t user has voted for the \n  DUP2 \t\t\tr the\n  PUSH [tag] 29\t\t\t user has voted for the \n  JUMP [in]\t\t\t user has voted for the \ntag 38\t\t\t user has voted for the \n  JUMPDEST \t\t\t user has voted for the \n  DUP2 \t\t\ther t\n  EQ \t\t\thether the user has voted for ...\n  PUSH [tag] 39\t\t\tto track whether the user has ...\n  JUMPI \t\t\tto track whether the user has ...\n  PUSH 0\t\t\ta\n  DUP1 \t\t\t \n  REVERT \t\t\tsal\\r\\n    map\ntag 39\t\t\tto track whether the user has ...\n  JUMPDEST \t\t\tto track whether the user has ...\n  POP \t\t\t=> Proposal) public proposals;...\n  JUMP [out]\t\t\t=> Proposal) public proposals;...\ntag 12\t\t\tcontract LanguageDAO is Ownabl...\n  JUMPDEST \t\t\tcontract LanguageDAO is Ownabl...\n  PUSH #[$] 0000000000000000000000000000000000000000000000000000000000000000\t\t\tcontract LanguageDAO is Ownabl...\n  DUP1 \t\t\tcontract LanguageDAO is Ownabl...\n  PUSH [$] 0000000000000000000000000000000000000000000000000000000000000000\t\t\tcontract LanguageDAO is Ownabl...\n  PUSH 0\t\t\tcontract LanguageDAO is Ownabl...\n  CODECOPY \t\t\tcontract LanguageDAO is Ownabl...\n  PUSH 0\t\t\tcontract LanguageDAO is Ownabl...\n  RETURN \t\t\tcontract LanguageDAO is Ownabl...\n.data\n  0:\n    .code\n      PUSH 80\t\t\tcontract LanguageDAO is Ownabl...\n      PUSH 40\t\t\tcontract LanguageDAO is Ownabl...\n      MSTORE \t\t\tcontract LanguageDAO is Ownabl...\n      PUSH 4\t\t\tcontract LanguageDAO is Ownabl...\n      CALLDATASIZE \t\t\tcontract LanguageDAO is Ownabl...\n      LT \t\t\tcontract LanguageDAO is Ownabl...\n      PUSH [tag] 1\t\t\tcontract LanguageDAO is Ownabl...\n      JUMPI \t\t\tcontract LanguageDAO is Ownabl...\n      PUSH 0\t\t\tcontract LanguageDAO is Ownabl...\n      CALLDATALOAD \t\t\tcontract LanguageDAO is Ownabl...\n      PUSH E0\t\t\tcontract LanguageDAO is Ownabl...\n      SHR \t\t\tcontract LanguageDAO is Ownabl...\n      DUP1 \t\t\tcontract LanguageDAO is Ownabl...\n      PUSH 88FDE90A\t\t\tcontract LanguageDAO is Ownabl...\n      GT \t\t\tcontract LanguageDAO is Ownabl...\n      PUSH [tag] 27\t\t\tcontract LanguageDAO is Ownabl...\n      JUMPI \t\t\tcontract LanguageDAO is Ownabl...\n      DUP1 \t\t\tcontract LanguageDAO is Ownabl...\n      PUSH CCEB68F5\t\t\tcontract LanguageDAO is Ownabl...\n      GT \t\t\tcontract LanguageDAO is Ownabl...\n      PUSH [tag] 28\t\t\tcontract LanguageDAO is Ownabl...\n      JUMPI \t\t\tcontract LanguageDAO is Ownabl...\n      DUP1 \t\t\tcontract LanguageDAO is Ownabl...\n      PUSH DE0B27E5\t\t\tcontract LanguageDAO is Ownabl...\n      GT \t\t\tcontract LanguageDAO is Ownabl...\n      PUSH [tag] 29\t\t\tcontract LanguageDAO is Ownabl...\n      JUMPI \t\t\tcontract LanguageDAO is Ownabl...\n      DUP1 \t\t\tcontract LanguageDAO is Ownabl...\n      PUSH DE0B27E5\t\t\tcontract LanguageDAO is Ownabl...\n      EQ \t\t\tcontract LanguageDAO is Ownabl...\n      PUSH [tag] 23\t\t\tcontract LanguageDAO is Ownabl...\n      JUMPI \t\t\tcontract LanguageDAO is Ownabl...\n      DUP1 \t\t\tcontract LanguageDAO is Ownabl...\n      PUSH F2FDE38B\t\t\tcontract LanguageDAO is Ownabl...\n      EQ \t\t\tcontract LanguageDAO is Ownabl...\n      PUSH [tag] 24\t\t\tcontract LanguageDAO is Ownabl...\n      JUMPI \t\t\tcontract LanguageDAO is Ownabl...\n      DUP1 \t\t\tcontract LanguageDAO is Ownabl...\n      PUSH F406517D\t\t\tcontract LanguageDAO is Ownabl...\n      EQ \t\t\tcontract LanguageDAO is Ownabl...\n      PUSH [tag] 25\t\t\tcontract LanguageDAO is Ownabl...\n      JUMPI \t\t\tcontract LanguageDAO is Ownabl...\n      DUP1 \t\t\tcontract LanguageDAO is Ownabl...\n      PUSH F6EF8AC7\t\t\tcontract LanguageDAO is Ownabl...\n      EQ \t\t\tcontract LanguageDAO is Ownabl...\n      PUSH [tag] 26\t\t\tcontract LanguageDAO is Ownabl...\n      JUMPI \t\t\tcontract LanguageDAO is Ownabl...\n      PUSH [tag] 1\t\t\tcontract LanguageDAO is Ownabl...\n      JUMP \t\t\tcontract LanguageDAO is Ownabl...\n    tag 29\t\t\tcontract LanguageDAO is Ownabl...\n      JUMPDEST \t\t\tcontract LanguageDAO is Ownabl...\n      DUP1 \t\t\tcontract LanguageDAO is Ownabl...\n      PUSH CCEB68F5\t\t\tcontract LanguageDAO is Ownabl...\n      EQ \t\t\tcontract LanguageDAO is Ownabl...\n      PUSH [tag] 20\t\t\tcontract LanguageDAO is Ownabl...\n      JUMPI \t\t\tcontract LanguageDAO is Ownabl...\n      DUP1 \t\t\tcontract LanguageDAO is Ownabl...\n      PUSH CF978530\t\t\tcontract LanguageDAO is Ownabl...\n      EQ \t\t\tcontract LanguageDAO is Ownabl...\n      PUSH [tag] 21\t\t\tcontract LanguageDAO is Ownabl...\n      JUMPI \t\t\tcontract LanguageDAO is Ownabl...\n      DUP1 \t\t\tcontract LanguageDAO is Ownabl...\n      PUSH DA35C664\t\t\tcontract LanguageDAO is Ownabl...\n      EQ \t\t\tcontract LanguageDAO is Ownabl...\n      PUSH [tag] 22\t\t\tcontract LanguageDAO is Ownabl...\n      JUMPI \t\t\tcontract LanguageDAO is Ownabl...\n      PUSH [tag] 1\t\t\tcontract LanguageDAO is Ownabl...\n      JUMP \t\t\tcontract LanguageDAO is Ownabl...\n    tag 28\t\t\tcontract LanguageDAO is Ownabl...\n      JUMPDEST \t\t\tcontract LanguageDAO is Ownabl...\n      DUP1 \t\t\tcontract LanguageDAO is Ownabl...\n      PUSH 88FDE90A\t\t\tcontract LanguageDAO is Ownabl...\n      EQ \t\t\tcontract LanguageDAO is Ownabl...\n      PUSH [tag] 14\t\t\tcontract LanguageDAO is Ownabl...\n      JUMPI \t\t\tcontract LanguageDAO is Ownabl...\n      DUP1 \t\t\tcontract LanguageDAO is Ownabl...\n      PUSH 8DA5CB5B\t\t\tcontract LanguageDAO is Ownabl...\n      EQ \t\t\tcontract LanguageDAO is Ownabl...\n      PUSH [tag] 15\t\t\tcontract LanguageDAO is Ownabl...\n      JUMPI \t\t\tcontract LanguageDAO is Ownabl...\n      DUP1 \t\t\tcontract LanguageDAO is Ownabl...\n      PUSH A4131A48\t\t\tcontract LanguageDAO is Ownabl...\n      EQ \t\t\tcontract LanguageDAO is Ownabl...\n      PUSH [tag] 16\t\t\tcontract LanguageDAO is Ownabl...\n      JUMPI \t\t\tcontract LanguageDAO is Ownabl...\n      DUP1 \t\t\tcontract LanguageDAO is Ownabl...\n      PUSH A62DE3BA\t\t\tcontract LanguageDAO is Ownabl...\n      EQ \t\t\tcontract LanguageDAO is Ownabl...\n      PUSH [tag] 17\t\t\tcontract LanguageDAO is Ownabl...\n      JUMPI \t\t\tcontract LanguageDAO is Ownabl...\n      DUP1 \t\t\tcontract LanguageDAO is Ownabl...\n      PUSH B8997A97\t\t\tcontract LanguageDAO is Ownabl...\n      EQ \t\t\tcontract LanguageDAO is Ownabl...\n      PUSH [tag] 18\t\t\tcontract LanguageDAO is Ownabl...\n      JUMPI \t\t\tcontract LanguageDAO is Ownabl...\n      DUP1 \t\t\tcontract LanguageDAO is Ownabl...\n      PUSH B9357437\t\t\tcontract LanguageDAO is Ownabl...\n      EQ \t\t\tcontract LanguageDAO is Ownabl...\n      PUSH [tag] 19\t\t\tcontract LanguageDAO is Ownabl...\n      JUMPI \t\t\tcontract LanguageDAO is Ownabl...\n      PUSH [tag] 1\t\t\tcontract LanguageDAO is Ownabl...\n      JUMP \t\t\tcontract LanguageDAO is Ownabl...\n    tag 27\t\t\tcontract LanguageDAO is Ownabl...\n      JUMPDEST \t\t\tcontract LanguageDAO is Ownabl...\n      DUP1 \t\t\tcontract LanguageDAO is Ownabl...\n      PUSH 4C15676B\t\t\tcontract LanguageDAO is Ownabl...\n      GT \t\t\tcontract LanguageDAO is Ownabl...\n      PUSH [tag] 30\t\t\tcontract LanguageDAO is Ownabl...\n      JUMPI \t\t\tcontract LanguageDAO is Ownabl...\n      DUP1 \t\t\tcontract LanguageDAO is Ownabl...\n      PUSH 4C15676B\t\t\tcontract LanguageDAO is Ownabl...\n      EQ \t\t\tcontract LanguageDAO is Ownabl...\n      PUSH [tag] 8\t\t\tcontract LanguageDAO is Ownabl...\n      JUMPI \t\t\tcontract LanguageDAO is Ownabl...\n      DUP1 \t\t\tcontract LanguageDAO is Ownabl...\n      PUSH 5C042AE7\t\t\tcontract LanguageDAO is Ownabl...\n      EQ \t\t\tcontract LanguageDAO is Ownabl...\n      PUSH [tag] 9\t\t\tcontract LanguageDAO is Ownabl...\n      JUMPI \t\t\tcontract LanguageDAO is Ownabl...\n      DUP1 \t\t\tcontract LanguageDAO is Ownabl...\n      PUSH 5DD3983A\t\t\tcontract LanguageDAO is Ownabl...\n      EQ \t\t\tcontract LanguageDAO is Ownabl...\n      PUSH [tag] 10\t\t\tcontract LanguageDAO is Ownabl...\n      JUMPI \t\t\tcontract LanguageDAO is Ownabl...\n      DUP1 \t\t\tcontract LanguageDAO is Ownabl...\n      PUSH 69D20DD5\t\t\tcontract LanguageDAO is Ownabl...\n      EQ \t\t\tcontract LanguageDAO is Ownabl...\n      PUSH [tag] 11\t\t\tcontract LanguageDAO is Ownabl...\n      JUMPI \t\t\tcontract LanguageDAO is Ownabl...\n      DUP1 \t\t\tcontract LanguageDAO is Ownabl...\n      PUSH 715018A6\t\t\tcontract LanguageDAO is Ownabl...\n      EQ \t\t\tcontract LanguageDAO is Ownabl...\n      PUSH [tag] 12\t\t\tcontract LanguageDAO is Ownabl...\n      JUMPI \t\t\tcontract LanguageDAO is Ownabl...\n      DUP1 \t\t\tcontract LanguageDAO is Ownabl...\n      PUSH 805347F5\t\t\tcontract LanguageDAO is Ownabl...\n      EQ \t\t\tcontract LanguageDAO is Ownabl...\n      PUSH [tag] 13\t\t\tcontract LanguageDAO is Ownabl...\n      JUMPI \t\t\tcontract LanguageDAO is Ownabl...\n      PUSH [tag] 1\t\t\tcontract LanguageDAO is Ownabl...\n      JUMP \t\t\tcontract LanguageDAO is Ownabl...\n    tag 30\t\t\tcontract LanguageDAO is Ownabl...\n      JUMPDEST \t\t\tcontract LanguageDAO is Ownabl...\n      DUP1 \t\t\tcontract LanguageDAO is Ownabl...\n      PUSH 13CF08B\t\t\tcontract LanguageDAO is Ownabl...\n      EQ \t\t\tcontract LanguageDAO is Ownabl...\n      PUSH [tag] 2\t\t\tcontract LanguageDAO is Ownabl...\n      JUMPI \t\t\tcontract LanguageDAO is Ownabl...\n      DUP1 \t\t\tcontract LanguageDAO is Ownabl...\n      PUSH BE4E999\t\t\tcontract LanguageDAO is Ownabl...\n      EQ \t\t\tcontract LanguageDAO is Ownabl...\n      PUSH [tag] 3\t\t\tcontract LanguageDAO is Ownabl...\n      JUMPI \t\t\tcontract LanguageDAO is Ownabl...\n      DUP1 \t\t\tcontract LanguageDAO is Ownabl...\n      PUSH 1089F5ED\t\t\tcontract LanguageDAO is Ownabl...\n      EQ \t\t\tcontract LanguageDAO is Ownabl...\n      PUSH [tag] 4\t\t\tcontract LanguageDAO is Ownabl...\n      JUMPI \t\t\tcontract LanguageDAO is Ownabl...\n      DUP1 \t\t\tcontract LanguageDAO is Ownabl...\n      PUSH 12293E01\t\t\tcontract LanguageDAO is Ownabl...\n      EQ \t\t\tcontract LanguageDAO is Ownabl...\n      PUSH [tag] 5\t\t\tcontract LanguageDAO is Ownabl...\n      JUMPI \t\t\tcontract LanguageDAO is Ownabl...\n      DUP1 \t\t\tcontract LanguageDAO is Ownabl...\n      PUSH 32E08142\t\t\tcontract LanguageDAO is Ownabl...\n      EQ \t\t\tcontract LanguageDAO is Ownabl...\n      PUSH [tag] 6\t\t\tcontract LanguageDAO is Ownabl...\n      JUMPI \t\t\tcontract LanguageDAO is Ownabl...\n      DUP1 \t\t\tcontract LanguageDAO is Ownabl...\n      PUSH 392317CD\t\t\tcontract LanguageDAO is Ownabl...\n      EQ \t\t\tcontract LanguageDAO is Ownabl...\n      PUSH [tag] 7\t\t\tcontract LanguageDAO is Ownabl...\n      JUMPI \t\t\tcontract LanguageDAO is Ownabl...\n    tag 1\t\t\tcontract LanguageDAO is Ownabl...\n      JUMPDEST \t\t\tcontract LanguageDAO is Ownabl...\n      PUSH 0\t\t\tcontract LanguageDAO is Ownabl...\n      DUP1 \t\t\tcontract LanguageDAO is Ownabl...\n      REVERT \t\t\tcontract LanguageDAO is Ownabl...\n    tag 2\t\t\tmapping(uint256 => Proposal) p...\n      JUMPDEST \t\t\tmapping(uint256 => Proposal) p...\n      CALLVALUE \t\t\tmapping(uint256 => Proposal) p...\n      DUP1 \t\t\tmapping(uint256 => Proposal) p...\n      ISZERO \t\t\tmapping(uint256 => Proposal) p...\n      PUSH [tag] 31\t\t\tmapping(uint256 => Proposal) p...\n      JUMPI \t\t\tmapping(uint256 => Proposal) p...\n      PUSH 0\t\t\tmapping(uint256 => Proposal) p...\n      DUP1 \t\t\tmapping(uint256 => Proposal) p...\n      REVERT \t\t\tmapping(uint256 => Proposal) p...\n    tag 31\t\t\tmapping(uint256 => Proposal) p...\n      JUMPDEST \t\t\tmapping(uint256 => Proposal) p...\n      POP \t\t\tmapping(uint256 => Proposal) p...\n      PUSH [tag] 32\t\t\tmapping(uint256 => Proposal) p...\n      PUSH 4\t\t\tmapping(uint256 => Proposal) p...\n      DUP1 \t\t\tmapping(uint256 => Proposal) p...\n      CALLDATASIZE \t\t\tmapping(uint256 => Proposal) p...\n      SUB \t\t\tmapping(uint256 => Proposal) p...\n      DUP2 \t\t\tmapping(uint256 => Proposal) p...\n      ADD \t\t\tmapping(uint256 => Proposal) p...\n      SWAP1 \t\t\tmapping(uint256 => Proposal) p...\n      PUSH [tag] 33\t\t\tmapping(uint256 => Proposal) p...\n      SWAP2 \t\t\tmapping(uint256 => Proposal) p...\n      SWAP1 \t\t\tmapping(uint256 => Proposal) p...\n      PUSH [tag] 34\t\t\tmapping(uint256 => Proposal) p...\n      JUMP [in]\t\t\tmapping(uint256 => Proposal) p...\n    tag 33\t\t\tmapping(uint256 => Proposal) p...\n      JUMPDEST \t\t\tmapping(uint256 => Proposal) p...\n      PUSH [tag] 35\t\t\tmapping(uint256 => Proposal) p...\n      JUMP [in]\t\t\tmapping(uint256 => Proposal) p...\n    tag 32\t\t\tmapping(uint256 => Proposal) p...\n      JUMPDEST \t\t\tmapping(uint256 => Proposal) p...\n      PUSH 40\t\t\tmapping(uint256 => Proposal) p...\n      MLOAD \t\t\tmapping(uint256 => Proposal) p...\n      PUSH [tag] 36\t\t\tmapping(uint256 => Proposal) p...\n      SWAP13 \t\t\tmapping(uint256 => Proposal) p...\n      SWAP12 \t\t\tmapping(uint256 => Proposal) p...\n      SWAP11 \t\t\tmapping(uint256 => Proposal) p...\n      SWAP10 \t\t\tmapping(uint256 => Proposal) p...\n      SWAP9 \t\t\tmapping(uint256 => Proposal) p...\n      SWAP8 \t\t\tmapping(uint256 => Proposal) p...\n      SWAP7 \t\t\tmapping(uint256 => Proposal) p...\n      SWAP6 \t\t\tmapping(uint256 => Proposal) p...\n      SWAP5 \t\t\tmapping(uint256 => Proposal) p...\n      SWAP4 \t\t\tmapping(uint256 => Proposal) p...\n      SWAP3 \t\t\tmapping(uint256 => Proposal) p...\n      SWAP2 \t\t\tmapping(uint256 => Proposal) p...\n      SWAP1 \t\t\tmapping(uint256 => Proposal) p...\n      PUSH [tag] 37\t\t\tmapping(uint256 => Proposal) p...\n      JUMP [in]\t\t\tmapping(uint256 => Proposal) p...\n    tag 36\t\t\tmapping(uint256 => Proposal) p...\n      JUMPDEST \t\t\tmapping(uint256 => Proposal) p...\n      PUSH 40\t\t\tmapping(uint256 => Proposal) p...\n      MLOAD \t\t\tmapping(uint256 => Proposal) p...\n      DUP1 \t\t\tmapping(uint256 => Proposal) p...\n      SWAP2 \t\t\tmapping(uint256 => Proposal) p...\n      SUB \t\t\tmapping(uint256 => Proposal) p...\n      SWAP1 \t\t\tmapping(uint256 => Proposal) p...\n      RETURN \t\t\tmapping(uint256 => Proposal) p...\n    tag 3\t\t\tfunction downvoteProposal(uint...\n      JUMPDEST \t\t\tfunction downvoteProposal(uint...\n      PUSH [tag] 38\t\t\tfunction downvoteProposal(uint...\n      PUSH 4\t\t\tfunction downvoteProposal(uint...\n      DUP1 \t\t\tfunction downvoteProposal(uint...\n      CALLDATASIZE \t\t\tfunction downvoteProposal(uint...\n      SUB \t\t\tfunction downvoteProposal(uint...\n      DUP2 \t\t\tfunction downvoteProposal(uint...\n      ADD \t\t\tfunction downvoteProposal(uint...\n      SWAP1 \t\t\tfunction downvoteProposal(uint...\n      PUSH [tag] 39\t\t\tfunction downvoteProposal(uint...\n      SWAP2 \t\t\tfunction downvoteProposal(uint...\n      SWAP1 \t\t\tfunction downvoteProposal(uint...\n      PUSH [tag] 34\t\t\tfunction downvoteProposal(uint...\n      JUMP [in]\t\t\tfunction downvoteProposal(uint...\n    tag 39\t\t\tfunction downvoteProposal(uint...\n      JUMPDEST \t\t\tfunction downvoteProposal(uint...\n      PUSH [tag] 40\t\t\tfunction downvoteProposal(uint...\n      JUMP [in]\t\t\tfunction downvoteProposal(uint...\n    tag 38\t\t\tfunction downvoteProposal(uint...\n      JUMPDEST \t\t\tfunction downvoteProposal(uint...\n      STOP \t\t\tfunction downvoteProposal(uint...\n    tag 4\t\t\tfunction addMember(uint _token...\n      JUMPDEST \t\t\tfunction addMember(uint _token...\n      PUSH [tag] 41\t\t\tfunction addMember(uint _token...\n      PUSH 4\t\t\tfunction addMember(uint _token...\n      DUP1 \t\t\tfunction addMember(uint _token...\n      CALLDATASIZE \t\t\tfunction addMember(uint _token...\n      SUB \t\t\tfunction addMember(uint _token...\n      DUP2 \t\t\tfunction addMember(uint _token...\n      ADD \t\t\tfunction addMember(uint _token...\n      SWAP1 \t\t\tfunction addMember(uint _token...\n      PUSH [tag] 42\t\t\tfunction addMember(uint _token...\n      SWAP2 \t\t\tfunction addMember(uint _token...\n      SWAP1 \t\t\tfunction addMember(uint _token...\n      PUSH [tag] 34\t\t\tfunction addMember(uint _token...\n      JUMP [in]\t\t\tfunction addMember(uint _token...\n    tag 42\t\t\tfunction addMember(uint _token...\n      JUMPDEST \t\t\tfunction addMember(uint _token...\n      PUSH [tag] 43\t\t\tfunction addMember(uint _token...\n      JUMP [in]\t\t\tfunction addMember(uint _token...\n    tag 41\t\t\tfunction addMember(uint _token...\n      JUMPDEST \t\t\tfunction addMember(uint _token...\n      STOP \t\t\tfunction addMember(uint _token...\n    tag 5\t\t\tmapping(uint=>address[]) publi...\n      JUMPDEST \t\t\tmapping(uint=>address[]) publi...\n      CALLVALUE \t\t\tmapping(uint=>address[]) publi...\n      DUP1 \t\t\tmapping(uint=>address[]) publi...\n      ISZERO \t\t\tmapping(uint=>address[]) publi...\n      PUSH [tag] 44\t\t\tmapping(uint=>address[]) publi...\n      JUMPI \t\t\tmapping(uint=>address[]) publi...\n      PUSH 0\t\t\tmapping(uint=>address[]) publi...\n      DUP1 \t\t\tmapping(uint=>address[]) publi...\n      REVERT \t\t\tmapping(uint=>address[]) publi...\n    tag 44\t\t\tmapping(uint=>address[]) publi...\n      JUMPDEST \t\t\tmapping(uint=>address[]) publi...\n      POP \t\t\tmapping(uint=>address[]) publi...\n      PUSH [tag] 45\t\t\tmapping(uint=>address[]) publi...\n      PUSH 4\t\t\tmapping(uint=>address[]) publi...\n      DUP1 \t\t\tmapping(uint=>address[]) publi...\n      CALLDATASIZE \t\t\tmapping(uint=>address[]) publi...\n      SUB \t\t\tmapping(uint=>address[]) publi...\n      DUP2 \t\t\tmapping(uint=>address[]) publi...\n      ADD \t\t\tmapping(uint=>address[]) publi...\n      SWAP1 \t\t\tmapping(uint=>address[]) publi...\n      PUSH [tag] 46\t\t\tmapping(uint=>address[]) publi...\n      SWAP2 \t\t\tmapping(uint=>address[]) publi...\n      SWAP1 \t\t\tmapping(uint=>address[]) publi...\n      PUSH [tag] 47\t\t\tmapping(uint=>address[]) publi...\n      JUMP [in]\t\t\tmapping(uint=>address[]) publi...\n    tag 46\t\t\tmapping(uint=>address[]) publi...\n      JUMPDEST \t\t\tmapping(uint=>address[]) publi...\n      PUSH [tag] 48\t\t\tmapping(uint=>address[]) publi...\n      JUMP [in]\t\t\tmapping(uint=>address[]) publi...\n    tag 45\t\t\tmapping(uint=>address[]) publi...\n      JUMPDEST \t\t\tmapping(uint=>address[]) publi...\n      PUSH 40\t\t\tmapping(uint=>address[]) publi...\n      MLOAD \t\t\tmapping(uint=>address[]) publi...\n      PUSH [tag] 49\t\t\tmapping(uint=>address[]) publi...\n      SWAP2 \t\t\tmapping(uint=>address[]) publi...\n      SWAP1 \t\t\tmapping(uint=>address[]) publi...\n      PUSH [tag] 50\t\t\tmapping(uint=>address[]) publi...\n      JUMP [in]\t\t\tmapping(uint=>address[]) publi...\n    tag 49\t\t\tmapping(uint=>address[]) publi...\n      JUMPDEST \t\t\tmapping(uint=>address[]) publi...\n      PUSH 40\t\t\tmapping(uint=>address[]) publi...\n      MLOAD \t\t\tmapping(uint=>address[]) publi...\n      DUP1 \t\t\tmapping(uint=>address[]) publi...\n      SWAP2 \t\t\tmapping(uint=>address[]) publi...\n      SUB \t\t\tmapping(uint=>address[]) publi...\n      SWAP1 \t\t\tmapping(uint=>address[]) publi...\n      RETURN \t\t\tmapping(uint=>address[]) publi...\n    tag 6\t\t\tmapping(address => mapping(uin...\n      JUMPDEST \t\t\tmapping(address => mapping(uin...\n      CALLVALUE \t\t\tmapping(address => mapping(uin...\n      DUP1 \t\t\tmapping(address => mapping(uin...\n      ISZERO \t\t\tmapping(address => mapping(uin...\n      PUSH [tag] 51\t\t\tmapping(address => mapping(uin...\n      JUMPI \t\t\tmapping(address => mapping(uin...\n      PUSH 0\t\t\tmapping(address => mapping(uin...\n      DUP1 \t\t\tmapping(address => mapping(uin...\n      REVERT \t\t\tmapping(address => mapping(uin...\n    tag 51\t\t\tmapping(address => mapping(uin...\n      JUMPDEST \t\t\tmapping(address => mapping(uin...\n      POP \t\t\tmapping(address => mapping(uin...\n      PUSH [tag] 52\t\t\tmapping(address => mapping(uin...\n      PUSH 4\t\t\tmapping(address => mapping(uin...\n      DUP1 \t\t\tmapping(address => mapping(uin...\n      CALLDATASIZE \t\t\tmapping(address => mapping(uin...\n      SUB \t\t\tmapping(address => mapping(uin...\n      DUP2 \t\t\tmapping(address => mapping(uin...\n      ADD \t\t\tmapping(address => mapping(uin...\n      SWAP1 \t\t\tmapping(address => mapping(uin...\n      PUSH [tag] 53\t\t\tmapping(address => mapping(uin...\n      SWAP2 \t\t\tmapping(address => mapping(uin...\n      SWAP1 \t\t\tmapping(address => mapping(uin...\n      PUSH [tag] 54\t\t\tmapping(address => mapping(uin...\n      JUMP [in]\t\t\tmapping(address => mapping(uin...\n    tag 53\t\t\tmapping(address => mapping(uin...\n      JUMPDEST \t\t\tmapping(address => mapping(uin...\n      PUSH [tag] 55\t\t\tmapping(address => mapping(uin...\n      JUMP [in]\t\t\tmapping(address => mapping(uin...\n    tag 52\t\t\tmapping(address => mapping(uin...\n      JUMPDEST \t\t\tmapping(address => mapping(uin...\n      PUSH 40\t\t\tmapping(address => mapping(uin...\n      MLOAD \t\t\tmapping(address => mapping(uin...\n      PUSH [tag] 56\t\t\tmapping(address => mapping(uin...\n      SWAP2 \t\t\tmapping(address => mapping(uin...\n      SWAP1 \t\t\tmapping(address => mapping(uin...\n      PUSH [tag] 57\t\t\tmapping(address => mapping(uin...\n      JUMP [in]\t\t\tmapping(address => mapping(uin...\n    tag 56\t\t\tmapping(address => mapping(uin...\n      JUMPDEST \t\t\tmapping(address => mapping(uin...\n      PUSH 40\t\t\tmapping(address => mapping(uin...\n      MLOAD \t\t\tmapping(address => mapping(uin...\n      DUP1 \t\t\tmapping(address => mapping(uin...\n      SWAP2 \t\t\tmapping(address => mapping(uin...\n      SUB \t\t\tmapping(address => mapping(uin...\n      SWAP1 \t\t\tmapping(address => mapping(uin...\n      RETURN \t\t\tmapping(address => mapping(uin...\n    tag 7\t\t\tmapping(address=>uint) public ...\n      JUMPDEST \t\t\tmapping(address=>uint) public ...\n      CALLVALUE \t\t\tmapping(address=>uint) public ...\n      DUP1 \t\t\tmapping(address=>uint) public ...\n      ISZERO \t\t\tmapping(address=>uint) public ...\n      PUSH [tag] 58\t\t\tmapping(address=>uint) public ...\n      JUMPI \t\t\tmapping(address=>uint) public ...\n      PUSH 0\t\t\tmapping(address=>uint) public ...\n      DUP1 \t\t\tmapping(address=>uint) public ...\n      REVERT \t\t\tmapping(address=>uint) public ...\n    tag 58\t\t\tmapping(address=>uint) public ...\n      JUMPDEST \t\t\tmapping(address=>uint) public ...\n      POP \t\t\tmapping(address=>uint) public ...\n      PUSH [tag] 59\t\t\tmapping(address=>uint) public ...\n      PUSH 4\t\t\tmapping(address=>uint) public ...\n      DUP1 \t\t\tmapping(address=>uint) public ...\n      CALLDATASIZE \t\t\tmapping(address=>uint) public ...\n      SUB \t\t\tmapping(address=>uint) public ...\n      DUP2 \t\t\tmapping(address=>uint) public ...\n      ADD \t\t\tmapping(address=>uint) public ...\n      SWAP1 \t\t\tmapping(address=>uint) public ...\n      PUSH [tag] 60\t\t\tmapping(address=>uint) public ...\n      SWAP2 \t\t\tmapping(address=>uint) public ...\n      SWAP1 \t\t\tmapping(address=>uint) public ...\n      PUSH [tag] 61\t\t\tmapping(address=>uint) public ...\n      JUMP [in]\t\t\tmapping(address=>uint) public ...\n    tag 60\t\t\tmapping(address=>uint) public ...\n      JUMPDEST \t\t\tmapping(address=>uint) public ...\n      PUSH [tag] 62\t\t\tmapping(address=>uint) public ...\n      JUMP [in]\t\t\tmapping(address=>uint) public ...\n    tag 59\t\t\tmapping(address=>uint) public ...\n      JUMPDEST \t\t\tmapping(address=>uint) public ...\n      PUSH 40\t\t\tmapping(address=>uint) public ...\n      MLOAD \t\t\tmapping(address=>uint) public ...\n      PUSH [tag] 63\t\t\tmapping(address=>uint) public ...\n      SWAP2 \t\t\tmapping(address=>uint) public ...\n      SWAP1 \t\t\tmapping(address=>uint) public ...\n      PUSH [tag] 64\t\t\tmapping(address=>uint) public ...\n      JUMP [in]\t\t\tmapping(address=>uint) public ...\n    tag 63\t\t\tmapping(address=>uint) public ...\n      JUMPDEST \t\t\tmapping(address=>uint) public ...\n      PUSH 40\t\t\tmapping(address=>uint) public ...\n      MLOAD \t\t\tmapping(address=>uint) public ...\n      DUP1 \t\t\tmapping(address=>uint) public ...\n      SWAP2 \t\t\tmapping(address=>uint) public ...\n      SUB \t\t\tmapping(address=>uint) public ...\n      SWAP1 \t\t\tmapping(address=>uint) public ...\n      RETURN \t\t\tmapping(address=>uint) public ...\n    tag 8\t\t\tfunction createProposal(string...\n      JUMPDEST \t\t\tfunction createProposal(string...\n      PUSH [tag] 65\t\t\tfunction createProposal(string...\n      PUSH 4\t\t\tfunction createProposal(string...\n      DUP1 \t\t\tfunction createProposal(string...\n      CALLDATASIZE \t\t\tfunction createProposal(string...\n      SUB \t\t\tfunction createProposal(string...\n      DUP2 \t\t\tfunction createProposal(string...\n      ADD \t\t\tfunction createProposal(string...\n      SWAP1 \t\t\tfunction createProposal(string...\n      PUSH [tag] 66\t\t\tfunction createProposal(string...\n      SWAP2 \t\t\tfunction createProposal(string...\n      SWAP1 \t\t\tfunction createProposal(string...\n      PUSH [tag] 67\t\t\tfunction createProposal(string...\n      JUMP [in]\t\t\tfunction createProposal(string...\n    tag 66\t\t\tfunction createProposal(string...\n      JUMPDEST \t\t\tfunction createProposal(string...\n      PUSH [tag] 68\t\t\tfunction createProposal(string...\n      JUMP [in]\t\t\tfunction createProposal(string...\n    tag 65\t\t\tfunction createProposal(string...\n      JUMPDEST \t\t\tfunction createProposal(string...\n      STOP \t\t\tfunction createProposal(string...\n    tag 9\t\t\taddress public chargeTokenAddr...\n      JUMPDEST \t\t\taddress public chargeTokenAddr...\n      CALLVALUE \t\t\taddress public chargeTokenAddr...\n      DUP1 \t\t\taddress public chargeTokenAddr...\n      ISZERO \t\t\taddress public chargeTokenAddr...\n      PUSH [tag] 69\t\t\taddress public chargeTokenAddr...\n      JUMPI \t\t\taddress public chargeTokenAddr...\n      PUSH 0\t\t\taddress public chargeTokenAddr...\n      DUP1 \t\t\taddress public chargeTokenAddr...\n      REVERT \t\t\taddress public chargeTokenAddr...\n    tag 69\t\t\taddress public chargeTokenAddr...\n      JUMPDEST \t\t\taddress public chargeTokenAddr...\n      POP \t\t\taddress public chargeTokenAddr...\n      PUSH [tag] 70\t\t\taddress public chargeTokenAddr...\n      PUSH [tag] 71\t\t\taddress public chargeTokenAddr...\n      JUMP [in]\t\t\taddress public chargeTokenAddr...\n    tag 70\t\t\taddress public chargeTokenAddr...\n      JUMPDEST \t\t\taddress public chargeTokenAddr...\n      PUSH 40\t\t\taddress public chargeTokenAddr...\n      MLOAD \t\t\taddress public chargeTokenAddr...\n      PUSH [tag] 72\t\t\taddress public chargeTokenAddr...\n      SWAP2 \t\t\taddress public chargeTokenAddr...\n      SWAP1 \t\t\taddress public chargeTokenAddr...\n      PUSH [tag] 50\t\t\taddress public chargeTokenAddr...\n      JUMP [in]\t\t\taddress public chargeTokenAddr...\n    tag 72\t\t\taddress public chargeTokenAddr...\n      JUMPDEST \t\t\taddress public chargeTokenAddr...\n      PUSH 40\t\t\taddress public chargeTokenAddr...\n      MLOAD \t\t\taddress public chargeTokenAddr...\n      DUP1 \t\t\taddress public chargeTokenAddr...\n      SWAP2 \t\t\taddress public chargeTokenAddr...\n      SUB \t\t\taddress public chargeTokenAddr...\n      SWAP1 \t\t\taddress public chargeTokenAddr...\n      RETURN \t\t\taddress public chargeTokenAddr...\n    tag 10\t\t\tfunction getDataDaoVotingConfi...\n      JUMPDEST \t\t\tfunction getDataDaoVotingConfi...\n      CALLVALUE \t\t\tfunction getDataDaoVotingConfi...\n      DUP1 \t\t\tfunction getDataDaoVotingConfi...\n      ISZERO \t\t\tfunction getDataDaoVotingConfi...\n      PUSH [tag] 73\t\t\tfunction getDataDaoVotingConfi...\n      JUMPI \t\t\tfunction getDataDaoVotingConfi...\n      PUSH 0\t\t\tfunction getDataDaoVotingConfi...\n      DUP1 \t\t\tfunction getDataDaoVotingConfi...\n      REVERT \t\t\tfunction getDataDaoVotingConfi...\n    tag 73\t\t\tfunction getDataDaoVotingConfi...\n      JUMPDEST \t\t\tfunction getDataDaoVotingConfi...\n      POP \t\t\tfunction getDataDaoVotingConfi...\n      PUSH [tag] 74\t\t\tfunction getDataDaoVotingConfi...\n      PUSH [tag] 75\t\t\tfunction getDataDaoVotingConfi...\n      JUMP [in]\t\t\tfunction getDataDaoVotingConfi...\n    tag 74\t\t\tfunction getDataDaoVotingConfi...\n      JUMPDEST \t\t\tfunction getDataDaoVotingConfi...\n      PUSH 40\t\t\tfunction getDataDaoVotingConfi...\n      MLOAD \t\t\tfunction getDataDaoVotingConfi...\n      PUSH [tag] 76\t\t\tfunction getDataDaoVotingConfi...\n      SWAP2 \t\t\tfunction getDataDaoVotingConfi...\n      SWAP1 \t\t\tfunction getDataDaoVotingConfi...\n      PUSH [tag] 77\t\t\tfunction getDataDaoVotingConfi...\n      JUMP [in]\t\t\tfunction getDataDaoVotingConfi...\n    tag 76\t\t\tfunction getDataDaoVotingConfi...\n      JUMPDEST \t\t\tfunction getDataDaoVotingConfi...\n      PUSH 40\t\t\tfunction getDataDaoVotingConfi...\n      MLOAD \t\t\tfunction getDataDaoVotingConfi...\n      DUP1 \t\t\tfunction getDataDaoVotingConfi...\n      SWAP2 \t\t\tfunction getDataDaoVotingConfi...\n      SUB \t\t\tfunction getDataDaoVotingConfi...\n      SWAP1 \t\t\tfunction getDataDaoVotingConfi...\n      RETURN \t\t\tfunction getDataDaoVotingConfi...\n    tag 11\t\t\tmapping(uint=>address[]) publi...\n      JUMPDEST \t\t\tmapping(uint=>address[]) publi...\n      CALLVALUE \t\t\tmapping(uint=>address[]) publi...\n      DUP1 \t\t\tmapping(uint=>address[]) publi...\n      ISZERO \t\t\tmapping(uint=>address[]) publi...\n      PUSH [tag] 78\t\t\tmapping(uint=>address[]) publi...\n      JUMPI \t\t\tmapping(uint=>address[]) publi...\n      PUSH 0\t\t\tmapping(uint=>address[]) publi...\n      DUP1 \t\t\tmapping(uint=>address[]) publi...\n      REVERT \t\t\tmapping(uint=>address[]) publi...\n    tag 78\t\t\tmapping(uint=>address[]) publi...\n      JUMPDEST \t\t\tmapping(uint=>address[]) publi...\n      POP \t\t\tmapping(uint=>address[]) publi...\n      PUSH [tag] 79\t\t\tmapping(uint=>address[]) publi...\n      PUSH 4\t\t\tmapping(uint=>address[]) publi...\n      DUP1 \t\t\tmapping(uint=>address[]) publi...\n      CALLDATASIZE \t\t\tmapping(uint=>address[]) publi...\n      SUB \t\t\tmapping(uint=>address[]) publi...\n      DUP2 \t\t\tmapping(uint=>address[]) publi...\n      ADD \t\t\tmapping(uint=>address[]) publi...\n      SWAP1 \t\t\tmapping(uint=>address[]) publi...\n      PUSH [tag] 80\t\t\tmapping(uint=>address[]) publi...\n      SWAP2 \t\t\tmapping(uint=>address[]) publi...\n      SWAP1 \t\t\tmapping(uint=>address[]) publi...\n      PUSH [tag] 47\t\t\tmapping(uint=>address[]) publi...\n      JUMP [in]\t\t\tmapping(uint=>address[]) publi...\n    tag 80\t\t\tmapping(uint=>address[]) publi...\n      JUMPDEST \t\t\tmapping(uint=>address[]) publi...\n      PUSH [tag] 81\t\t\tmapping(uint=>address[]) publi...\n      JUMP [in]\t\t\tmapping(uint=>address[]) publi...\n    tag 79\t\t\tmapping(uint=>address[]) publi...\n      JUMPDEST \t\t\tmapping(uint=>address[]) publi...\n      PUSH 40\t\t\tmapping(uint=>address[]) publi...\n      MLOAD \t\t\tmapping(uint=>address[]) publi...\n      PUSH [tag] 82\t\t\tmapping(uint=>address[]) publi...\n      SWAP2 \t\t\tmapping(uint=>address[]) publi...\n      SWAP1 \t\t\tmapping(uint=>address[]) publi...\n      PUSH [tag] 50\t\t\tmapping(uint=>address[]) publi...\n      JUMP [in]\t\t\tmapping(uint=>address[]) publi...\n    tag 82\t\t\tmapping(uint=>address[]) publi...\n      JUMPDEST \t\t\tmapping(uint=>address[]) publi...\n      PUSH 40\t\t\tmapping(uint=>address[]) publi...\n      MLOAD \t\t\tmapping(uint=>address[]) publi...\n      DUP1 \t\t\tmapping(uint=>address[]) publi...\n      SWAP2 \t\t\tmapping(uint=>address[]) publi...\n      SUB \t\t\tmapping(uint=>address[]) publi...\n      SWAP1 \t\t\tmapping(uint=>address[]) publi...\n      RETURN \t\t\tmapping(uint=>address[]) publi...\n    tag 12\t\t\t[]) public membersForDownvote;...\n      JUMPDEST \t\t\t[]) public membersForDownvote;...\n      CALLVALUE \t\t\t[]) public membersForDownvote;...\n      DUP1 \t\t\t[]) public membersForDownvote;...\n      ISZERO \t\t\t[]) public membersForDownvote;...\n      PUSH [tag] 83\t\t\t[]) public membersForDownvote;...\n      JUMPI \t\t\t[]) public membersForDownvote;...\n      PUSH 0\t\t\t[]) public membersForDownvote;...\n      DUP1 \t\t\t[]) public membersForDownvote;...\n      REVERT \t\t\t[]) public membersForDownvote;...\n    tag 83\t\t\t[]) public membersForDownvote;...\n      JUMPDEST \t\t\t[]) public membersForDownvote;...\n      POP \t\t\t[]) public membersForDownvote;...\n      PUSH [tag] 84\t\t\t[]) public membersForDownvote;...\n      PUSH [tag] 85\t\t\t[]) public membersForDownvote;...\n      JUMP [in]\t\t\t[]) public membersForDownvote;...\n    tag 84\t\t\t[]) public membersForDownvote;...\n      JUMPDEST \t\t\t[]) public membersForDownvote;...\n      STOP \t\t\t[]) public membersForDownvote;...\n    tag 13\t\t\tfunction votingResult(uint _pr...\n      JUMPDEST \t\t\tfunction votingResult(uint _pr...\n      CALLVALUE \t\t\tfunction votingResult(uint _pr...\n      DUP1 \t\t\tfunction votingResult(uint _pr...\n      ISZERO \t\t\tfunction votingResult(uint _pr...\n      PUSH [tag] 86\t\t\tfunction votingResult(uint _pr...\n      JUMPI \t\t\tfunction votingResult(uint _pr...\n      PUSH 0\t\t\tfunction votingResult(uint _pr...\n      DUP1 \t\t\tfunction votingResult(uint _pr...\n      REVERT \t\t\tfunction votingResult(uint _pr...\n    tag 86\t\t\tfunction votingResult(uint _pr...\n      JUMPDEST \t\t\tfunction votingResult(uint _pr...\n      POP \t\t\tfunction votingResult(uint _pr...\n      PUSH [tag] 87\t\t\tfunction votingResult(uint _pr...\n      PUSH 4\t\t\tfunction votingResult(uint _pr...\n      DUP1 \t\t\tfunction votingResult(uint _pr...\n      CALLDATASIZE \t\t\tfunction votingResult(uint _pr...\n      SUB \t\t\tfunction votingResult(uint _pr...\n      DUP2 \t\t\tfunction votingResult(uint _pr...\n      ADD \t\t\tfunction votingResult(uint _pr...\n      SWAP1 \t\t\tfunction votingResult(uint _pr...\n      PUSH [tag] 88\t\t\tfunction votingResult(uint _pr...\n      SWAP2 \t\t\tfunction votingResult(uint _pr...\n      SWAP1 \t\t\tfunction votingResult(uint _pr...\n      PUSH [tag] 47\t\t\tfunction votingResult(uint _pr...\n      JUMP [in]\t\t\tfunction votingResult(uint _pr...\n    tag 88\t\t\tfunction votingResult(uint _pr...\n      JUMPDEST \t\t\tfunction votingResult(uint _pr...\n      PUSH [tag] 89\t\t\tfunction votingResult(uint _pr...\n      JUMP [in]\t\t\tfunction votingResult(uint _pr...\n    tag 87\t\t\tfunction votingResult(uint _pr...\n      JUMPDEST \t\t\tfunction votingResult(uint _pr...\n      STOP \t\t\tfunction votingResult(uint _pr...\n    tag 14\t\t\tITemplateNFT public templateNF...\n      JUMPDEST \t\t\tITemplateNFT public templateNF...\n      CALLVALUE \t\t\tITemplateNFT public templateNF...\n      DUP1 \t\t\tITemplateNFT public templateNF...\n      ISZERO \t\t\tITemplateNFT public templateNF...\n      PUSH [tag] 90\t\t\tITemplateNFT public templateNF...\n      JUMPI \t\t\tITemplateNFT public templateNF...\n      PUSH 0\t\t\tITemplateNFT public templateNF...\n      DUP1 \t\t\tITemplateNFT public templateNF...\n      REVERT \t\t\tITemplateNFT public templateNF...\n    tag 90\t\t\tITemplateNFT public templateNF...\n      JUMPDEST \t\t\tITemplateNFT public templateNF...\n      POP \t\t\tITemplateNFT public templateNF...\n      PUSH [tag] 91\t\t\tITemplateNFT public templateNF...\n      PUSH [tag] 92\t\t\tITemplateNFT public templateNF...\n      JUMP [in]\t\t\tITemplateNFT public templateNF...\n    tag 91\t\t\tITemplateNFT public templateNF...\n      JUMPDEST \t\t\tITemplateNFT public templateNF...\n      PUSH 40\t\t\tITemplateNFT public templateNF...\n      MLOAD \t\t\tITemplateNFT public templateNF...\n      PUSH [tag] 93\t\t\tITemplateNFT public templateNF...\n      SWAP2 \t\t\tITemplateNFT public templateNF...\n      SWAP1 \t\t\tITemplateNFT public templateNF...\n      PUSH [tag] 94\t\t\tITemplateNFT public templateNF...\n      JUMP [in]\t\t\tITemplateNFT public templateNF...\n    tag 93\t\t\tITemplateNFT public templateNF...\n      JUMPDEST \t\t\tITemplateNFT public templateNF...\n      PUSH 40\t\t\tITemplateNFT public templateNF...\n      MLOAD \t\t\tITemplateNFT public templateNF...\n      DUP1 \t\t\tITemplateNFT public templateNF...\n      SWAP2 \t\t\tITemplateNFT public templateNF...\n      SUB \t\t\tITemplateNFT public templateNF...\n      SWAP1 \t\t\tITemplateNFT public templateNF...\n      RETURN \t\t\tITemplateNFT public templateNF...\n    tag 15\t\t\t\\r\\n        uint256 proposalEx...\n      JUMPDEST \t\t\t\\r\\n        uint256 proposalEx...\n      CALLVALUE \t\t\t\\r\\n        uint256 proposalEx...\n      DUP1 \t\t\t\\r\\n        uint256 proposalEx...\n      ISZERO \t\t\t\\r\\n        uint256 proposalEx...\n      PUSH [tag] 95\t\t\t\\r\\n        uint256 proposalEx...\n      JUMPI \t\t\t\\r\\n        uint256 proposalEx...\n      PUSH 0\t\t\t\\r\\n        uint256 proposalEx...\n      DUP1 \t\t\t\\r\\n        uint256 proposalEx...\n      REVERT \t\t\t\\r\\n        uint256 proposalEx...\n    tag 95\t\t\t\\r\\n        uint256 proposalEx...\n      JUMPDEST \t\t\t\\r\\n        uint256 proposalEx...\n      POP \t\t\t\\r\\n        uint256 proposalEx...\n      PUSH [tag] 96\t\t\t\\r\\n        uint256 proposalEx...\n      PUSH [tag] 97\t\t\t\\r\\n        uint256 proposalEx...\n      JUMP [in]\t\t\t\\r\\n        uint256 proposalEx...\n    tag 96\t\t\t\\r\\n        uint256 proposalEx...\n      JUMPDEST \t\t\t\\r\\n        uint256 proposalEx...\n      PUSH 40\t\t\t\\r\\n        uint256 proposalEx...\n      MLOAD \t\t\t\\r\\n        uint256 proposalEx...\n      PUSH [tag] 98\t\t\t\\r\\n        uint256 proposalEx...\n      SWAP2 \t\t\t\\r\\n        uint256 proposalEx...\n      SWAP1 \t\t\t\\r\\n        uint256 proposalEx...\n      PUSH [tag] 50\t\t\t\\r\\n        uint256 proposalEx...\n      JUMP [in]\t\t\t\\r\\n        uint256 proposalEx...\n    tag 98\t\t\t\\r\\n        uint256 proposalEx...\n      JUMPDEST \t\t\t\\r\\n        uint256 proposalEx...\n      PUSH 40\t\t\t\\r\\n        uint256 proposalEx...\n      MLOAD \t\t\t\\r\\n        uint256 proposalEx...\n      DUP1 \t\t\t\\r\\n        uint256 proposalEx...\n      SWAP2 \t\t\t\\r\\n        uint256 proposalEx...\n      SUB \t\t\t\\r\\n        uint256 proposalEx...\n      SWAP1 \t\t\t\\r\\n        uint256 proposalEx...\n      RETURN \t\t\t\\r\\n        uint256 proposalEx...\n    tag 16\t\t\tfunction upvoteProposal(uint25...\n      JUMPDEST \t\t\tfunction upvoteProposal(uint25...\n      PUSH [tag] 99\t\t\tfunction upvoteProposal(uint25...\n      PUSH 4\t\t\tfunction upvoteProposal(uint25...\n      DUP1 \t\t\tfunction upvoteProposal(uint25...\n      CALLDATASIZE \t\t\tfunction upvoteProposal(uint25...\n      SUB \t\t\tfunction upvoteProposal(uint25...\n      DUP2 \t\t\tfunction upvoteProposal(uint25...\n      ADD \t\t\tfunction upvoteProposal(uint25...\n      SWAP1 \t\t\tfunction upvoteProposal(uint25...\n      PUSH [tag] 100\t\t\tfunction upvoteProposal(uint25...\n      SWAP2 \t\t\tfunction upvoteProposal(uint25...\n      SWAP1 \t\t\tfunction upvoteProposal(uint25...\n      PUSH [tag] 34\t\t\tfunction upvoteProposal(uint25...\n      JUMP [in]\t\t\tfunction upvoteProposal(uint25...\n    tag 100\t\t\tfunction upvoteProposal(uint25...\n      JUMPDEST \t\t\tfunction upvoteProposal(uint25...\n      PUSH [tag] 101\t\t\tfunction upvoteProposal(uint25...\n      JUMP [in]\t\t\tfunction upvoteProposal(uint25...\n    tag 99\t\t\tfunction upvoteProposal(uint25...\n      JUMPDEST \t\t\tfunction upvoteProposal(uint25...\n      STOP \t\t\tfunction upvoteProposal(uint25...\n    tag 17\t\t\tISamhitaDAO public samhita\n      JUMPDEST \t\t\tISamhitaDAO public samhita\n      CALLVALUE \t\t\tISamhitaDAO public samhita\n      DUP1 \t\t\tISamhitaDAO public samhita\n      ISZERO \t\t\tISamhitaDAO public samhita\n      PUSH [tag] 102\t\t\tISamhitaDAO public samhita\n      JUMPI \t\t\tISamhitaDAO public samhita\n      PUSH 0\t\t\tISamhitaDAO public samhita\n      DUP1 \t\t\tISamhitaDAO public samhita\n      REVERT \t\t\tISamhitaDAO public samhita\n    tag 102\t\t\tISamhitaDAO public samhita\n      JUMPDEST \t\t\tISamhitaDAO public samhita\n      POP \t\t\tISamhitaDAO public samhita\n      PUSH [tag] 103\t\t\tISamhitaDAO public samhita\n      PUSH [tag] 104\t\t\tISamhitaDAO public samhita\n      JUMP [in]\t\t\tISamhitaDAO public samhita\n    tag 103\t\t\tISamhitaDAO public samhita\n      JUMPDEST \t\t\tISamhitaDAO public samhita\n      PUSH 40\t\t\tISamhitaDAO public samhita\n      MLOAD \t\t\tISamhitaDAO public samhita\n      PUSH [tag] 105\t\t\tISamhitaDAO public samhita\n      SWAP2 \t\t\tISamhitaDAO public samhita\n      SWAP1 \t\t\tISamhitaDAO public samhita\n      PUSH [tag] 106\t\t\tISamhitaDAO public samhita\n      JUMP [in]\t\t\tISamhitaDAO public samhita\n    tag 105\t\t\tISamhitaDAO public samhita\n      JUMPDEST \t\t\tISamhitaDAO public samhita\n      PUSH 40\t\t\tISamhitaDAO public samhita\n      MLOAD \t\t\tISamhitaDAO public samhita\n      DUP1 \t\t\tISamhitaDAO public samhita\n      SWAP2 \t\t\tISamhitaDAO public samhita\n      SUB \t\t\tISamhitaDAO public samhita\n      SWAP1 \t\t\tISamhitaDAO public samhita\n      RETURN \t\t\tISamhitaDAO public samhita\n    tag 18\t\t\tuint public royaltyFee = 10000...\n      JUMPDEST \t\t\tuint public royaltyFee = 10000...\n      CALLVALUE \t\t\tuint public royaltyFee = 10000...\n      DUP1 \t\t\tuint public royaltyFee = 10000...\n      ISZERO \t\t\tuint public royaltyFee = 10000...\n      PUSH [tag] 107\t\t\tuint public royaltyFee = 10000...\n      JUMPI \t\t\tuint public royaltyFee = 10000...\n      PUSH 0\t\t\tuint public royaltyFee = 10000...\n      DUP1 \t\t\tuint public royaltyFee = 10000...\n      REVERT \t\t\tuint public royaltyFee = 10000...\n    tag 107\t\t\tuint public royaltyFee = 10000...\n      JUMPDEST \t\t\tuint public royaltyFee = 10000...\n      POP \t\t\tuint public royaltyFee = 10000...\n      PUSH [tag] 108\t\t\tuint public royaltyFee = 10000...\n      PUSH [tag] 109\t\t\tuint public royaltyFee = 10000...\n      JUMP [in]\t\t\tuint public royaltyFee = 10000...\n    tag 108\t\t\tuint public royaltyFee = 10000...\n      JUMPDEST \t\t\tuint public royaltyFee = 10000...\n      PUSH 40\t\t\tuint public royaltyFee = 10000...\n      MLOAD \t\t\tuint public royaltyFee = 10000...\n      PUSH [tag] 110\t\t\tuint public royaltyFee = 10000...\n      SWAP2 \t\t\tuint public royaltyFee = 10000...\n      SWAP1 \t\t\tuint public royaltyFee = 10000...\n      PUSH [tag] 64\t\t\tuint public royaltyFee = 10000...\n      JUMP [in]\t\t\tuint public royaltyFee = 10000...\n    tag 110\t\t\tuint public royaltyFee = 10000...\n      JUMPDEST \t\t\tuint public royaltyFee = 10000...\n      PUSH 40\t\t\tuint public royaltyFee = 10000...\n      MLOAD \t\t\tuint public royaltyFee = 10000...\n      DUP1 \t\t\tuint public royaltyFee = 10000...\n      SWAP2 \t\t\tuint public royaltyFee = 10000...\n      SUB \t\t\tuint public royaltyFee = 10000...\n      SWAP1 \t\t\tuint public royaltyFee = 10000...\n      RETURN \t\t\tuint public royaltyFee = 10000...\n    tag 19\t\t\tmapping(uint=>address[]) publi...\n      JUMPDEST \t\t\tmapping(uint=>address[]) publi...\n      CALLVALUE \t\t\tmapping(uint=>address[]) publi...\n      DUP1 \t\t\tmapping(uint=>address[]) publi...\n      ISZERO \t\t\tmapping(uint=>address[]) publi...\n      PUSH [tag] 111\t\t\tmapping(uint=>address[]) publi...\n      JUMPI \t\t\tmapping(uint=>address[]) publi...\n      PUSH 0\t\t\tmapping(uint=>address[]) publi...\n      DUP1 \t\t\tmapping(uint=>address[]) publi...\n      REVERT \t\t\tmapping(uint=>address[]) publi...\n    tag 111\t\t\tmapping(uint=>address[]) publi...\n      JUMPDEST \t\t\tmapping(uint=>address[]) publi...\n      POP \t\t\tmapping(uint=>address[]) publi...\n      PUSH [tag] 112\t\t\tmapping(uint=>address[]) publi...\n      PUSH 4\t\t\tmapping(uint=>address[]) publi...\n      DUP1 \t\t\tmapping(uint=>address[]) publi...\n      CALLDATASIZE \t\t\tmapping(uint=>address[]) publi...\n      SUB \t\t\tmapping(uint=>address[]) publi...\n      DUP2 \t\t\tmapping(uint=>address[]) publi...\n      ADD \t\t\tmapping(uint=>address[]) publi...\n      SWAP1 \t\t\tmapping(uint=>address[]) publi...\n      PUSH [tag] 113\t\t\tmapping(uint=>address[]) publi...\n      SWAP2 \t\t\tmapping(uint=>address[]) publi...\n      SWAP1 \t\t\tmapping(uint=>address[]) publi...\n      PUSH [tag] 47\t\t\tmapping(uint=>address[]) publi...\n      JUMP [in]\t\t\tmapping(uint=>address[]) publi...\n    tag 113\t\t\tmapping(uint=>address[]) publi...\n      JUMPDEST \t\t\tmapping(uint=>address[]) publi...\n      PUSH [tag] 114\t\t\tmapping(uint=>address[]) publi...\n      JUMP [in]\t\t\tmapping(uint=>address[]) publi...\n    tag 112\t\t\tmapping(uint=>address[]) publi...\n      JUMPDEST \t\t\tmapping(uint=>address[]) publi...\n      PUSH 40\t\t\tmapping(uint=>address[]) publi...\n      MLOAD \t\t\tmapping(uint=>address[]) publi...\n      PUSH [tag] 115\t\t\tmapping(uint=>address[]) publi...\n      SWAP2 \t\t\tmapping(uint=>address[]) publi...\n      SWAP1 \t\t\tmapping(uint=>address[]) publi...\n      PUSH [tag] 50\t\t\tmapping(uint=>address[]) publi...\n      JUMP [in]\t\t\tmapping(uint=>address[]) publi...\n    tag 115\t\t\tmapping(uint=>address[]) publi...\n      JUMPDEST \t\t\tmapping(uint=>address[]) publi...\n      PUSH 40\t\t\tmapping(uint=>address[]) publi...\n      MLOAD \t\t\tmapping(uint=>address[]) publi...\n      DUP1 \t\t\tmapping(uint=>address[]) publi...\n      SWAP2 \t\t\tmapping(uint=>address[]) publi...\n      SUB \t\t\tmapping(uint=>address[]) publi...\n      SWAP1 \t\t\tmapping(uint=>address[]) publi...\n      RETURN \t\t\tmapping(uint=>address[]) publi...\n    tag 20\t\t\tfunction getAllProposals() pub...\n      JUMPDEST \t\t\tfunction getAllProposals() pub...\n      CALLVALUE \t\t\tfunction getAllProposals() pub...\n      DUP1 \t\t\tfunction getAllProposals() pub...\n      ISZERO \t\t\tfunction getAllProposals() pub...\n      PUSH [tag] 116\t\t\tfunction getAllProposals() pub...\n      JUMPI \t\t\tfunction getAllProposals() pub...\n      PUSH 0\t\t\tfunction getAllProposals() pub...\n      DUP1 \t\t\tfunction getAllProposals() pub...\n      REVERT \t\t\tfunction getAllProposals() pub...\n    tag 116\t\t\tfunction getAllProposals() pub...\n      JUMPDEST \t\t\tfunction getAllProposals() pub...\n      POP \t\t\tfunction getAllProposals() pub...\n      PUSH [tag] 117\t\t\tfunction getAllProposals() pub...\n      PUSH [tag] 118\t\t\tfunction getAllProposals() pub...\n      JUMP [in]\t\t\tfunction getAllProposals() pub...\n    tag 117\t\t\tfunction getAllProposals() pub...\n      JUMPDEST \t\t\tfunction getAllProposals() pub...\n      PUSH 40\t\t\tfunction getAllProposals() pub...\n      MLOAD \t\t\tfunction getAllProposals() pub...\n      PUSH [tag] 119\t\t\tfunction getAllProposals() pub...\n      SWAP2 \t\t\tfunction getAllProposals() pub...\n      SWAP1 \t\t\tfunction getAllProposals() pub...\n      PUSH [tag] 120\t\t\tfunction getAllProposals() pub...\n      JUMP [in]\t\t\tfunction getAllProposals() pub...\n    tag 119\t\t\tfunction getAllProposals() pub...\n      JUMPDEST \t\t\tfunction getAllProposals() pub...\n      PUSH 40\t\t\tfunction getAllProposals() pub...\n      MLOAD \t\t\tfunction getAllProposals() pub...\n      DUP1 \t\t\tfunction getAllProposals() pub...\n      SWAP2 \t\t\tfunction getAllProposals() pub...\n      SUB \t\t\tfunction getAllProposals() pub...\n      SWAP1 \t\t\tfunction getAllProposals() pub...\n      RETURN \t\t\tfunction getAllProposals() pub...\n    tag 21\t\t\tILanguageToken public language...\n      JUMPDEST \t\t\tILanguageToken public language...\n      CALLVALUE \t\t\tILanguageToken public language...\n      DUP1 \t\t\tILanguageToken public language...\n      ISZERO \t\t\tILanguageToken public language...\n      PUSH [tag] 121\t\t\tILanguageToken public language...\n      JUMPI \t\t\tILanguageToken public language...\n      PUSH 0\t\t\tILanguageToken public language...\n      DUP1 \t\t\tILanguageToken public language...\n      REVERT \t\t\tILanguageToken public language...\n    tag 121\t\t\tILanguageToken public language...\n      JUMPDEST \t\t\tILanguageToken public language...\n      POP \t\t\tILanguageToken public language...\n      PUSH [tag] 122\t\t\tILanguageToken public language...\n      PUSH [tag] 123\t\t\tILanguageToken public language...\n      JUMP [in]\t\t\tILanguageToken public language...\n    tag 122\t\t\tILanguageToken public language...\n      JUMPDEST \t\t\tILanguageToken public language...\n      PUSH 40\t\t\tILanguageToken public language...\n      MLOAD \t\t\tILanguageToken public language...\n      PUSH [tag] 124\t\t\tILanguageToken public language...\n      SWAP2 \t\t\tILanguageToken public language...\n      SWAP1 \t\t\tILanguageToken public language...\n      PUSH [tag] 125\t\t\tILanguageToken public language...\n      JUMP [in]\t\t\tILanguageToken public language...\n    tag 124\t\t\tILanguageToken public language...\n      JUMPDEST \t\t\tILanguageToken public language...\n      PUSH 40\t\t\tILanguageToken public language...\n      MLOAD \t\t\tILanguageToken public language...\n      DUP1 \t\t\tILanguageToken public language...\n      SWAP2 \t\t\tILanguageToken public language...\n      SUB \t\t\tILanguageToken public language...\n      SWAP1 \t\t\tILanguageToken public language...\n      RETURN \t\t\tILanguageToken public language...\n    tag 22\t\t\tuint256 public proposalCount\n      JUMPDEST \t\t\tuint256 public proposalCount\n      CALLVALUE \t\t\tuint256 public proposalCount\n      DUP1 \t\t\tuint256 public proposalCount\n      ISZERO \t\t\tuint256 public proposalCount\n      PUSH [tag] 126\t\t\tuint256 public proposalCount\n      JUMPI \t\t\tuint256 public proposalCount\n      PUSH 0\t\t\tuint256 public proposalCount\n      DUP1 \t\t\tuint256 public proposalCount\n      REVERT \t\t\tuint256 public proposalCount\n    tag 126\t\t\tuint256 public proposalCount\n      JUMPDEST \t\t\tuint256 public proposalCount\n      POP \t\t\tuint256 public proposalCount\n      PUSH [tag] 127\t\t\tuint256 public proposalCount\n      PUSH [tag] 128\t\t\tuint256 public proposalCount\n      JUMP [in]\t\t\tuint256 public proposalCount\n    tag 127\t\t\tuint256 public proposalCount\n      JUMPDEST \t\t\tuint256 public proposalCount\n      PUSH 40\t\t\tuint256 public proposalCount\n      MLOAD \t\t\tuint256 public proposalCount\n      PUSH [tag] 129\t\t\tuint256 public proposalCount\n      SWAP2 \t\t\tuint256 public proposalCount\n      SWAP1 \t\t\tuint256 public proposalCount\n      PUSH [tag] 64\t\t\tuint256 public proposalCount\n      JUMP [in]\t\t\tuint256 public proposalCount\n    tag 129\t\t\tuint256 public proposalCount\n      JUMPDEST \t\t\tuint256 public proposalCount\n      PUSH 40\t\t\tuint256 public proposalCount\n      MLOAD \t\t\tuint256 public proposalCount\n      DUP1 \t\t\tuint256 public proposalCount\n      SWAP2 \t\t\tuint256 public proposalCount\n      SUB \t\t\tuint256 public proposalCount\n      SWAP1 \t\t\tuint256 public proposalCount\n      RETURN \t\t\tuint256 public proposalCount\n    tag 23\t\t\tmapping(address=>bool) public ...\n      JUMPDEST \t\t\tmapping(address=>bool) public ...\n      CALLVALUE \t\t\tmapping(address=>bool) public ...\n      DUP1 \t\t\tmapping(address=>bool) public ...\n      ISZERO \t\t\tmapping(address=>bool) public ...\n      PUSH [tag] 130\t\t\tmapping(address=>bool) public ...\n      JUMPI \t\t\tmapping(address=>bool) public ...\n      PUSH 0\t\t\tmapping(address=>bool) public ...\n      DUP1 \t\t\tmapping(address=>bool) public ...\n      REVERT \t\t\tmapping(address=>bool) public ...\n    tag 130\t\t\tmapping(address=>bool) public ...\n      JUMPDEST \t\t\tmapping(address=>bool) public ...\n      POP \t\t\tmapping(address=>bool) public ...\n      PUSH [tag] 131\t\t\tmapping(address=>bool) public ...\n      PUSH 4\t\t\tmapping(address=>bool) public ...\n      DUP1 \t\t\tmapping(address=>bool) public ...\n      CALLDATASIZE \t\t\tmapping(address=>bool) public ...\n      SUB \t\t\tmapping(address=>bool) public ...\n      DUP2 \t\t\tmapping(address=>bool) public ...\n      ADD \t\t\tmapping(address=>bool) public ...\n      SWAP1 \t\t\tmapping(address=>bool) public ...\n      PUSH [tag] 132\t\t\tmapping(address=>bool) public ...\n      SWAP2 \t\t\tmapping(address=>bool) public ...\n      SWAP1 \t\t\tmapping(address=>bool) public ...\n      PUSH [tag] 61\t\t\tmapping(address=>bool) public ...\n      JUMP [in]\t\t\tmapping(address=>bool) public ...\n    tag 132\t\t\tmapping(address=>bool) public ...\n      JUMPDEST \t\t\tmapping(address=>bool) public ...\n      PUSH [tag] 133\t\t\tmapping(address=>bool) public ...\n      JUMP [in]\t\t\tmapping(address=>bool) public ...\n    tag 131\t\t\tmapping(address=>bool) public ...\n      JUMPDEST \t\t\tmapping(address=>bool) public ...\n      PUSH 40\t\t\tmapping(address=>bool) public ...\n      MLOAD \t\t\tmapping(address=>bool) public ...\n      PUSH [tag] 134\t\t\tmapping(address=>bool) public ...\n      SWAP2 \t\t\tmapping(address=>bool) public ...\n      SWAP1 \t\t\tmapping(address=>bool) public ...\n      PUSH [tag] 57\t\t\tmapping(address=>bool) public ...\n      JUMP [in]\t\t\tmapping(address=>bool) public ...\n    tag 134\t\t\tmapping(address=>bool) public ...\n      JUMPDEST \t\t\tmapping(address=>bool) public ...\n      PUSH 40\t\t\tmapping(address=>bool) public ...\n      MLOAD \t\t\tmapping(address=>bool) public ...\n      DUP1 \t\t\tmapping(address=>bool) public ...\n      SWAP2 \t\t\tmapping(address=>bool) public ...\n      SUB \t\t\tmapping(address=>bool) public ...\n      SWAP1 \t\t\tmapping(address=>bool) public ...\n      RETURN \t\t\tmapping(address=>bool) public ...\n    tag 24\t\t\tess=>uint) public memberWithdr...\n      JUMPDEST \t\t\tess=>uint) public memberWithdr...\n      CALLVALUE \t\t\tess=>uint) public memberWithdr...\n      DUP1 \t\t\tess=>uint) public memberWithdr...\n      ISZERO \t\t\tess=>uint) public memberWithdr...\n      PUSH [tag] 135\t\t\tess=>uint) public memberWithdr...\n      JUMPI \t\t\tess=>uint) public memberWithdr...\n      PUSH 0\t\t\tess=>uint) public memberWithdr...\n      DUP1 \t\t\tess=>uint) public memberWithdr...\n      REVERT \t\t\tess=>uint) public memberWithdr...\n    tag 135\t\t\tess=>uint) public memberWithdr...\n      JUMPDEST \t\t\tess=>uint) public memberWithdr...\n      POP \t\t\tess=>uint) public memberWithdr...\n      PUSH [tag] 136\t\t\tess=>uint) public memberWithdr...\n      PUSH 4\t\t\tess=>uint) public memberWithdr...\n      DUP1 \t\t\tess=>uint) public memberWithdr...\n      CALLDATASIZE \t\t\tess=>uint) public memberWithdr...\n      SUB \t\t\tess=>uint) public memberWithdr...\n      DUP2 \t\t\tess=>uint) public memberWithdr...\n      ADD \t\t\tess=>uint) public memberWithdr...\n      SWAP1 \t\t\tess=>uint) public memberWithdr...\n      PUSH [tag] 137\t\t\tess=>uint) public memberWithdr...\n      SWAP2 \t\t\tess=>uint) public memberWithdr...\n      SWAP1 \t\t\tess=>uint) public memberWithdr...\n      PUSH [tag] 61\t\t\tess=>uint) public memberWithdr...\n      JUMP [in]\t\t\tess=>uint) public memberWithdr...\n    tag 137\t\t\tess=>uint) public memberWithdr...\n      JUMPDEST \t\t\tess=>uint) public memberWithdr...\n      PUSH [tag] 138\t\t\tess=>uint) public memberWithdr...\n      JUMP [in]\t\t\tess=>uint) public memberWithdr...\n    tag 136\t\t\tess=>uint) public memberWithdr...\n      JUMPDEST \t\t\tess=>uint) public memberWithdr...\n      STOP \t\t\tess=>uint) public memberWithdr...\n    tag 25\t\t\tVotingConfig public votingconf...\n      JUMPDEST \t\t\tVotingConfig public votingconf...\n      CALLVALUE \t\t\tVotingConfig public votingconf...\n      DUP1 \t\t\tVotingConfig public votingconf...\n      ISZERO \t\t\tVotingConfig public votingconf...\n      PUSH [tag] 139\t\t\tVotingConfig public votingconf...\n      JUMPI \t\t\tVotingConfig public votingconf...\n      PUSH 0\t\t\tVotingConfig public votingconf...\n      DUP1 \t\t\tVotingConfig public votingconf...\n      REVERT \t\t\tVotingConfig public votingconf...\n    tag 139\t\t\tVotingConfig public votingconf...\n      JUMPDEST \t\t\tVotingConfig public votingconf...\n      POP \t\t\tVotingConfig public votingconf...\n      PUSH [tag] 140\t\t\tVotingConfig public votingconf...\n      PUSH [tag] 141\t\t\tVotingConfig public votingconf...\n      JUMP [in]\t\t\tVotingConfig public votingconf...\n    tag 140\t\t\tVotingConfig public votingconf...\n      JUMPDEST \t\t\tVotingConfig public votingconf...\n      PUSH 40\t\t\tVotingConfig public votingconf...\n      MLOAD \t\t\tVotingConfig public votingconf...\n      PUSH [tag] 142\t\t\tVotingConfig public votingconf...\n      SWAP6 \t\t\tVotingConfig public votingconf...\n      SWAP5 \t\t\tVotingConfig public votingconf...\n      SWAP4 \t\t\tVotingConfig public votingconf...\n      SWAP3 \t\t\tVotingConfig public votingconf...\n      SWAP2 \t\t\tVotingConfig public votingconf...\n      SWAP1 \t\t\tVotingConfig public votingconf...\n      PUSH [tag] 143\t\t\tVotingConfig public votingconf...\n      JUMP [in]\t\t\tVotingConfig public votingconf...\n    tag 142\t\t\tVotingConfig public votingconf...\n      JUMPDEST \t\t\tVotingConfig public votingconf...\n      PUSH 40\t\t\tVotingConfig public votingconf...\n      MLOAD \t\t\tVotingConfig public votingconf...\n      DUP1 \t\t\tVotingConfig public votingconf...\n      SWAP2 \t\t\tVotingConfig public votingconf...\n      SUB \t\t\tVotingConfig public votingconf...\n      SWAP1 \t\t\tVotingConfig public votingconf...\n      RETURN \t\t\tVotingConfig public votingconf...\n    tag 26\t\t\tfunction setDataDaoVotingConfi...\n      JUMPDEST \t\t\tfunction setDataDaoVotingConfi...\n      CALLVALUE \t\t\tfunction setDataDaoVotingConfi...\n      DUP1 \t\t\tfunction setDataDaoVotingConfi...\n      ISZERO \t\t\tfunction setDataDaoVotingConfi...\n      PUSH [tag] 144\t\t\tfunction setDataDaoVotingConfi...\n      JUMPI \t\t\tfunction setDataDaoVotingConfi...\n      PUSH 0\t\t\tfunction setDataDaoVotingConfi...\n      DUP1 \t\t\tfunction setDataDaoVotingConfi...\n      REVERT \t\t\tfunction setDataDaoVotingConfi...\n    tag 144\t\t\tfunction setDataDaoVotingConfi...\n      JUMPDEST \t\t\tfunction setDataDaoVotingConfi...\n      POP \t\t\tfunction setDataDaoVotingConfi...\n      PUSH [tag] 145\t\t\tfunction setDataDaoVotingConfi...\n      PUSH 4\t\t\tfunction setDataDaoVotingConfi...\n      DUP1 \t\t\tfunction setDataDaoVotingConfi...\n      CALLDATASIZE \t\t\tfunction setDataDaoVotingConfi...\n      SUB \t\t\tfunction setDataDaoVotingConfi...\n      DUP2 \t\t\tfunction setDataDaoVotingConfi...\n      ADD \t\t\tfunction setDataDaoVotingConfi...\n      SWAP1 \t\t\tfunction setDataDaoVotingConfi...\n      PUSH [tag] 146\t\t\tfunction setDataDaoVotingConfi...\n      SWAP2 \t\t\tfunction setDataDaoVotingConfi...\n      SWAP1 \t\t\tfunction setDataDaoVotingConfi...\n      PUSH [tag] 147\t\t\tfunction setDataDaoVotingConfi...\n      JUMP [in]\t\t\tfunction setDataDaoVotingConfi...\n    tag 146\t\t\tfunction setDataDaoVotingConfi...\n      JUMPDEST \t\t\tfunction setDataDaoVotingConfi...\n      PUSH [tag] 148\t\t\tfunction setDataDaoVotingConfi...\n      JUMP [in]\t\t\tfunction setDataDaoVotingConfi...\n    tag 145\t\t\tfunction setDataDaoVotingConfi...\n      JUMPDEST \t\t\tfunction setDataDaoVotingConfi...\n      STOP \t\t\tfunction setDataDaoVotingConfi...\n    tag 35\t\t\tmapping(uint256 => Proposal) p...\n      JUMPDEST \t\t\tmapping(uint256 => Proposal) p...\n      PUSH 4\t\t\tmapping(uint256 => Proposal) p...\n      PUSH 20\t\t\tmapping(uint256 => Proposal) p...\n      MSTORE \t\t\tmapping(uint256 => Proposal) p...\n      DUP1 \t\t\tmapping(uint256 => Proposal) p...\n      PUSH 0\t\t\tmapping(uint256 => Proposal) p...\n      MSTORE \t\t\tmapping(uint256 => Proposal) p...\n      PUSH 40\t\t\tmapping(uint256 => Proposal) p...\n      PUSH 0\t\t\tmapping(uint256 => Proposal) p...\n      KECCAK256 \t\t\tmapping(uint256 => Proposal) p...\n      PUSH 0\t\t\tmapping(uint256 => Proposal) p...\n      SWAP2 \t\t\tmapping(uint256 => Proposal) p...\n      POP \t\t\tmapping(uint256 => Proposal) p...\n      SWAP1 \t\t\tmapping(uint256 => Proposal) p...\n      POP \t\t\tmapping(uint256 => Proposal) p...\n      DUP1 \t\t\tmapping(uint256 => Proposal) p...\n      PUSH 0\t\t\tmapping(uint256 => Proposal) p...\n      ADD \t\t\tmapping(uint256 => Proposal) p...\n      SLOAD \t\t\tmapping(uint256 => Proposal) p...\n      SWAP1 \t\t\tmapping(uint256 => Proposal) p...\n      DUP1 \t\t\tmapping(uint256 => Proposal) p...\n      PUSH 1\t\t\tmapping(uint256 => Proposal) p...\n      ADD \t\t\tmapping(uint256 => Proposal) p...\n      DUP1 \t\t\tmapping(uint256 => Proposal) p...\n      SLOAD \t\t\tmapping(uint256 => Proposal) p...\n      PUSH [tag] 149\t\t\tmapping(uint256 => Proposal) p...\n      SWAP1 \t\t\tmapping(uint256 => Proposal) p...\n      PUSH [tag] 150\t\t\tmapping(uint256 => Proposal) p...\n      JUMP [in]\t\t\tmapping(uint256 => Proposal) p...\n    tag 149\t\t\tmapping(uint256 => Proposal) p...\n      JUMPDEST \t\t\tmapping(uint256 => Proposal) p...\n      DUP1 \t\t\tmapping(uint256 => Proposal) p...\n      PUSH 1F\t\t\tmapping(uint256 => Proposal) p...\n      ADD \t\t\tmapping(uint256 => Proposal) p...\n      PUSH 20\t\t\tmapping(uint256 => Proposal) p...\n      DUP1 \t\t\tmapping(uint256 => Proposal) p...\n      SWAP2 \t\t\tmapping(uint256 => Proposal) p...\n      DIV \t\t\tmapping(uint256 => Proposal) p...\n      MUL \t\t\tmapping(uint256 => Proposal) p...\n      PUSH 20\t\t\tmapping(uint256 => Proposal) p...\n      ADD \t\t\tmapping(uint256 => Proposal) p...\n      PUSH 40\t\t\tmapping(uint256 => Proposal) p...\n      MLOAD \t\t\tmapping(uint256 => Proposal) p...\n      SWAP1 \t\t\tmapping(uint256 => Proposal) p...\n      DUP2 \t\t\tmapping(uint256 => Proposal) p...\n      ADD \t\t\tmapping(uint256 => Proposal) p...\n      PUSH 40\t\t\tmapping(uint256 => Proposal) p...\n      MSTORE \t\t\tmapping(uint256 => Proposal) p...\n      DUP1 \t\t\tmapping(uint256 => Proposal) p...\n      SWAP3 \t\t\tmapping(uint256 => Proposal) p...\n      SWAP2 \t\t\tmapping(uint256 => Proposal) p...\n      SWAP1 \t\t\tmapping(uint256 => Proposal) p...\n      DUP2 \t\t\tmapping(uint256 => Proposal) p...\n      DUP2 \t\t\tmapping(uint256 => Proposal) p...\n      MSTORE \t\t\tmapping(uint256 => Proposal) p...\n      PUSH 20\t\t\tmapping(uint256 => Proposal) p...\n      ADD \t\t\tmapping(uint256 => Proposal) p...\n      DUP3 \t\t\tmapping(uint256 => Proposal) p...\n      DUP1 \t\t\tmapping(uint256 => Proposal) p...\n      SLOAD \t\t\tmapping(uint256 => Proposal) p...\n      PUSH [tag] 151\t\t\tmapping(uint256 => Proposal) p...\n      SWAP1 \t\t\tmapping(uint256 => Proposal) p...\n      PUSH [tag] 150\t\t\tmapping(uint256 => Proposal) p...\n      JUMP [in]\t\t\tmapping(uint256 => Proposal) p...\n    tag 151\t\t\tmapping(uint256 => Proposal) p...\n      JUMPDEST \t\t\tmapping(uint256 => Proposal) p...\n      DUP1 \t\t\tmapping(uint256 => Proposal) p...\n      ISZERO \t\t\tmapping(uint256 => Proposal) p...\n      PUSH [tag] 152\t\t\tmapping(uint256 => Proposal) p...\n      JUMPI \t\t\tmapping(uint256 => Proposal) p...\n      DUP1 \t\t\tmapping(uint256 => Proposal) p...\n      PUSH 1F\t\t\tmapping(uint256 => Proposal) p...\n      LT \t\t\tmapping(uint256 => Proposal) p...\n      PUSH [tag] 153\t\t\tmapping(uint256 => Proposal) p...\n      JUMPI \t\t\tmapping(uint256 => Proposal) p...\n      PUSH 100\t\t\tmapping(uint256 => Proposal) p...\n      DUP1 \t\t\tmapping(uint256 => Proposal) p...\n      DUP4 \t\t\tmapping(uint256 => Proposal) p...\n      SLOAD \t\t\tmapping(uint256 => Proposal) p...\n      DIV \t\t\tmapping(uint256 => Proposal) p...\n      MUL \t\t\tmapping(uint256 => Proposal) p...\n      DUP4 \t\t\tmapping(uint256 => Proposal) p...\n      MSTORE \t\t\tmapping(uint256 => Proposal) p...\n      SWAP2 \t\t\tmapping(uint256 => Proposal) p...\n      PUSH 20\t\t\tmapping(uint256 => Proposal) p...\n      ADD \t\t\tmapping(uint256 => Proposal) p...\n      SWAP2 \t\t\tmapping(uint256 => Proposal) p...\n      PUSH [tag] 152\t\t\tmapping(uint256 => Proposal) p...\n      JUMP \t\t\tmapping(uint256 => Proposal) p...\n    tag 153\t\t\tmapping(uint256 => Proposal) p...\n      JUMPDEST \t\t\tmapping(uint256 => Proposal) p...\n      DUP3 \t\t\tmapping(uint256 => Proposal) p...\n      ADD \t\t\tmapping(uint256 => Proposal) p...\n      SWAP2 \t\t\tmapping(uint256 => Proposal) p...\n      SWAP1 \t\t\tmapping(uint256 => Proposal) p...\n      PUSH 0\t\t\tmapping(uint256 => Proposal) p...\n      MSTORE \t\t\tmapping(uint256 => Proposal) p...\n      PUSH 20\t\t\tmapping(uint256 => Proposal) p...\n      PUSH 0\t\t\tmapping(uint256 => Proposal) p...\n      KECCAK256 \t\t\tmapping(uint256 => Proposal) p...\n      SWAP1 \t\t\tmapping(uint256 => Proposal) p...\n    tag 154\t\t\tmapping(uint256 => Proposal) p...\n      JUMPDEST \t\t\tmapping(uint256 => Proposal) p...\n      DUP2 \t\t\tmapping(uint256 => Proposal) p...\n      SLOAD \t\t\tmapping(uint256 => Proposal) p...\n      DUP2 \t\t\tmapping(uint256 => Proposal) p...\n      MSTORE \t\t\tmapping(uint256 => Proposal) p...\n      SWAP1 \t\t\tmapping(uint256 => Proposal) p...\n      PUSH 1\t\t\tmapping(uint256 => Proposal) p...\n      ADD \t\t\tmapping(uint256 => Proposal) p...\n      SWAP1 \t\t\tmapping(uint256 => Proposal) p...\n      PUSH 20\t\t\tmapping(uint256 => Proposal) p...\n      ADD \t\t\tmapping(uint256 => Proposal) p...\n      DUP1 \t\t\tmapping(uint256 => Proposal) p...\n      DUP4 \t\t\tmapping(uint256 => Proposal) p...\n      GT \t\t\tmapping(uint256 => Proposal) p...\n      PUSH [tag] 154\t\t\tmapping(uint256 => Proposal) p...\n      JUMPI \t\t\tmapping(uint256 => Proposal) p...\n      DUP3 \t\t\tmapping(uint256 => Proposal) p...\n      SWAP1 \t\t\tmapping(uint256 => Proposal) p...\n      SUB \t\t\tmapping(uint256 => Proposal) p...\n      PUSH 1F\t\t\tmapping(uint256 => Proposal) p...\n      AND \t\t\tmapping(uint256 => Proposal) p...\n      DUP3 \t\t\tmapping(uint256 => Proposal) p...\n      ADD \t\t\tmapping(uint256 => Proposal) p...\n      SWAP2 \t\t\tmapping(uint256 => Proposal) p...\n    tag 152\t\t\tmapping(uint256 => Proposal) p...\n      JUMPDEST \t\t\tmapping(uint256 => Proposal) p...\n      POP \t\t\tmapping(uint256 => Proposal) p...\n      POP \t\t\tmapping(uint256 => Proposal) p...\n      POP \t\t\tmapping(uint256 => Proposal) p...\n      POP \t\t\tmapping(uint256 => Proposal) p...\n      POP \t\t\tmapping(uint256 => Proposal) p...\n      SWAP1 \t\t\tmapping(uint256 => Proposal) p...\n      DUP1 \t\t\tmapping(uint256 => Proposal) p...\n      PUSH 2\t\t\tmapping(uint256 => Proposal) p...\n      ADD \t\t\tmapping(uint256 => Proposal) p...\n      DUP1 \t\t\tmapping(uint256 => Proposal) p...\n      SLOAD \t\t\tmapping(uint256 => Proposal) p...\n      PUSH [tag] 155\t\t\tmapping(uint256 => Proposal) p...\n      SWAP1 \t\t\tmapping(uint256 => Proposal) p...\n      PUSH [tag] 150\t\t\tmapping(uint256 => Proposal) p...\n      JUMP [in]\t\t\tmapping(uint256 => Proposal) p...\n    tag 155\t\t\tmapping(uint256 => Proposal) p...\n      JUMPDEST \t\t\tmapping(uint256 => Proposal) p...\n      DUP1 \t\t\tmapping(uint256 => Proposal) p...\n      PUSH 1F\t\t\tmapping(uint256 => Proposal) p...\n      ADD \t\t\tmapping(uint256 => Proposal) p...\n      PUSH 20\t\t\tmapping(uint256 => Proposal) p...\n      DUP1 \t\t\tmapping(uint256 => Proposal) p...\n      SWAP2 \t\t\tmapping(uint256 => Proposal) p...\n      DIV \t\t\tmapping(uint256 => Proposal) p...\n      MUL \t\t\tmapping(uint256 => Proposal) p...\n      PUSH 20\t\t\tmapping(uint256 => Proposal) p...\n      ADD \t\t\tmapping(uint256 => Proposal) p...\n      PUSH 40\t\t\tmapping(uint256 => Proposal) p...\n      MLOAD \t\t\tmapping(uint256 => Proposal) p...\n      SWAP1 \t\t\tmapping(uint256 => Proposal) p...\n      DUP2 \t\t\tmapping(uint256 => Proposal) p...\n      ADD \t\t\tmapping(uint256 => Proposal) p...\n      PUSH 40\t\t\tmapping(uint256 => Proposal) p...\n      MSTORE \t\t\tmapping(uint256 => Proposal) p...\n      DUP1 \t\t\tmapping(uint256 => Proposal) p...\n      SWAP3 \t\t\tmapping(uint256 => Proposal) p...\n      SWAP2 \t\t\tmapping(uint256 => Proposal) p...\n      SWAP1 \t\t\tmapping(uint256 => Proposal) p...\n      DUP2 \t\t\tmapping(uint256 => Proposal) p...\n      DUP2 \t\t\tmapping(uint256 => Proposal) p...\n      MSTORE \t\t\tmapping(uint256 => Proposal) p...\n      PUSH 20\t\t\tmapping(uint256 => Proposal) p...\n      ADD \t\t\tmapping(uint256 => Proposal) p...\n      DUP3 \t\t\tmapping(uint256 => Proposal) p...\n      DUP1 \t\t\tmapping(uint256 => Proposal) p...\n      SLOAD \t\t\tmapping(uint256 => Proposal) p...\n      PUSH [tag] 156\t\t\tmapping(uint256 => Proposal) p...\n      SWAP1 \t\t\tmapping(uint256 => Proposal) p...\n      PUSH [tag] 150\t\t\tmapping(uint256 => Proposal) p...\n      JUMP [in]\t\t\tmapping(uint256 => Proposal) p...\n    tag 156\t\t\tmapping(uint256 => Proposal) p...\n      JUMPDEST \t\t\tmapping(uint256 => Proposal) p...\n      DUP1 \t\t\tmapping(uint256 => Proposal) p...\n      ISZERO \t\t\tmapping(uint256 => Proposal) p...\n      PUSH [tag] 157\t\t\tmapping(uint256 => Proposal) p...\n      JUMPI \t\t\tmapping(uint256 => Proposal) p...\n      DUP1 \t\t\tmapping(uint256 => Proposal) p...\n      PUSH 1F\t\t\tmapping(uint256 => Proposal) p...\n      LT \t\t\tmapping(uint256 => Proposal) p...\n      PUSH [tag] 158\t\t\tmapping(uint256 => Proposal) p...\n      JUMPI \t\t\tmapping(uint256 => Proposal) p...\n      PUSH 100\t\t\tmapping(uint256 => Proposal) p...\n      DUP1 \t\t\tmapping(uint256 => Proposal) p...\n      DUP4 \t\t\tmapping(uint256 => Proposal) p...\n      SLOAD \t\t\tmapping(uint256 => Proposal) p...\n      DIV \t\t\tmapping(uint256 => Proposal) p...\n      MUL \t\t\tmapping(uint256 => Proposal) p...\n      DUP4 \t\t\tmapping(uint256 => Proposal) p...\n      MSTORE \t\t\tmapping(uint256 => Proposal) p...\n      SWAP2 \t\t\tmapping(uint256 => Proposal) p...\n      PUSH 20\t\t\tmapping(uint256 => Proposal) p...\n      ADD \t\t\tmapping(uint256 => Proposal) p...\n      SWAP2 \t\t\tmapping(uint256 => Proposal) p...\n      PUSH [tag] 157\t\t\tmapping(uint256 => Proposal) p...\n      JUMP \t\t\tmapping(uint256 => Proposal) p...\n    tag 158\t\t\tmapping(uint256 => Proposal) p...\n      JUMPDEST \t\t\tmapping(uint256 => Proposal) p...\n      DUP3 \t\t\tmapping(uint256 => Proposal) p...\n      ADD \t\t\tmapping(uint256 => Proposal) p...\n      SWAP2 \t\t\tmapping(uint256 => Proposal) p...\n      SWAP1 \t\t\tmapping(uint256 => Proposal) p...\n      PUSH 0\t\t\tmapping(uint256 => Proposal) p...\n      MSTORE \t\t\tmapping(uint256 => Proposal) p...\n      PUSH 20\t\t\tmapping(uint256 => Proposal) p...\n      PUSH 0\t\t\tmapping(uint256 => Proposal) p...\n      KECCAK256 \t\t\tmapping(uint256 => Proposal) p...\n      SWAP1 \t\t\tmapping(uint256 => Proposal) p...\n    tag 159\t\t\tmapping(uint256 => Proposal) p...\n      JUMPDEST \t\t\tmapping(uint256 => Proposal) p...\n      DUP2 \t\t\tmapping(uint256 => Proposal) p...\n      SLOAD \t\t\tmapping(uint256 => Proposal) p...\n      DUP2 \t\t\tmapping(uint256 => Proposal) p...\n      MSTORE \t\t\tmapping(uint256 => Proposal) p...\n      SWAP1 \t\t\tmapping(uint256 => Proposal) p...\n      PUSH 1\t\t\tmapping(uint256 => Proposal) p...\n      ADD \t\t\tmapping(uint256 => Proposal) p...\n      SWAP1 \t\t\tmapping(uint256 => Proposal) p...\n      PUSH 20\t\t\tmapping(uint256 => Proposal) p...\n      ADD \t\t\tmapping(uint256 => Proposal) p...\n      DUP1 \t\t\tmapping(uint256 => Proposal) p...\n      DUP4 \t\t\tmapping(uint256 => Proposal) p...\n      GT \t\t\tmapping(uint256 => Proposal) p...\n      PUSH [tag] 159\t\t\tmapping(uint256 => Proposal) p...\n      JUMPI \t\t\tmapping(uint256 => Proposal) p...\n      DUP3 \t\t\tmapping(uint256 => Proposal) p...\n      SWAP1 \t\t\tmapping(uint256 => Proposal) p...\n      SUB \t\t\tmapping(uint256 => Proposal) p...\n      PUSH 1F\t\t\tmapping(uint256 => Proposal) p...\n      AND \t\t\tmapping(uint256 => Proposal) p...\n      DUP3 \t\t\tmapping(uint256 => Proposal) p...\n      ADD \t\t\tmapping(uint256 => Proposal) p...\n      SWAP2 \t\t\tmapping(uint256 => Proposal) p...\n    tag 157\t\t\tmapping(uint256 => Proposal) p...\n      JUMPDEST \t\t\tmapping(uint256 => Proposal) p...\n      POP \t\t\tmapping(uint256 => Proposal) p...\n      POP \t\t\tmapping(uint256 => Proposal) p...\n      POP \t\t\tmapping(uint256 => Proposal) p...\n      POP \t\t\tmapping(uint256 => Proposal) p...\n      POP \t\t\tmapping(uint256 => Proposal) p...\n      SWAP1 \t\t\tmapping(uint256 => Proposal) p...\n      DUP1 \t\t\tmapping(uint256 => Proposal) p...\n      PUSH 3\t\t\tmapping(uint256 => Proposal) p...\n      ADD \t\t\tmapping(uint256 => Proposal) p...\n      DUP1 \t\t\tmapping(uint256 => Proposal) p...\n      SLOAD \t\t\tmapping(uint256 => Proposal) p...\n      PUSH [tag] 160\t\t\tmapping(uint256 => Proposal) p...\n      SWAP1 \t\t\tmapping(uint256 => Proposal) p...\n      PUSH [tag] 150\t\t\tmapping(uint256 => Proposal) p...\n      JUMP [in]\t\t\tmapping(uint256 => Proposal) p...\n    tag 160\t\t\tmapping(uint256 => Proposal) p...\n      JUMPDEST \t\t\tmapping(uint256 => Proposal) p...\n      DUP1 \t\t\tmapping(uint256 => Proposal) p...\n      PUSH 1F\t\t\tmapping(uint256 => Proposal) p...\n      ADD \t\t\tmapping(uint256 => Proposal) p...\n      PUSH 20\t\t\tmapping(uint256 => Proposal) p...\n      DUP1 \t\t\tmapping(uint256 => Proposal) p...\n      SWAP2 \t\t\tmapping(uint256 => Proposal) p...\n      DIV \t\t\tmapping(uint256 => Proposal) p...\n      MUL \t\t\tmapping(uint256 => Proposal) p...\n      PUSH 20\t\t\tmapping(uint256 => Proposal) p...\n      ADD \t\t\tmapping(uint256 => Proposal) p...\n      PUSH 40\t\t\tmapping(uint256 => Proposal) p...\n      MLOAD \t\t\tmapping(uint256 => Proposal) p...\n      SWAP1 \t\t\tmapping(uint256 => Proposal) p...\n      DUP2 \t\t\tmapping(uint256 => Proposal) p...\n      ADD \t\t\tmapping(uint256 => Proposal) p...\n      PUSH 40\t\t\tmapping(uint256 => Proposal) p...\n      MSTORE \t\t\tmapping(uint256 => Proposal) p...\n      DUP1 \t\t\tmapping(uint256 => Proposal) p...\n      SWAP3 \t\t\tmapping(uint256 => Proposal) p...\n      SWAP2 \t\t\tmapping(uint256 => Proposal) p...\n      SWAP1 \t\t\tmapping(uint256 => Proposal) p...\n      DUP2 \t\t\tmapping(uint256 => Proposal) p...\n      DUP2 \t\t\tmapping(uint256 => Proposal) p...\n      MSTORE \t\t\tmapping(uint256 => Proposal) p...\n      PUSH 20\t\t\tmapping(uint256 => Proposal) p...\n      ADD \t\t\tmapping(uint256 => Proposal) p...\n      DUP3 \t\t\tmapping(uint256 => Proposal) p...\n      DUP1 \t\t\tmapping(uint256 => Proposal) p...\n      SLOAD \t\t\tmapping(uint256 => Proposal) p...\n      PUSH [tag] 161\t\t\tmapping(uint256 => Proposal) p...\n      SWAP1 \t\t\tmapping(uint256 => Proposal) p...\n      PUSH [tag] 150\t\t\tmapping(uint256 => Proposal) p...\n      JUMP [in]\t\t\tmapping(uint256 => Proposal) p...\n    tag 161\t\t\tmapping(uint256 => Proposal) p...\n      JUMPDEST \t\t\tmapping(uint256 => Proposal) p...\n      DUP1 \t\t\tmapping(uint256 => Proposal) p...\n      ISZERO \t\t\tmapping(uint256 => Proposal) p...\n      PUSH [tag] 162\t\t\tmapping(uint256 => Proposal) p...\n      JUMPI \t\t\tmapping(uint256 => Proposal) p...\n      DUP1 \t\t\tmapping(uint256 => Proposal) p...\n      PUSH 1F\t\t\tmapping(uint256 => Proposal) p...\n      LT \t\t\tmapping(uint256 => Proposal) p...\n      PUSH [tag] 163\t\t\tmapping(uint256 => Proposal) p...\n      JUMPI \t\t\tmapping(uint256 => Proposal) p...\n      PUSH 100\t\t\tmapping(uint256 => Proposal) p...\n      DUP1 \t\t\tmapping(uint256 => Proposal) p...\n      DUP4 \t\t\tmapping(uint256 => Proposal) p...\n      SLOAD \t\t\tmapping(uint256 => Proposal) p...\n      DIV \t\t\tmapping(uint256 => Proposal) p...\n      MUL \t\t\tmapping(uint256 => Proposal) p...\n      DUP4 \t\t\tmapping(uint256 => Proposal) p...\n      MSTORE \t\t\tmapping(uint256 => Proposal) p...\n      SWAP2 \t\t\tmapping(uint256 => Proposal) p...\n      PUSH 20\t\t\tmapping(uint256 => Proposal) p...\n      ADD \t\t\tmapping(uint256 => Proposal) p...\n      SWAP2 \t\t\tmapping(uint256 => Proposal) p...\n      PUSH [tag] 162\t\t\tmapping(uint256 => Proposal) p...\n      JUMP \t\t\tmapping(uint256 => Proposal) p...\n    tag 163\t\t\tmapping(uint256 => Proposal) p...\n      JUMPDEST \t\t\tmapping(uint256 => Proposal) p...\n      DUP3 \t\t\tmapping(uint256 => Proposal) p...\n      ADD \t\t\tmapping(uint256 => Proposal) p...\n      SWAP2 \t\t\tmapping(uint256 => Proposal) p...\n      SWAP1 \t\t\tmapping(uint256 => Proposal) p...\n      PUSH 0\t\t\tmapping(uint256 => Proposal) p...\n      MSTORE \t\t\tmapping(uint256 => Proposal) p...\n      PUSH 20\t\t\tmapping(uint256 => Proposal) p...\n      PUSH 0\t\t\tmapping(uint256 => Proposal) p...\n      KECCAK256 \t\t\tmapping(uint256 => Proposal) p...\n      SWAP1 \t\t\tmapping(uint256 => Proposal) p...\n    tag 164\t\t\tmapping(uint256 => Proposal) p...\n      JUMPDEST \t\t\tmapping(uint256 => Proposal) p...\n      DUP2 \t\t\tmapping(uint256 => Proposal) p...\n      SLOAD \t\t\tmapping(uint256 => Proposal) p...\n      DUP2 \t\t\tmapping(uint256 => Proposal) p...\n      MSTORE \t\t\tmapping(uint256 => Proposal) p...\n      SWAP1 \t\t\tmapping(uint256 => Proposal) p...\n      PUSH 1\t\t\tmapping(uint256 => Proposal) p...\n      ADD \t\t\tmapping(uint256 => Proposal) p...\n      SWAP1 \t\t\tmapping(uint256 => Proposal) p...\n      PUSH 20\t\t\tmapping(uint256 => Proposal) p...\n      ADD \t\t\tmapping(uint256 => Proposal) p...\n      DUP1 \t\t\tmapping(uint256 => Proposal) p...\n      DUP4 \t\t\tmapping(uint256 => Proposal) p...\n      GT \t\t\tmapping(uint256 => Proposal) p...\n      PUSH [tag] 164\t\t\tmapping(uint256 => Proposal) p...\n      JUMPI \t\t\tmapping(uint256 => Proposal) p...\n      DUP3 \t\t\tmapping(uint256 => Proposal) p...\n      SWAP1 \t\t\tmapping(uint256 => Proposal) p...\n      SUB \t\t\tmapping(uint256 => Proposal) p...\n      PUSH 1F\t\t\tmapping(uint256 => Proposal) p...\n      AND \t\t\tmapping(uint256 => Proposal) p...\n      DUP3 \t\t\tmapping(uint256 => Proposal) p...\n      ADD \t\t\tmapping(uint256 => Proposal) p...\n      SWAP2 \t\t\tmapping(uint256 => Proposal) p...\n    tag 162\t\t\tmapping(uint256 => Proposal) p...\n      JUMPDEST \t\t\tmapping(uint256 => Proposal) p...\n      POP \t\t\tmapping(uint256 => Proposal) p...\n      POP \t\t\tmapping(uint256 => Proposal) p...\n      POP \t\t\tmapping(uint256 => Proposal) p...\n      POP \t\t\tmapping(uint256 => Proposal) p...\n      POP \t\t\tmapping(uint256 => Proposal) p...\n      SWAP1 \t\t\tmapping(uint256 => Proposal) p...\n      DUP1 \t\t\tmapping(uint256 => Proposal) p...\n      PUSH 4\t\t\tmapping(uint256 => Proposal) p...\n      ADD \t\t\tmapping(uint256 => Proposal) p...\n      PUSH 0\t\t\tmapping(uint256 => Proposal) p...\n      SWAP1 \t\t\tmapping(uint256 => Proposal) p...\n      SLOAD \t\t\tmapping(uint256 => Proposal) p...\n      SWAP1 \t\t\tmapping(uint256 => Proposal) p...\n      PUSH 100\t\t\tmapping(uint256 => Proposal) p...\n      EXP \t\t\tmapping(uint256 => Proposal) p...\n      SWAP1 \t\t\tmapping(uint256 => Proposal) p...\n      DIV \t\t\tmapping(uint256 => Proposal) p...\n      PUSH FFFFFFFFFFFFFFFFFFFFFFFFFFFFFFFFFFFFFFFF\t\t\tmapping(uint256 => Proposal) p...\n      AND \t\t\tmapping(uint256 => Proposal) p...\n      SWAP1 \t\t\tmapping(uint256 => Proposal) p...\n      DUP1 \t\t\tmapping(uint256 => Proposal) p...\n      PUSH 5\t\t\tmapping(uint256 => Proposal) p...\n      ADD \t\t\tmapping(uint256 => Proposal) p...\n      SLOAD \t\t\tmapping(uint256 => Proposal) p...\n      SWAP1 \t\t\tmapping(uint256 => Proposal) p...\n      DUP1 \t\t\tmapping(uint256 => Proposal) p...\n      PUSH 6\t\t\tmapping(uint256 => Proposal) p...\n      ADD \t\t\tmapping(uint256 => Proposal) p...\n      SLOAD \t\t\tmapping(uint256 => Proposal) p...\n      SWAP1 \t\t\tmapping(uint256 => Proposal) p...\n      DUP1 \t\t\tmapping(uint256 => Proposal) p...\n      PUSH 7\t\t\tmapping(uint256 => Proposal) p...\n      ADD \t\t\tmapping(uint256 => Proposal) p...\n      SLOAD \t\t\tmapping(uint256 => Proposal) p...\n      SWAP1 \t\t\tmapping(uint256 => Proposal) p...\n      DUP1 \t\t\tmapping(uint256 => Proposal) p...\n      PUSH 8\t\t\tmapping(uint256 => Proposal) p...\n      ADD \t\t\tmapping(uint256 => Proposal) p...\n      SLOAD \t\t\tmapping(uint256 => Proposal) p...\n      SWAP1 \t\t\tmapping(uint256 => Proposal) p...\n      DUP1 \t\t\tmapping(uint256 => Proposal) p...\n      PUSH 9\t\t\tmapping(uint256 => Proposal) p...\n      ADD \t\t\tmapping(uint256 => Proposal) p...\n      SLOAD \t\t\tmapping(uint256 => Proposal) p...\n      SWAP1 \t\t\tmapping(uint256 => Proposal) p...\n      DUP1 \t\t\tmapping(uint256 => Proposal) p...\n      PUSH A\t\t\tmapping(uint256 => Proposal) p...\n      ADD \t\t\tmapping(uint256 => Proposal) p...\n      DUP1 \t\t\tmapping(uint256 => Proposal) p...\n      SLOAD \t\t\tmapping(uint256 => Proposal) p...\n      PUSH [tag] 165\t\t\tmapping(uint256 => Proposal) p...\n      SWAP1 \t\t\tmapping(uint256 => Proposal) p...\n      PUSH [tag] 150\t\t\tmapping(uint256 => Proposal) p...\n      JUMP [in]\t\t\tmapping(uint256 => Proposal) p...\n    tag 165\t\t\tmapping(uint256 => Proposal) p...\n      JUMPDEST \t\t\tmapping(uint256 => Proposal) p...\n      DUP1 \t\t\tmapping(uint256 => Proposal) p...\n      PUSH 1F\t\t\tmapping(uint256 => Proposal) p...\n      ADD \t\t\tmapping(uint256 => Proposal) p...\n      PUSH 20\t\t\tmapping(uint256 => Proposal) p...\n      DUP1 \t\t\tmapping(uint256 => Proposal) p...\n      SWAP2 \t\t\tmapping(uint256 => Proposal) p...\n      DIV \t\t\tmapping(uint256 => Proposal) p...\n      MUL \t\t\tmapping(uint256 => Proposal) p...\n      PUSH 20\t\t\tmapping(uint256 => Proposal) p...\n      ADD \t\t\tmapping(uint256 => Proposal) p...\n      PUSH 40\t\t\tmapping(uint256 => Proposal) p...\n      MLOAD \t\t\tmapping(uint256 => Proposal) p...\n      SWAP1 \t\t\tmapping(uint256 => Proposal) p...\n      DUP2 \t\t\tmapping(uint256 => Proposal) p...\n      ADD \t\t\tmapping(uint256 => Proposal) p...\n      PUSH 40\t\t\tmapping(uint256 => Proposal) p...\n      MSTORE \t\t\tmapping(uint256 => Proposal) p...\n      DUP1 \t\t\tmapping(uint256 => Proposal) p...\n      SWAP3 \t\t\tmapping(uint256 => Proposal) p...\n      SWAP2 \t\t\tmapping(uint256 => Proposal) p...\n      SWAP1 \t\t\tmapping(uint256 => Proposal) p...\n      DUP2 \t\t\tmapping(uint256 => Proposal) p...\n      DUP2 \t\t\tmapping(uint256 => Proposal) p...\n      MSTORE \t\t\tmapping(uint256 => Proposal) p...\n      PUSH 20\t\t\tmapping(uint256 => Proposal) p...\n      ADD \t\t\tmapping(uint256 => Proposal) p...\n      DUP3 \t\t\tmapping(uint256 => Proposal) p...\n      DUP1 \t\t\tmapping(uint256 => Proposal) p...\n      SLOAD \t\t\tmapping(uint256 => Proposal) p...\n      PUSH [tag] 166\t\t\tmapping(uint256 => Proposal) p...\n      SWAP1 \t\t\tmapping(uint256 => Proposal) p...\n      PUSH [tag] 150\t\t\tmapping(uint256 => Proposal) p...\n      JUMP [in]\t\t\tmapping(uint256 => Proposal) p...\n    tag 166\t\t\tmapping(uint256 => Proposal) p...\n      JUMPDEST \t\t\tmapping(uint256 => Proposal) p...\n      DUP1 \t\t\tmapping(uint256 => Proposal) p...\n      ISZERO \t\t\tmapping(uint256 => Proposal) p...\n      PUSH [tag] 167\t\t\tmapping(uint256 => Proposal) p...\n      JUMPI \t\t\tmapping(uint256 => Proposal) p...\n      DUP1 \t\t\tmapping(uint256 => Proposal) p...\n      PUSH 1F\t\t\tmapping(uint256 => Proposal) p...\n      LT \t\t\tmapping(uint256 => Proposal) p...\n      PUSH [tag] 168\t\t\tmapping(uint256 => Proposal) p...\n      JUMPI \t\t\tmapping(uint256 => Proposal) p...\n      PUSH 100\t\t\tmapping(uint256 => Proposal) p...\n      DUP1 \t\t\tmapping(uint256 => Proposal) p...\n      DUP4 \t\t\tmapping(uint256 => Proposal) p...\n      SLOAD \t\t\tmapping(uint256 => Proposal) p...\n      DIV \t\t\tmapping(uint256 => Proposal) p...\n      MUL \t\t\tmapping(uint256 => Proposal) p...\n      DUP4 \t\t\tmapping(uint256 => Proposal) p...\n      MSTORE \t\t\tmapping(uint256 => Proposal) p...\n      SWAP2 \t\t\tmapping(uint256 => Proposal) p...\n      PUSH 20\t\t\tmapping(uint256 => Proposal) p...\n      ADD \t\t\tmapping(uint256 => Proposal) p...\n      SWAP2 \t\t\tmapping(uint256 => Proposal) p...\n      PUSH [tag] 167\t\t\tmapping(uint256 => Proposal) p...\n      JUMP \t\t\tmapping(uint256 => Proposal) p...\n    tag 168\t\t\tmapping(uint256 => Proposal) p...\n      JUMPDEST \t\t\tmapping(uint256 => Proposal) p...\n      DUP3 \t\t\tmapping(uint256 => Proposal) p...\n      ADD \t\t\tmapping(uint256 => Proposal) p...\n      SWAP2 \t\t\tmapping(uint256 => Proposal) p...\n      SWAP1 \t\t\tmapping(uint256 => Proposal) p...\n      PUSH 0\t\t\tmapping(uint256 => Proposal) p...\n      MSTORE \t\t\tmapping(uint256 => Proposal) p...\n      PUSH 20\t\t\tmapping(uint256 => Proposal) p...\n      PUSH 0\t\t\tmapping(uint256 => Proposal) p...\n      KECCAK256 \t\t\tmapping(uint256 => Proposal) p...\n      SWAP1 \t\t\tmapping(uint256 => Proposal) p...\n    tag 169\t\t\tmapping(uint256 => Proposal) p...\n      JUMPDEST \t\t\tmapping(uint256 => Proposal) p...\n      DUP2 \t\t\tmapping(uint256 => Proposal) p...\n      SLOAD \t\t\tmapping(uint256 => Proposal) p...\n      DUP2 \t\t\tmapping(uint256 => Proposal) p...\n      MSTORE \t\t\tmapping(uint256 => Proposal) p...\n      SWAP1 \t\t\tmapping(uint256 => Proposal) p...\n      PUSH 1\t\t\tmapping(uint256 => Proposal) p...\n      ADD \t\t\tmapping(uint256 => Proposal) p...\n      SWAP1 \t\t\tmapping(uint256 => Proposal) p...\n      PUSH 20\t\t\tmapping(uint256 => Proposal) p...\n      ADD \t\t\tmapping(uint256 => Proposal) p...\n      DUP1 \t\t\tmapping(uint256 => Proposal) p...\n      DUP4 \t\t\tmapping(uint256 => Proposal) p...\n      GT \t\t\tmapping(uint256 => Proposal) p...\n      PUSH [tag] 169\t\t\tmapping(uint256 => Proposal) p...\n      JUMPI \t\t\tmapping(uint256 => Proposal) p...\n      DUP3 \t\t\tmapping(uint256 => Proposal) p...\n      SWAP1 \t\t\tmapping(uint256 => Proposal) p...\n      SUB \t\t\tmapping(uint256 => Proposal) p...\n      PUSH 1F\t\t\tmapping(uint256 => Proposal) p...\n      AND \t\t\tmapping(uint256 => Proposal) p...\n      DUP3 \t\t\tmapping(uint256 => Proposal) p...\n      ADD \t\t\tmapping(uint256 => Proposal) p...\n      SWAP2 \t\t\tmapping(uint256 => Proposal) p...\n    tag 167\t\t\tmapping(uint256 => Proposal) p...\n      JUMPDEST \t\t\tmapping(uint256 => Proposal) p...\n      POP \t\t\tmapping(uint256 => Proposal) p...\n      POP \t\t\tmapping(uint256 => Proposal) p...\n      POP \t\t\tmapping(uint256 => Proposal) p...\n      POP \t\t\tmapping(uint256 => Proposal) p...\n      POP \t\t\tmapping(uint256 => Proposal) p...\n      SWAP1 \t\t\tmapping(uint256 => Proposal) p...\n      DUP1 \t\t\tmapping(uint256 => Proposal) p...\n      PUSH B\t\t\tmapping(uint256 => Proposal) p...\n      ADD \t\t\tmapping(uint256 => Proposal) p...\n      PUSH 0\t\t\tmapping(uint256 => Proposal) p...\n      SWAP1 \t\t\tmapping(uint256 => Proposal) p...\n      SLOAD \t\t\tmapping(uint256 => Proposal) p...\n      SWAP1 \t\t\tmapping(uint256 => Proposal) p...\n      PUSH 100\t\t\tmapping(uint256 => Proposal) p...\n      EXP \t\t\tmapping(uint256 => Proposal) p...\n      SWAP1 \t\t\tmapping(uint256 => Proposal) p...\n      DIV \t\t\tmapping(uint256 => Proposal) p...\n      PUSH FF\t\t\tmapping(uint256 => Proposal) p...\n      AND \t\t\tmapping(uint256 => Proposal) p...\n      SWAP1 \t\t\tmapping(uint256 => Proposal) p...\n      POP \t\t\tmapping(uint256 => Proposal) p...\n      DUP13 \t\t\tmapping(uint256 => Proposal) p...\n      JUMP [out]\t\t\tmapping(uint256 => Proposal) p...\n    tag 40\t\t\tfunction downvoteProposal(uint...\n      JUMPDEST \t\t\tfunction downvoteProposal(uint...\n      PUSH 1\t\t\tsamhita\n      PUSH 0\t\t\tsamhita\n      SWAP1 \t\t\tsamhita\n      SLOAD \t\t\tsamhita\n      SWAP1 \t\t\tsamhita\n      PUSH 100\t\t\tsamhita\n      EXP \t\t\tsamhita\n      SWAP1 \t\t\tsamhita\n      DIV \t\t\tsamhita\n      PUSH FFFFFFFFFFFFFFFFFFFFFFFFFFFFFFFFFFFFFFFF\t\t\tsamhita\n      AND \t\t\tsamhita\n      PUSH FFFFFFFFFFFFFFFFFFFFFFFFFFFFFFFFFFFFFFFF\t\t\tsamhita.checkIsMemberAdded\n      AND \t\t\tsamhita.checkIsMemberAdded\n      PUSH 93538631\t\t\tsamhita.checkIsMemberAdded\n      CALLER \t\t\tmsg.sender\n      PUSH 40\t\t\tsamhita.checkIsMemberAdded(msg...\n      MLOAD \t\t\tsamhita.checkIsMemberAdded(msg...\n      DUP3 \t\t\tsamhita.checkIsMemberAdded(msg...\n      PUSH FFFFFFFF\t\t\tsamhita.checkIsMemberAdded(msg...\n      AND \t\t\tsamhita.checkIsMemberAdded(msg...\n      PUSH E0\t\t\tsamhita.checkIsMemberAdded(msg...\n      SHL \t\t\tsamhita.checkIsMemberAdded(msg...\n      DUP2 \t\t\tsamhita.checkIsMemberAdded(msg...\n      MSTORE \t\t\tsamhita.checkIsMemberAdded(msg...\n      PUSH 4\t\t\tsamhita.checkIsMemberAdded(msg...\n      ADD \t\t\tsamhita.checkIsMemberAdded(msg...\n      PUSH [tag] 171\t\t\tsamhita.checkIsMemberAdded(msg...\n      SWAP2 \t\t\tsamhita.checkIsMemberAdded(msg...\n      SWAP1 \t\t\tsamhita.checkIsMemberAdded(msg...\n      PUSH [tag] 50\t\t\tsamhita.checkIsMemberAdded(msg...\n      JUMP [in]\t\t\tsamhita.checkIsMemberAdded(msg...\n    tag 171\t\t\tsamhita.checkIsMemberAdded(msg...\n      JUMPDEST \t\t\tsamhita.checkIsMemberAdded(msg...\n      PUSH 20\t\t\tsamhita.checkIsMemberAdded(msg...\n      PUSH 40\t\t\tsamhita.checkIsMemberAdded(msg...\n      MLOAD \t\t\tsamhita.checkIsMemberAdded(msg...\n      DUP1 \t\t\tsamhita.checkIsMemberAdded(msg...\n      DUP4 \t\t\tsamhita.checkIsMemberAdded(msg...\n      SUB \t\t\tsamhita.checkIsMemberAdded(msg...\n      DUP2 \t\t\tsamhita.checkIsMemberAdded(msg...\n      DUP7 \t\t\tsamhita.checkIsMemberAdded(msg...\n      DUP1 \t\t\tsamhita.checkIsMemberAdded(msg...\n      EXTCODESIZE \t\t\tsamhita.checkIsMemberAdded(msg...\n      ISZERO \t\t\tsamhita.checkIsMemberAdded(msg...\n      DUP1 \t\t\tsamhita.checkIsMemberAdded(msg...\n      ISZERO \t\t\tsamhita.checkIsMemberAdded(msg...\n      PUSH [tag] 172\t\t\tsamhita.checkIsMemberAdded(msg...\n      JUMPI \t\t\tsamhita.checkIsMemberAdded(msg...\n      PUSH 0\t\t\tsamhita.checkIsMemberAdded(msg...\n      DUP1 \t\t\tsamhita.checkIsMemberAdded(msg...\n      REVERT \t\t\tsamhita.checkIsMemberAdded(msg...\n    tag 172\t\t\tsamhita.checkIsMemberAdded(msg...\n      JUMPDEST \t\t\tsamhita.checkIsMemberAdded(msg...\n      POP \t\t\tsamhita.checkIsMemberAdded(msg...\n      GAS \t\t\tsamhita.checkIsMemberAdded(msg...\n      STATICCALL \t\t\tsamhita.checkIsMemberAdded(msg...\n      ISZERO \t\t\tsamhita.checkIsMemberAdded(msg...\n      DUP1 \t\t\tsamhita.checkIsMemberAdded(msg...\n      ISZERO \t\t\tsamhita.checkIsMemberAdded(msg...\n      PUSH [tag] 174\t\t\tsamhita.checkIsMemberAdded(msg...\n      JUMPI \t\t\tsamhita.checkIsMemberAdded(msg...\n      RETURNDATASIZE \t\t\tsamhita.checkIsMemberAdded(msg...\n      PUSH 0\t\t\tsamhita.checkIsMemberAdded(msg...\n      DUP1 \t\t\tsamhita.checkIsMemberAdded(msg...\n      RETURNDATACOPY \t\t\tsamhita.checkIsMemberAdded(msg...\n      RETURNDATASIZE \t\t\tsamhita.checkIsMemberAdded(msg...\n      PUSH 0\t\t\tsamhita.checkIsMemberAdded(msg...\n      REVERT \t\t\tsamhita.checkIsMemberAdded(msg...\n    tag 174\t\t\tsamhita.checkIsMemberAdded(msg...\n      JUMPDEST \t\t\tsamhita.checkIsMemberAdded(msg...\n      POP \t\t\tsamhita.checkIsMemberAdded(msg...\n      POP \t\t\tsamhita.checkIsMemberAdded(msg...\n      POP \t\t\tsamhita.checkIsMemberAdded(msg...\n      POP \t\t\tsamhita.checkIsMemberAdded(msg...\n      PUSH 40\t\t\tsamhita.checkIsMemberAdded(msg...\n      MLOAD \t\t\tsamhita.checkIsMemberAdded(msg...\n      RETURNDATASIZE \t\t\tsamhita.checkIsMemberAdded(msg...\n      PUSH 1F\t\t\tsamhita.checkIsMemberAdded(msg...\n      NOT \t\t\tsamhita.checkIsMemberAdded(msg...\n      PUSH 1F\t\t\tsamhita.checkIsMemberAdded(msg...\n      DUP3 \t\t\tsamhita.checkIsMemberAdded(msg...\n      ADD \t\t\tsamhita.checkIsMemberAdded(msg...\n      AND \t\t\tsamhita.checkIsMemberAdded(msg...\n      DUP3 \t\t\tsamhita.checkIsMemberAdded(msg...\n      ADD \t\t\tsamhita.checkIsMemberAdded(msg...\n      DUP1 \t\t\tsamhita.checkIsMemberAdded(msg...\n      PUSH 40\t\t\tsamhita.checkIsMemberAdded(msg...\n      MSTORE \t\t\tsamhita.checkIsMemberAdded(msg...\n      POP \t\t\tsamhita.checkIsMemberAdded(msg...\n      DUP2 \t\t\tsamhita.checkIsMemberAdded(msg...\n      ADD \t\t\tsamhita.checkIsMemberAdded(msg...\n      SWAP1 \t\t\tsamhita.checkIsMemberAdded(msg...\n      PUSH [tag] 175\t\t\tsamhita.checkIsMemberAdded(msg...\n      SWAP2 \t\t\tsamhita.checkIsMemberAdded(msg...\n      SWAP1 \t\t\tsamhita.checkIsMemberAdded(msg...\n      PUSH [tag] 176\t\t\tsamhita.checkIsMemberAdded(msg...\n      JUMP [in]\t\t\tsamhita.checkIsMemberAdded(msg...\n    tag 175\t\t\tsamhita.checkIsMemberAdded(msg...\n      JUMPDEST \t\t\tsamhita.checkIsMemberAdded(msg...\n      PUSH [tag] 177\t\t\trequire(samhita.checkIsMemberA...\n      JUMPI \t\t\trequire(samhita.checkIsMemberA...\n      PUSH 40\t\t\trequire(samhita.checkIsMemberA...\n      MLOAD \t\t\trequire(samhita.checkIsMemberA...\n      PUSH 8C379A000000000000000000000000000000000000000000000000000000000\t\t\trequire(samhita.checkIsMemberA...\n      DUP2 \t\t\trequire(samhita.checkIsMemberA...\n      MSTORE \t\t\trequire(samhita.checkIsMemberA...\n      PUSH 4\t\t\trequire(samhita.checkIsMemberA...\n      ADD \t\t\trequire(samhita.checkIsMemberA...\n      PUSH [tag] 178\t\t\trequire(samhita.checkIsMemberA...\n      SWAP1 \t\t\trequire(samhita.checkIsMemberA...\n      PUSH [tag] 179\t\t\trequire(samhita.checkIsMemberA...\n      JUMP [in]\t\t\trequire(samhita.checkIsMemberA...\n    tag 178\t\t\trequire(samhita.checkIsMemberA...\n      JUMPDEST \t\t\trequire(samhita.checkIsMemberA...\n      PUSH 40\t\t\trequire(samhita.checkIsMemberA...\n      MLOAD \t\t\trequire(samhita.checkIsMemberA...\n      DUP1 \t\t\trequire(samhita.checkIsMemberA...\n      SWAP2 \t\t\trequire(samhita.checkIsMemberA...\n      SUB \t\t\trequire(samhita.checkIsMemberA...\n      SWAP1 \t\t\trequire(samhita.checkIsMemberA...\n      REVERT \t\t\trequire(samhita.checkIsMemberA...\n    tag 177\t\t\trequire(samhita.checkIsMemberA...\n      JUMPDEST \t\t\trequire(samhita.checkIsMemberA...\n      PUSH B\t\t\tisMemberAdded\n      PUSH 0\t\t\tisMemberAdded[msg.sender]\n      CALLER \t\t\tmsg.sender\n      PUSH FFFFFFFFFFFFFFFFFFFFFFFFFFFFFFFFFFFFFFFF\t\t\tisMemberAdded[msg.sender]\n      AND \t\t\tisMemberAdded[msg.sender]\n      PUSH FFFFFFFFFFFFFFFFFFFFFFFFFFFFFFFFFFFFFFFF\t\t\tisMemberAdded[msg.sender]\n      AND \t\t\tisMemberAdded[msg.sender]\n      DUP2 \t\t\tisMemberAdded[msg.sender]\n      MSTORE \t\t\tisMemberAdded[msg.sender]\n      PUSH 20\t\t\tisMemberAdded[msg.sender]\n      ADD \t\t\tisMemberAdded[msg.sender]\n      SWAP1 \t\t\tisMemberAdded[msg.sender]\n      DUP2 \t\t\tisMemberAdded[msg.sender]\n      MSTORE \t\t\tisMemberAdded[msg.sender]\n      PUSH 20\t\t\tisMemberAdded[msg.sender]\n      ADD \t\t\tisMemberAdded[msg.sender]\n      PUSH 0\t\t\tisMemberAdded[msg.sender]\n      KECCAK256 \t\t\tisMemberAdded[msg.sender]\n      PUSH 0\t\t\tisMemberAdded[msg.sender]\n      SWAP1 \t\t\tisMemberAdded[msg.sender]\n      SLOAD \t\t\tisMemberAdded[msg.sender]\n      SWAP1 \t\t\tisMemberAdded[msg.sender]\n      PUSH 100\t\t\tisMemberAdded[msg.sender]\n      EXP \t\t\tisMemberAdded[msg.sender]\n      SWAP1 \t\t\tisMemberAdded[msg.sender]\n      DIV \t\t\tisMemberAdded[msg.sender]\n      PUSH FF\t\t\tisMemberAdded[msg.sender]\n      AND \t\t\tisMemberAdded[msg.sender]\n      PUSH [tag] 180\t\t\trequire(isMemberAdded[msg.send...\n      JUMPI \t\t\trequire(isMemberAdded[msg.send...\n      PUSH 40\t\t\trequire(isMemberAdded[msg.send...\n      MLOAD \t\t\trequire(isMemberAdded[msg.send...\n      PUSH 8C379A000000000000000000000000000000000000000000000000000000000\t\t\trequire(isMemberAdded[msg.send...\n      DUP2 \t\t\trequire(isMemberAdded[msg.send...\n      MSTORE \t\t\trequire(isMemberAdded[msg.send...\n      PUSH 4\t\t\trequire(isMemberAdded[msg.send...\n      ADD \t\t\trequire(isMemberAdded[msg.send...\n      PUSH [tag] 181\t\t\trequire(isMemberAdded[msg.send...\n      SWAP1 \t\t\trequire(isMemberAdded[msg.send...\n      PUSH [tag] 182\t\t\trequire(isMemberAdded[msg.send...\n      JUMP [in]\t\t\trequire(isMemberAdded[msg.send...\n    tag 181\t\t\trequire(isMemberAdded[msg.send...\n      JUMPDEST \t\t\trequire(isMemberAdded[msg.send...\n      PUSH 40\t\t\trequire(isMemberAdded[msg.send...\n      MLOAD \t\t\trequire(isMemberAdded[msg.send...\n      DUP1 \t\t\trequire(isMemberAdded[msg.send...\n      SWAP2 \t\t\trequire(isMemberAdded[msg.send...\n      SUB \t\t\trequire(isMemberAdded[msg.send...\n      SWAP1 \t\t\trequire(isMemberAdded[msg.send...\n      REVERT \t\t\trequire(isMemberAdded[msg.send...\n    tag 180\t\t\trequire(isMemberAdded[msg.send...\n      JUMPDEST \t\t\trequire(isMemberAdded[msg.send...\n      CALLER \t\t\tmsg.sender\n      PUSH FFFFFFFFFFFFFFFFFFFFFFFFFFFFFFFFFFFFFFFF\t\t\tproposals[proposalID].proposal...\n      AND \t\t\tproposals[proposalID].proposal...\n      PUSH 4\t\t\tproposals\n      PUSH 0\t\t\tproposals[proposalID]\n      DUP4 \t\t\tproposalID\n      DUP2 \t\t\tproposals[proposalID]\n      MSTORE \t\t\tproposals[proposalID]\n      PUSH 20\t\t\tproposals[proposalID]\n      ADD \t\t\tproposals[proposalID]\n      SWAP1 \t\t\tproposals[proposalID]\n      DUP2 \t\t\tproposals[proposalID]\n      MSTORE \t\t\tproposals[proposalID]\n      PUSH 20\t\t\tproposals[proposalID]\n      ADD \t\t\tproposals[proposalID]\n      PUSH 0\t\t\tproposals[proposalID]\n      KECCAK256 \t\t\tproposals[proposalID]\n      PUSH 4\t\t\tproposals[proposalID].proposal...\n      ADD \t\t\tproposals[proposalID].proposal...\n      PUSH 0\t\t\tproposals[proposalID].proposal...\n      SWAP1 \t\t\tproposals[proposalID].proposal...\n      SLOAD \t\t\tproposals[proposalID].proposal...\n      SWAP1 \t\t\tproposals[proposalID].proposal...\n      PUSH 100\t\t\tproposals[proposalID].proposal...\n      EXP \t\t\tproposals[proposalID].proposal...\n      SWAP1 \t\t\tproposals[proposalID].proposal...\n      DIV \t\t\tproposals[proposalID].proposal...\n      PUSH FFFFFFFFFFFFFFFFFFFFFFFFFFFFFFFFFFFFFFFF\t\t\tproposals[proposalID].proposal...\n      AND \t\t\tproposals[proposalID].proposal...\n      PUSH FFFFFFFFFFFFFFFFFFFFFFFFFFFFFFFFFFFFFFFF\t\t\tproposals[proposalID].proposal...\n      AND \t\t\tproposals[proposalID].proposal...\n      EQ \t\t\tproposals[proposalID].proposal...\n      ISZERO \t\t\tproposals[proposalID].proposal...\n      PUSH [tag] 183\t\t\trequire(proposals[proposalID]....\n      JUMPI \t\t\trequire(proposals[proposalID]....\n      PUSH 40\t\t\trequire(proposals[proposalID]....\n      MLOAD \t\t\trequire(proposals[proposalID]....\n      PUSH 8C379A000000000000000000000000000000000000000000000000000000000\t\t\trequire(proposals[proposalID]....\n      DUP2 \t\t\trequire(proposals[proposalID]....\n      MSTORE \t\t\trequire(proposals[proposalID]....\n      PUSH 4\t\t\trequire(proposals[proposalID]....\n      ADD \t\t\trequire(proposals[proposalID]....\n      PUSH [tag] 184\t\t\trequire(proposals[proposalID]....\n      SWAP1 \t\t\trequire(proposals[proposalID]....\n      PUSH [tag] 185\t\t\trequire(proposals[proposalID]....\n      JUMP [in]\t\t\trequire(proposals[proposalID]....\n    tag 184\t\t\trequire(proposals[proposalID]....\n      JUMPDEST \t\t\trequire(proposals[proposalID]....\n      PUSH 40\t\t\trequire(proposals[proposalID]....\n      MLOAD \t\t\trequire(proposals[proposalID]....\n      DUP1 \t\t\trequire(proposals[proposalID]....\n      SWAP2 \t\t\trequire(proposals[proposalID]....\n      SUB \t\t\trequire(proposals[proposalID]....\n      SWAP1 \t\t\trequire(proposals[proposalID]....\n      REVERT \t\t\trequire(proposals[proposalID]....\n    tag 183\t\t\trequire(proposals[proposalID]....\n      JUMPDEST \t\t\trequire(proposals[proposalID]....\n      PUSH 5\t\t\thasVotedForProposal\n      PUSH 0\t\t\thasVotedForProposal[msg.sender...\n      CALLER \t\t\tmsg.sender\n      PUSH FFFFFFFFFFFFFFFFFFFFFFFFFFFFFFFFFFFFFFFF\t\t\thasVotedForProposal[msg.sender...\n      AND \t\t\thasVotedForProposal[msg.sender...\n      PUSH FFFFFFFFFFFFFFFFFFFFFFFFFFFFFFFFFFFFFFFF\t\t\thasVotedForProposal[msg.sender...\n      AND \t\t\thasVotedForProposal[msg.sender...\n      DUP2 \t\t\thasVotedForProposal[msg.sender...\n      MSTORE \t\t\thasVotedForProposal[msg.sender...\n      PUSH 20\t\t\thasVotedForProposal[msg.sender...\n      ADD \t\t\thasVotedForProposal[msg.sender...\n      SWAP1 \t\t\thasVotedForProposal[msg.sender...\n      DUP2 \t\t\thasVotedForProposal[msg.sender...\n      MSTORE \t\t\thasVotedForProposal[msg.sender...\n      PUSH 20\t\t\thasVotedForProposal[msg.sender...\n      ADD \t\t\thasVotedForProposal[msg.sender...\n      PUSH 0\t\t\thasVotedForProposal[msg.sender...\n      KECCAK256 \t\t\thasVotedForProposal[msg.sender...\n      PUSH 0\t\t\thasVotedForProposal[msg.sender...\n      DUP3 \t\t\tproposalID\n      DUP2 \t\t\thasVotedForProposal[msg.sender...\n      MSTORE \t\t\thasVotedForProposal[msg.sender...\n      PUSH 20\t\t\thasVotedForProposal[msg.sender...\n      ADD \t\t\thasVotedForProposal[msg.sender...\n      SWAP1 \t\t\thasVotedForProposal[msg.sender...\n      DUP2 \t\t\thasVotedForProposal[msg.sender...\n      MSTORE \t\t\thasVotedForProposal[msg.sender...\n      PUSH 20\t\t\thasVotedForProposal[msg.sender...\n      ADD \t\t\thasVotedForProposal[msg.sender...\n      PUSH 0\t\t\thasVotedForProposal[msg.sender...\n      KECCAK256 \t\t\thasVotedForProposal[msg.sender...\n      PUSH 0\t\t\thasVotedForProposal[msg.sender...\n      SWAP1 \t\t\thasVotedForProposal[msg.sender...\n      SLOAD \t\t\thasVotedForProposal[msg.sender...\n      SWAP1 \t\t\thasVotedForProposal[msg.sender...\n      PUSH 100\t\t\thasVotedForProposal[msg.sender...\n      EXP \t\t\thasVotedForProposal[msg.sender...\n      SWAP1 \t\t\thasVotedForProposal[msg.sender...\n      DIV \t\t\thasVotedForProposal[msg.sender...\n      PUSH FF\t\t\thasVotedForProposal[msg.sender...\n      AND \t\t\thasVotedForProposal[msg.sender...\n      ISZERO \t\t\t!hasVotedForProposal[msg.sende...\n      PUSH [tag] 186\t\t\trequire(!hasVotedForProposal[m...\n      JUMPI \t\t\trequire(!hasVotedForProposal[m...\n      PUSH 40\t\t\trequire(!hasVotedForProposal[m...\n      MLOAD \t\t\trequire(!hasVotedForProposal[m...\n      PUSH 8C379A000000000000000000000000000000000000000000000000000000000\t\t\trequire(!hasVotedForProposal[m...\n      DUP2 \t\t\trequire(!hasVotedForProposal[m...\n      MSTORE \t\t\trequire(!hasVotedForProposal[m...\n      PUSH 4\t\t\trequire(!hasVotedForProposal[m...\n      ADD \t\t\trequire(!hasVotedForProposal[m...\n      PUSH [tag] 187\t\t\trequire(!hasVotedForProposal[m...\n      SWAP1 \t\t\trequire(!hasVotedForProposal[m...\n      PUSH [tag] 188\t\t\trequire(!hasVotedForProposal[m...\n      JUMP [in]\t\t\trequire(!hasVotedForProposal[m...\n    tag 187\t\t\trequire(!hasVotedForProposal[m...\n      JUMPDEST \t\t\trequire(!hasVotedForProposal[m...\n      PUSH 40\t\t\trequire(!hasVotedForProposal[m...\n      MLOAD \t\t\trequire(!hasVotedForProposal[m...\n      DUP1 \t\t\trequire(!hasVotedForProposal[m...\n      SWAP2 \t\t\trequire(!hasVotedForProposal[m...\n      SUB \t\t\trequire(!hasVotedForProposal[m...\n      SWAP1 \t\t\trequire(!hasVotedForProposal[m...\n      REVERT \t\t\trequire(!hasVotedForProposal[m...\n    tag 186\t\t\trequire(!hasVotedForProposal[m...\n      JUMPDEST \t\t\trequire(!hasVotedForProposal[m...\n      TIMESTAMP \t\t\tblock.timestamp\n      PUSH 4\t\t\tproposals\n      PUSH 0\t\t\tproposals[proposalID]\n      DUP4 \t\t\tproposalID\n      DUP2 \t\t\tproposals[proposalID]\n      MSTORE \t\t\tproposals[proposalID]\n      PUSH 20\t\t\tproposals[proposalID]\n      ADD \t\t\tproposals[proposalID]\n      SWAP1 \t\t\tproposals[proposalID]\n      DUP2 \t\t\tproposals[proposalID]\n      MSTORE \t\t\tproposals[proposalID]\n      PUSH 20\t\t\tproposals[proposalID]\n      ADD \t\t\tproposals[proposalID]\n      PUSH 0\t\t\tproposals[proposalID]\n      KECCAK256 \t\t\tproposals[proposalID]\n      PUSH 8\t\t\tproposals[proposalID].proposal...\n      ADD \t\t\tproposals[proposalID].proposal...\n      SLOAD \t\t\tproposals[proposalID].proposal...\n      GT \t\t\tproposals[proposalID].proposal...\n      PUSH [tag] 189\t\t\trequire(proposals[proposalID]....\n      JUMPI \t\t\trequire(proposals[proposalID]....\n      PUSH 40\t\t\trequire(proposals[proposalID]....\n      MLOAD \t\t\trequire(proposals[proposalID]....\n      PUSH 8C379A000000000000000000000000000000000000000000000000000000000\t\t\trequire(proposals[proposalID]....\n      DUP2 \t\t\trequire(proposals[proposalID]....\n      MSTORE \t\t\trequire(proposals[proposalID]....\n      PUSH 4\t\t\trequire(proposals[proposalID]....\n      ADD \t\t\trequire(proposals[proposalID]....\n      PUSH [tag] 190\t\t\trequire(proposals[proposalID]....\n      SWAP1 \t\t\trequire(proposals[proposalID]....\n      PUSH [tag] 191\t\t\trequire(proposals[proposalID]....\n      JUMP [in]\t\t\trequire(proposals[proposalID]....\n    tag 190\t\t\trequire(proposals[proposalID]....\n      JUMPDEST \t\t\trequire(proposals[proposalID]....\n      PUSH 40\t\t\trequire(proposals[proposalID]....\n      MLOAD \t\t\trequire(proposals[proposalID]....\n      DUP1 \t\t\trequire(proposals[proposalID]....\n      SWAP2 \t\t\trequire(proposals[proposalID]....\n      SUB \t\t\trequire(proposals[proposalID]....\n      SWAP1 \t\t\trequire(proposals[proposalID]....\n      REVERT \t\t\trequire(proposals[proposalID]....\n    tag 189\t\t\trequire(proposals[proposalID]....\n      JUMPDEST \t\t\trequire(proposals[proposalID]....\n      PUSH E\t\t\tvotingconfigs\n      PUSH 3\t\t\tvotingconfigs.votingStake\n      ADD \t\t\tvotingconfigs.votingStake\n      SLOAD \t\t\tvotingconfigs.votingStake\n      CALLVALUE \t\t\tmsg.value\n      EQ \t\t\tmsg.value==votingconfigs.votin...\n      PUSH [tag] 192\t\t\trequire(msg.value==votingconfi...\n      JUMPI \t\t\trequire(msg.value==votingconfi...\n      PUSH 40\t\t\trequire(msg.value==votingconfi...\n      MLOAD \t\t\trequire(msg.value==votingconfi...\n      PUSH 8C379A000000000000000000000000000000000000000000000000000000000\t\t\trequire(msg.value==votingconfi...\n      DUP2 \t\t\trequire(msg.value==votingconfi...\n      MSTORE \t\t\trequire(msg.value==votingconfi...\n      PUSH 4\t\t\trequire(msg.value==votingconfi...\n      ADD \t\t\trequire(msg.value==votingconfi...\n      PUSH [tag] 193\t\t\trequire(msg.value==votingconfi...\n      SWAP1 \t\t\trequire(msg.value==votingconfi...\n      PUSH [tag] 194\t\t\trequire(msg.value==votingconfi...\n      JUMP [in]\t\t\trequire(msg.value==votingconfi...\n    tag 193\t\t\trequire(msg.value==votingconfi...\n      JUMPDEST \t\t\trequire(msg.value==votingconfi...\n      PUSH 40\t\t\trequire(msg.value==votingconfi...\n      MLOAD \t\t\trequire(msg.value==votingconfi...\n      DUP1 \t\t\trequire(msg.value==votingconfi...\n      SWAP2 \t\t\trequire(msg.value==votingconfi...\n      SUB \t\t\trequire(msg.value==votingconfi...\n      SWAP1 \t\t\trequire(msg.value==votingconfi...\n      REVERT \t\t\trequire(msg.value==votingconfi...\n    tag 192\t\t\trequire(msg.value==votingconfi...\n      JUMPDEST \t\t\trequire(msg.value==votingconfi...\n      PUSH 1\t\t\t1\n      PUSH 4\t\t\tproposals\n      PUSH 0\t\t\tproposals[proposalID]\n      DUP4 \t\t\tproposalID\n      DUP2 \t\t\tproposals[proposalID]\n      MSTORE \t\t\tproposals[proposalID]\n      PUSH 20\t\t\tproposals[proposalID]\n      ADD \t\t\tproposals[proposalID]\n      SWAP1 \t\t\tproposals[proposalID]\n      DUP2 \t\t\tproposals[proposalID]\n      MSTORE \t\t\tproposals[proposalID]\n      PUSH 20\t\t\tproposals[proposalID]\n      ADD \t\t\tproposals[proposalID]\n      PUSH 0\t\t\tproposals[proposalID]\n      KECCAK256 \t\t\tproposals[proposalID]\n      PUSH 6\t\t\tproposals[proposalID].downVote...\n      ADD \t\t\tproposals[proposalID].downVote...\n      SLOAD \t\t\tproposals[proposalID].downVote...\n      PUSH [tag] 195\t\t\tproposals[proposalID].downVote...\n      SWAP2 \t\t\tproposals[proposalID].downVote...\n      SWAP1 \t\t\tproposals[proposalID].downVote...\n      PUSH [tag] 196\t\t\tproposals[proposalID].downVote...\n      JUMP [in]\t\t\tproposals[proposalID].downVote...\n    tag 195\t\t\tproposals[proposalID].downVote...\n      JUMPDEST \t\t\tproposals[proposalID].downVote...\n      PUSH 4\t\t\tproposals\n      PUSH 0\t\t\tproposals[proposalID]\n      DUP4 \t\t\tproposalID\n      DUP2 \t\t\tproposals[proposalID]\n      MSTORE \t\t\tproposals[proposalID]\n      PUSH 20\t\t\tproposals[proposalID]\n      ADD \t\t\tproposals[proposalID]\n      SWAP1 \t\t\tproposals[proposalID]\n      DUP2 \t\t\tproposals[proposalID]\n      MSTORE \t\t\tproposals[proposalID]\n      PUSH 20\t\t\tproposals[proposalID]\n      ADD \t\t\tproposals[proposalID]\n      PUSH 0\t\t\tproposals[proposalID]\n      KECCAK256 \t\t\tproposals[proposalID]\n      PUSH 6\t\t\tproposals[proposalID].downVote...\n      ADD \t\t\tproposals[proposalID].downVote...\n      DUP2 \t\t\tproposals[proposalID].downVote...\n      SWAP1 \t\t\tproposals[proposalID].downVote...\n      SSTORE \t\t\tproposals[proposalID].downVote...\n      POP \t\t\tproposals[proposalID].downVote...\n      PUSH 1\t\t\ttrue\n      PUSH 5\t\t\thasVotedForProposal\n      PUSH 0\t\t\thasVotedForProposal[msg.sender...\n      CALLER \t\t\tmsg.sender\n      PUSH FFFFFFFFFFFFFFFFFFFFFFFFFFFFFFFFFFFFFFFF\t\t\thasVotedForProposal[msg.sender...\n      AND \t\t\thasVotedForProposal[msg.sender...\n      PUSH FFFFFFFFFFFFFFFFFFFFFFFFFFFFFFFFFFFFFFFF\t\t\thasVotedForProposal[msg.sender...\n      AND \t\t\thasVotedForProposal[msg.sender...\n      DUP2 \t\t\thasVotedForProposal[msg.sender...\n      MSTORE \t\t\thasVotedForProposal[msg.sender...\n      PUSH 20\t\t\thasVotedForProposal[msg.sender...\n      ADD \t\t\thasVotedForProposal[msg.sender...\n      SWAP1 \t\t\thasVotedForProposal[msg.sender...\n      DUP2 \t\t\thasVotedForProposal[msg.sender...\n      MSTORE \t\t\thasVotedForProposal[msg.sender...\n      PUSH 20\t\t\thasVotedForProposal[msg.sender...\n      ADD \t\t\thasVotedForProposal[msg.sender...\n      PUSH 0\t\t\thasVotedForProposal[msg.sender...\n      KECCAK256 \t\t\thasVotedForProposal[msg.sender...\n      PUSH 0\t\t\thasVotedForProposal[msg.sender...\n      DUP4 \t\t\tproposalID\n      DUP2 \t\t\thasVotedForProposal[msg.sender...\n      MSTORE \t\t\thasVotedForProposal[msg.sender...\n      PUSH 20\t\t\thasVotedForProposal[msg.sender...\n      ADD \t\t\thasVotedForProposal[msg.sender...\n      SWAP1 \t\t\thasVotedForProposal[msg.sender...\n      DUP2 \t\t\thasVotedForProposal[msg.sender...\n      MSTORE \t\t\thasVotedForProposal[msg.sender...\n      PUSH 20\t\t\thasVotedForProposal[msg.sender...\n      ADD \t\t\thasVotedForProposal[msg.sender...\n      PUSH 0\t\t\thasVotedForProposal[msg.sender...\n      KECCAK256 \t\t\thasVotedForProposal[msg.sender...\n      PUSH 0\t\t\thasVotedForProposal[msg.sender...\n      PUSH 100\t\t\thasVotedForProposal[msg.sender...\n      EXP \t\t\thasVotedForProposal[msg.sender...\n      DUP2 \t\t\thasVotedForProposal[msg.sender...\n      SLOAD \t\t\thasVotedForProposal[msg.sender...\n      DUP2 \t\t\thasVotedForProposal[msg.sender...\n      PUSH FF\t\t\thasVotedForProposal[msg.sender...\n      MUL \t\t\thasVotedForProposal[msg.sender...\n      NOT \t\t\thasVotedForProposal[msg.sender...\n      AND \t\t\thasVotedForProposal[msg.sender...\n      SWAP1 \t\t\thasVotedForProposal[msg.sender...\n      DUP4 \t\t\thasVotedForProposal[msg.sender...\n      ISZERO \t\t\thasVotedForProposal[msg.sender...\n      ISZERO \t\t\thasVotedForProposal[msg.sender...\n      MUL \t\t\thasVotedForProposal[msg.sender...\n      OR \t\t\thasVotedForProposal[msg.sender...\n      SWAP1 \t\t\thasVotedForProposal[msg.sender...\n      SSTORE \t\t\thasVotedForProposal[msg.sender...\n      POP \t\t\thasVotedForProposal[msg.sender...\n      PUSH 6\t\t\tvotersForProposal\n      PUSH 0\t\t\tvotersForProposal[proposalID]\n      DUP3 \t\t\tproposalID\n      DUP2 \t\t\tvotersForProposal[proposalID]\n      MSTORE \t\t\tvotersForProposal[proposalID]\n      PUSH 20\t\t\tvotersForProposal[proposalID]\n      ADD \t\t\tvotersForProposal[proposalID]\n      SWAP1 \t\t\tvotersForProposal[proposalID]\n      DUP2 \t\t\tvotersForProposal[proposalID]\n      MSTORE \t\t\tvotersForProposal[proposalID]\n      PUSH 20\t\t\tvotersForProposal[proposalID]\n      ADD \t\t\tvotersForProposal[proposalID]\n      PUSH 0\t\t\tvotersForProposal[proposalID]\n      KECCAK256 \t\t\tvotersForProposal[proposalID]\n      CALLER \t\t\tmsg.sender\n      SWAP1 \t\t\tvotersForProposal[proposalID]....\n      DUP1 \t\t\tvotersForProposal[proposalID]....\n      PUSH 1\t\t\tvotersForProposal[proposalID]....\n      DUP2 \t\t\tvotersForProposal[proposalID]....\n      SLOAD \t\t\tvotersForProposal[proposalID]....\n      ADD \t\t\tvotersForProposal[proposalID]....\n      DUP1 \t\t\tvotersForProposal[proposalID]....\n      DUP3 \t\t\tvotersForProposal[proposalID]....\n      SSTORE \t\t\tvotersForProposal[proposalID]....\n      DUP1 \t\t\tvotersForProposal[proposalID]....\n      SWAP2 \t\t\tvotersForProposal[proposalID]....\n      POP \t\t\tvotersForProposal[proposalID]....\n      POP \t\t\tvotersForProposal[proposalID]....\n      PUSH 1\t\t\tvotersForProposal[proposalID]....\n      SWAP1 \t\t\tvotersForProposal[proposalID]....\n      SUB \t\t\tvotersForProposal[proposalID]....\n      SWAP1 \t\t\tvotersForProposal[proposalID]....\n      PUSH 0\t\t\tvotersForProposal[proposalID]....\n      MSTORE \t\t\tvotersForProposal[proposalID]....\n      PUSH 20\t\t\tvotersForProposal[proposalID]....\n      PUSH 0\t\t\tvotersForProposal[proposalID]....\n      KECCAK256 \t\t\tvotersForProposal[proposalID]....\n      ADD \t\t\tvotersForProposal[proposalID]....\n      PUSH 0\t\t\tvotersForProposal[proposalID]....\n      SWAP1 \t\t\tvotersForProposal[proposalID]....\n      SWAP2 \t\t\tvotersForProposal[proposalID]....\n      SWAP1 \t\t\tvotersForProposal[proposalID]....\n      SWAP2 \t\t\tvotersForProposal[proposalID]....\n      SWAP1 \t\t\tvotersForProposal[proposalID]....\n      SWAP2 \t\t\tvotersForProposal[proposalID]....\n      PUSH 100\t\t\tvotersForProposal[proposalID]....\n      EXP \t\t\tvotersForProposal[proposalID]....\n      DUP2 \t\t\tvotersForProposal[proposalID]....\n      SLOAD \t\t\tvotersForProposal[proposalID]....\n      DUP2 \t\t\tvotersForProposal[proposalID]....\n      PUSH FFFFFFFFFFFFFFFFFFFFFFFFFFFFFFFFFFFFFFFF\t\t\tvotersForProposal[proposalID]....\n      MUL \t\t\tvotersForProposal[proposalID]....\n      NOT \t\t\tvotersForProposal[proposalID]....\n      AND \t\t\tvotersForProposal[proposalID]....\n      SWAP1 \t\t\tvotersForProposal[proposalID]....\n      DUP4 \t\t\tvotersForProposal[proposalID]....\n      PUSH FFFFFFFFFFFFFFFFFFFFFFFFFFFFFFFFFFFFFFFF\t\t\tvotersForProposal[proposalID]....\n      AND \t\t\tvotersForProposal[proposalID]....\n      MUL \t\t\tvotersForProposal[proposalID]....\n      OR \t\t\tvotersForProposal[proposalID]....\n      SWAP1 \t\t\tvotersForProposal[proposalID]....\n      SSTORE \t\t\tvotersForProposal[proposalID]....\n      POP \t\t\tvotersForProposal[proposalID]....\n      PUSH 8\t\t\tmembersForDownvote\n      PUSH 0\t\t\tmembersForDownvote[proposalID]\n      DUP3 \t\t\tproposalID\n      DUP2 \t\t\tmembersForDownvote[proposalID]\n      MSTORE \t\t\tmembersForDownvote[proposalID]\n      PUSH 20\t\t\tmembersForDownvote[proposalID]\n      ADD \t\t\tmembersForDownvote[proposalID]\n      SWAP1 \t\t\tmembersForDownvote[proposalID]\n      DUP2 \t\t\tmembersForDownvote[proposalID]\n      MSTORE \t\t\tmembersForDownvote[proposalID]\n      PUSH 20\t\t\tmembersForDownvote[proposalID]\n      ADD \t\t\tmembersForDownvote[proposalID]\n      PUSH 0\t\t\tmembersForDownvote[proposalID]\n      KECCAK256 \t\t\tmembersForDownvote[proposalID]\n      CALLER \t\t\tmsg.sender\n      SWAP1 \t\t\tmembersForDownvote[proposalID]...\n      DUP1 \t\t\tmembersForDownvote[proposalID]...\n      PUSH 1\t\t\tmembersForDownvote[proposalID]...\n      DUP2 \t\t\tmembersForDownvote[proposalID]...\n      SLOAD \t\t\tmembersForDownvote[proposalID]...\n      ADD \t\t\tmembersForDownvote[proposalID]...\n      DUP1 \t\t\tmembersForDownvote[proposalID]...\n      DUP3 \t\t\tmembersForDownvote[proposalID]...\n      SSTORE \t\t\tmembersForDownvote[proposalID]...\n      DUP1 \t\t\tmembersForDownvote[proposalID]...\n      SWAP2 \t\t\tmembersForDownvote[proposalID]...\n      POP \t\t\tmembersForDownvote[proposalID]...\n      POP \t\t\tmembersForDownvote[proposalID]...\n      PUSH 1\t\t\tmembersForDownvote[proposalID]...\n      SWAP1 \t\t\tmembersForDownvote[proposalID]...\n      SUB \t\t\tmembersForDownvote[proposalID]...\n      SWAP1 \t\t\tmembersForDownvote[proposalID]...\n      PUSH 0\t\t\tmembersForDownvote[proposalID]...\n      MSTORE \t\t\tmembersForDownvote[proposalID]...\n      PUSH 20\t\t\tmembersForDownvote[proposalID]...\n      PUSH 0\t\t\tmembersForDownvote[proposalID]...\n      KECCAK256 \t\t\tmembersForDownvote[proposalID]...\n      ADD \t\t\tmembersForDownvote[proposalID]...\n      PUSH 0\t\t\tmembersForDownvote[proposalID]...\n      SWAP1 \t\t\tmembersForDownvote[proposalID]...\n      SWAP2 \t\t\tmembersForDownvote[proposalID]...\n      SWAP1 \t\t\tmembersForDownvote[proposalID]...\n      SWAP2 \t\t\tmembersForDownvote[proposalID]...\n      SWAP1 \t\t\tmembersForDownvote[proposalID]...\n      SWAP2 \t\t\tmembersForDownvote[proposalID]...\n      PUSH 100\t\t\tmembersForDownvote[proposalID]...\n      EXP \t\t\tmembersForDownvote[proposalID]...\n      DUP2 \t\t\tmembersForDownvote[proposalID]...\n      SLOAD \t\t\tmembersForDownvote[proposalID]...\n      DUP2 \t\t\tmembersForDownvote[proposalID]...\n      PUSH FFFFFFFFFFFFFFFFFFFFFFFFFFFFFFFFFFFFFFFF\t\t\tmembersForDownvote[proposalID]...\n      MUL \t\t\tmembersForDownvote[proposalID]...\n      NOT \t\t\tmembersForDownvote[proposalID]...\n      AND \t\t\tmembersForDownvote[proposalID]...\n      SWAP1 \t\t\tmembersForDownvote[proposalID]...\n      DUP4 \t\t\tmembersForDownvote[proposalID]...\n      PUSH FFFFFFFFFFFFFFFFFFFFFFFFFFFFFFFFFFFFFFFF\t\t\tmembersForDownvote[proposalID]...\n      AND \t\t\tmembersForDownvote[proposalID]...\n      MUL \t\t\tmembersForDownvote[proposalID]...\n      OR \t\t\tmembersForDownvote[proposalID]...\n      SWAP1 \t\t\tmembersForDownvote[proposalID]...\n      SSTORE \t\t\tmembersForDownvote[proposalID]...\n      POP \t\t\tmembersForDownvote[proposalID]...\n      POP \t\t\tfunction downvoteProposal(uint...\n      JUMP [out]\t\t\tfunction downvoteProposal(uint...\n    tag 43\t\t\tfunction addMember(uint _token...\n      JUMPDEST \t\t\tfunction addMember(uint _token...\n      PUSH 1\t\t\tsamhita\n      PUSH 0\t\t\tsamhita\n      SWAP1 \t\t\tsamhita\n      SLOAD \t\t\tsamhita\n      SWAP1 \t\t\tsamhita\n      PUSH 100\t\t\tsamhita\n      EXP \t\t\tsamhita\n      SWAP1 \t\t\tsamhita\n      DIV \t\t\tsamhita\n      PUSH FFFFFFFFFFFFFFFFFFFFFFFFFFFFFFFFFFFFFFFF\t\t\tsamhita\n      AND \t\t\tsamhita\n      PUSH FFFFFFFFFFFFFFFFFFFFFFFFFFFFFFFFFFFFFFFF\t\t\tsamhita.checkIsMemberAdded\n      AND \t\t\tsamhita.checkIsMemberAdded\n      PUSH 93538631\t\t\tsamhita.checkIsMemberAdded\n      CALLER \t\t\tmsg.sender\n      PUSH 40\t\t\tsamhita.checkIsMemberAdded(msg...\n      MLOAD \t\t\tsamhita.checkIsMemberAdded(msg...\n      DUP3 \t\t\tsamhita.checkIsMemberAdded(msg...\n      PUSH FFFFFFFF\t\t\tsamhita.checkIsMemberAdded(msg...\n      AND \t\t\tsamhita.checkIsMemberAdded(msg...\n      PUSH E0\t\t\tsamhita.checkIsMemberAdded(msg...\n      SHL \t\t\tsamhita.checkIsMemberAdded(msg...\n      DUP2 \t\t\tsamhita.checkIsMemberAdded(msg...\n      MSTORE \t\t\tsamhita.checkIsMemberAdded(msg...\n      PUSH 4\t\t\tsamhita.checkIsMemberAdded(msg...\n      ADD \t\t\tsamhita.checkIsMemberAdded(msg...\n      PUSH [tag] 200\t\t\tsamhita.checkIsMemberAdded(msg...\n      SWAP2 \t\t\tsamhita.checkIsMemberAdded(msg...\n      SWAP1 \t\t\tsamhita.checkIsMemberAdded(msg...\n      PUSH [tag] 50\t\t\tsamhita.checkIsMemberAdded(msg...\n      JUMP [in]\t\t\tsamhita.checkIsMemberAdded(msg...\n    tag 200\t\t\tsamhita.checkIsMemberAdded(msg...\n      JUMPDEST \t\t\tsamhita.checkIsMemberAdded(msg...\n      PUSH 20\t\t\tsamhita.checkIsMemberAdded(msg...\n      PUSH 40\t\t\tsamhita.checkIsMemberAdded(msg...\n      MLOAD \t\t\tsamhita.checkIsMemberAdded(msg...\n      DUP1 \t\t\tsamhita.checkIsMemberAdded(msg...\n      DUP4 \t\t\tsamhita.checkIsMemberAdded(msg...\n      SUB \t\t\tsamhita.checkIsMemberAdded(msg...\n      DUP2 \t\t\tsamhita.checkIsMemberAdded(msg...\n      DUP7 \t\t\tsamhita.checkIsMemberAdded(msg...\n      DUP1 \t\t\tsamhita.checkIsMemberAdded(msg...\n      EXTCODESIZE \t\t\tsamhita.checkIsMemberAdded(msg...\n      ISZERO \t\t\tsamhita.checkIsMemberAdded(msg...\n      DUP1 \t\t\tsamhita.checkIsMemberAdded(msg...\n      ISZERO \t\t\tsamhita.checkIsMemberAdded(msg...\n      PUSH [tag] 201\t\t\tsamhita.checkIsMemberAdded(msg...\n      JUMPI \t\t\tsamhita.checkIsMemberAdded(msg...\n      PUSH 0\t\t\tsamhita.checkIsMemberAdded(msg...\n      DUP1 \t\t\tsamhita.checkIsMemberAdded(msg...\n      REVERT \t\t\tsamhita.checkIsMemberAdded(msg...\n    tag 201\t\t\tsamhita.checkIsMemberAdded(msg...\n      JUMPDEST \t\t\tsamhita.checkIsMemberAdded(msg...\n      POP \t\t\tsamhita.checkIsMemberAdded(msg...\n      GAS \t\t\tsamhita.checkIsMemberAdded(msg...\n      STATICCALL \t\t\tsamhita.checkIsMemberAdded(msg...\n      ISZERO \t\t\tsamhita.checkIsMemberAdded(msg...\n      DUP1 \t\t\tsamhita.checkIsMemberAdded(msg...\n      ISZERO \t\t\tsamhita.checkIsMemberAdded(msg...\n      PUSH [tag] 203\t\t\tsamhita.checkIsMemberAdded(msg...\n      JUMPI \t\t\tsamhita.checkIsMemberAdded(msg...\n      RETURNDATASIZE \t\t\tsamhita.checkIsMemberAdded(msg...\n      PUSH 0\t\t\tsamhita.checkIsMemberAdded(msg...\n      DUP1 \t\t\tsamhita.checkIsMemberAdded(msg...\n      RETURNDATACOPY \t\t\tsamhita.checkIsMemberAdded(msg...\n      RETURNDATASIZE \t\t\tsamhita.checkIsMemberAdded(msg...\n      PUSH 0\t\t\tsamhita.checkIsMemberAdded(msg...\n      REVERT \t\t\tsamhita.checkIsMemberAdded(msg...\n    tag 203\t\t\tsamhita.checkIsMemberAdded(msg...\n      JUMPDEST \t\t\tsamhita.checkIsMemberAdded(msg...\n      POP \t\t\tsamhita.checkIsMemberAdded(msg...\n      POP \t\t\tsamhita.checkIsMemberAdded(msg...\n      POP \t\t\tsamhita.checkIsMemberAdded(msg...\n      POP \t\t\tsamhita.checkIsMemberAdded(msg...\n      PUSH 40\t\t\tsamhita.checkIsMemberAdded(msg...\n      MLOAD \t\t\tsamhita.checkIsMemberAdded(msg...\n      RETURNDATASIZE \t\t\tsamhita.checkIsMemberAdded(msg...\n      PUSH 1F\t\t\tsamhita.checkIsMemberAdded(msg...\n      NOT \t\t\tsamhita.checkIsMemberAdded(msg...\n      PUSH 1F\t\t\tsamhita.checkIsMemberAdded(msg...\n      DUP3 \t\t\tsamhita.checkIsMemberAdded(msg...\n      ADD \t\t\tsamhita.checkIsMemberAdded(msg...\n      AND \t\t\tsamhita.checkIsMemberAdded(msg...\n      DUP3 \t\t\tsamhita.checkIsMemberAdded(msg...\n      ADD \t\t\tsamhita.checkIsMemberAdded(msg...\n      DUP1 \t\t\tsamhita.checkIsMemberAdded(msg...\n      PUSH 40\t\t\tsamhita.checkIsMemberAdded(msg...\n      MSTORE \t\t\tsamhita.checkIsMemberAdded(msg...\n      POP \t\t\tsamhita.checkIsMemberAdded(msg...\n      DUP2 \t\t\tsamhita.checkIsMemberAdded(msg...\n      ADD \t\t\tsamhita.checkIsMemberAdded(msg...\n      SWAP1 \t\t\tsamhita.checkIsMemberAdded(msg...\n      PUSH [tag] 204\t\t\tsamhita.checkIsMemberAdded(msg...\n      SWAP2 \t\t\tsamhita.checkIsMemberAdded(msg...\n      SWAP1 \t\t\tsamhita.checkIsMemberAdded(msg...\n      PUSH [tag] 176\t\t\tsamhita.checkIsMemberAdded(msg...\n      JUMP [in]\t\t\tsamhita.checkIsMemberAdded(msg...\n    tag 204\t\t\tsamhita.checkIsMemberAdded(msg...\n      JUMPDEST \t\t\tsamhita.checkIsMemberAdded(msg...\n      PUSH [tag] 205\t\t\trequire(samhita.checkIsMemberA...\n      JUMPI \t\t\trequire(samhita.checkIsMemberA...\n      PUSH 40\t\t\trequire(samhita.checkIsMemberA...\n      MLOAD \t\t\trequire(samhita.checkIsMemberA...\n      PUSH 8C379A000000000000000000000000000000000000000000000000000000000\t\t\trequire(samhita.checkIsMemberA...\n      DUP2 \t\t\trequire(samhita.checkIsMemberA...\n      MSTORE \t\t\trequire(samhita.checkIsMemberA...\n      PUSH 4\t\t\trequire(samhita.checkIsMemberA...\n      ADD \t\t\trequire(samhita.checkIsMemberA...\n      PUSH [tag] 206\t\t\trequire(samhita.checkIsMemberA...\n      SWAP1 \t\t\trequire(samhita.checkIsMemberA...\n      PUSH [tag] 179\t\t\trequire(samhita.checkIsMemberA...\n      JUMP [in]\t\t\trequire(samhita.checkIsMemberA...\n    tag 206\t\t\trequire(samhita.checkIsMemberA...\n      JUMPDEST \t\t\trequire(samhita.checkIsMemberA...\n      PUSH 40\t\t\trequire(samhita.checkIsMemberA...\n      MLOAD \t\t\trequire(samhita.checkIsMemberA...\n      DUP1 \t\t\trequire(samhita.checkIsMemberA...\n      SWAP2 \t\t\trequire(samhita.checkIsMemberA...\n      SUB \t\t\trequire(samhita.checkIsMemberA...\n      SWAP1 \t\t\trequire(samhita.checkIsMemberA...\n      REVERT \t\t\trequire(samhita.checkIsMemberA...\n    tag 205\t\t\trequire(samhita.checkIsMemberA...\n      JUMPDEST \t\t\trequire(samhita.checkIsMemberA...\n      PUSH 3\t\t\tlanguageToken\n      PUSH 0\t\t\tlanguageToken\n      SWAP1 \t\t\tlanguageToken\n      SLOAD \t\t\tlanguageToken\n      SWAP1 \t\t\tlanguageToken\n      PUSH 100\t\t\tlanguageToken\n      EXP \t\t\tlanguageToken\n      SWAP1 \t\t\tlanguageToken\n      DIV \t\t\tlanguageToken\n      PUSH FFFFFFFFFFFFFFFFFFFFFFFFFFFFFFFFFFFFFFFF\t\t\tlanguageToken\n      AND \t\t\tlanguageToken\n      PUSH FFFFFFFFFFFFFFFFFFFFFFFFFFFFFFFFFFFFFFFF\t\t\tlanguageToken.getTokenPrice\n      AND \t\t\tlanguageToken.getTokenPrice\n      PUSH 4B94F50E\t\t\tlanguageToken.getTokenPrice\n      PUSH 40\t\t\tlanguageToken.getTokenPrice()\n      MLOAD \t\t\tlanguageToken.getTokenPrice()\n      DUP2 \t\t\tlanguageToken.getTokenPrice()\n      PUSH FFFFFFFF\t\t\tlanguageToken.getTokenPrice()\n      AND \t\t\tlanguageToken.getTokenPrice()\n      PUSH E0\t\t\tlanguageToken.getTokenPrice()\n      SHL \t\t\tlanguageToken.getTokenPrice()\n      DUP2 \t\t\tlanguageToken.getTokenPrice()\n      MSTORE \t\t\tlanguageToken.getTokenPrice()\n      PUSH 4\t\t\tlanguageToken.getTokenPrice()\n      ADD \t\t\tlanguageToken.getTokenPrice()\n      PUSH 20\t\t\tlanguageToken.getTokenPrice()\n      PUSH 40\t\t\tlanguageToken.getTokenPrice()\n      MLOAD \t\t\tlanguageToken.getTokenPrice()\n      DUP1 \t\t\tlanguageToken.getTokenPrice()\n      DUP4 \t\t\tlanguageToken.getTokenPrice()\n      SUB \t\t\tlanguageToken.getTokenPrice()\n      DUP2 \t\t\tlanguageToken.getTokenPrice()\n      DUP7 \t\t\tlanguageToken.getTokenPrice()\n      DUP1 \t\t\tlanguageToken.getTokenPrice()\n      EXTCODESIZE \t\t\tlanguageToken.getTokenPrice()\n      ISZERO \t\t\tlanguageToken.getTokenPrice()\n      DUP1 \t\t\tlanguageToken.getTokenPrice()\n      ISZERO \t\t\tlanguageToken.getTokenPrice()\n      PUSH [tag] 207\t\t\tlanguageToken.getTokenPrice()\n      JUMPI \t\t\tlanguageToken.getTokenPrice()\n      PUSH 0\t\t\tlanguageToken.getTokenPrice()\n      DUP1 \t\t\tlanguageToken.getTokenPrice()\n      REVERT \t\t\tlanguageToken.getTokenPrice()\n    tag 207\t\t\tlanguageToken.getTokenPrice()\n      JUMPDEST \t\t\tlanguageToken.getTokenPrice()\n      POP \t\t\tlanguageToken.getTokenPrice()\n      GAS \t\t\tlanguageToken.getTokenPrice()\n      STATICCALL \t\t\tlanguageToken.getTokenPrice()\n      ISZERO \t\t\tlanguageToken.getTokenPrice()\n      DUP1 \t\t\tlanguageToken.getTokenPrice()\n      ISZERO \t\t\tlanguageToken.getTokenPrice()\n      PUSH [tag] 209\t\t\tlanguageToken.getTokenPrice()\n      JUMPI \t\t\tlanguageToken.getTokenPrice()\n      RETURNDATASIZE \t\t\tlanguageToken.getTokenPrice()\n      PUSH 0\t\t\tlanguageToken.getTokenPrice()\n      DUP1 \t\t\tlanguageToken.getTokenPrice()\n      RETURNDATACOPY \t\t\tlanguageToken.getTokenPrice()\n      RETURNDATASIZE \t\t\tlanguageToken.getTokenPrice()\n      PUSH 0\t\t\tlanguageToken.getTokenPrice()\n      REVERT \t\t\tlanguageToken.getTokenPrice()\n    tag 209\t\t\tlanguageToken.getTokenPrice()\n      JUMPDEST \t\t\tlanguageToken.getTokenPrice()\n      POP \t\t\tlanguageToken.getTokenPrice()\n      POP \t\t\tlanguageToken.getTokenPrice()\n      POP \t\t\tlanguageToken.getTokenPrice()\n      POP \t\t\tlanguageToken.getTokenPrice()\n      PUSH 40\t\t\tlanguageToken.getTokenPrice()\n      MLOAD \t\t\tlanguageToken.getTokenPrice()\n      RETURNDATASIZE \t\t\tlanguageToken.getTokenPrice()\n      PUSH 1F\t\t\tlanguageToken.getTokenPrice()\n      NOT \t\t\tlanguageToken.getTokenPrice()\n      PUSH 1F\t\t\tlanguageToken.getTokenPrice()\n      DUP3 \t\t\tlanguageToken.getTokenPrice()\n      ADD \t\t\tlanguageToken.getTokenPrice()\n      AND \t\t\tlanguageToken.getTokenPrice()\n      DUP3 \t\t\tlanguageToken.getTokenPrice()\n      ADD \t\t\tlanguageToken.getTokenPrice()\n      DUP1 \t\t\tlanguageToken.getTokenPrice()\n      PUSH 40\t\t\tlanguageToken.getTokenPrice()\n      MSTORE \t\t\tlanguageToken.getTokenPrice()\n      POP \t\t\tlanguageToken.getTokenPrice()\n      DUP2 \t\t\tlanguageToken.getTokenPrice()\n      ADD \t\t\tlanguageToken.getTokenPrice()\n      SWAP1 \t\t\tlanguageToken.getTokenPrice()\n      PUSH [tag] 210\t\t\tlanguageToken.getTokenPrice()\n      SWAP2 \t\t\tlanguageToken.getTokenPrice()\n      SWAP1 \t\t\tlanguageToken.getTokenPrice()\n      PUSH [tag] 211\t\t\tlanguageToken.getTokenPrice()\n      JUMP [in]\t\t\tlanguageToken.getTokenPrice()\n    tag 210\t\t\tlanguageToken.getTokenPrice()\n      JUMPDEST \t\t\tlanguageToken.getTokenPrice()\n      DUP2 \t\t\t_tokens\n      PUSH [tag] 212\t\t\t_tokens*languageToken.getToken...\n      SWAP2 \t\t\t_tokens*languageToken.getToken...\n      SWAP1 \t\t\t_tokens*languageToken.getToken...\n      PUSH [tag] 213\t\t\t_tokens*languageToken.getToken...\n      JUMP [in]\t\t\t_tokens*languageToken.getToken...\n    tag 212\t\t\t_tokens*languageToken.getToken...\n      JUMPDEST \t\t\t_tokens*languageToken.getToken...\n      CALLVALUE \t\t\tmsg.value\n      EQ \t\t\tmsg.value == (_tokens*language...\n      PUSH [tag] 214\t\t\trequire(msg.value == (_tokens*...\n      JUMPI \t\t\trequire(msg.value == (_tokens*...\n      PUSH 40\t\t\trequire(msg.value == (_tokens*...\n      MLOAD \t\t\trequire(msg.value == (_tokens*...\n      PUSH 8C379A000000000000000000000000000000000000000000000000000000000\t\t\trequire(msg.value == (_tokens*...\n      DUP2 \t\t\trequire(msg.value == (_tokens*...\n      MSTORE \t\t\trequire(msg.value == (_tokens*...\n      PUSH 4\t\t\trequire(msg.value == (_tokens*...\n      ADD \t\t\trequire(msg.value == (_tokens*...\n      PUSH [tag] 215\t\t\trequire(msg.value == (_tokens*...\n      SWAP1 \t\t\trequire(msg.value == (_tokens*...\n      PUSH [tag] 216\t\t\trequire(msg.value == (_tokens*...\n      JUMP [in]\t\t\trequire(msg.value == (_tokens*...\n    tag 215\t\t\trequire(msg.value == (_tokens*...\n      JUMPDEST \t\t\trequire(msg.value == (_tokens*...\n      PUSH 40\t\t\trequire(msg.value == (_tokens*...\n      MLOAD \t\t\trequire(msg.value == (_tokens*...\n      DUP1 \t\t\trequire(msg.value == (_tokens*...\n      SWAP2 \t\t\trequire(msg.value == (_tokens*...\n      SUB \t\t\trequire(msg.value == (_tokens*...\n      SWAP1 \t\t\trequire(msg.value == (_tokens*...\n      REVERT \t\t\trequire(msg.value == (_tokens*...\n    tag 214\t\t\trequire(msg.value == (_tokens*...\n      JUMPDEST \t\t\trequire(msg.value == (_tokens*...\n      DUP1 \t\t\t_tokens\n      PUSH 3\t\t\tlanguageToken\n      PUSH 0\t\t\tlanguageToken\n      SWAP1 \t\t\tlanguageToken\n      SLOAD \t\t\tlanguageToken\n      SWAP1 \t\t\tlanguageToken\n      PUSH 100\t\t\tlanguageToken\n      EXP \t\t\tlanguageToken\n      SWAP1 \t\t\tlanguageToken\n      DIV \t\t\tlanguageToken\n      PUSH FFFFFFFFFFFFFFFFFFFFFFFFFFFFFFFFFFFFFFFF\t\t\tlanguageToken\n      AND \t\t\tlanguageToken\n      PUSH FFFFFFFFFFFFFFFFFFFFFFFFFFFFFFFFFFFFFFFF\t\t\tlanguageToken.balanceOf\n      AND \t\t\tlanguageToken.balanceOf\n      PUSH 70A08231\t\t\tlanguageToken.balanceOf\n      ADDRESS \t\t\tthis\n      PUSH 40\t\t\tlanguageToken.balanceOf(addres...\n      MLOAD \t\t\tlanguageToken.balanceOf(addres...\n      DUP3 \t\t\tlanguageToken.balanceOf(addres...\n      PUSH FFFFFFFF\t\t\tlanguageToken.balanceOf(addres...\n      AND \t\t\tlanguageToken.balanceOf(addres...\n      PUSH E0\t\t\tlanguageToken.balanceOf(addres...\n      SHL \t\t\tlanguageToken.balanceOf(addres...\n      DUP2 \t\t\tlanguageToken.balanceOf(addres...\n      MSTORE \t\t\tlanguageToken.balanceOf(addres...\n      PUSH 4\t\t\tlanguageToken.balanceOf(addres...\n      ADD \t\t\tlanguageToken.balanceOf(addres...\n      PUSH [tag] 217\t\t\tlanguageToken.balanceOf(addres...\n      SWAP2 \t\t\tlanguageToken.balanceOf(addres...\n      SWAP1 \t\t\tlanguageToken.balanceOf(addres...\n      PUSH [tag] 50\t\t\tlanguageToken.balanceOf(addres...\n      JUMP [in]\t\t\tlanguageToken.balanceOf(addres...\n    tag 217\t\t\tlanguageToken.balanceOf(addres...\n      JUMPDEST \t\t\tlanguageToken.balanceOf(addres...\n      PUSH 20\t\t\tlanguageToken.balanceOf(addres...\n      PUSH 40\t\t\tlanguageToken.balanceOf(addres...\n      MLOAD \t\t\tlanguageToken.balanceOf(addres...\n      DUP1 \t\t\tlanguageToken.balanceOf(addres...\n      DUP4 \t\t\tlanguageToken.balanceOf(addres...\n      SUB \t\t\tlanguageToken.balanceOf(addres...\n      DUP2 \t\t\tlanguageToken.balanceOf(addres...\n      DUP7 \t\t\tlanguageToken.balanceOf(addres...\n      DUP1 \t\t\tlanguageToken.balanceOf(addres...\n      EXTCODESIZE \t\t\tlanguageToken.balanceOf(addres...\n      ISZERO \t\t\tlanguageToken.balanceOf(addres...\n      DUP1 \t\t\tlanguageToken.balanceOf(addres...\n      ISZERO \t\t\tlanguageToken.balanceOf(addres...\n      PUSH [tag] 218\t\t\tlanguageToken.balanceOf(addres...\n      JUMPI \t\t\tlanguageToken.balanceOf(addres...\n      PUSH 0\t\t\tlanguageToken.balanceOf(addres...\n      DUP1 \t\t\tlanguageToken.balanceOf(addres...\n      REVERT \t\t\tlanguageToken.balanceOf(addres...\n    tag 218\t\t\tlanguageToken.balanceOf(addres...\n      JUMPDEST \t\t\tlanguageToken.balanceOf(addres...\n      POP \t\t\tlanguageToken.balanceOf(addres...\n      GAS \t\t\tlanguageToken.balanceOf(addres...\n      STATICCALL \t\t\tlanguageToken.balanceOf(addres...\n      ISZERO \t\t\tlanguageToken.balanceOf(addres...\n      DUP1 \t\t\tlanguageToken.balanceOf(addres...\n      ISZERO \t\t\tlanguageToken.balanceOf(addres...\n      PUSH [tag] 220\t\t\tlanguageToken.balanceOf(addres...\n      JUMPI \t\t\tlanguageToken.balanceOf(addres...\n      RETURNDATASIZE \t\t\tlanguageToken.balanceOf(addres...\n      PUSH 0\t\t\tlanguageToken.balanceOf(addres...\n      DUP1 \t\t\tlanguageToken.balanceOf(addres...\n      RETURNDATACOPY \t\t\tlanguageToken.balanceOf(addres...\n      RETURNDATASIZE \t\t\tlanguageToken.balanceOf(addres...\n      PUSH 0\t\t\tlanguageToken.balanceOf(addres...\n      REVERT \t\t\tlanguageToken.balanceOf(addres...\n    tag 220\t\t\tlanguageToken.balanceOf(addres...\n      JUMPDEST \t\t\tlanguageToken.balanceOf(addres...\n      POP \t\t\tlanguageToken.balanceOf(addres...\n      POP \t\t\tlanguageToken.balanceOf(addres...\n      POP \t\t\tlanguageToken.balanceOf(addres...\n      POP \t\t\tlanguageToken.balanceOf(addres...\n      PUSH 40\t\t\tlanguageToken.balanceOf(addres...\n      MLOAD \t\t\tlanguageToken.balanceOf(addres...\n      RETURNDATASIZE \t\t\tlanguageToken.balanceOf(addres...\n      PUSH 1F\t\t\tlanguageToken.balanceOf(addres...\n      NOT \t\t\tlanguageToken.balanceOf(addres...\n      PUSH 1F\t\t\tlanguageToken.balanceOf(addres...\n      DUP3 \t\t\tlanguageToken.balanceOf(addres...\n      ADD \t\t\tlanguageToken.balanceOf(addres...\n      AND \t\t\tlanguageToken.balanceOf(addres...\n      DUP3 \t\t\tlanguageToken.balanceOf(addres...\n      ADD \t\t\tlanguageToken.balanceOf(addres...\n      DUP1 \t\t\tlanguageToken.balanceOf(addres...\n      PUSH 40\t\t\tlanguageToken.balanceOf(addres...\n      MSTORE \t\t\tlanguageToken.balanceOf(addres...\n      POP \t\t\tlanguageToken.balanceOf(addres...\n      DUP2 \t\t\tlanguageToken.balanceOf(addres...\n      ADD \t\t\tlanguageToken.balanceOf(addres...\n      SWAP1 \t\t\tlanguageToken.balanceOf(addres...\n      PUSH [tag] 221\t\t\tlanguageToken.balanceOf(addres...\n      SWAP2 \t\t\tlanguageToken.balanceOf(addres...\n      SWAP1 \t\t\tlanguageToken.balanceOf(addres...\n      PUSH [tag] 211\t\t\tlanguageToken.balanceOf(addres...\n      JUMP [in]\t\t\tlanguageToken.balanceOf(addres...\n    tag 221\t\t\tlanguageToken.balanceOf(addres...\n      JUMPDEST \t\t\tlanguageToken.balanceOf(addres...\n      LT \t\t\tlanguageToken.balanceOf(addres...\n      ISZERO \t\t\tlanguageToken.balanceOf(addres...\n      PUSH [tag] 222\t\t\trequire(languageToken.balanceO...\n      JUMPI \t\t\trequire(languageToken.balanceO...\n      PUSH 40\t\t\trequire(languageToken.balanceO...\n      MLOAD \t\t\trequire(languageToken.balanceO...\n      PUSH 8C379A000000000000000000000000000000000000000000000000000000000\t\t\trequire(languageToken.balanceO...\n      DUP2 \t\t\trequire(languageToken.balanceO...\n      MSTORE \t\t\trequire(languageToken.balanceO...\n      PUSH 4\t\t\trequire(languageToken.balanceO...\n      ADD \t\t\trequire(languageToken.balanceO...\n      PUSH [tag] 223\t\t\trequire(languageToken.balanceO...\n      SWAP1 \t\t\trequire(languageToken.balanceO...\n      PUSH [tag] 224\t\t\trequire(languageToken.balanceO...\n      JUMP [in]\t\t\trequire(languageToken.balanceO...\n    tag 223\t\t\trequire(languageToken.balanceO...\n      JUMPDEST \t\t\trequire(languageToken.balanceO...\n      PUSH 40\t\t\trequire(languageToken.balanceO...\n      MLOAD \t\t\trequire(languageToken.balanceO...\n      DUP1 \t\t\trequire(languageToken.balanceO...\n      SWAP2 \t\t\trequire(languageToken.balanceO...\n      SUB \t\t\trequire(languageToken.balanceO...\n      SWAP1 \t\t\trequire(languageToken.balanceO...\n      REVERT \t\t\trequire(languageToken.balanceO...\n    tag 222\t\t\trequire(languageToken.balanceO...\n      JUMPDEST \t\t\trequire(languageToken.balanceO...\n      PUSH B\t\t\tisMemberAdded\n      PUSH 0\t\t\tisMemberAdded[msg.sender]\n      CALLER \t\t\tmsg.sender\n      PUSH FFFFFFFFFFFFFFFFFFFFFFFFFFFFFFFFFFFFFFFF\t\t\tisMemberAdded[msg.sender]\n      AND \t\t\tisMemberAdded[msg.sender]\n      PUSH FFFFFFFFFFFFFFFFFFFFFFFFFFFFFFFFFFFFFFFF\t\t\tisMemberAdded[msg.sender]\n      AND \t\t\tisMemberAdded[msg.sender]\n      DUP2 \t\t\tisMemberAdded[msg.sender]\n      MSTORE \t\t\tisMemberAdded[msg.sender]\n      PUSH 20\t\t\tisMemberAdded[msg.sender]\n      ADD \t\t\tisMemberAdded[msg.sender]\n      SWAP1 \t\t\tisMemberAdded[msg.sender]\n      DUP2 \t\t\tisMemberAdded[msg.sender]\n      MSTORE \t\t\tisMemberAdded[msg.sender]\n      PUSH 20\t\t\tisMemberAdded[msg.sender]\n      ADD \t\t\tisMemberAdded[msg.sender]\n      PUSH 0\t\t\tisMemberAdded[msg.sender]\n      KECCAK256 \t\t\tisMemberAdded[msg.sender]\n      PUSH 0\t\t\tisMemberAdded[msg.sender]\n      SWAP1 \t\t\tisMemberAdded[msg.sender]\n      SLOAD \t\t\tisMemberAdded[msg.sender]\n      SWAP1 \t\t\tisMemberAdded[msg.sender]\n      PUSH 100\t\t\tisMemberAdded[msg.sender]\n      EXP \t\t\tisMemberAdded[msg.sender]\n      SWAP1 \t\t\tisMemberAdded[msg.sender]\n      DIV \t\t\tisMemberAdded[msg.sender]\n      PUSH FF\t\t\tisMemberAdded[msg.sender]\n      AND \t\t\tisMemberAdded[msg.sender]\n      PUSH [tag] 225\t\t\tif(!isMemberAdded[msg.sender])...\n      JUMPI \t\t\tif(!isMemberAdded[msg.sender])...\n      PUSH A\t\t\tallDaoMemberAddress\n      CALLER \t\t\tmsg.sender\n      SWAP1 \t\t\tallDaoMemberAddress.push(msg.s...\n      DUP1 \t\t\tallDaoMemberAddress.push(msg.s...\n      PUSH 1\t\t\tallDaoMemberAddress.push(msg.s...\n      DUP2 \t\t\tallDaoMemberAddress.push(msg.s...\n      SLOAD \t\t\tallDaoMemberAddress.push(msg.s...\n      ADD \t\t\tallDaoMemberAddress.push(msg.s...\n      DUP1 \t\t\tallDaoMemberAddress.push(msg.s...\n      DUP3 \t\t\tallDaoMemberAddress.push(msg.s...\n      SSTORE \t\t\tallDaoMemberAddress.push(msg.s...\n      DUP1 \t\t\tallDaoMemberAddress.push(msg.s...\n      SWAP2 \t\t\tallDaoMemberAddress.push(msg.s...\n      POP \t\t\tallDaoMemberAddress.push(msg.s...\n      POP \t\t\tallDaoMemberAddress.push(msg.s...\n      PUSH 1\t\t\tallDaoMemberAddress.push(msg.s...\n      SWAP1 \t\t\tallDaoMemberAddress.push(msg.s...\n      SUB \t\t\tallDaoMemberAddress.push(msg.s...\n      SWAP1 \t\t\tallDaoMemberAddress.push(msg.s...\n      PUSH 0\t\t\tallDaoMemberAddress.push(msg.s...\n      MSTORE \t\t\tallDaoMemberAddress.push(msg.s...\n      PUSH 20\t\t\tallDaoMemberAddress.push(msg.s...\n      PUSH 0\t\t\tallDaoMemberAddress.push(msg.s...\n      KECCAK256 \t\t\tallDaoMemberAddress.push(msg.s...\n      ADD \t\t\tallDaoMemberAddress.push(msg.s...\n      PUSH 0\t\t\tallDaoMemberAddress.push(msg.s...\n      SWAP1 \t\t\tallDaoMemberAddress.push(msg.s...\n      SWAP2 \t\t\tallDaoMemberAddress.push(msg.s...\n      SWAP1 \t\t\tallDaoMemberAddress.push(msg.s...\n      SWAP2 \t\t\tallDaoMemberAddress.push(msg.s...\n      SWAP1 \t\t\tallDaoMemberAddress.push(msg.s...\n      SWAP2 \t\t\tallDaoMemberAddress.push(msg.s...\n      PUSH 100\t\t\tallDaoMemberAddress.push(msg.s...\n      EXP \t\t\tallDaoMemberAddress.push(msg.s...\n      DUP2 \t\t\tallDaoMemberAddress.push(msg.s...\n      SLOAD \t\t\tallDaoMemberAddress.push(msg.s...\n      DUP2 \t\t\tallDaoMemberAddress.push(msg.s...\n      PUSH FFFFFFFFFFFFFFFFFFFFFFFFFFFFFFFFFFFFFFFF\t\t\tallDaoMemberAddress.push(msg.s...\n      MUL \t\t\tallDaoMemberAddress.push(msg.s...\n      NOT \t\t\tallDaoMemberAddress.push(msg.s...\n      AND \t\t\tallDaoMemberAddress.push(msg.s...\n      SWAP1 \t\t\tallDaoMemberAddress.push(msg.s...\n      DUP4 \t\t\tallDaoMemberAddress.push(msg.s...\n      PUSH FFFFFFFFFFFFFFFFFFFFFFFFFFFFFFFFFFFFFFFF\t\t\tallDaoMemberAddress.push(msg.s...\n      AND \t\t\tallDaoMemberAddress.push(msg.s...\n      MUL \t\t\tallDaoMemberAddress.push(msg.s...\n      OR \t\t\tallDaoMemberAddress.push(msg.s...\n      SWAP1 \t\t\tallDaoMemberAddress.push(msg.s...\n      SSTORE \t\t\tallDaoMemberAddress.push(msg.s...\n      POP \t\t\tallDaoMemberAddress.push(msg.s...\n      PUSH 1\t\t\ttrue\n      PUSH B\t\t\tisMemberAdded\n      PUSH 0\t\t\tisMemberAdded[msg.sender]\n      CALLER \t\t\tmsg.sender\n      PUSH FFFFFFFFFFFFFFFFFFFFFFFFFFFFFFFFFFFFFFFF\t\t\tisMemberAdded[msg.sender]\n      AND \t\t\tisMemberAdded[msg.sender]\n      PUSH FFFFFFFFFFFFFFFFFFFFFFFFFFFFFFFFFFFFFFFF\t\t\tisMemberAdded[msg.sender]\n      AND \t\t\tisMemberAdded[msg.sender]\n      DUP2 \t\t\tisMemberAdded[msg.sender]\n      MSTORE \t\t\tisMemberAdded[msg.sender]\n      PUSH 20\t\t\tisMemberAdded[msg.sender]\n      ADD \t\t\tisMemberAdded[msg.sender]\n      SWAP1 \t\t\tisMemberAdded[msg.sender]\n      DUP2 \t\t\tisMemberAdded[msg.sender]\n      MSTORE \t\t\tisMemberAdded[msg.sender]\n      PUSH 20\t\t\tisMemberAdded[msg.sender]\n      ADD \t\t\tisMemberAdded[msg.sender]\n      PUSH 0\t\t\tisMemberAdded[msg.sender]\n      KECCAK256 \t\t\tisMemberAdded[msg.sender]\n      PUSH 0\t\t\tisMemberAdded[msg.sender]\n      PUSH 100\t\t\tisMemberAdded[msg.sender]=true\n      EXP \t\t\tisMemberAdded[msg.sender]=true\n      DUP2 \t\t\tisMemberAdded[msg.sender]=true\n      SLOAD \t\t\tisMemberAdded[msg.sender]=true\n      DUP2 \t\t\tisMemberAdded[msg.sender]=true\n      PUSH FF\t\t\tisMemberAdded[msg.sender]=true\n      MUL \t\t\tisMemberAdded[msg.sender]=true\n      NOT \t\t\tisMemberAdded[msg.sender]=true\n      AND \t\t\tisMemberAdded[msg.sender]=true\n      SWAP1 \t\t\tisMemberAdded[msg.sender]=true\n      DUP4 \t\t\tisMemberAdded[msg.sender]=true\n      ISZERO \t\t\tisMemberAdded[msg.sender]=true\n      ISZERO \t\t\tisMemberAdded[msg.sender]=true\n      MUL \t\t\tisMemberAdded[msg.sender]=true\n      OR \t\t\tisMemberAdded[msg.sender]=true\n      SWAP1 \t\t\tisMemberAdded[msg.sender]=true\n      SSTORE \t\t\tisMemberAdded[msg.sender]=true\n      POP \t\t\tisMemberAdded[msg.sender]=true\n    tag 225\t\t\tif(!isMemberAdded[msg.sender])...\n      JUMPDEST \t\t\tif(!isMemberAdded[msg.sender])...\n      PUSH 3\t\t\tlanguageToken\n      PUSH 0\t\t\tlanguageToken\n      SWAP1 \t\t\tlanguageToken\n      SLOAD \t\t\tlanguageToken\n      SWAP1 \t\t\tlanguageToken\n      PUSH 100\t\t\tlanguageToken\n      EXP \t\t\tlanguageToken\n      SWAP1 \t\t\tlanguageToken\n      DIV \t\t\tlanguageToken\n      PUSH FFFFFFFFFFFFFFFFFFFFFFFFFFFFFFFFFFFFFFFF\t\t\tlanguageToken\n      AND \t\t\tlanguageToken\n      PUSH FFFFFFFFFFFFFFFFFFFFFFFFFFFFFFFFFFFFFFFF\t\t\tlanguageToken.transfer\n      AND \t\t\tlanguageToken.transfer\n      PUSH A9059CBB\t\t\tlanguageToken.transfer\n      CALLER \t\t\tmsg.sender\n      DUP4 \t\t\t_tokens\n      PUSH 40\t\t\tlanguageToken.transfer(msg.sen...\n      MLOAD \t\t\tlanguageToken.transfer(msg.sen...\n      DUP4 \t\t\tlanguageToken.transfer(msg.sen...\n      PUSH FFFFFFFF\t\t\tlanguageToken.transfer(msg.sen...\n      AND \t\t\tlanguageToken.transfer(msg.sen...\n      PUSH E0\t\t\tlanguageToken.transfer(msg.sen...\n      SHL \t\t\tlanguageToken.transfer(msg.sen...\n      DUP2 \t\t\tlanguageToken.transfer(msg.sen...\n      MSTORE \t\t\tlanguageToken.transfer(msg.sen...\n      PUSH 4\t\t\tlanguageToken.transfer(msg.sen...\n      ADD \t\t\tlanguageToken.transfer(msg.sen...\n      PUSH [tag] 227\t\t\tlanguageToken.transfer(msg.sen...\n      SWAP3 \t\t\tlanguageToken.transfer(msg.sen...\n      SWAP2 \t\t\tlanguageToken.transfer(msg.sen...\n      SWAP1 \t\t\tlanguageToken.transfer(msg.sen...\n      PUSH [tag] 228\t\t\tlanguageToken.transfer(msg.sen...\n      JUMP [in]\t\t\tlanguageToken.transfer(msg.sen...\n    tag 227\t\t\tlanguageToken.transfer(msg.sen...\n      JUMPDEST \t\t\tlanguageToken.transfer(msg.sen...\n      PUSH 20\t\t\tlanguageToken.transfer(msg.sen...\n      PUSH 40\t\t\tlanguageToken.transfer(msg.sen...\n      MLOAD \t\t\tlanguageToken.transfer(msg.sen...\n      DUP1 \t\t\tlanguageToken.transfer(msg.sen...\n      DUP4 \t\t\tlanguageToken.transfer(msg.sen...\n      SUB \t\t\tlanguageToken.transfer(msg.sen...\n      DUP2 \t\t\tlanguageToken.transfer(msg.sen...\n      PUSH 0\t\t\tlanguageToken.transfer(msg.sen...\n      DUP8 \t\t\tlanguageToken.transfer(msg.sen...\n      DUP1 \t\t\tlanguageToken.transfer(msg.sen...\n      EXTCODESIZE \t\t\tlanguageToken.transfer(msg.sen...\n      ISZERO \t\t\tlanguageToken.transfer(msg.sen...\n      DUP1 \t\t\tlanguageToken.transfer(msg.sen...\n      ISZERO \t\t\tlanguageToken.transfer(msg.sen...\n      PUSH [tag] 229\t\t\tlanguageToken.transfer(msg.sen...\n      JUMPI \t\t\tlanguageToken.transfer(msg.sen...\n      PUSH 0\t\t\tlanguageToken.transfer(msg.sen...\n      DUP1 \t\t\tlanguageToken.transfer(msg.sen...\n      REVERT \t\t\tlanguageToken.transfer(msg.sen...\n    tag 229\t\t\tlanguageToken.transfer(msg.sen...\n      JUMPDEST \t\t\tlanguageToken.transfer(msg.sen...\n      POP \t\t\tlanguageToken.transfer(msg.sen...\n      GAS \t\t\tlanguageToken.transfer(msg.sen...\n      CALL \t\t\tlanguageToken.transfer(msg.sen...\n      ISZERO \t\t\tlanguageToken.transfer(msg.sen...\n      DUP1 \t\t\tlanguageToken.transfer(msg.sen...\n      ISZERO \t\t\tlanguageToken.transfer(msg.sen...\n      PUSH [tag] 231\t\t\tlanguageToken.transfer(msg.sen...\n      JUMPI \t\t\tlanguageToken.transfer(msg.sen...\n      RETURNDATASIZE \t\t\tlanguageToken.transfer(msg.sen...\n      PUSH 0\t\t\tlanguageToken.transfer(msg.sen...\n      DUP1 \t\t\tlanguageToken.transfer(msg.sen...\n      RETURNDATACOPY \t\t\tlanguageToken.transfer(msg.sen...\n      RETURNDATASIZE \t\t\tlanguageToken.transfer(msg.sen...\n      PUSH 0\t\t\tlanguageToken.transfer(msg.sen...\n      REVERT \t\t\tlanguageToken.transfer(msg.sen...\n    tag 231\t\t\tlanguageToken.transfer(msg.sen...\n      JUMPDEST \t\t\tlanguageToken.transfer(msg.sen...\n      POP \t\t\tlanguageToken.transfer(msg.sen...\n      POP \t\t\tlanguageToken.transfer(msg.sen...\n      POP \t\t\tlanguageToken.transfer(msg.sen...\n      POP \t\t\tlanguageToken.transfer(msg.sen...\n      PUSH 40\t\t\tlanguageToken.transfer(msg.sen...\n      MLOAD \t\t\tlanguageToken.transfer(msg.sen...\n      RETURNDATASIZE \t\t\tlanguageToken.transfer(msg.sen...\n      PUSH 1F\t\t\tlanguageToken.transfer(msg.sen...\n      NOT \t\t\tlanguageToken.transfer(msg.sen...\n      PUSH 1F\t\t\tlanguageToken.transfer(msg.sen...\n      DUP3 \t\t\tlanguageToken.transfer(msg.sen...\n      ADD \t\t\tlanguageToken.transfer(msg.sen...\n      AND \t\t\tlanguageToken.transfer(msg.sen...\n      DUP3 \t\t\tlanguageToken.transfer(msg.sen...\n      ADD \t\t\tlanguageToken.transfer(msg.sen...\n      DUP1 \t\t\tlanguageToken.transfer(msg.sen...\n      PUSH 40\t\t\tlanguageToken.transfer(msg.sen...\n      MSTORE \t\t\tlanguageToken.transfer(msg.sen...\n      POP \t\t\tlanguageToken.transfer(msg.sen...\n      DUP2 \t\t\tlanguageToken.transfer(msg.sen...\n      ADD \t\t\tlanguageToken.transfer(msg.sen...\n      SWAP1 \t\t\tlanguageToken.transfer(msg.sen...\n      PUSH [tag] 232\t\t\tlanguageToken.transfer(msg.sen...\n      SWAP2 \t\t\tlanguageToken.transfer(msg.sen...\n      SWAP1 \t\t\tlanguageToken.transfer(msg.sen...\n      PUSH [tag] 176\t\t\tlanguageToken.transfer(msg.sen...\n      JUMP [in]\t\t\tlanguageToken.transfer(msg.sen...\n    tag 232\t\t\tlanguageToken.transfer(msg.sen...\n      JUMPDEST \t\t\tlanguageToken.transfer(msg.sen...\n      POP \t\t\tlanguageToken.transfer(msg.sen...\n      POP \t\t\tfunction addMember(uint _token...\n      JUMP [out]\t\t\tfunction addMember(uint _token...\n    tag 48\t\t\tmapping(uint=>address[]) publi...\n      JUMPDEST \t\t\tmapping(uint=>address[]) publi...\n      PUSH 8\t\t\tmapping(uint=>address[]) publi...\n      PUSH 20\t\t\tmapping(uint=>address[]) publi...\n      MSTORE \t\t\tmapping(uint=>address[]) publi...\n      DUP2 \t\t\tmapping(uint=>address[]) publi...\n      PUSH 0\t\t\tmapping(uint=>address[]) publi...\n      MSTORE \t\t\tmapping(uint=>address[]) publi...\n      PUSH 40\t\t\tmapping(uint=>address[]) publi...\n      PUSH 0\t\t\tmapping(uint=>address[]) publi...\n      KECCAK256 \t\t\tmapping(uint=>address[]) publi...\n      DUP2 \t\t\tmapping(uint=>address[]) publi...\n      DUP2 \t\t\tmapping(uint=>address[]) publi...\n      SLOAD \t\t\tmapping(uint=>address[]) publi...\n      DUP2 \t\t\tmapping(uint=>address[]) publi...\n      LT \t\t\tmapping(uint=>address[]) publi...\n      PUSH [tag] 233\t\t\tmapping(uint=>address[]) publi...\n      JUMPI \t\t\tmapping(uint=>address[]) publi...\n      PUSH 0\t\t\tmapping(uint=>address[]) publi...\n      DUP1 \t\t\tmapping(uint=>address[]) publi...\n      REVERT \t\t\tmapping(uint=>address[]) publi...\n    tag 233\t\t\tmapping(uint=>address[]) publi...\n      JUMPDEST \t\t\tmapping(uint=>address[]) publi...\n      SWAP1 \t\t\tmapping(uint=>address[]) publi...\n      PUSH 0\t\t\tmapping(uint=>address[]) publi...\n      MSTORE \t\t\tmapping(uint=>address[]) publi...\n      PUSH 20\t\t\tmapping(uint=>address[]) publi...\n      PUSH 0\t\t\tmapping(uint=>address[]) publi...\n      KECCAK256 \t\t\tmapping(uint=>address[]) publi...\n      ADD \t\t\tmapping(uint=>address[]) publi...\n      PUSH 0\t\t\tmapping(uint=>address[]) publi...\n      SWAP2 \t\t\tmapping(uint=>address[]) publi...\n      POP \t\t\tmapping(uint=>address[]) publi...\n      SWAP2 \t\t\tmapping(uint=>address[]) publi...\n      POP \t\t\tmapping(uint=>address[]) publi...\n      SWAP1 \t\t\tmapping(uint=>address[]) publi...\n      SLOAD \t\t\tmapping(uint=>address[]) publi...\n      SWAP1 \t\t\tmapping(uint=>address[]) publi...\n      PUSH 100\t\t\tmapping(uint=>address[]) publi...\n      EXP \t\t\tmapping(uint=>address[]) publi...\n      SWAP1 \t\t\tmapping(uint=>address[]) publi...\n      DIV \t\t\tmapping(uint=>address[]) publi...\n      PUSH FFFFFFFFFFFFFFFFFFFFFFFFFFFFFFFFFFFFFFFF\t\t\tmapping(uint=>address[]) publi...\n      AND \t\t\tmapping(uint=>address[]) publi...\n      DUP2 \t\t\tmapping(uint=>address[]) publi...\n      JUMP [out]\t\t\tmapping(uint=>address[]) publi...\n    tag 55\t\t\tmapping(address => mapping(uin...\n      JUMPDEST \t\t\tmapping(address => mapping(uin...\n      PUSH 5\t\t\tmapping(address => mapping(uin...\n      PUSH 20\t\t\tmapping(address => mapping(uin...\n      MSTORE \t\t\tmapping(address => mapping(uin...\n      DUP2 \t\t\tmapping(address => mapping(uin...\n      PUSH 0\t\t\tmapping(address => mapping(uin...\n      MSTORE \t\t\tmapping(address => mapping(uin...\n      PUSH 40\t\t\tmapping(address => mapping(uin...\n      PUSH 0\t\t\tmapping(address => mapping(uin...\n      KECCAK256 \t\t\tmapping(address => mapping(uin...\n      PUSH 20\t\t\tmapping(address => mapping(uin...\n      MSTORE \t\t\tmapping(address => mapping(uin...\n      DUP1 \t\t\tmapping(address => mapping(uin...\n      PUSH 0\t\t\tmapping(address => mapping(uin...\n      MSTORE \t\t\tmapping(address => mapping(uin...\n      PUSH 40\t\t\tmapping(address => mapping(uin...\n      PUSH 0\t\t\tmapping(address => mapping(uin...\n      KECCAK256 \t\t\tmapping(address => mapping(uin...\n      PUSH 0\t\t\tmapping(address => mapping(uin...\n      SWAP2 \t\t\tmapping(address => mapping(uin...\n      POP \t\t\tmapping(address => mapping(uin...\n      SWAP2 \t\t\tmapping(address => mapping(uin...\n      POP \t\t\tmapping(address => mapping(uin...\n      SWAP1 \t\t\tmapping(address => mapping(uin...\n      SLOAD \t\t\tmapping(address => mapping(uin...\n      SWAP1 \t\t\tmapping(address => mapping(uin...\n      PUSH 100\t\t\tmapping(address => mapping(uin...\n      EXP \t\t\tmapping(address => mapping(uin...\n      SWAP1 \t\t\tmapping(address => mapping(uin...\n      DIV \t\t\tmapping(address => mapping(uin...\n      PUSH FF\t\t\tmapping(address => mapping(uin...\n      AND \t\t\tmapping(address => mapping(uin...\n      DUP2 \t\t\tmapping(address => mapping(uin...\n      JUMP [out]\t\t\tmapping(address => mapping(uin...\n    tag 62\t\t\tmapping(address=>uint) public ...\n      JUMPDEST \t\t\tmapping(address=>uint) public ...\n      PUSH C\t\t\tmapping(address=>uint) public ...\n      PUSH 20\t\t\tmapping(address=>uint) public ...\n      MSTORE \t\t\tmapping(address=>uint) public ...\n      DUP1 \t\t\tmapping(address=>uint) public ...\n      PUSH 0\t\t\tmapping(address=>uint) public ...\n      MSTORE \t\t\tmapping(address=>uint) public ...\n      PUSH 40\t\t\tmapping(address=>uint) public ...\n      PUSH 0\t\t\tmapping(address=>uint) public ...\n      KECCAK256 \t\t\tmapping(address=>uint) public ...\n      PUSH 0\t\t\tmapping(address=>uint) public ...\n      SWAP2 \t\t\tmapping(address=>uint) public ...\n      POP \t\t\tmapping(address=>uint) public ...\n      SWAP1 \t\t\tmapping(address=>uint) public ...\n      POP \t\t\tmapping(address=>uint) public ...\n      SLOAD \t\t\tmapping(address=>uint) public ...\n      DUP2 \t\t\tmapping(address=>uint) public ...\n      JUMP [out]\t\t\tmapping(address=>uint) public ...\n    tag 68\t\t\tfunction createProposal(string...\n      JUMPDEST \t\t\tfunction createProposal(string...\n      PUSH 1\t\t\tsamhita\n      PUSH 0\t\t\tsamhita\n      SWAP1 \t\t\tsamhita\n      SLOAD \t\t\tsamhita\n      SWAP1 \t\t\tsamhita\n      PUSH 100\t\t\tsamhita\n      EXP \t\t\tsamhita\n      SWAP1 \t\t\tsamhita\n      DIV \t\t\tsamhita\n      PUSH FFFFFFFFFFFFFFFFFFFFFFFFFFFFFFFFFFFFFFFF\t\t\tsamhita\n      AND \t\t\tsamhita\n      PUSH FFFFFFFFFFFFFFFFFFFFFFFFFFFFFFFFFFFFFFFF\t\t\tsamhita.checkIsMemberAdded\n      AND \t\t\tsamhita.checkIsMemberAdded\n      PUSH 93538631\t\t\tsamhita.checkIsMemberAdded\n      CALLER \t\t\tmsg.sender\n      PUSH 40\t\t\tsamhita.checkIsMemberAdded(msg...\n      MLOAD \t\t\tsamhita.checkIsMemberAdded(msg...\n      DUP3 \t\t\tsamhita.checkIsMemberAdded(msg...\n      PUSH FFFFFFFF\t\t\tsamhita.checkIsMemberAdded(msg...\n      AND \t\t\tsamhita.checkIsMemberAdded(msg...\n      PUSH E0\t\t\tsamhita.checkIsMemberAdded(msg...\n      SHL \t\t\tsamhita.checkIsMemberAdded(msg...\n      DUP2 \t\t\tsamhita.checkIsMemberAdded(msg...\n      MSTORE \t\t\tsamhita.checkIsMemberAdded(msg...\n      PUSH 4\t\t\tsamhita.checkIsMemberAdded(msg...\n      ADD \t\t\tsamhita.checkIsMemberAdded(msg...\n      PUSH [tag] 236\t\t\tsamhita.checkIsMemberAdded(msg...\n      SWAP2 \t\t\tsamhita.checkIsMemberAdded(msg...\n      SWAP1 \t\t\tsamhita.checkIsMemberAdded(msg...\n      PUSH [tag] 50\t\t\tsamhita.checkIsMemberAdded(msg...\n      JUMP [in]\t\t\tsamhita.checkIsMemberAdded(msg...\n    tag 236\t\t\tsamhita.checkIsMemberAdded(msg...\n      JUMPDEST \t\t\tsamhita.checkIsMemberAdded(msg...\n      PUSH 20\t\t\tsamhita.checkIsMemberAdded(msg...\n      PUSH 40\t\t\tsamhita.checkIsMemberAdded(msg...\n      MLOAD \t\t\tsamhita.checkIsMemberAdded(msg...\n      DUP1 \t\t\tsamhita.checkIsMemberAdded(msg...\n      DUP4 \t\t\tsamhita.checkIsMemberAdded(msg...\n      SUB \t\t\tsamhita.checkIsMemberAdded(msg...\n      DUP2 \t\t\tsamhita.checkIsMemberAdded(msg...\n      DUP7 \t\t\tsamhita.checkIsMemberAdded(msg...\n      DUP1 \t\t\tsamhita.checkIsMemberAdded(msg...\n      EXTCODESIZE \t\t\tsamhita.checkIsMemberAdded(msg...\n      ISZERO \t\t\tsamhita.checkIsMemberAdded(msg...\n      DUP1 \t\t\tsamhita.checkIsMemberAdded(msg...\n      ISZERO \t\t\tsamhita.checkIsMemberAdded(msg...\n      PUSH [tag] 237\t\t\tsamhita.checkIsMemberAdded(msg...\n      JUMPI \t\t\tsamhita.checkIsMemberAdded(msg...\n      PUSH 0\t\t\tsamhita.checkIsMemberAdded(msg...\n      DUP1 \t\t\tsamhita.checkIsMemberAdded(msg...\n      REVERT \t\t\tsamhita.checkIsMemberAdded(msg...\n    tag 237\t\t\tsamhita.checkIsMemberAdded(msg...\n      JUMPDEST \t\t\tsamhita.checkIsMemberAdded(msg...\n      POP \t\t\tsamhita.checkIsMemberAdded(msg...\n      GAS \t\t\tsamhita.checkIsMemberAdded(msg...\n      STATICCALL \t\t\tsamhita.checkIsMemberAdded(msg...\n      ISZERO \t\t\tsamhita.checkIsMemberAdded(msg...\n      DUP1 \t\t\tsamhita.checkIsMemberAdded(msg...\n      ISZERO \t\t\tsamhita.checkIsMemberAdded(msg...\n      PUSH [tag] 239\t\t\tsamhita.checkIsMemberAdded(msg...\n      JUMPI \t\t\tsamhita.checkIsMemberAdded(msg...\n      RETURNDATASIZE \t\t\tsamhita.checkIsMemberAdded(msg...\n      PUSH 0\t\t\tsamhita.checkIsMemberAdded(msg...\n      DUP1 \t\t\tsamhita.checkIsMemberAdded(msg...\n      RETURNDATACOPY \t\t\tsamhita.checkIsMemberAdded(msg...\n      RETURNDATASIZE \t\t\tsamhita.checkIsMemberAdded(msg...\n      PUSH 0\t\t\tsamhita.checkIsMemberAdded(msg...\n      REVERT \t\t\tsamhita.checkIsMemberAdded(msg...\n    tag 239\t\t\tsamhita.checkIsMemberAdded(msg...\n      JUMPDEST \t\t\tsamhita.checkIsMemberAdded(msg...\n      POP \t\t\tsamhita.checkIsMemberAdded(msg...\n      POP \t\t\tsamhita.checkIsMemberAdded(msg...\n      POP \t\t\tsamhita.checkIsMemberAdded(msg...\n      POP \t\t\tsamhita.checkIsMemberAdded(msg...\n      PUSH 40\t\t\tsamhita.checkIsMemberAdded(msg...\n      MLOAD \t\t\tsamhita.checkIsMemberAdded(msg...\n      RETURNDATASIZE \t\t\tsamhita.checkIsMemberAdded(msg...\n      PUSH 1F\t\t\tsamhita.checkIsMemberAdded(msg...\n      NOT \t\t\tsamhita.checkIsMemberAdded(msg...\n      PUSH 1F\t\t\tsamhita.checkIsMemberAdded(msg...\n      DUP3 \t\t\tsamhita.checkIsMemberAdded(msg...\n      ADD \t\t\tsamhita.checkIsMemberAdded(msg...\n      AND \t\t\tsamhita.checkIsMemberAdded(msg...\n      DUP3 \t\t\tsamhita.checkIsMemberAdded(msg...\n      ADD \t\t\tsamhita.checkIsMemberAdded(msg...\n      DUP1 \t\t\tsamhita.checkIsMemberAdded(msg...\n      PUSH 40\t\t\tsamhita.checkIsMemberAdded(msg...\n      MSTORE \t\t\tsamhita.checkIsMemberAdded(msg...\n      POP \t\t\tsamhita.checkIsMemberAdded(msg...\n      DUP2 \t\t\tsamhita.checkIsMemberAdded(msg...\n      ADD \t\t\tsamhita.checkIsMemberAdded(msg...\n      SWAP1 \t\t\tsamhita.checkIsMemberAdded(msg...\n      PUSH [tag] 240\t\t\tsamhita.checkIsMemberAdded(msg...\n      SWAP2 \t\t\tsamhita.checkIsMemberAdded(msg...\n      SWAP1 \t\t\tsamhita.checkIsMemberAdded(msg...\n      PUSH [tag] 176\t\t\tsamhita.checkIsMemberAdded(msg...\n      JUMP [in]\t\t\tsamhita.checkIsMemberAdded(msg...\n    tag 240\t\t\tsamhita.checkIsMemberAdded(msg...\n      JUMPDEST \t\t\tsamhita.checkIsMemberAdded(msg...\n      PUSH [tag] 241\t\t\trequire(samhita.checkIsMemberA...\n      JUMPI \t\t\trequire(samhita.checkIsMemberA...\n      PUSH 40\t\t\trequire(samhita.checkIsMemberA...\n      MLOAD \t\t\trequire(samhita.checkIsMemberA...\n      PUSH 8C379A000000000000000000000000000000000000000000000000000000000\t\t\trequire(samhita.checkIsMemberA...\n      DUP2 \t\t\trequire(samhita.checkIsMemberA...\n      MSTORE \t\t\trequire(samhita.checkIsMemberA...\n      PUSH 4\t\t\trequire(samhita.checkIsMemberA...\n      ADD \t\t\trequire(samhita.checkIsMemberA...\n      PUSH [tag] 242\t\t\trequire(samhita.checkIsMemberA...\n      SWAP1 \t\t\trequire(samhita.checkIsMemberA...\n      PUSH [tag] 179\t\t\trequire(samhita.checkIsMemberA...\n      JUMP [in]\t\t\trequire(samhita.checkIsMemberA...\n    tag 242\t\t\trequire(samhita.checkIsMemberA...\n      JUMPDEST \t\t\trequire(samhita.checkIsMemberA...\n      PUSH 40\t\t\trequire(samhita.checkIsMemberA...\n      MLOAD \t\t\trequire(samhita.checkIsMemberA...\n      DUP1 \t\t\trequire(samhita.checkIsMemberA...\n      SWAP2 \t\t\trequire(samhita.checkIsMemberA...\n      SUB \t\t\trequire(samhita.checkIsMemberA...\n      SWAP1 \t\t\trequire(samhita.checkIsMemberA...\n      REVERT \t\t\trequire(samhita.checkIsMemberA...\n    tag 241\t\t\trequire(samhita.checkIsMemberA...\n      JUMPDEST \t\t\trequire(samhita.checkIsMemberA...\n      PUSH B\t\t\tisMemberAdded\n      PUSH 0\t\t\tisMemberAdded[msg.sender]\n      CALLER \t\t\tmsg.sender\n      PUSH FFFFFFFFFFFFFFFFFFFFFFFFFFFFFFFFFFFFFFFF\t\t\tisMemberAdded[msg.sender]\n      AND \t\t\tisMemberAdded[msg.sender]\n      PUSH FFFFFFFFFFFFFFFFFFFFFFFFFFFFFFFFFFFFFFFF\t\t\tisMemberAdded[msg.sender]\n      AND \t\t\tisMemberAdded[msg.sender]\n      DUP2 \t\t\tisMemberAdded[msg.sender]\n      MSTORE \t\t\tisMemberAdded[msg.sender]\n      PUSH 20\t\t\tisMemberAdded[msg.sender]\n      ADD \t\t\tisMemberAdded[msg.sender]\n      SWAP1 \t\t\tisMemberAdded[msg.sender]\n      DUP2 \t\t\tisMemberAdded[msg.sender]\n      MSTORE \t\t\tisMemberAdded[msg.sender]\n      PUSH 20\t\t\tisMemberAdded[msg.sender]\n      ADD \t\t\tisMemberAdded[msg.sender]\n      PUSH 0\t\t\tisMemberAdded[msg.sender]\n      KECCAK256 \t\t\tisMemberAdded[msg.sender]\n      PUSH 0\t\t\tisMemberAdded[msg.sender]\n      SWAP1 \t\t\tisMemberAdded[msg.sender]\n      SLOAD \t\t\tisMemberAdded[msg.sender]\n      SWAP1 \t\t\tisMemberAdded[msg.sender]\n      PUSH 100\t\t\tisMemberAdded[msg.sender]\n      EXP \t\t\tisMemberAdded[msg.sender]\n      SWAP1 \t\t\tisMemberAdded[msg.sender]\n      DIV \t\t\tisMemberAdded[msg.sender]\n      PUSH FF\t\t\tisMemberAdded[msg.sender]\n      AND \t\t\tisMemberAdded[msg.sender]\n      PUSH [tag] 243\t\t\trequire(isMemberAdded[msg.send...\n      JUMPI \t\t\trequire(isMemberAdded[msg.send...\n      PUSH 40\t\t\trequire(isMemberAdded[msg.send...\n      MLOAD \t\t\trequire(isMemberAdded[msg.send...\n      PUSH 8C379A000000000000000000000000000000000000000000000000000000000\t\t\trequire(isMemberAdded[msg.send...\n      DUP2 \t\t\trequire(isMemberAdded[msg.send...\n      MSTORE \t\t\trequire(isMemberAdded[msg.send...\n      PUSH 4\t\t\trequire(isMemberAdded[msg.send...\n      ADD \t\t\trequire(isMemberAdded[msg.send...\n      PUSH [tag] 244\t\t\trequire(isMemberAdded[msg.send...\n      SWAP1 \t\t\trequire(isMemberAdded[msg.send...\n      PUSH [tag] 245\t\t\trequire(isMemberAdded[msg.send...\n      JUMP [in]\t\t\trequire(isMemberAdded[msg.send...\n    tag 244\t\t\trequire(isMemberAdded[msg.send...\n      JUMPDEST \t\t\trequire(isMemberAdded[msg.send...\n      PUSH 40\t\t\trequire(isMemberAdded[msg.send...\n      MLOAD \t\t\trequire(isMemberAdded[msg.send...\n      DUP1 \t\t\trequire(isMemberAdded[msg.send...\n      SWAP2 \t\t\trequire(isMemberAdded[msg.send...\n      SUB \t\t\trequire(isMemberAdded[msg.send...\n      SWAP1 \t\t\trequire(isMemberAdded[msg.send...\n      REVERT \t\t\trequire(isMemberAdded[msg.send...\n    tag 243\t\t\trequire(isMemberAdded[msg.send...\n      JUMPDEST \t\t\trequire(isMemberAdded[msg.send...\n      PUSH E\t\t\tvotingconfigs\n      PUSH 4\t\t\tvotingconfigs.proposalStake\n      ADD \t\t\tvotingconfigs.proposalStake\n      SLOAD \t\t\tvotingconfigs.proposalStake\n      CALLVALUE \t\t\tmsg.value\n      EQ \t\t\tmsg.value==votingconfigs.propo...\n      PUSH [tag] 246\t\t\trequire(msg.value==votingconfi...\n      JUMPI \t\t\trequire(msg.value==votingconfi...\n      PUSH 40\t\t\trequire(msg.value==votingconfi...\n      MLOAD \t\t\trequire(msg.value==votingconfi...\n      PUSH 8C379A000000000000000000000000000000000000000000000000000000000\t\t\trequire(msg.value==votingconfi...\n      DUP2 \t\t\trequire(msg.value==votingconfi...\n      MSTORE \t\t\trequire(msg.value==votingconfi...\n      PUSH 4\t\t\trequire(msg.value==votingconfi...\n      ADD \t\t\trequire(msg.value==votingconfi...\n      PUSH [tag] 247\t\t\trequire(msg.value==votingconfi...\n      SWAP1 \t\t\trequire(msg.value==votingconfi...\n      PUSH [tag] 248\t\t\trequire(msg.value==votingconfi...\n      JUMP [in]\t\t\trequire(msg.value==votingconfi...\n    tag 247\t\t\trequire(msg.value==votingconfi...\n      JUMPDEST \t\t\trequire(msg.value==votingconfi...\n      PUSH 40\t\t\trequire(msg.value==votingconfi...\n      MLOAD \t\t\trequire(msg.value==votingconfi...\n      DUP1 \t\t\trequire(msg.value==votingconfi...\n      SWAP2 \t\t\trequire(msg.value==votingconfi...\n      SUB \t\t\trequire(msg.value==votingconfi...\n      SWAP1 \t\t\trequire(msg.value==votingconfi...\n      REVERT \t\t\trequire(msg.value==votingconfi...\n    tag 246\t\t\trequire(msg.value==votingconfi...\n      JUMPDEST \t\t\trequire(msg.value==votingconfi...\n      PUSH 9\t\t\tproposalCount\n      PUSH 0\t\t\tproposalCount\n      DUP2 \t\t\tproposalCount++\n      SLOAD \t\t\tproposalCount++\n      DUP1 \t\t\tproposalCount++\n      SWAP3 \t\t\tproposalCount++\n      SWAP2 \t\t\tproposalCount++\n      SWAP1 \t\t\tproposalCount++\n      PUSH [tag] 249\t\t\tproposalCount++\n      SWAP1 \t\t\tproposalCount++\n      PUSH [tag] 250\t\t\tproposalCount++\n      JUMP [in]\t\t\tproposalCount++\n    tag 249\t\t\tproposalCount++\n      JUMPDEST \t\t\tproposalCount++\n      SWAP2 \t\t\tproposalCount++\n      SWAP1 \t\t\tproposalCount++\n      POP \t\t\tproposalCount++\n      SSTORE \t\t\tproposalCount++\n      POP \t\t\tproposalCount++\n      PUSH 0\t\t\tProposal memory proposal\n      PUSH 40\t\t\tProposal(proposalCount,_propos...\n      MLOAD \t\t\tProposal(proposalCount,_propos...\n      DUP1 \t\t\tProposal(proposalCount,_propos...\n      PUSH 180\t\t\tProposal(proposalCount,_propos...\n      ADD \t\t\tProposal(proposalCount,_propos...\n      PUSH 40\t\t\tProposal(proposalCount,_propos...\n      MSTORE \t\t\tProposal(proposalCount,_propos...\n      DUP1 \t\t\tProposal(proposalCount,_propos...\n      PUSH 9\t\t\tproposalCount\n      SLOAD \t\t\tproposalCount\n      DUP2 \t\t\tProposal(proposalCount,_propos...\n      MSTORE \t\t\tProposal(proposalCount,_propos...\n      PUSH 20\t\t\tProposal(proposalCount,_propos...\n      ADD \t\t\tProposal(proposalCount,_propos...\n      DUP7 \t\t\t_proposalName\n      DUP2 \t\t\tProposal(proposalCount,_propos...\n      MSTORE \t\t\tProposal(proposalCount,_propos...\n      PUSH 20\t\t\tProposal(proposalCount,_propos...\n      ADD \t\t\tProposal(proposalCount,_propos...\n      DUP6 \t\t\t_proposalaDescription\n      DUP2 \t\t\tProposal(proposalCount,_propos...\n      MSTORE \t\t\tProposal(proposalCount,_propos...\n      PUSH 20\t\t\tProposal(proposalCount,_propos...\n      ADD \t\t\tProposal(proposalCount,_propos...\n      DUP5 \t\t\tproposalIamge\n      DUP2 \t\t\tProposal(proposalCount,_propos...\n      MSTORE \t\t\tProposal(proposalCount,_propos...\n      PUSH 20\t\t\tProposal(proposalCount,_propos...\n      ADD \t\t\tProposal(proposalCount,_propos...\n      CALLER \t\t\tmsg.sender\n      PUSH FFFFFFFFFFFFFFFFFFFFFFFFFFFFFFFFFFFFFFFF\t\t\tProposal(proposalCount,_propos...\n      AND \t\t\tProposal(proposalCount,_propos...\n      DUP2 \t\t\tProposal(proposalCount,_propos...\n      MSTORE \t\t\tProposal(proposalCount,_propos...\n      PUSH 20\t\t\tProposal(proposalCount,_propos...\n      ADD \t\t\tProposal(proposalCount,_propos...\n      PUSH 0\t\t\t0\n      DUP2 \t\t\tProposal(proposalCount,_propos...\n      MSTORE \t\t\tProposal(proposalCount,_propos...\n      PUSH 20\t\t\tProposal(proposalCount,_propos...\n      ADD \t\t\tProposal(proposalCount,_propos...\n      PUSH 0\t\t\t0\n      DUP2 \t\t\tProposal(proposalCount,_propos...\n      MSTORE \t\t\tProposal(proposalCount,_propos...\n      PUSH 20\t\t\tProposal(proposalCount,_propos...\n      ADD \t\t\tProposal(proposalCount,_propos...\n      TIMESTAMP \t\t\tblock.timestamp\n      DUP2 \t\t\tProposal(proposalCount,_propos...\n      MSTORE \t\t\tProposal(proposalCount,_propos...\n      PUSH 20\t\t\tProposal(proposalCount,_propos...\n      ADD \t\t\tProposal(proposalCount,_propos...\n      PUSH E\t\t\tvotingconfigs\n      PUSH 2\t\t\tvotingconfigs.votingPeriod\n      ADD \t\t\tvotingconfigs.votingPeriod\n      SLOAD \t\t\tvotingconfigs.votingPeriod\n      TIMESTAMP \t\t\tblock.timestamp\n      PUSH [tag] 251\t\t\tblock.timestamp + votingconfig...\n      SWAP2 \t\t\tblock.timestamp + votingconfig...\n      SWAP1 \t\t\tblock.timestamp + votingconfig...\n      PUSH [tag] 196\t\t\tblock.timestamp + votingconfig...\n      JUMP [in]\t\t\tblock.timestamp + votingconfig...\n    tag 251\t\t\tblock.timestamp + votingconfig...\n      JUMPDEST \t\t\tblock.timestamp + votingconfig...\n      DUP2 \t\t\tProposal(proposalCount,_propos...\n      MSTORE \t\t\tProposal(proposalCount,_propos...\n      PUSH 20\t\t\tProposal(proposalCount,_propos...\n      ADD \t\t\tProposal(proposalCount,_propos...\n      DUP4 \t\t\t_templateId\n      DUP2 \t\t\tProposal(proposalCount,_propos...\n      MSTORE \t\t\tProposal(proposalCount,_propos...\n      PUSH 20\t\t\tProposal(proposalCount,_propos...\n      ADD \t\t\tProposal(proposalCount,_propos...\n      PUSH 40\t\t\tProposal(proposalCount,_propos...\n      MLOAD \t\t\tProposal(proposalCount,_propos...\n      DUP1 \t\t\tProposal(proposalCount,_propos...\n      PUSH 40\t\t\tProposal(proposalCount,_propos...\n      ADD \t\t\tProposal(proposalCount,_propos...\n      PUSH 40\t\t\tProposal(proposalCount,_propos...\n      MSTORE \t\t\tProposal(proposalCount,_propos...\n      DUP1 \t\t\tProposal(proposalCount,_propos...\n      PUSH 7\t\t\tProposal(proposalCount,_propos...\n      DUP2 \t\t\tProposal(proposalCount,_propos...\n      MSTORE \t\t\tProposal(proposalCount,_propos...\n      PUSH 20\t\t\tProposal(proposalCount,_propos...\n      ADD \t\t\tProposal(proposalCount,_propos...\n      PUSH 70656E64696E6700000000000000000000000000000000000000000000000000\t\t\tProposal(proposalCount,_propos...\n      DUP2 \t\t\tProposal(proposalCount,_propos...\n      MSTORE \t\t\tProposal(proposalCount,_propos...\n      POP \t\t\tProposal(proposalCount,_propos...\n      DUP2 \t\t\tProposal(proposalCount,_propos...\n      MSTORE \t\t\tProposal(proposalCount,_propos...\n      PUSH 20\t\t\tProposal(proposalCount,_propos...\n      ADD \t\t\tProposal(proposalCount,_propos...\n      PUSH 0\t\t\tfalse\n      ISZERO \t\t\tProposal(proposalCount,_propos...\n      ISZERO \t\t\tProposal(proposalCount,_propos...\n      DUP2 \t\t\tProposal(proposalCount,_propos...\n      MSTORE \t\t\tProposal(proposalCount,_propos...\n      POP \t\t\tProposal(proposalCount,_propos...\n      SWAP1 \t\t\tProposal memory proposal = Pro...\n      POP \t\t\tProposal memory proposal = Pro...\n      DUP1 \t\t\tproposal\n      PUSH 4\t\t\tproposals\n      PUSH 0\t\t\tproposals[proposalCount]\n      PUSH 9\t\t\tproposalCount\n      SLOAD \t\t\tproposalCount\n      DUP2 \t\t\tproposals[proposalCount]\n      MSTORE \t\t\tproposals[proposalCount]\n      PUSH 20\t\t\tproposals[proposalCount]\n      ADD \t\t\tproposals[proposalCount]\n      SWAP1 \t\t\tproposals[proposalCount]\n      DUP2 \t\t\tproposals[proposalCount]\n      MSTORE \t\t\tproposals[proposalCount]\n      PUSH 20\t\t\tproposals[proposalCount]\n      ADD \t\t\tproposals[proposalCount]\n      PUSH 0\t\t\tproposals[proposalCount]\n      KECCAK256 \t\t\tproposals[proposalCount]\n      PUSH 0\t\t\tproposals[proposalCount] = pro...\n      DUP3 \t\t\tproposals[proposalCount] = pro...\n      ADD \t\t\tproposals[proposalCount] = pro...\n      MLOAD \t\t\tproposals[proposalCount] = pro...\n      DUP2 \t\t\tproposals[proposalCount] = pro...\n      PUSH 0\t\t\tproposals[proposalCount] = pro...\n      ADD \t\t\tproposals[proposalCount] = pro...\n      SSTORE \t\t\tproposals[proposalCount] = pro...\n      PUSH 20\t\t\tproposals[proposalCount] = pro...\n      DUP3 \t\t\tproposals[proposalCount] = pro...\n      ADD \t\t\tproposals[proposalCount] = pro...\n      MLOAD \t\t\tproposals[proposalCount] = pro...\n      DUP2 \t\t\tproposals[proposalCount] = pro...\n      PUSH 1\t\t\tproposals[proposalCount] = pro...\n      ADD \t\t\tproposals[proposalCount] = pro...\n      SWAP1 \t\t\tproposals[proposalCount] = pro...\n      DUP1 \t\t\tproposals[proposalCount] = pro...\n      MLOAD \t\t\tproposals[proposalCount] = pro...\n      SWAP1 \t\t\tproposals[proposalCount] = pro...\n      PUSH 20\t\t\tproposals[proposalCount] = pro...\n      ADD \t\t\tproposals[proposalCount] = pro...\n      SWAP1 \t\t\tproposals[proposalCount] = pro...\n      PUSH [tag] 252\t\t\tproposals[proposalCount] = pro...\n      SWAP3 \t\t\tproposals[proposalCount] = pro...\n      SWAP2 \t\t\tproposals[proposalCount] = pro...\n      SWAP1 \t\t\tproposals[proposalCount] = pro...\n      PUSH [tag] 253\t\t\tproposals[proposalCount] = pro...\n      JUMP [in]\t\t\tproposals[proposalCount] = pro...\n    tag 252\t\t\tproposals[proposalCount] = pro...\n      JUMPDEST \t\t\tproposals[proposalCount] = pro...\n      POP \t\t\tproposals[proposalCount] = pro...\n      PUSH 40\t\t\tproposals[proposalCount] = pro...\n      DUP3 \t\t\tproposals[proposalCount] = pro...\n      ADD \t\t\tproposals[proposalCount] = pro...\n      MLOAD \t\t\tproposals[proposalCount] = pro...\n      DUP2 \t\t\tproposals[proposalCount] = pro...\n      PUSH 2\t\t\tproposals[proposalCount] = pro...\n      ADD \t\t\tproposals[proposalCount] = pro...\n      SWAP1 \t\t\tproposals[proposalCount] = pro...\n      DUP1 \t\t\tproposals[proposalCount] = pro...\n      MLOAD \t\t\tproposals[proposalCount] = pro...\n      SWAP1 \t\t\tproposals[proposalCount] = pro...\n      PUSH 20\t\t\tproposals[proposalCount] = pro...\n      ADD \t\t\tproposals[proposalCount] = pro...\n      SWAP1 \t\t\tproposals[proposalCount] = pro...\n      PUSH [tag] 254\t\t\tproposals[proposalCount] = pro...\n      SWAP3 \t\t\tproposals[proposalCount] = pro...\n      SWAP2 \t\t\tproposals[proposalCount] = pro...\n      SWAP1 \t\t\tproposals[proposalCount] = pro...\n      PUSH [tag] 253\t\t\tproposals[proposalCount] = pro...\n      JUMP [in]\t\t\tproposals[proposalCount] = pro...\n    tag 254\t\t\tproposals[proposalCount] = pro...\n      JUMPDEST \t\t\tproposals[proposalCount] = pro...\n      POP \t\t\tproposals[proposalCount] = pro...\n      PUSH 60\t\t\tproposals[proposalCount] = pro...\n      DUP3 \t\t\tproposals[proposalCount] = pro...\n      ADD \t\t\tproposals[proposalCount] = pro...\n      MLOAD \t\t\tproposals[proposalCount] = pro...\n      DUP2 \t\t\tproposals[proposalCount] = pro...\n      PUSH 3\t\t\tproposals[proposalCount] = pro...\n      ADD \t\t\tproposals[proposalCount] = pro...\n      SWAP1 \t\t\tproposals[proposalCount] = pro...\n      DUP1 \t\t\tproposals[proposalCount] = pro...\n      MLOAD \t\t\tproposals[proposalCount] = pro...\n      SWAP1 \t\t\tproposals[proposalCount] = pro...\n      PUSH 20\t\t\tproposals[proposalCount] = pro...\n      ADD \t\t\tproposals[proposalCount] = pro...\n      SWAP1 \t\t\tproposals[proposalCount] = pro...\n      PUSH [tag] 255\t\t\tproposals[proposalCount] = pro...\n      SWAP3 \t\t\tproposals[proposalCount] = pro...\n      SWAP2 \t\t\tproposals[proposalCount] = pro...\n      SWAP1 \t\t\tproposals[proposalCount] = pro...\n      PUSH [tag] 253\t\t\tproposals[proposalCount] = pro...\n      JUMP [in]\t\t\tproposals[proposalCount] = pro...\n    tag 255\t\t\tproposals[proposalCount] = pro...\n      JUMPDEST \t\t\tproposals[proposalCount] = pro...\n      POP \t\t\tproposals[proposalCount] = pro...\n      PUSH 80\t\t\tproposals[proposalCount] = pro...\n      DUP3 \t\t\tproposals[proposalCount] = pro...\n      ADD \t\t\tproposals[proposalCount] = pro...\n      MLOAD \t\t\tproposals[proposalCount] = pro...\n      DUP2 \t\t\tproposals[proposalCount] = pro...\n      PUSH 4\t\t\tproposals[proposalCount] = pro...\n      ADD \t\t\tproposals[proposalCount] = pro...\n      PUSH 0\t\t\tproposals[proposalCount] = pro...\n      PUSH 100\t\t\tproposals[proposalCount] = pro...\n      EXP \t\t\tproposals[proposalCount] = pro...\n      DUP2 \t\t\tproposals[proposalCount] = pro...\n      SLOAD \t\t\tproposals[proposalCount] = pro...\n      DUP2 \t\t\tproposals[proposalCount] = pro...\n      PUSH FFFFFFFFFFFFFFFFFFFFFFFFFFFFFFFFFFFFFFFF\t\t\tproposals[proposalCount] = pro...\n      MUL \t\t\tproposals[proposalCount] = pro...\n      NOT \t\t\tproposals[proposalCount] = pro...\n      AND \t\t\tproposals[proposalCount] = pro...\n      SWAP1 \t\t\tproposals[proposalCount] = pro...\n      DUP4 \t\t\tproposals[proposalCount] = pro...\n      PUSH FFFFFFFFFFFFFFFFFFFFFFFFFFFFFFFFFFFFFFFF\t\t\tproposals[proposalCount] = pro...\n      AND \t\t\tproposals[proposalCount] = pro...\n      MUL \t\t\tproposals[proposalCount] = pro...\n      OR \t\t\tproposals[proposalCount] = pro...\n      SWAP1 \t\t\tproposals[proposalCount] = pro...\n      SSTORE \t\t\tproposals[proposalCount] = pro...\n      POP \t\t\tproposals[proposalCount] = pro...\n      PUSH A0\t\t\tproposals[proposalCount] = pro...\n      DUP3 \t\t\tproposals[proposalCount] = pro...\n      ADD \t\t\tproposals[proposalCount] = pro...\n      MLOAD \t\t\tproposals[proposalCount] = pro...\n      DUP2 \t\t\tproposals[proposalCount] = pro...\n      PUSH 5\t\t\tproposals[proposalCount] = pro...\n      ADD \t\t\tproposals[proposalCount] = pro...\n      SSTORE \t\t\tproposals[proposalCount] = pro...\n      PUSH C0\t\t\tproposals[proposalCount] = pro...\n      DUP3 \t\t\tproposals[proposalCount] = pro...\n      ADD \t\t\tproposals[proposalCount] = pro...\n      MLOAD \t\t\tproposals[proposalCount] = pro...\n      DUP2 \t\t\tproposals[proposalCount] = pro...\n      PUSH 6\t\t\tproposals[proposalCount] = pro...\n      ADD \t\t\tproposals[proposalCount] = pro...\n      SSTORE \t\t\tproposals[proposalCount] = pro...\n      PUSH E0\t\t\tproposals[proposalCount] = pro...\n      DUP3 \t\t\tproposals[proposalCount] = pro...\n      ADD \t\t\tproposals[proposalCount] = pro...\n      MLOAD \t\t\tproposals[proposalCount] = pro...\n      DUP2 \t\t\tproposals[proposalCount] = pro...\n      PUSH 7\t\t\tproposals[proposalCount] = pro...\n      ADD \t\t\tproposals[proposalCount] = pro...\n      SSTORE \t\t\tproposals[proposalCount] = pro...\n      PUSH 100\t\t\tproposals[proposalCount] = pro...\n      DUP3 \t\t\tproposals[proposalCount] = pro...\n      ADD \t\t\tproposals[proposalCount] = pro...\n      MLOAD \t\t\tproposals[proposalCount] = pro...\n      DUP2 \t\t\tproposals[proposalCount] = pro...\n      PUSH 8\t\t\tproposals[proposalCount] = pro...\n      ADD \t\t\tproposals[proposalCount] = pro...\n      SSTORE \t\t\tproposals[proposalCount] = pro...\n      PUSH 120\t\t\tproposals[proposalCount] = pro...\n      DUP3 \t\t\tproposals[proposalCount] = pro...\n      ADD \t\t\tproposals[proposalCount] = pro...\n      MLOAD \t\t\tproposals[proposalCount] = pro...\n      DUP2 \t\t\tproposals[proposalCount] = pro...\n      PUSH 9\t\t\tproposals[proposalCount] = pro...\n      ADD \t\t\tproposals[proposalCount] = pro...\n      SSTORE \t\t\tproposals[proposalCount] = pro...\n      PUSH 140\t\t\tproposals[proposalCount] = pro...\n      DUP3 \t\t\tproposals[proposalCount] = pro...\n      ADD \t\t\tproposals[proposalCount] = pro...\n      MLOAD \t\t\tproposals[proposalCount] = pro...\n      DUP2 \t\t\tproposals[proposalCount] = pro...\n      PUSH A\t\t\tproposals[proposalCount] = pro...\n      ADD \t\t\tproposals[proposalCount] = pro...\n      SWAP1 \t\t\tproposals[proposalCount] = pro...\n      DUP1 \t\t\tproposals[proposalCount] = pro...\n      MLOAD \t\t\tproposals[proposalCount] = pro...\n      SWAP1 \t\t\tproposals[proposalCount] = pro...\n      PUSH 20\t\t\tproposals[proposalCount] = pro...\n      ADD \t\t\tproposals[proposalCount] = pro...\n      SWAP1 \t\t\tproposals[proposalCount] = pro...\n      PUSH [tag] 256\t\t\tproposals[proposalCount] = pro...\n      SWAP3 \t\t\tproposals[proposalCount] = pro...\n      SWAP2 \t\t\tproposals[proposalCount] = pro...\n      SWAP1 \t\t\tproposals[proposalCount] = pro...\n      PUSH [tag] 253\t\t\tproposals[proposalCount] = pro...\n      JUMP [in]\t\t\tproposals[proposalCount] = pro...\n    tag 256\t\t\tproposals[proposalCount] = pro...\n      JUMPDEST \t\t\tproposals[proposalCount] = pro...\n      POP \t\t\tproposals[proposalCount] = pro...\n      PUSH 160\t\t\tproposals[proposalCount] = pro...\n      DUP3 \t\t\tproposals[proposalCount] = pro...\n      ADD \t\t\tproposals[proposalCount] = pro...\n      MLOAD \t\t\tproposals[proposalCount] = pro...\n      DUP2 \t\t\tproposals[proposalCount] = pro...\n      PUSH B\t\t\tproposals[proposalCount] = pro...\n      ADD \t\t\tproposals[proposalCount] = pro...\n      PUSH 0\t\t\tproposals[proposalCount] = pro...\n      PUSH 100\t\t\tproposals[proposalCount] = pro...\n      EXP \t\t\tproposals[proposalCount] = pro...\n      DUP2 \t\t\tproposals[proposalCount] = pro...\n      SLOAD \t\t\tproposals[proposalCount] = pro...\n      DUP2 \t\t\tproposals[proposalCount] = pro...\n      PUSH FF\t\t\tproposals[proposalCount] = pro...\n      MUL \t\t\tproposals[proposalCount] = pro...\n      NOT \t\t\tproposals[proposalCount] = pro...\n      AND \t\t\tproposals[proposalCount] = pro...\n      SWAP1 \t\t\tproposals[proposalCount] = pro...\n      DUP4 \t\t\tproposals[proposalCount] = pro...\n      ISZERO \t\t\tproposals[proposalCount] = pro...\n      ISZERO \t\t\tproposals[proposalCount] = pro...\n      MUL \t\t\tproposals[proposalCount] = pro...\n      OR \t\t\tproposals[proposalCount] = pro...\n      SWAP1 \t\t\tproposals[proposalCount] = pro...\n      SSTORE \t\t\tproposals[proposalCount] = pro...\n      POP \t\t\tproposals[proposalCount] = pro...\n      SWAP1 \t\t\tproposals[proposalCount] = pro...\n      POP \t\t\tproposals[proposalCount] = pro...\n      POP \t\t\tproposals[proposalCount] = pro...\n      POP \t\t\t{\\r\\n        require(samhita.c...\n      POP \t\t\tfunction createProposal(string...\n      POP \t\t\tfunction createProposal(string...\n      POP \t\t\tfunction createProposal(string...\n      POP \t\t\tfunction createProposal(string...\n      JUMP [out]\t\t\tfunction createProposal(string...\n    tag 71\t\t\taddress public chargeTokenAddr...\n      JUMPDEST \t\t\taddress public chargeTokenAddr...\n      PUSH 14\t\t\taddress public chargeTokenAddr...\n      PUSH 0\t\t\taddress public chargeTokenAddr...\n      SWAP1 \t\t\taddress public chargeTokenAddr...\n      SLOAD \t\t\taddress public chargeTokenAddr...\n      SWAP1 \t\t\taddress public chargeTokenAddr...\n      PUSH 100\t\t\taddress public chargeTokenAddr...\n      EXP \t\t\taddress public chargeTokenAddr...\n      SWAP1 \t\t\taddress public chargeTokenAddr...\n      DIV \t\t\taddress public chargeTokenAddr...\n      PUSH FFFFFFFFFFFFFFFFFFFFFFFFFFFFFFFFFFFFFFFF\t\t\taddress public chargeTokenAddr...\n      AND \t\t\taddress public chargeTokenAddr...\n      DUP2 \t\t\taddress public chargeTokenAddr...\n      JUMP [out]\t\t\taddress public chargeTokenAddr...\n    tag 75\t\t\tfunction getDataDaoVotingConfi...\n      JUMPDEST \t\t\tfunction getDataDaoVotingConfi...\n      PUSH [tag] 257\t\t\tVotingConfig memory\n      PUSH [tag] 258\t\t\tVotingConfig memory\n      JUMP [in]\t\t\tVotingConfig memory\n    tag 257\t\t\tVotingConfig memory\n      JUMPDEST \t\t\tVotingConfig memory\n      PUSH E\t\t\tvotingconfigs\n      PUSH 40\t\t\treturn votingconfigs\n      MLOAD \t\t\treturn votingconfigs\n      DUP1 \t\t\treturn votingconfigs\n      PUSH A0\t\t\treturn votingconfigs\n      ADD \t\t\treturn votingconfigs\n      PUSH 40\t\t\treturn votingconfigs\n      MSTORE \t\t\treturn votingconfigs\n      SWAP1 \t\t\treturn votingconfigs\n      DUP2 \t\t\treturn votingconfigs\n      PUSH 0\t\t\treturn votingconfigs\n      DUP3 \t\t\treturn votingconfigs\n      ADD \t\t\treturn votingconfigs\n      SLOAD \t\t\treturn votingconfigs\n      DUP2 \t\t\treturn votingconfigs\n      MSTORE \t\t\treturn votingconfigs\n      PUSH 20\t\t\treturn votingconfigs\n      ADD \t\t\treturn votingconfigs\n      PUSH 1\t\t\treturn votingconfigs\n      DUP3 \t\t\treturn votingconfigs\n      ADD \t\t\treturn votingconfigs\n      SLOAD \t\t\treturn votingconfigs\n      DUP2 \t\t\treturn votingconfigs\n      MSTORE \t\t\treturn votingconfigs\n      PUSH 20\t\t\treturn votingconfigs\n      ADD \t\t\treturn votingconfigs\n      PUSH 2\t\t\treturn votingconfigs\n      DUP3 \t\t\treturn votingconfigs\n      ADD \t\t\treturn votingconfigs\n      SLOAD \t\t\treturn votingconfigs\n      DUP2 \t\t\treturn votingconfigs\n      MSTORE \t\t\treturn votingconfigs\n      PUSH 20\t\t\treturn votingconfigs\n      ADD \t\t\treturn votingconfigs\n      PUSH 3\t\t\treturn votingconfigs\n      DUP3 \t\t\treturn votingconfigs\n      ADD \t\t\treturn votingconfigs\n      SLOAD \t\t\treturn votingconfigs\n      DUP2 \t\t\treturn votingconfigs\n      MSTORE \t\t\treturn votingconfigs\n      PUSH 20\t\t\treturn votingconfigs\n      ADD \t\t\treturn votingconfigs\n      PUSH 4\t\t\treturn votingconfigs\n      DUP3 \t\t\treturn votingconfigs\n      ADD \t\t\treturn votingconfigs\n      SLOAD \t\t\treturn votingconfigs\n      DUP2 \t\t\treturn votingconfigs\n      MSTORE \t\t\treturn votingconfigs\n      POP \t\t\treturn votingconfigs\n      POP \t\t\treturn votingconfigs\n      SWAP1 \t\t\treturn votingconfigs\n      POP \t\t\treturn votingconfigs\n      SWAP1 \t\t\tfunction getDataDaoVotingConfi...\n      JUMP [out]\t\t\tfunction getDataDaoVotingConfi...\n    tag 81\t\t\tmapping(uint=>address[]) publi...\n      JUMPDEST \t\t\tmapping(uint=>address[]) publi...\n      PUSH 7\t\t\tmapping(uint=>address[]) publi...\n      PUSH 20\t\t\tmapping(uint=>address[]) publi...\n      MSTORE \t\t\tmapping(uint=>address[]) publi...\n      DUP2 \t\t\tmapping(uint=>address[]) publi...\n      PUSH 0\t\t\tmapping(uint=>address[]) publi...\n      MSTORE \t\t\tmapping(uint=>address[]) publi...\n      PUSH 40\t\t\tmapping(uint=>address[]) publi...\n      PUSH 0\t\t\tmapping(uint=>address[]) publi...\n      KECCAK256 \t\t\tmapping(uint=>address[]) publi...\n      DUP2 \t\t\tmapping(uint=>address[]) publi...\n      DUP2 \t\t\tmapping(uint=>address[]) publi...\n      SLOAD \t\t\tmapping(uint=>address[]) publi...\n      DUP2 \t\t\tmapping(uint=>address[]) publi...\n      LT \t\t\tmapping(uint=>address[]) publi...\n      PUSH [tag] 260\t\t\tmapping(uint=>address[]) publi...\n      JUMPI \t\t\tmapping(uint=>address[]) publi...\n      PUSH 0\t\t\tmapping(uint=>address[]) publi...\n      DUP1 \t\t\tmapping(uint=>address[]) publi...\n      REVERT \t\t\tmapping(uint=>address[]) publi...\n    tag 260\t\t\tmapping(uint=>address[]) publi...\n      JUMPDEST \t\t\tmapping(uint=>address[]) publi...\n      SWAP1 \t\t\tmapping(uint=>address[]) publi...\n      PUSH 0\t\t\tmapping(uint=>address[]) publi...\n      MSTORE \t\t\tmapping(uint=>address[]) publi...\n      PUSH 20\t\t\tmapping(uint=>address[]) publi...\n      PUSH 0\t\t\tmapping(uint=>address[]) publi...\n      KECCAK256 \t\t\tmapping(uint=>address[]) publi...\n      ADD \t\t\tmapping(uint=>address[]) publi...\n      PUSH 0\t\t\tmapping(uint=>address[]) publi...\n      SWAP2 \t\t\tmapping(uint=>address[]) publi...\n      POP \t\t\tmapping(uint=>address[]) publi...\n      SWAP2 \t\t\tmapping(uint=>address[]) publi...\n      POP \t\t\tmapping(uint=>address[]) publi...\n      SWAP1 \t\t\tmapping(uint=>address[]) publi...\n      SLOAD \t\t\tmapping(uint=>address[]) publi...\n      SWAP1 \t\t\tmapping(uint=>address[]) publi...\n      PUSH 100\t\t\tmapping(uint=>address[]) publi...\n      EXP \t\t\tmapping(uint=>address[]) publi...\n      SWAP1 \t\t\tmapping(uint=>address[]) publi...\n      DIV \t\t\tmapping(uint=>address[]) publi...\n      PUSH FFFFFFFFFFFFFFFFFFFFFFFFFFFFFFFFFFFFFFFF\t\t\tmapping(uint=>address[]) publi...\n      AND \t\t\tmapping(uint=>address[]) publi...\n      DUP2 \t\t\tmapping(uint=>address[]) publi...\n      JUMP [out]\t\t\tmapping(uint=>address[]) publi...\n    tag 85\t\t\t[]) public membersForDownvote;...\n      JUMPDEST \t\t\t[]) public membersForDownvote;...\n      PUSH [tag] 263\t\t\tproposalCreat\n      PUSH [tag] 264\t\t\tproposalCre\n      JUMP [in]\t\t\tproposalCreat\n    tag 263\t\t\tproposalCreat\n      JUMPDEST \t\t\tproposalCreat\n      PUSH [tag] 266\t\t\tntly in DAO\\r\\n    uint256 pub...\n      PUSH 0\t\t\tb\n      PUSH [tag] 267\t\t\tntly in DAO\\r\\n    u\n      JUMP [in]\t\t\tntly in DAO\\r\\n    uint256 pub...\n    tag 266\t\t\tntly in DAO\\r\\n    uint256 pub...\n      JUMPDEST \t\t\tntly in DAO\\r\\n    uint256 pub...\n      JUMP [out]\t\t\t[]) public membersForDownvote;...\n    tag 89\t\t\tfunction votingResult(uint _pr...\n      JUMPDEST \t\t\tfunction votingResult(uint _pr...\n      PUSH 0\t\t\tfalse\n      ISZERO \t\t\tproposals[_proposalId].votingR...\n      ISZERO \t\t\tproposals[_proposalId].votingR...\n      PUSH 4\t\t\tproposals\n      PUSH 0\t\t\tproposals[_proposalId]\n      DUP5 \t\t\t_proposalId\n      DUP2 \t\t\tproposals[_proposalId]\n      MSTORE \t\t\tproposals[_proposalId]\n      PUSH 20\t\t\tproposals[_proposalId]\n      ADD \t\t\tproposals[_proposalId]\n      SWAP1 \t\t\tproposals[_proposalId]\n      DUP2 \t\t\tproposals[_proposalId]\n      MSTORE \t\t\tproposals[_proposalId]\n      PUSH 20\t\t\tproposals[_proposalId]\n      ADD \t\t\tproposals[_proposalId]\n      PUSH 0\t\t\tproposals[_proposalId]\n      KECCAK256 \t\t\tproposals[_proposalId]\n      PUSH B\t\t\tproposals[_proposalId].votingR...\n      ADD \t\t\tproposals[_proposalId].votingR...\n      PUSH 0\t\t\tproposals[_proposalId].votingR...\n      SWAP1 \t\t\tproposals[_proposalId].votingR...\n      SLOAD \t\t\tproposals[_proposalId].votingR...\n      SWAP1 \t\t\tproposals[_proposalId].votingR...\n      PUSH 100\t\t\tproposals[_proposalId].votingR...\n      EXP \t\t\tproposals[_proposalId].votingR...\n      SWAP1 \t\t\tproposals[_proposalId].votingR...\n      DIV \t\t\tproposals[_proposalId].votingR...\n      PUSH FF\t\t\tproposals[_proposalId].votingR...\n      AND \t\t\tproposals[_proposalId].votingR...\n      ISZERO \t\t\tproposals[_proposalId].votingR...\n      ISZERO \t\t\tproposals[_proposalId].votingR...\n      EQ \t\t\tproposals[_proposalId].votingR...\n      PUSH [tag] 269\t\t\trequire(proposals[_proposalId]...\n      JUMPI \t\t\trequire(proposals[_proposalId]...\n      PUSH 40\t\t\trequire(proposals[_proposalId]...\n      MLOAD \t\t\trequire(proposals[_proposalId]...\n      PUSH 8C379A000000000000000000000000000000000000000000000000000000000\t\t\trequire(proposals[_proposalId]...\n      DUP2 \t\t\trequire(proposals[_proposalId]...\n      MSTORE \t\t\trequire(proposals[_proposalId]...\n      PUSH 4\t\t\trequire(proposals[_proposalId]...\n      ADD \t\t\trequire(proposals[_proposalId]...\n      PUSH [tag] 270\t\t\trequire(proposals[_proposalId]...\n      SWAP1 \t\t\trequire(proposals[_proposalId]...\n      PUSH [tag] 271\t\t\trequire(proposals[_proposalId]...\n      JUMP [in]\t\t\trequire(proposals[_proposalId]...\n    tag 270\t\t\trequire(proposals[_proposalId]...\n      JUMPDEST \t\t\trequire(proposals[_proposalId]...\n      PUSH 40\t\t\trequire(proposals[_proposalId]...\n      MLOAD \t\t\trequire(proposals[_proposalId]...\n      DUP1 \t\t\trequire(proposals[_proposalId]...\n      SWAP2 \t\t\trequire(proposals[_proposalId]...\n      SUB \t\t\trequire(proposals[_proposalId]...\n      SWAP1 \t\t\trequire(proposals[_proposalId]...\n      REVERT \t\t\trequire(proposals[_proposalId]...\n    tag 269\t\t\trequire(proposals[_proposalId]...\n      JUMPDEST \t\t\trequire(proposals[_proposalId]...\n      PUSH 0\t\t\tuint _totalVotes\n      PUSH 4\t\t\tproposals\n      PUSH 0\t\t\tproposals[_proposalId]\n      DUP5 \t\t\t_proposalId\n      DUP2 \t\t\tproposals[_proposalId]\n      MSTORE \t\t\tproposals[_proposalId]\n      PUSH 20\t\t\tproposals[_proposalId]\n      ADD \t\t\tproposals[_proposalId]\n      SWAP1 \t\t\tproposals[_proposalId]\n      DUP2 \t\t\tproposals[_proposalId]\n      MSTORE \t\t\tproposals[_proposalId]\n      PUSH 20\t\t\tproposals[_proposalId]\n      ADD \t\t\tproposals[_proposalId]\n      PUSH 0\t\t\tproposals[_proposalId]\n      KECCAK256 \t\t\tproposals[_proposalId]\n      PUSH 6\t\t\tproposals[_proposalId].downVot...\n      ADD \t\t\tproposals[_proposalId].downVot...\n      SLOAD \t\t\tproposals[_proposalId].downVot...\n      PUSH 4\t\t\tproposals\n      PUSH 0\t\t\tproposals[_proposalId]\n      DUP6 \t\t\t_proposalId\n      DUP2 \t\t\tproposals[_proposalId]\n      MSTORE \t\t\tproposals[_proposalId]\n      PUSH 20\t\t\tproposals[_proposalId]\n      ADD \t\t\tproposals[_proposalId]\n      SWAP1 \t\t\tproposals[_proposalId]\n      DUP2 \t\t\tproposals[_proposalId]\n      MSTORE \t\t\tproposals[_proposalId]\n      PUSH 20\t\t\tproposals[_proposalId]\n      ADD \t\t\tproposals[_proposalId]\n      PUSH 0\t\t\tproposals[_proposalId]\n      KECCAK256 \t\t\tproposals[_proposalId]\n      PUSH 5\t\t\tproposals[_proposalId].upVoteC...\n      ADD \t\t\tproposals[_proposalId].upVoteC...\n      SLOAD \t\t\tproposals[_proposalId].upVoteC...\n      PUSH [tag] 272\t\t\tproposals[_proposalId].upVoteC...\n      SWAP2 \t\t\tproposals[_proposalId].upVoteC...\n      SWAP1 \t\t\tproposals[_proposalId].upVoteC...\n      PUSH [tag] 196\t\t\tproposals[_proposalId].upVoteC...\n      JUMP [in]\t\t\tproposals[_proposalId].upVoteC...\n    tag 272\t\t\tproposals[_proposalId].upVoteC...\n      JUMPDEST \t\t\tproposals[_proposalId].upVoteC...\n      SWAP1 \t\t\tuint _totalVotes = proposals[_...\n      POP \t\t\tuint _totalVotes = proposals[_...\n      PUSH 64\t\t\t100\n      PUSH E\t\t\tvotingconfigs\n      PUSH 0\t\t\tvotingconfigs.condition\n      ADD \t\t\tvotingconfigs.condition\n      SLOAD \t\t\tvotingconfigs.condition\n      PUSH A\t\t\tallDaoMemberAddress\n      DUP1 \t\t\tallDaoMemberAddress.length\n      SLOAD \t\t\tallDaoMemberAddress.length\n      SWAP1 \t\t\tallDaoMemberAddress.length\n      POP \t\t\tallDaoMemberAddress.length\n      PUSH [tag] 273\t\t\tallDaoMemberAddress.length*vot...\n      SWAP2 \t\t\tallDaoMemberAddress.length*vot...\n      SWAP1 \t\t\tallDaoMemberAddress.length*vot...\n      PUSH [tag] 213\t\t\tallDaoMemberAddress.length*vot...\n      JUMP [in]\t\t\tallDaoMemberAddress.length*vot...\n    tag 273\t\t\tallDaoMemberAddress.length*vot...\n      JUMPDEST \t\t\tallDaoMemberAddress.length*vot...\n      PUSH [tag] 274\t\t\t(allDaoMemberAddress.length*vo...\n      SWAP2 \t\t\t(allDaoMemberAddress.length*vo...\n      SWAP1 \t\t\t(allDaoMemberAddress.length*vo...\n      PUSH [tag] 275\t\t\t(allDaoMemberAddress.length*vo...\n      JUMP [in]\t\t\t(allDaoMemberAddress.length*vo...\n    tag 274\t\t\t(allDaoMemberAddress.length*vo...\n      JUMPDEST \t\t\t(allDaoMemberAddress.length*vo...\n      DUP2 \t\t\t_totalVotes\n      GT \t\t\t_totalVotes>((allDaoMemberAddr...\n      ISZERO \t\t\tif(_totalVotes>((allDaoMemberA...\n      PUSH [tag] 276\t\t\tif(_totalVotes>((allDaoMemberA...\n      JUMPI \t\t\tif(_totalVotes>((allDaoMemberA...\n      PUSH 40\t\t\tproposals[_proposalId].status=...\n      MLOAD \t\t\tproposals[_proposalId].status=...\n      DUP1 \t\t\tproposals[_proposalId].status=...\n      PUSH 40\t\t\tproposals[_proposalId].status=...\n      ADD \t\t\tproposals[_proposalId].status=...\n      PUSH 40\t\t\tproposals[_proposalId].status=...\n      MSTORE \t\t\tproposals[_proposalId].status=...\n      DUP1 \t\t\tproposals[_proposalId].status=...\n      PUSH C\t\t\tproposals[_proposalId].status=...\n      DUP2 \t\t\tproposals[_proposalId].status=...\n      MSTORE \t\t\tproposals[_proposalId].status=...\n      PUSH 20\t\t\tproposals[_proposalId].status=...\n      ADD \t\t\tproposals[_proposalId].status=...\n      PUSH 7175657374696F6E61626C650000000000000000000000000000000000000000\t\t\tproposals[_proposalId].status=...\n      DUP2 \t\t\tproposals[_proposalId].status=...\n      MSTORE \t\t\tproposals[_proposalId].status=...\n      POP \t\t\tproposals[_proposalId].status=...\n      PUSH 4\t\t\tproposals\n      PUSH 0\t\t\tproposals[_proposalId]\n      DUP6 \t\t\t_proposalId\n      DUP2 \t\t\tproposals[_proposalId]\n      MSTORE \t\t\tproposals[_proposalId]\n      PUSH 20\t\t\tproposals[_proposalId]\n      ADD \t\t\tproposals[_proposalId]\n      SWAP1 \t\t\tproposals[_proposalId]\n      DUP2 \t\t\tproposals[_proposalId]\n      MSTORE \t\t\tproposals[_proposalId]\n      PUSH 20\t\t\tproposals[_proposalId]\n      ADD \t\t\tproposals[_proposalId]\n      PUSH 0\t\t\tproposals[_proposalId]\n      KECCAK256 \t\t\tproposals[_proposalId]\n      PUSH A\t\t\tproposals[_proposalId].status\n      ADD \t\t\tproposals[_proposalId].status\n      SWAP1 \t\t\tproposals[_proposalId].status=...\n      DUP1 \t\t\tproposals[_proposalId].status=...\n      MLOAD \t\t\tproposals[_proposalId].status=...\n      SWAP1 \t\t\tproposals[_proposalId].status=...\n      PUSH 20\t\t\tproposals[_proposalId].status=...\n      ADD \t\t\tproposals[_proposalId].status=...\n      SWAP1 \t\t\tproposals[_proposalId].status=...\n      PUSH [tag] 277\t\t\tproposals[_proposalId].status=...\n      SWAP3 \t\t\tproposals[_proposalId].status=...\n      SWAP2 \t\t\tproposals[_proposalId].status=...\n      SWAP1 \t\t\tproposals[_proposalId].status=...\n      PUSH [tag] 253\t\t\tproposals[_proposalId].status=...\n      JUMP [in]\t\t\tproposals[_proposalId].status=...\n    tag 277\t\t\tproposals[_proposalId].status=...\n      JUMPDEST \t\t\tproposals[_proposalId].status=...\n      POP \t\t\tproposals[_proposalId].status=...\n      PUSH [tag] 278\t\t\tif(_totalVotes>((allDaoMemberA...\n      JUMP \t\t\tif(_totalVotes>((allDaoMemberA...\n    tag 276\t\t\tif(_totalVotes>((allDaoMemberA...\n      JUMPDEST \t\t\tif(_totalVotes>((allDaoMemberA...\n      PUSH E\t\t\tvotingconfigs\n      PUSH 1\t\t\tvotingconfigs.minimunApproval\n      ADD \t\t\tvotingconfigs.minimunApproval\n      SLOAD \t\t\tvotingconfigs.minimunApproval\n      PUSH 64\t\t\t100\n      DUP3 \t\t\t_totalVotes\n      PUSH 4\t\t\tproposals\n      PUSH 0\t\t\tproposals[_proposalId]\n      DUP8 \t\t\t_proposalId\n      DUP2 \t\t\tproposals[_proposalId]\n      MSTORE \t\t\tproposals[_proposalId]\n      PUSH 20\t\t\tproposals[_proposalId]\n      ADD \t\t\tproposals[_proposalId]\n      SWAP1 \t\t\tproposals[_proposalId]\n      DUP2 \t\t\tproposals[_proposalId]\n      MSTORE \t\t\tproposals[_proposalId]\n      PUSH 20\t\t\tproposals[_proposalId]\n      ADD \t\t\tproposals[_proposalId]\n      PUSH 0\t\t\tproposals[_proposalId]\n      KECCAK256 \t\t\tproposals[_proposalId]\n      PUSH 5\t\t\tproposals[_proposalId].upVoteC...\n      ADD \t\t\tproposals[_proposalId].upVoteC...\n      SLOAD \t\t\tproposals[_proposalId].upVoteC...\n      PUSH [tag] 279\t\t\tproposals[_proposalId].upVoteC...\n      SWAP2 \t\t\tproposals[_proposalId].upVoteC...\n      SWAP1 \t\t\tproposals[_proposalId].upVoteC...\n      PUSH [tag] 275\t\t\tproposals[_proposalId].upVoteC...\n      JUMP [in]\t\t\tproposals[_proposalId].upVoteC...\n    tag 279\t\t\tproposals[_proposalId].upVoteC...\n      JUMPDEST \t\t\tproposals[_proposalId].upVoteC...\n      PUSH [tag] 280\t\t\t(proposals[_proposalId].upVote...\n      SWAP2 \t\t\t(proposals[_proposalId].upVote...\n      SWAP1 \t\t\t(proposals[_proposalId].upVote...\n      PUSH [tag] 213\t\t\t(proposals[_proposalId].upVote...\n      JUMP [in]\t\t\t(proposals[_proposalId].upVote...\n    tag 280\t\t\t(proposals[_proposalId].upVote...\n      JUMPDEST \t\t\t(proposals[_proposalId].upVote...\n      GT \t\t\t((proposals[_proposalId].upVot...\n      ISZERO \t\t\tif(((proposals[_proposalId].up...\n      PUSH [tag] 281\t\t\tif(((proposals[_proposalId].up...\n      JUMPI \t\t\tif(((proposals[_proposalId].up...\n      PUSH 40\t\t\tproposals[_proposalId].status=...\n      MLOAD \t\t\tproposals[_proposalId].status=...\n      DUP1 \t\t\tproposals[_proposalId].status=...\n      PUSH 40\t\t\tproposals[_proposalId].status=...\n      ADD \t\t\tproposals[_proposalId].status=...\n      PUSH 40\t\t\tproposals[_proposalId].status=...\n      MSTORE \t\t\tproposals[_proposalId].status=...\n      DUP1 \t\t\tproposals[_proposalId].status=...\n      PUSH 8\t\t\tproposals[_proposalId].status=...\n      DUP2 \t\t\tproposals[_proposalId].status=...\n      MSTORE \t\t\tproposals[_proposalId].status=...\n      PUSH 20\t\t\tproposals[_proposalId].status=...\n      ADD \t\t\tproposals[_proposalId].status=...\n      PUSH 617070726F766564000000000000000000000000000000000000000000000000\t\t\tproposals[_proposalId].status=...\n      DUP2 \t\t\tproposals[_proposalId].status=...\n      MSTORE \t\t\tproposals[_proposalId].status=...\n      POP \t\t\tproposals[_proposalId].status=...\n      PUSH 4\t\t\tproposals\n      PUSH 0\t\t\tproposals[_proposalId]\n      DUP6 \t\t\t_proposalId\n      DUP2 \t\t\tproposals[_proposalId]\n      MSTORE \t\t\tproposals[_proposalId]\n      PUSH 20\t\t\tproposals[_proposalId]\n      ADD \t\t\tproposals[_proposalId]\n      SWAP1 \t\t\tproposals[_proposalId]\n      DUP2 \t\t\tproposals[_proposalId]\n      MSTORE \t\t\tproposals[_proposalId]\n      PUSH 20\t\t\tproposals[_proposalId]\n      ADD \t\t\tproposals[_proposalId]\n      PUSH 0\t\t\tproposals[_proposalId]\n      KECCAK256 \t\t\tproposals[_proposalId]\n      PUSH A\t\t\tproposals[_proposalId].status\n      ADD \t\t\tproposals[_proposalId].status\n      SWAP1 \t\t\tproposals[_proposalId].status=...\n      DUP1 \t\t\tproposals[_proposalId].status=...\n      MLOAD \t\t\tproposals[_proposalId].status=...\n      SWAP1 \t\t\tproposals[_proposalId].status=...\n      PUSH 20\t\t\tproposals[_proposalId].status=...\n      ADD \t\t\tproposals[_proposalId].status=...\n      SWAP1 \t\t\tproposals[_proposalId].status=...\n      PUSH [tag] 282\t\t\tproposals[_proposalId].status=...\n      SWAP3 \t\t\tproposals[_proposalId].status=...\n      SWAP2 \t\t\tproposals[_proposalId].status=...\n      SWAP1 \t\t\tproposals[_proposalId].status=...\n      PUSH [tag] 253\t\t\tproposals[_proposalId].status=...\n      JUMP [in]\t\t\tproposals[_proposalId].status=...\n    tag 282\t\t\tproposals[_proposalId].status=...\n      JUMPDEST \t\t\tproposals[_proposalId].status=...\n      POP \t\t\tproposals[_proposalId].status=...\n      PUSH 0\t\t\taddress _member\n      PUSH 4\t\t\tproposals\n      PUSH 0\t\t\tproposals[_proposalId]\n      DUP6 \t\t\t_proposalId\n      DUP2 \t\t\tproposals[_proposalId]\n      MSTORE \t\t\tproposals[_proposalId]\n      PUSH 20\t\t\tproposals[_proposalId]\n      ADD \t\t\tproposals[_proposalId]\n      SWAP1 \t\t\tproposals[_proposalId]\n      DUP2 \t\t\tproposals[_proposalId]\n      MSTORE \t\t\tproposals[_proposalId]\n      PUSH 20\t\t\tproposals[_proposalId]\n      ADD \t\t\tproposals[_proposalId]\n      PUSH 0\t\t\tproposals[_proposalId]\n      KECCAK256 \t\t\tproposals[_proposalId]\n      PUSH 4\t\t\tproposals[_proposalId].proposa...\n      ADD \t\t\tproposals[_proposalId].proposa...\n      PUSH 0\t\t\tproposals[_proposalId].proposa...\n      SWAP1 \t\t\tproposals[_proposalId].proposa...\n      SLOAD \t\t\tproposals[_proposalId].proposa...\n      SWAP1 \t\t\tproposals[_proposalId].proposa...\n      PUSH 100\t\t\tproposals[_proposalId].proposa...\n      EXP \t\t\tproposals[_proposalId].proposa...\n      SWAP1 \t\t\tproposals[_proposalId].proposa...\n      DIV \t\t\tproposals[_proposalId].proposa...\n      PUSH FFFFFFFFFFFFFFFFFFFFFFFFFFFFFFFFFFFFFFFF\t\t\tproposals[_proposalId].proposa...\n      AND \t\t\tproposals[_proposalId].proposa...\n      SWAP1 \t\t\taddress _member = proposals[_p...\n      POP \t\t\taddress _member = proposals[_p...\n      PUSH E\t\t\tvotingconfigs\n      PUSH 4\t\t\tvotingconfigs.proposalStake\n      ADD \t\t\tvotingconfigs.proposalStake\n      SLOAD \t\t\tvotingconfigs.proposalStake\n      PUSH C\t\t\tmemberWithdrawAmount\n      PUSH 0\t\t\tmemberWithdrawAmount[_member]\n      DUP4 \t\t\t_member\n      PUSH FFFFFFFFFFFFFFFFFFFFFFFFFFFFFFFFFFFFFFFF\t\t\tmemberWithdrawAmount[_member]\n      AND \t\t\tmemberWithdrawAmount[_member]\n      PUSH FFFFFFFFFFFFFFFFFFFFFFFFFFFFFFFFFFFFFFFF\t\t\tmemberWithdrawAmount[_member]\n      AND \t\t\tmemberWithdrawAmount[_member]\n      DUP2 \t\t\tmemberWithdrawAmount[_member]\n      MSTORE \t\t\tmemberWithdrawAmount[_member]\n      PUSH 20\t\t\tmemberWithdrawAmount[_member]\n      ADD \t\t\tmemberWithdrawAmount[_member]\n      SWAP1 \t\t\tmemberWithdrawAmount[_member]\n      DUP2 \t\t\tmemberWithdrawAmount[_member]\n      MSTORE \t\t\tmemberWithdrawAmount[_member]\n      PUSH 20\t\t\tmemberWithdrawAmount[_member]\n      ADD \t\t\tmemberWithdrawAmount[_member]\n      PUSH 0\t\t\tmemberWithdrawAmount[_member]\n      KECCAK256 \t\t\tmemberWithdrawAmount[_member]\n      PUSH 0\t\t\tmemberWithdrawAmount[_member]\n      DUP3 \t\t\tmemberWithdrawAmount[_member] ...\n      DUP3 \t\t\tmemberWithdrawAmount[_member] ...\n      SLOAD \t\t\tmemberWithdrawAmount[_member] ...\n      PUSH [tag] 283\t\t\tmemberWithdrawAmount[_member] ...\n      SWAP2 \t\t\tmemberWithdrawAmount[_member] ...\n      SWAP1 \t\t\tmemberWithdrawAmount[_member] ...\n      PUSH [tag] 196\t\t\tmemberWithdrawAmount[_member] ...\n      JUMP [in]\t\t\tmemberWithdrawAmount[_member] ...\n    tag 283\t\t\tmemberWithdrawAmount[_member] ...\n      JUMPDEST \t\t\tmemberWithdrawAmount[_member] ...\n      SWAP3 \t\t\tmemberWithdrawAmount[_member] ...\n      POP \t\t\tmemberWithdrawAmount[_member] ...\n      POP \t\t\tmemberWithdrawAmount[_member] ...\n      DUP2 \t\t\tmemberWithdrawAmount[_member] ...\n      SWAP1 \t\t\tmemberWithdrawAmount[_member] ...\n      SSTORE \t\t\tmemberWithdrawAmount[_member] ...\n      POP \t\t\tmemberWithdrawAmount[_member] ...\n      PUSH 0\t\t\tuint i\n    tag 284\t\t\tfor(uint i=0;i<membersForUpvot...\n      JUMPDEST \t\t\tfor(uint i=0;i<membersForUpvot...\n      PUSH 7\t\t\tmembersForUpvote\n      PUSH 0\t\t\tmembersForUpvote[_proposalId]\n      DUP7 \t\t\t_proposalId\n      DUP2 \t\t\tmembersForUpvote[_proposalId]\n      MSTORE \t\t\tmembersForUpvote[_proposalId]\n      PUSH 20\t\t\tmembersForUpvote[_proposalId]\n      ADD \t\t\tmembersForUpvote[_proposalId]\n      SWAP1 \t\t\tmembersForUpvote[_proposalId]\n      DUP2 \t\t\tmembersForUpvote[_proposalId]\n      MSTORE \t\t\tmembersForUpvote[_proposalId]\n      PUSH 20\t\t\tmembersForUpvote[_proposalId]\n      ADD \t\t\tmembersForUpvote[_proposalId]\n      PUSH 0\t\t\tmembersForUpvote[_proposalId]\n      KECCAK256 \t\t\tmembersForUpvote[_proposalId]\n      DUP1 \t\t\tmembersForUpvote[_proposalId]....\n      SLOAD \t\t\tmembersForUpvote[_proposalId]....\n      SWAP1 \t\t\tmembersForUpvote[_proposalId]....\n      POP \t\t\tmembersForUpvote[_proposalId]....\n      DUP2 \t\t\ti\n      LT \t\t\ti<membersForUpvote[_proposalId...\n      ISZERO \t\t\tfor(uint i=0;i<membersForUpvot...\n      PUSH [tag] 285\t\t\tfor(uint i=0;i<membersForUpvot...\n      JUMPI \t\t\tfor(uint i=0;i<membersForUpvot...\n      PUSH E\t\t\tvotingconfigs\n      PUSH 3\t\t\tvotingconfigs.votingStake\n      ADD \t\t\tvotingconfigs.votingStake\n      SLOAD \t\t\tvotingconfigs.votingStake\n      PUSH C\t\t\tmemberWithdrawAmount\n      PUSH 0\t\t\tmemberWithdrawAmount[membersFo...\n      PUSH 7\t\t\tmembersForUpvote\n      PUSH 0\t\t\tmembersForUpvote[_proposalId]\n      DUP10 \t\t\t_proposalId\n      DUP2 \t\t\tmembersForUpvote[_proposalId]\n      MSTORE \t\t\tmembersForUpvote[_proposalId]\n      PUSH 20\t\t\tmembersForUpvote[_proposalId]\n      ADD \t\t\tmembersForUpvote[_proposalId]\n      SWAP1 \t\t\tmembersForUpvote[_proposalId]\n      DUP2 \t\t\tmembersForUpvote[_proposalId]\n      MSTORE \t\t\tmembersForUpvote[_proposalId]\n      PUSH 20\t\t\tmembersForUpvote[_proposalId]\n      ADD \t\t\tmembersForUpvote[_proposalId]\n      PUSH 0\t\t\tmembersForUpvote[_proposalId]\n      KECCAK256 \t\t\tmembersForUpvote[_proposalId]\n      DUP5 \t\t\ti\n      DUP2 \t\t\tmembersForUpvote[_proposalId][...\n      SLOAD \t\t\tmembersForUpvote[_proposalId][...\n      DUP2 \t\t\tmembersForUpvote[_proposalId][...\n      LT \t\t\tmembersForUpvote[_proposalId][...\n      PUSH [tag] 287\t\t\tmembersForUpvote[_proposalId][...\n      JUMPI \t\t\tmembersForUpvote[_proposalId][...\n      PUSH [tag] 288\t\t\tmembersForUpvote[_proposalId][...\n      PUSH [tag] 289\t\t\tmembersForUpvote[_proposalId][...\n      JUMP [in]\t\t\tmembersForUpvote[_proposalId][...\n    tag 288\t\t\tmembersForUpvote[_proposalId][...\n      JUMPDEST \t\t\tmembersForUpvote[_proposalId][...\n    tag 287\t\t\tmembersForUpvote[_proposalId][...\n      JUMPDEST \t\t\tmembersForUpvote[_proposalId][...\n      SWAP1 \t\t\tmembersForUpvote[_proposalId][...\n      PUSH 0\t\t\tmembersForUpvote[_proposalId][...\n      MSTORE \t\t\tmembersForUpvote[_proposalId][...\n      PUSH 20\t\t\tmembersForUpvote[_proposalId][...\n      PUSH 0\t\t\tmembersForUpvote[_proposalId][...\n      KECCAK256 \t\t\tmembersForUpvote[_proposalId][...\n      ADD \t\t\tmembersForUpvote[_proposalId][...\n      PUSH 0\t\t\tmembersForUpvote[_proposalId][...\n      SWAP1 \t\t\tmembersForUpvote[_proposalId][...\n      SLOAD \t\t\tmembersForUpvote[_proposalId][...\n      SWAP1 \t\t\tmembersForUpvote[_proposalId][...\n      PUSH 100\t\t\tmembersForUpvote[_proposalId][...\n      EXP \t\t\tmembersForUpvote[_proposalId][...\n      SWAP1 \t\t\tmembersForUpvote[_proposalId][...\n      DIV \t\t\tmembersForUpvote[_proposalId][...\n      PUSH FFFFFFFFFFFFFFFFFFFFFFFFFFFFFFFFFFFFFFFF\t\t\tmembersForUpvote[_proposalId][...\n      AND \t\t\tmembersForUpvote[_proposalId][...\n      PUSH FFFFFFFFFFFFFFFFFFFFFFFFFFFFFFFFFFFFFFFF\t\t\tmemberWithdrawAmount[membersFo...\n      AND \t\t\tmemberWithdrawAmount[membersFo...\n      PUSH FFFFFFFFFFFFFFFFFFFFFFFFFFFFFFFFFFFFFFFF\t\t\tmemberWithdrawAmount[membersFo...\n      AND \t\t\tmemberWithdrawAmount[membersFo...\n      DUP2 \t\t\tmemberWithdrawAmount[membersFo...\n      MSTORE \t\t\tmemberWithdrawAmount[membersFo...\n      PUSH 20\t\t\tmemberWithdrawAmount[membersFo...\n      ADD \t\t\tmemberWithdrawAmount[membersFo...\n      SWAP1 \t\t\tmemberWithdrawAmount[membersFo...\n      DUP2 \t\t\tmemberWithdrawAmount[membersFo...\n      MSTORE \t\t\tmemberWithdrawAmount[membersFo...\n      PUSH 20\t\t\tmemberWithdrawAmount[membersFo...\n      ADD \t\t\tmemberWithdrawAmount[membersFo...\n      PUSH 0\t\t\tmemberWithdrawAmount[membersFo...\n      KECCAK256 \t\t\tmemberWithdrawAmount[membersFo...\n      PUSH 0\t\t\tmemberWithdrawAmount[membersFo...\n      DUP3 \t\t\tmemberWithdrawAmount[membersFo...\n      DUP3 \t\t\tmemberWithdrawAmount[membersFo...\n      SLOAD \t\t\tmemberWithdrawAmount[membersFo...\n      PUSH [tag] 291\t\t\tmemberWithdrawAmount[membersFo...\n      SWAP2 \t\t\tmemberWithdrawAmount[membersFo...\n      SWAP1 \t\t\tmemberWithdrawAmount[membersFo...\n      PUSH [tag] 196\t\t\tmemberWithdrawAmount[membersFo...\n      JUMP [in]\t\t\tmemberWithdrawAmount[membersFo...\n    tag 291\t\t\tmemberWithdrawAmount[membersFo...\n      JUMPDEST \t\t\tmemberWithdrawAmount[membersFo...\n      SWAP3 \t\t\tmemberWithdrawAmount[membersFo...\n      POP \t\t\tmemberWithdrawAmount[membersFo...\n      POP \t\t\tmemberWithdrawAmount[membersFo...\n      DUP2 \t\t\tmemberWithdrawAmount[membersFo...\n      SWAP1 \t\t\tmemberWithdrawAmount[membersFo...\n      SSTORE \t\t\tmemberWithdrawAmount[membersFo...\n      POP \t\t\tmemberWithdrawAmount[membersFo...\n      DUP1 \t\t\ti++\n      DUP1 \t\t\ti++\n      PUSH [tag] 292\t\t\ti++\n      SWAP1 \t\t\ti++\n      PUSH [tag] 250\t\t\ti++\n      JUMP [in]\t\t\ti++\n    tag 292\t\t\ti++\n      JUMPDEST \t\t\ti++\n      SWAP2 \t\t\ti++\n      POP \t\t\ti++\n      POP \t\t\ti++\n      PUSH [tag] 284\t\t\tfor(uint i=0;i<membersForUpvot...\n      JUMP \t\t\tfor(uint i=0;i<membersForUpvot...\n    tag 285\t\t\tfor(uint i=0;i<membersForUpvot...\n      JUMPDEST \t\t\tfor(uint i=0;i<membersForUpvot...\n      POP \t\t\tfor(uint i=0;i<membersForUpvot...\n      PUSH 0\t\t\t0\n      PUSH 4\t\t\tproposals\n      PUSH 0\t\t\tproposals[_proposalId]\n      DUP7 \t\t\t_proposalId\n      DUP2 \t\t\tproposals[_proposalId]\n      MSTORE \t\t\tproposals[_proposalId]\n      PUSH 20\t\t\tproposals[_proposalId]\n      ADD \t\t\tproposals[_proposalId]\n      SWAP1 \t\t\tproposals[_proposalId]\n      DUP2 \t\t\tproposals[_proposalId]\n      MSTORE \t\t\tproposals[_proposalId]\n      PUSH 20\t\t\tproposals[_proposalId]\n      ADD \t\t\tproposals[_proposalId]\n      PUSH 0\t\t\tproposals[_proposalId]\n      KECCAK256 \t\t\tproposals[_proposalId]\n      PUSH 9\t\t\tproposals[_proposalId].templat...\n      ADD \t\t\tproposals[_proposalId].templat...\n      SLOAD \t\t\tproposals[_proposalId].templat...\n      GT \t\t\tproposals[_proposalId].templat...\n      ISZERO \t\t\tif(proposals[_proposalId].temp...\n      PUSH [tag] 293\t\t\tif(proposals[_proposalId].temp...\n      JUMPI \t\t\tif(proposals[_proposalId].temp...\n      PUSH 0\t\t\taddress creator\n      PUSH 2\t\t\ttemplateNFT\n      PUSH 0\t\t\ttemplateNFT\n      SWAP1 \t\t\ttemplateNFT\n      SLOAD \t\t\ttemplateNFT\n      SWAP1 \t\t\ttemplateNFT\n      PUSH 100\t\t\ttemplateNFT\n      EXP \t\t\ttemplateNFT\n      SWAP1 \t\t\ttemplateNFT\n      DIV \t\t\ttemplateNFT\n      PUSH FFFFFFFFFFFFFFFFFFFFFFFFFFFFFFFFFFFFFFFF\t\t\ttemplateNFT\n      AND \t\t\ttemplateNFT\n      PUSH FFFFFFFFFFFFFFFFFFFFFFFFFFFFFFFFFFFFFFFF\t\t\ttemplateNFT.getTemplateDetails\n      AND \t\t\ttemplateNFT.getTemplateDetails\n      PUSH CEBF64F5\t\t\ttemplateNFT.getTemplateDetails\n      DUP6 \t\t\t_templateId\n      PUSH 40\t\t\ttemplateNFT.getTemplateDetails...\n      MLOAD \t\t\ttemplateNFT.getTemplateDetails...\n      DUP3 \t\t\ttemplateNFT.getTemplateDetails...\n      PUSH FFFFFFFF\t\t\ttemplateNFT.getTemplateDetails...\n      AND \t\t\ttemplateNFT.getTemplateDetails...\n      PUSH E0\t\t\ttemplateNFT.getTemplateDetails...\n      SHL \t\t\ttemplateNFT.getTemplateDetails...\n      DUP2 \t\t\ttemplateNFT.getTemplateDetails...\n      MSTORE \t\t\ttemplateNFT.getTemplateDetails...\n      PUSH 4\t\t\ttemplateNFT.getTemplateDetails...\n      ADD \t\t\ttemplateNFT.getTemplateDetails...\n      PUSH [tag] 294\t\t\ttemplateNFT.getTemplateDetails...\n      SWAP2 \t\t\ttemplateNFT.getTemplateDetails...\n      SWAP1 \t\t\ttemplateNFT.getTemplateDetails...\n      PUSH [tag] 64\t\t\ttemplateNFT.getTemplateDetails...\n      JUMP [in]\t\t\ttemplateNFT.getTemplateDetails...\n    tag 294\t\t\ttemplateNFT.getTemplateDetails...\n      JUMPDEST \t\t\ttemplateNFT.getTemplateDetails...\n      PUSH 20\t\t\ttemplateNFT.getTemplateDetails...\n      PUSH 40\t\t\ttemplateNFT.getTemplateDetails...\n      MLOAD \t\t\ttemplateNFT.getTemplateDetails...\n      DUP1 \t\t\ttemplateNFT.getTemplateDetails...\n      DUP4 \t\t\ttemplateNFT.getTemplateDetails...\n      SUB \t\t\ttemplateNFT.getTemplateDetails...\n      DUP2 \t\t\ttemplateNFT.getTemplateDetails...\n      DUP7 \t\t\ttemplateNFT.getTemplateDetails...\n      DUP1 \t\t\ttemplateNFT.getTemplateDetails...\n      EXTCODESIZE \t\t\ttemplateNFT.getTemplateDetails...\n      ISZERO \t\t\ttemplateNFT.getTemplateDetails...\n      DUP1 \t\t\ttemplateNFT.getTemplateDetails...\n      ISZERO \t\t\ttemplateNFT.getTemplateDetails...\n      PUSH [tag] 295\t\t\ttemplateNFT.getTemplateDetails...\n      JUMPI \t\t\ttemplateNFT.getTemplateDetails...\n      PUSH 0\t\t\ttemplateNFT.getTemplateDetails...\n      DUP1 \t\t\ttemplateNFT.getTemplateDetails...\n      REVERT \t\t\ttemplateNFT.getTemplateDetails...\n    tag 295\t\t\ttemplateNFT.getTemplateDetails...\n      JUMPDEST \t\t\ttemplateNFT.getTemplateDetails...\n      POP \t\t\ttemplateNFT.getTemplateDetails...\n      GAS \t\t\ttemplateNFT.getTemplateDetails...\n      STATICCALL \t\t\ttemplateNFT.getTemplateDetails...\n      ISZERO \t\t\ttemplateNFT.getTemplateDetails...\n      DUP1 \t\t\ttemplateNFT.getTemplateDetails...\n      ISZERO \t\t\ttemplateNFT.getTemplateDetails...\n      PUSH [tag] 297\t\t\ttemplateNFT.getTemplateDetails...\n      JUMPI \t\t\ttemplateNFT.getTemplateDetails...\n      RETURNDATASIZE \t\t\ttemplateNFT.getTemplateDetails...\n      PUSH 0\t\t\ttemplateNFT.getTemplateDetails...\n      DUP1 \t\t\ttemplateNFT.getTemplateDetails...\n      RETURNDATACOPY \t\t\ttemplateNFT.getTemplateDetails...\n      RETURNDATASIZE \t\t\ttemplateNFT.getTemplateDetails...\n      PUSH 0\t\t\ttemplateNFT.getTemplateDetails...\n      REVERT \t\t\ttemplateNFT.getTemplateDetails...\n    tag 297\t\t\ttemplateNFT.getTemplateDetails...\n      JUMPDEST \t\t\ttemplateNFT.getTemplateDetails...\n      POP \t\t\ttemplateNFT.getTemplateDetails...\n      POP \t\t\ttemplateNFT.getTemplateDetails...\n      POP \t\t\ttemplateNFT.getTemplateDetails...\n      POP \t\t\ttemplateNFT.getTemplateDetails...\n      PUSH 40\t\t\ttemplateNFT.getTemplateDetails...\n      MLOAD \t\t\ttemplateNFT.getTemplateDetails...\n      RETURNDATASIZE \t\t\ttemplateNFT.getTemplateDetails...\n      PUSH 1F\t\t\ttemplateNFT.getTemplateDetails...\n      NOT \t\t\ttemplateNFT.getTemplateDetails...\n      PUSH 1F\t\t\ttemplateNFT.getTemplateDetails...\n      DUP3 \t\t\ttemplateNFT.getTemplateDetails...\n      ADD \t\t\ttemplateNFT.getTemplateDetails...\n      AND \t\t\ttemplateNFT.getTemplateDetails...\n      DUP3 \t\t\ttemplateNFT.getTemplateDetails...\n      ADD \t\t\ttemplateNFT.getTemplateDetails...\n      DUP1 \t\t\ttemplateNFT.getTemplateDetails...\n      PUSH 40\t\t\ttemplateNFT.getTemplateDetails...\n      MSTORE \t\t\ttemplateNFT.getTemplateDetails...\n      POP \t\t\ttemplateNFT.getTemplateDetails...\n      DUP2 \t\t\ttemplateNFT.getTemplateDetails...\n      ADD \t\t\ttemplateNFT.getTemplateDetails...\n      SWAP1 \t\t\ttemplateNFT.getTemplateDetails...\n      PUSH [tag] 298\t\t\ttemplateNFT.getTemplateDetails...\n      SWAP2 \t\t\ttemplateNFT.getTemplateDetails...\n      SWAP1 \t\t\ttemplateNFT.getTemplateDetails...\n      PUSH [tag] 299\t\t\ttemplateNFT.getTemplateDetails...\n      JUMP [in]\t\t\ttemplateNFT.getTemplateDetails...\n    tag 298\t\t\ttemplateNFT.getTemplateDetails...\n      JUMPDEST \t\t\ttemplateNFT.getTemplateDetails...\n      SWAP1 \t\t\taddress creator = templateNFT....\n      POP \t\t\taddress creator = templateNFT....\n      PUSH 0\t\t\tIERC20 _token\n      PUSH 14\t\t\tchargeTokenAddress\n      PUSH 0\t\t\tchargeTokenAddress\n      SWAP1 \t\t\tchargeTokenAddress\n      SLOAD \t\t\tchargeTokenAddress\n      SWAP1 \t\t\tchargeTokenAddress\n      PUSH 100\t\t\tchargeTokenAddress\n      EXP \t\t\tchargeTokenAddress\n      SWAP1 \t\t\tchargeTokenAddress\n      DIV \t\t\tchargeTokenAddress\n      PUSH FFFFFFFFFFFFFFFFFFFFFFFFFFFFFFFFFFFFFFFF\t\t\tchargeTokenAddress\n      AND \t\t\tchargeTokenAddress\n      SWAP1 \t\t\tIERC20 _token = IERC20(chargeT...\n      POP \t\t\tIERC20 _token = IERC20(chargeT...\n      PUSH 13\t\t\troyaltyFee\n      SLOAD \t\t\troyaltyFee\n      DUP2 \t\t\t_token\n      PUSH FFFFFFFFFFFFFFFFFFFFFFFFFFFFFFFFFFFFFFFF\t\t\t_token.allowance\n      AND \t\t\t_token.allowance\n      PUSH DD62ED3E\t\t\t_token.allowance\n      CALLER \t\t\tmsg.sender\n      ADDRESS \t\t\tthis\n      PUSH 40\t\t\t_token.allowance(msg.sender, a...\n      MLOAD \t\t\t_token.allowance(msg.sender, a...\n      DUP4 \t\t\t_token.allowance(msg.sender, a...\n      PUSH FFFFFFFF\t\t\t_token.allowance(msg.sender, a...\n      AND \t\t\t_token.allowance(msg.sender, a...\n      PUSH E0\t\t\t_token.allowance(msg.sender, a...\n      SHL \t\t\t_token.allowance(msg.sender, a...\n      DUP2 \t\t\t_token.allowance(msg.sender, a...\n      MSTORE \t\t\t_token.allowance(msg.sender, a...\n      PUSH 4\t\t\t_token.allowance(msg.sender, a...\n      ADD \t\t\t_token.allowance(msg.sender, a...\n      PUSH [tag] 300\t\t\t_token.allowance(msg.sender, a...\n      SWAP3 \t\t\t_token.allowance(msg.sender, a...\n      SWAP2 \t\t\t_token.allowance(msg.sender, a...\n      SWAP1 \t\t\t_token.allowance(msg.sender, a...\n      PUSH [tag] 301\t\t\t_token.allowance(msg.sender, a...\n      JUMP [in]\t\t\t_token.allowance(msg.sender, a...\n    tag 300\t\t\t_token.allowance(msg.sender, a...\n      JUMPDEST \t\t\t_token.allowance(msg.sender, a...\n      PUSH 20\t\t\t_token.allowance(msg.sender, a...\n      PUSH 40\t\t\t_token.allowance(msg.sender, a...\n      MLOAD \t\t\t_token.allowance(msg.sender, a...\n      DUP1 \t\t\t_token.allowance(msg.sender, a...\n      DUP4 \t\t\t_token.allowance(msg.sender, a...\n      SUB \t\t\t_token.allowance(msg.sender, a...\n      DUP2 \t\t\t_token.allowance(msg.sender, a...\n      DUP7 \t\t\t_token.allowance(msg.sender, a...\n      DUP1 \t\t\t_token.allowance(msg.sender, a...\n      EXTCODESIZE \t\t\t_token.allowance(msg.sender, a...\n      ISZERO \t\t\t_token.allowance(msg.sender, a...\n      DUP1 \t\t\t_token.allowance(msg.sender, a...\n      ISZERO \t\t\t_token.allowance(msg.sender, a...\n      PUSH [tag] 302\t\t\t_token.allowance(msg.sender, a...\n      JUMPI \t\t\t_token.allowance(msg.sender, a...\n      PUSH 0\t\t\t_token.allowance(msg.sender, a...\n      DUP1 \t\t\t_token.allowance(msg.sender, a...\n      REVERT \t\t\t_token.allowance(msg.sender, a...\n    tag 302\t\t\t_token.allowance(msg.sender, a...\n      JUMPDEST \t\t\t_token.allowance(msg.sender, a...\n      POP \t\t\t_token.allowance(msg.sender, a...\n      GAS \t\t\t_token.allowance(msg.sender, a...\n      STATICCALL \t\t\t_token.allowance(msg.sender, a...\n      ISZERO \t\t\t_token.allowance(msg.sender, a...\n      DUP1 \t\t\t_token.allowance(msg.sender, a...\n      ISZERO \t\t\t_token.allowance(msg.sender, a...\n      PUSH [tag] 304\t\t\t_token.allowance(msg.sender, a...\n      JUMPI \t\t\t_token.allowance(msg.sender, a...\n      RETURNDATASIZE \t\t\t_token.allowance(msg.sender, a...\n      PUSH 0\t\t\t_token.allowance(msg.sender, a...\n      DUP1 \t\t\t_token.allowance(msg.sender, a...\n      RETURNDATACOPY \t\t\t_token.allowance(msg.sender, a...\n      RETURNDATASIZE \t\t\t_token.allowance(msg.sender, a...\n      PUSH 0\t\t\t_token.allowance(msg.sender, a...\n      REVERT \t\t\t_token.allowance(msg.sender, a...\n    tag 304\t\t\t_token.allowance(msg.sender, a...\n      JUMPDEST \t\t\t_token.allowance(msg.sender, a...\n      POP \t\t\t_token.allowance(msg.sender, a...\n      POP \t\t\t_token.allowance(msg.sender, a...\n      POP \t\t\t_token.allowance(msg.sender, a...\n      POP \t\t\t_token.allowance(msg.sender, a...\n      PUSH 40\t\t\t_token.allowance(msg.sender, a...\n      MLOAD \t\t\t_token.allowance(msg.sender, a...\n      RETURNDATASIZE \t\t\t_token.allowance(msg.sender, a...\n      PUSH 1F\t\t\t_token.allowance(msg.sender, a...\n      NOT \t\t\t_token.allowance(msg.sender, a...\n      PUSH 1F\t\t\t_token.allowance(msg.sender, a...\n      DUP3 \t\t\t_token.allowance(msg.sender, a...\n      ADD \t\t\t_token.allowance(msg.sender, a...\n      AND \t\t\t_token.allowance(msg.sender, a...\n      DUP3 \t\t\t_token.allowance(msg.sender, a...\n      ADD \t\t\t_token.allowance(msg.sender, a...\n      DUP1 \t\t\t_token.allowance(msg.sender, a...\n      PUSH 40\t\t\t_token.allowance(msg.sender, a...\n      MSTORE \t\t\t_token.allowance(msg.sender, a...\n      POP \t\t\t_token.allowance(msg.sender, a...\n      DUP2 \t\t\t_token.allowance(msg.sender, a...\n      ADD \t\t\t_token.allowance(msg.sender, a...\n      SWAP1 \t\t\t_token.allowance(msg.sender, a...\n      PUSH [tag] 305\t\t\t_token.allowance(msg.sender, a...\n      SWAP2 \t\t\t_token.allowance(msg.sender, a...\n      SWAP1 \t\t\t_token.allowance(msg.sender, a...\n      PUSH [tag] 211\t\t\t_token.allowance(msg.sender, a...\n      JUMP [in]\t\t\t_token.allowance(msg.sender, a...\n    tag 305\t\t\t_token.allowance(msg.sender, a...\n      JUMPDEST \t\t\t_token.allowance(msg.sender, a...\n      LT \t\t\t_token.allowance(msg.sender, a...\n      ISZERO \t\t\t_token.allowance(msg.sender, a...\n      PUSH [tag] 306\t\t\trequire(\\r\\n                  ...\n      JUMPI \t\t\trequire(\\r\\n                  ...\n      PUSH 40\t\t\trequire(\\r\\n                  ...\n      MLOAD \t\t\trequire(\\r\\n                  ...\n      PUSH 8C379A000000000000000000000000000000000000000000000000000000000\t\t\trequire(\\r\\n                  ...\n      DUP2 \t\t\trequire(\\r\\n                  ...\n      MSTORE \t\t\trequire(\\r\\n                  ...\n      PUSH 4\t\t\trequire(\\r\\n                  ...\n      ADD \t\t\trequire(\\r\\n                  ...\n      PUSH [tag] 307\t\t\trequire(\\r\\n                  ...\n      SWAP1 \t\t\trequire(\\r\\n                  ...\n      PUSH [tag] 308\t\t\trequire(\\r\\n                  ...\n      JUMP [in]\t\t\trequire(\\r\\n                  ...\n    tag 307\t\t\trequire(\\r\\n                  ...\n      JUMPDEST \t\t\trequire(\\r\\n                  ...\n      PUSH 40\t\t\trequire(\\r\\n                  ...\n      MLOAD \t\t\trequire(\\r\\n                  ...\n      DUP1 \t\t\trequire(\\r\\n                  ...\n      SWAP2 \t\t\trequire(\\r\\n                  ...\n      SUB \t\t\trequire(\\r\\n                  ...\n      SWAP1 \t\t\trequire(\\r\\n                  ...\n      REVERT \t\t\trequire(\\r\\n                  ...\n    tag 306\t\t\trequire(\\r\\n                  ...\n      JUMPDEST \t\t\trequire(\\r\\n                  ...\n      DUP1 \t\t\t_token\n      PUSH FFFFFFFFFFFFFFFFFFFFFFFFFFFFFFFFFFFFFFFF\t\t\t_token.transferFrom\n      AND \t\t\t_token.transferFrom\n      PUSH 23B872DD\t\t\t_token.transferFrom\n      CALLER \t\t\tmsg.sender\n      DUP5 \t\t\tcreator\n      PUSH 13\t\t\troyaltyFee\n      SLOAD \t\t\troyaltyFee\n      PUSH 40\t\t\t_token.transferFrom(msg.sender...\n      MLOAD \t\t\t_token.transferFrom(msg.sender...\n      DUP5 \t\t\t_token.transferFrom(msg.sender...\n      PUSH FFFFFFFF\t\t\t_token.transferFrom(msg.sender...\n      AND \t\t\t_token.transferFrom(msg.sender...\n      PUSH E0\t\t\t_token.transferFrom(msg.sender...\n      SHL \t\t\t_token.transferFrom(msg.sender...\n      DUP2 \t\t\t_token.transferFrom(msg.sender...\n      MSTORE \t\t\t_token.transferFrom(msg.sender...\n      PUSH 4\t\t\t_token.transferFrom(msg.sender...\n      ADD \t\t\t_token.transferFrom(msg.sender...\n      PUSH [tag] 309\t\t\t_token.transferFrom(msg.sender...\n      SWAP4 \t\t\t_token.transferFrom(msg.sender...\n      SWAP3 \t\t\t_token.transferFrom(msg.sender...\n      SWAP2 \t\t\t_token.transferFrom(msg.sender...\n      SWAP1 \t\t\t_token.transferFrom(msg.sender...\n      PUSH [tag] 310\t\t\t_token.transferFrom(msg.sender...\n      JUMP [in]\t\t\t_token.transferFrom(msg.sender...\n    tag 309\t\t\t_token.transferFrom(msg.sender...\n      JUMPDEST \t\t\t_token.transferFrom(msg.sender...\n      PUSH 20\t\t\t_token.transferFrom(msg.sender...\n      PUSH 40\t\t\t_token.transferFrom(msg.sender...\n      MLOAD \t\t\t_token.transferFrom(msg.sender...\n      DUP1 \t\t\t_token.transferFrom(msg.sender...\n      DUP4 \t\t\t_token.transferFrom(msg.sender...\n      SUB \t\t\t_token.transferFrom(msg.sender...\n      DUP2 \t\t\t_token.transferFrom(msg.sender...\n      PUSH 0\t\t\t_token.transferFrom(msg.sender...\n      DUP8 \t\t\t_token.transferFrom(msg.sender...\n      DUP1 \t\t\t_token.transferFrom(msg.sender...\n      EXTCODESIZE \t\t\t_token.transferFrom(msg.sender...\n      ISZERO \t\t\t_token.transferFrom(msg.sender...\n      DUP1 \t\t\t_token.transferFrom(msg.sender...\n      ISZERO \t\t\t_token.transferFrom(msg.sender...\n      PUSH [tag] 311\t\t\t_token.transferFrom(msg.sender...\n      JUMPI \t\t\t_token.transferFrom(msg.sender...\n      PUSH 0\t\t\t_token.transferFrom(msg.sender...\n      DUP1 \t\t\t_token.transferFrom(msg.sender...\n      REVERT \t\t\t_token.transferFrom(msg.sender...\n    tag 311\t\t\t_token.transferFrom(msg.sender...\n      JUMPDEST \t\t\t_token.transferFrom(msg.sender...\n      POP \t\t\t_token.transferFrom(msg.sender...\n      GAS \t\t\t_token.transferFrom(msg.sender...\n      CALL \t\t\t_token.transferFrom(msg.sender...\n      ISZERO \t\t\t_token.transferFrom(msg.sender...\n      DUP1 \t\t\t_token.transferFrom(msg.sender...\n      ISZERO \t\t\t_token.transferFrom(msg.sender...\n      PUSH [tag] 313\t\t\t_token.transferFrom(msg.sender...\n      JUMPI \t\t\t_token.transferFrom(msg.sender...\n      RETURNDATASIZE \t\t\t_token.transferFrom(msg.sender...\n      PUSH 0\t\t\t_token.transferFrom(msg.sender...\n      DUP1 \t\t\t_token.transferFrom(msg.sender...\n      RETURNDATACOPY \t\t\t_token.transferFrom(msg.sender...\n      RETURNDATASIZE \t\t\t_token.transferFrom(msg.sender...\n      PUSH 0\t\t\t_token.transferFrom(msg.sender...\n      REVERT \t\t\t_token.transferFrom(msg.sender...\n    tag 313\t\t\t_token.transferFrom(msg.sender...\n      JUMPDEST \t\t\t_token.transferFrom(msg.sender...\n      POP \t\t\t_token.transferFrom(msg.sender...\n      POP \t\t\t_token.transferFrom(msg.sender...\n      POP \t\t\t_token.transferFrom(msg.sender...\n      POP \t\t\t_token.transferFrom(msg.sender...\n      PUSH 40\t\t\t_token.transferFrom(msg.sender...\n      MLOAD \t\t\t_token.transferFrom(msg.sender...\n      RETURNDATASIZE \t\t\t_token.transferFrom(msg.sender...\n      PUSH 1F\t\t\t_token.transferFrom(msg.sender...\n      NOT \t\t\t_token.transferFrom(msg.sender...\n      PUSH 1F\t\t\t_token.transferFrom(msg.sender...\n      DUP3 \t\t\t_token.transferFrom(msg.sender...\n      ADD \t\t\t_token.transferFrom(msg.sender...\n      AND \t\t\t_token.transferFrom(msg.sender...\n      DUP3 \t\t\t_token.transferFrom(msg.sender...\n      ADD \t\t\t_token.transferFrom(msg.sender...\n      DUP1 \t\t\t_token.transferFrom(msg.sender...\n      PUSH 40\t\t\t_token.transferFrom(msg.sender...\n      MSTORE \t\t\t_token.transferFrom(msg.sender...\n      POP \t\t\t_token.transferFrom(msg.sender...\n      DUP2 \t\t\t_token.transferFrom(msg.sender...\n      ADD \t\t\t_token.transferFrom(msg.sender...\n      SWAP1 \t\t\t_token.transferFrom(msg.sender...\n      PUSH [tag] 314\t\t\t_token.transferFrom(msg.sender...\n      SWAP2 \t\t\t_token.transferFrom(msg.sender...\n      SWAP1 \t\t\t_token.transferFrom(msg.sender...\n      PUSH [tag] 176\t\t\t_token.transferFrom(msg.sender...\n      JUMP [in]\t\t\t_token.transferFrom(msg.sender...\n    tag 314\t\t\t_token.transferFrom(msg.sender...\n      JUMPDEST \t\t\t_token.transferFrom(msg.sender...\n      POP \t\t\t_token.transferFrom(msg.sender...\n      POP \t\t\t{\\r\\n                address c...\n      POP \t\t\t{\\r\\n                address c...\n    tag 293\t\t\tif(proposals[_proposalId].temp...\n      JUMPDEST \t\t\tif(proposals[_proposalId].temp...\n      POP \t\t\t{\\r\\n            proposals[_pr...\n      PUSH [tag] 315\t\t\tif(((proposals[_proposalId].up...\n      JUMP \t\t\tif(((proposals[_proposalId].up...\n    tag 281\t\t\tif(((proposals[_proposalId].up...\n      JUMPDEST \t\t\tif(((proposals[_proposalId].up...\n      PUSH E\t\t\tvotingconfigs\n      PUSH 1\t\t\tvotingconfigs.minimunApproval\n      ADD \t\t\tvotingconfigs.minimunApproval\n      SLOAD \t\t\tvotingconfigs.minimunApproval\n      PUSH 64\t\t\t100\n      DUP3 \t\t\t_totalVotes\n      PUSH 4\t\t\tproposals\n      PUSH 0\t\t\tproposals[_proposalId]\n      DUP8 \t\t\t_proposalId\n      DUP2 \t\t\tproposals[_proposalId]\n      MSTORE \t\t\tproposals[_proposalId]\n      PUSH 20\t\t\tproposals[_proposalId]\n      ADD \t\t\tproposals[_proposalId]\n      SWAP1 \t\t\tproposals[_proposalId]\n      DUP2 \t\t\tproposals[_proposalId]\n      MSTORE \t\t\tproposals[_proposalId]\n      PUSH 20\t\t\tproposals[_proposalId]\n      ADD \t\t\tproposals[_proposalId]\n      PUSH 0\t\t\tproposals[_proposalId]\n      KECCAK256 \t\t\tproposals[_proposalId]\n      PUSH 6\t\t\tproposals[_proposalId].downVot...\n      ADD \t\t\tproposals[_proposalId].downVot...\n      SLOAD \t\t\tproposals[_proposalId].downVot...\n      PUSH [tag] 316\t\t\tproposals[_proposalId].downVot...\n      SWAP2 \t\t\tproposals[_proposalId].downVot...\n      SWAP1 \t\t\tproposals[_proposalId].downVot...\n      PUSH [tag] 275\t\t\tproposals[_proposalId].downVot...\n      JUMP [in]\t\t\tproposals[_proposalId].downVot...\n    tag 316\t\t\tproposals[_proposalId].downVot...\n      JUMPDEST \t\t\tproposals[_proposalId].downVot...\n      PUSH [tag] 317\t\t\t(proposals[_proposalId].downVo...\n      SWAP2 \t\t\t(proposals[_proposalId].downVo...\n      SWAP1 \t\t\t(proposals[_proposalId].downVo...\n      PUSH [tag] 213\t\t\t(proposals[_proposalId].downVo...\n      JUMP [in]\t\t\t(proposals[_proposalId].downVo...\n    tag 317\t\t\t(proposals[_proposalId].downVo...\n      JUMPDEST \t\t\t(proposals[_proposalId].downVo...\n      GT \t\t\t((proposals[_proposalId].downV...\n      ISZERO \t\t\tif(((proposals[_proposalId].do...\n      PUSH [tag] 318\t\t\tif(((proposals[_proposalId].do...\n      JUMPI \t\t\tif(((proposals[_proposalId].do...\n      PUSH 40\t\t\tproposals[_proposalId].status=...\n      MLOAD \t\t\tproposals[_proposalId].status=...\n      DUP1 \t\t\tproposals[_proposalId].status=...\n      PUSH 40\t\t\tproposals[_proposalId].status=...\n      ADD \t\t\tproposals[_proposalId].status=...\n      PUSH 40\t\t\tproposals[_proposalId].status=...\n      MSTORE \t\t\tproposals[_proposalId].status=...\n      DUP1 \t\t\tproposals[_proposalId].status=...\n      PUSH 8\t\t\tproposals[_proposalId].status=...\n      DUP2 \t\t\tproposals[_proposalId].status=...\n      MSTORE \t\t\tproposals[_proposalId].status=...\n      PUSH 20\t\t\tproposals[_proposalId].status=...\n      ADD \t\t\tproposals[_proposalId].status=...\n      PUSH 72656A6563746564000000000000000000000000000000000000000000000000\t\t\tproposals[_proposalId].status=...\n      DUP2 \t\t\tproposals[_proposalId].status=...\n      MSTORE \t\t\tproposals[_proposalId].status=...\n      POP \t\t\tproposals[_proposalId].status=...\n      PUSH 4\t\t\tproposals\n      PUSH 0\t\t\tproposals[_proposalId]\n      DUP6 \t\t\t_proposalId\n      DUP2 \t\t\tproposals[_proposalId]\n      MSTORE \t\t\tproposals[_proposalId]\n      PUSH 20\t\t\tproposals[_proposalId]\n      ADD \t\t\tproposals[_proposalId]\n      SWAP1 \t\t\tproposals[_proposalId]\n      DUP2 \t\t\tproposals[_proposalId]\n      MSTORE \t\t\tproposals[_proposalId]\n      PUSH 20\t\t\tproposals[_proposalId]\n      ADD \t\t\tproposals[_proposalId]\n      PUSH 0\t\t\tproposals[_proposalId]\n      KECCAK256 \t\t\tproposals[_proposalId]\n      PUSH A\t\t\tproposals[_proposalId].status\n      ADD \t\t\tproposals[_proposalId].status\n      SWAP1 \t\t\tproposals[_proposalId].status=...\n      DUP1 \t\t\tproposals[_proposalId].status=...\n      MLOAD \t\t\tproposals[_proposalId].status=...\n      SWAP1 \t\t\tproposals[_proposalId].status=...\n      PUSH 20\t\t\tproposals[_proposalId].status=...\n      ADD \t\t\tproposals[_proposalId].status=...\n      SWAP1 \t\t\tproposals[_proposalId].status=...\n      PUSH [tag] 319\t\t\tproposals[_proposalId].status=...\n      SWAP3 \t\t\tproposals[_proposalId].status=...\n      SWAP2 \t\t\tproposals[_proposalId].status=...\n      SWAP1 \t\t\tproposals[_proposalId].status=...\n      PUSH [tag] 253\t\t\tproposals[_proposalId].status=...\n      JUMP [in]\t\t\tproposals[_proposalId].status=...\n    tag 319\t\t\tproposals[_proposalId].status=...\n      JUMPDEST \t\t\tproposals[_proposalId].status=...\n      POP \t\t\tproposals[_proposalId].status=...\n    tag 318\t\t\tif(((proposals[_proposalId].do...\n      JUMPDEST \t\t\tif(((proposals[_proposalId].do...\n    tag 315\t\t\tif(((proposals[_proposalId].up...\n      JUMPDEST \t\t\tif(((proposals[_proposalId].up...\n    tag 278\t\t\tif(_totalVotes>((allDaoMemberA...\n      JUMPDEST \t\t\tif(_totalVotes>((allDaoMemberA...\n      PUSH 1\t\t\ttrue\n      PUSH 4\t\t\tproposals\n      PUSH 0\t\t\tproposals[_proposalId]\n      DUP6 \t\t\t_proposalId\n      DUP2 \t\t\tproposals[_proposalId]\n      MSTORE \t\t\tproposals[_proposalId]\n      PUSH 20\t\t\tproposals[_proposalId]\n      ADD \t\t\tproposals[_proposalId]\n      SWAP1 \t\t\tproposals[_proposalId]\n      DUP2 \t\t\tproposals[_proposalId]\n      MSTORE \t\t\tproposals[_proposalId]\n      PUSH 20\t\t\tproposals[_proposalId]\n      ADD \t\t\tproposals[_proposalId]\n      PUSH 0\t\t\tproposals[_proposalId]\n      KECCAK256 \t\t\tproposals[_proposalId]\n      PUSH B\t\t\tproposals[_proposalId].votingR...\n      ADD \t\t\tproposals[_proposalId].votingR...\n      PUSH 0\t\t\tproposals[_proposalId].votingR...\n      PUSH 100\t\t\tproposals[_proposalId].votingR...\n      EXP \t\t\tproposals[_proposalId].votingR...\n      DUP2 \t\t\tproposals[_proposalId].votingR...\n      SLOAD \t\t\tproposals[_proposalId].votingR...\n      DUP2 \t\t\tproposals[_proposalId].votingR...\n      PUSH FF\t\t\tproposals[_proposalId].votingR...\n      MUL \t\t\tproposals[_proposalId].votingR...\n      NOT \t\t\tproposals[_proposalId].votingR...\n      AND \t\t\tproposals[_proposalId].votingR...\n      SWAP1 \t\t\tproposals[_proposalId].votingR...\n      DUP4 \t\t\tproposals[_proposalId].votingR...\n      ISZERO \t\t\tproposals[_proposalId].votingR...\n      ISZERO \t\t\tproposals[_proposalId].votingR...\n      MUL \t\t\tproposals[_proposalId].votingR...\n      OR \t\t\tproposals[_proposalId].votingR...\n      SWAP1 \t\t\tproposals[_proposalId].votingR...\n      SSTORE \t\t\tproposals[_proposalId].votingR...\n      POP \t\t\tproposals[_proposalId].votingR...\n      POP \t\t\t{\\r\\n        require(proposals...\n      POP \t\t\tfunction votingResult(uint _pr...\n      POP \t\t\tfunction votingResult(uint _pr...\n      JUMP [out]\t\t\tfunction votingResult(uint _pr...\n    tag 92\t\t\tITemplateNFT public templateNF...\n      JUMPDEST \t\t\tITemplateNFT public templateNF...\n      PUSH 2\t\t\tITemplateNFT public templateNF...\n      PUSH 0\t\t\tITemplateNFT public templateNF...\n      SWAP1 \t\t\tITemplateNFT public templateNF...\n      SLOAD \t\t\tITemplateNFT public templateNF...\n      SWAP1 \t\t\tITemplateNFT public templateNF...\n      PUSH 100\t\t\tITemplateNFT public templateNF...\n      EXP \t\t\tITemplateNFT public templateNF...\n      SWAP1 \t\t\tITemplateNFT public templateNF...\n      DIV \t\t\tITemplateNFT public templateNF...\n      PUSH FFFFFFFFFFFFFFFFFFFFFFFFFFFFFFFFFFFFFFFF\t\t\tITemplateNFT public templateNF...\n      AND \t\t\tITemplateNFT public templateNF...\n      DUP2 \t\t\tITemplateNFT public templateNF...\n      JUMP [out]\t\t\tITemplateNFT public templateNF...\n    tag 97\t\t\t\\r\\n        uint256 proposalEx...\n      JUMPDEST \t\t\t\\r\\n        uint256 proposalEx...\n      PUSH 0\t\t\tint tem\n      DUP1 \t\t\ttring \n      PUSH 0\t\t\ttring \n      SWAP1 \t\t\ttring \n      SLOAD \t\t\ttring \n      SWAP1 \t\t\ttring \n      PUSH 100\t\t\ttring \n      EXP \t\t\ttring \n      SWAP1 \t\t\ttring \n      DIV \t\t\ttring \n      PUSH FFFFFFFFFFFFFFFFFFFFFFFFFFFFFFFFFFFFFFFF\t\t\ttring \n      AND \t\t\ttring \n      SWAP1 \t\t\t      string \n      POP \t\t\t      string \n      SWAP1 \t\t\t\\r\\n        uint256 proposalEx...\n      JUMP [out]\t\t\t\\r\\n        uint256 proposalEx...\n    tag 101\t\t\tfunction upvoteProposal(uint25...\n      JUMPDEST \t\t\tfunction upvoteProposal(uint25...\n      PUSH 1\t\t\tsamhita\n      PUSH 0\t\t\tsamhita\n      SWAP1 \t\t\tsamhita\n      SLOAD \t\t\tsamhita\n      SWAP1 \t\t\tsamhita\n      PUSH 100\t\t\tsamhita\n      EXP \t\t\tsamhita\n      SWAP1 \t\t\tsamhita\n      DIV \t\t\tsamhita\n      PUSH FFFFFFFFFFFFFFFFFFFFFFFFFFFFFFFFFFFFFFFF\t\t\tsamhita\n      AND \t\t\tsamhita\n      PUSH FFFFFFFFFFFFFFFFFFFFFFFFFFFFFFFFFFFFFFFF\t\t\tsamhita.checkIsMemberAdded\n      AND \t\t\tsamhita.checkIsMemberAdded\n      PUSH 93538631\t\t\tsamhita.checkIsMemberAdded\n      CALLER \t\t\tmsg.sender\n      PUSH 40\t\t\tsamhita.checkIsMemberAdded(msg...\n      MLOAD \t\t\tsamhita.checkIsMemberAdded(msg...\n      DUP3 \t\t\tsamhita.checkIsMemberAdded(msg...\n      PUSH FFFFFFFF\t\t\tsamhita.checkIsMemberAdded(msg...\n      AND \t\t\tsamhita.checkIsMemberAdded(msg...\n      PUSH E0\t\t\tsamhita.checkIsMemberAdded(msg...\n      SHL \t\t\tsamhita.checkIsMemberAdded(msg...\n      DUP2 \t\t\tsamhita.checkIsMemberAdded(msg...\n      MSTORE \t\t\tsamhita.checkIsMemberAdded(msg...\n      PUSH 4\t\t\tsamhita.checkIsMemberAdded(msg...\n      ADD \t\t\tsamhita.checkIsMemberAdded(msg...\n      PUSH [tag] 322\t\t\tsamhita.checkIsMemberAdded(msg...\n      SWAP2 \t\t\tsamhita.checkIsMemberAdded(msg...\n      SWAP1 \t\t\tsamhita.checkIsMemberAdded(msg...\n      PUSH [tag] 50\t\t\tsamhita.checkIsMemberAdded(msg...\n      JUMP [in]\t\t\tsamhita.checkIsMemberAdded(msg...\n    tag 322\t\t\tsamhita.checkIsMemberAdded(msg...\n      JUMPDEST \t\t\tsamhita.checkIsMemberAdded(msg...\n      PUSH 20\t\t\tsamhita.checkIsMemberAdded(msg...\n      PUSH 40\t\t\tsamhita.checkIsMemberAdded(msg...\n      MLOAD \t\t\tsamhita.checkIsMemberAdded(msg...\n      DUP1 \t\t\tsamhita.checkIsMemberAdded(msg...\n      DUP4 \t\t\tsamhita.checkIsMemberAdded(msg...\n      SUB \t\t\tsamhita.checkIsMemberAdded(msg...\n      DUP2 \t\t\tsamhita.checkIsMemberAdded(msg...\n      DUP7 \t\t\tsamhita.checkIsMemberAdded(msg...\n      DUP1 \t\t\tsamhita.checkIsMemberAdded(msg...\n      EXTCODESIZE \t\t\tsamhita.checkIsMemberAdded(msg...\n      ISZERO \t\t\tsamhita.checkIsMemberAdded(msg...\n      DUP1 \t\t\tsamhita.checkIsMemberAdded(msg...\n      ISZERO \t\t\tsamhita.checkIsMemberAdded(msg...\n      PUSH [tag] 323\t\t\tsamhita.checkIsMemberAdded(msg...\n      JUMPI \t\t\tsamhita.checkIsMemberAdded(msg...\n      PUSH 0\t\t\tsamhita.checkIsMemberAdded(msg...\n      DUP1 \t\t\tsamhita.checkIsMemberAdded(msg...\n      REVERT \t\t\tsamhita.checkIsMemberAdded(msg...\n    tag 323\t\t\tsamhita.checkIsMemberAdded(msg...\n      JUMPDEST \t\t\tsamhita.checkIsMemberAdded(msg...\n      POP \t\t\tsamhita.checkIsMemberAdded(msg...\n      GAS \t\t\tsamhita.checkIsMemberAdded(msg...\n      STATICCALL \t\t\tsamhita.checkIsMemberAdded(msg...\n      ISZERO \t\t\tsamhita.checkIsMemberAdded(msg...\n      DUP1 \t\t\tsamhita.checkIsMemberAdded(msg...\n      ISZERO \t\t\tsamhita.checkIsMemberAdded(msg...\n      PUSH [tag] 325\t\t\tsamhita.checkIsMemberAdded(msg...\n      JUMPI \t\t\tsamhita.checkIsMemberAdded(msg...\n      RETURNDATASIZE \t\t\tsamhita.checkIsMemberAdded(msg...\n      PUSH 0\t\t\tsamhita.checkIsMemberAdded(msg...\n      DUP1 \t\t\tsamhita.checkIsMemberAdded(msg...\n      RETURNDATACOPY \t\t\tsamhita.checkIsMemberAdded(msg...\n      RETURNDATASIZE \t\t\tsamhita.checkIsMemberAdded(msg...\n      PUSH 0\t\t\tsamhita.checkIsMemberAdded(msg...\n      REVERT \t\t\tsamhita.checkIsMemberAdded(msg...\n    tag 325\t\t\tsamhita.checkIsMemberAdded(msg...\n      JUMPDEST \t\t\tsamhita.checkIsMemberAdded(msg...\n      POP \t\t\tsamhita.checkIsMemberAdded(msg...\n      POP \t\t\tsamhita.checkIsMemberAdded(msg...\n      POP \t\t\tsamhita.checkIsMemberAdded(msg...\n      POP \t\t\tsamhita.checkIsMemberAdded(msg...\n      PUSH 40\t\t\tsamhita.checkIsMemberAdded(msg...\n      MLOAD \t\t\tsamhita.checkIsMemberAdded(msg...\n      RETURNDATASIZE \t\t\tsamhita.checkIsMemberAdded(msg...\n      PUSH 1F\t\t\tsamhita.checkIsMemberAdded(msg...\n      NOT \t\t\tsamhita.checkIsMemberAdded(msg...\n      PUSH 1F\t\t\tsamhita.checkIsMemberAdded(msg...\n      DUP3 \t\t\tsamhita.checkIsMemberAdded(msg...\n      ADD \t\t\tsamhita.checkIsMemberAdded(msg...\n      AND \t\t\tsamhita.checkIsMemberAdded(msg...\n      DUP3 \t\t\tsamhita.checkIsMemberAdded(msg...\n      ADD \t\t\tsamhita.checkIsMemberAdded(msg...\n      DUP1 \t\t\tsamhita.checkIsMemberAdded(msg...\n      PUSH 40\t\t\tsamhita.checkIsMemberAdded(msg...\n      MSTORE \t\t\tsamhita.checkIsMemberAdded(msg...\n      POP \t\t\tsamhita.checkIsMemberAdded(msg...\n      DUP2 \t\t\tsamhita.checkIsMemberAdded(msg...\n      ADD \t\t\tsamhita.checkIsMemberAdded(msg...\n      SWAP1 \t\t\tsamhita.checkIsMemberAdded(msg...\n      PUSH [tag] 326\t\t\tsamhita.checkIsMemberAdded(msg...\n      SWAP2 \t\t\tsamhita.checkIsMemberAdded(msg...\n      SWAP1 \t\t\tsamhita.checkIsMemberAdded(msg...\n      PUSH [tag] 176\t\t\tsamhita.checkIsMemberAdded(msg...\n      JUMP [in]\t\t\tsamhita.checkIsMemberAdded(msg...\n    tag 326\t\t\tsamhita.checkIsMemberAdded(msg...\n      JUMPDEST \t\t\tsamhita.checkIsMemberAdded(msg...\n      PUSH [tag] 327\t\t\trequire(samhita.checkIsMemberA...\n      JUMPI \t\t\trequire(samhita.checkIsMemberA...\n      PUSH 40\t\t\trequire(samhita.checkIsMemberA...\n      MLOAD \t\t\trequire(samhita.checkIsMemberA...\n      PUSH 8C379A000000000000000000000000000000000000000000000000000000000\t\t\trequire(samhita.checkIsMemberA...\n      DUP2 \t\t\trequire(samhita.checkIsMemberA...\n      MSTORE \t\t\trequire(samhita.checkIsMemberA...\n      PUSH 4\t\t\trequire(samhita.checkIsMemberA...\n      ADD \t\t\trequire(samhita.checkIsMemberA...\n      PUSH [tag] 328\t\t\trequire(samhita.checkIsMemberA...\n      SWAP1 \t\t\trequire(samhita.checkIsMemberA...\n      PUSH [tag] 179\t\t\trequire(samhita.checkIsMemberA...\n      JUMP [in]\t\t\trequire(samhita.checkIsMemberA...\n    tag 328\t\t\trequire(samhita.checkIsMemberA...\n      JUMPDEST \t\t\trequire(samhita.checkIsMemberA...\n      PUSH 40\t\t\trequire(samhita.checkIsMemberA...\n      MLOAD \t\t\trequire(samhita.checkIsMemberA...\n      DUP1 \t\t\trequire(samhita.checkIsMemberA...\n      SWAP2 \t\t\trequire(samhita.checkIsMemberA...\n      SUB \t\t\trequire(samhita.checkIsMemberA...\n      SWAP1 \t\t\trequire(samhita.checkIsMemberA...\n      REVERT \t\t\trequire(samhita.checkIsMemberA...\n    tag 327\t\t\trequire(samhita.checkIsMemberA...\n      JUMPDEST \t\t\trequire(samhita.checkIsMemberA...\n      PUSH B\t\t\tisMemberAdded\n      PUSH 0\t\t\tisMemberAdded[msg.sender]\n      CALLER \t\t\tmsg.sender\n      PUSH FFFFFFFFFFFFFFFFFFFFFFFFFFFFFFFFFFFFFFFF\t\t\tisMemberAdded[msg.sender]\n      AND \t\t\tisMemberAdded[msg.sender]\n      PUSH FFFFFFFFFFFFFFFFFFFFFFFFFFFFFFFFFFFFFFFF\t\t\tisMemberAdded[msg.sender]\n      AND \t\t\tisMemberAdded[msg.sender]\n      DUP2 \t\t\tisMemberAdded[msg.sender]\n      MSTORE \t\t\tisMemberAdded[msg.sender]\n      PUSH 20\t\t\tisMemberAdded[msg.sender]\n      ADD \t\t\tisMemberAdded[msg.sender]\n      SWAP1 \t\t\tisMemberAdded[msg.sender]\n      DUP2 \t\t\tisMemberAdded[msg.sender]\n      MSTORE \t\t\tisMemberAdded[msg.sender]\n      PUSH 20\t\t\tisMemberAdded[msg.sender]\n      ADD \t\t\tisMemberAdded[msg.sender]\n      PUSH 0\t\t\tisMemberAdded[msg.sender]\n      KECCAK256 \t\t\tisMemberAdded[msg.sender]\n      PUSH 0\t\t\tisMemberAdded[msg.sender]\n      SWAP1 \t\t\tisMemberAdded[msg.sender]\n      SLOAD \t\t\tisMemberAdded[msg.sender]\n      SWAP1 \t\t\tisMemberAdded[msg.sender]\n      PUSH 100\t\t\tisMemberAdded[msg.sender]\n      EXP \t\t\tisMemberAdded[msg.sender]\n      SWAP1 \t\t\tisMemberAdded[msg.sender]\n      DIV \t\t\tisMemberAdded[msg.sender]\n      PUSH FF\t\t\tisMemberAdded[msg.sender]\n      AND \t\t\tisMemberAdded[msg.sender]\n      PUSH [tag] 329\t\t\trequire(isMemberAdded[msg.send...\n      JUMPI \t\t\trequire(isMemberAdded[msg.send...\n      PUSH 40\t\t\trequire(isMemberAdded[msg.send...\n      MLOAD \t\t\trequire(isMemberAdded[msg.send...\n      PUSH 8C379A000000000000000000000000000000000000000000000000000000000\t\t\trequire(isMemberAdded[msg.send...\n      DUP2 \t\t\trequire(isMemberAdded[msg.send...\n      MSTORE \t\t\trequire(isMemberAdded[msg.send...\n      PUSH 4\t\t\trequire(isMemberAdded[msg.send...\n      ADD \t\t\trequire(isMemberAdded[msg.send...\n      PUSH [tag] 330\t\t\trequire(isMemberAdded[msg.send...\n      SWAP1 \t\t\trequire(isMemberAdded[msg.send...\n      PUSH [tag] 182\t\t\trequire(isMemberAdded[msg.send...\n      JUMP [in]\t\t\trequire(isMemberAdded[msg.send...\n    tag 330\t\t\trequire(isMemberAdded[msg.send...\n      JUMPDEST \t\t\trequire(isMemberAdded[msg.send...\n      PUSH 40\t\t\trequire(isMemberAdded[msg.send...\n      MLOAD \t\t\trequire(isMemberAdded[msg.send...\n      DUP1 \t\t\trequire(isMemberAdded[msg.send...\n      SWAP2 \t\t\trequire(isMemberAdded[msg.send...\n      SUB \t\t\trequire(isMemberAdded[msg.send...\n      SWAP1 \t\t\trequire(isMemberAdded[msg.send...\n      REVERT \t\t\trequire(isMemberAdded[msg.send...\n    tag 329\t\t\trequire(isMemberAdded[msg.send...\n      JUMPDEST \t\t\trequire(isMemberAdded[msg.send...\n      CALLER \t\t\tmsg.sender\n      PUSH FFFFFFFFFFFFFFFFFFFFFFFFFFFFFFFFFFFFFFFF\t\t\tproposals[proposalID].proposal...\n      AND \t\t\tproposals[proposalID].proposal...\n      PUSH 4\t\t\tproposals\n      PUSH 0\t\t\tproposals[proposalID]\n      DUP4 \t\t\tproposalID\n      DUP2 \t\t\tproposals[proposalID]\n      MSTORE \t\t\tproposals[proposalID]\n      PUSH 20\t\t\tproposals[proposalID]\n      ADD \t\t\tproposals[proposalID]\n      SWAP1 \t\t\tproposals[proposalID]\n      DUP2 \t\t\tproposals[proposalID]\n      MSTORE \t\t\tproposals[proposalID]\n      PUSH 20\t\t\tproposals[proposalID]\n      ADD \t\t\tproposals[proposalID]\n      PUSH 0\t\t\tproposals[proposalID]\n      KECCAK256 \t\t\tproposals[proposalID]\n      PUSH 4\t\t\tproposals[proposalID].proposal...\n      ADD \t\t\tproposals[proposalID].proposal...\n      PUSH 0\t\t\tproposals[proposalID].proposal...\n      SWAP1 \t\t\tproposals[proposalID].proposal...\n      SLOAD \t\t\tproposals[proposalID].proposal...\n      SWAP1 \t\t\tproposals[proposalID].proposal...\n      PUSH 100\t\t\tproposals[proposalID].proposal...\n      EXP \t\t\tproposals[proposalID].proposal...\n      SWAP1 \t\t\tproposals[proposalID].proposal...\n      DIV \t\t\tproposals[proposalID].proposal...\n      PUSH FFFFFFFFFFFFFFFFFFFFFFFFFFFFFFFFFFFFFFFF\t\t\tproposals[proposalID].proposal...\n      AND \t\t\tproposals[proposalID].proposal...\n      PUSH FFFFFFFFFFFFFFFFFFFFFFFFFFFFFFFFFFFFFFFF\t\t\tproposals[proposalID].proposal...\n      AND \t\t\tproposals[proposalID].proposal...\n      EQ \t\t\tproposals[proposalID].proposal...\n      ISZERO \t\t\tproposals[proposalID].proposal...\n      PUSH [tag] 331\t\t\trequire(proposals[proposalID]....\n      JUMPI \t\t\trequire(proposals[proposalID]....\n      PUSH 40\t\t\trequire(proposals[proposalID]....\n      MLOAD \t\t\trequire(proposals[proposalID]....\n      PUSH 8C379A000000000000000000000000000000000000000000000000000000000\t\t\trequire(proposals[proposalID]....\n      DUP2 \t\t\trequire(proposals[proposalID]....\n      MSTORE \t\t\trequire(proposals[proposalID]....\n      PUSH 4\t\t\trequire(proposals[proposalID]....\n      ADD \t\t\trequire(proposals[proposalID]....\n      PUSH [tag] 332\t\t\trequire(proposals[proposalID]....\n      SWAP1 \t\t\trequire(proposals[proposalID]....\n      PUSH [tag] 185\t\t\trequire(proposals[proposalID]....\n      JUMP [in]\t\t\trequire(proposals[proposalID]....\n    tag 332\t\t\trequire(proposals[proposalID]....\n      JUMPDEST \t\t\trequire(proposals[proposalID]....\n      PUSH 40\t\t\trequire(proposals[proposalID]....\n      MLOAD \t\t\trequire(proposals[proposalID]....\n      DUP1 \t\t\trequire(proposals[proposalID]....\n      SWAP2 \t\t\trequire(proposals[proposalID]....\n      SUB \t\t\trequire(proposals[proposalID]....\n      SWAP1 \t\t\trequire(proposals[proposalID]....\n      REVERT \t\t\trequire(proposals[proposalID]....\n    tag 331\t\t\trequire(proposals[proposalID]....\n      JUMPDEST \t\t\trequire(proposals[proposalID]....\n      PUSH 5\t\t\thasVotedForProposal\n      PUSH 0\t\t\thasVotedForProposal[msg.sender...\n      CALLER \t\t\tmsg.sender\n      PUSH FFFFFFFFFFFFFFFFFFFFFFFFFFFFFFFFFFFFFFFF\t\t\thasVotedForProposal[msg.sender...\n      AND \t\t\thasVotedForProposal[msg.sender...\n      PUSH FFFFFFFFFFFFFFFFFFFFFFFFFFFFFFFFFFFFFFFF\t\t\thasVotedForProposal[msg.sender...\n      AND \t\t\thasVotedForProposal[msg.sender...\n      DUP2 \t\t\thasVotedForProposal[msg.sender...\n      MSTORE \t\t\thasVotedForProposal[msg.sender...\n      PUSH 20\t\t\thasVotedForProposal[msg.sender...\n      ADD \t\t\thasVotedForProposal[msg.sender...\n      SWAP1 \t\t\thasVotedForProposal[msg.sender...\n      DUP2 \t\t\thasVotedForProposal[msg.sender...\n      MSTORE \t\t\thasVotedForProposal[msg.sender...\n      PUSH 20\t\t\thasVotedForProposal[msg.sender...\n      ADD \t\t\thasVotedForProposal[msg.sender...\n      PUSH 0\t\t\thasVotedForProposal[msg.sender...\n      KECCAK256 \t\t\thasVotedForProposal[msg.sender...\n      PUSH 0\t\t\thasVotedForProposal[msg.sender...\n      DUP3 \t\t\tproposalID\n      DUP2 \t\t\thasVotedForProposal[msg.sender...\n      MSTORE \t\t\thasVotedForProposal[msg.sender...\n      PUSH 20\t\t\thasVotedForProposal[msg.sender...\n      ADD \t\t\thasVotedForProposal[msg.sender...\n      SWAP1 \t\t\thasVotedForProposal[msg.sender...\n      DUP2 \t\t\thasVotedForProposal[msg.sender...\n      MSTORE \t\t\thasVotedForProposal[msg.sender...\n      PUSH 20\t\t\thasVotedForProposal[msg.sender...\n      ADD \t\t\thasVotedForProposal[msg.sender...\n      PUSH 0\t\t\thasVotedForProposal[msg.sender...\n      KECCAK256 \t\t\thasVotedForProposal[msg.sender...\n      PUSH 0\t\t\thasVotedForProposal[msg.sender...\n      SWAP1 \t\t\thasVotedForProposal[msg.sender...\n      SLOAD \t\t\thasVotedForProposal[msg.sender...\n      SWAP1 \t\t\thasVotedForProposal[msg.sender...\n      PUSH 100\t\t\thasVotedForProposal[msg.sender...\n      EXP \t\t\thasVotedForProposal[msg.sender...\n      SWAP1 \t\t\thasVotedForProposal[msg.sender...\n      DIV \t\t\thasVotedForProposal[msg.sender...\n      PUSH FF\t\t\thasVotedForProposal[msg.sender...\n      AND \t\t\thasVotedForProposal[msg.sender...\n      ISZERO \t\t\t!hasVotedForProposal[msg.sende...\n      PUSH [tag] 333\t\t\trequire(!hasVotedForProposal[m...\n      JUMPI \t\t\trequire(!hasVotedForProposal[m...\n      PUSH 40\t\t\trequire(!hasVotedForProposal[m...\n      MLOAD \t\t\trequire(!hasVotedForProposal[m...\n      PUSH 8C379A000000000000000000000000000000000000000000000000000000000\t\t\trequire(!hasVotedForProposal[m...\n      DUP2 \t\t\trequire(!hasVotedForProposal[m...\n      MSTORE \t\t\trequire(!hasVotedForProposal[m...\n      PUSH 4\t\t\trequire(!hasVotedForProposal[m...\n      ADD \t\t\trequire(!hasVotedForProposal[m...\n      PUSH [tag] 334\t\t\trequire(!hasVotedForProposal[m...\n      SWAP1 \t\t\trequire(!hasVotedForProposal[m...\n      PUSH [tag] 188\t\t\trequire(!hasVotedForProposal[m...\n      JUMP [in]\t\t\trequire(!hasVotedForProposal[m...\n    tag 334\t\t\trequire(!hasVotedForProposal[m...\n      JUMPDEST \t\t\trequire(!hasVotedForProposal[m...\n      PUSH 40\t\t\trequire(!hasVotedForProposal[m...\n      MLOAD \t\t\trequire(!hasVotedForProposal[m...\n      DUP1 \t\t\trequire(!hasVotedForProposal[m...\n      SWAP2 \t\t\trequire(!hasVotedForProposal[m...\n      SUB \t\t\trequire(!hasVotedForProposal[m...\n      SWAP1 \t\t\trequire(!hasVotedForProposal[m...\n      REVERT \t\t\trequire(!hasVotedForProposal[m...\n    tag 333\t\t\trequire(!hasVotedForProposal[m...\n      JUMPDEST \t\t\trequire(!hasVotedForProposal[m...\n      TIMESTAMP \t\t\tblock.timestamp\n      PUSH 4\t\t\tproposals\n      PUSH 0\t\t\tproposals[proposalID]\n      DUP4 \t\t\tproposalID\n      DUP2 \t\t\tproposals[proposalID]\n      MSTORE \t\t\tproposals[proposalID]\n      PUSH 20\t\t\tproposals[proposalID]\n      ADD \t\t\tproposals[proposalID]\n      SWAP1 \t\t\tproposals[proposalID]\n      DUP2 \t\t\tproposals[proposalID]\n      MSTORE \t\t\tproposals[proposalID]\n      PUSH 20\t\t\tproposals[proposalID]\n      ADD \t\t\tproposals[proposalID]\n      PUSH 0\t\t\tproposals[proposalID]\n      KECCAK256 \t\t\tproposals[proposalID]\n      PUSH 8\t\t\tproposals[proposalID].proposal...\n      ADD \t\t\tproposals[proposalID].proposal...\n      SLOAD \t\t\tproposals[proposalID].proposal...\n      GT \t\t\tproposals[proposalID].proposal...\n      PUSH [tag] 335\t\t\trequire(proposals[proposalID]....\n      JUMPI \t\t\trequire(proposals[proposalID]....\n      PUSH 40\t\t\trequire(proposals[proposalID]....\n      MLOAD \t\t\trequire(proposals[proposalID]....\n      PUSH 8C379A000000000000000000000000000000000000000000000000000000000\t\t\trequire(proposals[proposalID]....\n      DUP2 \t\t\trequire(proposals[proposalID]....\n      MSTORE \t\t\trequire(proposals[proposalID]....\n      PUSH 4\t\t\trequire(proposals[proposalID]....\n      ADD \t\t\trequire(proposals[proposalID]....\n      PUSH [tag] 336\t\t\trequire(proposals[proposalID]....\n      SWAP1 \t\t\trequire(proposals[proposalID]....\n      PUSH [tag] 191\t\t\trequire(proposals[proposalID]....\n      JUMP [in]\t\t\trequire(proposals[proposalID]....\n    tag 336\t\t\trequire(proposals[proposalID]....\n      JUMPDEST \t\t\trequire(proposals[proposalID]....\n      PUSH 40\t\t\trequire(proposals[proposalID]....\n      MLOAD \t\t\trequire(proposals[proposalID]....\n      DUP1 \t\t\trequire(proposals[proposalID]....\n      SWAP2 \t\t\trequire(proposals[proposalID]....\n      SUB \t\t\trequire(proposals[proposalID]....\n      SWAP1 \t\t\trequire(proposals[proposalID]....\n      REVERT \t\t\trequire(proposals[proposalID]....\n    tag 335\t\t\trequire(proposals[proposalID]....\n      JUMPDEST \t\t\trequire(proposals[proposalID]....\n      PUSH E\t\t\tvotingconfigs\n      PUSH 3\t\t\tvotingconfigs.votingStake\n      ADD \t\t\tvotingconfigs.votingStake\n      SLOAD \t\t\tvotingconfigs.votingStake\n      CALLVALUE \t\t\tmsg.value\n      EQ \t\t\tmsg.value==votingconfigs.votin...\n      PUSH [tag] 337\t\t\trequire(msg.value==votingconfi...\n      JUMPI \t\t\trequire(msg.value==votingconfi...\n      PUSH 40\t\t\trequire(msg.value==votingconfi...\n      MLOAD \t\t\trequire(msg.value==votingconfi...\n      PUSH 8C379A000000000000000000000000000000000000000000000000000000000\t\t\trequire(msg.value==votingconfi...\n      DUP2 \t\t\trequire(msg.value==votingconfi...\n      MSTORE \t\t\trequire(msg.value==votingconfi...\n      PUSH 4\t\t\trequire(msg.value==votingconfi...\n      ADD \t\t\trequire(msg.value==votingconfi...\n      PUSH [tag] 338\t\t\trequire(msg.value==votingconfi...\n      SWAP1 \t\t\trequire(msg.value==votingconfi...\n      PUSH [tag] 194\t\t\trequire(msg.value==votingconfi...\n      JUMP [in]\t\t\trequire(msg.value==votingconfi...\n    tag 338\t\t\trequire(msg.value==votingconfi...\n      JUMPDEST \t\t\trequire(msg.value==votingconfi...\n      PUSH 40\t\t\trequire(msg.value==votingconfi...\n      MLOAD \t\t\trequire(msg.value==votingconfi...\n      DUP1 \t\t\trequire(msg.value==votingconfi...\n      SWAP2 \t\t\trequire(msg.value==votingconfi...\n      SUB \t\t\trequire(msg.value==votingconfi...\n      SWAP1 \t\t\trequire(msg.value==votingconfi...\n      REVERT \t\t\trequire(msg.value==votingconfi...\n    tag 337\t\t\trequire(msg.value==votingconfi...\n      JUMPDEST \t\t\trequire(msg.value==votingconfi...\n      PUSH 1\t\t\t1\n      PUSH 4\t\t\tproposals\n      PUSH 0\t\t\tproposals[proposalID]\n      DUP4 \t\t\tproposalID\n      DUP2 \t\t\tproposals[proposalID]\n      MSTORE \t\t\tproposals[proposalID]\n      PUSH 20\t\t\tproposals[proposalID]\n      ADD \t\t\tproposals[proposalID]\n      SWAP1 \t\t\tproposals[proposalID]\n      DUP2 \t\t\tproposals[proposalID]\n      MSTORE \t\t\tproposals[proposalID]\n      PUSH 20\t\t\tproposals[proposalID]\n      ADD \t\t\tproposals[proposalID]\n      PUSH 0\t\t\tproposals[proposalID]\n      KECCAK256 \t\t\tproposals[proposalID]\n      PUSH 5\t\t\tproposals[proposalID].upVoteCo...\n      ADD \t\t\tproposals[proposalID].upVoteCo...\n      SLOAD \t\t\tproposals[proposalID].upVoteCo...\n      PUSH [tag] 339\t\t\tproposals[proposalID].upVoteCo...\n      SWAP2 \t\t\tproposals[proposalID].upVoteCo...\n      SWAP1 \t\t\tproposals[proposalID].upVoteCo...\n      PUSH [tag] 196\t\t\tproposals[proposalID].upVoteCo...\n      JUMP [in]\t\t\tproposals[proposalID].upVoteCo...\n    tag 339\t\t\tproposals[proposalID].upVoteCo...\n      JUMPDEST \t\t\tproposals[proposalID].upVoteCo...\n      PUSH 4\t\t\tproposals\n      PUSH 0\t\t\tproposals[proposalID]\n      DUP4 \t\t\tproposalID\n      DUP2 \t\t\tproposals[proposalID]\n      MSTORE \t\t\tproposals[proposalID]\n      PUSH 20\t\t\tproposals[proposalID]\n      ADD \t\t\tproposals[proposalID]\n      SWAP1 \t\t\tproposals[proposalID]\n      DUP2 \t\t\tproposals[proposalID]\n      MSTORE \t\t\tproposals[proposalID]\n      PUSH 20\t\t\tproposals[proposalID]\n      ADD \t\t\tproposals[proposalID]\n      PUSH 0\t\t\tproposals[proposalID]\n      KECCAK256 \t\t\tproposals[proposalID]\n      PUSH 5\t\t\tproposals[proposalID].upVoteCo...\n      ADD \t\t\tproposals[proposalID].upVoteCo...\n      DUP2 \t\t\tproposals[proposalID].upVoteCo...\n      SWAP1 \t\t\tproposals[proposalID].upVoteCo...\n      SSTORE \t\t\tproposals[proposalID].upVoteCo...\n      POP \t\t\tproposals[proposalID].upVoteCo...\n      PUSH 1\t\t\ttrue\n      PUSH 5\t\t\thasVotedForProposal\n      PUSH 0\t\t\thasVotedForProposal[msg.sender...\n      CALLER \t\t\tmsg.sender\n      PUSH FFFFFFFFFFFFFFFFFFFFFFFFFFFFFFFFFFFFFFFF\t\t\thasVotedForProposal[msg.sender...\n      AND \t\t\thasVotedForProposal[msg.sender...\n      PUSH FFFFFFFFFFFFFFFFFFFFFFFFFFFFFFFFFFFFFFFF\t\t\thasVotedForProposal[msg.sender...\n      AND \t\t\thasVotedForProposal[msg.sender...\n      DUP2 \t\t\thasVotedForProposal[msg.sender...\n      MSTORE \t\t\thasVotedForProposal[msg.sender...\n      PUSH 20\t\t\thasVotedForProposal[msg.sender...\n      ADD \t\t\thasVotedForProposal[msg.sender...\n      SWAP1 \t\t\thasVotedForProposal[msg.sender...\n      DUP2 \t\t\thasVotedForProposal[msg.sender...\n      MSTORE \t\t\thasVotedForProposal[msg.sender...\n      PUSH 20\t\t\thasVotedForProposal[msg.sender...\n      ADD \t\t\thasVotedForProposal[msg.sender...\n      PUSH 0\t\t\thasVotedForProposal[msg.sender...\n      KECCAK256 \t\t\thasVotedForProposal[msg.sender...\n      PUSH 0\t\t\thasVotedForProposal[msg.sender...\n      DUP4 \t\t\tproposalID\n      DUP2 \t\t\thasVotedForProposal[msg.sender...\n      MSTORE \t\t\thasVotedForProposal[msg.sender...\n      PUSH 20\t\t\thasVotedForProposal[msg.sender...\n      ADD \t\t\thasVotedForProposal[msg.sender...\n      SWAP1 \t\t\thasVotedForProposal[msg.sender...\n      DUP2 \t\t\thasVotedForProposal[msg.sender...\n      MSTORE \t\t\thasVotedForProposal[msg.sender...\n      PUSH 20\t\t\thasVotedForProposal[msg.sender...\n      ADD \t\t\thasVotedForProposal[msg.sender...\n      PUSH 0\t\t\thasVotedForProposal[msg.sender...\n      KECCAK256 \t\t\thasVotedForProposal[msg.sender...\n      PUSH 0\t\t\thasVotedForProposal[msg.sender...\n      PUSH 100\t\t\thasVotedForProposal[msg.sender...\n      EXP \t\t\thasVotedForProposal[msg.sender...\n      DUP2 \t\t\thasVotedForProposal[msg.sender...\n      SLOAD \t\t\thasVotedForProposal[msg.sender...\n      DUP2 \t\t\thasVotedForProposal[msg.sender...\n      PUSH FF\t\t\thasVotedForProposal[msg.sender...\n      MUL \t\t\thasVotedForProposal[msg.sender...\n      NOT \t\t\thasVotedForProposal[msg.sender...\n      AND \t\t\thasVotedForProposal[msg.sender...\n      SWAP1 \t\t\thasVotedForProposal[msg.sender...\n      DUP4 \t\t\thasVotedForProposal[msg.sender...\n      ISZERO \t\t\thasVotedForProposal[msg.sender...\n      ISZERO \t\t\thasVotedForProposal[msg.sender...\n      MUL \t\t\thasVotedForProposal[msg.sender...\n      OR \t\t\thasVotedForProposal[msg.sender...\n      SWAP1 \t\t\thasVotedForProposal[msg.sender...\n      SSTORE \t\t\thasVotedForProposal[msg.sender...\n      POP \t\t\thasVotedForProposal[msg.sender...\n      PUSH 6\t\t\tvotersForProposal\n      PUSH 0\t\t\tvotersForProposal[proposalID]\n      DUP3 \t\t\tproposalID\n      DUP2 \t\t\tvotersForProposal[proposalID]\n      MSTORE \t\t\tvotersForProposal[proposalID]\n      PUSH 20\t\t\tvotersForProposal[proposalID]\n      ADD \t\t\tvotersForProposal[proposalID]\n      SWAP1 \t\t\tvotersForProposal[proposalID]\n      DUP2 \t\t\tvotersForProposal[proposalID]\n      MSTORE \t\t\tvotersForProposal[proposalID]\n      PUSH 20\t\t\tvotersForProposal[proposalID]\n      ADD \t\t\tvotersForProposal[proposalID]\n      PUSH 0\t\t\tvotersForProposal[proposalID]\n      KECCAK256 \t\t\tvotersForProposal[proposalID]\n      CALLER \t\t\tmsg.sender\n      SWAP1 \t\t\tvotersForProposal[proposalID]....\n      DUP1 \t\t\tvotersForProposal[proposalID]....\n      PUSH 1\t\t\tvotersForProposal[proposalID]....\n      DUP2 \t\t\tvotersForProposal[proposalID]....\n      SLOAD \t\t\tvotersForProposal[proposalID]....\n      ADD \t\t\tvotersForProposal[proposalID]....\n      DUP1 \t\t\tvotersForProposal[proposalID]....\n      DUP3 \t\t\tvotersForProposal[proposalID]....\n      SSTORE \t\t\tvotersForProposal[proposalID]....\n      DUP1 \t\t\tvotersForProposal[proposalID]....\n      SWAP2 \t\t\tvotersForProposal[proposalID]....\n      POP \t\t\tvotersForProposal[proposalID]....\n      POP \t\t\tvotersForProposal[proposalID]....\n      PUSH 1\t\t\tvotersForProposal[proposalID]....\n      SWAP1 \t\t\tvotersForProposal[proposalID]....\n      SUB \t\t\tvotersForProposal[proposalID]....\n      SWAP1 \t\t\tvotersForProposal[proposalID]....\n      PUSH 0\t\t\tvotersForProposal[proposalID]....\n      MSTORE \t\t\tvotersForProposal[proposalID]....\n      PUSH 20\t\t\tvotersForProposal[proposalID]....\n      PUSH 0\t\t\tvotersForProposal[proposalID]....\n      KECCAK256 \t\t\tvotersForProposal[proposalID]....\n      ADD \t\t\tvotersForProposal[proposalID]....\n      PUSH 0\t\t\tvotersForProposal[proposalID]....\n      SWAP1 \t\t\tvotersForProposal[proposalID]....\n      SWAP2 \t\t\tvotersForProposal[proposalID]....\n      SWAP1 \t\t\tvotersForProposal[proposalID]....\n      SWAP2 \t\t\tvotersForProposal[proposalID]....\n      SWAP1 \t\t\tvotersForProposal[proposalID]....\n      SWAP2 \t\t\tvotersForProposal[proposalID]....\n      PUSH 100\t\t\tvotersForProposal[proposalID]....\n      EXP \t\t\tvotersForProposal[proposalID]....\n      DUP2 \t\t\tvotersForProposal[proposalID]....\n      SLOAD \t\t\tvotersForProposal[proposalID]....\n      DUP2 \t\t\tvotersForProposal[proposalID]....\n      PUSH FFFFFFFFFFFFFFFFFFFFFFFFFFFFFFFFFFFFFFFF\t\t\tvotersForProposal[proposalID]....\n      MUL \t\t\tvotersForProposal[proposalID]....\n      NOT \t\t\tvotersForProposal[proposalID]....\n      AND \t\t\tvotersForProposal[proposalID]....\n      SWAP1 \t\t\tvotersForProposal[proposalID]....\n      DUP4 \t\t\tvotersForProposal[proposalID]....\n      PUSH FFFFFFFFFFFFFFFFFFFFFFFFFFFFFFFFFFFFFFFF\t\t\tvotersForProposal[proposalID]....\n      AND \t\t\tvotersForProposal[proposalID]....\n      MUL \t\t\tvotersForProposal[proposalID]....\n      OR \t\t\tvotersForProposal[proposalID]....\n      SWAP1 \t\t\tvotersForProposal[proposalID]....\n      SSTORE \t\t\tvotersForProposal[proposalID]....\n      POP \t\t\tvotersForProposal[proposalID]....\n      PUSH 7\t\t\tmembersForUpvote\n      PUSH 0\t\t\tmembersForUpvote[proposalID]\n      DUP3 \t\t\tproposalID\n      DUP2 \t\t\tmembersForUpvote[proposalID]\n      MSTORE \t\t\tmembersForUpvote[proposalID]\n      PUSH 20\t\t\tmembersForUpvote[proposalID]\n      ADD \t\t\tmembersForUpvote[proposalID]\n      SWAP1 \t\t\tmembersForUpvote[proposalID]\n      DUP2 \t\t\tmembersForUpvote[proposalID]\n      MSTORE \t\t\tmembersForUpvote[proposalID]\n      PUSH 20\t\t\tmembersForUpvote[proposalID]\n      ADD \t\t\tmembersForUpvote[proposalID]\n      PUSH 0\t\t\tmembersForUpvote[proposalID]\n      KECCAK256 \t\t\tmembersForUpvote[proposalID]\n      CALLER \t\t\tmsg.sender\n      SWAP1 \t\t\tmembersForUpvote[proposalID].p...\n      DUP1 \t\t\tmembersForUpvote[proposalID].p...\n      PUSH 1\t\t\tmembersForUpvote[proposalID].p...\n      DUP2 \t\t\tmembersForUpvote[proposalID].p...\n      SLOAD \t\t\tmembersForUpvote[proposalID].p...\n      ADD \t\t\tmembersForUpvote[proposalID].p...\n      DUP1 \t\t\tmembersForUpvote[proposalID].p...\n      DUP3 \t\t\tmembersForUpvote[proposalID].p...\n      SSTORE \t\t\tmembersForUpvote[proposalID].p...\n      DUP1 \t\t\tmembersForUpvote[proposalID].p...\n      SWAP2 \t\t\tmembersForUpvote[proposalID].p...\n      POP \t\t\tmembersForUpvote[proposalID].p...\n      POP \t\t\tmembersForUpvote[proposalID].p...\n      PUSH 1\t\t\tmembersForUpvote[proposalID].p...\n      SWAP1 \t\t\tmembersForUpvote[proposalID].p...\n      SUB \t\t\tmembersForUpvote[proposalID].p...\n      SWAP1 \t\t\tmembersForUpvote[proposalID].p...\n      PUSH 0\t\t\tmembersForUpvote[proposalID].p...\n      MSTORE \t\t\tmembersForUpvote[proposalID].p...\n      PUSH 20\t\t\tmembersForUpvote[proposalID].p...\n      PUSH 0\t\t\tmembersForUpvote[proposalID].p...\n      KECCAK256 \t\t\tmembersForUpvote[proposalID].p...\n      ADD \t\t\tmembersForUpvote[proposalID].p...\n      PUSH 0\t\t\tmembersForUpvote[proposalID].p...\n      SWAP1 \t\t\tmembersForUpvote[proposalID].p...\n      SWAP2 \t\t\tmembersForUpvote[proposalID].p...\n      SWAP1 \t\t\tmembersForUpvote[proposalID].p...\n      SWAP2 \t\t\tmembersForUpvote[proposalID].p...\n      SWAP1 \t\t\tmembersForUpvote[proposalID].p...\n      SWAP2 \t\t\tmembersForUpvote[proposalID].p...\n      PUSH 100\t\t\tmembersForUpvote[proposalID].p...\n      EXP \t\t\tmembersForUpvote[proposalID].p...\n      DUP2 \t\t\tmembersForUpvote[proposalID].p...\n      SLOAD \t\t\tmembersForUpvote[proposalID].p...\n      DUP2 \t\t\tmembersForUpvote[proposalID].p...\n      PUSH FFFFFFFFFFFFFFFFFFFFFFFFFFFFFFFFFFFFFFFF\t\t\tmembersForUpvote[proposalID].p...\n      MUL \t\t\tmembersForUpvote[proposalID].p...\n      NOT \t\t\tmembersForUpvote[proposalID].p...\n      AND \t\t\tmembersForUpvote[proposalID].p...\n      SWAP1 \t\t\tmembersForUpvote[proposalID].p...\n      DUP4 \t\t\tmembersForUpvote[proposalID].p...\n      PUSH FFFFFFFFFFFFFFFFFFFFFFFFFFFFFFFFFFFFFFFF\t\t\tmembersForUpvote[proposalID].p...\n      AND \t\t\tmembersForUpvote[proposalID].p...\n      MUL \t\t\tmembersForUpvote[proposalID].p...\n      OR \t\t\tmembersForUpvote[proposalID].p...\n      SWAP1 \t\t\tmembersForUpvote[proposalID].p...\n      SSTORE \t\t\tmembersForUpvote[proposalID].p...\n      POP \t\t\tmembersForUpvote[proposalID].p...\n      POP \t\t\tfunction upvoteProposal(uint25...\n      JUMP [out]\t\t\tfunction upvoteProposal(uint25...\n    tag 104\t\t\tISamhitaDAO public samhita\n      JUMPDEST \t\t\tISamhitaDAO public samhita\n      PUSH 1\t\t\tISamhitaDAO public samhita\n      PUSH 0\t\t\tISamhitaDAO public samhita\n      SWAP1 \t\t\tISamhitaDAO public samhita\n      SLOAD \t\t\tISamhitaDAO public samhita\n      SWAP1 \t\t\tISamhitaDAO public samhita\n      PUSH 100\t\t\tISamhitaDAO public samhita\n      EXP \t\t\tISamhitaDAO public samhita\n      SWAP1 \t\t\tISamhitaDAO public samhita\n      DIV \t\t\tISamhitaDAO public samhita\n      PUSH FFFFFFFFFFFFFFFFFFFFFFFFFFFFFFFFFFFFFFFF\t\t\tISamhitaDAO public samhita\n      AND \t\t\tISamhitaDAO public samhita\n      DUP2 \t\t\tISamhitaDAO public samhita\n      JUMP [out]\t\t\tISamhitaDAO public samhita\n    tag 109\t\t\tuint public royaltyFee = 10000...\n      JUMPDEST \t\t\tuint public royaltyFee = 10000...\n      PUSH 13\t\t\tuint public royaltyFee = 10000...\n      SLOAD \t\t\tuint public royaltyFee = 10000...\n      DUP2 \t\t\tuint public royaltyFee = 10000...\n      JUMP [out]\t\t\tuint public royaltyFee = 10000...\n    tag 114\t\t\tmapping(uint=>address[]) publi...\n      JUMPDEST \t\t\tmapping(uint=>address[]) publi...\n      PUSH 6\t\t\tmapping(uint=>address[]) publi...\n      PUSH 20\t\t\tmapping(uint=>address[]) publi...\n      MSTORE \t\t\tmapping(uint=>address[]) publi...\n      DUP2 \t\t\tmapping(uint=>address[]) publi...\n      PUSH 0\t\t\tmapping(uint=>address[]) publi...\n      MSTORE \t\t\tmapping(uint=>address[]) publi...\n      PUSH 40\t\t\tmapping(uint=>address[]) publi...\n      PUSH 0\t\t\tmapping(uint=>address[]) publi...\n      KECCAK256 \t\t\tmapping(uint=>address[]) publi...\n      DUP2 \t\t\tmapping(uint=>address[]) publi...\n      DUP2 \t\t\tmapping(uint=>address[]) publi...\n      SLOAD \t\t\tmapping(uint=>address[]) publi...\n      DUP2 \t\t\tmapping(uint=>address[]) publi...\n      LT \t\t\tmapping(uint=>address[]) publi...\n      PUSH [tag] 342\t\t\tmapping(uint=>address[]) publi...\n      JUMPI \t\t\tmapping(uint=>address[]) publi...\n      PUSH 0\t\t\tmapping(uint=>address[]) publi...\n      DUP1 \t\t\tmapping(uint=>address[]) publi...\n      REVERT \t\t\tmapping(uint=>address[]) publi...\n    tag 342\t\t\tmapping(uint=>address[]) publi...\n      JUMPDEST \t\t\tmapping(uint=>address[]) publi...\n      SWAP1 \t\t\tmapping(uint=>address[]) publi...\n      PUSH 0\t\t\tmapping(uint=>address[]) publi...\n      MSTORE \t\t\tmapping(uint=>address[]) publi...\n      PUSH 20\t\t\tmapping(uint=>address[]) publi...\n      PUSH 0\t\t\tmapping(uint=>address[]) publi...\n      KECCAK256 \t\t\tmapping(uint=>address[]) publi...\n      ADD \t\t\tmapping(uint=>address[]) publi...\n      PUSH 0\t\t\tmapping(uint=>address[]) publi...\n      SWAP2 \t\t\tmapping(uint=>address[]) publi...\n      POP \t\t\tmapping(uint=>address[]) publi...\n      SWAP2 \t\t\tmapping(uint=>address[]) publi...\n      POP \t\t\tmapping(uint=>address[]) publi...\n      SWAP1 \t\t\tmapping(uint=>address[]) publi...\n      SLOAD \t\t\tmapping(uint=>address[]) publi...\n      SWAP1 \t\t\tmapping(uint=>address[]) publi...\n      PUSH 100\t\t\tmapping(uint=>address[]) publi...\n      EXP \t\t\tmapping(uint=>address[]) publi...\n      SWAP1 \t\t\tmapping(uint=>address[]) publi...\n      DIV \t\t\tmapping(uint=>address[]) publi...\n      PUSH FFFFFFFFFFFFFFFFFFFFFFFFFFFFFFFFFFFFFFFF\t\t\tmapping(uint=>address[]) publi...\n      AND \t\t\tmapping(uint=>address[]) publi...\n      DUP2 \t\t\tmapping(uint=>address[]) publi...\n      JUMP [out]\t\t\tmapping(uint=>address[]) publi...\n    tag 118\t\t\tfunction getAllProposals() pub...\n      JUMPDEST \t\t\tfunction getAllProposals() pub...\n      PUSH 60\t\t\tProposal[] memory\n      PUSH 0\t\t\tProposal[] memory allProposals\n      PUSH 9\t\t\tproposalCount\n      SLOAD \t\t\tproposalCount\n      PUSH FFFFFFFFFFFFFFFF\t\t\tnew Proposal[](proposalCount)\n      DUP2 \t\t\tnew Proposal[](proposalCount)\n      GT \t\t\tnew Proposal[](proposalCount)\n      ISZERO \t\t\tnew Proposal[](proposalCount)\n      PUSH [tag] 345\t\t\tnew Proposal[](proposalCount)\n      JUMPI \t\t\tnew Proposal[](proposalCount)\n      PUSH [tag] 346\t\t\tnew Proposal[](proposalCount)\n      PUSH [tag] 347\t\t\tnew Proposal[](proposalCount)\n      JUMP [in]\t\t\tnew Proposal[](proposalCount)\n    tag 346\t\t\tnew Proposal[](proposalCount)\n      JUMPDEST \t\t\tnew Proposal[](proposalCount)\n    tag 345\t\t\tnew Proposal[](proposalCount)\n      JUMPDEST \t\t\tnew Proposal[](proposalCount)\n      PUSH 40\t\t\tnew Proposal[](proposalCount)\n      MLOAD \t\t\tnew Proposal[](proposalCount)\n      SWAP1 \t\t\tnew Proposal[](proposalCount)\n      DUP1 \t\t\tnew Proposal[](proposalCount)\n      DUP3 \t\t\tnew Proposal[](proposalCount)\n      MSTORE \t\t\tnew Proposal[](proposalCount)\n      DUP1 \t\t\tnew Proposal[](proposalCount)\n      PUSH 20\t\t\tnew Proposal[](proposalCount)\n      MUL \t\t\tnew Proposal[](proposalCount)\n      PUSH 20\t\t\tnew Proposal[](proposalCount)\n      ADD \t\t\tnew Proposal[](proposalCount)\n      DUP3 \t\t\tnew Proposal[](proposalCount)\n      ADD \t\t\tnew Proposal[](proposalCount)\n      PUSH 40\t\t\tnew Proposal[](proposalCount)\n      MSTORE \t\t\tnew Proposal[](proposalCount)\n      DUP1 \t\t\tnew Proposal[](proposalCount)\n      ISZERO \t\t\tnew Proposal[](proposalCount)\n      PUSH [tag] 348\t\t\tnew Proposal[](proposalCount)\n      JUMPI \t\t\tnew Proposal[](proposalCount)\n      DUP2 \t\t\tnew Proposal[](proposalCount)\n      PUSH 20\t\t\tnew Proposal[](proposalCount)\n      ADD \t\t\tnew Proposal[](proposalCount)\n    tag 349\t\t\tnew Proposal[](proposalCount)\n      JUMPDEST \t\t\tnew Proposal[](proposalCount)\n      PUSH [tag] 350\t\t\tnew Proposal[](proposalCount)\n      PUSH [tag] 351\t\t\tnew Proposal[](proposalCount)\n      JUMP [in]\t\t\tnew Proposal[](proposalCount)\n    tag 350\t\t\tnew Proposal[](proposalCount)\n      JUMPDEST \t\t\tnew Proposal[](proposalCount)\n      DUP2 \t\t\tnew Proposal[](proposalCount)\n      MSTORE \t\t\tnew Proposal[](proposalCount)\n      PUSH 20\t\t\tnew Proposal[](proposalCount)\n      ADD \t\t\tnew Proposal[](proposalCount)\n      SWAP1 \t\t\tnew Proposal[](proposalCount)\n      PUSH 1\t\t\tnew Proposal[](proposalCount)\n      SWAP1 \t\t\tnew Proposal[](proposalCount)\n      SUB \t\t\tnew Proposal[](proposalCount)\n      SWAP1 \t\t\tnew Proposal[](proposalCount)\n      DUP2 \t\t\tnew Proposal[](proposalCount)\n      PUSH [tag] 349\t\t\tnew Proposal[](proposalCount)\n      JUMPI \t\t\tnew Proposal[](proposalCount)\n      SWAP1 \t\t\tnew Proposal[](proposalCount)\n      POP \t\t\tnew Proposal[](proposalCount)\n    tag 348\t\t\tnew Proposal[](proposalCount)\n      JUMPDEST \t\t\tnew Proposal[](proposalCount)\n      POP \t\t\tnew Proposal[](proposalCount)\n      SWAP1 \t\t\tProposal[] memory allProposals...\n      POP \t\t\tProposal[] memory allProposals...\n      PUSH 0\t\t\tuint i\n    tag 352\t\t\tfor(uint i=0;i<proposalCount;i...\n      JUMPDEST \t\t\tfor(uint i=0;i<proposalCount;i...\n      PUSH 9\t\t\tproposalCount\n      SLOAD \t\t\tproposalCount\n      DUP2 \t\t\ti\n      LT \t\t\ti<proposalCount\n      ISZERO \t\t\tfor(uint i=0;i<proposalCount;i...\n      PUSH [tag] 353\t\t\tfor(uint i=0;i<proposalCount;i...\n      JUMPI \t\t\tfor(uint i=0;i<proposalCount;i...\n      PUSH 4\t\t\tproposals\n      PUSH 0\t\t\tproposals[i+1]\n      PUSH 1\t\t\t1\n      DUP4 \t\t\ti\n      PUSH [tag] 355\t\t\ti+1\n      SWAP2 \t\t\ti+1\n      SWAP1 \t\t\ti+1\n      PUSH [tag] 196\t\t\ti+1\n      JUMP [in]\t\t\ti+1\n    tag 355\t\t\ti+1\n      JUMPDEST \t\t\ti+1\n      DUP2 \t\t\tproposals[i+1]\n      MSTORE \t\t\tproposals[i+1]\n      PUSH 20\t\t\tproposals[i+1]\n      ADD \t\t\tproposals[i+1]\n      SWAP1 \t\t\tproposals[i+1]\n      DUP2 \t\t\tproposals[i+1]\n      MSTORE \t\t\tproposals[i+1]\n      PUSH 20\t\t\tproposals[i+1]\n      ADD \t\t\tproposals[i+1]\n      PUSH 0\t\t\tproposals[i+1]\n      KECCAK256 \t\t\tproposals[i+1]\n      PUSH 40\t\t\tallProposals[i] = proposals[i+...\n      MLOAD \t\t\tallProposals[i] = proposals[i+...\n      DUP1 \t\t\tallProposals[i] = proposals[i+...\n      PUSH 180\t\t\tallProposals[i] = proposals[i+...\n      ADD \t\t\tallProposals[i] = proposals[i+...\n      PUSH 40\t\t\tallProposals[i] = proposals[i+...\n      MSTORE \t\t\tallProposals[i] = proposals[i+...\n      SWAP1 \t\t\tallProposals[i] = proposals[i+...\n      DUP2 \t\t\tallProposals[i] = proposals[i+...\n      PUSH 0\t\t\tallProposals[i] = proposals[i+...\n      DUP3 \t\t\tallProposals[i] = proposals[i+...\n      ADD \t\t\tallProposals[i] = proposals[i+...\n      SLOAD \t\t\tallProposals[i] = proposals[i+...\n      DUP2 \t\t\tallProposals[i] = proposals[i+...\n      MSTORE \t\t\tallProposals[i] = proposals[i+...\n      PUSH 20\t\t\tallProposals[i] = proposals[i+...\n      ADD \t\t\tallProposals[i] = proposals[i+...\n      PUSH 1\t\t\tallProposals[i] = proposals[i+...\n      DUP3 \t\t\tallProposals[i] = proposals[i+...\n      ADD \t\t\tallProposals[i] = proposals[i+...\n      DUP1 \t\t\tallProposals[i] = proposals[i+...\n      SLOAD \t\t\tallProposals[i] = proposals[i+...\n      PUSH [tag] 356\t\t\tallProposals[i] = proposals[i+...\n      SWAP1 \t\t\tallProposals[i] = proposals[i+...\n      PUSH [tag] 150\t\t\tallProposals[i] = proposals[i+...\n      JUMP [in]\t\t\tallProposals[i] = proposals[i+...\n    tag 356\t\t\tallProposals[i] = proposals[i+...\n      JUMPDEST \t\t\tallProposals[i] = proposals[i+...\n      DUP1 \t\t\tallProposals[i] = proposals[i+...\n      PUSH 1F\t\t\tallProposals[i] = proposals[i+...\n      ADD \t\t\tallProposals[i] = proposals[i+...\n      PUSH 20\t\t\tallProposals[i] = proposals[i+...\n      DUP1 \t\t\tallProposals[i] = proposals[i+...\n      SWAP2 \t\t\tallProposals[i] = proposals[i+...\n      DIV \t\t\tallProposals[i] = proposals[i+...\n      MUL \t\t\tallProposals[i] = proposals[i+...\n      PUSH 20\t\t\tallProposals[i] = proposals[i+...\n      ADD \t\t\tallProposals[i] = proposals[i+...\n      PUSH 40\t\t\tallProposals[i] = proposals[i+...\n      MLOAD \t\t\tallProposals[i] = proposals[i+...\n      SWAP1 \t\t\tallProposals[i] = proposals[i+...\n      DUP2 \t\t\tallProposals[i] = proposals[i+...\n      ADD \t\t\tallProposals[i] = proposals[i+...\n      PUSH 40\t\t\tallProposals[i] = proposals[i+...\n      MSTORE \t\t\tallProposals[i] = proposals[i+...\n      DUP1 \t\t\tallProposals[i] = proposals[i+...\n      SWAP3 \t\t\tallProposals[i] = proposals[i+...\n      SWAP2 \t\t\tallProposals[i] = proposals[i+...\n      SWAP1 \t\t\tallProposals[i] = proposals[i+...\n      DUP2 \t\t\tallProposals[i] = proposals[i+...\n      DUP2 \t\t\tallProposals[i] = proposals[i+...\n      MSTORE \t\t\tallProposals[i] = proposals[i+...\n      PUSH 20\t\t\tallProposals[i] = proposals[i+...\n      ADD \t\t\tallProposals[i] = proposals[i+...\n      DUP3 \t\t\tallProposals[i] = proposals[i+...\n      DUP1 \t\t\tallProposals[i] = proposals[i+...\n      SLOAD \t\t\tallProposals[i] = proposals[i+...\n      PUSH [tag] 357\t\t\tallProposals[i] = proposals[i+...\n      SWAP1 \t\t\tallProposals[i] = proposals[i+...\n      PUSH [tag] 150\t\t\tallProposals[i] = proposals[i+...\n      JUMP [in]\t\t\tallProposals[i] = proposals[i+...\n    tag 357\t\t\tallProposals[i] = proposals[i+...\n      JUMPDEST \t\t\tallProposals[i] = proposals[i+...\n      DUP1 \t\t\tallProposals[i] = proposals[i+...\n      ISZERO \t\t\tallProposals[i] = proposals[i+...\n      PUSH [tag] 358\t\t\tallProposals[i] = proposals[i+...\n      JUMPI \t\t\tallProposals[i] = proposals[i+...\n      DUP1 \t\t\tallProposals[i] = proposals[i+...\n      PUSH 1F\t\t\tallProposals[i] = proposals[i+...\n      LT \t\t\tallProposals[i] = proposals[i+...\n      PUSH [tag] 359\t\t\tallProposals[i] = proposals[i+...\n      JUMPI \t\t\tallProposals[i] = proposals[i+...\n      PUSH 100\t\t\tallProposals[i] = proposals[i+...\n      DUP1 \t\t\tallProposals[i] = proposals[i+...\n      DUP4 \t\t\tallProposals[i] = proposals[i+...\n      SLOAD \t\t\tallProposals[i] = proposals[i+...\n      DIV \t\t\tallProposals[i] = proposals[i+...\n      MUL \t\t\tallProposals[i] = proposals[i+...\n      DUP4 \t\t\tallProposals[i] = proposals[i+...\n      MSTORE \t\t\tallProposals[i] = proposals[i+...\n      SWAP2 \t\t\tallProposals[i] = proposals[i+...\n      PUSH 20\t\t\tallProposals[i] = proposals[i+...\n      ADD \t\t\tallProposals[i] = proposals[i+...\n      SWAP2 \t\t\tallProposals[i] = proposals[i+...\n      PUSH [tag] 358\t\t\tallProposals[i] = proposals[i+...\n      JUMP \t\t\tallProposals[i] = proposals[i+...\n    tag 359\t\t\tallProposals[i] = proposals[i+...\n      JUMPDEST \t\t\tallProposals[i] = proposals[i+...\n      DUP3 \t\t\tallProposals[i] = proposals[i+...\n      ADD \t\t\tallProposals[i] = proposals[i+...\n      SWAP2 \t\t\tallProposals[i] = proposals[i+...\n      SWAP1 \t\t\tallProposals[i] = proposals[i+...\n      PUSH 0\t\t\tallProposals[i] = proposals[i+...\n      MSTORE \t\t\tallProposals[i] = proposals[i+...\n      PUSH 20\t\t\tallProposals[i] = proposals[i+...\n      PUSH 0\t\t\tallProposals[i] = proposals[i+...\n      KECCAK256 \t\t\tallProposals[i] = proposals[i+...\n      SWAP1 \t\t\tallProposals[i] = proposals[i+...\n    tag 360\t\t\tallProposals[i] = proposals[i+...\n      JUMPDEST \t\t\tallProposals[i] = proposals[i+...\n      DUP2 \t\t\tallProposals[i] = proposals[i+...\n      SLOAD \t\t\tallProposals[i] = proposals[i+...\n      DUP2 \t\t\tallProposals[i] = proposals[i+...\n      MSTORE \t\t\tallProposals[i] = proposals[i+...\n      SWAP1 \t\t\tallProposals[i] = proposals[i+...\n      PUSH 1\t\t\tallProposals[i] = proposals[i+...\n      ADD \t\t\tallProposals[i] = proposals[i+...\n      SWAP1 \t\t\tallProposals[i] = proposals[i+...\n      PUSH 20\t\t\tallProposals[i] = proposals[i+...\n      ADD \t\t\tallProposals[i] = proposals[i+...\n      DUP1 \t\t\tallProposals[i] = proposals[i+...\n      DUP4 \t\t\tallProposals[i] = proposals[i+...\n      GT \t\t\tallProposals[i] = proposals[i+...\n      PUSH [tag] 360\t\t\tallProposals[i] = proposals[i+...\n      JUMPI \t\t\tallProposals[i] = proposals[i+...\n      DUP3 \t\t\tallProposals[i] = proposals[i+...\n      SWAP1 \t\t\tallProposals[i] = proposals[i+...\n      SUB \t\t\tallProposals[i] = proposals[i+...\n      PUSH 1F\t\t\tallProposals[i] = proposals[i+...\n      AND \t\t\tallProposals[i] = proposals[i+...\n      DUP3 \t\t\tallProposals[i] = proposals[i+...\n      ADD \t\t\tallProposals[i] = proposals[i+...\n      SWAP2 \t\t\tallProposals[i] = proposals[i+...\n    tag 358\t\t\tallProposals[i] = proposals[i+...\n      JUMPDEST \t\t\tallProposals[i] = proposals[i+...\n      POP \t\t\tallProposals[i] = proposals[i+...\n      POP \t\t\tallProposals[i] = proposals[i+...\n      POP \t\t\tallProposals[i] = proposals[i+...\n      POP \t\t\tallProposals[i] = proposals[i+...\n      POP \t\t\tallProposals[i] = proposals[i+...\n      DUP2 \t\t\tallProposals[i] = proposals[i+...\n      MSTORE \t\t\tallProposals[i] = proposals[i+...\n      PUSH 20\t\t\tallProposals[i] = proposals[i+...\n      ADD \t\t\tallProposals[i] = proposals[i+...\n      PUSH 2\t\t\tallProposals[i] = proposals[i+...\n      DUP3 \t\t\tallProposals[i] = proposals[i+...\n      ADD \t\t\tallProposals[i] = proposals[i+...\n      DUP1 \t\t\tallProposals[i] = proposals[i+...\n      SLOAD \t\t\tallProposals[i] = proposals[i+...\n      PUSH [tag] 361\t\t\tallProposals[i] = proposals[i+...\n      SWAP1 \t\t\tallProposals[i] = proposals[i+...\n      PUSH [tag] 150\t\t\tallProposals[i] = proposals[i+...\n      JUMP [in]\t\t\tallProposals[i] = proposals[i+...\n    tag 361\t\t\tallProposals[i] = proposals[i+...\n      JUMPDEST \t\t\tallProposals[i] = proposals[i+...\n      DUP1 \t\t\tallProposals[i] = proposals[i+...\n      PUSH 1F\t\t\tallProposals[i] = proposals[i+...\n      ADD \t\t\tallProposals[i] = proposals[i+...\n      PUSH 20\t\t\tallProposals[i] = proposals[i+...\n      DUP1 \t\t\tallProposals[i] = proposals[i+...\n      SWAP2 \t\t\tallProposals[i] = proposals[i+...\n      DIV \t\t\tallProposals[i] = proposals[i+...\n      MUL \t\t\tallProposals[i] = proposals[i+...\n      PUSH 20\t\t\tallProposals[i] = proposals[i+...\n      ADD \t\t\tallProposals[i] = proposals[i+...\n      PUSH 40\t\t\tallProposals[i] = proposals[i+...\n      MLOAD \t\t\tallProposals[i] = proposals[i+...\n      SWAP1 \t\t\tallProposals[i] = proposals[i+...\n      DUP2 \t\t\tallProposals[i] = proposals[i+...\n      ADD \t\t\tallProposals[i] = proposals[i+...\n      PUSH 40\t\t\tallProposals[i] = proposals[i+...\n      MSTORE \t\t\tallProposals[i] = proposals[i+...\n      DUP1 \t\t\tallProposals[i] = proposals[i+...\n      SWAP3 \t\t\tallProposals[i] = proposals[i+...\n      SWAP2 \t\t\tallProposals[i] = proposals[i+...\n      SWAP1 \t\t\tallProposals[i] = proposals[i+...\n      DUP2 \t\t\tallProposals[i] = proposals[i+...\n      DUP2 \t\t\tallProposals[i] = proposals[i+...\n      MSTORE \t\t\tallProposals[i] = proposals[i+...\n      PUSH 20\t\t\tallProposals[i] = proposals[i+...\n      ADD \t\t\tallProposals[i] = proposals[i+...\n      DUP3 \t\t\tallProposals[i] = proposals[i+...\n      DUP1 \t\t\tallProposals[i] = proposals[i+...\n      SLOAD \t\t\tallProposals[i] = proposals[i+...\n      PUSH [tag] 362\t\t\tallProposals[i] = proposals[i+...\n      SWAP1 \t\t\tallProposals[i] = proposals[i+...\n      PUSH [tag] 150\t\t\tallProposals[i] = proposals[i+...\n      JUMP [in]\t\t\tallProposals[i] = proposals[i+...\n    tag 362\t\t\tallProposals[i] = proposals[i+...\n      JUMPDEST \t\t\tallProposals[i] = proposals[i+...\n      DUP1 \t\t\tallProposals[i] = proposals[i+...\n      ISZERO \t\t\tallProposals[i] = proposals[i+...\n      PUSH [tag] 363\t\t\tallProposals[i] = proposals[i+...\n      JUMPI \t\t\tallProposals[i] = proposals[i+...\n      DUP1 \t\t\tallProposals[i] = proposals[i+...\n      PUSH 1F\t\t\tallProposals[i] = proposals[i+...\n      LT \t\t\tallProposals[i] = proposals[i+...\n      PUSH [tag] 364\t\t\tallProposals[i] = proposals[i+...\n      JUMPI \t\t\tallProposals[i] = proposals[i+...\n      PUSH 100\t\t\tallProposals[i] = proposals[i+...\n      DUP1 \t\t\tallProposals[i] = proposals[i+...\n      DUP4 \t\t\tallProposals[i] = proposals[i+...\n      SLOAD \t\t\tallProposals[i] = proposals[i+...\n      DIV \t\t\tallProposals[i] = proposals[i+...\n      MUL \t\t\tallProposals[i] = proposals[i+...\n      DUP4 \t\t\tallProposals[i] = proposals[i+...\n      MSTORE \t\t\tallProposals[i] = proposals[i+...\n      SWAP2 \t\t\tallProposals[i] = proposals[i+...\n      PUSH 20\t\t\tallProposals[i] = proposals[i+...\n      ADD \t\t\tallProposals[i] = proposals[i+...\n      SWAP2 \t\t\tallProposals[i] = proposals[i+...\n      PUSH [tag] 363\t\t\tallProposals[i] = proposals[i+...\n      JUMP \t\t\tallProposals[i] = proposals[i+...\n    tag 364\t\t\tallProposals[i] = proposals[i+...\n      JUMPDEST \t\t\tallProposals[i] = proposals[i+...\n      DUP3 \t\t\tallProposals[i] = proposals[i+...\n      ADD \t\t\tallProposals[i] = proposals[i+...\n      SWAP2 \t\t\tallProposals[i] = proposals[i+...\n      SWAP1 \t\t\tallProposals[i] = proposals[i+...\n      PUSH 0\t\t\tallProposals[i] = proposals[i+...\n      MSTORE \t\t\tallProposals[i] = proposals[i+...\n      PUSH 20\t\t\tallProposals[i] = proposals[i+...\n      PUSH 0\t\t\tallProposals[i] = proposals[i+...\n      KECCAK256 \t\t\tallProposals[i] = proposals[i+...\n      SWAP1 \t\t\tallProposals[i] = proposals[i+...\n    tag 365\t\t\tallProposals[i] = proposals[i+...\n      JUMPDEST \t\t\tallProposals[i] = proposals[i+...\n      DUP2 \t\t\tallProposals[i] = proposals[i+...\n      SLOAD \t\t\tallProposals[i] = proposals[i+...\n      DUP2 \t\t\tallProposals[i] = proposals[i+...\n      MSTORE \t\t\tallProposals[i] = proposals[i+...\n      SWAP1 \t\t\tallProposals[i] = proposals[i+...\n      PUSH 1\t\t\tallProposals[i] = proposals[i+...\n      ADD \t\t\tallProposals[i] = proposals[i+...\n      SWAP1 \t\t\tallProposals[i] = proposals[i+...\n      PUSH 20\t\t\tallProposals[i] = proposals[i+...\n      ADD \t\t\tallProposals[i] = proposals[i+...\n      DUP1 \t\t\tallProposals[i] = proposals[i+...\n      DUP4 \t\t\tallProposals[i] = proposals[i+...\n      GT \t\t\tallProposals[i] = proposals[i+...\n      PUSH [tag] 365\t\t\tallProposals[i] = proposals[i+...\n      JUMPI \t\t\tallProposals[i] = proposals[i+...\n      DUP3 \t\t\tallProposals[i] = proposals[i+...\n      SWAP1 \t\t\tallProposals[i] = proposals[i+...\n      SUB \t\t\tallProposals[i] = proposals[i+...\n      PUSH 1F\t\t\tallProposals[i] = proposals[i+...\n      AND \t\t\tallProposals[i] = proposals[i+...\n      DUP3 \t\t\tallProposals[i] = proposals[i+...\n      ADD \t\t\tallProposals[i] = proposals[i+...\n      SWAP2 \t\t\tallProposals[i] = proposals[i+...\n    tag 363\t\t\tallProposals[i] = proposals[i+...\n      JUMPDEST \t\t\tallProposals[i] = proposals[i+...\n      POP \t\t\tallProposals[i] = proposals[i+...\n      POP \t\t\tallProposals[i] = proposals[i+...\n      POP \t\t\tallProposals[i] = proposals[i+...\n      POP \t\t\tallProposals[i] = proposals[i+...\n      POP \t\t\tallProposals[i] = proposals[i+...\n      DUP2 \t\t\tallProposals[i] = proposals[i+...\n      MSTORE \t\t\tallProposals[i] = proposals[i+...\n      PUSH 20\t\t\tallProposals[i] = proposals[i+...\n      ADD \t\t\tallProposals[i] = proposals[i+...\n      PUSH 3\t\t\tallProposals[i] = proposals[i+...\n      DUP3 \t\t\tallProposals[i] = proposals[i+...\n      ADD \t\t\tallProposals[i] = proposals[i+...\n      DUP1 \t\t\tallProposals[i] = proposals[i+...\n      SLOAD \t\t\tallProposals[i] = proposals[i+...\n      PUSH [tag] 366\t\t\tallProposals[i] = proposals[i+...\n      SWAP1 \t\t\tallProposals[i] = proposals[i+...\n      PUSH [tag] 150\t\t\tallProposals[i] = proposals[i+...\n      JUMP [in]\t\t\tallProposals[i] = proposals[i+...\n    tag 366\t\t\tallProposals[i] = proposals[i+...\n      JUMPDEST \t\t\tallProposals[i] = proposals[i+...\n      DUP1 \t\t\tallProposals[i] = proposals[i+...\n      PUSH 1F\t\t\tallProposals[i] = proposals[i+...\n      ADD \t\t\tallProposals[i] = proposals[i+...\n      PUSH 20\t\t\tallProposals[i] = proposals[i+...\n      DUP1 \t\t\tallProposals[i] = proposals[i+...\n      SWAP2 \t\t\tallProposals[i] = proposals[i+...\n      DIV \t\t\tallProposals[i] = proposals[i+...\n      MUL \t\t\tallProposals[i] = proposals[i+...\n      PUSH 20\t\t\tallProposals[i] = proposals[i+...\n      ADD \t\t\tallProposals[i] = proposals[i+...\n      PUSH 40\t\t\tallProposals[i] = proposals[i+...\n      MLOAD \t\t\tallProposals[i] = proposals[i+...\n      SWAP1 \t\t\tallProposals[i] = proposals[i+...\n      DUP2 \t\t\tallProposals[i] = proposals[i+...\n      ADD \t\t\tallProposals[i] = proposals[i+...\n      PUSH 40\t\t\tallProposals[i] = proposals[i+...\n      MSTORE \t\t\tallProposals[i] = proposals[i+...\n      DUP1 \t\t\tallProposals[i] = proposals[i+...\n      SWAP3 \t\t\tallProposals[i] = proposals[i+...\n      SWAP2 \t\t\tallProposals[i] = proposals[i+...\n      SWAP1 \t\t\tallProposals[i] = proposals[i+...\n      DUP2 \t\t\tallProposals[i] = proposals[i+...\n      DUP2 \t\t\tallProposals[i] = proposals[i+...\n      MSTORE \t\t\tallProposals[i] = proposals[i+...\n      PUSH 20\t\t\tallProposals[i] = proposals[i+...\n      ADD \t\t\tallProposals[i] = proposals[i+...\n      DUP3 \t\t\tallProposals[i] = proposals[i+...\n      DUP1 \t\t\tallProposals[i] = proposals[i+...\n      SLOAD \t\t\tallProposals[i] = proposals[i+...\n      PUSH [tag] 367\t\t\tallProposals[i] = proposals[i+...\n      SWAP1 \t\t\tallProposals[i] = proposals[i+...\n      PUSH [tag] 150\t\t\tallProposals[i] = proposals[i+...\n      JUMP [in]\t\t\tallProposals[i] = proposals[i+...\n    tag 367\t\t\tallProposals[i] = proposals[i+...\n      JUMPDEST \t\t\tallProposals[i] = proposals[i+...\n      DUP1 \t\t\tallProposals[i] = proposals[i+...\n      ISZERO \t\t\tallProposals[i] = proposals[i+...\n      PUSH [tag] 368\t\t\tallProposals[i] = proposals[i+...\n      JUMPI \t\t\tallProposals[i] = proposals[i+...\n      DUP1 \t\t\tallProposals[i] = proposals[i+...\n      PUSH 1F\t\t\tallProposals[i] = proposals[i+...\n      LT \t\t\tallProposals[i] = proposals[i+...\n      PUSH [tag] 369\t\t\tallProposals[i] = proposals[i+...\n      JUMPI \t\t\tallProposals[i] = proposals[i+...\n      PUSH 100\t\t\tallProposals[i] = proposals[i+...\n      DUP1 \t\t\tallProposals[i] = proposals[i+...\n      DUP4 \t\t\tallProposals[i] = proposals[i+...\n      SLOAD \t\t\tallProposals[i] = proposals[i+...\n      DIV \t\t\tallProposals[i] = proposals[i+...\n      MUL \t\t\tallProposals[i] = proposals[i+...\n      DUP4 \t\t\tallProposals[i] = proposals[i+...\n      MSTORE \t\t\tallProposals[i] = proposals[i+...\n      SWAP2 \t\t\tallProposals[i] = proposals[i+...\n      PUSH 20\t\t\tallProposals[i] = proposals[i+...\n      ADD \t\t\tallProposals[i] = proposals[i+...\n      SWAP2 \t\t\tallProposals[i] = proposals[i+...\n      PUSH [tag] 368\t\t\tallProposals[i] = proposals[i+...\n      JUMP \t\t\tallProposals[i] = proposals[i+...\n    tag 369\t\t\tallProposals[i] = proposals[i+...\n      JUMPDEST \t\t\tallProposals[i] = proposals[i+...\n      DUP3 \t\t\tallProposals[i] = proposals[i+...\n      ADD \t\t\tallProposals[i] = proposals[i+...\n      SWAP2 \t\t\tallProposals[i] = proposals[i+...\n      SWAP1 \t\t\tallProposals[i] = proposals[i+...\n      PUSH 0\t\t\tallProposals[i] = proposals[i+...\n      MSTORE \t\t\tallProposals[i] = proposals[i+...\n      PUSH 20\t\t\tallProposals[i] = proposals[i+...\n      PUSH 0\t\t\tallProposals[i] = proposals[i+...\n      KECCAK256 \t\t\tallProposals[i] = proposals[i+...\n      SWAP1 \t\t\tallProposals[i] = proposals[i+...\n    tag 370\t\t\tallProposals[i] = proposals[i+...\n      JUMPDEST \t\t\tallProposals[i] = proposals[i+...\n      DUP2 \t\t\tallProposals[i] = proposals[i+...\n      SLOAD \t\t\tallProposals[i] = proposals[i+...\n      DUP2 \t\t\tallProposals[i] = proposals[i+...\n      MSTORE \t\t\tallProposals[i] = proposals[i+...\n      SWAP1 \t\t\tallProposals[i] = proposals[i+...\n      PUSH 1\t\t\tallProposals[i] = proposals[i+...\n      ADD \t\t\tallProposals[i] = proposals[i+...\n      SWAP1 \t\t\tallProposals[i] = proposals[i+...\n      PUSH 20\t\t\tallProposals[i] = proposals[i+...\n      ADD \t\t\tallProposals[i] = proposals[i+...\n      DUP1 \t\t\tallProposals[i] = proposals[i+...\n      DUP4 \t\t\tallProposals[i] = proposals[i+...\n      GT \t\t\tallProposals[i] = proposals[i+...\n      PUSH [tag] 370\t\t\tallProposals[i] = proposals[i+...\n      JUMPI \t\t\tallProposals[i] = proposals[i+...\n      DUP3 \t\t\tallProposals[i] = proposals[i+...\n      SWAP1 \t\t\tallProposals[i] = proposals[i+...\n      SUB \t\t\tallProposals[i] = proposals[i+...\n      PUSH 1F\t\t\tallProposals[i] = proposals[i+...\n      AND \t\t\tallProposals[i] = proposals[i+...\n      DUP3 \t\t\tallProposals[i] = proposals[i+...\n      ADD \t\t\tallProposals[i] = proposals[i+...\n      SWAP2 \t\t\tallProposals[i] = proposals[i+...\n    tag 368\t\t\tallProposals[i] = proposals[i+...\n      JUMPDEST \t\t\tallProposals[i] = proposals[i+...\n      POP \t\t\tallProposals[i] = proposals[i+...\n      POP \t\t\tallProposals[i] = proposals[i+...\n      POP \t\t\tallProposals[i] = proposals[i+...\n      POP \t\t\tallProposals[i] = proposals[i+...\n      POP \t\t\tallProposals[i] = proposals[i+...\n      DUP2 \t\t\tallProposals[i] = proposals[i+...\n      MSTORE \t\t\tallProposals[i] = proposals[i+...\n      PUSH 20\t\t\tallProposals[i] = proposals[i+...\n      ADD \t\t\tallProposals[i] = proposals[i+...\n      PUSH 4\t\t\tallProposals[i] = proposals[i+...\n      DUP3 \t\t\tallProposals[i] = proposals[i+...\n      ADD \t\t\tallProposals[i] = proposals[i+...\n      PUSH 0\t\t\tallProposals[i] = proposals[i+...\n      SWAP1 \t\t\tallProposals[i] = proposals[i+...\n      SLOAD \t\t\tallProposals[i] = proposals[i+...\n      SWAP1 \t\t\tallProposals[i] = proposals[i+...\n      PUSH 100\t\t\tallProposals[i] = proposals[i+...\n      EXP \t\t\tallProposals[i] = proposals[i+...\n      SWAP1 \t\t\tallProposals[i] = proposals[i+...\n      DIV \t\t\tallProposals[i] = proposals[i+...\n      PUSH FFFFFFFFFFFFFFFFFFFFFFFFFFFFFFFFFFFFFFFF\t\t\tallProposals[i] = proposals[i+...\n      AND \t\t\tallProposals[i] = proposals[i+...\n      PUSH FFFFFFFFFFFFFFFFFFFFFFFFFFFFFFFFFFFFFFFF\t\t\tallProposals[i] = proposals[i+...\n      AND \t\t\tallProposals[i] = proposals[i+...\n      PUSH FFFFFFFFFFFFFFFFFFFFFFFFFFFFFFFFFFFFFFFF\t\t\tallProposals[i] = proposals[i+...\n      AND \t\t\tallProposals[i] = proposals[i+...\n      DUP2 \t\t\tallProposals[i] = proposals[i+...\n      MSTORE \t\t\tallProposals[i] = proposals[i+...\n      PUSH 20\t\t\tallProposals[i] = proposals[i+...\n      ADD \t\t\tallProposals[i] = proposals[i+...\n      PUSH 5\t\t\tallProposals[i] = proposals[i+...\n      DUP3 \t\t\tallProposals[i] = proposals[i+...\n      ADD \t\t\tallProposals[i] = proposals[i+...\n      SLOAD \t\t\tallProposals[i] = proposals[i+...\n      DUP2 \t\t\tallProposals[i] = proposals[i+...\n      MSTORE \t\t\tallProposals[i] = proposals[i+...\n      PUSH 20\t\t\tallProposals[i] = proposals[i+...\n      ADD \t\t\tallProposals[i] = proposals[i+...\n      PUSH 6\t\t\tallProposals[i] = proposals[i+...\n      DUP3 \t\t\tallProposals[i] = proposals[i+...\n      ADD \t\t\tallProposals[i] = proposals[i+...\n      SLOAD \t\t\tallProposals[i] = proposals[i+...\n      DUP2 \t\t\tallProposals[i] = proposals[i+...\n      MSTORE \t\t\tallProposals[i] = proposals[i+...\n      PUSH 20\t\t\tallProposals[i] = proposals[i+...\n      ADD \t\t\tallProposals[i] = proposals[i+...\n      PUSH 7\t\t\tallProposals[i] = proposals[i+...\n      DUP3 \t\t\tallProposals[i] = proposals[i+...\n      ADD \t\t\tallProposals[i] = proposals[i+...\n      SLOAD \t\t\tallProposals[i] = proposals[i+...\n      DUP2 \t\t\tallProposals[i] = proposals[i+...\n      MSTORE \t\t\tallProposals[i] = proposals[i+...\n      PUSH 20\t\t\tallProposals[i] = proposals[i+...\n      ADD \t\t\tallProposals[i] = proposals[i+...\n      PUSH 8\t\t\tallProposals[i] = proposals[i+...\n      DUP3 \t\t\tallProposals[i] = proposals[i+...\n      ADD \t\t\tallProposals[i] = proposals[i+...\n      SLOAD \t\t\tallProposals[i] = proposals[i+...\n      DUP2 \t\t\tallProposals[i] = proposals[i+...\n      MSTORE \t\t\tallProposals[i] = proposals[i+...\n      PUSH 20\t\t\tallProposals[i] = proposals[i+...\n      ADD \t\t\tallProposals[i] = proposals[i+...\n      PUSH 9\t\t\tallProposals[i] = proposals[i+...\n      DUP3 \t\t\tallProposals[i] = proposals[i+...\n      ADD \t\t\tallProposals[i] = proposals[i+...\n      SLOAD \t\t\tallProposals[i] = proposals[i+...\n      DUP2 \t\t\tallProposals[i] = proposals[i+...\n      MSTORE \t\t\tallProposals[i] = proposals[i+...\n      PUSH 20\t\t\tallProposals[i] = proposals[i+...\n      ADD \t\t\tallProposals[i] = proposals[i+...\n      PUSH A\t\t\tallProposals[i] = proposals[i+...\n      DUP3 \t\t\tallProposals[i] = proposals[i+...\n      ADD \t\t\tallProposals[i] = proposals[i+...\n      DUP1 \t\t\tallProposals[i] = proposals[i+...\n      SLOAD \t\t\tallProposals[i] = proposals[i+...\n      PUSH [tag] 371\t\t\tallProposals[i] = proposals[i+...\n      SWAP1 \t\t\tallProposals[i] = proposals[i+...\n      PUSH [tag] 150\t\t\tallProposals[i] = proposals[i+...\n      JUMP [in]\t\t\tallProposals[i] = proposals[i+...\n    tag 371\t\t\tallProposals[i] = proposals[i+...\n      JUMPDEST \t\t\tallProposals[i] = proposals[i+...\n      DUP1 \t\t\tallProposals[i] = proposals[i+...\n      PUSH 1F\t\t\tallProposals[i] = proposals[i+...\n      ADD \t\t\tallProposals[i] = proposals[i+...\n      PUSH 20\t\t\tallProposals[i] = proposals[i+...\n      DUP1 \t\t\tallProposals[i] = proposals[i+...\n      SWAP2 \t\t\tallProposals[i] = proposals[i+...\n      DIV \t\t\tallProposals[i] = proposals[i+...\n      MUL \t\t\tallProposals[i] = proposals[i+...\n      PUSH 20\t\t\tallProposals[i] = proposals[i+...\n      ADD \t\t\tallProposals[i] = proposals[i+...\n      PUSH 40\t\t\tallProposals[i] = proposals[i+...\n      MLOAD \t\t\tallProposals[i] = proposals[i+...\n      SWAP1 \t\t\tallProposals[i] = proposals[i+...\n      DUP2 \t\t\tallProposals[i] = proposals[i+...\n      ADD \t\t\tallProposals[i] = proposals[i+...\n      PUSH 40\t\t\tallProposals[i] = proposals[i+...\n      MSTORE \t\t\tallProposals[i] = proposals[i+...\n      DUP1 \t\t\tallProposals[i] = proposals[i+...\n      SWAP3 \t\t\tallProposals[i] = proposals[i+...\n      SWAP2 \t\t\tallProposals[i] = proposals[i+...\n      SWAP1 \t\t\tallProposals[i] = proposals[i+...\n      DUP2 \t\t\tallProposals[i] = proposals[i+...\n      DUP2 \t\t\tallProposals[i] = proposals[i+...\n      MSTORE \t\t\tallProposals[i] = proposals[i+...\n      PUSH 20\t\t\tallProposals[i] = proposals[i+...\n      ADD \t\t\tallProposals[i] = proposals[i+...\n      DUP3 \t\t\tallProposals[i] = proposals[i+...\n      DUP1 \t\t\tallProposals[i] = proposals[i+...\n      SLOAD \t\t\tallProposals[i] = proposals[i+...\n      PUSH [tag] 372\t\t\tallProposals[i] = proposals[i+...\n      SWAP1 \t\t\tallProposals[i] = proposals[i+...\n      PUSH [tag] 150\t\t\tallProposals[i] = proposals[i+...\n      JUMP [in]\t\t\tallProposals[i] = proposals[i+...\n    tag 372\t\t\tallProposals[i] = proposals[i+...\n      JUMPDEST \t\t\tallProposals[i] = proposals[i+...\n      DUP1 \t\t\tallProposals[i] = proposals[i+...\n      ISZERO \t\t\tallProposals[i] = proposals[i+...\n      PUSH [tag] 373\t\t\tallProposals[i] = proposals[i+...\n      JUMPI \t\t\tallProposals[i] = proposals[i+...\n      DUP1 \t\t\tallProposals[i] = proposals[i+...\n      PUSH 1F\t\t\tallProposals[i] = proposals[i+...\n      LT \t\t\tallProposals[i] = proposals[i+...\n      PUSH [tag] 374\t\t\tallProposals[i] = proposals[i+...\n      JUMPI \t\t\tallProposals[i] = proposals[i+...\n      PUSH 100\t\t\tallProposals[i] = proposals[i+...\n      DUP1 \t\t\tallProposals[i] = proposals[i+...\n      DUP4 \t\t\tallProposals[i] = proposals[i+...\n      SLOAD \t\t\tallProposals[i] = proposals[i+...\n      DIV \t\t\tallProposals[i] = proposals[i+...\n      MUL \t\t\tallProposals[i] = proposals[i+...\n      DUP4 \t\t\tallProposals[i] = proposals[i+...\n      MSTORE \t\t\tallProposals[i] = proposals[i+...\n      SWAP2 \t\t\tallProposals[i] = proposals[i+...\n      PUSH 20\t\t\tallProposals[i] = proposals[i+...\n      ADD \t\t\tallProposals[i] = proposals[i+...\n      SWAP2 \t\t\tallProposals[i] = proposals[i+...\n      PUSH [tag] 373\t\t\tallProposals[i] = proposals[i+...\n      JUMP \t\t\tallProposals[i] = proposals[i+...\n    tag 374\t\t\tallProposals[i] = proposals[i+...\n      JUMPDEST \t\t\tallProposals[i] = proposals[i+...\n      DUP3 \t\t\tallProposals[i] = proposals[i+...\n      ADD \t\t\tallProposals[i] = proposals[i+...\n      SWAP2 \t\t\tallProposals[i] = proposals[i+...\n      SWAP1 \t\t\tallProposals[i] = proposals[i+...\n      PUSH 0\t\t\tallProposals[i] = proposals[i+...\n      MSTORE \t\t\tallProposals[i] = proposals[i+...\n      PUSH 20\t\t\tallProposals[i] = proposals[i+...\n      PUSH 0\t\t\tallProposals[i] = proposals[i+...\n      KECCAK256 \t\t\tallProposals[i] = proposals[i+...\n      SWAP1 \t\t\tallProposals[i] = proposals[i+...\n    tag 375\t\t\tallProposals[i] = proposals[i+...\n      JUMPDEST \t\t\tallProposals[i] = proposals[i+...\n      DUP2 \t\t\tallProposals[i] = proposals[i+...\n      SLOAD \t\t\tallProposals[i] = proposals[i+...\n      DUP2 \t\t\tallProposals[i] = proposals[i+...\n      MSTORE \t\t\tallProposals[i] = proposals[i+...\n      SWAP1 \t\t\tallProposals[i] = proposals[i+...\n      PUSH 1\t\t\tallProposals[i] = proposals[i+...\n      ADD \t\t\tallProposals[i] = proposals[i+...\n      SWAP1 \t\t\tallProposals[i] = proposals[i+...\n      PUSH 20\t\t\tallProposals[i] = proposals[i+...\n      ADD \t\t\tallProposals[i] = proposals[i+...\n      DUP1 \t\t\tallProposals[i] = proposals[i+...\n      DUP4 \t\t\tallProposals[i] = proposals[i+...\n      GT \t\t\tallProposals[i] = proposals[i+...\n      PUSH [tag] 375\t\t\tallProposals[i] = proposals[i+...\n      JUMPI \t\t\tallProposals[i] = proposals[i+...\n      DUP3 \t\t\tallProposals[i] = proposals[i+...\n      SWAP1 \t\t\tallProposals[i] = proposals[i+...\n      SUB \t\t\tallProposals[i] = proposals[i+...\n      PUSH 1F\t\t\tallProposals[i] = proposals[i+...\n      AND \t\t\tallProposals[i] = proposals[i+...\n      DUP3 \t\t\tallProposals[i] = proposals[i+...\n      ADD \t\t\tallProposals[i] = proposals[i+...\n      SWAP2 \t\t\tallProposals[i] = proposals[i+...\n    tag 373\t\t\tallProposals[i] = proposals[i+...\n      JUMPDEST \t\t\tallProposals[i] = proposals[i+...\n      POP \t\t\tallProposals[i] = proposals[i+...\n      POP \t\t\tallProposals[i] = proposals[i+...\n      POP \t\t\tallProposals[i] = proposals[i+...\n      POP \t\t\tallProposals[i] = proposals[i+...\n      POP \t\t\tallProposals[i] = proposals[i+...\n      DUP2 \t\t\tallProposals[i] = proposals[i+...\n      MSTORE \t\t\tallProposals[i] = proposals[i+...\n      PUSH 20\t\t\tallProposals[i] = proposals[i+...\n      ADD \t\t\tallProposals[i] = proposals[i+...\n      PUSH B\t\t\tallProposals[i] = proposals[i+...\n      DUP3 \t\t\tallProposals[i] = proposals[i+...\n      ADD \t\t\tallProposals[i] = proposals[i+...\n      PUSH 0\t\t\tallProposals[i] = proposals[i+...\n      SWAP1 \t\t\tallProposals[i] = proposals[i+...\n      SLOAD \t\t\tallProposals[i] = proposals[i+...\n      SWAP1 \t\t\tallProposals[i] = proposals[i+...\n      PUSH 100\t\t\tallProposals[i] = proposals[i+...\n      EXP \t\t\tallProposals[i] = proposals[i+...\n      SWAP1 \t\t\tallProposals[i] = proposals[i+...\n      DIV \t\t\tallProposals[i] = proposals[i+...\n      PUSH FF\t\t\tallProposals[i] = proposals[i+...\n      AND \t\t\tallProposals[i] = proposals[i+...\n      ISZERO \t\t\tallProposals[i] = proposals[i+...\n      ISZERO \t\t\tallProposals[i] = proposals[i+...\n      ISZERO \t\t\tallProposals[i] = proposals[i+...\n      ISZERO \t\t\tallProposals[i] = proposals[i+...\n      DUP2 \t\t\tallProposals[i] = proposals[i+...\n      MSTORE \t\t\tallProposals[i] = proposals[i+...\n      POP \t\t\tallProposals[i] = proposals[i+...\n      POP \t\t\tallProposals[i] = proposals[i+...\n      DUP3 \t\t\tallProposals\n      DUP3 \t\t\ti\n      DUP2 \t\t\tallProposals[i]\n      MLOAD \t\t\tallProposals[i]\n      DUP2 \t\t\tallProposals[i]\n      LT \t\t\tallProposals[i]\n      PUSH [tag] 376\t\t\tallProposals[i]\n      JUMPI \t\t\tallProposals[i]\n      PUSH [tag] 377\t\t\tallProposals[i]\n      PUSH [tag] 289\t\t\tallProposals[i]\n      JUMP [in]\t\t\tallProposals[i]\n    tag 377\t\t\tallProposals[i]\n      JUMPDEST \t\t\tallProposals[i]\n    tag 376\t\t\tallProposals[i]\n      JUMPDEST \t\t\tallProposals[i]\n      PUSH 20\t\t\tallProposals[i]\n      MUL \t\t\tallProposals[i]\n      PUSH 20\t\t\tallProposals[i]\n      ADD \t\t\tallProposals[i]\n      ADD \t\t\tallProposals[i]\n      DUP2 \t\t\tallProposals[i] = proposals[i+...\n      SWAP1 \t\t\tallProposals[i] = proposals[i+...\n      MSTORE \t\t\tallProposals[i] = proposals[i+...\n      POP \t\t\tallProposals[i] = proposals[i+...\n      DUP1 \t\t\ti++\n      DUP1 \t\t\ti++\n      PUSH [tag] 378\t\t\ti++\n      SWAP1 \t\t\ti++\n      PUSH [tag] 250\t\t\ti++\n      JUMP [in]\t\t\ti++\n    tag 378\t\t\ti++\n      JUMPDEST \t\t\ti++\n      SWAP2 \t\t\ti++\n      POP \t\t\ti++\n      POP \t\t\ti++\n      PUSH [tag] 352\t\t\tfor(uint i=0;i<proposalCount;i...\n      JUMP \t\t\tfor(uint i=0;i<proposalCount;i...\n    tag 353\t\t\tfor(uint i=0;i<proposalCount;i...\n      JUMPDEST \t\t\tfor(uint i=0;i<proposalCount;i...\n      POP \t\t\tfor(uint i=0;i<proposalCount;i...\n      DUP1 \t\t\tallProposals\n      SWAP2 \t\t\treturn allProposals\n      POP \t\t\treturn allProposals\n      POP \t\t\treturn allProposals\n      SWAP1 \t\t\tfunction getAllProposals() pub...\n      JUMP [out]\t\t\tfunction getAllProposals() pub...\n    tag 123\t\t\tILanguageToken public language...\n      JUMPDEST \t\t\tILanguageToken public language...\n      PUSH 3\t\t\tILanguageToken public language...\n      PUSH 0\t\t\tILanguageToken public language...\n      SWAP1 \t\t\tILanguageToken public language...\n      SLOAD \t\t\tILanguageToken public language...\n      SWAP1 \t\t\tILanguageToken public language...\n      PUSH 100\t\t\tILanguageToken public language...\n      EXP \t\t\tILanguageToken public language...\n      SWAP1 \t\t\tILanguageToken public language...\n      DIV \t\t\tILanguageToken public language...\n      PUSH FFFFFFFFFFFFFFFFFFFFFFFFFFFFFFFFFFFFFFFF\t\t\tILanguageToken public language...\n      AND \t\t\tILanguageToken public language...\n      DUP2 \t\t\tILanguageToken public language...\n      JUMP [out]\t\t\tILanguageToken public language...\n    tag 128\t\t\tuint256 public proposalCount\n      JUMPDEST \t\t\tuint256 public proposalCount\n      PUSH 9\t\t\tuint256 public proposalCount\n      SLOAD \t\t\tuint256 public proposalCount\n      DUP2 \t\t\tuint256 public proposalCount\n      JUMP [out]\t\t\tuint256 public proposalCount\n    tag 133\t\t\tmapping(address=>bool) public ...\n      JUMPDEST \t\t\tmapping(address=>bool) public ...\n      PUSH B\t\t\tmapping(address=>bool) public ...\n      PUSH 20\t\t\tmapping(address=>bool) public ...\n      MSTORE \t\t\tmapping(address=>bool) public ...\n      DUP1 \t\t\tmapping(address=>bool) public ...\n      PUSH 0\t\t\tmapping(address=>bool) public ...\n      MSTORE \t\t\tmapping(address=>bool) public ...\n      PUSH 40\t\t\tmapping(address=>bool) public ...\n      PUSH 0\t\t\tmapping(address=>bool) public ...\n      KECCAK256 \t\t\tmapping(address=>bool) public ...\n      PUSH 0\t\t\tmapping(address=>bool) public ...\n      SWAP2 \t\t\tmapping(address=>bool) public ...\n      POP \t\t\tmapping(address=>bool) public ...\n      SLOAD \t\t\tmapping(address=>bool) public ...\n      SWAP1 \t\t\tmapping(address=>bool) public ...\n      PUSH 100\t\t\tmapping(address=>bool) public ...\n      EXP \t\t\tmapping(address=>bool) public ...\n      SWAP1 \t\t\tmapping(address=>bool) public ...\n      DIV \t\t\tmapping(address=>bool) public ...\n      PUSH FF\t\t\tmapping(address=>bool) public ...\n      AND \t\t\tmapping(address=>bool) public ...\n      DUP2 \t\t\tmapping(address=>bool) public ...\n      JUMP [out]\t\t\tmapping(address=>bool) public ...\n    tag 138\t\t\tess=>uint) public memberWithdr...\n      JUMPDEST \t\t\tess=>uint) public memberWithdr...\n      PUSH [tag] 380\t\t\tproposalCreat\n      PUSH [tag] 264\t\t\tproposalCre\n      JUMP [in]\t\t\tproposalCreat\n    tag 380\t\t\tproposalCreat\n      JUMPDEST \t\t\tproposalCreat\n      PUSH 0\t\t\tn\n      PUSH FFFFFFFFFFFFFFFFFFFFFFFFFFFFFFFFFFFFFFFF\t\t\tig{\\r\\n        uint cond\n      AND \t\t\tig{\\r\\n        uint cond\n      DUP2 \t\t\tig{\\r\\n   \n      PUSH FFFFFFFFFFFFFFFFFFFFFFFFFFFFFFFFFFFFFFFF\t\t\tig{\\r\\n        uint cond\n      AND \t\t\tig{\\r\\n        uint cond\n      EQ \t\t\tig{\\r\\n        uint cond\n      ISZERO \t\t\tig{\\r\\n        uint cond\n      PUSH [tag] 382\t\t\ttingConfig{\\r\\n        uint co...\n      JUMPI \t\t\ttingConfig{\\r\\n        uint co...\n      PUSH 40\t\t\ttingConfig{\\r\\n        uint co...\n      MLOAD \t\t\ttingConfig{\\r\\n        uint co...\n      PUSH 8C379A000000000000000000000000000000000000000000000000000000000\t\t\ttingConfig{\\r\\n        uint co...\n      DUP2 \t\t\ttingConfig{\\r\\n        uint co...\n      MSTORE \t\t\ttingConfig{\\r\\n        uint co...\n      PUSH 4\t\t\ttingConfig{\\r\\n        uint co...\n      ADD \t\t\ttingConfig{\\r\\n        uint co...\n      PUSH [tag] 383\t\t\ttingConfig{\\r\\n        uint co...\n      SWAP1 \t\t\ttingConfig{\\r\\n        uint co...\n      PUSH [tag] 384\t\t\ttingConfig{\\r\\n        uint co...\n      JUMP [in]\t\t\ttingConfig{\\r\\n        uint co...\n    tag 383\t\t\ttingConfig{\\r\\n        uint co...\n      JUMPDEST \t\t\ttingConfig{\\r\\n        uint co...\n      PUSH 40\t\t\ttingConfig{\\r\\n        uint co...\n      MLOAD \t\t\ttingConfig{\\r\\n        uint co...\n      DUP1 \t\t\ttingConfig{\\r\\n        uint co...\n      SWAP2 \t\t\ttingConfig{\\r\\n        uint co...\n      SUB \t\t\ttingConfig{\\r\\n        uint co...\n      SWAP1 \t\t\ttingConfig{\\r\\n        uint co...\n      REVERT \t\t\ttingConfig{\\r\\n        uint co...\n    tag 382\t\t\ttingConfig{\\r\\n        uint co...\n      JUMPDEST \t\t\ttingConfig{\\r\\n        uint co...\n      PUSH [tag] 385\t\t\totingPeriod;\\r\\n        uint v\n      DUP2 \t\t\t   uint \n      PUSH [tag] 267\t\t\totingPeriod;\\r\\n    \n      JUMP [in]\t\t\totingPeriod;\\r\\n        uint v\n    tag 385\t\t\totingPeriod;\\r\\n        uint v\n      JUMPDEST \t\t\totingPeriod;\\r\\n        uint v\n      POP \t\t\tess=>uint) public memberWithdr...\n      JUMP [out]\t\t\tess=>uint) public memberWithdr...\n    tag 141\t\t\tVotingConfig public votingconf...\n      JUMPDEST \t\t\tVotingConfig public votingconf...\n      PUSH E\t\t\tVotingConfig public votingconf...\n      DUP1 \t\t\tVotingConfig public votingconf...\n      PUSH 0\t\t\tVotingConfig public votingconf...\n      ADD \t\t\tVotingConfig public votingconf...\n      SLOAD \t\t\tVotingConfig public votingconf...\n      SWAP1 \t\t\tVotingConfig public votingconf...\n      DUP1 \t\t\tVotingConfig public votingconf...\n      PUSH 1\t\t\tVotingConfig public votingconf...\n      ADD \t\t\tVotingConfig public votingconf...\n      SLOAD \t\t\tVotingConfig public votingconf...\n      SWAP1 \t\t\tVotingConfig public votingconf...\n      DUP1 \t\t\tVotingConfig public votingconf...\n      PUSH 2\t\t\tVotingConfig public votingconf...\n      ADD \t\t\tVotingConfig public votingconf...\n      SLOAD \t\t\tVotingConfig public votingconf...\n      SWAP1 \t\t\tVotingConfig public votingconf...\n      DUP1 \t\t\tVotingConfig public votingconf...\n      PUSH 3\t\t\tVotingConfig public votingconf...\n      ADD \t\t\tVotingConfig public votingconf...\n      SLOAD \t\t\tVotingConfig public votingconf...\n      SWAP1 \t\t\tVotingConfig public votingconf...\n      DUP1 \t\t\tVotingConfig public votingconf...\n      PUSH 4\t\t\tVotingConfig public votingconf...\n      ADD \t\t\tVotingConfig public votingconf...\n      SLOAD \t\t\tVotingConfig public votingconf...\n      SWAP1 \t\t\tVotingConfig public votingconf...\n      POP \t\t\tVotingConfig public votingconf...\n      DUP6 \t\t\tVotingConfig public votingconf...\n      JUMP [out]\t\t\tVotingConfig public votingconf...\n    tag 148\t\t\tfunction setDataDaoVotingConfi...\n      JUMPDEST \t\t\tfunction setDataDaoVotingConfi...\n      PUSH 40\t\t\tVotingConfig(_condition,_minim...\n      MLOAD \t\t\tVotingConfig(_condition,_minim...\n      DUP1 \t\t\tVotingConfig(_condition,_minim...\n      PUSH A0\t\t\tVotingConfig(_condition,_minim...\n      ADD \t\t\tVotingConfig(_condition,_minim...\n      PUSH 40\t\t\tVotingConfig(_condition,_minim...\n      MSTORE \t\t\tVotingConfig(_condition,_minim...\n      DUP1 \t\t\tVotingConfig(_condition,_minim...\n      DUP7 \t\t\t_condition\n      DUP2 \t\t\tVotingConfig(_condition,_minim...\n      MSTORE \t\t\tVotingConfig(_condition,_minim...\n      PUSH 20\t\t\tVotingConfig(_condition,_minim...\n      ADD \t\t\tVotingConfig(_condition,_minim...\n      DUP6 \t\t\t_minimunApproval\n      DUP2 \t\t\tVotingConfig(_condition,_minim...\n      MSTORE \t\t\tVotingConfig(_condition,_minim...\n      PUSH 20\t\t\tVotingConfig(_condition,_minim...\n      ADD \t\t\tVotingConfig(_condition,_minim...\n      DUP5 \t\t\t_votingPeriod\n      DUP2 \t\t\tVotingConfig(_condition,_minim...\n      MSTORE \t\t\tVotingConfig(_condition,_minim...\n      PUSH 20\t\t\tVotingConfig(_condition,_minim...\n      ADD \t\t\tVotingConfig(_condition,_minim...\n      DUP4 \t\t\t_votingStake\n      DUP2 \t\t\tVotingConfig(_condition,_minim...\n      MSTORE \t\t\tVotingConfig(_condition,_minim...\n      PUSH 20\t\t\tVotingConfig(_condition,_minim...\n      ADD \t\t\tVotingConfig(_condition,_minim...\n      DUP3 \t\t\t_proposalStake\n      DUP2 \t\t\tVotingConfig(_condition,_minim...\n      MSTORE \t\t\tVotingConfig(_condition,_minim...\n      POP \t\t\tVotingConfig(_condition,_minim...\n      PUSH E\t\t\tvotingconfigs\n      PUSH 0\t\t\tvotingconfigs = VotingConfig(_...\n      DUP3 \t\t\tvotingconfigs = VotingConfig(_...\n      ADD \t\t\tvotingconfigs = VotingConfig(_...\n      MLOAD \t\t\tvotingconfigs = VotingConfig(_...\n      DUP2 \t\t\tvotingconfigs = VotingConfig(_...\n      PUSH 0\t\t\tvotingconfigs = VotingConfig(_...\n      ADD \t\t\tvotingconfigs = VotingConfig(_...\n      SSTORE \t\t\tvotingconfigs = VotingConfig(_...\n      PUSH 20\t\t\tvotingconfigs = VotingConfig(_...\n      DUP3 \t\t\tvotingconfigs = VotingConfig(_...\n      ADD \t\t\tvotingconfigs = VotingConfig(_...\n      MLOAD \t\t\tvotingconfigs = VotingConfig(_...\n      DUP2 \t\t\tvotingconfigs = VotingConfig(_...\n      PUSH 1\t\t\tvotingconfigs = VotingConfig(_...\n      ADD \t\t\tvotingconfigs = VotingConfig(_...\n      SSTORE \t\t\tvotingconfigs = VotingConfig(_...\n      PUSH 40\t\t\tvotingconfigs = VotingConfig(_...\n      DUP3 \t\t\tvotingconfigs = VotingConfig(_...\n      ADD \t\t\tvotingconfigs = VotingConfig(_...\n      MLOAD \t\t\tvotingconfigs = VotingConfig(_...\n      DUP2 \t\t\tvotingconfigs = VotingConfig(_...\n      PUSH 2\t\t\tvotingconfigs = VotingConfig(_...\n      ADD \t\t\tvotingconfigs = VotingConfig(_...\n      SSTORE \t\t\tvotingconfigs = VotingConfig(_...\n      PUSH 60\t\t\tvotingconfigs = VotingConfig(_...\n      DUP3 \t\t\tvotingconfigs = VotingConfig(_...\n      ADD \t\t\tvotingconfigs = VotingConfig(_...\n      MLOAD \t\t\tvotingconfigs = VotingConfig(_...\n      DUP2 \t\t\tvotingconfigs = VotingConfig(_...\n      PUSH 3\t\t\tvotingconfigs = VotingConfig(_...\n      ADD \t\t\tvotingconfigs = VotingConfig(_...\n      SSTORE \t\t\tvotingconfigs = VotingConfig(_...\n      PUSH 80\t\t\tvotingconfigs = VotingConfig(_...\n      DUP3 \t\t\tvotingconfigs = VotingConfig(_...\n      ADD \t\t\tvotingconfigs = VotingConfig(_...\n      MLOAD \t\t\tvotingconfigs = VotingConfig(_...\n      DUP2 \t\t\tvotingconfigs = VotingConfig(_...\n      PUSH 4\t\t\tvotingconfigs = VotingConfig(_...\n      ADD \t\t\tvotingconfigs = VotingConfig(_...\n      SSTORE \t\t\tvotingconfigs = VotingConfig(_...\n      SWAP1 \t\t\tvotingconfigs = VotingConfig(_...\n      POP \t\t\tvotingconfigs = VotingConfig(_...\n      POP \t\t\tvotingconfigs = VotingConfig(_...\n      POP \t\t\tfunction setDataDaoVotingConfi...\n      POP \t\t\tfunction setDataDaoVotingConfi...\n      POP \t\t\tfunction setDataDaoVotingConfi...\n      POP \t\t\tfunction setDataDaoVotingConfi...\n      POP \t\t\tfunction setDataDaoVotingConfi...\n      JUMP [out]\t\t\tfunction setDataDaoVotingConfi...\n    tag 264\t\t\tosals\\r\\n    mapping(uint256 =...\n      JUMPDEST \t\t\tosals\\r\\n    mapping(uint256 =...\n      PUSH [tag] 388\t\t\tarray to tra\n      PUSH [tag] 389\t\t\tarray to t\n      JUMP [in]\t\t\tarray to tra\n    tag 388\t\t\tarray to tra\n      JUMPDEST \t\t\tarray to tra\n      PUSH FFFFFFFFFFFFFFFFFFFFFFFFFFFFFFFFFFFFFFFF\t\t\t// mapping array to tra\n      AND \t\t\t// mapping array to tra\n      PUSH [tag] 390\t\t\t// mapp\n      PUSH [tag] 97\t\t\t// ma\n      JUMP [in]\t\t\t// mapp\n    tag 390\t\t\t// mapp\n      JUMPDEST \t\t\t// mapp\n      PUSH FFFFFFFFFFFFFFFFFFFFFFFFFFFFFFFFFFFFFFFF\t\t\t// mapping array to tra\n      AND \t\t\t// mapping array to tra\n      EQ \t\t\t// mapping array to tra\n      PUSH [tag] 391\t\t\ts;\\r\\n    // mapping array to ...\n      JUMPI \t\t\ts;\\r\\n    // mapping array to ...\n      PUSH 40\t\t\ts;\\r\\n    // mapping array to ...\n      MLOAD \t\t\ts;\\r\\n    // mapping array to ...\n      PUSH 8C379A000000000000000000000000000000000000000000000000000000000\t\t\ts;\\r\\n    // mapping array to ...\n      DUP2 \t\t\ts;\\r\\n    // mapping array to ...\n      MSTORE \t\t\ts;\\r\\n    // mapping array to ...\n      PUSH 4\t\t\ts;\\r\\n    // mapping array to ...\n      ADD \t\t\ts;\\r\\n    // mapping array to ...\n      PUSH [tag] 392\t\t\ts;\\r\\n    // mapping array to ...\n      SWAP1 \t\t\ts;\\r\\n    // mapping array to ...\n      PUSH [tag] 393\t\t\ts;\\r\\n    // mapping array to ...\n      JUMP [in]\t\t\ts;\\r\\n    // mapping array to ...\n    tag 392\t\t\ts;\\r\\n    // mapping array to ...\n      JUMPDEST \t\t\ts;\\r\\n    // mapping array to ...\n      PUSH 40\t\t\ts;\\r\\n    // mapping array to ...\n      MLOAD \t\t\ts;\\r\\n    // mapping array to ...\n      DUP1 \t\t\ts;\\r\\n    // mapping array to ...\n      SWAP2 \t\t\ts;\\r\\n    // mapping array to ...\n      SUB \t\t\ts;\\r\\n    // mapping array to ...\n      SWAP1 \t\t\ts;\\r\\n    // mapping array to ...\n      REVERT \t\t\ts;\\r\\n    // mapping array to ...\n    tag 391\t\t\ts;\\r\\n    // mapping array to ...\n      JUMPDEST \t\t\ts;\\r\\n    // mapping array to ...\n      JUMP [out]\t\t\tosals\\r\\n    mapping(uint256 =...\n    tag 267\t\t\trgeTokenAddress =\\r\\n        0...\n      JUMPDEST \t\t\trgeTokenAddress =\\r\\n        0...\n      PUSH 0\t\t\t USDC\\r\\n\\r\\n    fun\n      DUP1 \t\t\ton add\n      PUSH 0\t\t\ton add\n      SWAP1 \t\t\ton add\n      SLOAD \t\t\ton add\n      SWAP1 \t\t\ton add\n      PUSH 100\t\t\ton add\n      EXP \t\t\ton add\n      SWAP1 \t\t\ton add\n      DIV \t\t\ton add\n      PUSH FFFFFFFFFFFFFFFFFFFFFFFFFFFFFFFFFFFFFFFF\t\t\ton add\n      AND \t\t\ton add\n      SWAP1 \t\t\t USDC\\r\\n\\r\\n    function add\n      POP \t\t\t USDC\\r\\n\\r\\n    function add\n      DUP2 \t\t\t) public\n      PUSH 0\t\t\tt _tok\n      DUP1 \t\t\tt _tok\n      PUSH 100\t\t\tt _tokens) public\n      EXP \t\t\tt _tokens) public\n      DUP2 \t\t\tt _tokens) public\n      SLOAD \t\t\tt _tokens) public\n      DUP2 \t\t\tt _tokens) public\n      PUSH FFFFFFFFFFFFFFFFFFFFFFFFFFFFFFFFFFFFFFFF\t\t\tt _tokens) public\n      MUL \t\t\tt _tokens) public\n      NOT \t\t\tt _tokens) public\n      AND \t\t\tt _tokens) public\n      SWAP1 \t\t\tt _tokens) public\n      DUP4 \t\t\tt _tokens) public\n      PUSH FFFFFFFFFFFFFFFFFFFFFFFFFFFFFFFFFFFFFFFF\t\t\tt _tokens) public\n      AND \t\t\tt _tokens) public\n      MUL \t\t\tt _tokens) public\n      OR \t\t\tt _tokens) public\n      SWAP1 \t\t\tt _tokens) public\n      SSTORE \t\t\tt _tokens) public\n      POP \t\t\tt _tokens) public\n      DUP2 \t\t\terAdded(\n      PUSH FFFFFFFFFFFFFFFFFFFFFFFFFFFFFFFFFFFFFFFF\t\t\t    require(samhita.checkIsMem...\n      AND \t\t\t    require(samhita.checkIsMem...\n      DUP2 \t\t\theckIsMe\n      PUSH FFFFFFFFFFFFFFFFFFFFFFFFFFFFFFFFFFFFFFFF\t\t\t    require(samhita.checkIsMem...\n      AND \t\t\t    require(samhita.checkIsMem...\n      PUSH 8BE0079C531659141344CD1FD0A4F28419497F9722A3DAAFE3B4186F6B6457E0\t\t\t    require(samhita.checkIsMem...\n      PUSH 40\t\t\t    require(samhita.checkIsMem...\n      MLOAD \t\t\t    require(samhita.checkIsMem...\n      PUSH 40\t\t\t    require(samhita.checkIsMem...\n      MLOAD \t\t\t    require(samhita.checkIsMem...\n      DUP1 \t\t\t    require(samhita.checkIsMem...\n      SWAP2 \t\t\t    require(samhita.checkIsMem...\n      SUB \t\t\t    require(samhita.checkIsMem...\n      SWAP1 \t\t\t    require(samhita.checkIsMem...\n      LOG3 \t\t\t    require(samhita.checkIsMem...\n      POP \t\t\t939234; // USDC\\r\\n\\r\\n    fun...\n      POP \t\t\trgeTokenAddress =\\r\\n        0...\n      JUMP [out]\t\t\trgeTokenAddress =\\r\\n        0...\n    tag 389\t\t\tnstructor(address _samhitaAddr...\n      JUMPDEST \t\t\tnstructor(address _samhitaAddr...\n      PUSH 0\t\t\tFTAddre\n      CALLER \t\t\tgeTokenAdd\n      SWAP1 \t\t\t_languageTokenAdd\n      POP \t\t\t_languageTokenAdd\n      SWAP1 \t\t\tnstructor(address _samhitaAddr...\n      JUMP [out]\t\t\tnstructor(address _samhitaAddr...\n    tag 253\t\t\t\n      JUMPDEST \t\t\t\n      DUP3 \t\t\t\n      DUP1 \t\t\t\n      SLOAD \t\t\t\n      PUSH [tag] 396\t\t\t\n      SWAP1 \t\t\t\n      PUSH [tag] 150\t\t\t\n      JUMP [in]\t\t\t\n    tag 396\t\t\t\n      JUMPDEST \t\t\t\n      SWAP1 \t\t\t\n      PUSH 0\t\t\t\n      MSTORE \t\t\t\n      PUSH 20\t\t\t\n      PUSH 0\t\t\t\n      KECCAK256 \t\t\t\n      SWAP1 \t\t\t\n      PUSH 1F\t\t\t\n      ADD \t\t\t\n      PUSH 20\t\t\t\n      SWAP1 \t\t\t\n      DIV \t\t\t\n      DUP2 \t\t\t\n      ADD \t\t\t\n      SWAP3 \t\t\t\n      DUP3 \t\t\t\n      PUSH [tag] 398\t\t\t\n      JUMPI \t\t\t\n      PUSH 0\t\t\t\n      DUP6 \t\t\t\n      SSTORE \t\t\t\n      PUSH [tag] 397\t\t\t\n      JUMP \t\t\t\n    tag 398\t\t\t\n      JUMPDEST \t\t\t\n      DUP3 \t\t\t\n      PUSH 1F\t\t\t\n      LT \t\t\t\n      PUSH [tag] 399\t\t\t\n      JUMPI \t\t\t\n      DUP1 \t\t\t\n      MLOAD \t\t\t\n      PUSH FF\t\t\t\n      NOT \t\t\t\n      AND \t\t\t\n      DUP4 \t\t\t\n      DUP1 \t\t\t\n      ADD \t\t\t\n      OR \t\t\t\n      DUP6 \t\t\t\n      SSTORE \t\t\t\n      PUSH [tag] 397\t\t\t\n      JUMP \t\t\t\n    tag 399\t\t\t\n      JUMPDEST \t\t\t\n      DUP3 \t\t\t\n      DUP1 \t\t\t\n      ADD \t\t\t\n      PUSH 1\t\t\t\n      ADD \t\t\t\n      DUP6 \t\t\t\n      SSTORE \t\t\t\n      DUP3 \t\t\t\n      ISZERO \t\t\t\n      PUSH [tag] 397\t\t\t\n      JUMPI \t\t\t\n      SWAP2 \t\t\t\n      DUP3 \t\t\t\n      ADD \t\t\t\n    tag 400\t\t\t\n      JUMPDEST \t\t\t\n      DUP3 \t\t\t\n      DUP2 \t\t\t\n      GT \t\t\t\n      ISZERO \t\t\t\n      PUSH [tag] 401\t\t\t\n      JUMPI \t\t\t\n      DUP3 \t\t\t\n      MLOAD \t\t\t\n      DUP3 \t\t\t\n      SSTORE \t\t\t\n      SWAP2 \t\t\t\n      PUSH 20\t\t\t\n      ADD \t\t\t\n      SWAP2 \t\t\t\n      SWAP1 \t\t\t\n      PUSH 1\t\t\t\n      ADD \t\t\t\n      SWAP1 \t\t\t\n      PUSH [tag] 400\t\t\t\n      JUMP \t\t\t\n    tag 401\t\t\t\n      JUMPDEST \t\t\t\n    tag 397\t\t\t\n      JUMPDEST \t\t\t\n      POP \t\t\t\n      SWAP1 \t\t\t\n      POP \t\t\t\n      PUSH [tag] 402\t\t\t\n      SWAP2 \t\t\t\n      SWAP1 \t\t\t\n      PUSH [tag] 403\t\t\t\n      JUMP [in]\t\t\t\n    tag 402\t\t\t\n      JUMPDEST \t\t\t\n      POP \t\t\t\n      SWAP1 \t\t\t\n      JUMP [out]\t\t\t\n    tag 258\t\t\t\n      JUMPDEST \t\t\t\n      PUSH 40\t\t\t\n      MLOAD \t\t\t\n      DUP1 \t\t\t\n      PUSH A0\t\t\t\n      ADD \t\t\t\n      PUSH 40\t\t\t\n      MSTORE \t\t\t\n      DUP1 \t\t\t\n      PUSH 0\t\t\t\n      DUP2 \t\t\t\n      MSTORE \t\t\t\n      PUSH 20\t\t\t\n      ADD \t\t\t\n      PUSH 0\t\t\t\n      DUP2 \t\t\t\n      MSTORE \t\t\t\n      PUSH 20\t\t\t\n      ADD \t\t\t\n      PUSH 0\t\t\t\n      DUP2 \t\t\t\n      MSTORE \t\t\t\n      PUSH 20\t\t\t\n      ADD \t\t\t\n      PUSH 0\t\t\t\n      DUP2 \t\t\t\n      MSTORE \t\t\t\n      PUSH 20\t\t\t\n      ADD \t\t\t\n      PUSH 0\t\t\t\n      DUP2 \t\t\t\n      MSTORE \t\t\t\n      POP \t\t\t\n      SWAP1 \t\t\t\n      JUMP [out]\t\t\t\n    tag 351\t\t\t\n      JUMPDEST \t\t\t\n      PUSH 40\t\t\t\n      MLOAD \t\t\t\n      DUP1 \t\t\t\n      PUSH 180\t\t\t\n      ADD \t\t\t\n      PUSH 40\t\t\t\n      MSTORE \t\t\t\n      DUP1 \t\t\t\n      PUSH 0\t\t\t\n      DUP2 \t\t\t\n      MSTORE \t\t\t\n      PUSH 20\t\t\t\n      ADD \t\t\t\n      PUSH 60\t\t\t\n      DUP2 \t\t\t\n      MSTORE \t\t\t\n      PUSH 20\t\t\t\n      ADD \t\t\t\n      PUSH 60\t\t\t\n      DUP2 \t\t\t\n      MSTORE \t\t\t\n      PUSH 20\t\t\t\n      ADD \t\t\t\n      PUSH 60\t\t\t\n      DUP2 \t\t\t\n      MSTORE \t\t\t\n      PUSH 20\t\t\t\n      ADD \t\t\t\n      PUSH 0\t\t\t\n      PUSH FFFFFFFFFFFFFFFFFFFFFFFFFFFFFFFFFFFFFFFF\t\t\t\n      AND \t\t\t\n      DUP2 \t\t\t\n      MSTORE \t\t\t\n      PUSH 20\t\t\t\n      ADD \t\t\t\n      PUSH 0\t\t\t\n      DUP2 \t\t\t\n      MSTORE \t\t\t\n      PUSH 20\t\t\t\n      ADD \t\t\t\n      PUSH 0\t\t\t\n      DUP2 \t\t\t\n      MSTORE \t\t\t\n      PUSH 20\t\t\t\n      ADD \t\t\t\n      PUSH 0\t\t\t\n      DUP2 \t\t\t\n      MSTORE \t\t\t\n      PUSH 20\t\t\t\n      ADD \t\t\t\n      PUSH 0\t\t\t\n      DUP2 \t\t\t\n      MSTORE \t\t\t\n      PUSH 20\t\t\t\n      ADD \t\t\t\n      PUSH 0\t\t\t\n      DUP2 \t\t\t\n      MSTORE \t\t\t\n      PUSH 20\t\t\t\n      ADD \t\t\t\n      PUSH 60\t\t\t\n      DUP2 \t\t\t\n      MSTORE \t\t\t\n      PUSH 20\t\t\t\n      ADD \t\t\t\n      PUSH 0\t\t\t\n      ISZERO \t\t\t\n      ISZERO \t\t\t\n      DUP2 \t\t\t\n      MSTORE \t\t\t\n      POP \t\t\t\n      SWAP1 \t\t\t\n      JUMP [out]\t\t\t\n    tag 403\t\t\t\n      JUMPDEST \t\t\t\n    tag 404\t\t\t\n      JUMPDEST \t\t\t\n      DUP1 \t\t\t\n      DUP3 \t\t\t\n      GT \t\t\t\n      ISZERO \t\t\t\n      PUSH [tag] 405\t\t\t\n      JUMPI \t\t\t\n      PUSH 0\t\t\t\n      DUP2 \t\t\t\n      PUSH 0\t\t\t\n      SWAP1 \t\t\t\n      SSTORE \t\t\t\n      POP \t\t\t\n      PUSH 1\t\t\t\n      ADD \t\t\t\n      PUSH [tag] 404\t\t\t\n      JUMP \t\t\t\n    tag 405\t\t\t\n      JUMPDEST \t\t\t\n      POP \t\t\t\n      SWAP1 \t\t\t\n      JUMP [out]\t\t\t\n    tag 407\t\t\t-License-Identifier: MIT\\r\\n\\r...\n      JUMPDEST \t\t\t-License-Identifier: MIT\\r\\n\\r...\n      PUSH 0\t\t\tcom/O\n      PUSH [tag] 409\t\t\telin-contracts/blob/master/con...\n      PUSH [tag] 410\t\t\tlob/master/contracts/token/ERC...\n      DUP5 \t\t\t\";\\r\\nim\n      PUSH [tag] 411\t\t\tlob/master/contracts/token/ERC...\n      JUMP [in]\t\t\tlob/master/contracts/token/ERC...\n    tag 410\t\t\tlob/master/contracts/token/ERC...\n      JUMPDEST \t\t\tlob/master/contracts/token/ERC...\n      PUSH [tag] 412\t\t\telin-contracts/blob/master/con...\n      JUMP [in]\t\t\telin-contracts/blob/master/con...\n    tag 409\t\t\telin-contracts/blob/master/con...\n      JUMPDEST \t\t\telin-contracts/blob/master/con...\n      SWAP1 \t\t\t/openzeppelin-contracts/blob/m...\n      POP \t\t\t/openzeppelin-contracts/blob/m...\n      DUP3 \t\t\tOpenZe\n      DUP2 \t\t\tub.co\n      MSTORE \t\t\t://github.com/OpenZep\n      PUSH 20\t\t\tob/m\n      DUP2 \t\t\tacts/\n      ADD \t\t\tontracts/blob/ma\n      DUP5 \t\t\t\";\\r\n      DUP5 \t\t\tnable.\n      DUP5 \t\t\tss/\n      ADD \t\t\taccess/Ownable.s\n      GT \t\t\tts/access/Ownable.sol\";\\r\\n\n      ISZERO \t\t\tracts/access/Ownable.sol\";\\r\\n...\n      PUSH [tag] 413\t\t\tracts/access/Ownable.sol\";\\r\\n...\n      JUMPI \t\t\tracts/access/Ownable.sol\";\\r\\n...\n      PUSH [tag] 414\t\t\tort \"https://github.com/OpenZe...\n      PUSH [tag] 415\t\t\tort \"https://github.com/OpenZe...\n      JUMP [in]\t\t\tort \"https://github.com/OpenZe...\n    tag 414\t\t\tort \"https://github.com/OpenZe...\n      JUMPDEST \t\t\tort \"https://github.com/OpenZe...\n    tag 413\t\t\tracts/access/Ownable.sol\";\\r\\n...\n      JUMPDEST \t\t\tracts/access/Ownable.sol\";\\r\\n...\n      PUSH [tag] 416\t\t\tC20/IERC20.sol\";\\r\\nimport \"./...\n      DUP5 \t\t\ttaDAO.\n      DUP3 \t\t\tSam\n      DUP6 \t\t\t \".\n      PUSH [tag] 417\t\t\tC20/IERC20.sol\";\\r\\nimport \"./...\n      JUMP [in]\t\t\tC20/IERC20.sol\";\\r\\nimport \"./...\n    tag 416\t\t\tC20/IERC20.sol\";\\r\\nimport \"./...\n      JUMPDEST \t\t\tC20/IERC20.sol\";\\r\\nimport \"./...\n      POP \t\t\tenZeppelin/openzeppelin-contra...\n      SWAP4 \t\t\t-License-Identifier: MIT\\r\\n\\r...\n      SWAP3 \t\t\t-License-Identifier: MIT\\r\\n\\r...\n      POP \t\t\t-License-Identifier: MIT\\r\\n\\r...\n      POP \t\t\t-License-Identifier: MIT\\r\\n\\r...\n      POP \t\t\t-License-Identifier: MIT\\r\\n\\r...\n      JUMP [out]\t\t\t-License-Identifier: MIT\\r\\n\\r...\n    tag 418\t\t\t \"./ITemplateNFT.sol\";\\r\\nimpo...\n      JUMPDEST \t\t\t \"./ITemplateNFT.sol\";\\r\\nimpo...\n      PUSH 0\t\t\ten.so\n      DUP2 \t\t\tnable{\n      CALLDATALOAD \t\t\tuageDAO is Ownable{\\r\n      SWAP1 \t\t\tract LanguageDAO is Ownable{\\r\n      POP \t\t\tract LanguageDAO is Ownable{\\r\n      PUSH [tag] 420\t\t\tamhitaDAO public samhita;\\r\\n ...\n      DUP2 \t\t\t    I\n      PUSH [tag] 421\t\t\tamhitaDAO public samhita;\\r\\n ...\n      JUMP [in]\t\t\tamhitaDAO public samhita;\\r\\n ...\n    tag 420\t\t\tamhitaDAO public samhita;\\r\\n ...\n      JUMPDEST \t\t\tamhitaDAO public samhita;\\r\\n ...\n      SWAP3 \t\t\t \"./ITemplateNFT.sol\";\\r\\nimpo...\n      SWAP2 \t\t\t \"./ITemplateNFT.sol\";\\r\\nimpo...\n      POP \t\t\t \"./ITemplateNFT.sol\";\\r\\nimpo...\n      POP \t\t\t \"./ITemplateNFT.sol\";\\r\\nimpo...\n      JUMP [out]\t\t\t \"./ITemplateNFT.sol\";\\r\\nimpo...\n    tag 422\t\t\tublic templateNFT;\\r\\n    ILan...\n      JUMPDEST \t\t\tublic templateNFT;\\r\\n    ILan...\n      PUSH 0\t\t\ten;\\r\\n\n      DUP2 \t\t\t_samhi\n      MLOAD \t\t\tdress _samhit\n      SWAP1 \t\t\tructor(address _samhit\n      POP \t\t\tructor(address _samhit\n      PUSH [tag] 424\t\t\t address _templateNFTAddress, ...\n      DUP2 \t\t\ts, ad\n      PUSH [tag] 421\t\t\t address _templateNFTAddress, ...\n      JUMP [in]\t\t\t address _templateNFTAddress, ...\n    tag 424\t\t\t address _templateNFTAddress, ...\n      JUMPDEST \t\t\t address _templateNFTAddress, ...\n      SWAP3 \t\t\tublic templateNFT;\\r\\n    ILan...\n      SWAP2 \t\t\tublic templateNFT;\\r\\n    ILan...\n      POP \t\t\tublic templateNFT;\\r\\n    ILan...\n      POP \t\t\tublic templateNFT;\\r\\n    ILan...\n      JUMP [out]\t\t\tublic templateNFT;\\r\\n    ILan...\n    tag 425\t\t\tgeTokenAddress) Ownable() {\\r\\...\n      JUMPDEST \t\t\tgeTokenAddress) Ownable() {\\r\\...\n      PUSH 0\t\t\taDAO(\n      DUP2 \t\t\t templ\n      MLOAD \t\t\t       templa\n      SWAP1 \t\t\tress);\\r\\n        templa\n      POP \t\t\tress);\\r\\n        templa\n      PUSH [tag] 427\t\t\tTemplateNFT(_templateNFTAddres\n      DUP2 \t\t\tAddre\n      PUSH [tag] 428\t\t\tTemplateNFT(_templateNFTAddres\n      JUMP [in]\t\t\tTemplateNFT(_templateNFTAddres\n    tag 427\t\t\tTemplateNFT(_templateNFTAddres\n      JUMPDEST \t\t\tTemplateNFT(_templateNFTAddres\n      SWAP3 \t\t\tgeTokenAddress) Ownable() {\\r\\...\n      SWAP2 \t\t\tgeTokenAddress) Ownable() {\\r\\...\n      POP \t\t\tgeTokenAddress) Ownable() {\\r\\...\n      POP \t\t\tgeTokenAddress) Ownable() {\\r\\...\n      JUMP [out]\t\t\tgeTokenAddress) Ownable() {\\r\\...\n    tag 429\t\t\t = ILanguageToken(_languageTok...\n      JUMPDEST \t\t\t = ILanguageToken(_languageTok...\n      PUSH 0\t\t\tstruc\n      DUP3 \t\t\t   \n      PUSH 1F\t\t\tlID;\n      DUP4 \t\t\t propo\n      ADD \t\t\tt256 proposalID;\\r\n      SLT \t\t\t uint256 proposalID;\\r\\n     \n      PUSH [tag] 431\t\t\t{\\r\\n        uint256 proposalI...\n      JUMPI \t\t\t{\\r\\n        uint256 proposalI...\n      PUSH [tag] 432\t\t\ttring proposalName;\\r\\n       ...\n      PUSH [tag] 433\t\t\ttring proposalName;\\r\\n       ...\n      JUMP [in]\t\t\ttring proposalName;\\r\\n       ...\n    tag 432\t\t\ttring proposalName;\\r\\n       ...\n      JUMPDEST \t\t\ttring proposalName;\\r\\n       ...\n    tag 431\t\t\t{\\r\\n        uint256 proposalI...\n      JUMPDEST \t\t\t{\\r\\n        uint256 proposalI...\n      DUP2 \t\t\ttor;\\r\\n\n      CALLDATALOAD \t\t\t proposalCreator;\\r\\n \n      PUSH [tag] 434\t\t\toteCount;\\r\\n        uint256 d...\n      DUP5 \t\t\t   \n      DUP3 \t\t\tAt;\\r\\n \n      PUSH 20\t\t\tropo\n      DUP7 \t\t\tint256\n      ADD \t\t\t   uint256 propos\n      PUSH [tag] 407\t\t\toteCount;\\r\\n        uint256 d...\n      JUMP [in]\t\t\toteCount;\\r\\n        uint256 d...\n    tag 434\t\t\toteCount;\\r\\n        uint256 d...\n      JUMPDEST \t\t\toteCount;\\r\\n        uint256 d...\n      SWAP2 \t\t\tnt256 upVoteCount;\\r\\n        ...\n      POP \t\t\tnt256 upVoteCount;\\r\\n        ...\n      POP \t\t\t Proposal {\\r\\n        uint256...\n      SWAP3 \t\t\t = ILanguageToken(_languageTok...\n      SWAP2 \t\t\t = ILanguageToken(_languageTok...\n      POP \t\t\t = ILanguageToken(_languageTok...\n      POP \t\t\t = ILanguageToken(_languageTok...\n      JUMP [out]\t\t\t = ILanguageToken(_languageTok...\n    tag 435\t\t\tposalExpireAt;\\r\\n        uint...\n      JUMPDEST \t\t\tposalExpireAt;\\r\\n        uint...\n      PUSH 0\t\t\t    s\n      DUP2 \t\t\tgResul\n      CALLDATALOAD \t\t\t   bool votingResult\n      SWAP1 \t\t\ts;\\r\\n        bool votingResul...\n      POP \t\t\ts;\\r\\n        bool votingResul...\n      PUSH [tag] 437\t\t\t\\n    // mapping to keep track...\n      DUP2 \t\t\tck of\n      PUSH [tag] 438\t\t\t\\n    // mapping to keep track...\n      JUMP [in]\t\t\t\\n    // mapping to keep track...\n    tag 437\t\t\t\\n    // mapping to keep track...\n      JUMPDEST \t\t\t\\n    // mapping to keep track...\n      SWAP3 \t\t\tposalExpireAt;\\r\\n        uint...\n      SWAP2 \t\t\tposalExpireAt;\\r\\n        uint...\n      POP \t\t\tposalExpireAt;\\r\\n        uint...\n      POP \t\t\tposalExpireAt;\\r\\n        uint...\n      JUMP [out]\t\t\tposalExpireAt;\\r\\n        uint...\n    tag 439\t\t\t   mapping(uint256 => Proposal...\n      JUMPDEST \t\t\t   mapping(uint256 => Proposal...\n      PUSH 0\t\t\t mapp\n      DUP2 \t\t\t the u\n      MLOAD \t\t\thether the us\n      SWAP1 \t\t\to track whether the us\n      POP \t\t\to track whether the us\n      PUSH [tag] 441\t\t\tted for the proposal\\r\\n    ma...\n      DUP2 \t\t\tappin\n      PUSH [tag] 438\t\t\tted for the proposal\\r\\n    ma...\n      JUMP [in]\t\t\tted for the proposal\\r\\n    ma...\n    tag 441\t\t\tted for the proposal\\r\\n    ma...\n      JUMPDEST \t\t\tted for the proposal\\r\\n    ma...\n      SWAP3 \t\t\t   mapping(uint256 => Proposal...\n      SWAP2 \t\t\t   mapping(uint256 => Proposal...\n      POP \t\t\t   mapping(uint256 => Proposal...\n      POP \t\t\t   mapping(uint256 => Proposal...\n      JUMP [out]\t\t\t   mapping(uint256 => Proposal...\n    tag 61\t\t\tmapping(uint256 => bool)) publ...\n      JUMPDEST \t\t\tmapping(uint256 => bool)) publ...\n      PUSH 0\t\t\t// vot\n      PUSH 20\t\t\tdr\n      DUP3 \t\t\ting(uint=\n      DUP5 \t\t\t\\n    ma\n      SUB \t\t\tsal\\r\\n    mapping(uint=>\n      SLT \t\t\troposal\\r\\n    mapping(uint=>a...\n      ISZERO \t\t\tn proposal\\r\\n    mapping(uint...\n      PUSH [tag] 443\t\t\tn proposal\\r\\n    mapping(uint...\n      JUMPI \t\t\tn proposal\\r\\n    mapping(uint...\n      PUSH [tag] 444\t\t\t]) public votersForProposal;\\r...\n      PUSH [tag] 445\t\t\t]) public votersForProposal;\\r...\n      JUMP [in]\t\t\t]) public votersForProposal;\\r...\n    tag 444\t\t\t]) public votersForProposal;\\r...\n      JUMPDEST \t\t\t]) public votersForProposal;\\r...\n    tag 443\t\t\tn proposal\\r\\n    mapping(uint...\n      JUMPDEST \t\t\tn proposal\\r\\n    mapping(uint...\n      PUSH 0\t\t\t\\n\n      PUSH [tag] 446\t\t\ts[]) public membersForUpvote;\\...\n      DUP5 \t\t\tnt=>add\n      DUP3 \t\t\tapping\n      DUP6 \t\t\tote;\\r\\n   \n      ADD \t\t\trUpvote;\\r\\n    mapping(\n      PUSH [tag] 418\t\t\ts[]) public membersForUpvote;\\...\n      JUMP [in]\t\t\ts[]) public membersForUpvote;\\...\n    tag 446\t\t\ts[]) public membersForUpvote;\\...\n      JUMPDEST \t\t\ts[]) public membersForUpvote;\\...\n      SWAP2 \t\t\tnt=>address[]) public membersF...\n      POP \t\t\tnt=>address[]) public membersF...\n      POP \t\t\tl)) public memberVoteResult;\\r...\n      SWAP3 \t\t\tmapping(uint256 => bool)) publ...\n      SWAP2 \t\t\tmapping(uint256 => bool)) publ...\n      POP \t\t\tmapping(uint256 => bool)) publ...\n      POP \t\t\tmapping(uint256 => bool)) publ...\n      JUMP [out]\t\t\tmapping(uint256 => bool)) publ...\n    tag 299\t\t\trDownvote;\\r\\n    // number of...\n      JUMPDEST \t\t\trDownvote;\\r\\n    // number of...\n      PUSH 0\t\t\tublic \n      PUSH 20\t\t\tth\n      DUP3 \t\t\t memebrs \n      DUP5 \t\t\t array \n      SUB \t\t\t  // array of memebrs i\n      SLT \t\t\t\\r\\n    // array of memebrs in...\n      ISZERO \t\t\tnt;\\r\\n    // array of memebrs...\n      PUSH [tag] 448\t\t\tnt;\\r\\n    // array of memebrs...\n      JUMPI \t\t\tnt;\\r\\n    // array of memebrs...\n      PUSH [tag] 449\t\t\to\\r\\n    address[] allDaoMembe...\n      PUSH [tag] 445\t\t\to\\r\\n    address[] allDaoMembe...\n      JUMP [in]\t\t\to\\r\\n    address[] allDaoMembe...\n    tag 449\t\t\to\\r\\n    address[] allDaoMembe...\n      JUMPDEST \t\t\to\\r\\n    address[] allDaoMembe...\n    tag 448\t\t\tnt;\\r\\n    // array of memebrs...\n      JUMPDEST \t\t\tnt;\\r\\n    // array of memebrs...\n      PUSH 0\t\t\ti\n      PUSH [tag] 450\t\t\t\\n\\r\\n    uint tokenPrice;\\r\\n...\n      DUP5 \t\t\t     ui\n      DUP3 \t\t\tfig{\\r\\n\n      DUP6 \t\t\tt VotingC\n      ADD \t\t\ttruct VotingConfig{\\r\\n \n      PUSH [tag] 422\t\t\t\\n\\r\\n    uint tokenPrice;\\r\\n...\n      JUMP [in]\t\t\t\\n\\r\\n    uint tokenPrice;\\r\\n...\n    tag 450\t\t\t\\n\\r\\n    uint tokenPrice;\\r\\n...\n      JUMPDEST \t\t\t\\n\\r\\n    uint tokenPrice;\\r\\n...\n      SWAP2 \t\t\tawAmount;\\r\\n\\r\\n    uint toke...\n      POP \t\t\tawAmount;\\r\\n\\r\\n    uint toke...\n      POP \t\t\t  mapping(address=>uint) publi...\n      SWAP3 \t\t\trDownvote;\\r\\n    // number of...\n      SWAP2 \t\t\trDownvote;\\r\\n    // number of...\n      POP \t\t\trDownvote;\\r\\n    // number of...\n      POP \t\t\trDownvote;\\r\\n    // number of...\n      JUMP [out]\t\t\trDownvote;\\r\\n    // number of...\n    tag 54\t\t\tint minimunApproval;\\r\\n      ...\n      JUMPDEST \t\t\tint minimunApproval;\\r\\n      ...\n      PUSH 0\t\t\tgStake\n      DUP1 \t\t\t\\n     \n      PUSH 40\t\t\tnf\n      DUP4 \t\t\t    Votin\n      DUP6 \t\t\t\\r\\n    }\n      SUB \t\t\take;\\r\\n    }\\r\\n    Voting\n      SLT \t\t\talStake;\\r\\n    }\\r\\n    Votin...\n      ISZERO \t\t\tposalStake;\\r\\n    }\\r\\n    Vo...\n      PUSH [tag] 452\t\t\tposalStake;\\r\\n    }\\r\\n    Vo...\n      JUMPI \t\t\tposalStake;\\r\\n    }\\r\\n    Vo...\n      PUSH [tag] 453\t\t\tublic votingconfigs;\\r\\n\\r\\n  ...\n      PUSH [tag] 445\t\t\tublic votingconfigs;\\r\\n\\r\\n  ...\n      JUMP [in]\t\t\tublic votingconfigs;\\r\\n\\r\\n  ...\n    tag 453\t\t\tublic votingconfigs;\\r\\n\\r\\n  ...\n      JUMPDEST \t\t\tublic votingconfigs;\\r\\n\\r\\n  ...\n    tag 452\t\t\tposalStake;\\r\\n    }\\r\\n    Vo...\n      JUMPDEST \t\t\tposalStake;\\r\\n    }\\r\\n    Vo...\n      PUSH 0\t\t\t \n      PUSH [tag] 454\t\t\tF30678efec11939234; // USDC\\r\\...\n      DUP6 \t\t\tddMembe\n      DUP3 \t\t\tunctio\n      DUP7 \t\t\tDC\\r\\n\\r\\n   \n      ADD \t\t\t/ USDC\\r\\n\\r\\n    function\n      PUSH [tag] 418\t\t\tF30678efec11939234; // USDC\\r\\...\n      JUMP [in]\t\t\tF30678efec11939234; // USDC\\r\\...\n    tag 454\t\t\tF30678efec11939234; // USDC\\r\\...\n      JUMPDEST \t\t\tF30678efec11939234; // USDC\\r\\...\n      SWAP3 \t\t\tA6107Bb64EF30678efec11939234; ...\n      POP \t\t\tA6107Bb64EF30678efec11939234; ...\n      POP \t\t\tchargeTokenAddress =\\r\\n      ...\n      PUSH 20\t\t\tam\n      PUSH [tag] 455\t\t\tmsg.sender),\"First join the Sa...\n      DUP6 \t\t\t       \n      DUP3 \t\t\tDAO\");\n      DUP7 \t\t\the Samhit\n      ADD \t\t\tin the Samhita DAO\");\\r\n      PUSH [tag] 435\t\t\tmsg.sender),\"First join the Sa...\n      JUMP [in]\t\t\tmsg.sender),\"First join the Sa...\n    tag 455\t\t\tmsg.sender),\"First join the Sa...\n      JUMPDEST \t\t\tmsg.sender),\"First join the Sa...\n      SWAP2 \t\t\tmberAdded(msg.sender),\"First j...\n      POP \t\t\tmberAdded(msg.sender),\"First j...\n      POP \t\t\tc payable{\\r\\n        require(...\n      SWAP3 \t\t\tint minimunApproval;\\r\\n      ...\n      POP \t\t\tint minimunApproval;\\r\\n      ...\n      SWAP3 \t\t\tint minimunApproval;\\r\\n      ...\n      SWAP1 \t\t\tint minimunApproval;\\r\\n      ...\n      POP \t\t\tint minimunApproval;\\r\\n      ...\n      JUMP [out]\t\t\tint minimunApproval;\\r\\n      ...\n    tag 176\t\t\tokens*languageToken.getTokenPr...\n      JUMPDEST \t\t\tokens*languageToken.getTokenPr...\n      PUSH 0\t\t\trequir\n      PUSH 20\t\t\tto\n      DUP3 \t\t\tss(this))\n      DUP5 \t\t\teOf(add\n      SUB \t\t\tlanceOf(address(this))>\n      SLT \t\t\tn.balanceOf(address(this))>=_t...\n      ISZERO \t\t\token.balanceOf(address(this))>...\n      PUSH [tag] 457\t\t\token.balanceOf(address(this))>...\n      JUMPI \t\t\token.balanceOf(address(this))>...\n      PUSH [tag] 458\t\t\t,\"Contract does not have enoug...\n      PUSH [tag] 445\t\t\t,\"Contract does not have enoug...\n      JUMP [in]\t\t\t,\"Contract does not have enoug...\n    tag 458\t\t\t,\"Contract does not have enoug...\n      JUMPDEST \t\t\t,\"Contract does not have enoug...\n    tag 457\t\t\token.balanceOf(address(this))>...\n      JUMPDEST \t\t\token.balanceOf(address(this))>...\n      PUSH 0\t\t\t(\n      PUSH [tag] 459\t\t\t  isMemberAdded[msg.sender]=tr...\n      DUP5 \t\t\t langua\n      DUP3 \t\t\t\\r\\n    \n      DUP6 \t\t\t\\r\\n       \n      ADD \t\t\true;\\r\\n        }\\r\\n     \n      PUSH [tag] 425\t\t\t  isMemberAdded[msg.sender]=tr...\n      JUMP [in]\t\t\t  isMemberAdded[msg.sender]=tr...\n    tag 459\t\t\t  isMemberAdded[msg.sender]=tr...\n      JUMPDEST \t\t\t  isMemberAdded[msg.sender]=tr...\n      SWAP2 \t\t\t            isMemberAdded[msg....\n      POP \t\t\t            isMemberAdded[msg....\n      POP \t\t\t     allDaoMemberAddress.push(...\n      SWAP3 \t\t\tokens*languageToken.getTokenPr...\n      SWAP2 \t\t\tokens*languageToken.getTokenPr...\n      POP \t\t\tokens*languageToken.getTokenPr...\n      POP \t\t\tokens*languageToken.getTokenPr...\n      JUMP [out]\t\t\tokens*languageToken.getTokenPr...\n    tag 67\t\t\tder,_tokens);\\r\\n    }\\r\\n\\r\\n...\n      JUMPDEST \t\t\tder,_tokens);\\r\\n    }\\r\\n\\r\\n...\n      PUSH 0\t\t\tme, st\n      DUP1 \t\t\tng mem\n      PUSH 0\t\t\ty _pro\n      DUP1 \t\t\tsalaDe\n      PUSH 80\t\t\tt _\n      DUP6 \t\t\talIamge, \n      DUP8 \t\t\try prop\n      SUB \t\t\tmemory proposalIamge, u\n      SLT \t\t\ting memory proposalIamge, uint...\n      ISZERO \t\t\tstring memory proposalIamge, u...\n      PUSH [tag] 461\t\t\tstring memory proposalIamge, u...\n      JUMPI \t\t\tstring memory proposalIamge, u...\n      PUSH [tag] 462\t\t\tlateId) public payable{\\r\\n   ...\n      PUSH [tag] 445\t\t\tlateId) public payable{\\r\\n   ...\n      JUMP [in]\t\t\tlateId) public payable{\\r\\n   ...\n    tag 462\t\t\tlateId) public payable{\\r\\n   ...\n      JUMPDEST \t\t\tlateId) public payable{\\r\\n   ...\n    tag 461\t\t\tstring memory proposalIamge, u...\n      JUMPDEST \t\t\tstring memory proposalIamge, u...\n      PUSH 0\t\t\tn\n      DUP6 \t\t\tdded[msg.\n      ADD \t\t\tberAdded[msg.send\n      CALLDATALOAD \t\t\trequire(isMemberAdded[msg.send...\n      PUSH FFFFFFFFFFFFFFFF\t\t\tof ths Samhita DAO\n      DUP2 \t\t\t membe\n      GT \t\t\tthe member of ths Samhita DAO\"\n      ISZERO \t\t\tot the member of ths Samhita D...\n      PUSH [tag] 463\t\t\tot the member of ths Samhita D...\n      JUMPI \t\t\tot the member of ths Samhita D...\n      PUSH [tag] 464\t\t\t\\n        require(msg.value==v...\n      PUSH [tag] 465\t\t\t\\n        require(msg.value==v...\n      JUMP [in]\t\t\t\\n        require(msg.value==v...\n    tag 464\t\t\t\\n        require(msg.value==v...\n      JUMPDEST \t\t\t\\n        require(msg.value==v...\n    tag 463\t\t\tot the member of ths Samhita D...\n      JUMPDEST \t\t\tot the member of ths Samhita D...\n      PUSH [tag] 466\t\t\tsal\");\\r\\n        proposalCoun...\n      DUP8 \t\t\try prop\n      DUP3 \t\t\tosal m\n      DUP9 \t\t\t       Pr\n      ADD \t\t\t;\\r\\n        Proposal me\n      PUSH [tag] 429\t\t\tsal\");\\r\\n        proposalCoun...\n      JUMP [in]\t\t\tsal\");\\r\\n        proposalCoun...\n    tag 466\t\t\tsal\");\\r\\n        proposalCoun...\n      JUMPDEST \t\t\tsal\");\\r\\n        proposalCoun...\n      SWAP5 \t\t\tte a proposal\");\\r\\n        pr...\n      POP \t\t\tte a proposal\");\\r\\n        pr...\n      POP \t\t\t the Samhita DAO\");\\r\\n       ...\n      PUSH 20\t\t\tge\n      DUP6 \t\t\tproposalI\n      ADD \t\t\ton, proposalIamge,\n      CALLDATALOAD \t\t\tsalaDescription, proposalIamge...\n      PUSH FFFFFFFFFFFFFFFF\t\t\testamp, block.time\n      DUP2 \t\t\tlock.t\n      GT \t\t\t, block.timestamp, block.times\n      ISZERO \t\t\t, 0, block.timestamp, block.ti...\n      PUSH [tag] 467\t\t\t, 0, block.timestamp, block.ti...\n      JUMPI \t\t\t, 0, block.timestamp, block.ti...\n      PUSH [tag] 468\t\t\tp + votingconfigs.votingPeriod...\n      PUSH [tag] 465\t\t\tp + votingconfigs.votingPeriod...\n      JUMP [in]\t\t\tp + votingconfigs.votingPeriod...\n    tag 468\t\t\tp + votingconfigs.votingPeriod...\n      JUMPDEST \t\t\tp + votingconfigs.votingPeriod...\n    tag 467\t\t\t, 0, block.timestamp, block.ti...\n      JUMPDEST \t\t\t, 0, block.timestamp, block.ti...\n      PUSH [tag] 469\t\t\t;\\r\\n    }\\r\\n   \\r\\n    funct...\n      DUP8 \t\t\tew retu\n      DUP3 \t\t\tpublic\n      DUP9 \t\t\troposals(\n      ADD \t\t\tAllProposals() public \n      PUSH [tag] 429\t\t\t;\\r\\n    }\\r\\n   \\r\\n    funct...\n      JUMP [in]\t\t\t;\\r\\n    }\\r\\n   \\r\\n    funct...\n    tag 469\t\t\t;\\r\\n    }\\r\\n   \\r\\n    funct...\n      JUMPDEST \t\t\t;\\r\\n    }\\r\\n   \\r\\n    funct...\n      SWAP4 \t\t\t= proposal;\\r\\n    }\\r\\n   \\r\\...\n      POP \t\t\t= proposal;\\r\\n    }\\r\\n   \\r\\...\n      POP \t\t\tsalCount,_proposalName,_propos...\n      PUSH 40\t\t\tro\n      DUP6 \t\t\tals = new\n      ADD \t\t\toposals = new Prop\n      CALLDATALOAD \t\t\t memory allProposals = new Pro...\n      PUSH FFFFFFFFFFFFFFFF\t\t\t    for(uint i=0;i\n      DUP2 \t\t\t);\\r\\n  \n      GT \t\t\tunt);\\r\\n        for(uint i=0;...\n      ISZERO \t\t\tlCount);\\r\\n        for(uint i...\n      PUSH [tag] 470\t\t\tlCount);\\r\\n        for(uint i...\n      JUMPI \t\t\tlCount);\\r\\n        for(uint i...\n      PUSH [tag] 471\t\t\tposalCount;i++)\\r\\n        {\\r...\n      PUSH [tag] 465\t\t\tposalCount;i++)\\r\\n        {\\r...\n      JUMP [in]\t\t\tposalCount;i++)\\r\\n        {\\r...\n    tag 471\t\t\tposalCount;i++)\\r\\n        {\\r...\n      JUMPDEST \t\t\tposalCount;i++)\\r\\n        {\\r...\n    tag 470\t\t\tlCount);\\r\\n        for(uint i...\n      JUMPDEST \t\t\tlCount);\\r\\n        for(uint i...\n      PUSH [tag] 472\t\t\troposals;\\r\\n    }\\r\\n\\r\\n    ...\n      DUP8 \t\t\tf propo\n      DUP3 \t\t\t favou\n      DUP9 \t\t\t to vote \n      ADD \t\t\ttion to vote in favour\n      PUSH [tag] 429\t\t\troposals;\\r\\n    }\\r\\n\\r\\n    ...\n      JUMP [in]\t\t\troposals;\\r\\n    }\\r\\n\\r\\n    ...\n    tag 472\t\t\troposals;\\r\\n    }\\r\\n\\r\\n    ...\n      JUMPDEST \t\t\troposals;\\r\\n    }\\r\\n\\r\\n    ...\n      SWAP3 \t\t\teturn allProposals;\\r\\n    }\\r...\n      POP \t\t\teturn allProposals;\\r\\n    }\\r...\n      POP \t\t\ty)\\r\\n    {\\r\\n        Proposa...\n      PUSH 60\t\t\tD)\n      PUSH [tag] 473\t\t\t  // require function to check...\n      DUP8 \t\t\t then o\n      DUP3 \t\t\t balan\n      DUP9 \t\t\tcheck tok\n      ADD \t\t\t to check token balanc\n      PUSH [tag] 435\t\t\t  // require function to check...\n      JUMP [in]\t\t\t  // require function to check...\n    tag 473\t\t\t  // require function to check...\n      JUMPDEST \t\t\t  // require function to check...\n      SWAP2 \t\t\te{\\r\\n        // require funct...\n      POP \t\t\te{\\r\\n        // require funct...\n      POP \t\t\toteProposal(uint256 proposalID...\n      SWAP3 \t\t\tder,_tokens);\\r\\n    }\\r\\n\\r\\n...\n      SWAP6 \t\t\tder,_tokens);\\r\\n    }\\r\\n\\r\\n...\n      SWAP2 \t\t\tder,_tokens);\\r\\n    }\\r\\n\\r\\n...\n      SWAP5 \t\t\tder,_tokens);\\r\\n    }\\r\\n\\r\\n...\n      POP \t\t\tder,_tokens);\\r\\n    }\\r\\n\\r\\n...\n      SWAP3 \t\t\tder,_tokens);\\r\\n    }\\r\\n\\r\\n...\n      POP \t\t\tder,_tokens);\\r\\n    }\\r\\n\\r\\n...\n      JUMP [out]\t\t\tder,_tokens);\\r\\n    }\\r\\n\\r\\n...\n    tag 34\t\t\t      require(samhita.checkIsM...\n      JUMPDEST \t\t\t      require(samhita.checkIsM...\n      PUSH 0\t\t\t join \n      PUSH 20\t\t\trA\n      DUP3 \t\t\tuire(isMe\n      DUP5 \t\t\t      r\n      SUB \t\t\t\\r\\n        require(isMem\n      SLT \t\t\tO\");\\r\\n        require(isMemb...\n      ISZERO \t\t\t DAO\");\\r\\n        require(isM...\n      PUSH [tag] 475\t\t\t DAO\");\\r\\n        require(isM...\n      JUMPI \t\t\t DAO\");\\r\\n        require(isM...\n      PUSH [tag] 476\t\t\t[msg.sender],\"You are not a me...\n      PUSH [tag] 445\t\t\t[msg.sender],\"You are not a me...\n      JUMP [in]\t\t\t[msg.sender],\"You are not a me...\n    tag 476\t\t\t[msg.sender],\"You are not a me...\n      JUMPDEST \t\t\t[msg.sender],\"You are not a me...\n    tag 475\t\t\t DAO\");\\r\\n        require(isM...\n      JUMPDEST \t\t\t DAO\");\\r\\n        require(isM...\n      PUSH 0\t\t\te\n      PUSH [tag] 477\t\t\tnot vote his own proposal\");\\r...\n      DUP5 \t\t\t(!hasVo\n      DUP3 \t\t\t  requ\n      DUP6 \t\t\t\");\\r\\n    \n      ADD \t\t\tosal\");\\r\\n        requi\n      PUSH [tag] 435\t\t\tnot vote his own proposal\");\\r...\n      JUMP [in]\t\t\tnot vote his own proposal\");\\r...\n    tag 477\t\t\tnot vote his own proposal\");\\r...\n      JUMPDEST \t\t\tnot vote his own proposal\");\\r...\n      SWAP2 \t\t\treator cannot vote his own pro...\n      POP \t\t\treator cannot vote his own pro...\n      POP \t\t\tID].proposalCreator!=msg.sende...\n      SWAP3 \t\t\t      require(samhita.checkIsM...\n      SWAP2 \t\t\t      require(samhita.checkIsM...\n      POP \t\t\t      require(samhita.checkIsM...\n      POP \t\t\t      require(samhita.checkIsM...\n      JUMP [out]\t\t\t      require(samhita.checkIsM...\n    tag 211\t\t\tr][proposalID], \"Already Voted...\n      JUMPDEST \t\t\tr][proposalID], \"Already Voted...\n      PUSH 0\t\t\tD].pro\n      PUSH 20\t\t\tri\n      DUP3 \t\t\t, \"Voting\n      DUP5 \t\t\ttimesta\n      SUB \t\t\tock.timestamp, \"Voting \n      SLT \t\t\t> block.timestamp, \"Voting Per...\n      ISZERO \t\t\tAt > block.timestamp, \"Voting ...\n      PUSH [tag] 479\t\t\tAt > block.timestamp, \"Voting ...\n      JUMPI \t\t\tAt > block.timestamp, \"Voting ...\n      PUSH [tag] 480\t\t\tinished\");\\r\\n        require(...\n      PUSH [tag] 445\t\t\tinished\");\\r\\n        require(...\n      JUMP [in]\t\t\tinished\");\\r\\n        require(...\n    tag 480\t\t\tinished\");\\r\\n        require(...\n      JUMPDEST \t\t\tinished\");\\r\\n        require(...\n    tag 479\t\t\tAt > block.timestamp, \"Voting ...\n      JUMPDEST \t\t\tAt > block.timestamp, \"Voting ...\n      PUSH 0\t\t\t;\n      PUSH [tag] 481\t\t\tosalID].upVoteCount = proposal...\n      DUP5 \t\t\t+ 1;\\r\\n \n      DUP3 \t\t\toteCou\n      DUP6 \t\t\tosalID].u\n      ADD \t\t\tproposalID].upVoteCoun\n      PUSH [tag] 439\t\t\tosalID].upVoteCount = proposal...\n      JUMP [in]\t\t\tosalID].upVoteCount = proposal...\n    tag 481\t\t\tosalID].upVoteCount = proposal...\n      JUMPDEST \t\t\tosalID].upVoteCount = proposal...\n      SWAP2 \t\t\tosals[proposalID].upVoteCount ...\n      POP \t\t\tosals[proposalID].upVoteCount ...\n      POP \t\t\tmount to vote on a proposal\");...\n      SWAP3 \t\t\tr][proposalID], \"Already Voted...\n      SWAP2 \t\t\tr][proposalID], \"Already Voted...\n      POP \t\t\tr][proposalID], \"Already Voted...\n      POP \t\t\tr][proposalID], \"Already Voted...\n      JUMP [out]\t\t\tr][proposalID], \"Already Voted...\n    tag 47\t\t\tal[msg.sender][proposalID] = t...\n      JUMPDEST \t\t\tal[msg.sender][proposalID] = t...\n      PUSH 0\t\t\talID].\n      DUP1 \t\t\tsh(msg\n      PUSH 40\t\t\tlI\n      DUP4 \t\t\tvote[prop\n      DUP6 \t\t\tbersFor\n      SUB \t\t\t membersForUpvote[propo\n      SLT \t\t\t     membersForUpvote[proposal...\n      ISZERO \t\t\t        membersForUpvote[propo...\n      PUSH [tag] 483\t\t\t        membersForUpvote[propo...\n      JUMPI \t\t\t        membersForUpvote[propo...\n      PUSH [tag] 484\t\t\tush(msg.sender);\\r\\n    }\\r\\n\\...\n      PUSH [tag] 445\t\t\tush(msg.sender);\\r\\n    }\\r\\n\\...\n      JUMP [in]\t\t\tush(msg.sender);\\r\\n    }\\r\\n\\...\n    tag 484\t\t\tush(msg.sender);\\r\\n    }\\r\\n\\...\n      JUMPDEST \t\t\tush(msg.sender);\\r\\n    }\\r\\n\\...\n    tag 483\t\t\t        membersForUpvote[propo...\n      JUMPDEST \t\t\t        membersForUpvote[propo...\n      PUSH 0\t\t\tI\n      PUSH [tag] 485\t\t\t    // require function to che...\n      DUP6 \t\t\te, then\n      DUP3 \t\t\ten bal\n      DUP7 \t\t\to check t\n      ADD \t\t\ton to check token bala\n      PUSH [tag] 435\t\t\t    // require function to che...\n      JUMP [in]\t\t\t    // require function to che...\n    tag 485\t\t\t    // require function to che...\n      JUMPDEST \t\t\t    // require function to che...\n      SWAP3 \t\t\tble{\\r\\n        // require fun...\n      POP \t\t\tble{\\r\\n        // require fun...\n      POP \t\t\tvoteProposal(uint256 proposalI...\n      PUSH 20\t\t\tec\n      PUSH [tag] 486\t\t\tr),\"First join the Samhita DAO...\n      DUP6 \t\t\tquire(i\n      DUP3 \t\t\t      \n      DUP7 \t\t\ta DAO\");\\r\n      ADD \t\t\tmhita DAO\");\\r\\n        \n      PUSH [tag] 435\t\t\tr),\"First join the Samhita DAO...\n      JUMP [in]\t\t\tr),\"First join the Samhita DAO...\n    tag 486\t\t\tr),\"First join the Samhita DAO...\n      JUMPDEST \t\t\tr),\"First join the Samhita DAO...\n      SWAP2 \t\t\t(msg.sender),\"First join the S...\n      POP \t\t\t(msg.sender),\"First join the S...\n      POP \t\t\tg\\r\\n        require(samhita.c...\n      SWAP3 \t\t\tal[msg.sender][proposalID] = t...\n      POP \t\t\tal[msg.sender][proposalID] = t...\n      SWAP3 \t\t\tal[msg.sender][proposalID] = t...\n      SWAP1 \t\t\tal[msg.sender][proposalID] = t...\n      POP \t\t\tal[msg.sender][proposalID] = t...\n      JUMP [out]\t\t\tal[msg.sender][proposalID] = t...\n    tag 147\t\t\t,\"You are not a member of the ...\n      JUMPDEST \t\t\t,\"You are not a member of the ...\n      PUSH 0\t\t\ttor!=m\n      DUP1 \t\t\t.sende\n      PUSH 0\t\t\t \"Prop\n      DUP1 \t\t\tal Cre\n      PUSH 0\t\t\tor can\n      PUSH A0\t\t\tre(\n      DUP7 \t\t\t       re\n      DUP9 \t\t\tsal\");\\r\n      SUB \t\t\troposal\");\\r\\n        req\n      SLT \t\t\twn proposal\");\\r\\n        requ...\n      ISZERO \t\t\ts own proposal\");\\r\\n        r...\n      PUSH [tag] 488\t\t\ts own proposal\");\\r\\n        r...\n      JUMPI \t\t\ts own proposal\");\\r\\n        r...\n      PUSH [tag] 489\t\t\tVotedForProposal[msg.sender][p...\n      PUSH [tag] 445\t\t\tVotedForProposal[msg.sender][p...\n      JUMP [in]\t\t\tVotedForProposal[msg.sender][p...\n    tag 489\t\t\tVotedForProposal[msg.sender][p...\n      JUMPDEST \t\t\tVotedForProposal[msg.sender][p...\n    tag 488\t\t\ts own proposal\");\\r\\n        r...\n      JUMPDEST \t\t\ts own proposal\");\\r\\n        r...\n      PUSH 0\t\t\to\n      PUSH [tag] 490\t\t\triod Finished\");\\r\\n        re...\n      DUP9 \t\t\tvotingc\n      DUP3 \t\t\tg.valu\n      DUP10 \t\t\t require(\n      ADD \t\t\t     require(msg.value\n      PUSH [tag] 435\t\t\triod Finished\");\\r\\n        re...\n      JUMP [in]\t\t\triod Finished\");\\r\\n        re...\n    tag 490\t\t\triod Finished\");\\r\\n        re...\n      JUMPDEST \t\t\triod Finished\");\\r\\n        re...\n      SWAP6 \t\t\t\"Voting Period Finished\");\\r\\n...\n      POP \t\t\t\"Voting Period Finished\");\\r\\n...\n      POP \t\t\tosalID].proposalExpireAt > blo...\n      PUSH 20\t\t\t t\n      PUSH [tag] 491\t\t\t\\n        proposals[proposalID...\n      DUP9 \t\t\t= propo\n      DUP3 \t\t\toteCou\n      DUP10 \t\t\talID].dow\n      ADD \t\t\toposalID].downVoteCoun\n      PUSH [tag] 435\t\t\t\\n        proposals[proposalID...\n      JUMP [in]\t\t\t\\n        proposals[proposalID...\n    tag 491\t\t\t\\n        proposals[proposalID...\n      JUMPDEST \t\t\t\\n        proposals[proposalID...\n      SWAP5 \t\t\toposal\");\\r\\n        proposals...\n      POP \t\t\toposal\");\\r\\n        proposals...\n      POP \t\t\tou have to stake valid amount ...\n      PUSH 40\t\t\tte\n      PUSH [tag] 492\t\t\t[proposalID] = true;\\r\\n      ...\n      DUP9 \t\t\tal[prop\n      DUP3 \t\t\tForPro\n      DUP10 \t\t\t     vote\n      ADD \t\t\t\\n        votersForProp\n      PUSH [tag] 435\t\t\t[proposalID] = true;\\r\\n      ...\n      JUMP [in]\t\t\t[proposalID] = true;\\r\\n      ...\n    tag 492\t\t\t[proposalID] = true;\\r\\n      ...\n      JUMPDEST \t\t\t[proposalID] = true;\\r\\n      ...\n      SWAP4 \t\t\tsg.sender][proposalID] = true;...\n      POP \t\t\tsg.sender][proposalID] = true;...\n      POP \t\t\tVoteCount + 1;\\r\\n        hasV...\n      PUSH 60\t\t\tot\n      PUSH [tag] 493\t\t\tender);\\r\\n    }\\r\\n\\r\\n    //...\n      DUP9 \t\t\tn votin\n      DUP3 \t\t\t  func\n      DUP10 \t\t\t voting\\r\\n\n      ADD \t\t\t //  voting\\r\\n    funct\n      PUSH [tag] 435\t\t\tender);\\r\\n    }\\r\\n\\r\\n    //...\n      JUMP [in]\t\t\tender);\\r\\n    }\\r\\n\\r\\n    //...\n    tag 493\t\t\tender);\\r\\n    }\\r\\n\\r\\n    //...\n      JUMPDEST \t\t\tender);\\r\\n    }\\r\\n\\r\\n    //...\n      SWAP3 \t\t\tpush(msg.sender);\\r\\n    }\\r\\n...\n      POP \t\t\tpush(msg.sender);\\r\\n    }\\r\\n...\n      POP \t\t\ter);\\r\\n        membersForDown...\n      PUSH 80\t\t\t{\\r\\n\n      PUSH [tag] 494\t\t\ts[_proposalId].votingResult==f...\n      DUP9 \t\t\tsult is\n      DUP3 \t\t\tVoting\n      DUP10 \t\t\tlt==false\n      ADD \t\t\tResult==false,\"Voting \n      PUSH [tag] 435\t\t\ts[_proposalId].votingResult==f...\n      JUMP [in]\t\t\ts[_proposalId].votingResult==f...\n    tag 494\t\t\ts[_proposalId].votingResult==f...\n      JUMPDEST \t\t\ts[_proposalId].votingResult==f...\n      SWAP2 \t\t\te(proposals[_proposalId].votin...\n      POP \t\t\te(proposals[_proposalId].votin...\n      POP \t\t\tlId, uint _templateId) public{...\n      SWAP3 \t\t\t,\"You are not a member of the ...\n      SWAP6 \t\t\t,\"You are not a member of the ...\n      POP \t\t\t,\"You are not a member of the ...\n      SWAP3 \t\t\t,\"You are not a member of the ...\n      SWAP6 \t\t\t,\"You are not a member of the ...\n      SWAP1 \t\t\t,\"You are not a member of the ...\n      SWAP4 \t\t\t,\"You are not a member of the ...\n      POP \t\t\t,\"You are not a member of the ...\n      JUMP [out]\t\t\t,\"You are not a member of the ...\n    tag 495\t\t\t    uint _totalVotes = proposa...\n      JUMPDEST \t\t\t    uint _totalVotes = proposa...\n      PUSH 0\t\t\t>((allDaoM\n      PUSH [tag] 497\t\t\tgconfigs.condition)/100)){\\r\\n...\n      DUP4 \t\t\t   \n      DUP4 \t\t\t;\\r\\n   \n      PUSH [tag] 498\t\t\tgconfigs.condition)/100)){\\r\\n...\n      JUMP [in]\t\t\tgconfigs.condition)/100)){\\r\\n...\n    tag 497\t\t\tgconfigs.condition)/100)){\\r\\n...\n      JUMPDEST \t\t\tgconfigs.condition)/100)){\\r\\n...\n      SWAP1 \t\t\ts.length*votingconfigs.conditi...\n      POP \t\t\ts.length*votingconfigs.conditi...\n      SWAP3 \t\t\t    uint _totalVotes = proposa...\n      SWAP2 \t\t\t    uint _totalVotes = proposa...\n      POP \t\t\t    uint _totalVotes = proposa...\n      POP \t\t\t    uint _totalVotes = proposa...\n      JUMP [out]\t\t\t    uint _totalVotes = proposa...\n    tag 499\t\t\toposals[_proposalId].upVoteCou...\n      JUMPDEST \t\t\toposals[_proposalId].upVoteCou...\n      PUSH [tag] 501\t\t\tval){\\r\\n            propo\n      DUP2 \t\t\t prop\n      PUSH [tag] 502\t\t\tval){\\r\\n            propo\n      JUMP [in]\t\t\tval){\\r\\n            propo\n    tag 501\t\t\tval){\\r\\n            propo\n      JUMPDEST \t\t\tval){\\r\\n            propo\n      DUP3 \t\t\tApp\n      MSTORE \t\t\tminimunApproval){\\r\\n         ...\n      POP \t\t\toposals[_proposalId].upVoteCou...\n      POP \t\t\toposals[_proposalId].upVoteCou...\n      JUMP [out]\t\t\toposals[_proposalId].upVoteCou...\n    tag 503\t\t\tlId].status=\"approved\";\\r\\n   ...\n      JUMPDEST \t\t\tlId].status=\"approved\";\\r\\n   ...\n      PUSH [tag] 505\t\t\treator;\\r\\n            mem\n      DUP2 \t\t\t   me\n      PUSH [tag] 502\t\t\treator;\\r\\n            mem\n      JUMP [in]\t\t\treator;\\r\\n            mem\n    tag 505\t\t\treator;\\r\\n            mem\n      JUMPDEST \t\t\treator;\\r\\n            mem\n      DUP3 \t\t\tosa\n      MSTORE \t\t\td].proposalCreator;\\r\\n       ...\n      POP \t\t\tlId].status=\"approved\";\\r\\n   ...\n      POP \t\t\tlId].status=\"approved\";\\r\\n   ...\n      JUMP [out]\t\t\tlId].status=\"approved\";\\r\\n   ...\n    tag 506\t\t\t0;i<membersForUpvote[_proposal...\n      JUMPDEST \t\t\t0;i<membersForUpvote[_proposal...\n      PUSH 0\t\t\t   \n      PUSH [tag] 508\t\t\tposals[_proposalId].templateId...\n      DUP3 \t\t\tplate\n      PUSH [tag] 509\t\t\tposals[_proposalId].templateId...\n      JUMP [in]\t\t\tposals[_proposalId].templateId...\n    tag 508\t\t\tposals[_proposalId].templateId...\n      JUMPDEST \t\t\tposals[_proposalId].templateId...\n      PUSH [tag] 510\t\t\ttails(_templateId);\\r\\n       ...\n      DUP2 \t\t\te(\\r\\n  \n      DUP6 \t\t\tequ\n      PUSH [tag] 511\t\t\ttails(_templateId);\\r\\n       ...\n      JUMP [in]\t\t\ttails(_templateId);\\r\\n       ...\n    tag 510\t\t\ttails(_templateId);\\r\\n       ...\n      JUMPDEST \t\t\ttails(_templateId);\\r\\n       ...\n      SWAP4 \t\t\tplateDetails(_templateId);\\r\\n...\n      POP \t\t\tplateDetails(_templateId);\\r\\n...\n      DUP4 \t\t\tlow\n      PUSH 20\t\t\tFee,\n      DUP3 \t\t\t royal\n      MUL \t\t\t) >= royaltyFee,\\r\n      DUP6 \t\t\tthi\n      ADD \t\t\tess(this)) >= royaltyFee,\\r\\n\n      PUSH [tag] 512\t\t\towance is not enough!\"\\r\\n    ...\n      DUP6 \t\t\tFrom(\n      PUSH [tag] 513\t\t\towance is not enough!\"\\r\\n    ...\n      JUMP [in]\t\t\towance is not enough!\"\\r\\n    ...\n    tag 512\t\t\towance is not enough!\"\\r\\n    ...\n      JUMPDEST \t\t\towance is not enough!\"\\r\\n    ...\n      DUP1 \t\t\taltyFee\n      PUSH 0\t\t\t \n    tag 514\t\t\t       }\\r\\n        }else if((...\n      JUMPDEST \t\t\t       }\\r\\n        }else if((...\n      DUP6 \t\t\tf(((pr\n      DUP2 \t\t\te\n      LT \t\t\telse if(((pro\n      ISZERO \t\t\t       }\\r\\n        }else if((...\n      PUSH [tag] 516\t\t\t       }\\r\\n        }else if((...\n      JUMPI \t\t\t       }\\r\\n        }else if((...\n      DUP5 \t\t\ts.minimun\n      DUP5 \t\t\tconf\n      SUB \t\t\ttingconfigs.minimunA\n      DUP10 \t\t\t0)>\n      MSTORE \t\t\ttes)*100)>votingconfigs.minimu...\n      DUP2 \t\t\tlId].s\n      MLOAD \t\t\troposalId].st\n      PUSH [tag] 517\t\t\t     }\\r\\n        proposals[_p...\n      DUP6 \t\t\tfig\\r\n      DUP3 \t\t\tting voting c\n      PUSH [tag] 495\t\t\t     }\\r\\n        proposals[_p...\n      JUMP [in]\t\t\t     }\\r\\n        proposals[_p...\n    tag 517\t\t\t     }\\r\\n        proposals[_p...\n      JUMPDEST \t\t\t     }\\r\\n        proposals[_p...\n      SWAP5 \t\t\td\";\\r\\n        }\\r\\n        pr...\n      POP \t\t\td\";\\r\\n        }\\r\\n        pr...\n      PUSH [tag] 518\t\t\tVotingConfig(uint _condition, ...\n      DUP4 \t\t\tvoting\n      PUSH [tag] 519\t\t\tVotingConfig(uint _condition, ...\n      JUMP [in]\t\t\tVotingConfig(uint _condition, ...\n    tag 518\t\t\tVotingConfig(uint _condition, ...\n      JUMPDEST \t\t\tVotingConfig(uint _condition, ...\n      SWAP3 \t\t\tsetDataDaoVotingConfig(uint _c...\n      POP \t\t\tsetDataDaoVotingConfig(uint _c...\n      PUSH 20\t\t\tblic\n      DUP11 \t\t\te) \n      ADD \t\t\tStake) public \n      SWAP10 \t\t\troposalStake) public \n      POP \t\t\troposalStake) public \n      POP \t\t\tCount/_totalVotes)*100)>voting...\n      PUSH 1\t\t\tl\n      DUP2 \t\t\to\n      ADD \t\t\tproposalI\n      SWAP1 \t\t\tals[_proposalI\n      POP \t\t\tals[_proposalI\n      PUSH [tag] 514\t\t\t       }\\r\\n        }else if((...\n      JUMP \t\t\t       }\\r\\n        }else if((...\n    tag 516\t\t\t       }\\r\\n        }else if((...\n      JUMPDEST \t\t\t       }\\r\\n        }else if((...\n      POP \t\t\t   }\\r\\n        \n      DUP3 \t\t\t Vot\n      SWAP8 \t\t\tnfigs = Vot\n      POP \t\t\tnfigs = Vot\n      DUP8 \t\t\ttio\n      SWAP6 \t\t\t(_conditio\n      POP \t\t\t(_conditio\n      POP \t\t\t // \\r\\n            if(proposa...\n      POP \t\t\t // \\r\\n            if(proposa...\n      POP \t\t\t // \\r\\n            if(proposa...\n      POP \t\t\t // \\r\\n            if(proposa...\n      POP \t\t\t // \\r\\n            if(proposa...\n      SWAP3 \t\t\t0;i<membersForUpvote[_proposal...\n      SWAP2 \t\t\t0;i<membersForUpvote[_proposal...\n      POP \t\t\t0;i<membersForUpvote[_proposal...\n      POP \t\t\t0;i<membersForUpvote[_proposal...\n      JUMP [out]\t\t\t0;i<membersForUpvote[_proposal...\n    tag 520\t\t\tproval,_votingPeriod, _votingS...\n      JUMPDEST \t\t\tproval,_votingPeriod, _votingS...\n      PUSH [tag] 522\t\t\ton getDataDaoVotingCo\n      DUP2 \t\t\ttingC\n      PUSH [tag] 523\t\t\ton getDataDaoVotingCo\n      JUMP [in]\t\t\ton getDataDaoVotingCo\n    tag 522\t\t\ton getDataDaoVotingCo\n      JUMPDEST \t\t\ton getDataDaoVotingCo\n      DUP3 \t\t\tunc\n      MSTORE \t\t\t\\r\\n    function getDataDaoVot...\n      POP \t\t\tproval,_votingPeriod, _votingS...\n      POP \t\t\tproval,_votingPeriod, _votingS...\n      JUMP [out]\t\t\tproval,_votingPeriod, _votingS...\n    tag 524\t\t\t view returns(VotingConfig mem...\n      JUMPDEST \t\t\t view returns(VotingConfig mem...\n      PUSH [tag] 526\t\t\t\n      DUP2 \t\t\t\n      PUSH [tag] 523\t\t\t\n      JUMP [in]\t\t\t\n    tag 526\t\t\t\n      JUMPDEST \t\t\t\n      DUP3 \t\t\t\\n}\n      MSTORE \t\t\t   }\\r\\n\\r\\n}\n      POP \t\t\t view returns(VotingConfig mem...\n      POP \t\t\t view returns(VotingConfig mem...\n      JUMP [out]\t\t\t view returns(VotingConfig mem...\n    tag 527\t\t\t\n      JUMPDEST \t\t\t\n      PUSH [tag] 529\t\t\t\n      DUP2 \t\t\t\n      PUSH [tag] 530\t\t\t\n      JUMP [in]\t\t\t\n    tag 529\t\t\t\n      JUMPDEST \t\t\t\n      DUP3 \t\t\t\n      MSTORE \t\t\t\n      POP \t\t\t\n      POP \t\t\t\n      JUMP [out]\t\t\t\n    tag 531\t\t\t\n      JUMPDEST \t\t\t\n      PUSH [tag] 533\t\t\t\n      DUP2 \t\t\t\n      PUSH [tag] 534\t\t\t\n      JUMP [in]\t\t\t\n    tag 533\t\t\t\n      JUMPDEST \t\t\t\n      DUP3 \t\t\t\n      MSTORE \t\t\t\n      POP \t\t\t\n      POP \t\t\t\n      JUMP [out]\t\t\t\n    tag 535\t\t\t\n      JUMPDEST \t\t\t\n      PUSH [tag] 537\t\t\t\n      DUP2 \t\t\t\n      PUSH [tag] 538\t\t\t\n      JUMP [in]\t\t\t\n    tag 537\t\t\t\n      JUMPDEST \t\t\t\n      DUP3 \t\t\t\n      MSTORE \t\t\t\n      POP \t\t\t\n      POP \t\t\t\n      JUMP [out]\t\t\t\n    tag 539\t\t\t\n      JUMPDEST \t\t\t\n      PUSH 0\t\t\t\n      PUSH [tag] 541\t\t\t\n      DUP3 \t\t\t\n      PUSH [tag] 542\t\t\t\n      JUMP [in]\t\t\t\n    tag 541\t\t\t\n      JUMPDEST \t\t\t\n      PUSH [tag] 543\t\t\t\n      DUP2 \t\t\t\n      DUP6 \t\t\t\n      PUSH [tag] 544\t\t\t\n      JUMP [in]\t\t\t\n    tag 543\t\t\t\n      JUMPDEST \t\t\t\n      SWAP4 \t\t\t\n      POP \t\t\t\n      PUSH [tag] 545\t\t\t\n      DUP2 \t\t\t\n      DUP6 \t\t\t\n      PUSH 20\t\t\t\n      DUP7 \t\t\t\n      ADD \t\t\t\n      PUSH [tag] 546\t\t\t\n      JUMP [in]\t\t\t\n    tag 545\t\t\t\n      JUMPDEST \t\t\t\n      PUSH [tag] 547\t\t\t\n      DUP2 \t\t\t\n      PUSH [tag] 548\t\t\t\n      JUMP [in]\t\t\t\n    tag 547\t\t\t\n      JUMPDEST \t\t\t\n      DUP5 \t\t\t\n      ADD \t\t\t\n      SWAP2 \t\t\t\n      POP \t\t\t\n      POP \t\t\t\n      SWAP3 \t\t\t\n      SWAP2 \t\t\t\n      POP \t\t\t\n      POP \t\t\t\n      JUMP [out]\t\t\t\n    tag 549\t\t\t\n      JUMPDEST \t\t\t\n      PUSH 0\t\t\t\n      PUSH [tag] 551\t\t\t\n      DUP3 \t\t\t\n      PUSH [tag] 542\t\t\t\n      JUMP [in]\t\t\t\n    tag 551\t\t\t\n      JUMPDEST \t\t\t\n      PUSH [tag] 552\t\t\t\n      DUP2 \t\t\t\n      DUP6 \t\t\t\n      PUSH [tag] 553\t\t\t\n      JUMP [in]\t\t\t\n    tag 552\t\t\t\n      JUMPDEST \t\t\t\n      SWAP4 \t\t\t\n      POP \t\t\t\n      PUSH [tag] 554\t\t\t\n      DUP2 \t\t\t\n      DUP6 \t\t\t\n      PUSH 20\t\t\t\n      DUP7 \t\t\t\n      ADD \t\t\t\n      PUSH [tag] 546\t\t\t\n      JUMP [in]\t\t\t\n    tag 554\t\t\t\n      JUMPDEST \t\t\t\n      PUSH [tag] 555\t\t\t\n      DUP2 \t\t\t\n      PUSH [tag] 548\t\t\t\n      JUMP [in]\t\t\t\n    tag 555\t\t\t\n      JUMPDEST \t\t\t\n      DUP5 \t\t\t\n      ADD \t\t\t\n      SWAP2 \t\t\t\n      POP \t\t\t\n      POP \t\t\t\n      SWAP3 \t\t\t\n      SWAP2 \t\t\t\n      POP \t\t\t\n      POP \t\t\t\n      JUMP [out]\t\t\t\n    tag 556\t\t\t\n      JUMPDEST \t\t\t\n      PUSH 0\t\t\t\n      PUSH [tag] 558\t\t\t\n      PUSH 16\t\t\t\n      DUP4 \t\t\t\n      PUSH [tag] 553\t\t\t\n      JUMP [in]\t\t\t\n    tag 558\t\t\t\n      JUMPDEST \t\t\t\n      SWAP2 \t\t\t\n      POP \t\t\t\n      PUSH [tag] 559\t\t\t\n      DUP3 \t\t\t\n      PUSH [tag] 560\t\t\t\n      JUMP [in]\t\t\t\n    tag 559\t\t\t\n      JUMPDEST \t\t\t\n      PUSH 20\t\t\t\n      DUP3 \t\t\t\n      ADD \t\t\t\n      SWAP1 \t\t\t\n      POP \t\t\t\n      SWAP2 \t\t\t\n      SWAP1 \t\t\t\n      POP \t\t\t\n      JUMP [out]\t\t\t\n    tag 561\t\t\t\n      JUMPDEST \t\t\t\n      PUSH 0\t\t\t\n      PUSH [tag] 563\t\t\t\n      PUSH D\t\t\t\n      DUP4 \t\t\t\n      PUSH [tag] 553\t\t\t\n      JUMP [in]\t\t\t\n    tag 563\t\t\t\n      JUMPDEST \t\t\t\n      SWAP2 \t\t\t\n      POP \t\t\t\n      PUSH [tag] 564\t\t\t\n      DUP3 \t\t\t\n      PUSH [tag] 565\t\t\t\n      JUMP [in]\t\t\t\n    tag 564\t\t\t\n      JUMPDEST \t\t\t\n      PUSH 20\t\t\t\n      DUP3 \t\t\t\n      ADD \t\t\t\n      SWAP1 \t\t\t\n      POP \t\t\t\n      SWAP2 \t\t\t\n      SWAP1 \t\t\t\n      POP \t\t\t\n      JUMP [out]\t\t\t\n    tag 566\t\t\t\n      JUMPDEST \t\t\t\n      PUSH 0\t\t\t\n      PUSH [tag] 568\t\t\t\n      PUSH 24\t\t\t\n      DUP4 \t\t\t\n      PUSH [tag] 553\t\t\t\n      JUMP [in]\t\t\t\n    tag 568\t\t\t\n      JUMPDEST \t\t\t\n      SWAP2 \t\t\t\n      POP \t\t\t\n      PUSH [tag] 569\t\t\t\n      DUP3 \t\t\t\n      PUSH [tag] 570\t\t\t\n      JUMP [in]\t\t\t\n    tag 569\t\t\t\n      JUMPDEST \t\t\t\n      PUSH 40\t\t\t\n      DUP3 \t\t\t\n      ADD \t\t\t\n      SWAP1 \t\t\t\n      POP \t\t\t\n      SWAP2 \t\t\t\n      SWAP1 \t\t\t\n      POP \t\t\t\n      JUMP [out]\t\t\t\n    tag 571\t\t\t\n      JUMPDEST \t\t\t\n      PUSH 0\t\t\t\n      PUSH [tag] 573\t\t\t\n      PUSH 26\t\t\t\n      DUP4 \t\t\t\n      PUSH [tag] 553\t\t\t\n      JUMP [in]\t\t\t\n    tag 573\t\t\t\n      JUMPDEST \t\t\t\n      SWAP2 \t\t\t\n      POP \t\t\t\n      PUSH [tag] 574\t\t\t\n      DUP3 \t\t\t\n      PUSH [tag] 575\t\t\t\n      JUMP [in]\t\t\t\n    tag 574\t\t\t\n      JUMPDEST \t\t\t\n      PUSH 40\t\t\t\n      DUP3 \t\t\t\n      ADD \t\t\t\n      SWAP1 \t\t\t\n      POP \t\t\t\n      SWAP2 \t\t\t\n      SWAP1 \t\t\t\n      POP \t\t\t\n      JUMP [out]\t\t\t\n    tag 576\t\t\t\n      JUMPDEST \t\t\t\n      PUSH 0\t\t\t\n      PUSH [tag] 578\t\t\t\n      PUSH 33\t\t\t\n      DUP4 \t\t\t\n      PUSH [tag] 553\t\t\t\n      JUMP [in]\t\t\t\n    tag 578\t\t\t\n      JUMPDEST \t\t\t\n      SWAP2 \t\t\t\n      POP \t\t\t\n      PUSH [tag] 579\t\t\t\n      DUP3 \t\t\t\n      PUSH [tag] 580\t\t\t\n      JUMP [in]\t\t\t\n    tag 579\t\t\t\n      JUMPDEST \t\t\t\n      PUSH 40\t\t\t\n      DUP3 \t\t\t\n      ADD \t\t\t\n      SWAP1 \t\t\t\n      POP \t\t\t\n      SWAP2 \t\t\t\n      SWAP1 \t\t\t\n      POP \t\t\t\n      JUMP [out]\t\t\t\n    tag 581\t\t\t\n      JUMPDEST \t\t\t\n      PUSH 0\t\t\t\n      PUSH [tag] 583\t\t\t\n      PUSH 18\t\t\t\n      DUP4 \t\t\t\n      PUSH [tag] 553\t\t\t\n      JUMP [in]\t\t\t\n    tag 583\t\t\t\n      JUMPDEST \t\t\t\n      SWAP2 \t\t\t\n      POP \t\t\t\n      PUSH [tag] 584\t\t\t\n      DUP3 \t\t\t\n      PUSH [tag] 585\t\t\t\n      JUMP [in]\t\t\t\n    tag 584\t\t\t\n      JUMPDEST \t\t\t\n      PUSH 20\t\t\t\n      DUP3 \t\t\t\n      ADD \t\t\t\n      SWAP1 \t\t\t\n      POP \t\t\t\n      SWAP2 \t\t\t\n      SWAP1 \t\t\t\n      POP \t\t\t\n      JUMP [out]\t\t\t\n    tag 586\t\t\t\n      JUMPDEST \t\t\t\n      PUSH 0\t\t\t\n      PUSH [tag] 588\t\t\t\n      PUSH 1A\t\t\t\n      DUP4 \t\t\t\n      PUSH [tag] 553\t\t\t\n      JUMP [in]\t\t\t\n    tag 588\t\t\t\n      JUMPDEST \t\t\t\n      SWAP2 \t\t\t\n      POP \t\t\t\n      PUSH [tag] 589\t\t\t\n      DUP3 \t\t\t\n      PUSH [tag] 590\t\t\t\n      JUMP [in]\t\t\t\n    tag 589\t\t\t\n      JUMPDEST \t\t\t\n      PUSH 20\t\t\t\n      DUP3 \t\t\t\n      ADD \t\t\t\n      SWAP1 \t\t\t\n      POP \t\t\t\n      SWAP2 \t\t\t\n      SWAP1 \t\t\t\n      POP \t\t\t\n      JUMP [out]\t\t\t\n    tag 591\t\t\t\n      JUMPDEST \t\t\t\n      PUSH 0\t\t\t\n      PUSH [tag] 593\t\t\t\n      PUSH 10\t\t\t\n      DUP4 \t\t\t\n      PUSH [tag] 553\t\t\t\n      JUMP [in]\t\t\t\n    tag 593\t\t\t\n      JUMPDEST \t\t\t\n      SWAP2 \t\t\t\n      POP \t\t\t\n      PUSH [tag] 594\t\t\t\n      DUP3 \t\t\t\n      PUSH [tag] 595\t\t\t\n      JUMP [in]\t\t\t\n    tag 594\t\t\t\n      JUMPDEST \t\t\t\n      PUSH 20\t\t\t\n      DUP3 \t\t\t\n      ADD \t\t\t\n      SWAP1 \t\t\t\n      POP \t\t\t\n      SWAP2 \t\t\t\n      SWAP1 \t\t\t\n      POP \t\t\t\n      JUMP [out]\t\t\t\n    tag 596\t\t\t\n      JUMPDEST \t\t\t\n      PUSH 0\t\t\t\n      PUSH [tag] 598\t\t\t\n      PUSH 34\t\t\t\n      DUP4 \t\t\t\n      PUSH [tag] 553\t\t\t\n      JUMP [in]\t\t\t\n    tag 598\t\t\t\n      JUMPDEST \t\t\t\n      SWAP2 \t\t\t\n      POP \t\t\t\n      PUSH [tag] 599\t\t\t\n      DUP3 \t\t\t\n      PUSH [tag] 600\t\t\t\n      JUMP [in]\t\t\t\n    tag 599\t\t\t\n      JUMPDEST \t\t\t\n      PUSH 40\t\t\t\n      DUP3 \t\t\t\n      ADD \t\t\t\n      SWAP1 \t\t\t\n      POP \t\t\t\n      SWAP2 \t\t\t\n      SWAP1 \t\t\t\n      POP \t\t\t\n      JUMP [out]\t\t\t\n    tag 601\t\t\t\n      JUMPDEST \t\t\t\n      PUSH 0\t\t\t\n      PUSH [tag] 603\t\t\t\n      PUSH 20\t\t\t\n      DUP4 \t\t\t\n      PUSH [tag] 553\t\t\t\n      JUMP [in]\t\t\t\n    tag 603\t\t\t\n      JUMPDEST \t\t\t\n      SWAP2 \t\t\t\n      POP \t\t\t\n      PUSH [tag] 604\t\t\t\n      DUP3 \t\t\t\n      PUSH [tag] 605\t\t\t\n      JUMP [in]\t\t\t\n    tag 604\t\t\t\n      JUMPDEST \t\t\t\n      PUSH 20\t\t\t\n      DUP3 \t\t\t\n      ADD \t\t\t\n      SWAP1 \t\t\t\n      POP \t\t\t\n      SWAP2 \t\t\t\n      SWAP1 \t\t\t\n      POP \t\t\t\n      JUMP [out]\t\t\t\n    tag 606\t\t\t\n      JUMPDEST \t\t\t\n      PUSH 0\t\t\t\n      PUSH [tag] 608\t\t\t\n      PUSH 1F\t\t\t\n      DUP4 \t\t\t\n      PUSH [tag] 553\t\t\t\n      JUMP [in]\t\t\t\n    tag 608\t\t\t\n      JUMPDEST \t\t\t\n      SWAP2 \t\t\t\n      POP \t\t\t\n      PUSH [tag] 609\t\t\t\n      DUP3 \t\t\t\n      PUSH [tag] 610\t\t\t\n      JUMP [in]\t\t\t\n    tag 609\t\t\t\n      JUMPDEST \t\t\t\n      PUSH 20\t\t\t\n      DUP3 \t\t\t\n      ADD \t\t\t\n      SWAP1 \t\t\t\n      POP \t\t\t\n      SWAP2 \t\t\t\n      SWAP1 \t\t\t\n      POP \t\t\t\n      JUMP [out]\t\t\t\n    tag 611\t\t\t\n      JUMPDEST \t\t\t\n      PUSH 0\t\t\t\n      PUSH [tag] 613\t\t\t\n      PUSH 2D\t\t\t\n      DUP4 \t\t\t\n      PUSH [tag] 553\t\t\t\n      JUMP [in]\t\t\t\n    tag 613\t\t\t\n      JUMPDEST \t\t\t\n      SWAP2 \t\t\t\n      POP \t\t\t\n      PUSH [tag] 614\t\t\t\n      DUP3 \t\t\t\n      PUSH [tag] 615\t\t\t\n      JUMP [in]\t\t\t\n    tag 614\t\t\t\n      JUMPDEST \t\t\t\n      PUSH 40\t\t\t\n      DUP3 \t\t\t\n      ADD \t\t\t\n      SWAP1 \t\t\t\n      POP \t\t\t\n      SWAP2 \t\t\t\n      SWAP1 \t\t\t\n      POP \t\t\t\n      JUMP [out]\t\t\t\n    tag 616\t\t\t\n      JUMPDEST \t\t\t\n      PUSH 0\t\t\t\n      PUSH [tag] 618\t\t\t\n      PUSH 26\t\t\t\n      DUP4 \t\t\t\n      PUSH [tag] 553\t\t\t\n      JUMP [in]\t\t\t\n    tag 618\t\t\t\n      JUMPDEST \t\t\t\n      SWAP2 \t\t\t\n      POP \t\t\t\n      PUSH [tag] 619\t\t\t\n      DUP3 \t\t\t\n      PUSH [tag] 620\t\t\t\n      JUMP [in]\t\t\t\n    tag 619\t\t\t\n      JUMPDEST \t\t\t\n      PUSH 40\t\t\t\n      DUP3 \t\t\t\n      ADD \t\t\t\n      SWAP1 \t\t\t\n      POP \t\t\t\n      SWAP2 \t\t\t\n      SWAP1 \t\t\t\n      POP \t\t\t\n      JUMP [out]\t\t\t\n    tag 621\t\t\t\n      JUMPDEST \t\t\t\n      PUSH 0\t\t\t\n      PUSH [tag] 623\t\t\t\n      PUSH 29\t\t\t\n      DUP4 \t\t\t\n      PUSH [tag] 553\t\t\t\n      JUMP [in]\t\t\t\n    tag 623\t\t\t\n      JUMPDEST \t\t\t\n      SWAP2 \t\t\t\n      POP \t\t\t\n      PUSH [tag] 624\t\t\t\n      DUP3 \t\t\t\n      PUSH [tag] 625\t\t\t\n      JUMP [in]\t\t\t\n    tag 624\t\t\t\n      JUMPDEST \t\t\t\n      PUSH 40\t\t\t\n      DUP3 \t\t\t\n      ADD \t\t\t\n      SWAP1 \t\t\t\n      POP \t\t\t\n      SWAP2 \t\t\t\n      SWAP1 \t\t\t\n      POP \t\t\t\n      JUMP [out]\t\t\t\n    tag 498\t\t\t\n      JUMPDEST \t\t\t\n      PUSH 0\t\t\t\n      PUSH 180\t\t\t\n      DUP4 \t\t\t\n      ADD \t\t\t\n      PUSH 0\t\t\t\n      DUP4 \t\t\t\n      ADD \t\t\t\n      MLOAD \t\t\t\n      PUSH [tag] 627\t\t\t\n      PUSH 0\t\t\t\n      DUP7 \t\t\t\n      ADD \t\t\t\n      DUP3 \t\t\t\n      PUSH [tag] 628\t\t\t\n      JUMP [in]\t\t\t\n    tag 627\t\t\t\n      JUMPDEST \t\t\t\n      POP \t\t\t\n      PUSH 20\t\t\t\n      DUP4 \t\t\t\n      ADD \t\t\t\n      MLOAD \t\t\t\n      DUP5 \t\t\t\n      DUP3 \t\t\t\n      SUB \t\t\t\n      PUSH 20\t\t\t\n      DUP7 \t\t\t\n      ADD \t\t\t\n      MSTORE \t\t\t\n      PUSH [tag] 629\t\t\t\n      DUP3 \t\t\t\n      DUP3 \t\t\t\n      PUSH [tag] 539\t\t\t\n      JUMP [in]\t\t\t\n    tag 629\t\t\t\n      JUMPDEST \t\t\t\n      SWAP2 \t\t\t\n      POP \t\t\t\n      POP \t\t\t\n      PUSH 40\t\t\t\n      DUP4 \t\t\t\n      ADD \t\t\t\n      MLOAD \t\t\t\n      DUP5 \t\t\t\n      DUP3 \t\t\t\n      SUB \t\t\t\n      PUSH 40\t\t\t\n      DUP7 \t\t\t\n      ADD \t\t\t\n      MSTORE \t\t\t\n      PUSH [tag] 630\t\t\t\n      DUP3 \t\t\t\n      DUP3 \t\t\t\n      PUSH [tag] 539\t\t\t\n      JUMP [in]\t\t\t\n    tag 630\t\t\t\n      JUMPDEST \t\t\t\n      SWAP2 \t\t\t\n      POP \t\t\t\n      POP \t\t\t\n      PUSH 60\t\t\t\n      DUP4 \t\t\t\n      ADD \t\t\t\n      MLOAD \t\t\t\n      DUP5 \t\t\t\n      DUP3 \t\t\t\n      SUB \t\t\t\n      PUSH 60\t\t\t\n      DUP7 \t\t\t\n      ADD \t\t\t\n      MSTORE \t\t\t\n      PUSH [tag] 631\t\t\t\n      DUP3 \t\t\t\n      DUP3 \t\t\t\n      PUSH [tag] 539\t\t\t\n      JUMP [in]\t\t\t\n    tag 631\t\t\t\n      JUMPDEST \t\t\t\n      SWAP2 \t\t\t\n      POP \t\t\t\n      POP \t\t\t\n      PUSH 80\t\t\t\n      DUP4 \t\t\t\n      ADD \t\t\t\n      MLOAD \t\t\t\n      PUSH [tag] 632\t\t\t\n      PUSH 80\t\t\t\n      DUP7 \t\t\t\n      ADD \t\t\t\n      DUP3 \t\t\t\n      PUSH [tag] 499\t\t\t\n      JUMP [in]\t\t\t\n    tag 632\t\t\t\n      JUMPDEST \t\t\t\n      POP \t\t\t\n      PUSH A0\t\t\t\n      DUP4 \t\t\t\n      ADD \t\t\t\n      MLOAD \t\t\t\n      PUSH [tag] 633\t\t\t\n      PUSH A0\t\t\t\n      DUP7 \t\t\t\n      ADD \t\t\t\n      DUP3 \t\t\t\n      PUSH [tag] 628\t\t\t\n      JUMP [in]\t\t\t\n    tag 633\t\t\t\n      JUMPDEST \t\t\t\n      POP \t\t\t\n      PUSH C0\t\t\t\n      DUP4 \t\t\t\n      ADD \t\t\t\n      MLOAD \t\t\t\n      PUSH [tag] 634\t\t\t\n      PUSH C0\t\t\t\n      DUP7 \t\t\t\n      ADD \t\t\t\n      DUP3 \t\t\t\n      PUSH [tag] 628\t\t\t\n      JUMP [in]\t\t\t\n    tag 634\t\t\t\n      JUMPDEST \t\t\t\n      POP \t\t\t\n      PUSH E0\t\t\t\n      DUP4 \t\t\t\n      ADD \t\t\t\n      MLOAD \t\t\t\n      PUSH [tag] 635\t\t\t\n      PUSH E0\t\t\t\n      DUP7 \t\t\t\n      ADD \t\t\t\n      DUP3 \t\t\t\n      PUSH [tag] 628\t\t\t\n      JUMP [in]\t\t\t\n    tag 635\t\t\t\n      JUMPDEST \t\t\t\n      POP \t\t\t\n      PUSH 100\t\t\t\n      DUP4 \t\t\t\n      ADD \t\t\t\n      MLOAD \t\t\t\n      PUSH [tag] 636\t\t\t\n      PUSH 100\t\t\t\n      DUP7 \t\t\t\n      ADD \t\t\t\n      DUP3 \t\t\t\n      PUSH [tag] 628\t\t\t\n      JUMP [in]\t\t\t\n    tag 636\t\t\t\n      JUMPDEST \t\t\t\n      POP \t\t\t\n      PUSH 120\t\t\t\n      DUP4 \t\t\t\n      ADD \t\t\t\n      MLOAD \t\t\t\n      PUSH [tag] 637\t\t\t\n      PUSH 120\t\t\t\n      DUP7 \t\t\t\n      ADD \t\t\t\n      DUP3 \t\t\t\n      PUSH [tag] 628\t\t\t\n      JUMP [in]\t\t\t\n    tag 637\t\t\t\n      JUMPDEST \t\t\t\n      POP \t\t\t\n      PUSH 140\t\t\t\n      DUP4 \t\t\t\n      ADD \t\t\t\n      MLOAD \t\t\t\n      DUP5 \t\t\t\n      DUP3 \t\t\t\n      SUB \t\t\t\n      PUSH 140\t\t\t\n      DUP7 \t\t\t\n      ADD \t\t\t\n      MSTORE \t\t\t\n      PUSH [tag] 638\t\t\t\n      DUP3 \t\t\t\n      DUP3 \t\t\t\n      PUSH [tag] 539\t\t\t\n      JUMP [in]\t\t\t\n    tag 638\t\t\t\n      JUMPDEST \t\t\t\n      SWAP2 \t\t\t\n      POP \t\t\t\n      POP \t\t\t\n      PUSH 160\t\t\t\n      DUP4 \t\t\t\n      ADD \t\t\t\n      MLOAD \t\t\t\n      PUSH [tag] 639\t\t\t\n      PUSH 160\t\t\t\n      DUP7 \t\t\t\n      ADD \t\t\t\n      DUP3 \t\t\t\n      PUSH [tag] 520\t\t\t\n      JUMP [in]\t\t\t\n    tag 639\t\t\t\n      JUMPDEST \t\t\t\n      POP \t\t\t\n      DUP1 \t\t\t\n      SWAP2 \t\t\t\n      POP \t\t\t\n      POP \t\t\t\n      SWAP3 \t\t\t\n      SWAP2 \t\t\t\n      POP \t\t\t\n      POP \t\t\t\n      JUMP [out]\t\t\t\n    tag 640\t\t\t\n      JUMPDEST \t\t\t\n      PUSH A0\t\t\t\n      DUP3 \t\t\t\n      ADD \t\t\t\n      PUSH 0\t\t\t\n      DUP3 \t\t\t\n      ADD \t\t\t\n      MLOAD \t\t\t\n      PUSH [tag] 642\t\t\t\n      PUSH 0\t\t\t\n      DUP6 \t\t\t\n      ADD \t\t\t\n      DUP3 \t\t\t\n      PUSH [tag] 628\t\t\t\n      JUMP [in]\t\t\t\n    tag 642\t\t\t\n      JUMPDEST \t\t\t\n      POP \t\t\t\n      PUSH 20\t\t\t\n      DUP3 \t\t\t\n      ADD \t\t\t\n      MLOAD \t\t\t\n      PUSH [tag] 643\t\t\t\n      PUSH 20\t\t\t\n      DUP6 \t\t\t\n      ADD \t\t\t\n      DUP3 \t\t\t\n      PUSH [tag] 628\t\t\t\n      JUMP [in]\t\t\t\n    tag 643\t\t\t\n      JUMPDEST \t\t\t\n      POP \t\t\t\n      PUSH 40\t\t\t\n      DUP3 \t\t\t\n      ADD \t\t\t\n      MLOAD \t\t\t\n      PUSH [tag] 644\t\t\t\n      PUSH 40\t\t\t\n      DUP6 \t\t\t\n      ADD \t\t\t\n      DUP3 \t\t\t\n      PUSH [tag] 628\t\t\t\n      JUMP [in]\t\t\t\n    tag 644\t\t\t\n      JUMPDEST \t\t\t\n      POP \t\t\t\n      PUSH 60\t\t\t\n      DUP3 \t\t\t\n      ADD \t\t\t\n      MLOAD \t\t\t\n      PUSH [tag] 645\t\t\t\n      PUSH 60\t\t\t\n      DUP6 \t\t\t\n      ADD \t\t\t\n      DUP3 \t\t\t\n      PUSH [tag] 628\t\t\t\n      JUMP [in]\t\t\t\n    tag 645\t\t\t\n      JUMPDEST \t\t\t\n      POP \t\t\t\n      PUSH 80\t\t\t\n      DUP3 \t\t\t\n      ADD \t\t\t\n      MLOAD \t\t\t\n      PUSH [tag] 646\t\t\t\n      PUSH 80\t\t\t\n      DUP6 \t\t\t\n      ADD \t\t\t\n      DUP3 \t\t\t\n      PUSH [tag] 628\t\t\t\n      JUMP [in]\t\t\t\n    tag 646\t\t\t\n      JUMPDEST \t\t\t\n      POP \t\t\t\n      POP \t\t\t\n      POP \t\t\t\n      POP \t\t\t\n      JUMP [out]\t\t\t\n    tag 628\t\t\t\n      JUMPDEST \t\t\t\n      PUSH [tag] 648\t\t\t\n      DUP2 \t\t\t\n      PUSH [tag] 649\t\t\t\n      JUMP [in]\t\t\t\n    tag 648\t\t\t\n      JUMPDEST \t\t\t\n      DUP3 \t\t\t\n      MSTORE \t\t\t\n      POP \t\t\t\n      POP \t\t\t\n      JUMP [out]\t\t\t\n    tag 650\t\t\t\n      JUMPDEST \t\t\t\n      PUSH [tag] 652\t\t\t\n      DUP2 \t\t\t\n      PUSH [tag] 649\t\t\t\n      JUMP [in]\t\t\t\n    tag 652\t\t\t\n      JUMPDEST \t\t\t\n      DUP3 \t\t\t\n      MSTORE \t\t\t\n      POP \t\t\t\n      POP \t\t\t\n      JUMP [out]\t\t\t\n    tag 50\t\t\t\n      JUMPDEST \t\t\t\n      PUSH 0\t\t\t\n      PUSH 20\t\t\t\n      DUP3 \t\t\t\n      ADD \t\t\t\n      SWAP1 \t\t\t\n      POP \t\t\t\n      PUSH [tag] 654\t\t\t\n      PUSH 0\t\t\t\n      DUP4 \t\t\t\n      ADD \t\t\t\n      DUP5 \t\t\t\n      PUSH [tag] 503\t\t\t\n      JUMP [in]\t\t\t\n    tag 654\t\t\t\n      JUMPDEST \t\t\t\n      SWAP3 \t\t\t\n      SWAP2 \t\t\t\n      POP \t\t\t\n      POP \t\t\t\n      JUMP [out]\t\t\t\n    tag 301\t\t\t\n      JUMPDEST \t\t\t\n      PUSH 0\t\t\t\n      PUSH 40\t\t\t\n      DUP3 \t\t\t\n      ADD \t\t\t\n      SWAP1 \t\t\t\n      POP \t\t\t\n      PUSH [tag] 656\t\t\t\n      PUSH 0\t\t\t\n      DUP4 \t\t\t\n      ADD \t\t\t\n      DUP6 \t\t\t\n      PUSH [tag] 503\t\t\t\n      JUMP [in]\t\t\t\n    tag 656\t\t\t\n      JUMPDEST \t\t\t\n      PUSH [tag] 657\t\t\t\n      PUSH 20\t\t\t\n      DUP4 \t\t\t\n      ADD \t\t\t\n      DUP5 \t\t\t\n      PUSH [tag] 503\t\t\t\n      JUMP [in]\t\t\t\n    tag 657\t\t\t\n      JUMPDEST \t\t\t\n      SWAP4 \t\t\t\n      SWAP3 \t\t\t\n      POP \t\t\t\n      POP \t\t\t\n      POP \t\t\t\n      JUMP [out]\t\t\t\n    tag 310\t\t\t\n      JUMPDEST \t\t\t\n      PUSH 0\t\t\t\n      PUSH 60\t\t\t\n      DUP3 \t\t\t\n      ADD \t\t\t\n      SWAP1 \t\t\t\n      POP \t\t\t\n      PUSH [tag] 659\t\t\t\n      PUSH 0\t\t\t\n      DUP4 \t\t\t\n      ADD \t\t\t\n      DUP7 \t\t\t\n      PUSH [tag] 503\t\t\t\n      JUMP [in]\t\t\t\n    tag 659\t\t\t\n      JUMPDEST \t\t\t\n      PUSH [tag] 660\t\t\t\n      PUSH 20\t\t\t\n      DUP4 \t\t\t\n      ADD \t\t\t\n      DUP6 \t\t\t\n      PUSH [tag] 503\t\t\t\n      JUMP [in]\t\t\t\n    tag 660\t\t\t\n      JUMPDEST \t\t\t\n      PUSH [tag] 661\t\t\t\n      PUSH 40\t\t\t\n      DUP4 \t\t\t\n      ADD \t\t\t\n      DUP5 \t\t\t\n      PUSH [tag] 650\t\t\t\n      JUMP [in]\t\t\t\n    tag 661\t\t\t\n      JUMPDEST \t\t\t\n      SWAP5 \t\t\t\n      SWAP4 \t\t\t\n      POP \t\t\t\n      POP \t\t\t\n      POP \t\t\t\n      POP \t\t\t\n      JUMP [out]\t\t\t\n    tag 228\t\t\t\n      JUMPDEST \t\t\t\n      PUSH 0\t\t\t\n      PUSH 40\t\t\t\n      DUP3 \t\t\t\n      ADD \t\t\t\n      SWAP1 \t\t\t\n      POP \t\t\t\n      PUSH [tag] 663\t\t\t\n      PUSH 0\t\t\t\n      DUP4 \t\t\t\n      ADD \t\t\t\n      DUP6 \t\t\t\n      PUSH [tag] 503\t\t\t\n      JUMP [in]\t\t\t\n    tag 663\t\t\t\n      JUMPDEST \t\t\t\n      PUSH [tag] 664\t\t\t\n      PUSH 20\t\t\t\n      DUP4 \t\t\t\n      ADD \t\t\t\n      DUP5 \t\t\t\n      PUSH [tag] 650\t\t\t\n      JUMP [in]\t\t\t\n    tag 664\t\t\t\n      JUMPDEST \t\t\t\n      SWAP4 \t\t\t\n      SWAP3 \t\t\t\n      POP \t\t\t\n      POP \t\t\t\n      POP \t\t\t\n      JUMP [out]\t\t\t\n    tag 120\t\t\t\n      JUMPDEST \t\t\t\n      PUSH 0\t\t\t\n      PUSH 20\t\t\t\n      DUP3 \t\t\t\n      ADD \t\t\t\n      SWAP1 \t\t\t\n      POP \t\t\t\n      DUP2 \t\t\t\n      DUP2 \t\t\t\n      SUB \t\t\t\n      PUSH 0\t\t\t\n      DUP4 \t\t\t\n      ADD \t\t\t\n      MSTORE \t\t\t\n      PUSH [tag] 666\t\t\t\n      DUP2 \t\t\t\n      DUP5 \t\t\t\n      PUSH [tag] 506\t\t\t\n      JUMP [in]\t\t\t\n    tag 666\t\t\t\n      JUMPDEST \t\t\t\n      SWAP1 \t\t\t\n      POP \t\t\t\n      SWAP3 \t\t\t\n      SWAP2 \t\t\t\n      POP \t\t\t\n      POP \t\t\t\n      JUMP [out]\t\t\t\n    tag 57\t\t\t\n      JUMPDEST \t\t\t\n      PUSH 0\t\t\t\n      PUSH 20\t\t\t\n      DUP3 \t\t\t\n      ADD \t\t\t\n      SWAP1 \t\t\t\n      POP \t\t\t\n      PUSH [tag] 668\t\t\t\n      PUSH 0\t\t\t\n      DUP4 \t\t\t\n      ADD \t\t\t\n      DUP5 \t\t\t\n      PUSH [tag] 524\t\t\t\n      JUMP [in]\t\t\t\n    tag 668\t\t\t\n      JUMPDEST \t\t\t\n      SWAP3 \t\t\t\n      SWAP2 \t\t\t\n      POP \t\t\t\n      POP \t\t\t\n      JUMP [out]\t\t\t\n    tag 125\t\t\t\n      JUMPDEST \t\t\t\n      PUSH 0\t\t\t\n      PUSH 20\t\t\t\n      DUP3 \t\t\t\n      ADD \t\t\t\n      SWAP1 \t\t\t\n      POP \t\t\t\n      PUSH [tag] 670\t\t\t\n      PUSH 0\t\t\t\n      DUP4 \t\t\t\n      ADD \t\t\t\n      DUP5 \t\t\t\n      PUSH [tag] 527\t\t\t\n      JUMP [in]\t\t\t\n    tag 670\t\t\t\n      JUMPDEST \t\t\t\n      SWAP3 \t\t\t\n      SWAP2 \t\t\t\n      POP \t\t\t\n      POP \t\t\t\n      JUMP [out]\t\t\t\n    tag 106\t\t\t\n      JUMPDEST \t\t\t\n      PUSH 0\t\t\t\n      PUSH 20\t\t\t\n      DUP3 \t\t\t\n      ADD \t\t\t\n      SWAP1 \t\t\t\n      POP \t\t\t\n      PUSH [tag] 672\t\t\t\n      PUSH 0\t\t\t\n      DUP4 \t\t\t\n      ADD \t\t\t\n      DUP5 \t\t\t\n      PUSH [tag] 531\t\t\t\n      JUMP [in]\t\t\t\n    tag 672\t\t\t\n      JUMPDEST \t\t\t\n      SWAP3 \t\t\t\n      SWAP2 \t\t\t\n      POP \t\t\t\n      POP \t\t\t\n      JUMP [out]\t\t\t\n    tag 94\t\t\t\n      JUMPDEST \t\t\t\n      PUSH 0\t\t\t\n      PUSH 20\t\t\t\n      DUP3 \t\t\t\n      ADD \t\t\t\n      SWAP1 \t\t\t\n      POP \t\t\t\n      PUSH [tag] 674\t\t\t\n      PUSH 0\t\t\t\n      DUP4 \t\t\t\n      ADD \t\t\t\n      DUP5 \t\t\t\n      PUSH [tag] 535\t\t\t\n      JUMP [in]\t\t\t\n    tag 674\t\t\t\n      JUMPDEST \t\t\t\n      SWAP3 \t\t\t\n      SWAP2 \t\t\t\n      POP \t\t\t\n      POP \t\t\t\n      JUMP [out]\t\t\t\n    tag 191\t\t\t\n      JUMPDEST \t\t\t\n      PUSH 0\t\t\t\n      PUSH 20\t\t\t\n      DUP3 \t\t\t\n      ADD \t\t\t\n      SWAP1 \t\t\t\n      POP \t\t\t\n      DUP2 \t\t\t\n      DUP2 \t\t\t\n      SUB \t\t\t\n      PUSH 0\t\t\t\n      DUP4 \t\t\t\n      ADD \t\t\t\n      MSTORE \t\t\t\n      PUSH [tag] 676\t\t\t\n      DUP2 \t\t\t\n      PUSH [tag] 556\t\t\t\n      JUMP [in]\t\t\t\n    tag 676\t\t\t\n      JUMPDEST \t\t\t\n      SWAP1 \t\t\t\n      POP \t\t\t\n      SWAP2 \t\t\t\n      SWAP1 \t\t\t\n      POP \t\t\t\n      JUMP [out]\t\t\t\n    tag 188\t\t\t\n      JUMPDEST \t\t\t\n      PUSH 0\t\t\t\n      PUSH 20\t\t\t\n      DUP3 \t\t\t\n      ADD \t\t\t\n      SWAP1 \t\t\t\n      POP \t\t\t\n      DUP2 \t\t\t\n      DUP2 \t\t\t\n      SUB \t\t\t\n      PUSH 0\t\t\t\n      DUP4 \t\t\t\n      ADD \t\t\t\n      MSTORE \t\t\t\n      PUSH [tag] 678\t\t\t\n      DUP2 \t\t\t\n      PUSH [tag] 561\t\t\t\n      JUMP [in]\t\t\t\n    tag 678\t\t\t\n      JUMPDEST \t\t\t\n      SWAP1 \t\t\t\n      POP \t\t\t\n      SWAP2 \t\t\t\n      SWAP1 \t\t\t\n      POP \t\t\t\n      JUMP [out]\t\t\t\n    tag 224\t\t\t\n      JUMPDEST \t\t\t\n      PUSH 0\t\t\t\n      PUSH 20\t\t\t\n      DUP3 \t\t\t\n      ADD \t\t\t\n      SWAP1 \t\t\t\n      POP \t\t\t\n      DUP2 \t\t\t\n      DUP2 \t\t\t\n      SUB \t\t\t\n      PUSH 0\t\t\t\n      DUP4 \t\t\t\n      ADD \t\t\t\n      MSTORE \t\t\t\n      PUSH [tag] 680\t\t\t\n      DUP2 \t\t\t\n      PUSH [tag] 566\t\t\t\n      JUMP [in]\t\t\t\n    tag 680\t\t\t\n      JUMPDEST \t\t\t\n      SWAP1 \t\t\t\n      POP \t\t\t\n      SWAP2 \t\t\t\n      SWAP1 \t\t\t\n      POP \t\t\t\n      JUMP [out]\t\t\t\n    tag 384\t\t\t\n      JUMPDEST \t\t\t\n      PUSH 0\t\t\t\n      PUSH 20\t\t\t\n      DUP3 \t\t\t\n      ADD \t\t\t\n      SWAP1 \t\t\t\n      POP \t\t\t\n      DUP2 \t\t\t\n      DUP2 \t\t\t\n      SUB \t\t\t\n      PUSH 0\t\t\t\n      DUP4 \t\t\t\n      ADD \t\t\t\n      MSTORE \t\t\t\n      PUSH [tag] 682\t\t\t\n      DUP2 \t\t\t\n      PUSH [tag] 571\t\t\t\n      JUMP [in]\t\t\t\n    tag 682\t\t\t\n      JUMPDEST \t\t\t\n      SWAP1 \t\t\t\n      POP \t\t\t\n      SWAP2 \t\t\t\n      SWAP1 \t\t\t\n      POP \t\t\t\n      JUMP [out]\t\t\t\n    tag 248\t\t\t\n      JUMPDEST \t\t\t\n      PUSH 0\t\t\t\n      PUSH 20\t\t\t\n      DUP3 \t\t\t\n      ADD \t\t\t\n      SWAP1 \t\t\t\n      POP \t\t\t\n      DUP2 \t\t\t\n      DUP2 \t\t\t\n      SUB \t\t\t\n      PUSH 0\t\t\t\n      DUP4 \t\t\t\n      ADD \t\t\t\n      MSTORE \t\t\t\n      PUSH [tag] 684\t\t\t\n      DUP2 \t\t\t\n      PUSH [tag] 576\t\t\t\n      JUMP [in]\t\t\t\n    tag 684\t\t\t\n      JUMPDEST \t\t\t\n      SWAP1 \t\t\t\n      POP \t\t\t\n      SWAP2 \t\t\t\n      SWAP1 \t\t\t\n      POP \t\t\t\n      JUMP [out]\t\t\t\n    tag 308\t\t\t\n      JUMPDEST \t\t\t\n      PUSH 0\t\t\t\n      PUSH 20\t\t\t\n      DUP3 \t\t\t\n      ADD \t\t\t\n      SWAP1 \t\t\t\n      POP \t\t\t\n      DUP2 \t\t\t\n      DUP2 \t\t\t\n      SUB \t\t\t\n      PUSH 0\t\t\t\n      DUP4 \t\t\t\n      ADD \t\t\t\n      MSTORE \t\t\t\n      PUSH [tag] 686\t\t\t\n      DUP2 \t\t\t\n      PUSH [tag] 581\t\t\t\n      JUMP [in]\t\t\t\n    tag 686\t\t\t\n      JUMPDEST \t\t\t\n      SWAP1 \t\t\t\n      POP \t\t\t\n      SWAP2 \t\t\t\n      SWAP1 \t\t\t\n      POP \t\t\t\n      JUMP [out]\t\t\t\n    tag 179\t\t\t\n      JUMPDEST \t\t\t\n      PUSH 0\t\t\t\n      PUSH 20\t\t\t\n      DUP3 \t\t\t\n      ADD \t\t\t\n      SWAP1 \t\t\t\n      POP \t\t\t\n      DUP2 \t\t\t\n      DUP2 \t\t\t\n      SUB \t\t\t\n      PUSH 0\t\t\t\n      DUP4 \t\t\t\n      ADD \t\t\t\n      MSTORE \t\t\t\n      PUSH [tag] 688\t\t\t\n      DUP2 \t\t\t\n      PUSH [tag] 586\t\t\t\n      JUMP [in]\t\t\t\n    tag 688\t\t\t\n      JUMPDEST \t\t\t\n      SWAP1 \t\t\t\n      POP \t\t\t\n      SWAP2 \t\t\t\n      SWAP1 \t\t\t\n      POP \t\t\t\n      JUMP [out]\t\t\t\n    tag 216\t\t\t\n      JUMPDEST \t\t\t\n      PUSH 0\t\t\t\n      PUSH 20\t\t\t\n      DUP3 \t\t\t\n      ADD \t\t\t\n      SWAP1 \t\t\t\n      POP \t\t\t\n      DUP2 \t\t\t\n      DUP2 \t\t\t\n      SUB \t\t\t\n      PUSH 0\t\t\t\n      DUP4 \t\t\t\n      ADD \t\t\t\n      MSTORE \t\t\t\n      PUSH [tag] 690\t\t\t\n      DUP2 \t\t\t\n      PUSH [tag] 591\t\t\t\n      JUMP [in]\t\t\t\n    tag 690\t\t\t\n      JUMPDEST \t\t\t\n      SWAP1 \t\t\t\n      POP \t\t\t\n      SWAP2 \t\t\t\n      SWAP1 \t\t\t\n      POP \t\t\t\n      JUMP [out]\t\t\t\n    tag 194\t\t\t\n      JUMPDEST \t\t\t\n      PUSH 0\t\t\t\n      PUSH 20\t\t\t\n      DUP3 \t\t\t\n      ADD \t\t\t\n      SWAP1 \t\t\t\n      POP \t\t\t\n      DUP2 \t\t\t\n      DUP2 \t\t\t\n      SUB \t\t\t\n      PUSH 0\t\t\t\n      DUP4 \t\t\t\n      ADD \t\t\t\n      MSTORE \t\t\t\n      PUSH [tag] 692\t\t\t\n      DUP2 \t\t\t\n      PUSH [tag] 596\t\t\t\n      JUMP [in]\t\t\t\n    tag 692\t\t\t\n      JUMPDEST \t\t\t\n      SWAP1 \t\t\t\n      POP \t\t\t\n      SWAP2 \t\t\t\n      SWAP1 \t\t\t\n      POP \t\t\t\n      JUMP [out]\t\t\t\n    tag 393\t\t\t\n      JUMPDEST \t\t\t\n      PUSH 0\t\t\t\n      PUSH 20\t\t\t\n      DUP3 \t\t\t\n      ADD \t\t\t\n      SWAP1 \t\t\t\n      POP \t\t\t\n      DUP2 \t\t\t\n      DUP2 \t\t\t\n      SUB \t\t\t\n      PUSH 0\t\t\t\n      DUP4 \t\t\t\n      ADD \t\t\t\n      MSTORE \t\t\t\n      PUSH [tag] 694\t\t\t\n      DUP2 \t\t\t\n      PUSH [tag] 601\t\t\t\n      JUMP [in]\t\t\t\n    tag 694\t\t\t\n      JUMPDEST \t\t\t\n      SWAP1 \t\t\t\n      POP \t\t\t\n      SWAP2 \t\t\t\n      SWAP1 \t\t\t\n      POP \t\t\t\n      JUMP [out]\t\t\t\n    tag 271\t\t\t\n      JUMPDEST \t\t\t\n      PUSH 0\t\t\t\n      PUSH 20\t\t\t\n      DUP3 \t\t\t\n      ADD \t\t\t\n      SWAP1 \t\t\t\n      POP \t\t\t\n      DUP2 \t\t\t\n      DUP2 \t\t\t\n      SUB \t\t\t\n      PUSH 0\t\t\t\n      DUP4 \t\t\t\n      ADD \t\t\t\n      MSTORE \t\t\t\n      PUSH [tag] 696\t\t\t\n      DUP2 \t\t\t\n      PUSH [tag] 606\t\t\t\n      JUMP [in]\t\t\t\n    tag 696\t\t\t\n      JUMPDEST \t\t\t\n      SWAP1 \t\t\t\n      POP \t\t\t\n      SWAP2 \t\t\t\n      SWAP1 \t\t\t\n      POP \t\t\t\n      JUMP [out]\t\t\t\n    tag 185\t\t\t\n      JUMPDEST \t\t\t\n      PUSH 0\t\t\t\n      PUSH 20\t\t\t\n      DUP3 \t\t\t\n      ADD \t\t\t\n      SWAP1 \t\t\t\n      POP \t\t\t\n      DUP2 \t\t\t\n      DUP2 \t\t\t\n      SUB \t\t\t\n      PUSH 0\t\t\t\n      DUP4 \t\t\t\n      ADD \t\t\t\n      MSTORE \t\t\t\n      PUSH [tag] 698\t\t\t\n      DUP2 \t\t\t\n      PUSH [tag] 611\t\t\t\n      JUMP [in]\t\t\t\n    tag 698\t\t\t\n      JUMPDEST \t\t\t\n      SWAP1 \t\t\t\n      POP \t\t\t\n      SWAP2 \t\t\t\n      SWAP1 \t\t\t\n      POP \t\t\t\n      JUMP [out]\t\t\t\n    tag 182\t\t\t\n      JUMPDEST \t\t\t\n      PUSH 0\t\t\t\n      PUSH 20\t\t\t\n      DUP3 \t\t\t\n      ADD \t\t\t\n      SWAP1 \t\t\t\n      POP \t\t\t\n      DUP2 \t\t\t\n      DUP2 \t\t\t\n      SUB \t\t\t\n      PUSH 0\t\t\t\n      DUP4 \t\t\t\n      ADD \t\t\t\n      MSTORE \t\t\t\n      PUSH [tag] 700\t\t\t\n      DUP2 \t\t\t\n      PUSH [tag] 616\t\t\t\n      JUMP [in]\t\t\t\n    tag 700\t\t\t\n      JUMPDEST \t\t\t\n      SWAP1 \t\t\t\n      POP \t\t\t\n      SWAP2 \t\t\t\n      SWAP1 \t\t\t\n      POP \t\t\t\n      JUMP [out]\t\t\t\n    tag 245\t\t\t\n      JUMPDEST \t\t\t\n      PUSH 0\t\t\t\n      PUSH 20\t\t\t\n      DUP3 \t\t\t\n      ADD \t\t\t\n      SWAP1 \t\t\t\n      POP \t\t\t\n      DUP2 \t\t\t\n      DUP2 \t\t\t\n      SUB \t\t\t\n      PUSH 0\t\t\t\n      DUP4 \t\t\t\n      ADD \t\t\t\n      MSTORE \t\t\t\n      PUSH [tag] 702\t\t\t\n      DUP2 \t\t\t\n      PUSH [tag] 621\t\t\t\n      JUMP [in]\t\t\t\n    tag 702\t\t\t\n      JUMPDEST \t\t\t\n      SWAP1 \t\t\t\n      POP \t\t\t\n      SWAP2 \t\t\t\n      SWAP1 \t\t\t\n      POP \t\t\t\n      JUMP [out]\t\t\t\n    tag 77\t\t\t\n      JUMPDEST \t\t\t\n      PUSH 0\t\t\t\n      PUSH A0\t\t\t\n      DUP3 \t\t\t\n      ADD \t\t\t\n      SWAP1 \t\t\t\n      POP \t\t\t\n      PUSH [tag] 704\t\t\t\n      PUSH 0\t\t\t\n      DUP4 \t\t\t\n      ADD \t\t\t\n      DUP5 \t\t\t\n      PUSH [tag] 640\t\t\t\n      JUMP [in]\t\t\t\n    tag 704\t\t\t\n      JUMPDEST \t\t\t\n      SWAP3 \t\t\t\n      SWAP2 \t\t\t\n      POP \t\t\t\n      POP \t\t\t\n      JUMP [out]\t\t\t\n    tag 64\t\t\t\n      JUMPDEST \t\t\t\n      PUSH 0\t\t\t\n      PUSH 20\t\t\t\n      DUP3 \t\t\t\n      ADD \t\t\t\n      SWAP1 \t\t\t\n      POP \t\t\t\n      PUSH [tag] 706\t\t\t\n      PUSH 0\t\t\t\n      DUP4 \t\t\t\n      ADD \t\t\t\n      DUP5 \t\t\t\n      PUSH [tag] 650\t\t\t\n      JUMP [in]\t\t\t\n    tag 706\t\t\t\n      JUMPDEST \t\t\t\n      SWAP3 \t\t\t\n      SWAP2 \t\t\t\n      POP \t\t\t\n      POP \t\t\t\n      JUMP [out]\t\t\t\n    tag 37\t\t\t\n      JUMPDEST \t\t\t\n      PUSH 0\t\t\t\n      PUSH 180\t\t\t\n      DUP3 \t\t\t\n      ADD \t\t\t\n      SWAP1 \t\t\t\n      POP \t\t\t\n      PUSH [tag] 708\t\t\t\n      PUSH 0\t\t\t\n      DUP4 \t\t\t\n      ADD \t\t\t\n      DUP16 \t\t\t\n      PUSH [tag] 650\t\t\t\n      JUMP [in]\t\t\t\n    tag 708\t\t\t\n      JUMPDEST \t\t\t\n      DUP2 \t\t\t\n      DUP2 \t\t\t\n      SUB \t\t\t\n      PUSH 20\t\t\t\n      DUP4 \t\t\t\n      ADD \t\t\t\n      MSTORE \t\t\t\n      PUSH [tag] 709\t\t\t\n      DUP2 \t\t\t\n      DUP15 \t\t\t\n      PUSH [tag] 549\t\t\t\n      JUMP [in]\t\t\t\n    tag 709\t\t\t\n      JUMPDEST \t\t\t\n      SWAP1 \t\t\t\n      POP \t\t\t\n      DUP2 \t\t\t\n      DUP2 \t\t\t\n      SUB \t\t\t\n      PUSH 40\t\t\t\n      DUP4 \t\t\t\n      ADD \t\t\t\n      MSTORE \t\t\t\n      PUSH [tag] 710\t\t\t\n      DUP2 \t\t\t\n      DUP14 \t\t\t\n      PUSH [tag] 549\t\t\t\n      JUMP [in]\t\t\t\n    tag 710\t\t\t\n      JUMPDEST \t\t\t\n      SWAP1 \t\t\t\n      POP \t\t\t\n      DUP2 \t\t\t\n      DUP2 \t\t\t\n      SUB \t\t\t\n      PUSH 60\t\t\t\n      DUP4 \t\t\t\n      ADD \t\t\t\n      MSTORE \t\t\t\n      PUSH [tag] 711\t\t\t\n      DUP2 \t\t\t\n      DUP13 \t\t\t\n      PUSH [tag] 549\t\t\t\n      JUMP [in]\t\t\t\n    tag 711\t\t\t\n      JUMPDEST \t\t\t\n      SWAP1 \t\t\t\n      POP \t\t\t\n      PUSH [tag] 712\t\t\t\n      PUSH 80\t\t\t\n      DUP4 \t\t\t\n      ADD \t\t\t\n      DUP12 \t\t\t\n      PUSH [tag] 503\t\t\t\n      JUMP [in]\t\t\t\n    tag 712\t\t\t\n      JUMPDEST \t\t\t\n      PUSH [tag] 713\t\t\t\n      PUSH A0\t\t\t\n      DUP4 \t\t\t\n      ADD \t\t\t\n      DUP11 \t\t\t\n      PUSH [tag] 650\t\t\t\n      JUMP [in]\t\t\t\n    tag 713\t\t\t\n      JUMPDEST \t\t\t\n      PUSH [tag] 714\t\t\t\n      PUSH C0\t\t\t\n      DUP4 \t\t\t\n      ADD \t\t\t\n      DUP10 \t\t\t\n      PUSH [tag] 650\t\t\t\n      JUMP [in]\t\t\t\n    tag 714\t\t\t\n      JUMPDEST \t\t\t\n      PUSH [tag] 715\t\t\t\n      PUSH E0\t\t\t\n      DUP4 \t\t\t\n      ADD \t\t\t\n      DUP9 \t\t\t\n      PUSH [tag] 650\t\t\t\n      JUMP [in]\t\t\t\n    tag 715\t\t\t\n      JUMPDEST \t\t\t\n      PUSH [tag] 716\t\t\t\n      PUSH 100\t\t\t\n      DUP4 \t\t\t\n      ADD \t\t\t\n      DUP8 \t\t\t\n      PUSH [tag] 650\t\t\t\n      JUMP [in]\t\t\t\n    tag 716\t\t\t\n      JUMPDEST \t\t\t\n      PUSH [tag] 717\t\t\t\n      PUSH 120\t\t\t\n      DUP4 \t\t\t\n      ADD \t\t\t\n      DUP7 \t\t\t\n      PUSH [tag] 650\t\t\t\n      JUMP [in]\t\t\t\n    tag 717\t\t\t\n      JUMPDEST \t\t\t\n      DUP2 \t\t\t\n      DUP2 \t\t\t\n      SUB \t\t\t\n      PUSH 140\t\t\t\n      DUP4 \t\t\t\n      ADD \t\t\t\n      MSTORE \t\t\t\n      PUSH [tag] 718\t\t\t\n      DUP2 \t\t\t\n      DUP6 \t\t\t\n      PUSH [tag] 549\t\t\t\n      JUMP [in]\t\t\t\n    tag 718\t\t\t\n      JUMPDEST \t\t\t\n      SWAP1 \t\t\t\n      POP \t\t\t\n      PUSH [tag] 719\t\t\t\n      PUSH 160\t\t\t\n      DUP4 \t\t\t\n      ADD \t\t\t\n      DUP5 \t\t\t\n      PUSH [tag] 524\t\t\t\n      JUMP [in]\t\t\t\n    tag 719\t\t\t\n      JUMPDEST \t\t\t\n      SWAP14 \t\t\t\n      SWAP13 \t\t\t\n      POP \t\t\t\n      POP \t\t\t\n      POP \t\t\t\n      POP \t\t\t\n      POP \t\t\t\n      POP \t\t\t\n      POP \t\t\t\n      POP \t\t\t\n      POP \t\t\t\n      POP \t\t\t\n      POP \t\t\t\n      POP \t\t\t\n      POP \t\t\t\n      JUMP [out]\t\t\t\n    tag 143\t\t\t\n      JUMPDEST \t\t\t\n      PUSH 0\t\t\t\n      PUSH A0\t\t\t\n      DUP3 \t\t\t\n      ADD \t\t\t\n      SWAP1 \t\t\t\n      POP \t\t\t\n      PUSH [tag] 721\t\t\t\n      PUSH 0\t\t\t\n      DUP4 \t\t\t\n      ADD \t\t\t\n      DUP9 \t\t\t\n      PUSH [tag] 650\t\t\t\n      JUMP [in]\t\t\t\n    tag 721\t\t\t\n      JUMPDEST \t\t\t\n      PUSH [tag] 722\t\t\t\n      PUSH 20\t\t\t\n      DUP4 \t\t\t\n      ADD \t\t\t\n      DUP8 \t\t\t\n      PUSH [tag] 650\t\t\t\n      JUMP [in]\t\t\t\n    tag 722\t\t\t\n      JUMPDEST \t\t\t\n      PUSH [tag] 723\t\t\t\n      PUSH 40\t\t\t\n      DUP4 \t\t\t\n      ADD \t\t\t\n      DUP7 \t\t\t\n      PUSH [tag] 650\t\t\t\n      JUMP [in]\t\t\t\n    tag 723\t\t\t\n      JUMPDEST \t\t\t\n      PUSH [tag] 724\t\t\t\n      PUSH 60\t\t\t\n      DUP4 \t\t\t\n      ADD \t\t\t\n      DUP6 \t\t\t\n      PUSH [tag] 650\t\t\t\n      JUMP [in]\t\t\t\n    tag 724\t\t\t\n      JUMPDEST \t\t\t\n      PUSH [tag] 725\t\t\t\n      PUSH 80\t\t\t\n      DUP4 \t\t\t\n      ADD \t\t\t\n      DUP5 \t\t\t\n      PUSH [tag] 650\t\t\t\n      JUMP [in]\t\t\t\n    tag 725\t\t\t\n      JUMPDEST \t\t\t\n      SWAP7 \t\t\t\n      SWAP6 \t\t\t\n      POP \t\t\t\n      POP \t\t\t\n      POP \t\t\t\n      POP \t\t\t\n      POP \t\t\t\n      POP \t\t\t\n      JUMP [out]\t\t\t\n    tag 412\t\t\t\n      JUMPDEST \t\t\t\n      PUSH 0\t\t\t\n      PUSH [tag] 727\t\t\t\n      PUSH [tag] 728\t\t\t\n      JUMP [in]\t\t\t\n    tag 727\t\t\t\n      JUMPDEST \t\t\t\n      SWAP1 \t\t\t\n      POP \t\t\t\n      PUSH [tag] 729\t\t\t\n      DUP3 \t\t\t\n      DUP3 \t\t\t\n      PUSH [tag] 730\t\t\t\n      JUMP [in]\t\t\t\n    tag 729\t\t\t\n      JUMPDEST \t\t\t\n      SWAP2 \t\t\t\n      SWAP1 \t\t\t\n      POP \t\t\t\n      JUMP [out]\t\t\t\n    tag 728\t\t\t\n      JUMPDEST \t\t\t\n      PUSH 0\t\t\t\n      PUSH 40\t\t\t\n      MLOAD \t\t\t\n      SWAP1 \t\t\t\n      POP \t\t\t\n      SWAP1 \t\t\t\n      JUMP [out]\t\t\t\n    tag 411\t\t\t\n      JUMPDEST \t\t\t\n      PUSH 0\t\t\t\n      PUSH FFFFFFFFFFFFFFFF\t\t\t\n      DUP3 \t\t\t\n      GT \t\t\t\n      ISZERO \t\t\t\n      PUSH [tag] 733\t\t\t\n      JUMPI \t\t\t\n      PUSH [tag] 734\t\t\t\n      PUSH [tag] 347\t\t\t\n      JUMP [in]\t\t\t\n    tag 734\t\t\t\n      JUMPDEST \t\t\t\n    tag 733\t\t\t\n      JUMPDEST \t\t\t\n      PUSH [tag] 735\t\t\t\n      DUP3 \t\t\t\n      PUSH [tag] 548\t\t\t\n      JUMP [in]\t\t\t\n    tag 735\t\t\t\n      JUMPDEST \t\t\t\n      SWAP1 \t\t\t\n      POP \t\t\t\n      PUSH 20\t\t\t\n      DUP2 \t\t\t\n      ADD \t\t\t\n      SWAP1 \t\t\t\n      POP \t\t\t\n      SWAP2 \t\t\t\n      SWAP1 \t\t\t\n      POP \t\t\t\n      JUMP [out]\t\t\t\n    tag 513\t\t\t\n      JUMPDEST \t\t\t\n      PUSH 0\t\t\t\n      DUP2 \t\t\t\n      SWAP1 \t\t\t\n      POP \t\t\t\n      PUSH 20\t\t\t\n      DUP3 \t\t\t\n      ADD \t\t\t\n      SWAP1 \t\t\t\n      POP \t\t\t\n      SWAP2 \t\t\t\n      SWAP1 \t\t\t\n      POP \t\t\t\n      JUMP [out]\t\t\t\n    tag 509\t\t\t\n      JUMPDEST \t\t\t\n      PUSH 0\t\t\t\n      DUP2 \t\t\t\n      MLOAD \t\t\t\n      SWAP1 \t\t\t\n      POP \t\t\t\n      SWAP2 \t\t\t\n      SWAP1 \t\t\t\n      POP \t\t\t\n      JUMP [out]\t\t\t\n    tag 542\t\t\t\n      JUMPDEST \t\t\t\n      PUSH 0\t\t\t\n      DUP2 \t\t\t\n      MLOAD \t\t\t\n      SWAP1 \t\t\t\n      POP \t\t\t\n      SWAP2 \t\t\t\n      SWAP1 \t\t\t\n      POP \t\t\t\n      JUMP [out]\t\t\t\n    tag 519\t\t\t\n      JUMPDEST \t\t\t\n      PUSH 0\t\t\t\n      PUSH 20\t\t\t\n      DUP3 \t\t\t\n      ADD \t\t\t\n      SWAP1 \t\t\t\n      POP \t\t\t\n      SWAP2 \t\t\t\n      SWAP1 \t\t\t\n      POP \t\t\t\n      JUMP [out]\t\t\t\n    tag 511\t\t\t\n      JUMPDEST \t\t\t\n      PUSH 0\t\t\t\n      DUP3 \t\t\t\n      DUP3 \t\t\t\n      MSTORE \t\t\t\n      PUSH 20\t\t\t\n      DUP3 \t\t\t\n      ADD \t\t\t\n      SWAP1 \t\t\t\n      POP \t\t\t\n      SWAP3 \t\t\t\n      SWAP2 \t\t\t\n      POP \t\t\t\n      POP \t\t\t\n      JUMP [out]\t\t\t\n    tag 544\t\t\t\n      JUMPDEST \t\t\t\n      PUSH 0\t\t\t\n      DUP3 \t\t\t\n      DUP3 \t\t\t\n      MSTORE \t\t\t\n      PUSH 20\t\t\t\n      DUP3 \t\t\t\n      ADD \t\t\t\n      SWAP1 \t\t\t\n      POP \t\t\t\n      SWAP3 \t\t\t\n      SWAP2 \t\t\t\n      POP \t\t\t\n      POP \t\t\t\n      JUMP [out]\t\t\t\n    tag 553\t\t\t\n      JUMPDEST \t\t\t\n      PUSH 0\t\t\t\n      DUP3 \t\t\t\n      DUP3 \t\t\t\n      MSTORE \t\t\t\n      PUSH 20\t\t\t\n      DUP3 \t\t\t\n      ADD \t\t\t\n      SWAP1 \t\t\t\n      POP \t\t\t\n      SWAP3 \t\t\t\n      SWAP2 \t\t\t\n      POP \t\t\t\n      POP \t\t\t\n      JUMP [out]\t\t\t\n    tag 196\t\t\t\n      JUMPDEST \t\t\t\n      PUSH 0\t\t\t\n      PUSH [tag] 744\t\t\t\n      DUP3 \t\t\t\n      PUSH [tag] 649\t\t\t\n      JUMP [in]\t\t\t\n    tag 744\t\t\t\n      JUMPDEST \t\t\t\n      SWAP2 \t\t\t\n      POP \t\t\t\n      PUSH [tag] 745\t\t\t\n      DUP4 \t\t\t\n      PUSH [tag] 649\t\t\t\n      JUMP [in]\t\t\t\n    tag 745\t\t\t\n      JUMPDEST \t\t\t\n      SWAP3 \t\t\t\n      POP \t\t\t\n      DUP3 \t\t\t\n      PUSH FFFFFFFFFFFFFFFFFFFFFFFFFFFFFFFFFFFFFFFFFFFFFFFFFFFFFFFFFFFFFFFF\t\t\t\n      SUB \t\t\t\n      DUP3 \t\t\t\n      GT \t\t\t\n      ISZERO \t\t\t\n      PUSH [tag] 746\t\t\t\n      JUMPI \t\t\t\n      PUSH [tag] 747\t\t\t\n      PUSH [tag] 748\t\t\t\n      JUMP [in]\t\t\t\n    tag 747\t\t\t\n      JUMPDEST \t\t\t\n    tag 746\t\t\t\n      JUMPDEST \t\t\t\n      DUP3 \t\t\t\n      DUP3 \t\t\t\n      ADD \t\t\t\n      SWAP1 \t\t\t\n      POP \t\t\t\n      SWAP3 \t\t\t\n      SWAP2 \t\t\t\n      POP \t\t\t\n      POP \t\t\t\n      JUMP [out]\t\t\t\n    tag 275\t\t\t\n      JUMPDEST \t\t\t\n      PUSH 0\t\t\t\n      PUSH [tag] 750\t\t\t\n      DUP3 \t\t\t\n      PUSH [tag] 649\t\t\t\n      JUMP [in]\t\t\t\n    tag 750\t\t\t\n      JUMPDEST \t\t\t\n      SWAP2 \t\t\t\n      POP \t\t\t\n      PUSH [tag] 751\t\t\t\n      DUP4 \t\t\t\n      PUSH [tag] 649\t\t\t\n      JUMP [in]\t\t\t\n    tag 751\t\t\t\n      JUMPDEST \t\t\t\n      SWAP3 \t\t\t\n      POP \t\t\t\n      DUP3 \t\t\t\n      PUSH [tag] 752\t\t\t\n      JUMPI \t\t\t\n      PUSH [tag] 753\t\t\t\n      PUSH [tag] 754\t\t\t\n      JUMP [in]\t\t\t\n    tag 753\t\t\t\n      JUMPDEST \t\t\t\n    tag 752\t\t\t\n      JUMPDEST \t\t\t\n      DUP3 \t\t\t\n      DUP3 \t\t\t\n      DIV \t\t\t\n      SWAP1 \t\t\t\n      POP \t\t\t\n      SWAP3 \t\t\t\n      SWAP2 \t\t\t\n      POP \t\t\t\n      POP \t\t\t\n      JUMP [out]\t\t\t\n    tag 213\t\t\t\n      JUMPDEST \t\t\t\n      PUSH 0\t\t\t\n      PUSH [tag] 756\t\t\t\n      DUP3 \t\t\t\n      PUSH [tag] 649\t\t\t\n      JUMP [in]\t\t\t\n    tag 756\t\t\t\n      JUMPDEST \t\t\t\n      SWAP2 \t\t\t\n      POP \t\t\t\n      PUSH [tag] 757\t\t\t\n      DUP4 \t\t\t\n      PUSH [tag] 649\t\t\t\n      JUMP [in]\t\t\t\n    tag 757\t\t\t\n      JUMPDEST \t\t\t\n      SWAP3 \t\t\t\n      POP \t\t\t\n      DUP2 \t\t\t\n      PUSH FFFFFFFFFFFFFFFFFFFFFFFFFFFFFFFFFFFFFFFFFFFFFFFFFFFFFFFFFFFFFFFF\t\t\t\n      DIV \t\t\t\n      DUP4 \t\t\t\n      GT \t\t\t\n      DUP3 \t\t\t\n      ISZERO \t\t\t\n      ISZERO \t\t\t\n      AND \t\t\t\n      ISZERO \t\t\t\n      PUSH [tag] 758\t\t\t\n      JUMPI \t\t\t\n      PUSH [tag] 759\t\t\t\n      PUSH [tag] 748\t\t\t\n      JUMP [in]\t\t\t\n    tag 759\t\t\t\n      JUMPDEST \t\t\t\n    tag 758\t\t\t\n      JUMPDEST \t\t\t\n      DUP3 \t\t\t\n      DUP3 \t\t\t\n      MUL \t\t\t\n      SWAP1 \t\t\t\n      POP \t\t\t\n      SWAP3 \t\t\t\n      SWAP2 \t\t\t\n      POP \t\t\t\n      POP \t\t\t\n      JUMP [out]\t\t\t\n    tag 502\t\t\t\n      JUMPDEST \t\t\t\n      PUSH 0\t\t\t\n      PUSH [tag] 761\t\t\t\n      DUP3 \t\t\t\n      PUSH [tag] 762\t\t\t\n      JUMP [in]\t\t\t\n    tag 761\t\t\t\n      JUMPDEST \t\t\t\n      SWAP1 \t\t\t\n      POP \t\t\t\n      SWAP2 \t\t\t\n      SWAP1 \t\t\t\n      POP \t\t\t\n      JUMP [out]\t\t\t\n    tag 523\t\t\t\n      JUMPDEST \t\t\t\n      PUSH 0\t\t\t\n      DUP2 \t\t\t\n      ISZERO \t\t\t\n      ISZERO \t\t\t\n      SWAP1 \t\t\t\n      POP \t\t\t\n      SWAP2 \t\t\t\n      SWAP1 \t\t\t\n      POP \t\t\t\n      JUMP [out]\t\t\t\n    tag 762\t\t\t\n      JUMPDEST \t\t\t\n      PUSH 0\t\t\t\n      PUSH FFFFFFFFFFFFFFFFFFFFFFFFFFFFFFFFFFFFFFFF\t\t\t\n      DUP3 \t\t\t\n      AND \t\t\t\n      SWAP1 \t\t\t\n      POP \t\t\t\n      SWAP2 \t\t\t\n      SWAP1 \t\t\t\n      POP \t\t\t\n      JUMP [out]\t\t\t\n    tag 649\t\t\t\n      JUMPDEST \t\t\t\n      PUSH 0\t\t\t\n      DUP2 \t\t\t\n      SWAP1 \t\t\t\n      POP \t\t\t\n      SWAP2 \t\t\t\n      SWAP1 \t\t\t\n      POP \t\t\t\n      JUMP [out]\t\t\t\n    tag 530\t\t\t\n      JUMPDEST \t\t\t\n      PUSH 0\t\t\t\n      PUSH [tag] 767\t\t\t\n      DUP3 \t\t\t\n      PUSH [tag] 768\t\t\t\n      JUMP [in]\t\t\t\n    tag 767\t\t\t\n      JUMPDEST \t\t\t\n      SWAP1 \t\t\t\n      POP \t\t\t\n      SWAP2 \t\t\t\n      SWAP1 \t\t\t\n      POP \t\t\t\n      JUMP [out]\t\t\t\n    tag 534\t\t\t\n      JUMPDEST \t\t\t\n      PUSH 0\t\t\t\n      PUSH [tag] 770\t\t\t\n      DUP3 \t\t\t\n      PUSH [tag] 768\t\t\t\n      JUMP [in]\t\t\t\n    tag 770\t\t\t\n      JUMPDEST \t\t\t\n      SWAP1 \t\t\t\n      POP \t\t\t\n      SWAP2 \t\t\t\n      SWAP1 \t\t\t\n      POP \t\t\t\n      JUMP [out]\t\t\t\n    tag 538\t\t\t\n      JUMPDEST \t\t\t\n      PUSH 0\t\t\t\n      PUSH [tag] 772\t\t\t\n      DUP3 \t\t\t\n      PUSH [tag] 768\t\t\t\n      JUMP [in]\t\t\t\n    tag 772\t\t\t\n      JUMPDEST \t\t\t\n      SWAP1 \t\t\t\n      POP \t\t\t\n      SWAP2 \t\t\t\n      SWAP1 \t\t\t\n      POP \t\t\t\n      JUMP [out]\t\t\t\n    tag 768\t\t\t\n      JUMPDEST \t\t\t\n      PUSH 0\t\t\t\n      PUSH [tag] 774\t\t\t\n      DUP3 \t\t\t\n      PUSH [tag] 775\t\t\t\n      JUMP [in]\t\t\t\n    tag 774\t\t\t\n      JUMPDEST \t\t\t\n      SWAP1 \t\t\t\n      POP \t\t\t\n      SWAP2 \t\t\t\n      SWAP1 \t\t\t\n      POP \t\t\t\n      JUMP [out]\t\t\t\n    tag 775\t\t\t\n      JUMPDEST \t\t\t\n      PUSH 0\t\t\t\n      PUSH [tag] 777\t\t\t\n      DUP3 \t\t\t\n      PUSH [tag] 762\t\t\t\n      JUMP [in]\t\t\t\n    tag 777\t\t\t\n      JUMPDEST \t\t\t\n      SWAP1 \t\t\t\n      POP \t\t\t\n      SWAP2 \t\t\t\n      SWAP1 \t\t\t\n      POP \t\t\t\n      JUMP [out]\t\t\t\n    tag 417\t\t\t\n      JUMPDEST \t\t\t\n      DUP3 \t\t\t\n      DUP2 \t\t\t\n      DUP4 \t\t\t\n      CALLDATACOPY \t\t\t\n      PUSH 0\t\t\t\n      DUP4 \t\t\t\n      DUP4 \t\t\t\n      ADD \t\t\t\n      MSTORE \t\t\t\n      POP \t\t\t\n      POP \t\t\t\n      POP \t\t\t\n      JUMP [out]\t\t\t\n    tag 546\t\t\t\n      JUMPDEST \t\t\t\n      PUSH 0\t\t\t\n    tag 780\t\t\t\n      JUMPDEST \t\t\t\n      DUP4 \t\t\t\n      DUP2 \t\t\t\n      LT \t\t\t\n      ISZERO \t\t\t\n      PUSH [tag] 782\t\t\t\n      JUMPI \t\t\t\n      DUP1 \t\t\t\n      DUP3 \t\t\t\n      ADD \t\t\t\n      MLOAD \t\t\t\n      DUP2 \t\t\t\n      DUP5 \t\t\t\n      ADD \t\t\t\n      MSTORE \t\t\t\n      PUSH 20\t\t\t\n      DUP2 \t\t\t\n      ADD \t\t\t\n      SWAP1 \t\t\t\n      POP \t\t\t\n      PUSH [tag] 780\t\t\t\n      JUMP \t\t\t\n    tag 782\t\t\t\n      JUMPDEST \t\t\t\n      DUP4 \t\t\t\n      DUP2 \t\t\t\n      GT \t\t\t\n      ISZERO \t\t\t\n      PUSH [tag] 783\t\t\t\n      JUMPI \t\t\t\n      PUSH 0\t\t\t\n      DUP5 \t\t\t\n      DUP5 \t\t\t\n      ADD \t\t\t\n      MSTORE \t\t\t\n    tag 783\t\t\t\n      JUMPDEST \t\t\t\n      POP \t\t\t\n      POP \t\t\t\n      POP \t\t\t\n      POP \t\t\t\n      JUMP [out]\t\t\t\n    tag 150\t\t\t\n      JUMPDEST \t\t\t\n      PUSH 0\t\t\t\n      PUSH 2\t\t\t\n      DUP3 \t\t\t\n      DIV \t\t\t\n      SWAP1 \t\t\t\n      POP \t\t\t\n      PUSH 1\t\t\t\n      DUP3 \t\t\t\n      AND \t\t\t\n      DUP1 \t\t\t\n      PUSH [tag] 785\t\t\t\n      JUMPI \t\t\t\n      PUSH 7F\t\t\t\n      DUP3 \t\t\t\n      AND \t\t\t\n      SWAP2 \t\t\t\n      POP \t\t\t\n    tag 785\t\t\t\n      JUMPDEST \t\t\t\n      PUSH 20\t\t\t\n      DUP3 \t\t\t\n      LT \t\t\t\n      DUP2 \t\t\t\n      EQ \t\t\t\n      ISZERO \t\t\t\n      PUSH [tag] 786\t\t\t\n      JUMPI \t\t\t\n      PUSH [tag] 787\t\t\t\n      PUSH [tag] 788\t\t\t\n      JUMP [in]\t\t\t\n    tag 787\t\t\t\n      JUMPDEST \t\t\t\n    tag 786\t\t\t\n      JUMPDEST \t\t\t\n      POP \t\t\t\n      SWAP2 \t\t\t\n      SWAP1 \t\t\t\n      POP \t\t\t\n      JUMP [out]\t\t\t\n    tag 730\t\t\t\n      JUMPDEST \t\t\t\n      PUSH [tag] 790\t\t\t\n      DUP3 \t\t\t\n      PUSH [tag] 548\t\t\t\n      JUMP [in]\t\t\t\n    tag 790\t\t\t\n      JUMPDEST \t\t\t\n      DUP2 \t\t\t\n      ADD \t\t\t\n      DUP2 \t\t\t\n      DUP2 \t\t\t\n      LT \t\t\t\n      PUSH FFFFFFFFFFFFFFFF\t\t\t\n      DUP3 \t\t\t\n      GT \t\t\t\n      OR \t\t\t\n      ISZERO \t\t\t\n      PUSH [tag] 791\t\t\t\n      JUMPI \t\t\t\n      PUSH [tag] 792\t\t\t\n      PUSH [tag] 347\t\t\t\n      JUMP [in]\t\t\t\n    tag 792\t\t\t\n      JUMPDEST \t\t\t\n    tag 791\t\t\t\n      JUMPDEST \t\t\t\n      DUP1 \t\t\t\n      PUSH 40\t\t\t\n      MSTORE \t\t\t\n      POP \t\t\t\n      POP \t\t\t\n      POP \t\t\t\n      JUMP [out]\t\t\t\n    tag 250\t\t\t\n      JUMPDEST \t\t\t\n      PUSH 0\t\t\t\n      PUSH [tag] 794\t\t\t\n      DUP3 \t\t\t\n      PUSH [tag] 649\t\t\t\n      JUMP [in]\t\t\t\n    tag 794\t\t\t\n      JUMPDEST \t\t\t\n      SWAP2 \t\t\t\n      POP \t\t\t\n      PUSH FFFFFFFFFFFFFFFFFFFFFFFFFFFFFFFFFFFFFFFFFFFFFFFFFFFFFFFFFFFFFFFF\t\t\t\n      DUP3 \t\t\t\n      EQ \t\t\t\n      ISZERO \t\t\t\n      PUSH [tag] 795\t\t\t\n      JUMPI \t\t\t\n      PUSH [tag] 796\t\t\t\n      PUSH [tag] 748\t\t\t\n      JUMP [in]\t\t\t\n    tag 796\t\t\t\n      JUMPDEST \t\t\t\n    tag 795\t\t\t\n      JUMPDEST \t\t\t\n      PUSH 1\t\t\t\n      DUP3 \t\t\t\n      ADD \t\t\t\n      SWAP1 \t\t\t\n      POP \t\t\t\n      SWAP2 \t\t\t\n      SWAP1 \t\t\t\n      POP \t\t\t\n      JUMP [out]\t\t\t\n    tag 748\t\t\t\n      JUMPDEST \t\t\t\n      PUSH 4E487B7100000000000000000000000000000000000000000000000000000000\t\t\t\n      PUSH 0\t\t\t\n      MSTORE \t\t\t\n      PUSH 11\t\t\t\n      PUSH 4\t\t\t\n      MSTORE \t\t\t\n      PUSH 24\t\t\t\n      PUSH 0\t\t\t\n      REVERT \t\t\t\n    tag 754\t\t\t\n      JUMPDEST \t\t\t\n      PUSH 4E487B7100000000000000000000000000000000000000000000000000000000\t\t\t\n      PUSH 0\t\t\t\n      MSTORE \t\t\t\n      PUSH 12\t\t\t\n      PUSH 4\t\t\t\n      MSTORE \t\t\t\n      PUSH 24\t\t\t\n      PUSH 0\t\t\t\n      REVERT \t\t\t\n    tag 788\t\t\t\n      JUMPDEST \t\t\t\n      PUSH 4E487B7100000000000000000000000000000000000000000000000000000000\t\t\t\n      PUSH 0\t\t\t\n      MSTORE \t\t\t\n      PUSH 22\t\t\t\n      PUSH 4\t\t\t\n      MSTORE \t\t\t\n      PUSH 24\t\t\t\n      PUSH 0\t\t\t\n      REVERT \t\t\t\n    tag 289\t\t\t\n      JUMPDEST \t\t\t\n      PUSH 4E487B7100000000000000000000000000000000000000000000000000000000\t\t\t\n      PUSH 0\t\t\t\n      MSTORE \t\t\t\n      PUSH 32\t\t\t\n      PUSH 4\t\t\t\n      MSTORE \t\t\t\n      PUSH 24\t\t\t\n      PUSH 0\t\t\t\n      REVERT \t\t\t\n    tag 347\t\t\t\n      JUMPDEST \t\t\t\n      PUSH 4E487B7100000000000000000000000000000000000000000000000000000000\t\t\t\n      PUSH 0\t\t\t\n      MSTORE \t\t\t\n      PUSH 41\t\t\t\n      PUSH 4\t\t\t\n      MSTORE \t\t\t\n      PUSH 24\t\t\t\n      PUSH 0\t\t\t\n      REVERT \t\t\t\n    tag 433\t\t\t\n      JUMPDEST \t\t\t\n      PUSH 0\t\t\t\n      DUP1 \t\t\t\n      REVERT \t\t\t\n    tag 415\t\t\t\n      JUMPDEST \t\t\t\n      PUSH 0\t\t\t\n      DUP1 \t\t\t\n      REVERT \t\t\t\n    tag 465\t\t\t\n      JUMPDEST \t\t\t\n      PUSH 0\t\t\t\n      DUP1 \t\t\t\n      REVERT \t\t\t\n    tag 445\t\t\t\n      JUMPDEST \t\t\t\n      PUSH 0\t\t\t\n      DUP1 \t\t\t\n      REVERT \t\t\t\n    tag 548\t\t\t\n      JUMPDEST \t\t\t\n      PUSH 0\t\t\t\n      PUSH 1F\t\t\t\n      NOT \t\t\t\n      PUSH 1F\t\t\t\n      DUP4 \t\t\t\n      ADD \t\t\t\n      AND \t\t\t\n      SWAP1 \t\t\t\n      POP \t\t\t\n      SWAP2 \t\t\t\n      SWAP1 \t\t\t\n      POP \t\t\t\n      JUMP [out]\t\t\t\n    tag 560\t\t\t\n      JUMPDEST \t\t\t\n      PUSH 566F74696E6720506572696F642046696E697368656400000000000000000000\t\t\t\n      PUSH 0\t\t\t\n      DUP3 \t\t\t\n      ADD \t\t\t\n      MSTORE \t\t\t\n      POP \t\t\t\n      JUMP [out]\t\t\t\n    tag 565\t\t\t\n      JUMPDEST \t\t\t\n      PUSH 416C726561647920566F74656400000000000000000000000000000000000000\t\t\t\n      PUSH 0\t\t\t\n      DUP3 \t\t\t\n      ADD \t\t\t\n      MSTORE \t\t\t\n      POP \t\t\t\n      JUMP [out]\t\t\t\n    tag 570\t\t\t\n      JUMPDEST \t\t\t\n      PUSH 436F6E747261637420646F6573206E6F74206861766520656E6F75676820746F\t\t\t\n      PUSH 0\t\t\t\n      DUP3 \t\t\t\n      ADD \t\t\t\n      MSTORE \t\t\t\n      PUSH 6B656E7300000000000000000000000000000000000000000000000000000000\t\t\t\n      PUSH 20\t\t\t\n      DUP3 \t\t\t\n      ADD \t\t\t\n      MSTORE \t\t\t\n      POP \t\t\t\n      JUMP [out]\t\t\t\n    tag 575\t\t\t\n      JUMPDEST \t\t\t\n      PUSH 4F776E61626C653A206E6577206F776E657220697320746865207A65726F2061\t\t\t\n      PUSH 0\t\t\t\n      DUP3 \t\t\t\n      ADD \t\t\t\n      MSTORE \t\t\t\n      PUSH 6464726573730000000000000000000000000000000000000000000000000000\t\t\t\n      PUSH 20\t\t\t\n      DUP3 \t\t\t\n      ADD \t\t\t\n      MSTORE \t\t\t\n      POP \t\t\t\n      JUMP [out]\t\t\t\n    tag 580\t\t\t\n      JUMPDEST \t\t\t\n      PUSH 596F75206861766520746F207374616B652076616C696420616D6F756E742074\t\t\t\n      PUSH 0\t\t\t\n      DUP3 \t\t\t\n      ADD \t\t\t\n      MSTORE \t\t\t\n      PUSH 6F2063726561746520612070726F706F73616C00000000000000000000000000\t\t\t\n      PUSH 20\t\t\t\n      DUP3 \t\t\t\n      ADD \t\t\t\n      MSTORE \t\t\t\n      POP \t\t\t\n      JUMP [out]\t\t\t\n    tag 585\t\t\t\n      JUMPDEST \t\t\t\n      PUSH 616C6C6F77616E6365206973206E6F7420656E6F756768210000000000000000\t\t\t\n      PUSH 0\t\t\t\n      DUP3 \t\t\t\n      ADD \t\t\t\n      MSTORE \t\t\t\n      POP \t\t\t\n      JUMP [out]\t\t\t\n    tag 590\t\t\t\n      JUMPDEST \t\t\t\n      PUSH 4669727374206A6F696E207468652053616D686974612044414F000000000000\t\t\t\n      PUSH 0\t\t\t\n      DUP3 \t\t\t\n      ADD \t\t\t\n      MSTORE \t\t\t\n      POP \t\t\t\n      JUMP [out]\t\t\t\n    tag 595\t\t\t\n      JUMPDEST \t\t\t\n      PUSH 4E6F7420656E6F7567682076616C756500000000000000000000000000000000\t\t\t\n      PUSH 0\t\t\t\n      DUP3 \t\t\t\n      ADD \t\t\t\n      MSTORE \t\t\t\n      POP \t\t\t\n      JUMP [out]\t\t\t\n    tag 600\t\t\t\n      JUMPDEST \t\t\t\n      PUSH 596F75206861766520746F207374616B652076616C696420616D6F756E742074\t\t\t\n      PUSH 0\t\t\t\n      DUP3 \t\t\t\n      ADD \t\t\t\n      MSTORE \t\t\t\n      PUSH 6F20766F7465206F6E20612070726F706F73616C000000000000000000000000\t\t\t\n      PUSH 20\t\t\t\n      DUP3 \t\t\t\n      ADD \t\t\t\n      MSTORE \t\t\t\n      POP \t\t\t\n      JUMP [out]\t\t\t\n    tag 605\t\t\t\n      JUMPDEST \t\t\t\n      PUSH 4F776E61626C653A2063616C6C6572206973206E6F7420746865206F776E6572\t\t\t\n      PUSH 0\t\t\t\n      DUP3 \t\t\t\n      ADD \t\t\t\n      MSTORE \t\t\t\n      POP \t\t\t\n      JUMP [out]\t\t\t\n    tag 610\t\t\t\n      JUMPDEST \t\t\t\n      PUSH 566F74696E6720726573756C7420697320616C726561647920676976656E2100\t\t\t\n      PUSH 0\t\t\t\n      DUP3 \t\t\t\n      ADD \t\t\t\n      MSTORE \t\t\t\n      POP \t\t\t\n      JUMP [out]\t\t\t\n    tag 615\t\t\t\n      JUMPDEST \t\t\t\n      PUSH 50726F706F73616C2043726561746F722063616E6E6F7420766F746520686973\t\t\t\n      PUSH 0\t\t\t\n      DUP3 \t\t\t\n      ADD \t\t\t\n      MSTORE \t\t\t\n      PUSH 206F776E2070726F706F73616C00000000000000000000000000000000000000\t\t\t\n      PUSH 20\t\t\t\n      DUP3 \t\t\t\n      ADD \t\t\t\n      MSTORE \t\t\t\n      POP \t\t\t\n      JUMP [out]\t\t\t\n    tag 620\t\t\t\n      JUMPDEST \t\t\t\n      PUSH 596F7520617265206E6F742061206D656D626572206F66207468652053616D68\t\t\t\n      PUSH 0\t\t\t\n      DUP3 \t\t\t\n      ADD \t\t\t\n      MSTORE \t\t\t\n      PUSH 69746144414F0000000000000000000000000000000000000000000000000000\t\t\t\n      PUSH 20\t\t\t\n      DUP3 \t\t\t\n      ADD \t\t\t\n      MSTORE \t\t\t\n      POP \t\t\t\n      JUMP [out]\t\t\t\n    tag 625\t\t\t\n      JUMPDEST \t\t\t\n      PUSH 596F7520617265206E6F7420746865206D656D626572206F6620746873205361\t\t\t\n      PUSH 0\t\t\t\n      DUP3 \t\t\t\n      ADD \t\t\t\n      MSTORE \t\t\t\n      PUSH 6D686974612044414F0000000000000000000000000000000000000000000000\t\t\t\n      PUSH 20\t\t\t\n      DUP3 \t\t\t\n      ADD \t\t\t\n      MSTORE \t\t\t\n      POP \t\t\t\n      JUMP [out]\t\t\t\n    tag 421\t\t\t\n      JUMPDEST \t\t\t\n      PUSH [tag] 822\t\t\t\n      DUP2 \t\t\t\n      PUSH [tag] 502\t\t\t\n      JUMP [in]\t\t\t\n    tag 822\t\t\t\n      JUMPDEST \t\t\t\n      DUP2 \t\t\t\n      EQ \t\t\t\n      PUSH [tag] 823\t\t\t\n      JUMPI \t\t\t\n      PUSH 0\t\t\t\n      DUP1 \t\t\t\n      REVERT \t\t\t\n    tag 823\t\t\t\n      JUMPDEST \t\t\t\n      POP \t\t\t\n      JUMP [out]\t\t\t\n    tag 428\t\t\t\n      JUMPDEST \t\t\t\n      PUSH [tag] 825\t\t\t\n      DUP2 \t\t\t\n      PUSH [tag] 523\t\t\t\n      JUMP [in]\t\t\t\n    tag 825\t\t\t\n      JUMPDEST \t\t\t\n      DUP2 \t\t\t\n      EQ \t\t\t\n      PUSH [tag] 826\t\t\t\n      JUMPI \t\t\t\n      PUSH 0\t\t\t\n      DUP1 \t\t\t\n      REVERT \t\t\t\n    tag 826\t\t\t\n      JUMPDEST \t\t\t\n      POP \t\t\t\n      JUMP [out]\t\t\t\n    tag 438\t\t\t\n      JUMPDEST \t\t\t\n      PUSH [tag] 828\t\t\t\n      DUP2 \t\t\t\n      PUSH [tag] 649\t\t\t\n      JUMP [in]\t\t\t\n    tag 828\t\t\t\n      JUMPDEST \t\t\t\n      DUP2 \t\t\t\n      EQ \t\t\t\n      PUSH [tag] 829\t\t\t\n      JUMPI \t\t\t\n      PUSH 0\t\t\t\n      DUP1 \t\t\t\n      REVERT \t\t\t\n    tag 829\t\t\t\n      JUMPDEST \t\t\t\n      POP \t\t\t\n      JUMP [out]\t\t\t\n    .data\n"
}