{
  "compilerInput": "{\"language\":\"Solidity\",\"sources\":{\"contracts/Samhita DAO/LanguageDAOToken.sol\":{\"content\":\"// SPDX-License-Identifier: MIT\\r\\n\\r\\npragma solidity ^0.8.0;\\r\\n\\r\\nimport \\\"https://github.com/OpenZeppelin/openzeppelin-contracts/blob/master/contracts/token/ERC20/ERC20.sol\\\";\\r\\nimport \\\"https://github.com/OpenZeppelin/openzeppelin-contracts/blob/master/contracts/access/Ownable.sol\\\";\\r\\n// import \\\"./LanguageDAO.sol\\\";\\r\\n\\r\\ncontract LanguageDAOToken is ERC20, Ownable{\\r\\n    \\r\\n    address admin;\\r\\n    // LanguageDAO public languageDAO;\\r\\n    uint initialSupply;\\r\\n\\r\\n    constructor(string memory _tokenName, string memory _tokenSymbol, uint _initialSupplyToOwner) ERC20(_tokenName, _tokenSymbol) {\\r\\n        admin=msg.sender;\\r\\n        initialSupply = _initialSupplyToOwner;\\r\\n        _mint(msg.sender, _initialSupplyToOwner);\\r\\n        // languageDAO = LanguageDAO(_languageDAOAddress);\\r\\n    }\\r\\n\\r\\n    uint256 tokenPrice = 10000000000000; // 1 token = 0.00001 Ether\\r\\n    \\r\\n    // function _transfer(address payable _to, uint256 _amount) public payable {\\r\\n    //     require(initialSupply>=_amount,\\\"not enough tokens\\\");\\r\\n    //     require(msg.value == (_amount * tokenPrice), \\\"Not enough value!\\\");\\r\\n    //     // if(!languageDAO.isMemberAdded(msg.sender)){\\r\\n    //     //     languageDAO.addMember(msg.sender);\\r\\n    //     // }\\r\\n    //     transfer(_to, _amount);\\r\\n    //     initialSupply = initialSupply-_amount;\\r\\n    // }\\r\\n    \\r\\n    function withdrawFromContract(uint _amount,address _tokenAddress) public payable onlyOwner\\r\\n    {\\r\\n            IERC20 _token = IERC20(_tokenAddress);\\r\\n            _token.transfer(msg.sender,_amount);\\r\\n    }\\r\\n   \\r\\n    function setTokenprice(uint _tokenPrice) public onlyOwner {\\r\\n        tokenPrice = _tokenPrice;\\r\\n    }\\r\\n\\r\\n    function setAdmin(address _admin) public onlyOwner {\\r\\n        admin = _admin;\\r\\n    }\\r\\n\\r\\n    function getAdmin() public view returns(address){\\r\\n        return admin;\\r\\n    }\\r\\n\\r\\n    function getTokenPrice() public view returns(uint){\\r\\n        return tokenPrice;\\r\\n    }\\r\\n}\"},\"https://github.com/OpenZeppelin/openzeppelin-contracts/blob/master/contracts/access/Ownable.sol\":{\"content\":\"// SPDX-License-Identifier: MIT\\n// OpenZeppelin Contracts (last updated v4.7.0) (access/Ownable.sol)\\n\\npragma solidity ^0.8.0;\\n\\nimport \\\"../utils/Context.sol\\\";\\n\\n/**\\n * @dev Contract module which provides a basic access control mechanism, where\\n * there is an account (an owner) that can be granted exclusive access to\\n * specific functions.\\n *\\n * By default, the owner account will be the one that deploys the contract. This\\n * can later be changed with {transferOwnership}.\\n *\\n * This module is used through inheritance. It will make available the modifier\\n * `onlyOwner`, which can be applied to your functions to restrict their use to\\n * the owner.\\n */\\nabstract contract Ownable is Context {\\n    address private _owner;\\n\\n    event OwnershipTransferred(address indexed previousOwner, address indexed newOwner);\\n\\n    /**\\n     * @dev Initializes the contract setting the deployer as the initial owner.\\n     */\\n    constructor() {\\n        _transferOwnership(_msgSender());\\n    }\\n\\n    /**\\n     * @dev Throws if called by any account other than the owner.\\n     */\\n    modifier onlyOwner() {\\n        _checkOwner();\\n        _;\\n    }\\n\\n    /**\\n     * @dev Returns the address of the current owner.\\n     */\\n    function owner() public view virtual returns (address) {\\n        return _owner;\\n    }\\n\\n    /**\\n     * @dev Throws if the sender is not the owner.\\n     */\\n    function _checkOwner() internal view virtual {\\n        require(owner() == _msgSender(), \\\"Ownable: caller is not the owner\\\");\\n    }\\n\\n    /**\\n     * @dev Leaves the contract without owner. It will not be possible to call\\n     * `onlyOwner` functions anymore. Can only be called by the current owner.\\n     *\\n     * NOTE: Renouncing ownership will leave the contract without an owner,\\n     * thereby removing any functionality that is only available to the owner.\\n     */\\n    function renounceOwnership() public virtual onlyOwner {\\n        _transferOwnership(address(0));\\n    }\\n\\n    /**\\n     * @dev Transfers ownership of the contract to a new account (`newOwner`).\\n     * Can only be called by the current owner.\\n     */\\n    function transferOwnership(address newOwner) public virtual onlyOwner {\\n        require(newOwner != address(0), \\\"Ownable: new owner is the zero address\\\");\\n        _transferOwnership(newOwner);\\n    }\\n\\n    /**\\n     * @dev Transfers ownership of the contract to a new account (`newOwner`).\\n     * Internal function without access restriction.\\n     */\\n    function _transferOwnership(address newOwner) internal virtual {\\n        address oldOwner = _owner;\\n        _owner = newOwner;\\n        emit OwnershipTransferred(oldOwner, newOwner);\\n    }\\n}\\n\"},\"https://github.com/OpenZeppelin/openzeppelin-contracts/blob/master/contracts/token/ERC20/ERC20.sol\":{\"content\":\"// SPDX-License-Identifier: MIT\\n// OpenZeppelin Contracts (last updated v4.8.0) (token/ERC20/ERC20.sol)\\n\\npragma solidity ^0.8.0;\\n\\nimport \\\"./IERC20.sol\\\";\\nimport \\\"./extensions/IERC20Metadata.sol\\\";\\nimport \\\"../../utils/Context.sol\\\";\\n\\n/**\\n * @dev Implementation of the {IERC20} interface.\\n *\\n * This implementation is agnostic to the way tokens are created. This means\\n * that a supply mechanism has to be added in a derived contract using {_mint}.\\n * For a generic mechanism see {ERC20PresetMinterPauser}.\\n *\\n * TIP: For a detailed writeup see our guide\\n * https://forum.openzeppelin.com/t/how-to-implement-erc20-supply-mechanisms/226[How\\n * to implement supply mechanisms].\\n *\\n * The default value of {decimals} is 18. To change this, you should override\\n * this function so it returns a different value.\\n *\\n * We have followed general OpenZeppelin Contracts guidelines: functions revert\\n * instead returning `false` on failure. This behavior is nonetheless\\n * conventional and does not conflict with the expectations of ERC20\\n * applications.\\n *\\n * Additionally, an {Approval} event is emitted on calls to {transferFrom}.\\n * This allows applications to reconstruct the allowance for all accounts just\\n * by listening to said events. Other implementations of the EIP may not emit\\n * these events, as it isn't required by the specification.\\n *\\n * Finally, the non-standard {decreaseAllowance} and {increaseAllowance}\\n * functions have been added to mitigate the well-known issues around setting\\n * allowances. See {IERC20-approve}.\\n */\\ncontract ERC20 is Context, IERC20, IERC20Metadata {\\n    mapping(address => uint256) private _balances;\\n\\n    mapping(address => mapping(address => uint256)) private _allowances;\\n\\n    uint256 private _totalSupply;\\n\\n    string private _name;\\n    string private _symbol;\\n\\n    /**\\n     * @dev Sets the values for {name} and {symbol}.\\n     *\\n     * All two of these values are immutable: they can only be set once during\\n     * construction.\\n     */\\n    constructor(string memory name_, string memory symbol_) {\\n        _name = name_;\\n        _symbol = symbol_;\\n    }\\n\\n    /**\\n     * @dev Returns the name of the token.\\n     */\\n    function name() public view virtual override returns (string memory) {\\n        return _name;\\n    }\\n\\n    /**\\n     * @dev Returns the symbol of the token, usually a shorter version of the\\n     * name.\\n     */\\n    function symbol() public view virtual override returns (string memory) {\\n        return _symbol;\\n    }\\n\\n    /**\\n     * @dev Returns the number of decimals used to get its user representation.\\n     * For example, if `decimals` equals `2`, a balance of `505` tokens should\\n     * be displayed to a user as `5.05` (`505 / 10 ** 2`).\\n     *\\n     * Tokens usually opt for a value of 18, imitating the relationship between\\n     * Ether and Wei. This is the default value returned by this function, unless\\n     * it's overridden.\\n     *\\n     * NOTE: This information is only used for _display_ purposes: it in\\n     * no way affects any of the arithmetic of the contract, including\\n     * {IERC20-balanceOf} and {IERC20-transfer}.\\n     */\\n    function decimals() public view virtual override returns (uint8) {\\n        return 18;\\n    }\\n\\n    /**\\n     * @dev See {IERC20-totalSupply}.\\n     */\\n    function totalSupply() public view virtual override returns (uint256) {\\n        return _totalSupply;\\n    }\\n\\n    /**\\n     * @dev See {IERC20-balanceOf}.\\n     */\\n    function balanceOf(address account) public view virtual override returns (uint256) {\\n        return _balances[account];\\n    }\\n\\n    /**\\n     * @dev See {IERC20-transfer}.\\n     *\\n     * Requirements:\\n     *\\n     * - `to` cannot be the zero address.\\n     * - the caller must have a balance of at least `amount`.\\n     */\\n    function transfer(address to, uint256 amount) public virtual override returns (bool) {\\n        address owner = _msgSender();\\n        _transfer(owner, to, amount);\\n        return true;\\n    }\\n\\n    /**\\n     * @dev See {IERC20-allowance}.\\n     */\\n    function allowance(address owner, address spender) public view virtual override returns (uint256) {\\n        return _allowances[owner][spender];\\n    }\\n\\n    /**\\n     * @dev See {IERC20-approve}.\\n     *\\n     * NOTE: If `amount` is the maximum `uint256`, the allowance is not updated on\\n     * `transferFrom`. This is semantically equivalent to an infinite approval.\\n     *\\n     * Requirements:\\n     *\\n     * - `spender` cannot be the zero address.\\n     */\\n    function approve(address spender, uint256 amount) public virtual override returns (bool) {\\n        address owner = _msgSender();\\n        _approve(owner, spender, amount);\\n        return true;\\n    }\\n\\n    /**\\n     * @dev See {IERC20-transferFrom}.\\n     *\\n     * Emits an {Approval} event indicating the updated allowance. This is not\\n     * required by the EIP. See the note at the beginning of {ERC20}.\\n     *\\n     * NOTE: Does not update the allowance if the current allowance\\n     * is the maximum `uint256`.\\n     *\\n     * Requirements:\\n     *\\n     * - `from` and `to` cannot be the zero address.\\n     * - `from` must have a balance of at least `amount`.\\n     * - the caller must have allowance for ``from``'s tokens of at least\\n     * `amount`.\\n     */\\n    function transferFrom(address from, address to, uint256 amount) public virtual override returns (bool) {\\n        address spender = _msgSender();\\n        _spendAllowance(from, spender, amount);\\n        _transfer(from, to, amount);\\n        return true;\\n    }\\n\\n    /**\\n     * @dev Atomically increases the allowance granted to `spender` by the caller.\\n     *\\n     * This is an alternative to {approve} that can be used as a mitigation for\\n     * problems described in {IERC20-approve}.\\n     *\\n     * Emits an {Approval} event indicating the updated allowance.\\n     *\\n     * Requirements:\\n     *\\n     * - `spender` cannot be the zero address.\\n     */\\n    function increaseAllowance(address spender, uint256 addedValue) public virtual returns (bool) {\\n        address owner = _msgSender();\\n        _approve(owner, spender, allowance(owner, spender) + addedValue);\\n        return true;\\n    }\\n\\n    /**\\n     * @dev Atomically decreases the allowance granted to `spender` by the caller.\\n     *\\n     * This is an alternative to {approve} that can be used as a mitigation for\\n     * problems described in {IERC20-approve}.\\n     *\\n     * Emits an {Approval} event indicating the updated allowance.\\n     *\\n     * Requirements:\\n     *\\n     * - `spender` cannot be the zero address.\\n     * - `spender` must have allowance for the caller of at least\\n     * `subtractedValue`.\\n     */\\n    function decreaseAllowance(address spender, uint256 subtractedValue) public virtual returns (bool) {\\n        address owner = _msgSender();\\n        uint256 currentAllowance = allowance(owner, spender);\\n        require(currentAllowance >= subtractedValue, \\\"ERC20: decreased allowance below zero\\\");\\n        unchecked {\\n            _approve(owner, spender, currentAllowance - subtractedValue);\\n        }\\n\\n        return true;\\n    }\\n\\n    /**\\n     * @dev Moves `amount` of tokens from `from` to `to`.\\n     *\\n     * This internal function is equivalent to {transfer}, and can be used to\\n     * e.g. implement automatic token fees, slashing mechanisms, etc.\\n     *\\n     * Emits a {Transfer} event.\\n     *\\n     * Requirements:\\n     *\\n     * - `from` cannot be the zero address.\\n     * - `to` cannot be the zero address.\\n     * - `from` must have a balance of at least `amount`.\\n     */\\n    function _transfer(address from, address to, uint256 amount) internal virtual {\\n        require(from != address(0), \\\"ERC20: transfer from the zero address\\\");\\n        require(to != address(0), \\\"ERC20: transfer to the zero address\\\");\\n\\n        _beforeTokenTransfer(from, to, amount);\\n\\n        uint256 fromBalance = _balances[from];\\n        require(fromBalance >= amount, \\\"ERC20: transfer amount exceeds balance\\\");\\n        unchecked {\\n            _balances[from] = fromBalance - amount;\\n            // Overflow not possible: the sum of all balances is capped by totalSupply, and the sum is preserved by\\n            // decrementing then incrementing.\\n            _balances[to] += amount;\\n        }\\n\\n        emit Transfer(from, to, amount);\\n\\n        _afterTokenTransfer(from, to, amount);\\n    }\\n\\n    /** @dev Creates `amount` tokens and assigns them to `account`, increasing\\n     * the total supply.\\n     *\\n     * Emits a {Transfer} event with `from` set to the zero address.\\n     *\\n     * Requirements:\\n     *\\n     * - `account` cannot be the zero address.\\n     */\\n    function _mint(address account, uint256 amount) internal virtual {\\n        require(account != address(0), \\\"ERC20: mint to the zero address\\\");\\n\\n        _beforeTokenTransfer(address(0), account, amount);\\n\\n        _totalSupply += amount;\\n        unchecked {\\n            // Overflow not possible: balance + amount is at most totalSupply + amount, which is checked above.\\n            _balances[account] += amount;\\n        }\\n        emit Transfer(address(0), account, amount);\\n\\n        _afterTokenTransfer(address(0), account, amount);\\n    }\\n\\n    /**\\n     * @dev Destroys `amount` tokens from `account`, reducing the\\n     * total supply.\\n     *\\n     * Emits a {Transfer} event with `to` set to the zero address.\\n     *\\n     * Requirements:\\n     *\\n     * - `account` cannot be the zero address.\\n     * - `account` must have at least `amount` tokens.\\n     */\\n    function _burn(address account, uint256 amount) internal virtual {\\n        require(account != address(0), \\\"ERC20: burn from the zero address\\\");\\n\\n        _beforeTokenTransfer(account, address(0), amount);\\n\\n        uint256 accountBalance = _balances[account];\\n        require(accountBalance >= amount, \\\"ERC20: burn amount exceeds balance\\\");\\n        unchecked {\\n            _balances[account] = accountBalance - amount;\\n            // Overflow not possible: amount <= accountBalance <= totalSupply.\\n            _totalSupply -= amount;\\n        }\\n\\n        emit Transfer(account, address(0), amount);\\n\\n        _afterTokenTransfer(account, address(0), amount);\\n    }\\n\\n    /**\\n     * @dev Sets `amount` as the allowance of `spender` over the `owner` s tokens.\\n     *\\n     * This internal function is equivalent to `approve`, and can be used to\\n     * e.g. set automatic allowances for certain subsystems, etc.\\n     *\\n     * Emits an {Approval} event.\\n     *\\n     * Requirements:\\n     *\\n     * - `owner` cannot be the zero address.\\n     * - `spender` cannot be the zero address.\\n     */\\n    function _approve(address owner, address spender, uint256 amount) internal virtual {\\n        require(owner != address(0), \\\"ERC20: approve from the zero address\\\");\\n        require(spender != address(0), \\\"ERC20: approve to the zero address\\\");\\n\\n        _allowances[owner][spender] = amount;\\n        emit Approval(owner, spender, amount);\\n    }\\n\\n    /**\\n     * @dev Updates `owner` s allowance for `spender` based on spent `amount`.\\n     *\\n     * Does not update the allowance amount in case of infinite allowance.\\n     * Revert if not enough allowance is available.\\n     *\\n     * Might emit an {Approval} event.\\n     */\\n    function _spendAllowance(address owner, address spender, uint256 amount) internal virtual {\\n        uint256 currentAllowance = allowance(owner, spender);\\n        if (currentAllowance != type(uint256).max) {\\n            require(currentAllowance >= amount, \\\"ERC20: insufficient allowance\\\");\\n            unchecked {\\n                _approve(owner, spender, currentAllowance - amount);\\n            }\\n        }\\n    }\\n\\n    /**\\n     * @dev Hook that is called before any transfer of tokens. This includes\\n     * minting and burning.\\n     *\\n     * Calling conditions:\\n     *\\n     * - when `from` and `to` are both non-zero, `amount` of ``from``'s tokens\\n     * will be transferred to `to`.\\n     * - when `from` is zero, `amount` tokens will be minted for `to`.\\n     * - when `to` is zero, `amount` of ``from``'s tokens will be burned.\\n     * - `from` and `to` are never both zero.\\n     *\\n     * To learn more about hooks, head to xref:ROOT:extending-contracts.adoc#using-hooks[Using Hooks].\\n     */\\n    function _beforeTokenTransfer(address from, address to, uint256 amount) internal virtual {}\\n\\n    /**\\n     * @dev Hook that is called after any transfer of tokens. This includes\\n     * minting and burning.\\n     *\\n     * Calling conditions:\\n     *\\n     * - when `from` and `to` are both non-zero, `amount` of ``from``'s tokens\\n     * has been transferred to `to`.\\n     * - when `from` is zero, `amount` tokens have been minted for `to`.\\n     * - when `to` is zero, `amount` of ``from``'s tokens have been burned.\\n     * - `from` and `to` are never both zero.\\n     *\\n     * To learn more about hooks, head to xref:ROOT:extending-contracts.adoc#using-hooks[Using Hooks].\\n     */\\n    function _afterTokenTransfer(address from, address to, uint256 amount) internal virtual {}\\n}\\n\"},\"https://github.com/OpenZeppelin/openzeppelin-contracts/blob/master/contracts/utils/Context.sol\":{\"content\":\"// SPDX-License-Identifier: MIT\\n// OpenZeppelin Contracts v4.4.1 (utils/Context.sol)\\n\\npragma solidity ^0.8.0;\\n\\n/**\\n * @dev Provides information about the current execution context, including the\\n * sender of the transaction and its data. While these are generally available\\n * via msg.sender and msg.data, they should not be accessed in such a direct\\n * manner, since when dealing with meta-transactions the account sending and\\n * paying for execution may not be the actual sender (as far as an application\\n * is concerned).\\n *\\n * This contract is only required for intermediate, library-like contracts.\\n */\\nabstract contract Context {\\n    function _msgSender() internal view virtual returns (address) {\\n        return msg.sender;\\n    }\\n\\n    function _msgData() internal view virtual returns (bytes calldata) {\\n        return msg.data;\\n    }\\n}\\n\"},\"https://github.com/OpenZeppelin/openzeppelin-contracts/blob/master/contracts/token/ERC20/extensions/IERC20Metadata.sol\":{\"content\":\"// SPDX-License-Identifier: MIT\\n// OpenZeppelin Contracts v4.4.1 (token/ERC20/extensions/IERC20Metadata.sol)\\n\\npragma solidity ^0.8.0;\\n\\nimport \\\"../IERC20.sol\\\";\\n\\n/**\\n * @dev Interface for the optional metadata functions from the ERC20 standard.\\n *\\n * _Available since v4.1._\\n */\\ninterface IERC20Metadata is IERC20 {\\n    /**\\n     * @dev Returns the name of the token.\\n     */\\n    function name() external view returns (string memory);\\n\\n    /**\\n     * @dev Returns the symbol of the token.\\n     */\\n    function symbol() external view returns (string memory);\\n\\n    /**\\n     * @dev Returns the decimals places of the token.\\n     */\\n    function decimals() external view returns (uint8);\\n}\\n\"},\"https://github.com/OpenZeppelin/openzeppelin-contracts/blob/master/contracts/token/ERC20/IERC20.sol\":{\"content\":\"// SPDX-License-Identifier: MIT\\n// OpenZeppelin Contracts (last updated v4.6.0) (token/ERC20/IERC20.sol)\\n\\npragma solidity ^0.8.0;\\n\\n/**\\n * @dev Interface of the ERC20 standard as defined in the EIP.\\n */\\ninterface IERC20 {\\n    /**\\n     * @dev Emitted when `value` tokens are moved from one account (`from`) to\\n     * another (`to`).\\n     *\\n     * Note that `value` may be zero.\\n     */\\n    event Transfer(address indexed from, address indexed to, uint256 value);\\n\\n    /**\\n     * @dev Emitted when the allowance of a `spender` for an `owner` is set by\\n     * a call to {approve}. `value` is the new allowance.\\n     */\\n    event Approval(address indexed owner, address indexed spender, uint256 value);\\n\\n    /**\\n     * @dev Returns the amount of tokens in existence.\\n     */\\n    function totalSupply() external view returns (uint256);\\n\\n    /**\\n     * @dev Returns the amount of tokens owned by `account`.\\n     */\\n    function balanceOf(address account) external view returns (uint256);\\n\\n    /**\\n     * @dev Moves `amount` tokens from the caller's account to `to`.\\n     *\\n     * Returns a boolean value indicating whether the operation succeeded.\\n     *\\n     * Emits a {Transfer} event.\\n     */\\n    function transfer(address to, uint256 amount) external returns (bool);\\n\\n    /**\\n     * @dev Returns the remaining number of tokens that `spender` will be\\n     * allowed to spend on behalf of `owner` through {transferFrom}. This is\\n     * zero by default.\\n     *\\n     * This value changes when {approve} or {transferFrom} are called.\\n     */\\n    function allowance(address owner, address spender) external view returns (uint256);\\n\\n    /**\\n     * @dev Sets `amount` as the allowance of `spender` over the caller's tokens.\\n     *\\n     * Returns a boolean value indicating whether the operation succeeded.\\n     *\\n     * IMPORTANT: Beware that changing an allowance with this method brings the risk\\n     * that someone may use both the old and the new allowance by unfortunate\\n     * transaction ordering. One possible solution to mitigate this race\\n     * condition is to first reduce the spender's allowance to 0 and set the\\n     * desired value afterwards:\\n     * https://github.com/ethereum/EIPs/issues/20#issuecomment-263524729\\n     *\\n     * Emits an {Approval} event.\\n     */\\n    function approve(address spender, uint256 amount) external returns (bool);\\n\\n    /**\\n     * @dev Moves `amount` tokens from `from` to `to` using the\\n     * allowance mechanism. `amount` is then deducted from the caller's\\n     * allowance.\\n     *\\n     * Returns a boolean value indicating whether the operation succeeded.\\n     *\\n     * Emits a {Transfer} event.\\n     */\\n    function transferFrom(address from, address to, uint256 amount) external returns (bool);\\n}\\n\"}},\"settings\":{\"optimizer\":{\"enabled\":false,\"runs\":200},\"outputSelection\":{\"*\":{\"\":[\"ast\"],\"*\":[\"abi\",\"metadata\",\"devdoc\",\"userdoc\",\"storageLayout\",\"evm.legacyAssembly\",\"evm.bytecode\",\"evm.deployedBytecode\",\"evm.methodIdentifiers\",\"evm.gasEstimates\",\"evm.assembly\"]}}}}",
  "name": "LanguageDAOToken",
  "bytecode": {
    "linkReferences": {},
    "object": "60806040526509184e72a0006008553480156200001b57600080fd5b50604051620021eb380380620021eb833981810160405281019062000041919062000485565b828281600390805190602001906200005b92919062000340565b5080600490805190602001906200007492919062000340565b505050620000976200008b620000fa60201b60201c565b6200010260201b60201c565b33600660006101000a81548173ffffffffffffffffffffffffffffffffffffffff021916908373ffffffffffffffffffffffffffffffffffffffff16021790555080600781905550620000f13382620001c860201b60201c565b50505062000804565b600033905090565b6000600560009054906101000a900473ffffffffffffffffffffffffffffffffffffffff16905081600560006101000a81548173ffffffffffffffffffffffffffffffffffffffff021916908373ffffffffffffffffffffffffffffffffffffffff1602179055508173ffffffffffffffffffffffffffffffffffffffff168173ffffffffffffffffffffffffffffffffffffffff167f8be0079c531659141344cd1fd0a4f28419497f9722a3daafe3b4186f6b6457e060405160405180910390a35050565b600073ffffffffffffffffffffffffffffffffffffffff168273ffffffffffffffffffffffffffffffffffffffff1614156200023b576040517f08c379a0000000000000000000000000000000000000000000000000000000008152600401620002329062000557565b60405180910390fd5b6200024f600083836200033660201b60201c565b806002600082825462000263919062000606565b92505081905550806000808473ffffffffffffffffffffffffffffffffffffffff1673ffffffffffffffffffffffffffffffffffffffff168152602001908152602001600020600082825401925050819055508173ffffffffffffffffffffffffffffffffffffffff16600073ffffffffffffffffffffffffffffffffffffffff167fddf252ad1be2c89b69c2b068fc378daa952ba7f163c4a11628f55a4df523b3ef8360405162000316919062000579565b60405180910390a362000332600083836200033b60201b60201c565b5050565b505050565b505050565b8280546200034e90620006a3565b90600052602060002090601f016020900481019282620003725760008555620003be565b82601f106200038d57805160ff1916838001178555620003be565b82800160010185558215620003be579182015b82811115620003bd578251825591602001919060010190620003a0565b5b509050620003cd9190620003d1565b5090565b5b80821115620003ec576000816000905550600101620003d2565b5090565b6000620004076200040184620005bf565b62000596565b905082815260208101848484011115620004265762000425620007a1565b5b620004338482856200066d565b509392505050565b600082601f8301126200045357620004526200079c565b5b815162000465848260208601620003f0565b91505092915050565b6000815190506200047f81620007ea565b92915050565b600080600060608486031215620004a157620004a0620007ab565b5b600084015167ffffffffffffffff811115620004c257620004c1620007a6565b5b620004d0868287016200043b565b935050602084015167ffffffffffffffff811115620004f457620004f3620007a6565b5b62000502868287016200043b565b925050604062000515868287016200046e565b9150509250925092565b60006200052e601f83620005f5565b91506200053b82620007c1565b602082019050919050565b620005518162000663565b82525050565b6000602082019050818103600083015262000572816200051f565b9050919050565b600060208201905062000590600083018462000546565b92915050565b6000620005a2620005b5565b9050620005b08282620006d9565b919050565b6000604051905090565b600067ffffffffffffffff821115620005dd57620005dc6200076d565b5b620005e882620007b0565b9050602081019050919050565b600082825260208201905092915050565b6000620006138262000663565b9150620006208362000663565b9250827fffffffffffffffffffffffffffffffffffffffffffffffffffffffffffffffff038211156200065857620006576200070f565b5b828201905092915050565b6000819050919050565b60005b838110156200068d57808201518184015260208101905062000670565b838111156200069d576000848401525b50505050565b60006002820490506001821680620006bc57607f821691505b60208210811415620006d357620006d26200073e565b5b50919050565b620006e482620007b0565b810181811067ffffffffffffffff821117156200070657620007056200076d565b5b80604052505050565b7f4e487b7100000000000000000000000000000000000000000000000000000000600052601160045260246000fd5b7f4e487b7100000000000000000000000000000000000000000000000000000000600052602260045260246000fd5b7f4e487b7100000000000000000000000000000000000000000000000000000000600052604160045260246000fd5b600080fd5b600080fd5b600080fd5b600080fd5b6000601f19601f8301169050919050565b7f45524332303a206d696e7420746f20746865207a65726f206164647265737300600082015250565b620007f58162000663565b81146200080157600080fd5b50565b6119d780620008146000396000f3fe6080604052600436106101145760003560e01c806370a08231116100a05780639605f505116100645780639605f505146103a3578063a457c2d7146103bf578063a9059cbb146103fc578063dd62ed3e14610439578063f2fde38b1461047657610114565b806370a08231146102d0578063715018a61461030d5780638da5cb5b146103245780638ecb987e1461034f57806395d89b411461037857610114565b8063313ce567116100e7578063313ce567146101e957806339509351146102145780634b94f50e146102515780636e9960c31461027c578063704b6c02146102a757610114565b806306fdde0314610119578063095ea7b31461014457806318160ddd1461018157806323b872dd146101ac575b600080fd5b34801561012557600080fd5b5061012e61049f565b60405161013b91906113c9565b60405180910390f35b34801561015057600080fd5b5061016b600480360381019061016691906110e0565b610531565b60405161017891906113ae565b60405180910390f35b34801561018d57600080fd5b50610196610554565b6040516101a3919061150b565b60405180910390f35b3480156101b857600080fd5b506101d360048036038101906101ce919061108d565b61055e565b6040516101e091906113ae565b60405180910390f35b3480156101f557600080fd5b506101fe61058d565b60405161020b9190611526565b60405180910390f35b34801561022057600080fd5b5061023b600480360381019061023691906110e0565b610596565b60405161024891906113ae565b60405180910390f35b34801561025d57600080fd5b506102666105cd565b604051610273919061150b565b60405180910390f35b34801561028857600080fd5b506102916105d7565b60405161029e919061136a565b60405180910390f35b3480156102b357600080fd5b506102ce60048036038101906102c99190611020565b610601565b005b3480156102dc57600080fd5b506102f760048036038101906102f29190611020565b61064d565b604051610304919061150b565b60405180910390f35b34801561031957600080fd5b50610322610695565b005b34801561033057600080fd5b506103396106a9565b604051610346919061136a565b60405180910390f35b34801561035b57600080fd5b506103766004803603810190610371919061114d565b6106d3565b005b34801561038457600080fd5b5061038d6106e5565b60405161039a91906113c9565b60405180910390f35b6103bd60048036038101906103b8919061117a565b610777565b005b3480156103cb57600080fd5b506103e660048036038101906103e191906110e0565b610817565b6040516103f391906113ae565b60405180910390f35b34801561040857600080fd5b50610423600480360381019061041e91906110e0565b61088e565b60405161043091906113ae565b60405180910390f35b34801561044557600080fd5b50610460600480360381019061045b919061104d565b6108b1565b60405161046d919061150b565b60405180910390f35b34801561048257600080fd5b5061049d60048036038101906104989190611020565b610938565b005b6060600380546104ae9061163b565b80601f01602080910402602001604051908101604052809291908181526020018280546104da9061163b565b80156105275780601f106104fc57610100808354040283529160200191610527565b820191906000526020600020905b81548152906001019060200180831161050a57829003601f168201915b5050505050905090565b60008061053c6109bc565b90506105498185856109c4565b600191505092915050565b6000600254905090565b6000806105696109bc565b9050610576858285610b8f565b610581858585610c1b565b60019150509392505050565b60006012905090565b6000806105a16109bc565b90506105c28185856105b385896108b1565b6105bd919061155d565b6109c4565b600191505092915050565b6000600854905090565b6000600660009054906101000a900473ffffffffffffffffffffffffffffffffffffffff16905090565b610609610e93565b80600660006101000a81548173ffffffffffffffffffffffffffffffffffffffff021916908373ffffffffffffffffffffffffffffffffffffffff16021790555050565b60008060008373ffffffffffffffffffffffffffffffffffffffff1673ffffffffffffffffffffffffffffffffffffffff168152602001908152602001600020549050919050565b61069d610e93565b6106a76000610f11565b565b6000600560009054906101000a900473ffffffffffffffffffffffffffffffffffffffff16905090565b6106db610e93565b8060088190555050565b6060600480546106f49061163b565b80601f01602080910402602001604051908101604052809291908181526020018280546107209061163b565b801561076d5780601f106107425761010080835404028352916020019161076d565b820191906000526020600020905b81548152906001019060200180831161075057829003601f168201915b5050505050905090565b61077f610e93565b60008190508073ffffffffffffffffffffffffffffffffffffffff1663a9059cbb33856040518363ffffffff1660e01b81526004016107bf929190611385565b602060405180830381600087803b1580156107d957600080fd5b505af11580156107ed573d6000803e3d6000fd5b505050506040513d601f19601f820116820180604052508101906108119190611120565b50505050565b6000806108226109bc565b9050600061083082866108b1565b905083811015610875576040517f08c379a000000000000000000000000000000000000000000000000000000000815260040161086c906114eb565b60405180910390fd5b61088282868684036109c4565b60019250505092915050565b6000806108996109bc565b90506108a6818585610c1b565b600191505092915050565b6000600160008473ffffffffffffffffffffffffffffffffffffffff1673ffffffffffffffffffffffffffffffffffffffff16815260200190815260200160002060008373ffffffffffffffffffffffffffffffffffffffff1673ffffffffffffffffffffffffffffffffffffffff16815260200190815260200160002054905092915050565b610940610e93565b600073ffffffffffffffffffffffffffffffffffffffff168173ffffffffffffffffffffffffffffffffffffffff1614156109b0576040517f08c379a00000000000000000000000000000000000000000000000000000000081526004016109a79061140b565b60405180910390fd5b6109b981610f11565b50565b600033905090565b600073ffffffffffffffffffffffffffffffffffffffff168373ffffffffffffffffffffffffffffffffffffffff161415610a34576040517f08c379a0000000000000000000000000000000000000000000000000000000008152600401610a2b906114cb565b60405180910390fd5b600073ffffffffffffffffffffffffffffffffffffffff168273ffffffffffffffffffffffffffffffffffffffff161415610aa4576040517f08c379a0000000000000000000000000000000000000000000000000000000008152600401610a9b9061142b565b60405180910390fd5b80600160008573ffffffffffffffffffffffffffffffffffffffff1673ffffffffffffffffffffffffffffffffffffffff16815260200190815260200160002060008473ffffffffffffffffffffffffffffffffffffffff1673ffffffffffffffffffffffffffffffffffffffff168152602001908152602001600020819055508173ffffffffffffffffffffffffffffffffffffffff168373ffffffffffffffffffffffffffffffffffffffff167f8c5be1e5ebec7d5bd14f71427d1e84f3dd0314c0f7b2291e5b200ac8c7c3b92583604051610b82919061150b565b60405180910390a3505050565b6000610b9b84846108b1565b90507fffffffffffffffffffffffffffffffffffffffffffffffffffffffffffffffff8114610c155781811015610c07576040517f08c379a0000000000000000000000000000000000000000000000000000000008152600401610bfe9061144b565b60405180910390fd5b610c1484848484036109c4565b5b50505050565b600073ffffffffffffffffffffffffffffffffffffffff168373ffffffffffffffffffffffffffffffffffffffff161415610c8b576040517f08c379a0000000000000000000000000000000000000000000000000000000008152600401610c82906114ab565b60405180910390fd5b600073ffffffffffffffffffffffffffffffffffffffff168273ffffffffffffffffffffffffffffffffffffffff161415610cfb576040517f08c379a0000000000000000000000000000000000000000000000000000000008152600401610cf2906113eb565b60405180910390fd5b610d06838383610fd7565b60008060008573ffffffffffffffffffffffffffffffffffffffff1673ffffffffffffffffffffffffffffffffffffffff16815260200190815260200160002054905081811015610d8c576040517f08c379a0000000000000000000000000000000000000000000000000000000008152600401610d839061146b565b60405180910390fd5b8181036000808673ffffffffffffffffffffffffffffffffffffffff1673ffffffffffffffffffffffffffffffffffffffff16815260200190815260200160002081905550816000808573ffffffffffffffffffffffffffffffffffffffff1673ffffffffffffffffffffffffffffffffffffffff168152602001908152602001600020600082825401925050819055508273ffffffffffffffffffffffffffffffffffffffff168473ffffffffffffffffffffffffffffffffffffffff167fddf252ad1be2c89b69c2b068fc378daa952ba7f163c4a11628f55a4df523b3ef84604051610e7a919061150b565b60405180910390a3610e8d848484610fdc565b50505050565b610e9b6109bc565b73ffffffffffffffffffffffffffffffffffffffff16610eb96106a9565b73ffffffffffffffffffffffffffffffffffffffff1614610f0f576040517f08c379a0000000000000000000000000000000000000000000000000000000008152600401610f069061148b565b60405180910390fd5b565b6000600560009054906101000a900473ffffffffffffffffffffffffffffffffffffffff16905081600560006101000a81548173ffffffffffffffffffffffffffffffffffffffff021916908373ffffffffffffffffffffffffffffffffffffffff1602179055508173ffffffffffffffffffffffffffffffffffffffff168173ffffffffffffffffffffffffffffffffffffffff167f8be0079c531659141344cd1fd0a4f28419497f9722a3daafe3b4186f6b6457e060405160405180910390a35050565b505050565b505050565b600081359050610ff08161195c565b92915050565b60008151905061100581611973565b92915050565b60008135905061101a8161198a565b92915050565b600060208284031215611036576110356116cb565b5b600061104484828501610fe1565b91505092915050565b60008060408385031215611064576110636116cb565b5b600061107285828601610fe1565b925050602061108385828601610fe1565b9150509250929050565b6000806000606084860312156110a6576110a56116cb565b5b60006110b486828701610fe1565b93505060206110c586828701610fe1565b92505060406110d68682870161100b565b9150509250925092565b600080604083850312156110f7576110f66116cb565b5b600061110585828601610fe1565b92505060206111168582860161100b565b9150509250929050565b600060208284031215611136576111356116cb565b5b600061114484828501610ff6565b91505092915050565b600060208284031215611163576111626116cb565b5b60006111718482850161100b565b91505092915050565b60008060408385031215611191576111906116cb565b5b600061119f8582860161100b565b92505060206111b085828601610fe1565b9150509250929050565b6111c3816115b3565b82525050565b6111d2816115c5565b82525050565b60006111e382611541565b6111ed818561154c565b93506111fd818560208601611608565b611206816116d0565b840191505092915050565b600061121e60238361154c565b9150611229826116e1565b604082019050919050565b600061124160268361154c565b915061124c82611730565b604082019050919050565b600061126460228361154c565b915061126f8261177f565b604082019050919050565b6000611287601d8361154c565b9150611292826117ce565b602082019050919050565b60006112aa60268361154c565b91506112b5826117f7565b604082019050919050565b60006112cd60208361154c565b91506112d882611846565b602082019050919050565b60006112f060258361154c565b91506112fb8261186f565b604082019050919050565b600061131360248361154c565b915061131e826118be565b604082019050919050565b600061133660258361154c565b91506113418261190d565b604082019050919050565b611355816115f1565b82525050565b611364816115fb565b82525050565b600060208201905061137f60008301846111ba565b92915050565b600060408201905061139a60008301856111ba565b6113a7602083018461134c565b9392505050565b60006020820190506113c360008301846111c9565b92915050565b600060208201905081810360008301526113e381846111d8565b905092915050565b6000602082019050818103600083015261140481611211565b9050919050565b6000602082019050818103600083015261142481611234565b9050919050565b6000602082019050818103600083015261144481611257565b9050919050565b600060208201905081810360008301526114648161127a565b9050919050565b600060208201905081810360008301526114848161129d565b9050919050565b600060208201905081810360008301526114a4816112c0565b9050919050565b600060208201905081810360008301526114c4816112e3565b9050919050565b600060208201905081810360008301526114e481611306565b9050919050565b6000602082019050818103600083015261150481611329565b9050919050565b6000602082019050611520600083018461134c565b92915050565b600060208201905061153b600083018461135b565b92915050565b600081519050919050565b600082825260208201905092915050565b6000611568826115f1565b9150611573836115f1565b9250827fffffffffffffffffffffffffffffffffffffffffffffffffffffffffffffffff038211156115a8576115a761166d565b5b828201905092915050565b60006115be826115d1565b9050919050565b60008115159050919050565b600073ffffffffffffffffffffffffffffffffffffffff82169050919050565b6000819050919050565b600060ff82169050919050565b60005b8381101561162657808201518184015260208101905061160b565b83811115611635576000848401525b50505050565b6000600282049050600182168061165357607f821691505b602082108114156116675761166661169c565b5b50919050565b7f4e487b7100000000000000000000000000000000000000000000000000000000600052601160045260246000fd5b7f4e487b7100000000000000000000000000000000000000000000000000000000600052602260045260246000fd5b600080fd5b6000601f19601f8301169050919050565b7f45524332303a207472616e7366657220746f20746865207a65726f206164647260008201527f6573730000000000000000000000000000000000000000000000000000000000602082015250565b7f4f776e61626c653a206e6577206f776e657220697320746865207a65726f206160008201527f6464726573730000000000000000000000000000000000000000000000000000602082015250565b7f45524332303a20617070726f766520746f20746865207a65726f20616464726560008201527f7373000000000000000000000000000000000000000000000000000000000000602082015250565b7f45524332303a20696e73756666696369656e7420616c6c6f77616e6365000000600082015250565b7f45524332303a207472616e7366657220616d6f756e742065786365656473206260008201527f616c616e63650000000000000000000000000000000000000000000000000000602082015250565b7f4f776e61626c653a2063616c6c6572206973206e6f7420746865206f776e6572600082015250565b7f45524332303a207472616e736665722066726f6d20746865207a65726f20616460008201527f6472657373000000000000000000000000000000000000000000000000000000602082015250565b7f45524332303a20617070726f76652066726f6d20746865207a65726f2061646460008201527f7265737300000000000000000000000000000000000000000000000000000000602082015250565b7f45524332303a2064656372656173656420616c6c6f77616e63652062656c6f7760008201527f207a65726f000000000000000000000000000000000000000000000000000000602082015250565b611965816115b3565b811461197057600080fd5b50565b61197c816115c5565b811461198757600080fd5b50565b611993816115f1565b811461199e57600080fd5b5056fea26469706673582212207dab9015ad89256769bb5be70d0d9438d654dde19dcecbfc47dc0f04aba04d2e64736f6c63430008070033",
    "opcodes": "PUSH1 0x80 PUSH1 0x40 MSTORE PUSH6 0x9184E72A000 PUSH1 0x8 SSTORE CALLVALUE DUP1 ISZERO PUSH3 0x1B JUMPI PUSH1 0x0 DUP1 REVERT JUMPDEST POP PUSH1 0x40 MLOAD PUSH3 0x21EB CODESIZE SUB DUP1 PUSH3 0x21EB DUP4 CODECOPY DUP2 DUP2 ADD PUSH1 0x40 MSTORE DUP2 ADD SWAP1 PUSH3 0x41 SWAP2 SWAP1 PUSH3 0x485 JUMP JUMPDEST DUP3 DUP3 DUP2 PUSH1 0x3 SWAP1 DUP1 MLOAD SWAP1 PUSH1 0x20 ADD SWAP1 PUSH3 0x5B SWAP3 SWAP2 SWAP1 PUSH3 0x340 JUMP JUMPDEST POP DUP1 PUSH1 0x4 SWAP1 DUP1 MLOAD SWAP1 PUSH1 0x20 ADD SWAP1 PUSH3 0x74 SWAP3 SWAP2 SWAP1 PUSH3 0x340 JUMP JUMPDEST POP POP POP PUSH3 0x97 PUSH3 0x8B PUSH3 0xFA PUSH1 0x20 SHL PUSH1 0x20 SHR JUMP JUMPDEST PUSH3 0x102 PUSH1 0x20 SHL PUSH1 0x20 SHR JUMP JUMPDEST CALLER PUSH1 0x6 PUSH1 0x0 PUSH2 0x100 EXP DUP2 SLOAD DUP2 PUSH20 0xFFFFFFFFFFFFFFFFFFFFFFFFFFFFFFFFFFFFFFFF MUL NOT AND SWAP1 DUP4 PUSH20 0xFFFFFFFFFFFFFFFFFFFFFFFFFFFFFFFFFFFFFFFF AND MUL OR SWAP1 SSTORE POP DUP1 PUSH1 0x7 DUP2 SWAP1 SSTORE POP PUSH3 0xF1 CALLER DUP3 PUSH3 0x1C8 PUSH1 0x20 SHL PUSH1 0x20 SHR JUMP JUMPDEST POP POP POP PUSH3 0x804 JUMP JUMPDEST PUSH1 0x0 CALLER SWAP1 POP SWAP1 JUMP JUMPDEST PUSH1 0x0 PUSH1 0x5 PUSH1 0x0 SWAP1 SLOAD SWAP1 PUSH2 0x100 EXP SWAP1 DIV PUSH20 0xFFFFFFFFFFFFFFFFFFFFFFFFFFFFFFFFFFFFFFFF AND SWAP1 POP DUP2 PUSH1 0x5 PUSH1 0x0 PUSH2 0x100 EXP DUP2 SLOAD DUP2 PUSH20 0xFFFFFFFFFFFFFFFFFFFFFFFFFFFFFFFFFFFFFFFF MUL NOT AND SWAP1 DUP4 PUSH20 0xFFFFFFFFFFFFFFFFFFFFFFFFFFFFFFFFFFFFFFFF AND MUL OR SWAP1 SSTORE POP DUP2 PUSH20 0xFFFFFFFFFFFFFFFFFFFFFFFFFFFFFFFFFFFFFFFF AND DUP2 PUSH20 0xFFFFFFFFFFFFFFFFFFFFFFFFFFFFFFFFFFFFFFFF AND PUSH32 0x8BE0079C531659141344CD1FD0A4F28419497F9722A3DAAFE3B4186F6B6457E0 PUSH1 0x40 MLOAD PUSH1 0x40 MLOAD DUP1 SWAP2 SUB SWAP1 LOG3 POP POP JUMP JUMPDEST PUSH1 0x0 PUSH20 0xFFFFFFFFFFFFFFFFFFFFFFFFFFFFFFFFFFFFFFFF AND DUP3 PUSH20 0xFFFFFFFFFFFFFFFFFFFFFFFFFFFFFFFFFFFFFFFF AND EQ ISZERO PUSH3 0x23B JUMPI PUSH1 0x40 MLOAD PUSH32 0x8C379A000000000000000000000000000000000000000000000000000000000 DUP2 MSTORE PUSH1 0x4 ADD PUSH3 0x232 SWAP1 PUSH3 0x557 JUMP JUMPDEST PUSH1 0x40 MLOAD DUP1 SWAP2 SUB SWAP1 REVERT JUMPDEST PUSH3 0x24F PUSH1 0x0 DUP4 DUP4 PUSH3 0x336 PUSH1 0x20 SHL PUSH1 0x20 SHR JUMP JUMPDEST DUP1 PUSH1 0x2 PUSH1 0x0 DUP3 DUP3 SLOAD PUSH3 0x263 SWAP2 SWAP1 PUSH3 0x606 JUMP JUMPDEST SWAP3 POP POP DUP2 SWAP1 SSTORE POP DUP1 PUSH1 0x0 DUP1 DUP5 PUSH20 0xFFFFFFFFFFFFFFFFFFFFFFFFFFFFFFFFFFFFFFFF AND PUSH20 0xFFFFFFFFFFFFFFFFFFFFFFFFFFFFFFFFFFFFFFFF AND DUP2 MSTORE PUSH1 0x20 ADD SWAP1 DUP2 MSTORE PUSH1 0x20 ADD PUSH1 0x0 KECCAK256 PUSH1 0x0 DUP3 DUP3 SLOAD ADD SWAP3 POP POP DUP2 SWAP1 SSTORE POP DUP2 PUSH20 0xFFFFFFFFFFFFFFFFFFFFFFFFFFFFFFFFFFFFFFFF AND PUSH1 0x0 PUSH20 0xFFFFFFFFFFFFFFFFFFFFFFFFFFFFFFFFFFFFFFFF AND PUSH32 0xDDF252AD1BE2C89B69C2B068FC378DAA952BA7F163C4A11628F55A4DF523B3EF DUP4 PUSH1 0x40 MLOAD PUSH3 0x316 SWAP2 SWAP1 PUSH3 0x579 JUMP JUMPDEST PUSH1 0x40 MLOAD DUP1 SWAP2 SUB SWAP1 LOG3 PUSH3 0x332 PUSH1 0x0 DUP4 DUP4 PUSH3 0x33B PUSH1 0x20 SHL PUSH1 0x20 SHR JUMP JUMPDEST POP POP JUMP JUMPDEST POP POP POP JUMP JUMPDEST POP POP POP JUMP JUMPDEST DUP3 DUP1 SLOAD PUSH3 0x34E SWAP1 PUSH3 0x6A3 JUMP JUMPDEST SWAP1 PUSH1 0x0 MSTORE PUSH1 0x20 PUSH1 0x0 KECCAK256 SWAP1 PUSH1 0x1F ADD PUSH1 0x20 SWAP1 DIV DUP2 ADD SWAP3 DUP3 PUSH3 0x372 JUMPI PUSH1 0x0 DUP6 SSTORE PUSH3 0x3BE JUMP JUMPDEST DUP3 PUSH1 0x1F LT PUSH3 0x38D JUMPI DUP1 MLOAD PUSH1 0xFF NOT AND DUP4 DUP1 ADD OR DUP6 SSTORE PUSH3 0x3BE JUMP JUMPDEST DUP3 DUP1 ADD PUSH1 0x1 ADD DUP6 SSTORE DUP3 ISZERO PUSH3 0x3BE JUMPI SWAP2 DUP3 ADD JUMPDEST DUP3 DUP2 GT ISZERO PUSH3 0x3BD JUMPI DUP3 MLOAD DUP3 SSTORE SWAP2 PUSH1 0x20 ADD SWAP2 SWAP1 PUSH1 0x1 ADD SWAP1 PUSH3 0x3A0 JUMP JUMPDEST JUMPDEST POP SWAP1 POP PUSH3 0x3CD SWAP2 SWAP1 PUSH3 0x3D1 JUMP JUMPDEST POP SWAP1 JUMP JUMPDEST JUMPDEST DUP1 DUP3 GT ISZERO PUSH3 0x3EC JUMPI PUSH1 0x0 DUP2 PUSH1 0x0 SWAP1 SSTORE POP PUSH1 0x1 ADD PUSH3 0x3D2 JUMP JUMPDEST POP SWAP1 JUMP JUMPDEST PUSH1 0x0 PUSH3 0x407 PUSH3 0x401 DUP5 PUSH3 0x5BF JUMP JUMPDEST PUSH3 0x596 JUMP JUMPDEST SWAP1 POP DUP3 DUP2 MSTORE PUSH1 0x20 DUP2 ADD DUP5 DUP5 DUP5 ADD GT ISZERO PUSH3 0x426 JUMPI PUSH3 0x425 PUSH3 0x7A1 JUMP JUMPDEST JUMPDEST PUSH3 0x433 DUP5 DUP3 DUP6 PUSH3 0x66D JUMP JUMPDEST POP SWAP4 SWAP3 POP POP POP JUMP JUMPDEST PUSH1 0x0 DUP3 PUSH1 0x1F DUP4 ADD SLT PUSH3 0x453 JUMPI PUSH3 0x452 PUSH3 0x79C JUMP JUMPDEST JUMPDEST DUP2 MLOAD PUSH3 0x465 DUP5 DUP3 PUSH1 0x20 DUP7 ADD PUSH3 0x3F0 JUMP JUMPDEST SWAP2 POP POP SWAP3 SWAP2 POP POP JUMP JUMPDEST PUSH1 0x0 DUP2 MLOAD SWAP1 POP PUSH3 0x47F DUP2 PUSH3 0x7EA JUMP JUMPDEST SWAP3 SWAP2 POP POP JUMP JUMPDEST PUSH1 0x0 DUP1 PUSH1 0x0 PUSH1 0x60 DUP5 DUP7 SUB SLT ISZERO PUSH3 0x4A1 JUMPI PUSH3 0x4A0 PUSH3 0x7AB JUMP JUMPDEST JUMPDEST PUSH1 0x0 DUP5 ADD MLOAD PUSH8 0xFFFFFFFFFFFFFFFF DUP2 GT ISZERO PUSH3 0x4C2 JUMPI PUSH3 0x4C1 PUSH3 0x7A6 JUMP JUMPDEST JUMPDEST PUSH3 0x4D0 DUP7 DUP3 DUP8 ADD PUSH3 0x43B JUMP JUMPDEST SWAP4 POP POP PUSH1 0x20 DUP5 ADD MLOAD PUSH8 0xFFFFFFFFFFFFFFFF DUP2 GT ISZERO PUSH3 0x4F4 JUMPI PUSH3 0x4F3 PUSH3 0x7A6 JUMP JUMPDEST JUMPDEST PUSH3 0x502 DUP7 DUP3 DUP8 ADD PUSH3 0x43B JUMP JUMPDEST SWAP3 POP POP PUSH1 0x40 PUSH3 0x515 DUP7 DUP3 DUP8 ADD PUSH3 0x46E JUMP JUMPDEST SWAP2 POP POP SWAP3 POP SWAP3 POP SWAP3 JUMP JUMPDEST PUSH1 0x0 PUSH3 0x52E PUSH1 0x1F DUP4 PUSH3 0x5F5 JUMP JUMPDEST SWAP2 POP PUSH3 0x53B DUP3 PUSH3 0x7C1 JUMP JUMPDEST PUSH1 0x20 DUP3 ADD SWAP1 POP SWAP2 SWAP1 POP JUMP JUMPDEST PUSH3 0x551 DUP2 PUSH3 0x663 JUMP JUMPDEST DUP3 MSTORE POP POP JUMP JUMPDEST PUSH1 0x0 PUSH1 0x20 DUP3 ADD SWAP1 POP DUP2 DUP2 SUB PUSH1 0x0 DUP4 ADD MSTORE PUSH3 0x572 DUP2 PUSH3 0x51F JUMP JUMPDEST SWAP1 POP SWAP2 SWAP1 POP JUMP JUMPDEST PUSH1 0x0 PUSH1 0x20 DUP3 ADD SWAP1 POP PUSH3 0x590 PUSH1 0x0 DUP4 ADD DUP5 PUSH3 0x546 JUMP JUMPDEST SWAP3 SWAP2 POP POP JUMP JUMPDEST PUSH1 0x0 PUSH3 0x5A2 PUSH3 0x5B5 JUMP JUMPDEST SWAP1 POP PUSH3 0x5B0 DUP3 DUP3 PUSH3 0x6D9 JUMP JUMPDEST SWAP2 SWAP1 POP JUMP JUMPDEST PUSH1 0x0 PUSH1 0x40 MLOAD SWAP1 POP SWAP1 JUMP JUMPDEST PUSH1 0x0 PUSH8 0xFFFFFFFFFFFFFFFF DUP3 GT ISZERO PUSH3 0x5DD JUMPI PUSH3 0x5DC PUSH3 0x76D JUMP JUMPDEST JUMPDEST PUSH3 0x5E8 DUP3 PUSH3 0x7B0 JUMP JUMPDEST SWAP1 POP PUSH1 0x20 DUP2 ADD SWAP1 POP SWAP2 SWAP1 POP JUMP JUMPDEST PUSH1 0x0 DUP3 DUP3 MSTORE PUSH1 0x20 DUP3 ADD SWAP1 POP SWAP3 SWAP2 POP POP JUMP JUMPDEST PUSH1 0x0 PUSH3 0x613 DUP3 PUSH3 0x663 JUMP JUMPDEST SWAP2 POP PUSH3 0x620 DUP4 PUSH3 0x663 JUMP JUMPDEST SWAP3 POP DUP3 PUSH32 0xFFFFFFFFFFFFFFFFFFFFFFFFFFFFFFFFFFFFFFFFFFFFFFFFFFFFFFFFFFFFFFFF SUB DUP3 GT ISZERO PUSH3 0x658 JUMPI PUSH3 0x657 PUSH3 0x70F JUMP JUMPDEST JUMPDEST DUP3 DUP3 ADD SWAP1 POP SWAP3 SWAP2 POP POP JUMP JUMPDEST PUSH1 0x0 DUP2 SWAP1 POP SWAP2 SWAP1 POP JUMP JUMPDEST PUSH1 0x0 JUMPDEST DUP4 DUP2 LT ISZERO PUSH3 0x68D JUMPI DUP1 DUP3 ADD MLOAD DUP2 DUP5 ADD MSTORE PUSH1 0x20 DUP2 ADD SWAP1 POP PUSH3 0x670 JUMP JUMPDEST DUP4 DUP2 GT ISZERO PUSH3 0x69D JUMPI PUSH1 0x0 DUP5 DUP5 ADD MSTORE JUMPDEST POP POP POP POP JUMP JUMPDEST PUSH1 0x0 PUSH1 0x2 DUP3 DIV SWAP1 POP PUSH1 0x1 DUP3 AND DUP1 PUSH3 0x6BC JUMPI PUSH1 0x7F DUP3 AND SWAP2 POP JUMPDEST PUSH1 0x20 DUP3 LT DUP2 EQ ISZERO PUSH3 0x6D3 JUMPI PUSH3 0x6D2 PUSH3 0x73E JUMP JUMPDEST JUMPDEST POP SWAP2 SWAP1 POP JUMP JUMPDEST PUSH3 0x6E4 DUP3 PUSH3 0x7B0 JUMP JUMPDEST DUP2 ADD DUP2 DUP2 LT PUSH8 0xFFFFFFFFFFFFFFFF DUP3 GT OR ISZERO PUSH3 0x706 JUMPI PUSH3 0x705 PUSH3 0x76D JUMP JUMPDEST JUMPDEST DUP1 PUSH1 0x40 MSTORE POP POP POP JUMP JUMPDEST PUSH32 0x4E487B7100000000000000000000000000000000000000000000000000000000 PUSH1 0x0 MSTORE PUSH1 0x11 PUSH1 0x4 MSTORE PUSH1 0x24 PUSH1 0x0 REVERT JUMPDEST PUSH32 0x4E487B7100000000000000000000000000000000000000000000000000000000 PUSH1 0x0 MSTORE PUSH1 0x22 PUSH1 0x4 MSTORE PUSH1 0x24 PUSH1 0x0 REVERT JUMPDEST PUSH32 0x4E487B7100000000000000000000000000000000000000000000000000000000 PUSH1 0x0 MSTORE PUSH1 0x41 PUSH1 0x4 MSTORE PUSH1 0x24 PUSH1 0x0 REVERT JUMPDEST PUSH1 0x0 DUP1 REVERT JUMPDEST PUSH1 0x0 DUP1 REVERT JUMPDEST PUSH1 0x0 DUP1 REVERT JUMPDEST PUSH1 0x0 DUP1 REVERT JUMPDEST PUSH1 0x0 PUSH1 0x1F NOT PUSH1 0x1F DUP4 ADD AND SWAP1 POP SWAP2 SWAP1 POP JUMP JUMPDEST PUSH32 0x45524332303A206D696E7420746F20746865207A65726F206164647265737300 PUSH1 0x0 DUP3 ADD MSTORE POP JUMP JUMPDEST PUSH3 0x7F5 DUP2 PUSH3 0x663 JUMP JUMPDEST DUP2 EQ PUSH3 0x801 JUMPI PUSH1 0x0 DUP1 REVERT JUMPDEST POP JUMP JUMPDEST PUSH2 0x19D7 DUP1 PUSH3 0x814 PUSH1 0x0 CODECOPY PUSH1 0x0 RETURN INVALID PUSH1 0x80 PUSH1 0x40 MSTORE PUSH1 0x4 CALLDATASIZE LT PUSH2 0x114 JUMPI PUSH1 0x0 CALLDATALOAD PUSH1 0xE0 SHR DUP1 PUSH4 0x70A08231 GT PUSH2 0xA0 JUMPI DUP1 PUSH4 0x9605F505 GT PUSH2 0x64 JUMPI DUP1 PUSH4 0x9605F505 EQ PUSH2 0x3A3 JUMPI DUP1 PUSH4 0xA457C2D7 EQ PUSH2 0x3BF JUMPI DUP1 PUSH4 0xA9059CBB EQ PUSH2 0x3FC JUMPI DUP1 PUSH4 0xDD62ED3E EQ PUSH2 0x439 JUMPI DUP1 PUSH4 0xF2FDE38B EQ PUSH2 0x476 JUMPI PUSH2 0x114 JUMP JUMPDEST DUP1 PUSH4 0x70A08231 EQ PUSH2 0x2D0 JUMPI DUP1 PUSH4 0x715018A6 EQ PUSH2 0x30D JUMPI DUP1 PUSH4 0x8DA5CB5B EQ PUSH2 0x324 JUMPI DUP1 PUSH4 0x8ECB987E EQ PUSH2 0x34F JUMPI DUP1 PUSH4 0x95D89B41 EQ PUSH2 0x378 JUMPI PUSH2 0x114 JUMP JUMPDEST DUP1 PUSH4 0x313CE567 GT PUSH2 0xE7 JUMPI DUP1 PUSH4 0x313CE567 EQ PUSH2 0x1E9 JUMPI DUP1 PUSH4 0x39509351 EQ PUSH2 0x214 JUMPI DUP1 PUSH4 0x4B94F50E EQ PUSH2 0x251 JUMPI DUP1 PUSH4 0x6E9960C3 EQ PUSH2 0x27C JUMPI DUP1 PUSH4 0x704B6C02 EQ PUSH2 0x2A7 JUMPI PUSH2 0x114 JUMP JUMPDEST DUP1 PUSH4 0x6FDDE03 EQ PUSH2 0x119 JUMPI DUP1 PUSH4 0x95EA7B3 EQ PUSH2 0x144 JUMPI DUP1 PUSH4 0x18160DDD EQ PUSH2 0x181 JUMPI DUP1 PUSH4 0x23B872DD EQ PUSH2 0x1AC JUMPI JUMPDEST PUSH1 0x0 DUP1 REVERT JUMPDEST CALLVALUE DUP1 ISZERO PUSH2 0x125 JUMPI PUSH1 0x0 DUP1 REVERT JUMPDEST POP PUSH2 0x12E PUSH2 0x49F JUMP JUMPDEST PUSH1 0x40 MLOAD PUSH2 0x13B SWAP2 SWAP1 PUSH2 0x13C9 JUMP JUMPDEST PUSH1 0x40 MLOAD DUP1 SWAP2 SUB SWAP1 RETURN JUMPDEST CALLVALUE DUP1 ISZERO PUSH2 0x150 JUMPI PUSH1 0x0 DUP1 REVERT JUMPDEST POP PUSH2 0x16B PUSH1 0x4 DUP1 CALLDATASIZE SUB DUP2 ADD SWAP1 PUSH2 0x166 SWAP2 SWAP1 PUSH2 0x10E0 JUMP JUMPDEST PUSH2 0x531 JUMP JUMPDEST PUSH1 0x40 MLOAD PUSH2 0x178 SWAP2 SWAP1 PUSH2 0x13AE JUMP JUMPDEST PUSH1 0x40 MLOAD DUP1 SWAP2 SUB SWAP1 RETURN JUMPDEST CALLVALUE DUP1 ISZERO PUSH2 0x18D JUMPI PUSH1 0x0 DUP1 REVERT JUMPDEST POP PUSH2 0x196 PUSH2 0x554 JUMP JUMPDEST PUSH1 0x40 MLOAD PUSH2 0x1A3 SWAP2 SWAP1 PUSH2 0x150B JUMP JUMPDEST PUSH1 0x40 MLOAD DUP1 SWAP2 SUB SWAP1 RETURN JUMPDEST CALLVALUE DUP1 ISZERO PUSH2 0x1B8 JUMPI PUSH1 0x0 DUP1 REVERT JUMPDEST POP PUSH2 0x1D3 PUSH1 0x4 DUP1 CALLDATASIZE SUB DUP2 ADD SWAP1 PUSH2 0x1CE SWAP2 SWAP1 PUSH2 0x108D JUMP JUMPDEST PUSH2 0x55E JUMP JUMPDEST PUSH1 0x40 MLOAD PUSH2 0x1E0 SWAP2 SWAP1 PUSH2 0x13AE JUMP JUMPDEST PUSH1 0x40 MLOAD DUP1 SWAP2 SUB SWAP1 RETURN JUMPDEST CALLVALUE DUP1 ISZERO PUSH2 0x1F5 JUMPI PUSH1 0x0 DUP1 REVERT JUMPDEST POP PUSH2 0x1FE PUSH2 0x58D JUMP JUMPDEST PUSH1 0x40 MLOAD PUSH2 0x20B SWAP2 SWAP1 PUSH2 0x1526 JUMP JUMPDEST PUSH1 0x40 MLOAD DUP1 SWAP2 SUB SWAP1 RETURN JUMPDEST CALLVALUE DUP1 ISZERO PUSH2 0x220 JUMPI PUSH1 0x0 DUP1 REVERT JUMPDEST POP PUSH2 0x23B PUSH1 0x4 DUP1 CALLDATASIZE SUB DUP2 ADD SWAP1 PUSH2 0x236 SWAP2 SWAP1 PUSH2 0x10E0 JUMP JUMPDEST PUSH2 0x596 JUMP JUMPDEST PUSH1 0x40 MLOAD PUSH2 0x248 SWAP2 SWAP1 PUSH2 0x13AE JUMP JUMPDEST PUSH1 0x40 MLOAD DUP1 SWAP2 SUB SWAP1 RETURN JUMPDEST CALLVALUE DUP1 ISZERO PUSH2 0x25D JUMPI PUSH1 0x0 DUP1 REVERT JUMPDEST POP PUSH2 0x266 PUSH2 0x5CD JUMP JUMPDEST PUSH1 0x40 MLOAD PUSH2 0x273 SWAP2 SWAP1 PUSH2 0x150B JUMP JUMPDEST PUSH1 0x40 MLOAD DUP1 SWAP2 SUB SWAP1 RETURN JUMPDEST CALLVALUE DUP1 ISZERO PUSH2 0x288 JUMPI PUSH1 0x0 DUP1 REVERT JUMPDEST POP PUSH2 0x291 PUSH2 0x5D7 JUMP JUMPDEST PUSH1 0x40 MLOAD PUSH2 0x29E SWAP2 SWAP1 PUSH2 0x136A JUMP JUMPDEST PUSH1 0x40 MLOAD DUP1 SWAP2 SUB SWAP1 RETURN JUMPDEST CALLVALUE DUP1 ISZERO PUSH2 0x2B3 JUMPI PUSH1 0x0 DUP1 REVERT JUMPDEST POP PUSH2 0x2CE PUSH1 0x4 DUP1 CALLDATASIZE SUB DUP2 ADD SWAP1 PUSH2 0x2C9 SWAP2 SWAP1 PUSH2 0x1020 JUMP JUMPDEST PUSH2 0x601 JUMP JUMPDEST STOP JUMPDEST CALLVALUE DUP1 ISZERO PUSH2 0x2DC JUMPI PUSH1 0x0 DUP1 REVERT JUMPDEST POP PUSH2 0x2F7 PUSH1 0x4 DUP1 CALLDATASIZE SUB DUP2 ADD SWAP1 PUSH2 0x2F2 SWAP2 SWAP1 PUSH2 0x1020 JUMP JUMPDEST PUSH2 0x64D JUMP JUMPDEST PUSH1 0x40 MLOAD PUSH2 0x304 SWAP2 SWAP1 PUSH2 0x150B JUMP JUMPDEST PUSH1 0x40 MLOAD DUP1 SWAP2 SUB SWAP1 RETURN JUMPDEST CALLVALUE DUP1 ISZERO PUSH2 0x319 JUMPI PUSH1 0x0 DUP1 REVERT JUMPDEST POP PUSH2 0x322 PUSH2 0x695 JUMP JUMPDEST STOP JUMPDEST CALLVALUE DUP1 ISZERO PUSH2 0x330 JUMPI PUSH1 0x0 DUP1 REVERT JUMPDEST POP PUSH2 0x339 PUSH2 0x6A9 JUMP JUMPDEST PUSH1 0x40 MLOAD PUSH2 0x346 SWAP2 SWAP1 PUSH2 0x136A JUMP JUMPDEST PUSH1 0x40 MLOAD DUP1 SWAP2 SUB SWAP1 RETURN JUMPDEST CALLVALUE DUP1 ISZERO PUSH2 0x35B JUMPI PUSH1 0x0 DUP1 REVERT JUMPDEST POP PUSH2 0x376 PUSH1 0x4 DUP1 CALLDATASIZE SUB DUP2 ADD SWAP1 PUSH2 0x371 SWAP2 SWAP1 PUSH2 0x114D JUMP JUMPDEST PUSH2 0x6D3 JUMP JUMPDEST STOP JUMPDEST CALLVALUE DUP1 ISZERO PUSH2 0x384 JUMPI PUSH1 0x0 DUP1 REVERT JUMPDEST POP PUSH2 0x38D PUSH2 0x6E5 JUMP JUMPDEST PUSH1 0x40 MLOAD PUSH2 0x39A SWAP2 SWAP1 PUSH2 0x13C9 JUMP JUMPDEST PUSH1 0x40 MLOAD DUP1 SWAP2 SUB SWAP1 RETURN JUMPDEST PUSH2 0x3BD PUSH1 0x4 DUP1 CALLDATASIZE SUB DUP2 ADD SWAP1 PUSH2 0x3B8 SWAP2 SWAP1 PUSH2 0x117A JUMP JUMPDEST PUSH2 0x777 JUMP JUMPDEST STOP JUMPDEST CALLVALUE DUP1 ISZERO PUSH2 0x3CB JUMPI PUSH1 0x0 DUP1 REVERT JUMPDEST POP PUSH2 0x3E6 PUSH1 0x4 DUP1 CALLDATASIZE SUB DUP2 ADD SWAP1 PUSH2 0x3E1 SWAP2 SWAP1 PUSH2 0x10E0 JUMP JUMPDEST PUSH2 0x817 JUMP JUMPDEST PUSH1 0x40 MLOAD PUSH2 0x3F3 SWAP2 SWAP1 PUSH2 0x13AE JUMP JUMPDEST PUSH1 0x40 MLOAD DUP1 SWAP2 SUB SWAP1 RETURN JUMPDEST CALLVALUE DUP1 ISZERO PUSH2 0x408 JUMPI PUSH1 0x0 DUP1 REVERT JUMPDEST POP PUSH2 0x423 PUSH1 0x4 DUP1 CALLDATASIZE SUB DUP2 ADD SWAP1 PUSH2 0x41E SWAP2 SWAP1 PUSH2 0x10E0 JUMP JUMPDEST PUSH2 0x88E JUMP JUMPDEST PUSH1 0x40 MLOAD PUSH2 0x430 SWAP2 SWAP1 PUSH2 0x13AE JUMP JUMPDEST PUSH1 0x40 MLOAD DUP1 SWAP2 SUB SWAP1 RETURN JUMPDEST CALLVALUE DUP1 ISZERO PUSH2 0x445 JUMPI PUSH1 0x0 DUP1 REVERT JUMPDEST POP PUSH2 0x460 PUSH1 0x4 DUP1 CALLDATASIZE SUB DUP2 ADD SWAP1 PUSH2 0x45B SWAP2 SWAP1 PUSH2 0x104D JUMP JUMPDEST PUSH2 0x8B1 JUMP JUMPDEST PUSH1 0x40 MLOAD PUSH2 0x46D SWAP2 SWAP1 PUSH2 0x150B JUMP JUMPDEST PUSH1 0x40 MLOAD DUP1 SWAP2 SUB SWAP1 RETURN JUMPDEST CALLVALUE DUP1 ISZERO PUSH2 0x482 JUMPI PUSH1 0x0 DUP1 REVERT JUMPDEST POP PUSH2 0x49D PUSH1 0x4 DUP1 CALLDATASIZE SUB DUP2 ADD SWAP1 PUSH2 0x498 SWAP2 SWAP1 PUSH2 0x1020 JUMP JUMPDEST PUSH2 0x938 JUMP JUMPDEST STOP JUMPDEST PUSH1 0x60 PUSH1 0x3 DUP1 SLOAD PUSH2 0x4AE SWAP1 PUSH2 0x163B JUMP JUMPDEST DUP1 PUSH1 0x1F ADD PUSH1 0x20 DUP1 SWAP2 DIV MUL PUSH1 0x20 ADD PUSH1 0x40 MLOAD SWAP1 DUP2 ADD PUSH1 0x40 MSTORE DUP1 SWAP3 SWAP2 SWAP1 DUP2 DUP2 MSTORE PUSH1 0x20 ADD DUP3 DUP1 SLOAD PUSH2 0x4DA SWAP1 PUSH2 0x163B JUMP JUMPDEST DUP1 ISZERO PUSH2 0x527 JUMPI DUP1 PUSH1 0x1F LT PUSH2 0x4FC JUMPI PUSH2 0x100 DUP1 DUP4 SLOAD DIV MUL DUP4 MSTORE SWAP2 PUSH1 0x20 ADD SWAP2 PUSH2 0x527 JUMP JUMPDEST DUP3 ADD SWAP2 SWAP1 PUSH1 0x0 MSTORE PUSH1 0x20 PUSH1 0x0 KECCAK256 SWAP1 JUMPDEST DUP2 SLOAD DUP2 MSTORE SWAP1 PUSH1 0x1 ADD SWAP1 PUSH1 0x20 ADD DUP1 DUP4 GT PUSH2 0x50A JUMPI DUP3 SWAP1 SUB PUSH1 0x1F AND DUP3 ADD SWAP2 JUMPDEST POP POP POP POP POP SWAP1 POP SWAP1 JUMP JUMPDEST PUSH1 0x0 DUP1 PUSH2 0x53C PUSH2 0x9BC JUMP JUMPDEST SWAP1 POP PUSH2 0x549 DUP2 DUP6 DUP6 PUSH2 0x9C4 JUMP JUMPDEST PUSH1 0x1 SWAP2 POP POP SWAP3 SWAP2 POP POP JUMP JUMPDEST PUSH1 0x0 PUSH1 0x2 SLOAD SWAP1 POP SWAP1 JUMP JUMPDEST PUSH1 0x0 DUP1 PUSH2 0x569 PUSH2 0x9BC JUMP JUMPDEST SWAP1 POP PUSH2 0x576 DUP6 DUP3 DUP6 PUSH2 0xB8F JUMP JUMPDEST PUSH2 0x581 DUP6 DUP6 DUP6 PUSH2 0xC1B JUMP JUMPDEST PUSH1 0x1 SWAP2 POP POP SWAP4 SWAP3 POP POP POP JUMP JUMPDEST PUSH1 0x0 PUSH1 0x12 SWAP1 POP SWAP1 JUMP JUMPDEST PUSH1 0x0 DUP1 PUSH2 0x5A1 PUSH2 0x9BC JUMP JUMPDEST SWAP1 POP PUSH2 0x5C2 DUP2 DUP6 DUP6 PUSH2 0x5B3 DUP6 DUP10 PUSH2 0x8B1 JUMP JUMPDEST PUSH2 0x5BD SWAP2 SWAP1 PUSH2 0x155D JUMP JUMPDEST PUSH2 0x9C4 JUMP JUMPDEST PUSH1 0x1 SWAP2 POP POP SWAP3 SWAP2 POP POP JUMP JUMPDEST PUSH1 0x0 PUSH1 0x8 SLOAD SWAP1 POP SWAP1 JUMP JUMPDEST PUSH1 0x0 PUSH1 0x6 PUSH1 0x0 SWAP1 SLOAD SWAP1 PUSH2 0x100 EXP SWAP1 DIV PUSH20 0xFFFFFFFFFFFFFFFFFFFFFFFFFFFFFFFFFFFFFFFF AND SWAP1 POP SWAP1 JUMP JUMPDEST PUSH2 0x609 PUSH2 0xE93 JUMP JUMPDEST DUP1 PUSH1 0x6 PUSH1 0x0 PUSH2 0x100 EXP DUP2 SLOAD DUP2 PUSH20 0xFFFFFFFFFFFFFFFFFFFFFFFFFFFFFFFFFFFFFFFF MUL NOT AND SWAP1 DUP4 PUSH20 0xFFFFFFFFFFFFFFFFFFFFFFFFFFFFFFFFFFFFFFFF AND MUL OR SWAP1 SSTORE POP POP JUMP JUMPDEST PUSH1 0x0 DUP1 PUSH1 0x0 DUP4 PUSH20 0xFFFFFFFFFFFFFFFFFFFFFFFFFFFFFFFFFFFFFFFF AND PUSH20 0xFFFFFFFFFFFFFFFFFFFFFFFFFFFFFFFFFFFFFFFF AND DUP2 MSTORE PUSH1 0x20 ADD SWAP1 DUP2 MSTORE PUSH1 0x20 ADD PUSH1 0x0 KECCAK256 SLOAD SWAP1 POP SWAP2 SWAP1 POP JUMP JUMPDEST PUSH2 0x69D PUSH2 0xE93 JUMP JUMPDEST PUSH2 0x6A7 PUSH1 0x0 PUSH2 0xF11 JUMP JUMPDEST JUMP JUMPDEST PUSH1 0x0 PUSH1 0x5 PUSH1 0x0 SWAP1 SLOAD SWAP1 PUSH2 0x100 EXP SWAP1 DIV PUSH20 0xFFFFFFFFFFFFFFFFFFFFFFFFFFFFFFFFFFFFFFFF AND SWAP1 POP SWAP1 JUMP JUMPDEST PUSH2 0x6DB PUSH2 0xE93 JUMP JUMPDEST DUP1 PUSH1 0x8 DUP2 SWAP1 SSTORE POP POP JUMP JUMPDEST PUSH1 0x60 PUSH1 0x4 DUP1 SLOAD PUSH2 0x6F4 SWAP1 PUSH2 0x163B JUMP JUMPDEST DUP1 PUSH1 0x1F ADD PUSH1 0x20 DUP1 SWAP2 DIV MUL PUSH1 0x20 ADD PUSH1 0x40 MLOAD SWAP1 DUP2 ADD PUSH1 0x40 MSTORE DUP1 SWAP3 SWAP2 SWAP1 DUP2 DUP2 MSTORE PUSH1 0x20 ADD DUP3 DUP1 SLOAD PUSH2 0x720 SWAP1 PUSH2 0x163B JUMP JUMPDEST DUP1 ISZERO PUSH2 0x76D JUMPI DUP1 PUSH1 0x1F LT PUSH2 0x742 JUMPI PUSH2 0x100 DUP1 DUP4 SLOAD DIV MUL DUP4 MSTORE SWAP2 PUSH1 0x20 ADD SWAP2 PUSH2 0x76D JUMP JUMPDEST DUP3 ADD SWAP2 SWAP1 PUSH1 0x0 MSTORE PUSH1 0x20 PUSH1 0x0 KECCAK256 SWAP1 JUMPDEST DUP2 SLOAD DUP2 MSTORE SWAP1 PUSH1 0x1 ADD SWAP1 PUSH1 0x20 ADD DUP1 DUP4 GT PUSH2 0x750 JUMPI DUP3 SWAP1 SUB PUSH1 0x1F AND DUP3 ADD SWAP2 JUMPDEST POP POP POP POP POP SWAP1 POP SWAP1 JUMP JUMPDEST PUSH2 0x77F PUSH2 0xE93 JUMP JUMPDEST PUSH1 0x0 DUP2 SWAP1 POP DUP1 PUSH20 0xFFFFFFFFFFFFFFFFFFFFFFFFFFFFFFFFFFFFFFFF AND PUSH4 0xA9059CBB CALLER DUP6 PUSH1 0x40 MLOAD DUP4 PUSH4 0xFFFFFFFF AND PUSH1 0xE0 SHL DUP2 MSTORE PUSH1 0x4 ADD PUSH2 0x7BF SWAP3 SWAP2 SWAP1 PUSH2 0x1385 JUMP JUMPDEST PUSH1 0x20 PUSH1 0x40 MLOAD DUP1 DUP4 SUB DUP2 PUSH1 0x0 DUP8 DUP1 EXTCODESIZE ISZERO DUP1 ISZERO PUSH2 0x7D9 JUMPI PUSH1 0x0 DUP1 REVERT JUMPDEST POP GAS CALL ISZERO DUP1 ISZERO PUSH2 0x7ED JUMPI RETURNDATASIZE PUSH1 0x0 DUP1 RETURNDATACOPY RETURNDATASIZE PUSH1 0x0 REVERT JUMPDEST POP POP POP POP PUSH1 0x40 MLOAD RETURNDATASIZE PUSH1 0x1F NOT PUSH1 0x1F DUP3 ADD AND DUP3 ADD DUP1 PUSH1 0x40 MSTORE POP DUP2 ADD SWAP1 PUSH2 0x811 SWAP2 SWAP1 PUSH2 0x1120 JUMP JUMPDEST POP POP POP POP JUMP JUMPDEST PUSH1 0x0 DUP1 PUSH2 0x822 PUSH2 0x9BC JUMP JUMPDEST SWAP1 POP PUSH1 0x0 PUSH2 0x830 DUP3 DUP7 PUSH2 0x8B1 JUMP JUMPDEST SWAP1 POP DUP4 DUP2 LT ISZERO PUSH2 0x875 JUMPI PUSH1 0x40 MLOAD PUSH32 0x8C379A000000000000000000000000000000000000000000000000000000000 DUP2 MSTORE PUSH1 0x4 ADD PUSH2 0x86C SWAP1 PUSH2 0x14EB JUMP JUMPDEST PUSH1 0x40 MLOAD DUP1 SWAP2 SUB SWAP1 REVERT JUMPDEST PUSH2 0x882 DUP3 DUP7 DUP7 DUP5 SUB PUSH2 0x9C4 JUMP JUMPDEST PUSH1 0x1 SWAP3 POP POP POP SWAP3 SWAP2 POP POP JUMP JUMPDEST PUSH1 0x0 DUP1 PUSH2 0x899 PUSH2 0x9BC JUMP JUMPDEST SWAP1 POP PUSH2 0x8A6 DUP2 DUP6 DUP6 PUSH2 0xC1B JUMP JUMPDEST PUSH1 0x1 SWAP2 POP POP SWAP3 SWAP2 POP POP JUMP JUMPDEST PUSH1 0x0 PUSH1 0x1 PUSH1 0x0 DUP5 PUSH20 0xFFFFFFFFFFFFFFFFFFFFFFFFFFFFFFFFFFFFFFFF AND PUSH20 0xFFFFFFFFFFFFFFFFFFFFFFFFFFFFFFFFFFFFFFFF AND DUP2 MSTORE PUSH1 0x20 ADD SWAP1 DUP2 MSTORE PUSH1 0x20 ADD PUSH1 0x0 KECCAK256 PUSH1 0x0 DUP4 PUSH20 0xFFFFFFFFFFFFFFFFFFFFFFFFFFFFFFFFFFFFFFFF AND PUSH20 0xFFFFFFFFFFFFFFFFFFFFFFFFFFFFFFFFFFFFFFFF AND DUP2 MSTORE PUSH1 0x20 ADD SWAP1 DUP2 MSTORE PUSH1 0x20 ADD PUSH1 0x0 KECCAK256 SLOAD SWAP1 POP SWAP3 SWAP2 POP POP JUMP JUMPDEST PUSH2 0x940 PUSH2 0xE93 JUMP JUMPDEST PUSH1 0x0 PUSH20 0xFFFFFFFFFFFFFFFFFFFFFFFFFFFFFFFFFFFFFFFF AND DUP2 PUSH20 0xFFFFFFFFFFFFFFFFFFFFFFFFFFFFFFFFFFFFFFFF AND EQ ISZERO PUSH2 0x9B0 JUMPI PUSH1 0x40 MLOAD PUSH32 0x8C379A000000000000000000000000000000000000000000000000000000000 DUP2 MSTORE PUSH1 0x4 ADD PUSH2 0x9A7 SWAP1 PUSH2 0x140B JUMP JUMPDEST PUSH1 0x40 MLOAD DUP1 SWAP2 SUB SWAP1 REVERT JUMPDEST PUSH2 0x9B9 DUP2 PUSH2 0xF11 JUMP JUMPDEST POP JUMP JUMPDEST PUSH1 0x0 CALLER SWAP1 POP SWAP1 JUMP JUMPDEST PUSH1 0x0 PUSH20 0xFFFFFFFFFFFFFFFFFFFFFFFFFFFFFFFFFFFFFFFF AND DUP4 PUSH20 0xFFFFFFFFFFFFFFFFFFFFFFFFFFFFFFFFFFFFFFFF AND EQ ISZERO PUSH2 0xA34 JUMPI PUSH1 0x40 MLOAD PUSH32 0x8C379A000000000000000000000000000000000000000000000000000000000 DUP2 MSTORE PUSH1 0x4 ADD PUSH2 0xA2B SWAP1 PUSH2 0x14CB JUMP JUMPDEST PUSH1 0x40 MLOAD DUP1 SWAP2 SUB SWAP1 REVERT JUMPDEST PUSH1 0x0 PUSH20 0xFFFFFFFFFFFFFFFFFFFFFFFFFFFFFFFFFFFFFFFF AND DUP3 PUSH20 0xFFFFFFFFFFFFFFFFFFFFFFFFFFFFFFFFFFFFFFFF AND EQ ISZERO PUSH2 0xAA4 JUMPI PUSH1 0x40 MLOAD PUSH32 0x8C379A000000000000000000000000000000000000000000000000000000000 DUP2 MSTORE PUSH1 0x4 ADD PUSH2 0xA9B SWAP1 PUSH2 0x142B JUMP JUMPDEST PUSH1 0x40 MLOAD DUP1 SWAP2 SUB SWAP1 REVERT JUMPDEST DUP1 PUSH1 0x1 PUSH1 0x0 DUP6 PUSH20 0xFFFFFFFFFFFFFFFFFFFFFFFFFFFFFFFFFFFFFFFF AND PUSH20 0xFFFFFFFFFFFFFFFFFFFFFFFFFFFFFFFFFFFFFFFF AND DUP2 MSTORE PUSH1 0x20 ADD SWAP1 DUP2 MSTORE PUSH1 0x20 ADD PUSH1 0x0 KECCAK256 PUSH1 0x0 DUP5 PUSH20 0xFFFFFFFFFFFFFFFFFFFFFFFFFFFFFFFFFFFFFFFF AND PUSH20 0xFFFFFFFFFFFFFFFFFFFFFFFFFFFFFFFFFFFFFFFF AND DUP2 MSTORE PUSH1 0x20 ADD SWAP1 DUP2 MSTORE PUSH1 0x20 ADD PUSH1 0x0 KECCAK256 DUP2 SWAP1 SSTORE POP DUP2 PUSH20 0xFFFFFFFFFFFFFFFFFFFFFFFFFFFFFFFFFFFFFFFF AND DUP4 PUSH20 0xFFFFFFFFFFFFFFFFFFFFFFFFFFFFFFFFFFFFFFFF AND PUSH32 0x8C5BE1E5EBEC7D5BD14F71427D1E84F3DD0314C0F7B2291E5B200AC8C7C3B925 DUP4 PUSH1 0x40 MLOAD PUSH2 0xB82 SWAP2 SWAP1 PUSH2 0x150B JUMP JUMPDEST PUSH1 0x40 MLOAD DUP1 SWAP2 SUB SWAP1 LOG3 POP POP POP JUMP JUMPDEST PUSH1 0x0 PUSH2 0xB9B DUP5 DUP5 PUSH2 0x8B1 JUMP JUMPDEST SWAP1 POP PUSH32 0xFFFFFFFFFFFFFFFFFFFFFFFFFFFFFFFFFFFFFFFFFFFFFFFFFFFFFFFFFFFFFFFF DUP2 EQ PUSH2 0xC15 JUMPI DUP2 DUP2 LT ISZERO PUSH2 0xC07 JUMPI PUSH1 0x40 MLOAD PUSH32 0x8C379A000000000000000000000000000000000000000000000000000000000 DUP2 MSTORE PUSH1 0x4 ADD PUSH2 0xBFE SWAP1 PUSH2 0x144B JUMP JUMPDEST PUSH1 0x40 MLOAD DUP1 SWAP2 SUB SWAP1 REVERT JUMPDEST PUSH2 0xC14 DUP5 DUP5 DUP5 DUP5 SUB PUSH2 0x9C4 JUMP JUMPDEST JUMPDEST POP POP POP POP JUMP JUMPDEST PUSH1 0x0 PUSH20 0xFFFFFFFFFFFFFFFFFFFFFFFFFFFFFFFFFFFFFFFF AND DUP4 PUSH20 0xFFFFFFFFFFFFFFFFFFFFFFFFFFFFFFFFFFFFFFFF AND EQ ISZERO PUSH2 0xC8B JUMPI PUSH1 0x40 MLOAD PUSH32 0x8C379A000000000000000000000000000000000000000000000000000000000 DUP2 MSTORE PUSH1 0x4 ADD PUSH2 0xC82 SWAP1 PUSH2 0x14AB JUMP JUMPDEST PUSH1 0x40 MLOAD DUP1 SWAP2 SUB SWAP1 REVERT JUMPDEST PUSH1 0x0 PUSH20 0xFFFFFFFFFFFFFFFFFFFFFFFFFFFFFFFFFFFFFFFF AND DUP3 PUSH20 0xFFFFFFFFFFFFFFFFFFFFFFFFFFFFFFFFFFFFFFFF AND EQ ISZERO PUSH2 0xCFB JUMPI PUSH1 0x40 MLOAD PUSH32 0x8C379A000000000000000000000000000000000000000000000000000000000 DUP2 MSTORE PUSH1 0x4 ADD PUSH2 0xCF2 SWAP1 PUSH2 0x13EB JUMP JUMPDEST PUSH1 0x40 MLOAD DUP1 SWAP2 SUB SWAP1 REVERT JUMPDEST PUSH2 0xD06 DUP4 DUP4 DUP4 PUSH2 0xFD7 JUMP JUMPDEST PUSH1 0x0 DUP1 PUSH1 0x0 DUP6 PUSH20 0xFFFFFFFFFFFFFFFFFFFFFFFFFFFFFFFFFFFFFFFF AND PUSH20 0xFFFFFFFFFFFFFFFFFFFFFFFFFFFFFFFFFFFFFFFF AND DUP2 MSTORE PUSH1 0x20 ADD SWAP1 DUP2 MSTORE PUSH1 0x20 ADD PUSH1 0x0 KECCAK256 SLOAD SWAP1 POP DUP2 DUP2 LT ISZERO PUSH2 0xD8C JUMPI PUSH1 0x40 MLOAD PUSH32 0x8C379A000000000000000000000000000000000000000000000000000000000 DUP2 MSTORE PUSH1 0x4 ADD PUSH2 0xD83 SWAP1 PUSH2 0x146B JUMP JUMPDEST PUSH1 0x40 MLOAD DUP1 SWAP2 SUB SWAP1 REVERT JUMPDEST DUP2 DUP2 SUB PUSH1 0x0 DUP1 DUP7 PUSH20 0xFFFFFFFFFFFFFFFFFFFFFFFFFFFFFFFFFFFFFFFF AND PUSH20 0xFFFFFFFFFFFFFFFFFFFFFFFFFFFFFFFFFFFFFFFF AND DUP2 MSTORE PUSH1 0x20 ADD SWAP1 DUP2 MSTORE PUSH1 0x20 ADD PUSH1 0x0 KECCAK256 DUP2 SWAP1 SSTORE POP DUP2 PUSH1 0x0 DUP1 DUP6 PUSH20 0xFFFFFFFFFFFFFFFFFFFFFFFFFFFFFFFFFFFFFFFF AND PUSH20 0xFFFFFFFFFFFFFFFFFFFFFFFFFFFFFFFFFFFFFFFF AND DUP2 MSTORE PUSH1 0x20 ADD SWAP1 DUP2 MSTORE PUSH1 0x20 ADD PUSH1 0x0 KECCAK256 PUSH1 0x0 DUP3 DUP3 SLOAD ADD SWAP3 POP POP DUP2 SWAP1 SSTORE POP DUP3 PUSH20 0xFFFFFFFFFFFFFFFFFFFFFFFFFFFFFFFFFFFFFFFF AND DUP5 PUSH20 0xFFFFFFFFFFFFFFFFFFFFFFFFFFFFFFFFFFFFFFFF AND PUSH32 0xDDF252AD1BE2C89B69C2B068FC378DAA952BA7F163C4A11628F55A4DF523B3EF DUP5 PUSH1 0x40 MLOAD PUSH2 0xE7A SWAP2 SWAP1 PUSH2 0x150B JUMP JUMPDEST PUSH1 0x40 MLOAD DUP1 SWAP2 SUB SWAP1 LOG3 PUSH2 0xE8D DUP5 DUP5 DUP5 PUSH2 0xFDC JUMP JUMPDEST POP POP POP POP JUMP JUMPDEST PUSH2 0xE9B PUSH2 0x9BC JUMP JUMPDEST PUSH20 0xFFFFFFFFFFFFFFFFFFFFFFFFFFFFFFFFFFFFFFFF AND PUSH2 0xEB9 PUSH2 0x6A9 JUMP JUMPDEST PUSH20 0xFFFFFFFFFFFFFFFFFFFFFFFFFFFFFFFFFFFFFFFF AND EQ PUSH2 0xF0F JUMPI PUSH1 0x40 MLOAD PUSH32 0x8C379A000000000000000000000000000000000000000000000000000000000 DUP2 MSTORE PUSH1 0x4 ADD PUSH2 0xF06 SWAP1 PUSH2 0x148B JUMP JUMPDEST PUSH1 0x40 MLOAD DUP1 SWAP2 SUB SWAP1 REVERT JUMPDEST JUMP JUMPDEST PUSH1 0x0 PUSH1 0x5 PUSH1 0x0 SWAP1 SLOAD SWAP1 PUSH2 0x100 EXP SWAP1 DIV PUSH20 0xFFFFFFFFFFFFFFFFFFFFFFFFFFFFFFFFFFFFFFFF AND SWAP1 POP DUP2 PUSH1 0x5 PUSH1 0x0 PUSH2 0x100 EXP DUP2 SLOAD DUP2 PUSH20 0xFFFFFFFFFFFFFFFFFFFFFFFFFFFFFFFFFFFFFFFF MUL NOT AND SWAP1 DUP4 PUSH20 0xFFFFFFFFFFFFFFFFFFFFFFFFFFFFFFFFFFFFFFFF AND MUL OR SWAP1 SSTORE POP DUP2 PUSH20 0xFFFFFFFFFFFFFFFFFFFFFFFFFFFFFFFFFFFFFFFF AND DUP2 PUSH20 0xFFFFFFFFFFFFFFFFFFFFFFFFFFFFFFFFFFFFFFFF AND PUSH32 0x8BE0079C531659141344CD1FD0A4F28419497F9722A3DAAFE3B4186F6B6457E0 PUSH1 0x40 MLOAD PUSH1 0x40 MLOAD DUP1 SWAP2 SUB SWAP1 LOG3 POP POP JUMP JUMPDEST POP POP POP JUMP JUMPDEST POP POP POP JUMP JUMPDEST PUSH1 0x0 DUP2 CALLDATALOAD SWAP1 POP PUSH2 0xFF0 DUP2 PUSH2 0x195C JUMP JUMPDEST SWAP3 SWAP2 POP POP JUMP JUMPDEST PUSH1 0x0 DUP2 MLOAD SWAP1 POP PUSH2 0x1005 DUP2 PUSH2 0x1973 JUMP JUMPDEST SWAP3 SWAP2 POP POP JUMP JUMPDEST PUSH1 0x0 DUP2 CALLDATALOAD SWAP1 POP PUSH2 0x101A DUP2 PUSH2 0x198A JUMP JUMPDEST SWAP3 SWAP2 POP POP JUMP JUMPDEST PUSH1 0x0 PUSH1 0x20 DUP3 DUP5 SUB SLT ISZERO PUSH2 0x1036 JUMPI PUSH2 0x1035 PUSH2 0x16CB JUMP JUMPDEST JUMPDEST PUSH1 0x0 PUSH2 0x1044 DUP5 DUP3 DUP6 ADD PUSH2 0xFE1 JUMP JUMPDEST SWAP2 POP POP SWAP3 SWAP2 POP POP JUMP JUMPDEST PUSH1 0x0 DUP1 PUSH1 0x40 DUP4 DUP6 SUB SLT ISZERO PUSH2 0x1064 JUMPI PUSH2 0x1063 PUSH2 0x16CB JUMP JUMPDEST JUMPDEST PUSH1 0x0 PUSH2 0x1072 DUP6 DUP3 DUP7 ADD PUSH2 0xFE1 JUMP JUMPDEST SWAP3 POP POP PUSH1 0x20 PUSH2 0x1083 DUP6 DUP3 DUP7 ADD PUSH2 0xFE1 JUMP JUMPDEST SWAP2 POP POP SWAP3 POP SWAP3 SWAP1 POP JUMP JUMPDEST PUSH1 0x0 DUP1 PUSH1 0x0 PUSH1 0x60 DUP5 DUP7 SUB SLT ISZERO PUSH2 0x10A6 JUMPI PUSH2 0x10A5 PUSH2 0x16CB JUMP JUMPDEST JUMPDEST PUSH1 0x0 PUSH2 0x10B4 DUP7 DUP3 DUP8 ADD PUSH2 0xFE1 JUMP JUMPDEST SWAP4 POP POP PUSH1 0x20 PUSH2 0x10C5 DUP7 DUP3 DUP8 ADD PUSH2 0xFE1 JUMP JUMPDEST SWAP3 POP POP PUSH1 0x40 PUSH2 0x10D6 DUP7 DUP3 DUP8 ADD PUSH2 0x100B JUMP JUMPDEST SWAP2 POP POP SWAP3 POP SWAP3 POP SWAP3 JUMP JUMPDEST PUSH1 0x0 DUP1 PUSH1 0x40 DUP4 DUP6 SUB SLT ISZERO PUSH2 0x10F7 JUMPI PUSH2 0x10F6 PUSH2 0x16CB JUMP JUMPDEST JUMPDEST PUSH1 0x0 PUSH2 0x1105 DUP6 DUP3 DUP7 ADD PUSH2 0xFE1 JUMP JUMPDEST SWAP3 POP POP PUSH1 0x20 PUSH2 0x1116 DUP6 DUP3 DUP7 ADD PUSH2 0x100B JUMP JUMPDEST SWAP2 POP POP SWAP3 POP SWAP3 SWAP1 POP JUMP JUMPDEST PUSH1 0x0 PUSH1 0x20 DUP3 DUP5 SUB SLT ISZERO PUSH2 0x1136 JUMPI PUSH2 0x1135 PUSH2 0x16CB JUMP JUMPDEST JUMPDEST PUSH1 0x0 PUSH2 0x1144 DUP5 DUP3 DUP6 ADD PUSH2 0xFF6 JUMP JUMPDEST SWAP2 POP POP SWAP3 SWAP2 POP POP JUMP JUMPDEST PUSH1 0x0 PUSH1 0x20 DUP3 DUP5 SUB SLT ISZERO PUSH2 0x1163 JUMPI PUSH2 0x1162 PUSH2 0x16CB JUMP JUMPDEST JUMPDEST PUSH1 0x0 PUSH2 0x1171 DUP5 DUP3 DUP6 ADD PUSH2 0x100B JUMP JUMPDEST SWAP2 POP POP SWAP3 SWAP2 POP POP JUMP JUMPDEST PUSH1 0x0 DUP1 PUSH1 0x40 DUP4 DUP6 SUB SLT ISZERO PUSH2 0x1191 JUMPI PUSH2 0x1190 PUSH2 0x16CB JUMP JUMPDEST JUMPDEST PUSH1 0x0 PUSH2 0x119F DUP6 DUP3 DUP7 ADD PUSH2 0x100B JUMP JUMPDEST SWAP3 POP POP PUSH1 0x20 PUSH2 0x11B0 DUP6 DUP3 DUP7 ADD PUSH2 0xFE1 JUMP JUMPDEST SWAP2 POP POP SWAP3 POP SWAP3 SWAP1 POP JUMP JUMPDEST PUSH2 0x11C3 DUP2 PUSH2 0x15B3 JUMP JUMPDEST DUP3 MSTORE POP POP JUMP JUMPDEST PUSH2 0x11D2 DUP2 PUSH2 0x15C5 JUMP JUMPDEST DUP3 MSTORE POP POP JUMP JUMPDEST PUSH1 0x0 PUSH2 0x11E3 DUP3 PUSH2 0x1541 JUMP JUMPDEST PUSH2 0x11ED DUP2 DUP6 PUSH2 0x154C JUMP JUMPDEST SWAP4 POP PUSH2 0x11FD DUP2 DUP6 PUSH1 0x20 DUP7 ADD PUSH2 0x1608 JUMP JUMPDEST PUSH2 0x1206 DUP2 PUSH2 0x16D0 JUMP JUMPDEST DUP5 ADD SWAP2 POP POP SWAP3 SWAP2 POP POP JUMP JUMPDEST PUSH1 0x0 PUSH2 0x121E PUSH1 0x23 DUP4 PUSH2 0x154C JUMP JUMPDEST SWAP2 POP PUSH2 0x1229 DUP3 PUSH2 0x16E1 JUMP JUMPDEST PUSH1 0x40 DUP3 ADD SWAP1 POP SWAP2 SWAP1 POP JUMP JUMPDEST PUSH1 0x0 PUSH2 0x1241 PUSH1 0x26 DUP4 PUSH2 0x154C JUMP JUMPDEST SWAP2 POP PUSH2 0x124C DUP3 PUSH2 0x1730 JUMP JUMPDEST PUSH1 0x40 DUP3 ADD SWAP1 POP SWAP2 SWAP1 POP JUMP JUMPDEST PUSH1 0x0 PUSH2 0x1264 PUSH1 0x22 DUP4 PUSH2 0x154C JUMP JUMPDEST SWAP2 POP PUSH2 0x126F DUP3 PUSH2 0x177F JUMP JUMPDEST PUSH1 0x40 DUP3 ADD SWAP1 POP SWAP2 SWAP1 POP JUMP JUMPDEST PUSH1 0x0 PUSH2 0x1287 PUSH1 0x1D DUP4 PUSH2 0x154C JUMP JUMPDEST SWAP2 POP PUSH2 0x1292 DUP3 PUSH2 0x17CE JUMP JUMPDEST PUSH1 0x20 DUP3 ADD SWAP1 POP SWAP2 SWAP1 POP JUMP JUMPDEST PUSH1 0x0 PUSH2 0x12AA PUSH1 0x26 DUP4 PUSH2 0x154C JUMP JUMPDEST SWAP2 POP PUSH2 0x12B5 DUP3 PUSH2 0x17F7 JUMP JUMPDEST PUSH1 0x40 DUP3 ADD SWAP1 POP SWAP2 SWAP1 POP JUMP JUMPDEST PUSH1 0x0 PUSH2 0x12CD PUSH1 0x20 DUP4 PUSH2 0x154C JUMP JUMPDEST SWAP2 POP PUSH2 0x12D8 DUP3 PUSH2 0x1846 JUMP JUMPDEST PUSH1 0x20 DUP3 ADD SWAP1 POP SWAP2 SWAP1 POP JUMP JUMPDEST PUSH1 0x0 PUSH2 0x12F0 PUSH1 0x25 DUP4 PUSH2 0x154C JUMP JUMPDEST SWAP2 POP PUSH2 0x12FB DUP3 PUSH2 0x186F JUMP JUMPDEST PUSH1 0x40 DUP3 ADD SWAP1 POP SWAP2 SWAP1 POP JUMP JUMPDEST PUSH1 0x0 PUSH2 0x1313 PUSH1 0x24 DUP4 PUSH2 0x154C JUMP JUMPDEST SWAP2 POP PUSH2 0x131E DUP3 PUSH2 0x18BE JUMP JUMPDEST PUSH1 0x40 DUP3 ADD SWAP1 POP SWAP2 SWAP1 POP JUMP JUMPDEST PUSH1 0x0 PUSH2 0x1336 PUSH1 0x25 DUP4 PUSH2 0x154C JUMP JUMPDEST SWAP2 POP PUSH2 0x1341 DUP3 PUSH2 0x190D JUMP JUMPDEST PUSH1 0x40 DUP3 ADD SWAP1 POP SWAP2 SWAP1 POP JUMP JUMPDEST PUSH2 0x1355 DUP2 PUSH2 0x15F1 JUMP JUMPDEST DUP3 MSTORE POP POP JUMP JUMPDEST PUSH2 0x1364 DUP2 PUSH2 0x15FB JUMP JUMPDEST DUP3 MSTORE POP POP JUMP JUMPDEST PUSH1 0x0 PUSH1 0x20 DUP3 ADD SWAP1 POP PUSH2 0x137F PUSH1 0x0 DUP4 ADD DUP5 PUSH2 0x11BA JUMP JUMPDEST SWAP3 SWAP2 POP POP JUMP JUMPDEST PUSH1 0x0 PUSH1 0x40 DUP3 ADD SWAP1 POP PUSH2 0x139A PUSH1 0x0 DUP4 ADD DUP6 PUSH2 0x11BA JUMP JUMPDEST PUSH2 0x13A7 PUSH1 0x20 DUP4 ADD DUP5 PUSH2 0x134C JUMP JUMPDEST SWAP4 SWAP3 POP POP POP JUMP JUMPDEST PUSH1 0x0 PUSH1 0x20 DUP3 ADD SWAP1 POP PUSH2 0x13C3 PUSH1 0x0 DUP4 ADD DUP5 PUSH2 0x11C9 JUMP JUMPDEST SWAP3 SWAP2 POP POP JUMP JUMPDEST PUSH1 0x0 PUSH1 0x20 DUP3 ADD SWAP1 POP DUP2 DUP2 SUB PUSH1 0x0 DUP4 ADD MSTORE PUSH2 0x13E3 DUP2 DUP5 PUSH2 0x11D8 JUMP JUMPDEST SWAP1 POP SWAP3 SWAP2 POP POP JUMP JUMPDEST PUSH1 0x0 PUSH1 0x20 DUP3 ADD SWAP1 POP DUP2 DUP2 SUB PUSH1 0x0 DUP4 ADD MSTORE PUSH2 0x1404 DUP2 PUSH2 0x1211 JUMP JUMPDEST SWAP1 POP SWAP2 SWAP1 POP JUMP JUMPDEST PUSH1 0x0 PUSH1 0x20 DUP3 ADD SWAP1 POP DUP2 DUP2 SUB PUSH1 0x0 DUP4 ADD MSTORE PUSH2 0x1424 DUP2 PUSH2 0x1234 JUMP JUMPDEST SWAP1 POP SWAP2 SWAP1 POP JUMP JUMPDEST PUSH1 0x0 PUSH1 0x20 DUP3 ADD SWAP1 POP DUP2 DUP2 SUB PUSH1 0x0 DUP4 ADD MSTORE PUSH2 0x1444 DUP2 PUSH2 0x1257 JUMP JUMPDEST SWAP1 POP SWAP2 SWAP1 POP JUMP JUMPDEST PUSH1 0x0 PUSH1 0x20 DUP3 ADD SWAP1 POP DUP2 DUP2 SUB PUSH1 0x0 DUP4 ADD MSTORE PUSH2 0x1464 DUP2 PUSH2 0x127A JUMP JUMPDEST SWAP1 POP SWAP2 SWAP1 POP JUMP JUMPDEST PUSH1 0x0 PUSH1 0x20 DUP3 ADD SWAP1 POP DUP2 DUP2 SUB PUSH1 0x0 DUP4 ADD MSTORE PUSH2 0x1484 DUP2 PUSH2 0x129D JUMP JUMPDEST SWAP1 POP SWAP2 SWAP1 POP JUMP JUMPDEST PUSH1 0x0 PUSH1 0x20 DUP3 ADD SWAP1 POP DUP2 DUP2 SUB PUSH1 0x0 DUP4 ADD MSTORE PUSH2 0x14A4 DUP2 PUSH2 0x12C0 JUMP JUMPDEST SWAP1 POP SWAP2 SWAP1 POP JUMP JUMPDEST PUSH1 0x0 PUSH1 0x20 DUP3 ADD SWAP1 POP DUP2 DUP2 SUB PUSH1 0x0 DUP4 ADD MSTORE PUSH2 0x14C4 DUP2 PUSH2 0x12E3 JUMP JUMPDEST SWAP1 POP SWAP2 SWAP1 POP JUMP JUMPDEST PUSH1 0x0 PUSH1 0x20 DUP3 ADD SWAP1 POP DUP2 DUP2 SUB PUSH1 0x0 DUP4 ADD MSTORE PUSH2 0x14E4 DUP2 PUSH2 0x1306 JUMP JUMPDEST SWAP1 POP SWAP2 SWAP1 POP JUMP JUMPDEST PUSH1 0x0 PUSH1 0x20 DUP3 ADD SWAP1 POP DUP2 DUP2 SUB PUSH1 0x0 DUP4 ADD MSTORE PUSH2 0x1504 DUP2 PUSH2 0x1329 JUMP JUMPDEST SWAP1 POP SWAP2 SWAP1 POP JUMP JUMPDEST PUSH1 0x0 PUSH1 0x20 DUP3 ADD SWAP1 POP PUSH2 0x1520 PUSH1 0x0 DUP4 ADD DUP5 PUSH2 0x134C JUMP JUMPDEST SWAP3 SWAP2 POP POP JUMP JUMPDEST PUSH1 0x0 PUSH1 0x20 DUP3 ADD SWAP1 POP PUSH2 0x153B PUSH1 0x0 DUP4 ADD DUP5 PUSH2 0x135B JUMP JUMPDEST SWAP3 SWAP2 POP POP JUMP JUMPDEST PUSH1 0x0 DUP2 MLOAD SWAP1 POP SWAP2 SWAP1 POP JUMP JUMPDEST PUSH1 0x0 DUP3 DUP3 MSTORE PUSH1 0x20 DUP3 ADD SWAP1 POP SWAP3 SWAP2 POP POP JUMP JUMPDEST PUSH1 0x0 PUSH2 0x1568 DUP3 PUSH2 0x15F1 JUMP JUMPDEST SWAP2 POP PUSH2 0x1573 DUP4 PUSH2 0x15F1 JUMP JUMPDEST SWAP3 POP DUP3 PUSH32 0xFFFFFFFFFFFFFFFFFFFFFFFFFFFFFFFFFFFFFFFFFFFFFFFFFFFFFFFFFFFFFFFF SUB DUP3 GT ISZERO PUSH2 0x15A8 JUMPI PUSH2 0x15A7 PUSH2 0x166D JUMP JUMPDEST JUMPDEST DUP3 DUP3 ADD SWAP1 POP SWAP3 SWAP2 POP POP JUMP JUMPDEST PUSH1 0x0 PUSH2 0x15BE DUP3 PUSH2 0x15D1 JUMP JUMPDEST SWAP1 POP SWAP2 SWAP1 POP JUMP JUMPDEST PUSH1 0x0 DUP2 ISZERO ISZERO SWAP1 POP SWAP2 SWAP1 POP JUMP JUMPDEST PUSH1 0x0 PUSH20 0xFFFFFFFFFFFFFFFFFFFFFFFFFFFFFFFFFFFFFFFF DUP3 AND SWAP1 POP SWAP2 SWAP1 POP JUMP JUMPDEST PUSH1 0x0 DUP2 SWAP1 POP SWAP2 SWAP1 POP JUMP JUMPDEST PUSH1 0x0 PUSH1 0xFF DUP3 AND SWAP1 POP SWAP2 SWAP1 POP JUMP JUMPDEST PUSH1 0x0 JUMPDEST DUP4 DUP2 LT ISZERO PUSH2 0x1626 JUMPI DUP1 DUP3 ADD MLOAD DUP2 DUP5 ADD MSTORE PUSH1 0x20 DUP2 ADD SWAP1 POP PUSH2 0x160B JUMP JUMPDEST DUP4 DUP2 GT ISZERO PUSH2 0x1635 JUMPI PUSH1 0x0 DUP5 DUP5 ADD MSTORE JUMPDEST POP POP POP POP JUMP JUMPDEST PUSH1 0x0 PUSH1 0x2 DUP3 DIV SWAP1 POP PUSH1 0x1 DUP3 AND DUP1 PUSH2 0x1653 JUMPI PUSH1 0x7F DUP3 AND SWAP2 POP JUMPDEST PUSH1 0x20 DUP3 LT DUP2 EQ ISZERO PUSH2 0x1667 JUMPI PUSH2 0x1666 PUSH2 0x169C JUMP JUMPDEST JUMPDEST POP SWAP2 SWAP1 POP JUMP JUMPDEST PUSH32 0x4E487B7100000000000000000000000000000000000000000000000000000000 PUSH1 0x0 MSTORE PUSH1 0x11 PUSH1 0x4 MSTORE PUSH1 0x24 PUSH1 0x0 REVERT JUMPDEST PUSH32 0x4E487B7100000000000000000000000000000000000000000000000000000000 PUSH1 0x0 MSTORE PUSH1 0x22 PUSH1 0x4 MSTORE PUSH1 0x24 PUSH1 0x0 REVERT JUMPDEST PUSH1 0x0 DUP1 REVERT JUMPDEST PUSH1 0x0 PUSH1 0x1F NOT PUSH1 0x1F DUP4 ADD AND SWAP1 POP SWAP2 SWAP1 POP JUMP JUMPDEST PUSH32 0x45524332303A207472616E7366657220746F20746865207A65726F2061646472 PUSH1 0x0 DUP3 ADD MSTORE PUSH32 0x6573730000000000000000000000000000000000000000000000000000000000 PUSH1 0x20 DUP3 ADD MSTORE POP JUMP JUMPDEST PUSH32 0x4F776E61626C653A206E6577206F776E657220697320746865207A65726F2061 PUSH1 0x0 DUP3 ADD MSTORE PUSH32 0x6464726573730000000000000000000000000000000000000000000000000000 PUSH1 0x20 DUP3 ADD MSTORE POP JUMP JUMPDEST PUSH32 0x45524332303A20617070726F766520746F20746865207A65726F206164647265 PUSH1 0x0 DUP3 ADD MSTORE PUSH32 0x7373000000000000000000000000000000000000000000000000000000000000 PUSH1 0x20 DUP3 ADD MSTORE POP JUMP JUMPDEST PUSH32 0x45524332303A20696E73756666696369656E7420616C6C6F77616E6365000000 PUSH1 0x0 DUP3 ADD MSTORE POP JUMP JUMPDEST PUSH32 0x45524332303A207472616E7366657220616D6F756E7420657863656564732062 PUSH1 0x0 DUP3 ADD MSTORE PUSH32 0x616C616E63650000000000000000000000000000000000000000000000000000 PUSH1 0x20 DUP3 ADD MSTORE POP JUMP JUMPDEST PUSH32 0x4F776E61626C653A2063616C6C6572206973206E6F7420746865206F776E6572 PUSH1 0x0 DUP3 ADD MSTORE POP JUMP JUMPDEST PUSH32 0x45524332303A207472616E736665722066726F6D20746865207A65726F206164 PUSH1 0x0 DUP3 ADD MSTORE PUSH32 0x6472657373000000000000000000000000000000000000000000000000000000 PUSH1 0x20 DUP3 ADD MSTORE POP JUMP JUMPDEST PUSH32 0x45524332303A20617070726F76652066726F6D20746865207A65726F20616464 PUSH1 0x0 DUP3 ADD MSTORE PUSH32 0x7265737300000000000000000000000000000000000000000000000000000000 PUSH1 0x20 DUP3 ADD MSTORE POP JUMP JUMPDEST PUSH32 0x45524332303A2064656372656173656420616C6C6F77616E63652062656C6F77 PUSH1 0x0 DUP3 ADD MSTORE PUSH32 0x207A65726F000000000000000000000000000000000000000000000000000000 PUSH1 0x20 DUP3 ADD MSTORE POP JUMP JUMPDEST PUSH2 0x1965 DUP2 PUSH2 0x15B3 JUMP JUMPDEST DUP2 EQ PUSH2 0x1970 JUMPI PUSH1 0x0 DUP1 REVERT JUMPDEST POP JUMP JUMPDEST PUSH2 0x197C DUP2 PUSH2 0x15C5 JUMP JUMPDEST DUP2 EQ PUSH2 0x1987 JUMPI PUSH1 0x0 DUP1 REVERT JUMPDEST POP JUMP JUMPDEST PUSH2 0x1993 DUP2 PUSH2 0x15F1 JUMP JUMPDEST DUP2 EQ PUSH2 0x199E JUMPI PUSH1 0x0 DUP1 REVERT JUMPDEST POP JUMP INVALID LOG2 PUSH5 0x6970667358 0x22 SLT KECCAK256 PUSH30 0xAB9015AD89256769BB5BE70D0D9438D654DDE19DCECBFC47DC0F04ABA04D 0x2E PUSH5 0x736F6C6343 STOP ADDMOD SMOD STOP CALLER "
  },
  "abi": [
    {
      "inputs": [
        {
          "internalType": "string",
          "name": "_tokenName",
          "type": "string"
        },
        {
          "internalType": "string",
          "name": "_tokenSymbol",
          "type": "string"
        },
        {
          "internalType": "uint256",
          "name": "_initialSupplyToOwner",
          "type": "uint256"
        }
      ],
      "stateMutability": "nonpayable",
      "type": "constructor"
    },
    {
      "anonymous": false,
      "inputs": [
        {
          "indexed": true,
          "internalType": "address",
          "name": "owner",
          "type": "address"
        },
        {
          "indexed": true,
          "internalType": "address",
          "name": "spender",
          "type": "address"
        },
        {
          "indexed": false,
          "internalType": "uint256",
          "name": "value",
          "type": "uint256"
        }
      ],
      "name": "Approval",
      "type": "event"
    },
    {
      "anonymous": false,
      "inputs": [
        {
          "indexed": true,
          "internalType": "address",
          "name": "previousOwner",
          "type": "address"
        },
        {
          "indexed": true,
          "internalType": "address",
          "name": "newOwner",
          "type": "address"
        }
      ],
      "name": "OwnershipTransferred",
      "type": "event"
    },
    {
      "anonymous": false,
      "inputs": [
        {
          "indexed": true,
          "internalType": "address",
          "name": "from",
          "type": "address"
        },
        {
          "indexed": true,
          "internalType": "address",
          "name": "to",
          "type": "address"
        },
        {
          "indexed": false,
          "internalType": "uint256",
          "name": "value",
          "type": "uint256"
        }
      ],
      "name": "Transfer",
      "type": "event"
    },
    {
      "inputs": [
        {
          "internalType": "address",
          "name": "owner",
          "type": "address"
        },
        {
          "internalType": "address",
          "name": "spender",
          "type": "address"
        }
      ],
      "name": "allowance",
      "outputs": [
        {
          "internalType": "uint256",
          "name": "",
          "type": "uint256"
        }
      ],
      "stateMutability": "view",
      "type": "function"
    },
    {
      "inputs": [
        {
          "internalType": "address",
          "name": "spender",
          "type": "address"
        },
        {
          "internalType": "uint256",
          "name": "amount",
          "type": "uint256"
        }
      ],
      "name": "approve",
      "outputs": [
        {
          "internalType": "bool",
          "name": "",
          "type": "bool"
        }
      ],
      "stateMutability": "nonpayable",
      "type": "function"
    },
    {
      "inputs": [
        {
          "internalType": "address",
          "name": "account",
          "type": "address"
        }
      ],
      "name": "balanceOf",
      "outputs": [
        {
          "internalType": "uint256",
          "name": "",
          "type": "uint256"
        }
      ],
      "stateMutability": "view",
      "type": "function"
    },
    {
      "inputs": [],
      "name": "decimals",
      "outputs": [
        {
          "internalType": "uint8",
          "name": "",
          "type": "uint8"
        }
      ],
      "stateMutability": "view",
      "type": "function"
    },
    {
      "inputs": [
        {
          "internalType": "address",
          "name": "spender",
          "type": "address"
        },
        {
          "internalType": "uint256",
          "name": "subtractedValue",
          "type": "uint256"
        }
      ],
      "name": "decreaseAllowance",
      "outputs": [
        {
          "internalType": "bool",
          "name": "",
          "type": "bool"
        }
      ],
      "stateMutability": "nonpayable",
      "type": "function"
    },
    {
      "inputs": [],
      "name": "getAdmin",
      "outputs": [
        {
          "internalType": "address",
          "name": "",
          "type": "address"
        }
      ],
      "stateMutability": "view",
      "type": "function"
    },
    {
      "inputs": [],
      "name": "getTokenPrice",
      "outputs": [
        {
          "internalType": "uint256",
          "name": "",
          "type": "uint256"
        }
      ],
      "stateMutability": "view",
      "type": "function"
    },
    {
      "inputs": [
        {
          "internalType": "address",
          "name": "spender",
          "type": "address"
        },
        {
          "internalType": "uint256",
          "name": "addedValue",
          "type": "uint256"
        }
      ],
      "name": "increaseAllowance",
      "outputs": [
        {
          "internalType": "bool",
          "name": "",
          "type": "bool"
        }
      ],
      "stateMutability": "nonpayable",
      "type": "function"
    },
    {
      "inputs": [],
      "name": "name",
      "outputs": [
        {
          "internalType": "string",
          "name": "",
          "type": "string"
        }
      ],
      "stateMutability": "view",
      "type": "function"
    },
    {
      "inputs": [],
      "name": "owner",
      "outputs": [
        {
          "internalType": "address",
          "name": "",
          "type": "address"
        }
      ],
      "stateMutability": "view",
      "type": "function"
    },
    {
      "inputs": [],
      "name": "renounceOwnership",
      "outputs": [],
      "stateMutability": "nonpayable",
      "type": "function"
    },
    {
      "inputs": [
        {
          "internalType": "address",
          "name": "_admin",
          "type": "address"
        }
      ],
      "name": "setAdmin",
      "outputs": [],
      "stateMutability": "nonpayable",
      "type": "function"
    },
    {
      "inputs": [
        {
          "internalType": "uint256",
          "name": "_tokenPrice",
          "type": "uint256"
        }
      ],
      "name": "setTokenprice",
      "outputs": [],
      "stateMutability": "nonpayable",
      "type": "function"
    },
    {
      "inputs": [],
      "name": "symbol",
      "outputs": [
        {
          "internalType": "string",
          "name": "",
          "type": "string"
        }
      ],
      "stateMutability": "view",
      "type": "function"
    },
    {
      "inputs": [],
      "name": "totalSupply",
      "outputs": [
        {
          "internalType": "uint256",
          "name": "",
          "type": "uint256"
        }
      ],
      "stateMutability": "view",
      "type": "function"
    },
    {
      "inputs": [
        {
          "internalType": "address",
          "name": "to",
          "type": "address"
        },
        {
          "internalType": "uint256",
          "name": "amount",
          "type": "uint256"
        }
      ],
      "name": "transfer",
      "outputs": [
        {
          "internalType": "bool",
          "name": "",
          "type": "bool"
        }
      ],
      "stateMutability": "nonpayable",
      "type": "function"
    },
    {
      "inputs": [
        {
          "internalType": "address",
          "name": "from",
          "type": "address"
        },
        {
          "internalType": "address",
          "name": "to",
          "type": "address"
        },
        {
          "internalType": "uint256",
          "name": "amount",
          "type": "uint256"
        }
      ],
      "name": "transferFrom",
      "outputs": [
        {
          "internalType": "bool",
          "name": "",
          "type": "bool"
        }
      ],
      "stateMutability": "nonpayable",
      "type": "function"
    },
    {
      "inputs": [
        {
          "internalType": "address",
          "name": "newOwner",
          "type": "address"
        }
      ],
      "name": "transferOwnership",
      "outputs": [],
      "stateMutability": "nonpayable",
      "type": "function"
    },
    {
      "inputs": [
        {
          "internalType": "uint256",
          "name": "_amount",
          "type": "uint256"
        },
        {
          "internalType": "address",
          "name": "_tokenAddress",
          "type": "address"
        }
      ],
      "name": "withdrawFromContract",
      "outputs": [],
      "stateMutability": "payable",
      "type": "function"
    }
  ],
  "storageLayout": {
    "storage": [
      {
        "astId": 238,
        "contract": "contracts/Samhita DAO/LanguageDAOToken.sol:LanguageDAOToken",
        "label": "_balances",
        "offset": 0,
        "slot": "0",
        "type": "t_mapping(t_address,t_uint256)"
      },
      {
        "astId": 244,
        "contract": "contracts/Samhita DAO/LanguageDAOToken.sol:LanguageDAOToken",
        "label": "_allowances",
        "offset": 0,
        "slot": "1",
        "type": "t_mapping(t_address,t_mapping(t_address,t_uint256))"
      },
      {
        "astId": 246,
        "contract": "contracts/Samhita DAO/LanguageDAOToken.sol:LanguageDAOToken",
        "label": "_totalSupply",
        "offset": 0,
        "slot": "2",
        "type": "t_uint256"
      },
      {
        "astId": 248,
        "contract": "contracts/Samhita DAO/LanguageDAOToken.sol:LanguageDAOToken",
        "label": "_name",
        "offset": 0,
        "slot": "3",
        "type": "t_string_storage"
      },
      {
        "astId": 250,
        "contract": "contracts/Samhita DAO/LanguageDAOToken.sol:LanguageDAOToken",
        "label": "_symbol",
        "offset": 0,
        "slot": "4",
        "type": "t_string_storage"
      },
      {
        "astId": 117,
        "contract": "contracts/Samhita DAO/LanguageDAOToken.sol:LanguageDAOToken",
        "label": "_owner",
        "offset": 0,
        "slot": "5",
        "type": "t_address"
      },
      {
        "astId": 9,
        "contract": "contracts/Samhita DAO/LanguageDAOToken.sol:LanguageDAOToken",
        "label": "admin",
        "offset": 0,
        "slot": "6",
        "type": "t_address"
      },
      {
        "astId": 11,
        "contract": "contracts/Samhita DAO/LanguageDAOToken.sol:LanguageDAOToken",
        "label": "initialSupply",
        "offset": 0,
        "slot": "7",
        "type": "t_uint256"
      },
      {
        "astId": 43,
        "contract": "contracts/Samhita DAO/LanguageDAOToken.sol:LanguageDAOToken",
        "label": "tokenPrice",
        "offset": 0,
        "slot": "8",
        "type": "t_uint256"
      }
    ],
    "types": {
      "t_address": {
        "encoding": "inplace",
        "label": "address",
        "numberOfBytes": "20"
      },
      "t_mapping(t_address,t_mapping(t_address,t_uint256))": {
        "encoding": "mapping",
        "key": "t_address",
        "label": "mapping(address => mapping(address => uint256))",
        "numberOfBytes": "32",
        "value": "t_mapping(t_address,t_uint256)"
      },
      "t_mapping(t_address,t_uint256)": {
        "encoding": "mapping",
        "key": "t_address",
        "label": "mapping(address => uint256)",
        "numberOfBytes": "32",
        "value": "t_uint256"
      },
      "t_string_storage": {
        "encoding": "bytes",
        "label": "string",
        "numberOfBytes": "32"
      },
      "t_uint256": {
        "encoding": "inplace",
        "label": "uint256",
        "numberOfBytes": "32"
      }
    }
  },
  "web3Deploy": "var _tokenName = /* var of type string here */ ;\nvar _tokenSymbol = /* var of type string here */ ;\nvar _initialSupplyToOwner = /* var of type uint256 here */ ;\nvar languagedaotokenContract = new web3.eth.Contract([{\"inputs\":[{\"internalType\":\"string\",\"name\":\"_tokenName\",\"type\":\"string\"},{\"internalType\":\"string\",\"name\":\"_tokenSymbol\",\"type\":\"string\"},{\"internalType\":\"uint256\",\"name\":\"_initialSupplyToOwner\",\"type\":\"uint256\"}],\"stateMutability\":\"nonpayable\",\"type\":\"constructor\"},{\"anonymous\":false,\"inputs\":[{\"indexed\":true,\"internalType\":\"address\",\"name\":\"owner\",\"type\":\"address\"},{\"indexed\":true,\"internalType\":\"address\",\"name\":\"spender\",\"type\":\"address\"},{\"indexed\":false,\"internalType\":\"uint256\",\"name\":\"value\",\"type\":\"uint256\"}],\"name\":\"Approval\",\"type\":\"event\"},{\"anonymous\":false,\"inputs\":[{\"indexed\":true,\"internalType\":\"address\",\"name\":\"previousOwner\",\"type\":\"address\"},{\"indexed\":true,\"internalType\":\"address\",\"name\":\"newOwner\",\"type\":\"address\"}],\"name\":\"OwnershipTransferred\",\"type\":\"event\"},{\"anonymous\":false,\"inputs\":[{\"indexed\":true,\"internalType\":\"address\",\"name\":\"from\",\"type\":\"address\"},{\"indexed\":true,\"internalType\":\"address\",\"name\":\"to\",\"type\":\"address\"},{\"indexed\":false,\"internalType\":\"uint256\",\"name\":\"value\",\"type\":\"uint256\"}],\"name\":\"Transfer\",\"type\":\"event\"},{\"inputs\":[{\"internalType\":\"address\",\"name\":\"owner\",\"type\":\"address\"},{\"internalType\":\"address\",\"name\":\"spender\",\"type\":\"address\"}],\"name\":\"allowance\",\"outputs\":[{\"internalType\":\"uint256\",\"name\":\"\",\"type\":\"uint256\"}],\"stateMutability\":\"view\",\"type\":\"function\"},{\"inputs\":[{\"internalType\":\"address\",\"name\":\"spender\",\"type\":\"address\"},{\"internalType\":\"uint256\",\"name\":\"amount\",\"type\":\"uint256\"}],\"name\":\"approve\",\"outputs\":[{\"internalType\":\"bool\",\"name\":\"\",\"type\":\"bool\"}],\"stateMutability\":\"nonpayable\",\"type\":\"function\"},{\"inputs\":[{\"internalType\":\"address\",\"name\":\"account\",\"type\":\"address\"}],\"name\":\"balanceOf\",\"outputs\":[{\"internalType\":\"uint256\",\"name\":\"\",\"type\":\"uint256\"}],\"stateMutability\":\"view\",\"type\":\"function\"},{\"inputs\":[],\"name\":\"decimals\",\"outputs\":[{\"internalType\":\"uint8\",\"name\":\"\",\"type\":\"uint8\"}],\"stateMutability\":\"view\",\"type\":\"function\"},{\"inputs\":[{\"internalType\":\"address\",\"name\":\"spender\",\"type\":\"address\"},{\"internalType\":\"uint256\",\"name\":\"subtractedValue\",\"type\":\"uint256\"}],\"name\":\"decreaseAllowance\",\"outputs\":[{\"internalType\":\"bool\",\"name\":\"\",\"type\":\"bool\"}],\"stateMutability\":\"nonpayable\",\"type\":\"function\"},{\"inputs\":[],\"name\":\"getAdmin\",\"outputs\":[{\"internalType\":\"address\",\"name\":\"\",\"type\":\"address\"}],\"stateMutability\":\"view\",\"type\":\"function\"},{\"inputs\":[],\"name\":\"getTokenPrice\",\"outputs\":[{\"internalType\":\"uint256\",\"name\":\"\",\"type\":\"uint256\"}],\"stateMutability\":\"view\",\"type\":\"function\"},{\"inputs\":[{\"internalType\":\"address\",\"name\":\"spender\",\"type\":\"address\"},{\"internalType\":\"uint256\",\"name\":\"addedValue\",\"type\":\"uint256\"}],\"name\":\"increaseAllowance\",\"outputs\":[{\"internalType\":\"bool\",\"name\":\"\",\"type\":\"bool\"}],\"stateMutability\":\"nonpayable\",\"type\":\"function\"},{\"inputs\":[],\"name\":\"name\",\"outputs\":[{\"internalType\":\"string\",\"name\":\"\",\"type\":\"string\"}],\"stateMutability\":\"view\",\"type\":\"function\"},{\"inputs\":[],\"name\":\"owner\",\"outputs\":[{\"internalType\":\"address\",\"name\":\"\",\"type\":\"address\"}],\"stateMutability\":\"view\",\"type\":\"function\"},{\"inputs\":[],\"name\":\"renounceOwnership\",\"outputs\":[],\"stateMutability\":\"nonpayable\",\"type\":\"function\"},{\"inputs\":[{\"internalType\":\"address\",\"name\":\"_admin\",\"type\":\"address\"}],\"name\":\"setAdmin\",\"outputs\":[],\"stateMutability\":\"nonpayable\",\"type\":\"function\"},{\"inputs\":[{\"internalType\":\"uint256\",\"name\":\"_tokenPrice\",\"type\":\"uint256\"}],\"name\":\"setTokenprice\",\"outputs\":[],\"stateMutability\":\"nonpayable\",\"type\":\"function\"},{\"inputs\":[],\"name\":\"symbol\",\"outputs\":[{\"internalType\":\"string\",\"name\":\"\",\"type\":\"string\"}],\"stateMutability\":\"view\",\"type\":\"function\"},{\"inputs\":[],\"name\":\"totalSupply\",\"outputs\":[{\"internalType\":\"uint256\",\"name\":\"\",\"type\":\"uint256\"}],\"stateMutability\":\"view\",\"type\":\"function\"},{\"inputs\":[{\"internalType\":\"address\",\"name\":\"to\",\"type\":\"address\"},{\"internalType\":\"uint256\",\"name\":\"amount\",\"type\":\"uint256\"}],\"name\":\"transfer\",\"outputs\":[{\"internalType\":\"bool\",\"name\":\"\",\"type\":\"bool\"}],\"stateMutability\":\"nonpayable\",\"type\":\"function\"},{\"inputs\":[{\"internalType\":\"address\",\"name\":\"from\",\"type\":\"address\"},{\"internalType\":\"address\",\"name\":\"to\",\"type\":\"address\"},{\"internalType\":\"uint256\",\"name\":\"amount\",\"type\":\"uint256\"}],\"name\":\"transferFrom\",\"outputs\":[{\"internalType\":\"bool\",\"name\":\"\",\"type\":\"bool\"}],\"stateMutability\":\"nonpayable\",\"type\":\"function\"},{\"inputs\":[{\"internalType\":\"address\",\"name\":\"newOwner\",\"type\":\"address\"}],\"name\":\"transferOwnership\",\"outputs\":[],\"stateMutability\":\"nonpayable\",\"type\":\"function\"},{\"inputs\":[{\"internalType\":\"uint256\",\"name\":\"_amount\",\"type\":\"uint256\"},{\"internalType\":\"address\",\"name\":\"_tokenAddress\",\"type\":\"address\"}],\"name\":\"withdrawFromContract\",\"outputs\":[],\"stateMutability\":\"payable\",\"type\":\"function\"}]);\nvar languagedaotoken = languagedaotokenContract.deploy({\n     data: '0x60806040526509184e72a0006008553480156200001b57600080fd5b50604051620021eb380380620021eb833981810160405281019062000041919062000485565b828281600390805190602001906200005b92919062000340565b5080600490805190602001906200007492919062000340565b505050620000976200008b620000fa60201b60201c565b6200010260201b60201c565b33600660006101000a81548173ffffffffffffffffffffffffffffffffffffffff021916908373ffffffffffffffffffffffffffffffffffffffff16021790555080600781905550620000f13382620001c860201b60201c565b50505062000804565b600033905090565b6000600560009054906101000a900473ffffffffffffffffffffffffffffffffffffffff16905081600560006101000a81548173ffffffffffffffffffffffffffffffffffffffff021916908373ffffffffffffffffffffffffffffffffffffffff1602179055508173ffffffffffffffffffffffffffffffffffffffff168173ffffffffffffffffffffffffffffffffffffffff167f8be0079c531659141344cd1fd0a4f28419497f9722a3daafe3b4186f6b6457e060405160405180910390a35050565b600073ffffffffffffffffffffffffffffffffffffffff168273ffffffffffffffffffffffffffffffffffffffff1614156200023b576040517f08c379a0000000000000000000000000000000000000000000000000000000008152600401620002329062000557565b60405180910390fd5b6200024f600083836200033660201b60201c565b806002600082825462000263919062000606565b92505081905550806000808473ffffffffffffffffffffffffffffffffffffffff1673ffffffffffffffffffffffffffffffffffffffff168152602001908152602001600020600082825401925050819055508173ffffffffffffffffffffffffffffffffffffffff16600073ffffffffffffffffffffffffffffffffffffffff167fddf252ad1be2c89b69c2b068fc378daa952ba7f163c4a11628f55a4df523b3ef8360405162000316919062000579565b60405180910390a362000332600083836200033b60201b60201c565b5050565b505050565b505050565b8280546200034e90620006a3565b90600052602060002090601f016020900481019282620003725760008555620003be565b82601f106200038d57805160ff1916838001178555620003be565b82800160010185558215620003be579182015b82811115620003bd578251825591602001919060010190620003a0565b5b509050620003cd9190620003d1565b5090565b5b80821115620003ec576000816000905550600101620003d2565b5090565b6000620004076200040184620005bf565b62000596565b905082815260208101848484011115620004265762000425620007a1565b5b620004338482856200066d565b509392505050565b600082601f8301126200045357620004526200079c565b5b815162000465848260208601620003f0565b91505092915050565b6000815190506200047f81620007ea565b92915050565b600080600060608486031215620004a157620004a0620007ab565b5b600084015167ffffffffffffffff811115620004c257620004c1620007a6565b5b620004d0868287016200043b565b935050602084015167ffffffffffffffff811115620004f457620004f3620007a6565b5b62000502868287016200043b565b925050604062000515868287016200046e565b9150509250925092565b60006200052e601f83620005f5565b91506200053b82620007c1565b602082019050919050565b620005518162000663565b82525050565b6000602082019050818103600083015262000572816200051f565b9050919050565b600060208201905062000590600083018462000546565b92915050565b6000620005a2620005b5565b9050620005b08282620006d9565b919050565b6000604051905090565b600067ffffffffffffffff821115620005dd57620005dc6200076d565b5b620005e882620007b0565b9050602081019050919050565b600082825260208201905092915050565b6000620006138262000663565b9150620006208362000663565b9250827fffffffffffffffffffffffffffffffffffffffffffffffffffffffffffffffff038211156200065857620006576200070f565b5b828201905092915050565b6000819050919050565b60005b838110156200068d57808201518184015260208101905062000670565b838111156200069d576000848401525b50505050565b60006002820490506001821680620006bc57607f821691505b60208210811415620006d357620006d26200073e565b5b50919050565b620006e482620007b0565b810181811067ffffffffffffffff821117156200070657620007056200076d565b5b80604052505050565b7f4e487b7100000000000000000000000000000000000000000000000000000000600052601160045260246000fd5b7f4e487b7100000000000000000000000000000000000000000000000000000000600052602260045260246000fd5b7f4e487b7100000000000000000000000000000000000000000000000000000000600052604160045260246000fd5b600080fd5b600080fd5b600080fd5b600080fd5b6000601f19601f8301169050919050565b7f45524332303a206d696e7420746f20746865207a65726f206164647265737300600082015250565b620007f58162000663565b81146200080157600080fd5b50565b6119d780620008146000396000f3fe6080604052600436106101145760003560e01c806370a08231116100a05780639605f505116100645780639605f505146103a3578063a457c2d7146103bf578063a9059cbb146103fc578063dd62ed3e14610439578063f2fde38b1461047657610114565b806370a08231146102d0578063715018a61461030d5780638da5cb5b146103245780638ecb987e1461034f57806395d89b411461037857610114565b8063313ce567116100e7578063313ce567146101e957806339509351146102145780634b94f50e146102515780636e9960c31461027c578063704b6c02146102a757610114565b806306fdde0314610119578063095ea7b31461014457806318160ddd1461018157806323b872dd146101ac575b600080fd5b34801561012557600080fd5b5061012e61049f565b60405161013b91906113c9565b60405180910390f35b34801561015057600080fd5b5061016b600480360381019061016691906110e0565b610531565b60405161017891906113ae565b60405180910390f35b34801561018d57600080fd5b50610196610554565b6040516101a3919061150b565b60405180910390f35b3480156101b857600080fd5b506101d360048036038101906101ce919061108d565b61055e565b6040516101e091906113ae565b60405180910390f35b3480156101f557600080fd5b506101fe61058d565b60405161020b9190611526565b60405180910390f35b34801561022057600080fd5b5061023b600480360381019061023691906110e0565b610596565b60405161024891906113ae565b60405180910390f35b34801561025d57600080fd5b506102666105cd565b604051610273919061150b565b60405180910390f35b34801561028857600080fd5b506102916105d7565b60405161029e919061136a565b60405180910390f35b3480156102b357600080fd5b506102ce60048036038101906102c99190611020565b610601565b005b3480156102dc57600080fd5b506102f760048036038101906102f29190611020565b61064d565b604051610304919061150b565b60405180910390f35b34801561031957600080fd5b50610322610695565b005b34801561033057600080fd5b506103396106a9565b604051610346919061136a565b60405180910390f35b34801561035b57600080fd5b506103766004803603810190610371919061114d565b6106d3565b005b34801561038457600080fd5b5061038d6106e5565b60405161039a91906113c9565b60405180910390f35b6103bd60048036038101906103b8919061117a565b610777565b005b3480156103cb57600080fd5b506103e660048036038101906103e191906110e0565b610817565b6040516103f391906113ae565b60405180910390f35b34801561040857600080fd5b50610423600480360381019061041e91906110e0565b61088e565b60405161043091906113ae565b60405180910390f35b34801561044557600080fd5b50610460600480360381019061045b919061104d565b6108b1565b60405161046d919061150b565b60405180910390f35b34801561048257600080fd5b5061049d60048036038101906104989190611020565b610938565b005b6060600380546104ae9061163b565b80601f01602080910402602001604051908101604052809291908181526020018280546104da9061163b565b80156105275780601f106104fc57610100808354040283529160200191610527565b820191906000526020600020905b81548152906001019060200180831161050a57829003601f168201915b5050505050905090565b60008061053c6109bc565b90506105498185856109c4565b600191505092915050565b6000600254905090565b6000806105696109bc565b9050610576858285610b8f565b610581858585610c1b565b60019150509392505050565b60006012905090565b6000806105a16109bc565b90506105c28185856105b385896108b1565b6105bd919061155d565b6109c4565b600191505092915050565b6000600854905090565b6000600660009054906101000a900473ffffffffffffffffffffffffffffffffffffffff16905090565b610609610e93565b80600660006101000a81548173ffffffffffffffffffffffffffffffffffffffff021916908373ffffffffffffffffffffffffffffffffffffffff16021790555050565b60008060008373ffffffffffffffffffffffffffffffffffffffff1673ffffffffffffffffffffffffffffffffffffffff168152602001908152602001600020549050919050565b61069d610e93565b6106a76000610f11565b565b6000600560009054906101000a900473ffffffffffffffffffffffffffffffffffffffff16905090565b6106db610e93565b8060088190555050565b6060600480546106f49061163b565b80601f01602080910402602001604051908101604052809291908181526020018280546107209061163b565b801561076d5780601f106107425761010080835404028352916020019161076d565b820191906000526020600020905b81548152906001019060200180831161075057829003601f168201915b5050505050905090565b61077f610e93565b60008190508073ffffffffffffffffffffffffffffffffffffffff1663a9059cbb33856040518363ffffffff1660e01b81526004016107bf929190611385565b602060405180830381600087803b1580156107d957600080fd5b505af11580156107ed573d6000803e3d6000fd5b505050506040513d601f19601f820116820180604052508101906108119190611120565b50505050565b6000806108226109bc565b9050600061083082866108b1565b905083811015610875576040517f08c379a000000000000000000000000000000000000000000000000000000000815260040161086c906114eb565b60405180910390fd5b61088282868684036109c4565b60019250505092915050565b6000806108996109bc565b90506108a6818585610c1b565b600191505092915050565b6000600160008473ffffffffffffffffffffffffffffffffffffffff1673ffffffffffffffffffffffffffffffffffffffff16815260200190815260200160002060008373ffffffffffffffffffffffffffffffffffffffff1673ffffffffffffffffffffffffffffffffffffffff16815260200190815260200160002054905092915050565b610940610e93565b600073ffffffffffffffffffffffffffffffffffffffff168173ffffffffffffffffffffffffffffffffffffffff1614156109b0576040517f08c379a00000000000000000000000000000000000000000000000000000000081526004016109a79061140b565b60405180910390fd5b6109b981610f11565b50565b600033905090565b600073ffffffffffffffffffffffffffffffffffffffff168373ffffffffffffffffffffffffffffffffffffffff161415610a34576040517f08c379a0000000000000000000000000000000000000000000000000000000008152600401610a2b906114cb565b60405180910390fd5b600073ffffffffffffffffffffffffffffffffffffffff168273ffffffffffffffffffffffffffffffffffffffff161415610aa4576040517f08c379a0000000000000000000000000000000000000000000000000000000008152600401610a9b9061142b565b60405180910390fd5b80600160008573ffffffffffffffffffffffffffffffffffffffff1673ffffffffffffffffffffffffffffffffffffffff16815260200190815260200160002060008473ffffffffffffffffffffffffffffffffffffffff1673ffffffffffffffffffffffffffffffffffffffff168152602001908152602001600020819055508173ffffffffffffffffffffffffffffffffffffffff168373ffffffffffffffffffffffffffffffffffffffff167f8c5be1e5ebec7d5bd14f71427d1e84f3dd0314c0f7b2291e5b200ac8c7c3b92583604051610b82919061150b565b60405180910390a3505050565b6000610b9b84846108b1565b90507fffffffffffffffffffffffffffffffffffffffffffffffffffffffffffffffff8114610c155781811015610c07576040517f08c379a0000000000000000000000000000000000000000000000000000000008152600401610bfe9061144b565b60405180910390fd5b610c1484848484036109c4565b5b50505050565b600073ffffffffffffffffffffffffffffffffffffffff168373ffffffffffffffffffffffffffffffffffffffff161415610c8b576040517f08c379a0000000000000000000000000000000000000000000000000000000008152600401610c82906114ab565b60405180910390fd5b600073ffffffffffffffffffffffffffffffffffffffff168273ffffffffffffffffffffffffffffffffffffffff161415610cfb576040517f08c379a0000000000000000000000000000000000000000000000000000000008152600401610cf2906113eb565b60405180910390fd5b610d06838383610fd7565b60008060008573ffffffffffffffffffffffffffffffffffffffff1673ffffffffffffffffffffffffffffffffffffffff16815260200190815260200160002054905081811015610d8c576040517f08c379a0000000000000000000000000000000000000000000000000000000008152600401610d839061146b565b60405180910390fd5b8181036000808673ffffffffffffffffffffffffffffffffffffffff1673ffffffffffffffffffffffffffffffffffffffff16815260200190815260200160002081905550816000808573ffffffffffffffffffffffffffffffffffffffff1673ffffffffffffffffffffffffffffffffffffffff168152602001908152602001600020600082825401925050819055508273ffffffffffffffffffffffffffffffffffffffff168473ffffffffffffffffffffffffffffffffffffffff167fddf252ad1be2c89b69c2b068fc378daa952ba7f163c4a11628f55a4df523b3ef84604051610e7a919061150b565b60405180910390a3610e8d848484610fdc565b50505050565b610e9b6109bc565b73ffffffffffffffffffffffffffffffffffffffff16610eb96106a9565b73ffffffffffffffffffffffffffffffffffffffff1614610f0f576040517f08c379a0000000000000000000000000000000000000000000000000000000008152600401610f069061148b565b60405180910390fd5b565b6000600560009054906101000a900473ffffffffffffffffffffffffffffffffffffffff16905081600560006101000a81548173ffffffffffffffffffffffffffffffffffffffff021916908373ffffffffffffffffffffffffffffffffffffffff1602179055508173ffffffffffffffffffffffffffffffffffffffff168173ffffffffffffffffffffffffffffffffffffffff167f8be0079c531659141344cd1fd0a4f28419497f9722a3daafe3b4186f6b6457e060405160405180910390a35050565b505050565b505050565b600081359050610ff08161195c565b92915050565b60008151905061100581611973565b92915050565b60008135905061101a8161198a565b92915050565b600060208284031215611036576110356116cb565b5b600061104484828501610fe1565b91505092915050565b60008060408385031215611064576110636116cb565b5b600061107285828601610fe1565b925050602061108385828601610fe1565b9150509250929050565b6000806000606084860312156110a6576110a56116cb565b5b60006110b486828701610fe1565b93505060206110c586828701610fe1565b92505060406110d68682870161100b565b9150509250925092565b600080604083850312156110f7576110f66116cb565b5b600061110585828601610fe1565b92505060206111168582860161100b565b9150509250929050565b600060208284031215611136576111356116cb565b5b600061114484828501610ff6565b91505092915050565b600060208284031215611163576111626116cb565b5b60006111718482850161100b565b91505092915050565b60008060408385031215611191576111906116cb565b5b600061119f8582860161100b565b92505060206111b085828601610fe1565b9150509250929050565b6111c3816115b3565b82525050565b6111d2816115c5565b82525050565b60006111e382611541565b6111ed818561154c565b93506111fd818560208601611608565b611206816116d0565b840191505092915050565b600061121e60238361154c565b9150611229826116e1565b604082019050919050565b600061124160268361154c565b915061124c82611730565b604082019050919050565b600061126460228361154c565b915061126f8261177f565b604082019050919050565b6000611287601d8361154c565b9150611292826117ce565b602082019050919050565b60006112aa60268361154c565b91506112b5826117f7565b604082019050919050565b60006112cd60208361154c565b91506112d882611846565b602082019050919050565b60006112f060258361154c565b91506112fb8261186f565b604082019050919050565b600061131360248361154c565b915061131e826118be565b604082019050919050565b600061133660258361154c565b91506113418261190d565b604082019050919050565b611355816115f1565b82525050565b611364816115fb565b82525050565b600060208201905061137f60008301846111ba565b92915050565b600060408201905061139a60008301856111ba565b6113a7602083018461134c565b9392505050565b60006020820190506113c360008301846111c9565b92915050565b600060208201905081810360008301526113e381846111d8565b905092915050565b6000602082019050818103600083015261140481611211565b9050919050565b6000602082019050818103600083015261142481611234565b9050919050565b6000602082019050818103600083015261144481611257565b9050919050565b600060208201905081810360008301526114648161127a565b9050919050565b600060208201905081810360008301526114848161129d565b9050919050565b600060208201905081810360008301526114a4816112c0565b9050919050565b600060208201905081810360008301526114c4816112e3565b9050919050565b600060208201905081810360008301526114e481611306565b9050919050565b6000602082019050818103600083015261150481611329565b9050919050565b6000602082019050611520600083018461134c565b92915050565b600060208201905061153b600083018461135b565b92915050565b600081519050919050565b600082825260208201905092915050565b6000611568826115f1565b9150611573836115f1565b9250827fffffffffffffffffffffffffffffffffffffffffffffffffffffffffffffffff038211156115a8576115a761166d565b5b828201905092915050565b60006115be826115d1565b9050919050565b60008115159050919050565b600073ffffffffffffffffffffffffffffffffffffffff82169050919050565b6000819050919050565b600060ff82169050919050565b60005b8381101561162657808201518184015260208101905061160b565b83811115611635576000848401525b50505050565b6000600282049050600182168061165357607f821691505b602082108114156116675761166661169c565b5b50919050565b7f4e487b7100000000000000000000000000000000000000000000000000000000600052601160045260246000fd5b7f4e487b7100000000000000000000000000000000000000000000000000000000600052602260045260246000fd5b600080fd5b6000601f19601f8301169050919050565b7f45524332303a207472616e7366657220746f20746865207a65726f206164647260008201527f6573730000000000000000000000000000000000000000000000000000000000602082015250565b7f4f776e61626c653a206e6577206f776e657220697320746865207a65726f206160008201527f6464726573730000000000000000000000000000000000000000000000000000602082015250565b7f45524332303a20617070726f766520746f20746865207a65726f20616464726560008201527f7373000000000000000000000000000000000000000000000000000000000000602082015250565b7f45524332303a20696e73756666696369656e7420616c6c6f77616e6365000000600082015250565b7f45524332303a207472616e7366657220616d6f756e742065786365656473206260008201527f616c616e63650000000000000000000000000000000000000000000000000000602082015250565b7f4f776e61626c653a2063616c6c6572206973206e6f7420746865206f776e6572600082015250565b7f45524332303a207472616e736665722066726f6d20746865207a65726f20616460008201527f6472657373000000000000000000000000000000000000000000000000000000602082015250565b7f45524332303a20617070726f76652066726f6d20746865207a65726f2061646460008201527f7265737300000000000000000000000000000000000000000000000000000000602082015250565b7f45524332303a2064656372656173656420616c6c6f77616e63652062656c6f7760008201527f207a65726f000000000000000000000000000000000000000000000000000000602082015250565b611965816115b3565b811461197057600080fd5b50565b61197c816115c5565b811461198757600080fd5b50565b611993816115f1565b811461199e57600080fd5b5056fea26469706673582212207dab9015ad89256769bb5be70d0d9438d654dde19dcecbfc47dc0f04aba04d2e64736f6c63430008070033', \n     arguments: [\n          _tokenName,\n          _tokenSymbol,\n          _initialSupplyToOwner,\n     ]\n}).send({\n     from: web3.eth.accounts[0], \n     gas: '4700000'\n   }, function (e, contract){\n    console.log(e, contract);\n    if (typeof contract.address !== 'undefined') {\n         console.log('Contract mined! address: ' + contract.address + ' transactionHash: ' + contract.transactionHash);\n    }\n })",
  "functionHashes": {
    "39509351": "increaseAllowance(address,uint256)",
    "dd62ed3e": "allowance(address,address)",
    "095ea7b3": "approve(address,uint256)",
    "70a08231": "balanceOf(address)",
    "313ce567": "decimals()",
    "a457c2d7": "decreaseAllowance(address,uint256)",
    "6e9960c3": "getAdmin()",
    "4b94f50e": "getTokenPrice()",
    "06fdde03": "name()",
    "8da5cb5b": "owner()",
    "715018a6": "renounceOwnership()",
    "704b6c02": "setAdmin(address)",
    "8ecb987e": "setTokenprice(uint256)",
    "95d89b41": "symbol()",
    "18160ddd": "totalSupply()",
    "a9059cbb": "transfer(address,uint256)",
    "23b872dd": "transferFrom(address,address,uint256)",
    "f2fde38b": "transferOwnership(address)",
    "9605f505": "withdrawFromContract(uint256,address)"
  },
  "gasEstimates": {
    "Creation": {
      "codeDepositCost": "1323000",
      "executionCost": "infinite",
      "totalCost": "infinite"
    },
    "External": {
      "allowance(address,address)": "infinite",
      "approve(address,uint256)": "infinite",
      "balanceOf(address)": "2864",
      "decimals()": "366",
      "decreaseAllowance(address,uint256)": "infinite",
      "getAdmin()": "2611",
      "getTokenPrice()": "2504",
      "increaseAllowance(address,uint256)": "infinite",
      "name()": "infinite",
      "owner()": "2589",
      "renounceOwnership()": "30443",
      "setAdmin(address)": "27097",
      "setTokenprice(uint256)": "24873",
      "symbol()": "infinite",
      "totalSupply()": "2505",
      "transfer(address,uint256)": "infinite",
      "transferFrom(address,address,uint256)": "infinite",
      "transferOwnership(address)": "30857",
      "withdrawFromContract(uint256,address)": "infinite"
    }
  },
  "devdoc": {
    "kind": "dev",
    "methods": {
      "allowance(address,address)": {
        "details": "See {IERC20-allowance}."
      },
      "approve(address,uint256)": {
        "details": "See {IERC20-approve}. NOTE: If `amount` is the maximum `uint256`, the allowance is not updated on `transferFrom`. This is semantically equivalent to an infinite approval. Requirements: - `spender` cannot be the zero address."
      },
      "balanceOf(address)": {
        "details": "See {IERC20-balanceOf}."
      },
      "decimals()": {
        "details": "Returns the number of decimals used to get its user representation. For example, if `decimals` equals `2`, a balance of `505` tokens should be displayed to a user as `5.05` (`505 / 10 ** 2`). Tokens usually opt for a value of 18, imitating the relationship between Ether and Wei. This is the default value returned by this function, unless it's overridden. NOTE: This information is only used for _display_ purposes: it in no way affects any of the arithmetic of the contract, including {IERC20-balanceOf} and {IERC20-transfer}."
      },
      "decreaseAllowance(address,uint256)": {
        "details": "Atomically decreases the allowance granted to `spender` by the caller. This is an alternative to {approve} that can be used as a mitigation for problems described in {IERC20-approve}. Emits an {Approval} event indicating the updated allowance. Requirements: - `spender` cannot be the zero address. - `spender` must have allowance for the caller of at least `subtractedValue`."
      },
      "increaseAllowance(address,uint256)": {
        "details": "Atomically increases the allowance granted to `spender` by the caller. This is an alternative to {approve} that can be used as a mitigation for problems described in {IERC20-approve}. Emits an {Approval} event indicating the updated allowance. Requirements: - `spender` cannot be the zero address."
      },
      "name()": {
        "details": "Returns the name of the token."
      },
      "owner()": {
        "details": "Returns the address of the current owner."
      },
      "renounceOwnership()": {
        "details": "Leaves the contract without owner. It will not be possible to call `onlyOwner` functions anymore. Can only be called by the current owner. NOTE: Renouncing ownership will leave the contract without an owner, thereby removing any functionality that is only available to the owner."
      },
      "symbol()": {
        "details": "Returns the symbol of the token, usually a shorter version of the name."
      },
      "totalSupply()": {
        "details": "See {IERC20-totalSupply}."
      },
      "transfer(address,uint256)": {
        "details": "See {IERC20-transfer}. Requirements: - `to` cannot be the zero address. - the caller must have a balance of at least `amount`."
      },
      "transferFrom(address,address,uint256)": {
        "details": "See {IERC20-transferFrom}. Emits an {Approval} event indicating the updated allowance. This is not required by the EIP. See the note at the beginning of {ERC20}. NOTE: Does not update the allowance if the current allowance is the maximum `uint256`. Requirements: - `from` and `to` cannot be the zero address. - `from` must have a balance of at least `amount`. - the caller must have allowance for ``from``'s tokens of at least `amount`."
      },
      "transferOwnership(address)": {
        "details": "Transfers ownership of the contract to a new account (`newOwner`). Can only be called by the current owner."
      }
    },
    "version": 1
  },
  "userdoc": {
    "kind": "user",
    "methods": {},
    "version": 1
  },
  "Runtime Bytecode": {
    "immutableReferences": {},
    "linkReferences": {},
    "object": "6080604052600436106101145760003560e01c806370a08231116100a05780639605f505116100645780639605f505146103a3578063a457c2d7146103bf578063a9059cbb146103fc578063dd62ed3e14610439578063f2fde38b1461047657610114565b806370a08231146102d0578063715018a61461030d5780638da5cb5b146103245780638ecb987e1461034f57806395d89b411461037857610114565b8063313ce567116100e7578063313ce567146101e957806339509351146102145780634b94f50e146102515780636e9960c31461027c578063704b6c02146102a757610114565b806306fdde0314610119578063095ea7b31461014457806318160ddd1461018157806323b872dd146101ac575b600080fd5b34801561012557600080fd5b5061012e61049f565b60405161013b91906113c9565b60405180910390f35b34801561015057600080fd5b5061016b600480360381019061016691906110e0565b610531565b60405161017891906113ae565b60405180910390f35b34801561018d57600080fd5b50610196610554565b6040516101a3919061150b565b60405180910390f35b3480156101b857600080fd5b506101d360048036038101906101ce919061108d565b61055e565b6040516101e091906113ae565b60405180910390f35b3480156101f557600080fd5b506101fe61058d565b60405161020b9190611526565b60405180910390f35b34801561022057600080fd5b5061023b600480360381019061023691906110e0565b610596565b60405161024891906113ae565b60405180910390f35b34801561025d57600080fd5b506102666105cd565b604051610273919061150b565b60405180910390f35b34801561028857600080fd5b506102916105d7565b60405161029e919061136a565b60405180910390f35b3480156102b357600080fd5b506102ce60048036038101906102c99190611020565b610601565b005b3480156102dc57600080fd5b506102f760048036038101906102f29190611020565b61064d565b604051610304919061150b565b60405180910390f35b34801561031957600080fd5b50610322610695565b005b34801561033057600080fd5b506103396106a9565b604051610346919061136a565b60405180910390f35b34801561035b57600080fd5b506103766004803603810190610371919061114d565b6106d3565b005b34801561038457600080fd5b5061038d6106e5565b60405161039a91906113c9565b60405180910390f35b6103bd60048036038101906103b8919061117a565b610777565b005b3480156103cb57600080fd5b506103e660048036038101906103e191906110e0565b610817565b6040516103f391906113ae565b60405180910390f35b34801561040857600080fd5b50610423600480360381019061041e91906110e0565b61088e565b60405161043091906113ae565b60405180910390f35b34801561044557600080fd5b50610460600480360381019061045b919061104d565b6108b1565b60405161046d919061150b565b60405180910390f35b34801561048257600080fd5b5061049d60048036038101906104989190611020565b610938565b005b6060600380546104ae9061163b565b80601f01602080910402602001604051908101604052809291908181526020018280546104da9061163b565b80156105275780601f106104fc57610100808354040283529160200191610527565b820191906000526020600020905b81548152906001019060200180831161050a57829003601f168201915b5050505050905090565b60008061053c6109bc565b90506105498185856109c4565b600191505092915050565b6000600254905090565b6000806105696109bc565b9050610576858285610b8f565b610581858585610c1b565b60019150509392505050565b60006012905090565b6000806105a16109bc565b90506105c28185856105b385896108b1565b6105bd919061155d565b6109c4565b600191505092915050565b6000600854905090565b6000600660009054906101000a900473ffffffffffffffffffffffffffffffffffffffff16905090565b610609610e93565b80600660006101000a81548173ffffffffffffffffffffffffffffffffffffffff021916908373ffffffffffffffffffffffffffffffffffffffff16021790555050565b60008060008373ffffffffffffffffffffffffffffffffffffffff1673ffffffffffffffffffffffffffffffffffffffff168152602001908152602001600020549050919050565b61069d610e93565b6106a76000610f11565b565b6000600560009054906101000a900473ffffffffffffffffffffffffffffffffffffffff16905090565b6106db610e93565b8060088190555050565b6060600480546106f49061163b565b80601f01602080910402602001604051908101604052809291908181526020018280546107209061163b565b801561076d5780601f106107425761010080835404028352916020019161076d565b820191906000526020600020905b81548152906001019060200180831161075057829003601f168201915b5050505050905090565b61077f610e93565b60008190508073ffffffffffffffffffffffffffffffffffffffff1663a9059cbb33856040518363ffffffff1660e01b81526004016107bf929190611385565b602060405180830381600087803b1580156107d957600080fd5b505af11580156107ed573d6000803e3d6000fd5b505050506040513d601f19601f820116820180604052508101906108119190611120565b50505050565b6000806108226109bc565b9050600061083082866108b1565b905083811015610875576040517f08c379a000000000000000000000000000000000000000000000000000000000815260040161086c906114eb565b60405180910390fd5b61088282868684036109c4565b60019250505092915050565b6000806108996109bc565b90506108a6818585610c1b565b600191505092915050565b6000600160008473ffffffffffffffffffffffffffffffffffffffff1673ffffffffffffffffffffffffffffffffffffffff16815260200190815260200160002060008373ffffffffffffffffffffffffffffffffffffffff1673ffffffffffffffffffffffffffffffffffffffff16815260200190815260200160002054905092915050565b610940610e93565b600073ffffffffffffffffffffffffffffffffffffffff168173ffffffffffffffffffffffffffffffffffffffff1614156109b0576040517f08c379a00000000000000000000000000000000000000000000000000000000081526004016109a79061140b565b60405180910390fd5b6109b981610f11565b50565b600033905090565b600073ffffffffffffffffffffffffffffffffffffffff168373ffffffffffffffffffffffffffffffffffffffff161415610a34576040517f08c379a0000000000000000000000000000000000000000000000000000000008152600401610a2b906114cb565b60405180910390fd5b600073ffffffffffffffffffffffffffffffffffffffff168273ffffffffffffffffffffffffffffffffffffffff161415610aa4576040517f08c379a0000000000000000000000000000000000000000000000000000000008152600401610a9b9061142b565b60405180910390fd5b80600160008573ffffffffffffffffffffffffffffffffffffffff1673ffffffffffffffffffffffffffffffffffffffff16815260200190815260200160002060008473ffffffffffffffffffffffffffffffffffffffff1673ffffffffffffffffffffffffffffffffffffffff168152602001908152602001600020819055508173ffffffffffffffffffffffffffffffffffffffff168373ffffffffffffffffffffffffffffffffffffffff167f8c5be1e5ebec7d5bd14f71427d1e84f3dd0314c0f7b2291e5b200ac8c7c3b92583604051610b82919061150b565b60405180910390a3505050565b6000610b9b84846108b1565b90507fffffffffffffffffffffffffffffffffffffffffffffffffffffffffffffffff8114610c155781811015610c07576040517f08c379a0000000000000000000000000000000000000000000000000000000008152600401610bfe9061144b565b60405180910390fd5b610c1484848484036109c4565b5b50505050565b600073ffffffffffffffffffffffffffffffffffffffff168373ffffffffffffffffffffffffffffffffffffffff161415610c8b576040517f08c379a0000000000000000000000000000000000000000000000000000000008152600401610c82906114ab565b60405180910390fd5b600073ffffffffffffffffffffffffffffffffffffffff168273ffffffffffffffffffffffffffffffffffffffff161415610cfb576040517f08c379a0000000000000000000000000000000000000000000000000000000008152600401610cf2906113eb565b60405180910390fd5b610d06838383610fd7565b60008060008573ffffffffffffffffffffffffffffffffffffffff1673ffffffffffffffffffffffffffffffffffffffff16815260200190815260200160002054905081811015610d8c576040517f08c379a0000000000000000000000000000000000000000000000000000000008152600401610d839061146b565b60405180910390fd5b8181036000808673ffffffffffffffffffffffffffffffffffffffff1673ffffffffffffffffffffffffffffffffffffffff16815260200190815260200160002081905550816000808573ffffffffffffffffffffffffffffffffffffffff1673ffffffffffffffffffffffffffffffffffffffff168152602001908152602001600020600082825401925050819055508273ffffffffffffffffffffffffffffffffffffffff168473ffffffffffffffffffffffffffffffffffffffff167fddf252ad1be2c89b69c2b068fc378daa952ba7f163c4a11628f55a4df523b3ef84604051610e7a919061150b565b60405180910390a3610e8d848484610fdc565b50505050565b610e9b6109bc565b73ffffffffffffffffffffffffffffffffffffffff16610eb96106a9565b73ffffffffffffffffffffffffffffffffffffffff1614610f0f576040517f08c379a0000000000000000000000000000000000000000000000000000000008152600401610f069061148b565b60405180910390fd5b565b6000600560009054906101000a900473ffffffffffffffffffffffffffffffffffffffff16905081600560006101000a81548173ffffffffffffffffffffffffffffffffffffffff021916908373ffffffffffffffffffffffffffffffffffffffff1602179055508173ffffffffffffffffffffffffffffffffffffffff168173ffffffffffffffffffffffffffffffffffffffff167f8be0079c531659141344cd1fd0a4f28419497f9722a3daafe3b4186f6b6457e060405160405180910390a35050565b505050565b505050565b600081359050610ff08161195c565b92915050565b60008151905061100581611973565b92915050565b60008135905061101a8161198a565b92915050565b600060208284031215611036576110356116cb565b5b600061104484828501610fe1565b91505092915050565b60008060408385031215611064576110636116cb565b5b600061107285828601610fe1565b925050602061108385828601610fe1565b9150509250929050565b6000806000606084860312156110a6576110a56116cb565b5b60006110b486828701610fe1565b93505060206110c586828701610fe1565b92505060406110d68682870161100b565b9150509250925092565b600080604083850312156110f7576110f66116cb565b5b600061110585828601610fe1565b92505060206111168582860161100b565b9150509250929050565b600060208284031215611136576111356116cb565b5b600061114484828501610ff6565b91505092915050565b600060208284031215611163576111626116cb565b5b60006111718482850161100b565b91505092915050565b60008060408385031215611191576111906116cb565b5b600061119f8582860161100b565b92505060206111b085828601610fe1565b9150509250929050565b6111c3816115b3565b82525050565b6111d2816115c5565b82525050565b60006111e382611541565b6111ed818561154c565b93506111fd818560208601611608565b611206816116d0565b840191505092915050565b600061121e60238361154c565b9150611229826116e1565b604082019050919050565b600061124160268361154c565b915061124c82611730565b604082019050919050565b600061126460228361154c565b915061126f8261177f565b604082019050919050565b6000611287601d8361154c565b9150611292826117ce565b602082019050919050565b60006112aa60268361154c565b91506112b5826117f7565b604082019050919050565b60006112cd60208361154c565b91506112d882611846565b602082019050919050565b60006112f060258361154c565b91506112fb8261186f565b604082019050919050565b600061131360248361154c565b915061131e826118be565b604082019050919050565b600061133660258361154c565b91506113418261190d565b604082019050919050565b611355816115f1565b82525050565b611364816115fb565b82525050565b600060208201905061137f60008301846111ba565b92915050565b600060408201905061139a60008301856111ba565b6113a7602083018461134c565b9392505050565b60006020820190506113c360008301846111c9565b92915050565b600060208201905081810360008301526113e381846111d8565b905092915050565b6000602082019050818103600083015261140481611211565b9050919050565b6000602082019050818103600083015261142481611234565b9050919050565b6000602082019050818103600083015261144481611257565b9050919050565b600060208201905081810360008301526114648161127a565b9050919050565b600060208201905081810360008301526114848161129d565b9050919050565b600060208201905081810360008301526114a4816112c0565b9050919050565b600060208201905081810360008301526114c4816112e3565b9050919050565b600060208201905081810360008301526114e481611306565b9050919050565b6000602082019050818103600083015261150481611329565b9050919050565b6000602082019050611520600083018461134c565b92915050565b600060208201905061153b600083018461135b565b92915050565b600081519050919050565b600082825260208201905092915050565b6000611568826115f1565b9150611573836115f1565b9250827fffffffffffffffffffffffffffffffffffffffffffffffffffffffffffffffff038211156115a8576115a761166d565b5b828201905092915050565b60006115be826115d1565b9050919050565b60008115159050919050565b600073ffffffffffffffffffffffffffffffffffffffff82169050919050565b6000819050919050565b600060ff82169050919050565b60005b8381101561162657808201518184015260208101905061160b565b83811115611635576000848401525b50505050565b6000600282049050600182168061165357607f821691505b602082108114156116675761166661169c565b5b50919050565b7f4e487b7100000000000000000000000000000000000000000000000000000000600052601160045260246000fd5b7f4e487b7100000000000000000000000000000000000000000000000000000000600052602260045260246000fd5b600080fd5b6000601f19601f8301169050919050565b7f45524332303a207472616e7366657220746f20746865207a65726f206164647260008201527f6573730000000000000000000000000000000000000000000000000000000000602082015250565b7f4f776e61626c653a206e6577206f776e657220697320746865207a65726f206160008201527f6464726573730000000000000000000000000000000000000000000000000000602082015250565b7f45524332303a20617070726f766520746f20746865207a65726f20616464726560008201527f7373000000000000000000000000000000000000000000000000000000000000602082015250565b7f45524332303a20696e73756666696369656e7420616c6c6f77616e6365000000600082015250565b7f45524332303a207472616e7366657220616d6f756e742065786365656473206260008201527f616c616e63650000000000000000000000000000000000000000000000000000602082015250565b7f4f776e61626c653a2063616c6c6572206973206e6f7420746865206f776e6572600082015250565b7f45524332303a207472616e736665722066726f6d20746865207a65726f20616460008201527f6472657373000000000000000000000000000000000000000000000000000000602082015250565b7f45524332303a20617070726f76652066726f6d20746865207a65726f2061646460008201527f7265737300000000000000000000000000000000000000000000000000000000602082015250565b7f45524332303a2064656372656173656420616c6c6f77616e63652062656c6f7760008201527f207a65726f000000000000000000000000000000000000000000000000000000602082015250565b611965816115b3565b811461197057600080fd5b50565b61197c816115c5565b811461198757600080fd5b50565b611993816115f1565b811461199e57600080fd5b5056fea26469706673582212207dab9015ad89256769bb5be70d0d9438d654dde19dcecbfc47dc0f04aba04d2e64736f6c63430008070033",
    "opcodes": "PUSH1 0x80 PUSH1 0x40 MSTORE PUSH1 0x4 CALLDATASIZE LT PUSH2 0x114 JUMPI PUSH1 0x0 CALLDATALOAD PUSH1 0xE0 SHR DUP1 PUSH4 0x70A08231 GT PUSH2 0xA0 JUMPI DUP1 PUSH4 0x9605F505 GT PUSH2 0x64 JUMPI DUP1 PUSH4 0x9605F505 EQ PUSH2 0x3A3 JUMPI DUP1 PUSH4 0xA457C2D7 EQ PUSH2 0x3BF JUMPI DUP1 PUSH4 0xA9059CBB EQ PUSH2 0x3FC JUMPI DUP1 PUSH4 0xDD62ED3E EQ PUSH2 0x439 JUMPI DUP1 PUSH4 0xF2FDE38B EQ PUSH2 0x476 JUMPI PUSH2 0x114 JUMP JUMPDEST DUP1 PUSH4 0x70A08231 EQ PUSH2 0x2D0 JUMPI DUP1 PUSH4 0x715018A6 EQ PUSH2 0x30D JUMPI DUP1 PUSH4 0x8DA5CB5B EQ PUSH2 0x324 JUMPI DUP1 PUSH4 0x8ECB987E EQ PUSH2 0x34F JUMPI DUP1 PUSH4 0x95D89B41 EQ PUSH2 0x378 JUMPI PUSH2 0x114 JUMP JUMPDEST DUP1 PUSH4 0x313CE567 GT PUSH2 0xE7 JUMPI DUP1 PUSH4 0x313CE567 EQ PUSH2 0x1E9 JUMPI DUP1 PUSH4 0x39509351 EQ PUSH2 0x214 JUMPI DUP1 PUSH4 0x4B94F50E EQ PUSH2 0x251 JUMPI DUP1 PUSH4 0x6E9960C3 EQ PUSH2 0x27C JUMPI DUP1 PUSH4 0x704B6C02 EQ PUSH2 0x2A7 JUMPI PUSH2 0x114 JUMP JUMPDEST DUP1 PUSH4 0x6FDDE03 EQ PUSH2 0x119 JUMPI DUP1 PUSH4 0x95EA7B3 EQ PUSH2 0x144 JUMPI DUP1 PUSH4 0x18160DDD EQ PUSH2 0x181 JUMPI DUP1 PUSH4 0x23B872DD EQ PUSH2 0x1AC JUMPI JUMPDEST PUSH1 0x0 DUP1 REVERT JUMPDEST CALLVALUE DUP1 ISZERO PUSH2 0x125 JUMPI PUSH1 0x0 DUP1 REVERT JUMPDEST POP PUSH2 0x12E PUSH2 0x49F JUMP JUMPDEST PUSH1 0x40 MLOAD PUSH2 0x13B SWAP2 SWAP1 PUSH2 0x13C9 JUMP JUMPDEST PUSH1 0x40 MLOAD DUP1 SWAP2 SUB SWAP1 RETURN JUMPDEST CALLVALUE DUP1 ISZERO PUSH2 0x150 JUMPI PUSH1 0x0 DUP1 REVERT JUMPDEST POP PUSH2 0x16B PUSH1 0x4 DUP1 CALLDATASIZE SUB DUP2 ADD SWAP1 PUSH2 0x166 SWAP2 SWAP1 PUSH2 0x10E0 JUMP JUMPDEST PUSH2 0x531 JUMP JUMPDEST PUSH1 0x40 MLOAD PUSH2 0x178 SWAP2 SWAP1 PUSH2 0x13AE JUMP JUMPDEST PUSH1 0x40 MLOAD DUP1 SWAP2 SUB SWAP1 RETURN JUMPDEST CALLVALUE DUP1 ISZERO PUSH2 0x18D JUMPI PUSH1 0x0 DUP1 REVERT JUMPDEST POP PUSH2 0x196 PUSH2 0x554 JUMP JUMPDEST PUSH1 0x40 MLOAD PUSH2 0x1A3 SWAP2 SWAP1 PUSH2 0x150B JUMP JUMPDEST PUSH1 0x40 MLOAD DUP1 SWAP2 SUB SWAP1 RETURN JUMPDEST CALLVALUE DUP1 ISZERO PUSH2 0x1B8 JUMPI PUSH1 0x0 DUP1 REVERT JUMPDEST POP PUSH2 0x1D3 PUSH1 0x4 DUP1 CALLDATASIZE SUB DUP2 ADD SWAP1 PUSH2 0x1CE SWAP2 SWAP1 PUSH2 0x108D JUMP JUMPDEST PUSH2 0x55E JUMP JUMPDEST PUSH1 0x40 MLOAD PUSH2 0x1E0 SWAP2 SWAP1 PUSH2 0x13AE JUMP JUMPDEST PUSH1 0x40 MLOAD DUP1 SWAP2 SUB SWAP1 RETURN JUMPDEST CALLVALUE DUP1 ISZERO PUSH2 0x1F5 JUMPI PUSH1 0x0 DUP1 REVERT JUMPDEST POP PUSH2 0x1FE PUSH2 0x58D JUMP JUMPDEST PUSH1 0x40 MLOAD PUSH2 0x20B SWAP2 SWAP1 PUSH2 0x1526 JUMP JUMPDEST PUSH1 0x40 MLOAD DUP1 SWAP2 SUB SWAP1 RETURN JUMPDEST CALLVALUE DUP1 ISZERO PUSH2 0x220 JUMPI PUSH1 0x0 DUP1 REVERT JUMPDEST POP PUSH2 0x23B PUSH1 0x4 DUP1 CALLDATASIZE SUB DUP2 ADD SWAP1 PUSH2 0x236 SWAP2 SWAP1 PUSH2 0x10E0 JUMP JUMPDEST PUSH2 0x596 JUMP JUMPDEST PUSH1 0x40 MLOAD PUSH2 0x248 SWAP2 SWAP1 PUSH2 0x13AE JUMP JUMPDEST PUSH1 0x40 MLOAD DUP1 SWAP2 SUB SWAP1 RETURN JUMPDEST CALLVALUE DUP1 ISZERO PUSH2 0x25D JUMPI PUSH1 0x0 DUP1 REVERT JUMPDEST POP PUSH2 0x266 PUSH2 0x5CD JUMP JUMPDEST PUSH1 0x40 MLOAD PUSH2 0x273 SWAP2 SWAP1 PUSH2 0x150B JUMP JUMPDEST PUSH1 0x40 MLOAD DUP1 SWAP2 SUB SWAP1 RETURN JUMPDEST CALLVALUE DUP1 ISZERO PUSH2 0x288 JUMPI PUSH1 0x0 DUP1 REVERT JUMPDEST POP PUSH2 0x291 PUSH2 0x5D7 JUMP JUMPDEST PUSH1 0x40 MLOAD PUSH2 0x29E SWAP2 SWAP1 PUSH2 0x136A JUMP JUMPDEST PUSH1 0x40 MLOAD DUP1 SWAP2 SUB SWAP1 RETURN JUMPDEST CALLVALUE DUP1 ISZERO PUSH2 0x2B3 JUMPI PUSH1 0x0 DUP1 REVERT JUMPDEST POP PUSH2 0x2CE PUSH1 0x4 DUP1 CALLDATASIZE SUB DUP2 ADD SWAP1 PUSH2 0x2C9 SWAP2 SWAP1 PUSH2 0x1020 JUMP JUMPDEST PUSH2 0x601 JUMP JUMPDEST STOP JUMPDEST CALLVALUE DUP1 ISZERO PUSH2 0x2DC JUMPI PUSH1 0x0 DUP1 REVERT JUMPDEST POP PUSH2 0x2F7 PUSH1 0x4 DUP1 CALLDATASIZE SUB DUP2 ADD SWAP1 PUSH2 0x2F2 SWAP2 SWAP1 PUSH2 0x1020 JUMP JUMPDEST PUSH2 0x64D JUMP JUMPDEST PUSH1 0x40 MLOAD PUSH2 0x304 SWAP2 SWAP1 PUSH2 0x150B JUMP JUMPDEST PUSH1 0x40 MLOAD DUP1 SWAP2 SUB SWAP1 RETURN JUMPDEST CALLVALUE DUP1 ISZERO PUSH2 0x319 JUMPI PUSH1 0x0 DUP1 REVERT JUMPDEST POP PUSH2 0x322 PUSH2 0x695 JUMP JUMPDEST STOP JUMPDEST CALLVALUE DUP1 ISZERO PUSH2 0x330 JUMPI PUSH1 0x0 DUP1 REVERT JUMPDEST POP PUSH2 0x339 PUSH2 0x6A9 JUMP JUMPDEST PUSH1 0x40 MLOAD PUSH2 0x346 SWAP2 SWAP1 PUSH2 0x136A JUMP JUMPDEST PUSH1 0x40 MLOAD DUP1 SWAP2 SUB SWAP1 RETURN JUMPDEST CALLVALUE DUP1 ISZERO PUSH2 0x35B JUMPI PUSH1 0x0 DUP1 REVERT JUMPDEST POP PUSH2 0x376 PUSH1 0x4 DUP1 CALLDATASIZE SUB DUP2 ADD SWAP1 PUSH2 0x371 SWAP2 SWAP1 PUSH2 0x114D JUMP JUMPDEST PUSH2 0x6D3 JUMP JUMPDEST STOP JUMPDEST CALLVALUE DUP1 ISZERO PUSH2 0x384 JUMPI PUSH1 0x0 DUP1 REVERT JUMPDEST POP PUSH2 0x38D PUSH2 0x6E5 JUMP JUMPDEST PUSH1 0x40 MLOAD PUSH2 0x39A SWAP2 SWAP1 PUSH2 0x13C9 JUMP JUMPDEST PUSH1 0x40 MLOAD DUP1 SWAP2 SUB SWAP1 RETURN JUMPDEST PUSH2 0x3BD PUSH1 0x4 DUP1 CALLDATASIZE SUB DUP2 ADD SWAP1 PUSH2 0x3B8 SWAP2 SWAP1 PUSH2 0x117A JUMP JUMPDEST PUSH2 0x777 JUMP JUMPDEST STOP JUMPDEST CALLVALUE DUP1 ISZERO PUSH2 0x3CB JUMPI PUSH1 0x0 DUP1 REVERT JUMPDEST POP PUSH2 0x3E6 PUSH1 0x4 DUP1 CALLDATASIZE SUB DUP2 ADD SWAP1 PUSH2 0x3E1 SWAP2 SWAP1 PUSH2 0x10E0 JUMP JUMPDEST PUSH2 0x817 JUMP JUMPDEST PUSH1 0x40 MLOAD PUSH2 0x3F3 SWAP2 SWAP1 PUSH2 0x13AE JUMP JUMPDEST PUSH1 0x40 MLOAD DUP1 SWAP2 SUB SWAP1 RETURN JUMPDEST CALLVALUE DUP1 ISZERO PUSH2 0x408 JUMPI PUSH1 0x0 DUP1 REVERT JUMPDEST POP PUSH2 0x423 PUSH1 0x4 DUP1 CALLDATASIZE SUB DUP2 ADD SWAP1 PUSH2 0x41E SWAP2 SWAP1 PUSH2 0x10E0 JUMP JUMPDEST PUSH2 0x88E JUMP JUMPDEST PUSH1 0x40 MLOAD PUSH2 0x430 SWAP2 SWAP1 PUSH2 0x13AE JUMP JUMPDEST PUSH1 0x40 MLOAD DUP1 SWAP2 SUB SWAP1 RETURN JUMPDEST CALLVALUE DUP1 ISZERO PUSH2 0x445 JUMPI PUSH1 0x0 DUP1 REVERT JUMPDEST POP PUSH2 0x460 PUSH1 0x4 DUP1 CALLDATASIZE SUB DUP2 ADD SWAP1 PUSH2 0x45B SWAP2 SWAP1 PUSH2 0x104D JUMP JUMPDEST PUSH2 0x8B1 JUMP JUMPDEST PUSH1 0x40 MLOAD PUSH2 0x46D SWAP2 SWAP1 PUSH2 0x150B JUMP JUMPDEST PUSH1 0x40 MLOAD DUP1 SWAP2 SUB SWAP1 RETURN JUMPDEST CALLVALUE DUP1 ISZERO PUSH2 0x482 JUMPI PUSH1 0x0 DUP1 REVERT JUMPDEST POP PUSH2 0x49D PUSH1 0x4 DUP1 CALLDATASIZE SUB DUP2 ADD SWAP1 PUSH2 0x498 SWAP2 SWAP1 PUSH2 0x1020 JUMP JUMPDEST PUSH2 0x938 JUMP JUMPDEST STOP JUMPDEST PUSH1 0x60 PUSH1 0x3 DUP1 SLOAD PUSH2 0x4AE SWAP1 PUSH2 0x163B JUMP JUMPDEST DUP1 PUSH1 0x1F ADD PUSH1 0x20 DUP1 SWAP2 DIV MUL PUSH1 0x20 ADD PUSH1 0x40 MLOAD SWAP1 DUP2 ADD PUSH1 0x40 MSTORE DUP1 SWAP3 SWAP2 SWAP1 DUP2 DUP2 MSTORE PUSH1 0x20 ADD DUP3 DUP1 SLOAD PUSH2 0x4DA SWAP1 PUSH2 0x163B JUMP JUMPDEST DUP1 ISZERO PUSH2 0x527 JUMPI DUP1 PUSH1 0x1F LT PUSH2 0x4FC JUMPI PUSH2 0x100 DUP1 DUP4 SLOAD DIV MUL DUP4 MSTORE SWAP2 PUSH1 0x20 ADD SWAP2 PUSH2 0x527 JUMP JUMPDEST DUP3 ADD SWAP2 SWAP1 PUSH1 0x0 MSTORE PUSH1 0x20 PUSH1 0x0 KECCAK256 SWAP1 JUMPDEST DUP2 SLOAD DUP2 MSTORE SWAP1 PUSH1 0x1 ADD SWAP1 PUSH1 0x20 ADD DUP1 DUP4 GT PUSH2 0x50A JUMPI DUP3 SWAP1 SUB PUSH1 0x1F AND DUP3 ADD SWAP2 JUMPDEST POP POP POP POP POP SWAP1 POP SWAP1 JUMP JUMPDEST PUSH1 0x0 DUP1 PUSH2 0x53C PUSH2 0x9BC JUMP JUMPDEST SWAP1 POP PUSH2 0x549 DUP2 DUP6 DUP6 PUSH2 0x9C4 JUMP JUMPDEST PUSH1 0x1 SWAP2 POP POP SWAP3 SWAP2 POP POP JUMP JUMPDEST PUSH1 0x0 PUSH1 0x2 SLOAD SWAP1 POP SWAP1 JUMP JUMPDEST PUSH1 0x0 DUP1 PUSH2 0x569 PUSH2 0x9BC JUMP JUMPDEST SWAP1 POP PUSH2 0x576 DUP6 DUP3 DUP6 PUSH2 0xB8F JUMP JUMPDEST PUSH2 0x581 DUP6 DUP6 DUP6 PUSH2 0xC1B JUMP JUMPDEST PUSH1 0x1 SWAP2 POP POP SWAP4 SWAP3 POP POP POP JUMP JUMPDEST PUSH1 0x0 PUSH1 0x12 SWAP1 POP SWAP1 JUMP JUMPDEST PUSH1 0x0 DUP1 PUSH2 0x5A1 PUSH2 0x9BC JUMP JUMPDEST SWAP1 POP PUSH2 0x5C2 DUP2 DUP6 DUP6 PUSH2 0x5B3 DUP6 DUP10 PUSH2 0x8B1 JUMP JUMPDEST PUSH2 0x5BD SWAP2 SWAP1 PUSH2 0x155D JUMP JUMPDEST PUSH2 0x9C4 JUMP JUMPDEST PUSH1 0x1 SWAP2 POP POP SWAP3 SWAP2 POP POP JUMP JUMPDEST PUSH1 0x0 PUSH1 0x8 SLOAD SWAP1 POP SWAP1 JUMP JUMPDEST PUSH1 0x0 PUSH1 0x6 PUSH1 0x0 SWAP1 SLOAD SWAP1 PUSH2 0x100 EXP SWAP1 DIV PUSH20 0xFFFFFFFFFFFFFFFFFFFFFFFFFFFFFFFFFFFFFFFF AND SWAP1 POP SWAP1 JUMP JUMPDEST PUSH2 0x609 PUSH2 0xE93 JUMP JUMPDEST DUP1 PUSH1 0x6 PUSH1 0x0 PUSH2 0x100 EXP DUP2 SLOAD DUP2 PUSH20 0xFFFFFFFFFFFFFFFFFFFFFFFFFFFFFFFFFFFFFFFF MUL NOT AND SWAP1 DUP4 PUSH20 0xFFFFFFFFFFFFFFFFFFFFFFFFFFFFFFFFFFFFFFFF AND MUL OR SWAP1 SSTORE POP POP JUMP JUMPDEST PUSH1 0x0 DUP1 PUSH1 0x0 DUP4 PUSH20 0xFFFFFFFFFFFFFFFFFFFFFFFFFFFFFFFFFFFFFFFF AND PUSH20 0xFFFFFFFFFFFFFFFFFFFFFFFFFFFFFFFFFFFFFFFF AND DUP2 MSTORE PUSH1 0x20 ADD SWAP1 DUP2 MSTORE PUSH1 0x20 ADD PUSH1 0x0 KECCAK256 SLOAD SWAP1 POP SWAP2 SWAP1 POP JUMP JUMPDEST PUSH2 0x69D PUSH2 0xE93 JUMP JUMPDEST PUSH2 0x6A7 PUSH1 0x0 PUSH2 0xF11 JUMP JUMPDEST JUMP JUMPDEST PUSH1 0x0 PUSH1 0x5 PUSH1 0x0 SWAP1 SLOAD SWAP1 PUSH2 0x100 EXP SWAP1 DIV PUSH20 0xFFFFFFFFFFFFFFFFFFFFFFFFFFFFFFFFFFFFFFFF AND SWAP1 POP SWAP1 JUMP JUMPDEST PUSH2 0x6DB PUSH2 0xE93 JUMP JUMPDEST DUP1 PUSH1 0x8 DUP2 SWAP1 SSTORE POP POP JUMP JUMPDEST PUSH1 0x60 PUSH1 0x4 DUP1 SLOAD PUSH2 0x6F4 SWAP1 PUSH2 0x163B JUMP JUMPDEST DUP1 PUSH1 0x1F ADD PUSH1 0x20 DUP1 SWAP2 DIV MUL PUSH1 0x20 ADD PUSH1 0x40 MLOAD SWAP1 DUP2 ADD PUSH1 0x40 MSTORE DUP1 SWAP3 SWAP2 SWAP1 DUP2 DUP2 MSTORE PUSH1 0x20 ADD DUP3 DUP1 SLOAD PUSH2 0x720 SWAP1 PUSH2 0x163B JUMP JUMPDEST DUP1 ISZERO PUSH2 0x76D JUMPI DUP1 PUSH1 0x1F LT PUSH2 0x742 JUMPI PUSH2 0x100 DUP1 DUP4 SLOAD DIV MUL DUP4 MSTORE SWAP2 PUSH1 0x20 ADD SWAP2 PUSH2 0x76D JUMP JUMPDEST DUP3 ADD SWAP2 SWAP1 PUSH1 0x0 MSTORE PUSH1 0x20 PUSH1 0x0 KECCAK256 SWAP1 JUMPDEST DUP2 SLOAD DUP2 MSTORE SWAP1 PUSH1 0x1 ADD SWAP1 PUSH1 0x20 ADD DUP1 DUP4 GT PUSH2 0x750 JUMPI DUP3 SWAP1 SUB PUSH1 0x1F AND DUP3 ADD SWAP2 JUMPDEST POP POP POP POP POP SWAP1 POP SWAP1 JUMP JUMPDEST PUSH2 0x77F PUSH2 0xE93 JUMP JUMPDEST PUSH1 0x0 DUP2 SWAP1 POP DUP1 PUSH20 0xFFFFFFFFFFFFFFFFFFFFFFFFFFFFFFFFFFFFFFFF AND PUSH4 0xA9059CBB CALLER DUP6 PUSH1 0x40 MLOAD DUP4 PUSH4 0xFFFFFFFF AND PUSH1 0xE0 SHL DUP2 MSTORE PUSH1 0x4 ADD PUSH2 0x7BF SWAP3 SWAP2 SWAP1 PUSH2 0x1385 JUMP JUMPDEST PUSH1 0x20 PUSH1 0x40 MLOAD DUP1 DUP4 SUB DUP2 PUSH1 0x0 DUP8 DUP1 EXTCODESIZE ISZERO DUP1 ISZERO PUSH2 0x7D9 JUMPI PUSH1 0x0 DUP1 REVERT JUMPDEST POP GAS CALL ISZERO DUP1 ISZERO PUSH2 0x7ED JUMPI RETURNDATASIZE PUSH1 0x0 DUP1 RETURNDATACOPY RETURNDATASIZE PUSH1 0x0 REVERT JUMPDEST POP POP POP POP PUSH1 0x40 MLOAD RETURNDATASIZE PUSH1 0x1F NOT PUSH1 0x1F DUP3 ADD AND DUP3 ADD DUP1 PUSH1 0x40 MSTORE POP DUP2 ADD SWAP1 PUSH2 0x811 SWAP2 SWAP1 PUSH2 0x1120 JUMP JUMPDEST POP POP POP POP JUMP JUMPDEST PUSH1 0x0 DUP1 PUSH2 0x822 PUSH2 0x9BC JUMP JUMPDEST SWAP1 POP PUSH1 0x0 PUSH2 0x830 DUP3 DUP7 PUSH2 0x8B1 JUMP JUMPDEST SWAP1 POP DUP4 DUP2 LT ISZERO PUSH2 0x875 JUMPI PUSH1 0x40 MLOAD PUSH32 0x8C379A000000000000000000000000000000000000000000000000000000000 DUP2 MSTORE PUSH1 0x4 ADD PUSH2 0x86C SWAP1 PUSH2 0x14EB JUMP JUMPDEST PUSH1 0x40 MLOAD DUP1 SWAP2 SUB SWAP1 REVERT JUMPDEST PUSH2 0x882 DUP3 DUP7 DUP7 DUP5 SUB PUSH2 0x9C4 JUMP JUMPDEST PUSH1 0x1 SWAP3 POP POP POP SWAP3 SWAP2 POP POP JUMP JUMPDEST PUSH1 0x0 DUP1 PUSH2 0x899 PUSH2 0x9BC JUMP JUMPDEST SWAP1 POP PUSH2 0x8A6 DUP2 DUP6 DUP6 PUSH2 0xC1B JUMP JUMPDEST PUSH1 0x1 SWAP2 POP POP SWAP3 SWAP2 POP POP JUMP JUMPDEST PUSH1 0x0 PUSH1 0x1 PUSH1 0x0 DUP5 PUSH20 0xFFFFFFFFFFFFFFFFFFFFFFFFFFFFFFFFFFFFFFFF AND PUSH20 0xFFFFFFFFFFFFFFFFFFFFFFFFFFFFFFFFFFFFFFFF AND DUP2 MSTORE PUSH1 0x20 ADD SWAP1 DUP2 MSTORE PUSH1 0x20 ADD PUSH1 0x0 KECCAK256 PUSH1 0x0 DUP4 PUSH20 0xFFFFFFFFFFFFFFFFFFFFFFFFFFFFFFFFFFFFFFFF AND PUSH20 0xFFFFFFFFFFFFFFFFFFFFFFFFFFFFFFFFFFFFFFFF AND DUP2 MSTORE PUSH1 0x20 ADD SWAP1 DUP2 MSTORE PUSH1 0x20 ADD PUSH1 0x0 KECCAK256 SLOAD SWAP1 POP SWAP3 SWAP2 POP POP JUMP JUMPDEST PUSH2 0x940 PUSH2 0xE93 JUMP JUMPDEST PUSH1 0x0 PUSH20 0xFFFFFFFFFFFFFFFFFFFFFFFFFFFFFFFFFFFFFFFF AND DUP2 PUSH20 0xFFFFFFFFFFFFFFFFFFFFFFFFFFFFFFFFFFFFFFFF AND EQ ISZERO PUSH2 0x9B0 JUMPI PUSH1 0x40 MLOAD PUSH32 0x8C379A000000000000000000000000000000000000000000000000000000000 DUP2 MSTORE PUSH1 0x4 ADD PUSH2 0x9A7 SWAP1 PUSH2 0x140B JUMP JUMPDEST PUSH1 0x40 MLOAD DUP1 SWAP2 SUB SWAP1 REVERT JUMPDEST PUSH2 0x9B9 DUP2 PUSH2 0xF11 JUMP JUMPDEST POP JUMP JUMPDEST PUSH1 0x0 CALLER SWAP1 POP SWAP1 JUMP JUMPDEST PUSH1 0x0 PUSH20 0xFFFFFFFFFFFFFFFFFFFFFFFFFFFFFFFFFFFFFFFF AND DUP4 PUSH20 0xFFFFFFFFFFFFFFFFFFFFFFFFFFFFFFFFFFFFFFFF AND EQ ISZERO PUSH2 0xA34 JUMPI PUSH1 0x40 MLOAD PUSH32 0x8C379A000000000000000000000000000000000000000000000000000000000 DUP2 MSTORE PUSH1 0x4 ADD PUSH2 0xA2B SWAP1 PUSH2 0x14CB JUMP JUMPDEST PUSH1 0x40 MLOAD DUP1 SWAP2 SUB SWAP1 REVERT JUMPDEST PUSH1 0x0 PUSH20 0xFFFFFFFFFFFFFFFFFFFFFFFFFFFFFFFFFFFFFFFF AND DUP3 PUSH20 0xFFFFFFFFFFFFFFFFFFFFFFFFFFFFFFFFFFFFFFFF AND EQ ISZERO PUSH2 0xAA4 JUMPI PUSH1 0x40 MLOAD PUSH32 0x8C379A000000000000000000000000000000000000000000000000000000000 DUP2 MSTORE PUSH1 0x4 ADD PUSH2 0xA9B SWAP1 PUSH2 0x142B JUMP JUMPDEST PUSH1 0x40 MLOAD DUP1 SWAP2 SUB SWAP1 REVERT JUMPDEST DUP1 PUSH1 0x1 PUSH1 0x0 DUP6 PUSH20 0xFFFFFFFFFFFFFFFFFFFFFFFFFFFFFFFFFFFFFFFF AND PUSH20 0xFFFFFFFFFFFFFFFFFFFFFFFFFFFFFFFFFFFFFFFF AND DUP2 MSTORE PUSH1 0x20 ADD SWAP1 DUP2 MSTORE PUSH1 0x20 ADD PUSH1 0x0 KECCAK256 PUSH1 0x0 DUP5 PUSH20 0xFFFFFFFFFFFFFFFFFFFFFFFFFFFFFFFFFFFFFFFF AND PUSH20 0xFFFFFFFFFFFFFFFFFFFFFFFFFFFFFFFFFFFFFFFF AND DUP2 MSTORE PUSH1 0x20 ADD SWAP1 DUP2 MSTORE PUSH1 0x20 ADD PUSH1 0x0 KECCAK256 DUP2 SWAP1 SSTORE POP DUP2 PUSH20 0xFFFFFFFFFFFFFFFFFFFFFFFFFFFFFFFFFFFFFFFF AND DUP4 PUSH20 0xFFFFFFFFFFFFFFFFFFFFFFFFFFFFFFFFFFFFFFFF AND PUSH32 0x8C5BE1E5EBEC7D5BD14F71427D1E84F3DD0314C0F7B2291E5B200AC8C7C3B925 DUP4 PUSH1 0x40 MLOAD PUSH2 0xB82 SWAP2 SWAP1 PUSH2 0x150B JUMP JUMPDEST PUSH1 0x40 MLOAD DUP1 SWAP2 SUB SWAP1 LOG3 POP POP POP JUMP JUMPDEST PUSH1 0x0 PUSH2 0xB9B DUP5 DUP5 PUSH2 0x8B1 JUMP JUMPDEST SWAP1 POP PUSH32 0xFFFFFFFFFFFFFFFFFFFFFFFFFFFFFFFFFFFFFFFFFFFFFFFFFFFFFFFFFFFFFFFF DUP2 EQ PUSH2 0xC15 JUMPI DUP2 DUP2 LT ISZERO PUSH2 0xC07 JUMPI PUSH1 0x40 MLOAD PUSH32 0x8C379A000000000000000000000000000000000000000000000000000000000 DUP2 MSTORE PUSH1 0x4 ADD PUSH2 0xBFE SWAP1 PUSH2 0x144B JUMP JUMPDEST PUSH1 0x40 MLOAD DUP1 SWAP2 SUB SWAP1 REVERT JUMPDEST PUSH2 0xC14 DUP5 DUP5 DUP5 DUP5 SUB PUSH2 0x9C4 JUMP JUMPDEST JUMPDEST POP POP POP POP JUMP JUMPDEST PUSH1 0x0 PUSH20 0xFFFFFFFFFFFFFFFFFFFFFFFFFFFFFFFFFFFFFFFF AND DUP4 PUSH20 0xFFFFFFFFFFFFFFFFFFFFFFFFFFFFFFFFFFFFFFFF AND EQ ISZERO PUSH2 0xC8B JUMPI PUSH1 0x40 MLOAD PUSH32 0x8C379A000000000000000000000000000000000000000000000000000000000 DUP2 MSTORE PUSH1 0x4 ADD PUSH2 0xC82 SWAP1 PUSH2 0x14AB JUMP JUMPDEST PUSH1 0x40 MLOAD DUP1 SWAP2 SUB SWAP1 REVERT JUMPDEST PUSH1 0x0 PUSH20 0xFFFFFFFFFFFFFFFFFFFFFFFFFFFFFFFFFFFFFFFF AND DUP3 PUSH20 0xFFFFFFFFFFFFFFFFFFFFFFFFFFFFFFFFFFFFFFFF AND EQ ISZERO PUSH2 0xCFB JUMPI PUSH1 0x40 MLOAD PUSH32 0x8C379A000000000000000000000000000000000000000000000000000000000 DUP2 MSTORE PUSH1 0x4 ADD PUSH2 0xCF2 SWAP1 PUSH2 0x13EB JUMP JUMPDEST PUSH1 0x40 MLOAD DUP1 SWAP2 SUB SWAP1 REVERT JUMPDEST PUSH2 0xD06 DUP4 DUP4 DUP4 PUSH2 0xFD7 JUMP JUMPDEST PUSH1 0x0 DUP1 PUSH1 0x0 DUP6 PUSH20 0xFFFFFFFFFFFFFFFFFFFFFFFFFFFFFFFFFFFFFFFF AND PUSH20 0xFFFFFFFFFFFFFFFFFFFFFFFFFFFFFFFFFFFFFFFF AND DUP2 MSTORE PUSH1 0x20 ADD SWAP1 DUP2 MSTORE PUSH1 0x20 ADD PUSH1 0x0 KECCAK256 SLOAD SWAP1 POP DUP2 DUP2 LT ISZERO PUSH2 0xD8C JUMPI PUSH1 0x40 MLOAD PUSH32 0x8C379A000000000000000000000000000000000000000000000000000000000 DUP2 MSTORE PUSH1 0x4 ADD PUSH2 0xD83 SWAP1 PUSH2 0x146B JUMP JUMPDEST PUSH1 0x40 MLOAD DUP1 SWAP2 SUB SWAP1 REVERT JUMPDEST DUP2 DUP2 SUB PUSH1 0x0 DUP1 DUP7 PUSH20 0xFFFFFFFFFFFFFFFFFFFFFFFFFFFFFFFFFFFFFFFF AND PUSH20 0xFFFFFFFFFFFFFFFFFFFFFFFFFFFFFFFFFFFFFFFF AND DUP2 MSTORE PUSH1 0x20 ADD SWAP1 DUP2 MSTORE PUSH1 0x20 ADD PUSH1 0x0 KECCAK256 DUP2 SWAP1 SSTORE POP DUP2 PUSH1 0x0 DUP1 DUP6 PUSH20 0xFFFFFFFFFFFFFFFFFFFFFFFFFFFFFFFFFFFFFFFF AND PUSH20 0xFFFFFFFFFFFFFFFFFFFFFFFFFFFFFFFFFFFFFFFF AND DUP2 MSTORE PUSH1 0x20 ADD SWAP1 DUP2 MSTORE PUSH1 0x20 ADD PUSH1 0x0 KECCAK256 PUSH1 0x0 DUP3 DUP3 SLOAD ADD SWAP3 POP POP DUP2 SWAP1 SSTORE POP DUP3 PUSH20 0xFFFFFFFFFFFFFFFFFFFFFFFFFFFFFFFFFFFFFFFF AND DUP5 PUSH20 0xFFFFFFFFFFFFFFFFFFFFFFFFFFFFFFFFFFFFFFFF AND PUSH32 0xDDF252AD1BE2C89B69C2B068FC378DAA952BA7F163C4A11628F55A4DF523B3EF DUP5 PUSH1 0x40 MLOAD PUSH2 0xE7A SWAP2 SWAP1 PUSH2 0x150B JUMP JUMPDEST PUSH1 0x40 MLOAD DUP1 SWAP2 SUB SWAP1 LOG3 PUSH2 0xE8D DUP5 DUP5 DUP5 PUSH2 0xFDC JUMP JUMPDEST POP POP POP POP JUMP JUMPDEST PUSH2 0xE9B PUSH2 0x9BC JUMP JUMPDEST PUSH20 0xFFFFFFFFFFFFFFFFFFFFFFFFFFFFFFFFFFFFFFFF AND PUSH2 0xEB9 PUSH2 0x6A9 JUMP JUMPDEST PUSH20 0xFFFFFFFFFFFFFFFFFFFFFFFFFFFFFFFFFFFFFFFF AND EQ PUSH2 0xF0F JUMPI PUSH1 0x40 MLOAD PUSH32 0x8C379A000000000000000000000000000000000000000000000000000000000 DUP2 MSTORE PUSH1 0x4 ADD PUSH2 0xF06 SWAP1 PUSH2 0x148B JUMP JUMPDEST PUSH1 0x40 MLOAD DUP1 SWAP2 SUB SWAP1 REVERT JUMPDEST JUMP JUMPDEST PUSH1 0x0 PUSH1 0x5 PUSH1 0x0 SWAP1 SLOAD SWAP1 PUSH2 0x100 EXP SWAP1 DIV PUSH20 0xFFFFFFFFFFFFFFFFFFFFFFFFFFFFFFFFFFFFFFFF AND SWAP1 POP DUP2 PUSH1 0x5 PUSH1 0x0 PUSH2 0x100 EXP DUP2 SLOAD DUP2 PUSH20 0xFFFFFFFFFFFFFFFFFFFFFFFFFFFFFFFFFFFFFFFF MUL NOT AND SWAP1 DUP4 PUSH20 0xFFFFFFFFFFFFFFFFFFFFFFFFFFFFFFFFFFFFFFFF AND MUL OR SWAP1 SSTORE POP DUP2 PUSH20 0xFFFFFFFFFFFFFFFFFFFFFFFFFFFFFFFFFFFFFFFF AND DUP2 PUSH20 0xFFFFFFFFFFFFFFFFFFFFFFFFFFFFFFFFFFFFFFFF AND PUSH32 0x8BE0079C531659141344CD1FD0A4F28419497F9722A3DAAFE3B4186F6B6457E0 PUSH1 0x40 MLOAD PUSH1 0x40 MLOAD DUP1 SWAP2 SUB SWAP1 LOG3 POP POP JUMP JUMPDEST POP POP POP JUMP JUMPDEST POP POP POP JUMP JUMPDEST PUSH1 0x0 DUP2 CALLDATALOAD SWAP1 POP PUSH2 0xFF0 DUP2 PUSH2 0x195C JUMP JUMPDEST SWAP3 SWAP2 POP POP JUMP JUMPDEST PUSH1 0x0 DUP2 MLOAD SWAP1 POP PUSH2 0x1005 DUP2 PUSH2 0x1973 JUMP JUMPDEST SWAP3 SWAP2 POP POP JUMP JUMPDEST PUSH1 0x0 DUP2 CALLDATALOAD SWAP1 POP PUSH2 0x101A DUP2 PUSH2 0x198A JUMP JUMPDEST SWAP3 SWAP2 POP POP JUMP JUMPDEST PUSH1 0x0 PUSH1 0x20 DUP3 DUP5 SUB SLT ISZERO PUSH2 0x1036 JUMPI PUSH2 0x1035 PUSH2 0x16CB JUMP JUMPDEST JUMPDEST PUSH1 0x0 PUSH2 0x1044 DUP5 DUP3 DUP6 ADD PUSH2 0xFE1 JUMP JUMPDEST SWAP2 POP POP SWAP3 SWAP2 POP POP JUMP JUMPDEST PUSH1 0x0 DUP1 PUSH1 0x40 DUP4 DUP6 SUB SLT ISZERO PUSH2 0x1064 JUMPI PUSH2 0x1063 PUSH2 0x16CB JUMP JUMPDEST JUMPDEST PUSH1 0x0 PUSH2 0x1072 DUP6 DUP3 DUP7 ADD PUSH2 0xFE1 JUMP JUMPDEST SWAP3 POP POP PUSH1 0x20 PUSH2 0x1083 DUP6 DUP3 DUP7 ADD PUSH2 0xFE1 JUMP JUMPDEST SWAP2 POP POP SWAP3 POP SWAP3 SWAP1 POP JUMP JUMPDEST PUSH1 0x0 DUP1 PUSH1 0x0 PUSH1 0x60 DUP5 DUP7 SUB SLT ISZERO PUSH2 0x10A6 JUMPI PUSH2 0x10A5 PUSH2 0x16CB JUMP JUMPDEST JUMPDEST PUSH1 0x0 PUSH2 0x10B4 DUP7 DUP3 DUP8 ADD PUSH2 0xFE1 JUMP JUMPDEST SWAP4 POP POP PUSH1 0x20 PUSH2 0x10C5 DUP7 DUP3 DUP8 ADD PUSH2 0xFE1 JUMP JUMPDEST SWAP3 POP POP PUSH1 0x40 PUSH2 0x10D6 DUP7 DUP3 DUP8 ADD PUSH2 0x100B JUMP JUMPDEST SWAP2 POP POP SWAP3 POP SWAP3 POP SWAP3 JUMP JUMPDEST PUSH1 0x0 DUP1 PUSH1 0x40 DUP4 DUP6 SUB SLT ISZERO PUSH2 0x10F7 JUMPI PUSH2 0x10F6 PUSH2 0x16CB JUMP JUMPDEST JUMPDEST PUSH1 0x0 PUSH2 0x1105 DUP6 DUP3 DUP7 ADD PUSH2 0xFE1 JUMP JUMPDEST SWAP3 POP POP PUSH1 0x20 PUSH2 0x1116 DUP6 DUP3 DUP7 ADD PUSH2 0x100B JUMP JUMPDEST SWAP2 POP POP SWAP3 POP SWAP3 SWAP1 POP JUMP JUMPDEST PUSH1 0x0 PUSH1 0x20 DUP3 DUP5 SUB SLT ISZERO PUSH2 0x1136 JUMPI PUSH2 0x1135 PUSH2 0x16CB JUMP JUMPDEST JUMPDEST PUSH1 0x0 PUSH2 0x1144 DUP5 DUP3 DUP6 ADD PUSH2 0xFF6 JUMP JUMPDEST SWAP2 POP POP SWAP3 SWAP2 POP POP JUMP JUMPDEST PUSH1 0x0 PUSH1 0x20 DUP3 DUP5 SUB SLT ISZERO PUSH2 0x1163 JUMPI PUSH2 0x1162 PUSH2 0x16CB JUMP JUMPDEST JUMPDEST PUSH1 0x0 PUSH2 0x1171 DUP5 DUP3 DUP6 ADD PUSH2 0x100B JUMP JUMPDEST SWAP2 POP POP SWAP3 SWAP2 POP POP JUMP JUMPDEST PUSH1 0x0 DUP1 PUSH1 0x40 DUP4 DUP6 SUB SLT ISZERO PUSH2 0x1191 JUMPI PUSH2 0x1190 PUSH2 0x16CB JUMP JUMPDEST JUMPDEST PUSH1 0x0 PUSH2 0x119F DUP6 DUP3 DUP7 ADD PUSH2 0x100B JUMP JUMPDEST SWAP3 POP POP PUSH1 0x20 PUSH2 0x11B0 DUP6 DUP3 DUP7 ADD PUSH2 0xFE1 JUMP JUMPDEST SWAP2 POP POP SWAP3 POP SWAP3 SWAP1 POP JUMP JUMPDEST PUSH2 0x11C3 DUP2 PUSH2 0x15B3 JUMP JUMPDEST DUP3 MSTORE POP POP JUMP JUMPDEST PUSH2 0x11D2 DUP2 PUSH2 0x15C5 JUMP JUMPDEST DUP3 MSTORE POP POP JUMP JUMPDEST PUSH1 0x0 PUSH2 0x11E3 DUP3 PUSH2 0x1541 JUMP JUMPDEST PUSH2 0x11ED DUP2 DUP6 PUSH2 0x154C JUMP JUMPDEST SWAP4 POP PUSH2 0x11FD DUP2 DUP6 PUSH1 0x20 DUP7 ADD PUSH2 0x1608 JUMP JUMPDEST PUSH2 0x1206 DUP2 PUSH2 0x16D0 JUMP JUMPDEST DUP5 ADD SWAP2 POP POP SWAP3 SWAP2 POP POP JUMP JUMPDEST PUSH1 0x0 PUSH2 0x121E PUSH1 0x23 DUP4 PUSH2 0x154C JUMP JUMPDEST SWAP2 POP PUSH2 0x1229 DUP3 PUSH2 0x16E1 JUMP JUMPDEST PUSH1 0x40 DUP3 ADD SWAP1 POP SWAP2 SWAP1 POP JUMP JUMPDEST PUSH1 0x0 PUSH2 0x1241 PUSH1 0x26 DUP4 PUSH2 0x154C JUMP JUMPDEST SWAP2 POP PUSH2 0x124C DUP3 PUSH2 0x1730 JUMP JUMPDEST PUSH1 0x40 DUP3 ADD SWAP1 POP SWAP2 SWAP1 POP JUMP JUMPDEST PUSH1 0x0 PUSH2 0x1264 PUSH1 0x22 DUP4 PUSH2 0x154C JUMP JUMPDEST SWAP2 POP PUSH2 0x126F DUP3 PUSH2 0x177F JUMP JUMPDEST PUSH1 0x40 DUP3 ADD SWAP1 POP SWAP2 SWAP1 POP JUMP JUMPDEST PUSH1 0x0 PUSH2 0x1287 PUSH1 0x1D DUP4 PUSH2 0x154C JUMP JUMPDEST SWAP2 POP PUSH2 0x1292 DUP3 PUSH2 0x17CE JUMP JUMPDEST PUSH1 0x20 DUP3 ADD SWAP1 POP SWAP2 SWAP1 POP JUMP JUMPDEST PUSH1 0x0 PUSH2 0x12AA PUSH1 0x26 DUP4 PUSH2 0x154C JUMP JUMPDEST SWAP2 POP PUSH2 0x12B5 DUP3 PUSH2 0x17F7 JUMP JUMPDEST PUSH1 0x40 DUP3 ADD SWAP1 POP SWAP2 SWAP1 POP JUMP JUMPDEST PUSH1 0x0 PUSH2 0x12CD PUSH1 0x20 DUP4 PUSH2 0x154C JUMP JUMPDEST SWAP2 POP PUSH2 0x12D8 DUP3 PUSH2 0x1846 JUMP JUMPDEST PUSH1 0x20 DUP3 ADD SWAP1 POP SWAP2 SWAP1 POP JUMP JUMPDEST PUSH1 0x0 PUSH2 0x12F0 PUSH1 0x25 DUP4 PUSH2 0x154C JUMP JUMPDEST SWAP2 POP PUSH2 0x12FB DUP3 PUSH2 0x186F JUMP JUMPDEST PUSH1 0x40 DUP3 ADD SWAP1 POP SWAP2 SWAP1 POP JUMP JUMPDEST PUSH1 0x0 PUSH2 0x1313 PUSH1 0x24 DUP4 PUSH2 0x154C JUMP JUMPDEST SWAP2 POP PUSH2 0x131E DUP3 PUSH2 0x18BE JUMP JUMPDEST PUSH1 0x40 DUP3 ADD SWAP1 POP SWAP2 SWAP1 POP JUMP JUMPDEST PUSH1 0x0 PUSH2 0x1336 PUSH1 0x25 DUP4 PUSH2 0x154C JUMP JUMPDEST SWAP2 POP PUSH2 0x1341 DUP3 PUSH2 0x190D JUMP JUMPDEST PUSH1 0x40 DUP3 ADD SWAP1 POP SWAP2 SWAP1 POP JUMP JUMPDEST PUSH2 0x1355 DUP2 PUSH2 0x15F1 JUMP JUMPDEST DUP3 MSTORE POP POP JUMP JUMPDEST PUSH2 0x1364 DUP2 PUSH2 0x15FB JUMP JUMPDEST DUP3 MSTORE POP POP JUMP JUMPDEST PUSH1 0x0 PUSH1 0x20 DUP3 ADD SWAP1 POP PUSH2 0x137F PUSH1 0x0 DUP4 ADD DUP5 PUSH2 0x11BA JUMP JUMPDEST SWAP3 SWAP2 POP POP JUMP JUMPDEST PUSH1 0x0 PUSH1 0x40 DUP3 ADD SWAP1 POP PUSH2 0x139A PUSH1 0x0 DUP4 ADD DUP6 PUSH2 0x11BA JUMP JUMPDEST PUSH2 0x13A7 PUSH1 0x20 DUP4 ADD DUP5 PUSH2 0x134C JUMP JUMPDEST SWAP4 SWAP3 POP POP POP JUMP JUMPDEST PUSH1 0x0 PUSH1 0x20 DUP3 ADD SWAP1 POP PUSH2 0x13C3 PUSH1 0x0 DUP4 ADD DUP5 PUSH2 0x11C9 JUMP JUMPDEST SWAP3 SWAP2 POP POP JUMP JUMPDEST PUSH1 0x0 PUSH1 0x20 DUP3 ADD SWAP1 POP DUP2 DUP2 SUB PUSH1 0x0 DUP4 ADD MSTORE PUSH2 0x13E3 DUP2 DUP5 PUSH2 0x11D8 JUMP JUMPDEST SWAP1 POP SWAP3 SWAP2 POP POP JUMP JUMPDEST PUSH1 0x0 PUSH1 0x20 DUP3 ADD SWAP1 POP DUP2 DUP2 SUB PUSH1 0x0 DUP4 ADD MSTORE PUSH2 0x1404 DUP2 PUSH2 0x1211 JUMP JUMPDEST SWAP1 POP SWAP2 SWAP1 POP JUMP JUMPDEST PUSH1 0x0 PUSH1 0x20 DUP3 ADD SWAP1 POP DUP2 DUP2 SUB PUSH1 0x0 DUP4 ADD MSTORE PUSH2 0x1424 DUP2 PUSH2 0x1234 JUMP JUMPDEST SWAP1 POP SWAP2 SWAP1 POP JUMP JUMPDEST PUSH1 0x0 PUSH1 0x20 DUP3 ADD SWAP1 POP DUP2 DUP2 SUB PUSH1 0x0 DUP4 ADD MSTORE PUSH2 0x1444 DUP2 PUSH2 0x1257 JUMP JUMPDEST SWAP1 POP SWAP2 SWAP1 POP JUMP JUMPDEST PUSH1 0x0 PUSH1 0x20 DUP3 ADD SWAP1 POP DUP2 DUP2 SUB PUSH1 0x0 DUP4 ADD MSTORE PUSH2 0x1464 DUP2 PUSH2 0x127A JUMP JUMPDEST SWAP1 POP SWAP2 SWAP1 POP JUMP JUMPDEST PUSH1 0x0 PUSH1 0x20 DUP3 ADD SWAP1 POP DUP2 DUP2 SUB PUSH1 0x0 DUP4 ADD MSTORE PUSH2 0x1484 DUP2 PUSH2 0x129D JUMP JUMPDEST SWAP1 POP SWAP2 SWAP1 POP JUMP JUMPDEST PUSH1 0x0 PUSH1 0x20 DUP3 ADD SWAP1 POP DUP2 DUP2 SUB PUSH1 0x0 DUP4 ADD MSTORE PUSH2 0x14A4 DUP2 PUSH2 0x12C0 JUMP JUMPDEST SWAP1 POP SWAP2 SWAP1 POP JUMP JUMPDEST PUSH1 0x0 PUSH1 0x20 DUP3 ADD SWAP1 POP DUP2 DUP2 SUB PUSH1 0x0 DUP4 ADD MSTORE PUSH2 0x14C4 DUP2 PUSH2 0x12E3 JUMP JUMPDEST SWAP1 POP SWAP2 SWAP1 POP JUMP JUMPDEST PUSH1 0x0 PUSH1 0x20 DUP3 ADD SWAP1 POP DUP2 DUP2 SUB PUSH1 0x0 DUP4 ADD MSTORE PUSH2 0x14E4 DUP2 PUSH2 0x1306 JUMP JUMPDEST SWAP1 POP SWAP2 SWAP1 POP JUMP JUMPDEST PUSH1 0x0 PUSH1 0x20 DUP3 ADD SWAP1 POP DUP2 DUP2 SUB PUSH1 0x0 DUP4 ADD MSTORE PUSH2 0x1504 DUP2 PUSH2 0x1329 JUMP JUMPDEST SWAP1 POP SWAP2 SWAP1 POP JUMP JUMPDEST PUSH1 0x0 PUSH1 0x20 DUP3 ADD SWAP1 POP PUSH2 0x1520 PUSH1 0x0 DUP4 ADD DUP5 PUSH2 0x134C JUMP JUMPDEST SWAP3 SWAP2 POP POP JUMP JUMPDEST PUSH1 0x0 PUSH1 0x20 DUP3 ADD SWAP1 POP PUSH2 0x153B PUSH1 0x0 DUP4 ADD DUP5 PUSH2 0x135B JUMP JUMPDEST SWAP3 SWAP2 POP POP JUMP JUMPDEST PUSH1 0x0 DUP2 MLOAD SWAP1 POP SWAP2 SWAP1 POP JUMP JUMPDEST PUSH1 0x0 DUP3 DUP3 MSTORE PUSH1 0x20 DUP3 ADD SWAP1 POP SWAP3 SWAP2 POP POP JUMP JUMPDEST PUSH1 0x0 PUSH2 0x1568 DUP3 PUSH2 0x15F1 JUMP JUMPDEST SWAP2 POP PUSH2 0x1573 DUP4 PUSH2 0x15F1 JUMP JUMPDEST SWAP3 POP DUP3 PUSH32 0xFFFFFFFFFFFFFFFFFFFFFFFFFFFFFFFFFFFFFFFFFFFFFFFFFFFFFFFFFFFFFFFF SUB DUP3 GT ISZERO PUSH2 0x15A8 JUMPI PUSH2 0x15A7 PUSH2 0x166D JUMP JUMPDEST JUMPDEST DUP3 DUP3 ADD SWAP1 POP SWAP3 SWAP2 POP POP JUMP JUMPDEST PUSH1 0x0 PUSH2 0x15BE DUP3 PUSH2 0x15D1 JUMP JUMPDEST SWAP1 POP SWAP2 SWAP1 POP JUMP JUMPDEST PUSH1 0x0 DUP2 ISZERO ISZERO SWAP1 POP SWAP2 SWAP1 POP JUMP JUMPDEST PUSH1 0x0 PUSH20 0xFFFFFFFFFFFFFFFFFFFFFFFFFFFFFFFFFFFFFFFF DUP3 AND SWAP1 POP SWAP2 SWAP1 POP JUMP JUMPDEST PUSH1 0x0 DUP2 SWAP1 POP SWAP2 SWAP1 POP JUMP JUMPDEST PUSH1 0x0 PUSH1 0xFF DUP3 AND SWAP1 POP SWAP2 SWAP1 POP JUMP JUMPDEST PUSH1 0x0 JUMPDEST DUP4 DUP2 LT ISZERO PUSH2 0x1626 JUMPI DUP1 DUP3 ADD MLOAD DUP2 DUP5 ADD MSTORE PUSH1 0x20 DUP2 ADD SWAP1 POP PUSH2 0x160B JUMP JUMPDEST DUP4 DUP2 GT ISZERO PUSH2 0x1635 JUMPI PUSH1 0x0 DUP5 DUP5 ADD MSTORE JUMPDEST POP POP POP POP JUMP JUMPDEST PUSH1 0x0 PUSH1 0x2 DUP3 DIV SWAP1 POP PUSH1 0x1 DUP3 AND DUP1 PUSH2 0x1653 JUMPI PUSH1 0x7F DUP3 AND SWAP2 POP JUMPDEST PUSH1 0x20 DUP3 LT DUP2 EQ ISZERO PUSH2 0x1667 JUMPI PUSH2 0x1666 PUSH2 0x169C JUMP JUMPDEST JUMPDEST POP SWAP2 SWAP1 POP JUMP JUMPDEST PUSH32 0x4E487B7100000000000000000000000000000000000000000000000000000000 PUSH1 0x0 MSTORE PUSH1 0x11 PUSH1 0x4 MSTORE PUSH1 0x24 PUSH1 0x0 REVERT JUMPDEST PUSH32 0x4E487B7100000000000000000000000000000000000000000000000000000000 PUSH1 0x0 MSTORE PUSH1 0x22 PUSH1 0x4 MSTORE PUSH1 0x24 PUSH1 0x0 REVERT JUMPDEST PUSH1 0x0 DUP1 REVERT JUMPDEST PUSH1 0x0 PUSH1 0x1F NOT PUSH1 0x1F DUP4 ADD AND SWAP1 POP SWAP2 SWAP1 POP JUMP JUMPDEST PUSH32 0x45524332303A207472616E7366657220746F20746865207A65726F2061646472 PUSH1 0x0 DUP3 ADD MSTORE PUSH32 0x6573730000000000000000000000000000000000000000000000000000000000 PUSH1 0x20 DUP3 ADD MSTORE POP JUMP JUMPDEST PUSH32 0x4F776E61626C653A206E6577206F776E657220697320746865207A65726F2061 PUSH1 0x0 DUP3 ADD MSTORE PUSH32 0x6464726573730000000000000000000000000000000000000000000000000000 PUSH1 0x20 DUP3 ADD MSTORE POP JUMP JUMPDEST PUSH32 0x45524332303A20617070726F766520746F20746865207A65726F206164647265 PUSH1 0x0 DUP3 ADD MSTORE PUSH32 0x7373000000000000000000000000000000000000000000000000000000000000 PUSH1 0x20 DUP3 ADD MSTORE POP JUMP JUMPDEST PUSH32 0x45524332303A20696E73756666696369656E7420616C6C6F77616E6365000000 PUSH1 0x0 DUP3 ADD MSTORE POP JUMP JUMPDEST PUSH32 0x45524332303A207472616E7366657220616D6F756E7420657863656564732062 PUSH1 0x0 DUP3 ADD MSTORE PUSH32 0x616C616E63650000000000000000000000000000000000000000000000000000 PUSH1 0x20 DUP3 ADD MSTORE POP JUMP JUMPDEST PUSH32 0x4F776E61626C653A2063616C6C6572206973206E6F7420746865206F776E6572 PUSH1 0x0 DUP3 ADD MSTORE POP JUMP JUMPDEST PUSH32 0x45524332303A207472616E736665722066726F6D20746865207A65726F206164 PUSH1 0x0 DUP3 ADD MSTORE PUSH32 0x6472657373000000000000000000000000000000000000000000000000000000 PUSH1 0x20 DUP3 ADD MSTORE POP JUMP JUMPDEST PUSH32 0x45524332303A20617070726F76652066726F6D20746865207A65726F20616464 PUSH1 0x0 DUP3 ADD MSTORE PUSH32 0x7265737300000000000000000000000000000000000000000000000000000000 PUSH1 0x20 DUP3 ADD MSTORE POP JUMP JUMPDEST PUSH32 0x45524332303A2064656372656173656420616C6C6F77616E63652062656C6F77 PUSH1 0x0 DUP3 ADD MSTORE PUSH32 0x207A65726F000000000000000000000000000000000000000000000000000000 PUSH1 0x20 DUP3 ADD MSTORE POP JUMP JUMPDEST PUSH2 0x1965 DUP2 PUSH2 0x15B3 JUMP JUMPDEST DUP2 EQ PUSH2 0x1970 JUMPI PUSH1 0x0 DUP1 REVERT JUMPDEST POP JUMP JUMPDEST PUSH2 0x197C DUP2 PUSH2 0x15C5 JUMP JUMPDEST DUP2 EQ PUSH2 0x1987 JUMPI PUSH1 0x0 DUP1 REVERT JUMPDEST POP JUMP JUMPDEST PUSH2 0x1993 DUP2 PUSH2 0x15F1 JUMP JUMPDEST DUP2 EQ PUSH2 0x199E JUMPI PUSH1 0x0 DUP1 REVERT JUMPDEST POP JUMP INVALID LOG2 PUSH5 0x6970667358 0x22 SLT KECCAK256 PUSH30 0xAB9015AD89256769BB5BE70D0D9438D654DDE19DCECBFC47DC0F04ABA04D 0x2E PUSH5 0x736F6C6343 STOP ADDMOD SMOD STOP CALLER "
  },
  "Assembly": ".code\n  PUSH 80\t\t\tcontract LanguageDAOToken is E...\n  PUSH 40\t\t\tcontract LanguageDAOToken is E...\n  MSTORE \t\t\tcontract LanguageDAOToken is E...\n  PUSH 9184E72A000\t\t\t10000000000000\n  PUSH 8\t\t\tuint256 tokenPrice = 100000000...\n  SSTORE \t\t\tuint256 tokenPrice = 100000000...\n  CALLVALUE \t\t\tconstructor(string memory _tok...\n  DUP1 \t\t\tconstructor(string memory _tok...\n  ISZERO \t\t\tconstructor(string memory _tok...\n  PUSH [tag] 1\t\t\tconstructor(string memory _tok...\n  JUMPI \t\t\tconstructor(string memory _tok...\n  PUSH 0\t\t\tconstructor(string memory _tok...\n  DUP1 \t\t\tconstructor(string memory _tok...\n  REVERT \t\t\tconstructor(string memory _tok...\ntag 1\t\t\tconstructor(string memory _tok...\n  JUMPDEST \t\t\tconstructor(string memory _tok...\n  POP \t\t\tconstructor(string memory _tok...\n  PUSH 40\t\t\tconstructor(string memory _tok...\n  MLOAD \t\t\tconstructor(string memory _tok...\n  PUSHSIZE \t\t\tconstructor(string memory _tok...\n  CODESIZE \t\t\tconstructor(string memory _tok...\n  SUB \t\t\tconstructor(string memory _tok...\n  DUP1 \t\t\tconstructor(string memory _tok...\n  PUSHSIZE \t\t\tconstructor(string memory _tok...\n  DUP4 \t\t\tconstructor(string memory _tok...\n  CODECOPY \t\t\tconstructor(string memory _tok...\n  DUP2 \t\t\tconstructor(string memory _tok...\n  DUP2 \t\t\tconstructor(string memory _tok...\n  ADD \t\t\tconstructor(string memory _tok...\n  PUSH 40\t\t\tconstructor(string memory _tok...\n  MSTORE \t\t\tconstructor(string memory _tok...\n  DUP2 \t\t\tconstructor(string memory _tok...\n  ADD \t\t\tconstructor(string memory _tok...\n  SWAP1 \t\t\tconstructor(string memory _tok...\n  PUSH [tag] 2\t\t\tconstructor(string memory _tok...\n  SWAP2 \t\t\tconstructor(string memory _tok...\n  SWAP1 \t\t\tconstructor(string memory _tok...\n  PUSH [tag] 3\t\t\tconstructor(string memory _tok...\n  JUMP [in]\t\t\tconstructor(string memory _tok...\ntag 2\t\t\tconstructor(string memory _tok...\n  JUMPDEST \t\t\tconstructor(string memory _tok...\n  DUP3 \t\t\t_tokenName\n  DUP3 \t\t\t_tokenSymbol\n  DUP2 \t\t\t\n  PUSH 3\t\t\t\n  SWAP1 \t\t\t\n  DUP1 \t\t\t\n  MLOAD \t\t\t\n  SWAP1 \t\t\t\n  PUSH 20\t\t\t\n  ADD \t\t\t\n  SWAP1 \t\t\t\n  PUSH [tag] 8\t\t\t\n  SWAP3 \t\t\t\n  SWAP2 \t\t\t\n  SWAP1 \t\t\t\n  PUSH [tag] 9\t\t\t\n  JUMP [in]\t\t\t\ntag 8\t\t\t\n  JUMPDEST \t\t\t\n  POP \t\t\t\n  DUP1 \t\t\t\n  PUSH 4\t\t\t\n  SWAP1 \t\t\t\n  DUP1 \t\t\t\n  MLOAD \t\t\t\n  SWAP1 \t\t\t\n  PUSH 20\t\t\t\n  ADD \t\t\t\n  SWAP1 \t\t\t\n  PUSH [tag] 10\t\t\t\n  SWAP3 \t\t\t\n  SWAP2 \t\t\t\n  SWAP1 \t\t\t\n  PUSH [tag] 9\t\t\t\n  JUMP [in]\t\t\t\ntag 10\t\t\t\n  JUMPDEST \t\t\t\n  POP \t\t\t\n  POP \t\t\t\n  POP \t\t\t\n  PUSH [tag] 12\t\t\t\\n    //     require(initialSu...\n  PUSH [tag] 13\t\t\t(initialSupp\n  PUSH [tag] 14\t\t\t(initialSu\n  PUSH 20\t\t\t(initialSu\n  SHL \t\t\t(initialSu\n  PUSH 20\t\t\t(initialSupp\n  SHR \t\t\t(initialSupp\n  JUMP [in]\t\t\t(initialSupp\ntag 13\t\t\t(initialSupp\n  JUMPDEST \t\t\t(initialSupp\n  PUSH [tag] 15\t\t\t\\n    //     requir\n  PUSH 20\t\t\t\\n    //     requir\n  SHL \t\t\t\\n    //     requir\n  PUSH 20\t\t\t\\n    //     require(initialSu...\n  SHR \t\t\t\\n    //     require(initialSu...\n  JUMP [in]\t\t\t\\n    //     require(initialSu...\ntag 12\t\t\t\\n    //     require(initialSu...\n  JUMPDEST \t\t\t\\n    //     require(initialSu...\n  CALLER \t\t\tmsg.sender\n  PUSH 6\t\t\tadmin\n  PUSH 0\t\t\tadmin\n  PUSH 100\t\t\tadmin=msg.sender\n  EXP \t\t\tadmin=msg.sender\n  DUP2 \t\t\tadmin=msg.sender\n  SLOAD \t\t\tadmin=msg.sender\n  DUP2 \t\t\tadmin=msg.sender\n  PUSH FFFFFFFFFFFFFFFFFFFFFFFFFFFFFFFFFFFFFFFF\t\t\tadmin=msg.sender\n  MUL \t\t\tadmin=msg.sender\n  NOT \t\t\tadmin=msg.sender\n  AND \t\t\tadmin=msg.sender\n  SWAP1 \t\t\tadmin=msg.sender\n  DUP4 \t\t\tadmin=msg.sender\n  PUSH FFFFFFFFFFFFFFFFFFFFFFFFFFFFFFFFFFFFFFFF\t\t\tadmin=msg.sender\n  AND \t\t\tadmin=msg.sender\n  MUL \t\t\tadmin=msg.sender\n  OR \t\t\tadmin=msg.sender\n  SWAP1 \t\t\tadmin=msg.sender\n  SSTORE \t\t\tadmin=msg.sender\n  POP \t\t\tadmin=msg.sender\n  DUP1 \t\t\t_initialSupplyToOwner\n  PUSH 7\t\t\tinitialSupply\n  DUP2 \t\t\tinitialSupply = _initialSupply...\n  SWAP1 \t\t\tinitialSupply = _initialSupply...\n  SSTORE \t\t\tinitialSupply = _initialSupply...\n  POP \t\t\tinitialSupply = _initialSupply...\n  PUSH [tag] 17\t\t\t_mint(msg.sender, _initialSupp...\n  CALLER \t\t\tmsg.sender\n  DUP3 \t\t\t_initialSupplyToOwner\n  PUSH [tag] 18\t\t\t_mint\n  PUSH 20\t\t\t_mint\n  SHL \t\t\t_mint\n  PUSH 20\t\t\t_mint(msg.sender, _initialSupp...\n  SHR \t\t\t_mint(msg.sender, _initialSupp...\n  JUMP [in]\t\t\t_mint(msg.sender, _initialSupp...\ntag 17\t\t\t_mint(msg.sender, _initialSupp...\n  JUMPDEST \t\t\t_mint(msg.sender, _initialSupp...\n  POP \t\t\tconstructor(string memory _tok...\n  POP \t\t\tconstructor(string memory _tok...\n  POP \t\t\tconstructor(string memory _tok...\n  PUSH [tag] 19\t\t\tcontract LanguageDAOToken is E...\n  JUMP \t\t\tcontract LanguageDAOToken is E...\ntag 14\t\t\ttialSupplyToOwner;\\r\\n        ...\n  JUMPDEST \t\t\ttialSupplyToOwner;\\r\\n        ...\n  PUSH 0\t\t\tlSupply\n  CALLER \t\t\t// languag\n  SWAP1 \t\t\t       // languag\n  POP \t\t\t       // languag\n  SWAP1 \t\t\ttialSupplyToOwner;\\r\\n        ...\n  JUMP [out]\t\t\ttialSupplyToOwner;\\r\\n        ...\ntag 15\t\t\t\n  JUMPDEST \t\t\t\n  PUSH 0\t\t\t\n  PUSH 5\t\t\t\n  PUSH 0\t\t\t\n  SWAP1 \t\t\t\n  SLOAD \t\t\t\n  SWAP1 \t\t\t\n  PUSH 100\t\t\t\n  EXP \t\t\t\n  SWAP1 \t\t\t\n  DIV \t\t\t\n  PUSH FFFFFFFFFFFFFFFFFFFFFFFFFFFFFFFFFFFFFFFF\t\t\t\n  AND \t\t\t\n  SWAP1 \t\t\t\n  POP \t\t\t\n  DUP2 \t\t\t\n  PUSH 5\t\t\t\n  PUSH 0\t\t\t\n  PUSH 100\t\t\t\n  EXP \t\t\t\n  DUP2 \t\t\t\n  SLOAD \t\t\t\n  DUP2 \t\t\t\n  PUSH FFFFFFFFFFFFFFFFFFFFFFFFFFFFFFFFFFFFFFFF\t\t\t\n  MUL \t\t\t\n  NOT \t\t\t\n  AND \t\t\t\n  SWAP1 \t\t\t\n  DUP4 \t\t\t\n  PUSH FFFFFFFFFFFFFFFFFFFFFFFFFFFFFFFFFFFFFFFF\t\t\t\n  AND \t\t\t\n  MUL \t\t\t\n  OR \t\t\t\n  SWAP1 \t\t\t\n  SSTORE \t\t\t\n  POP \t\t\t\n  DUP2 \t\t\t\n  PUSH FFFFFFFFFFFFFFFFFFFFFFFFFFFFFFFFFFFFFFFF\t\t\t\n  AND \t\t\t\n  DUP2 \t\t\t\n  PUSH FFFFFFFFFFFFFFFFFFFFFFFFFFFFFFFFFFFFFFFF\t\t\t\n  AND \t\t\t\n  PUSH 8BE0079C531659141344CD1FD0A4F28419497F9722A3DAAFE3B4186F6B6457E0\t\t\t\n  PUSH 40\t\t\t\n  MLOAD \t\t\t\n  PUSH 40\t\t\t\n  MLOAD \t\t\t\n  DUP1 \t\t\t\n  SWAP2 \t\t\t\n  SUB \t\t\t\n  SWAP1 \t\t\t\n  LOG3 \t\t\t\n  POP \t\t\t\n  POP \t\t\t\n  JUMP [out]\t\t\t\ntag 18\t\t\t\n  JUMPDEST \t\t\t\n  PUSH 0\t\t\t\n  PUSH FFFFFFFFFFFFFFFFFFFFFFFFFFFFFFFFFFFFFFFF\t\t\t\n  AND \t\t\t\n  DUP3 \t\t\t\n  PUSH FFFFFFFFFFFFFFFFFFFFFFFFFFFFFFFFFFFFFFFF\t\t\t\n  AND \t\t\t\n  EQ \t\t\t\n  ISZERO \t\t\t\n  PUSH [tag] 23\t\t\t\n  JUMPI \t\t\t\n  PUSH 40\t\t\t\n  MLOAD \t\t\t\n  PUSH 8C379A000000000000000000000000000000000000000000000000000000000\t\t\t\n  DUP2 \t\t\t\n  MSTORE \t\t\t\n  PUSH 4\t\t\t\n  ADD \t\t\t\n  PUSH [tag] 24\t\t\t\n  SWAP1 \t\t\t\n  PUSH [tag] 25\t\t\t\n  JUMP [in]\t\t\t\ntag 24\t\t\t\n  JUMPDEST \t\t\t\n  PUSH 40\t\t\t\n  MLOAD \t\t\t\n  DUP1 \t\t\t\n  SWAP2 \t\t\t\n  SUB \t\t\t\n  SWAP1 \t\t\t\n  REVERT \t\t\t\ntag 23\t\t\t\n  JUMPDEST \t\t\t\n  PUSH [tag] 26\t\t\t\n  PUSH 0\t\t\t\n  DUP4 \t\t\t\n  DUP4 \t\t\t\n  PUSH [tag] 27\t\t\t\n  PUSH 20\t\t\t\n  SHL \t\t\t\n  PUSH 20\t\t\t\n  SHR \t\t\t\n  JUMP [in]\t\t\t\ntag 26\t\t\t\n  JUMPDEST \t\t\t\n  DUP1 \t\t\t\n  PUSH 2\t\t\t\n  PUSH 0\t\t\t\n  DUP3 \t\t\t\n  DUP3 \t\t\t\n  SLOAD \t\t\t\n  PUSH [tag] 28\t\t\t\n  SWAP2 \t\t\t\n  SWAP1 \t\t\t\n  PUSH [tag] 29\t\t\t\n  JUMP [in]\t\t\t\ntag 28\t\t\t\n  JUMPDEST \t\t\t\n  SWAP3 \t\t\t\n  POP \t\t\t\n  POP \t\t\t\n  DUP2 \t\t\t\n  SWAP1 \t\t\t\n  SSTORE \t\t\t\n  POP \t\t\t\n  DUP1 \t\t\t\n  PUSH 0\t\t\t\n  DUP1 \t\t\t\n  DUP5 \t\t\t\n  PUSH FFFFFFFFFFFFFFFFFFFFFFFFFFFFFFFFFFFFFFFF\t\t\t\n  AND \t\t\t\n  PUSH FFFFFFFFFFFFFFFFFFFFFFFFFFFFFFFFFFFFFFFF\t\t\t\n  AND \t\t\t\n  DUP2 \t\t\t\n  MSTORE \t\t\t\n  PUSH 20\t\t\t\n  ADD \t\t\t\n  SWAP1 \t\t\t\n  DUP2 \t\t\t\n  MSTORE \t\t\t\n  PUSH 20\t\t\t\n  ADD \t\t\t\n  PUSH 0\t\t\t\n  KECCAK256 \t\t\t\n  PUSH 0\t\t\t\n  DUP3 \t\t\t\n  DUP3 \t\t\t\n  SLOAD \t\t\t\n  ADD \t\t\t\n  SWAP3 \t\t\t\n  POP \t\t\t\n  POP \t\t\t\n  DUP2 \t\t\t\n  SWAP1 \t\t\t\n  SSTORE \t\t\t\n  POP \t\t\t\n  DUP2 \t\t\t\n  PUSH FFFFFFFFFFFFFFFFFFFFFFFFFFFFFFFFFFFFFFFF\t\t\t\n  AND \t\t\t\n  PUSH 0\t\t\t\n  PUSH FFFFFFFFFFFFFFFFFFFFFFFFFFFFFFFFFFFFFFFF\t\t\t\n  AND \t\t\t\n  PUSH DDF252AD1BE2C89B69C2B068FC378DAA952BA7F163C4A11628F55A4DF523B3EF\t\t\t\n  DUP4 \t\t\t\n  PUSH 40\t\t\t\n  MLOAD \t\t\t\n  PUSH [tag] 30\t\t\t\n  SWAP2 \t\t\t\n  SWAP1 \t\t\t\n  PUSH [tag] 31\t\t\t\n  JUMP [in]\t\t\t\ntag 30\t\t\t\n  JUMPDEST \t\t\t\n  PUSH 40\t\t\t\n  MLOAD \t\t\t\n  DUP1 \t\t\t\n  SWAP2 \t\t\t\n  SUB \t\t\t\n  SWAP1 \t\t\t\n  LOG3 \t\t\t\n  PUSH [tag] 32\t\t\t\n  PUSH 0\t\t\t\n  DUP4 \t\t\t\n  DUP4 \t\t\t\n  PUSH [tag] 33\t\t\t\n  PUSH 20\t\t\t\n  SHL \t\t\t\n  PUSH 20\t\t\t\n  SHR \t\t\t\n  JUMP [in]\t\t\t\ntag 32\t\t\t\n  JUMPDEST \t\t\t\n  POP \t\t\t\n  POP \t\t\t\n  JUMP [out]\t\t\t\ntag 27\t\t\t\n  JUMPDEST \t\t\t\n  POP \t\t\t\n  POP \t\t\t\n  POP \t\t\t\n  JUMP [out]\t\t\t\ntag 33\t\t\t\n  JUMPDEST \t\t\t\n  POP \t\t\t\n  POP \t\t\t\n  POP \t\t\t\n  JUMP [out]\t\t\t\ntag 9\t\t\tcontract LanguageDAOToken is E...\n  JUMPDEST \t\t\tcontract LanguageDAOToken is E...\n  DUP3 \t\t\tcontract LanguageDAOToken is E...\n  DUP1 \t\t\tcontract LanguageDAOToken is E...\n  SLOAD \t\t\tcontract LanguageDAOToken is E...\n  PUSH [tag] 36\t\t\tcontract LanguageDAOToken is E...\n  SWAP1 \t\t\tcontract LanguageDAOToken is E...\n  PUSH [tag] 37\t\t\tcontract LanguageDAOToken is E...\n  JUMP [in]\t\t\tcontract LanguageDAOToken is E...\ntag 36\t\t\tcontract LanguageDAOToken is E...\n  JUMPDEST \t\t\tcontract LanguageDAOToken is E...\n  SWAP1 \t\t\tcontract LanguageDAOToken is E...\n  PUSH 0\t\t\tcontract LanguageDAOToken is E...\n  MSTORE \t\t\tcontract LanguageDAOToken is E...\n  PUSH 20\t\t\tcontract LanguageDAOToken is E...\n  PUSH 0\t\t\tcontract LanguageDAOToken is E...\n  KECCAK256 \t\t\tcontract LanguageDAOToken is E...\n  SWAP1 \t\t\tcontract LanguageDAOToken is E...\n  PUSH 1F\t\t\tcontract LanguageDAOToken is E...\n  ADD \t\t\tcontract LanguageDAOToken is E...\n  PUSH 20\t\t\tcontract LanguageDAOToken is E...\n  SWAP1 \t\t\tcontract LanguageDAOToken is E...\n  DIV \t\t\tcontract LanguageDAOToken is E...\n  DUP2 \t\t\tcontract LanguageDAOToken is E...\n  ADD \t\t\tcontract LanguageDAOToken is E...\n  SWAP3 \t\t\tcontract LanguageDAOToken is E...\n  DUP3 \t\t\tcontract LanguageDAOToken is E...\n  PUSH [tag] 39\t\t\tcontract LanguageDAOToken is E...\n  JUMPI \t\t\tcontract LanguageDAOToken is E...\n  PUSH 0\t\t\tcontract LanguageDAOToken is E...\n  DUP6 \t\t\tcontract LanguageDAOToken is E...\n  SSTORE \t\t\tcontract LanguageDAOToken is E...\n  PUSH [tag] 38\t\t\tcontract LanguageDAOToken is E...\n  JUMP \t\t\tcontract LanguageDAOToken is E...\ntag 39\t\t\tcontract LanguageDAOToken is E...\n  JUMPDEST \t\t\tcontract LanguageDAOToken is E...\n  DUP3 \t\t\tcontract LanguageDAOToken is E...\n  PUSH 1F\t\t\tcontract LanguageDAOToken is E...\n  LT \t\t\tcontract LanguageDAOToken is E...\n  PUSH [tag] 40\t\t\tcontract LanguageDAOToken is E...\n  JUMPI \t\t\tcontract LanguageDAOToken is E...\n  DUP1 \t\t\tcontract LanguageDAOToken is E...\n  MLOAD \t\t\tcontract LanguageDAOToken is E...\n  PUSH FF\t\t\tcontract LanguageDAOToken is E...\n  NOT \t\t\tcontract LanguageDAOToken is E...\n  AND \t\t\tcontract LanguageDAOToken is E...\n  DUP4 \t\t\tcontract LanguageDAOToken is E...\n  DUP1 \t\t\tcontract LanguageDAOToken is E...\n  ADD \t\t\tcontract LanguageDAOToken is E...\n  OR \t\t\tcontract LanguageDAOToken is E...\n  DUP6 \t\t\tcontract LanguageDAOToken is E...\n  SSTORE \t\t\tcontract LanguageDAOToken is E...\n  PUSH [tag] 38\t\t\tcontract LanguageDAOToken is E...\n  JUMP \t\t\tcontract LanguageDAOToken is E...\ntag 40\t\t\tcontract LanguageDAOToken is E...\n  JUMPDEST \t\t\tcontract LanguageDAOToken is E...\n  DUP3 \t\t\tcontract LanguageDAOToken is E...\n  DUP1 \t\t\tcontract LanguageDAOToken is E...\n  ADD \t\t\tcontract LanguageDAOToken is E...\n  PUSH 1\t\t\tcontract LanguageDAOToken is E...\n  ADD \t\t\tcontract LanguageDAOToken is E...\n  DUP6 \t\t\tcontract LanguageDAOToken is E...\n  SSTORE \t\t\tcontract LanguageDAOToken is E...\n  DUP3 \t\t\tcontract LanguageDAOToken is E...\n  ISZERO \t\t\tcontract LanguageDAOToken is E...\n  PUSH [tag] 38\t\t\tcontract LanguageDAOToken is E...\n  JUMPI \t\t\tcontract LanguageDAOToken is E...\n  SWAP2 \t\t\tcontract LanguageDAOToken is E...\n  DUP3 \t\t\tcontract LanguageDAOToken is E...\n  ADD \t\t\tcontract LanguageDAOToken is E...\ntag 41\t\t\tcontract LanguageDAOToken is E...\n  JUMPDEST \t\t\tcontract LanguageDAOToken is E...\n  DUP3 \t\t\tcontract LanguageDAOToken is E...\n  DUP2 \t\t\tcontract LanguageDAOToken is E...\n  GT \t\t\tcontract LanguageDAOToken is E...\n  ISZERO \t\t\tcontract LanguageDAOToken is E...\n  PUSH [tag] 42\t\t\tcontract LanguageDAOToken is E...\n  JUMPI \t\t\tcontract LanguageDAOToken is E...\n  DUP3 \t\t\tcontract LanguageDAOToken is E...\n  MLOAD \t\t\tcontract LanguageDAOToken is E...\n  DUP3 \t\t\tcontract LanguageDAOToken is E...\n  SSTORE \t\t\tcontract LanguageDAOToken is E...\n  SWAP2 \t\t\tcontract LanguageDAOToken is E...\n  PUSH 20\t\t\tcontract LanguageDAOToken is E...\n  ADD \t\t\tcontract LanguageDAOToken is E...\n  SWAP2 \t\t\tcontract LanguageDAOToken is E...\n  SWAP1 \t\t\tcontract LanguageDAOToken is E...\n  PUSH 1\t\t\tcontract LanguageDAOToken is E...\n  ADD \t\t\tcontract LanguageDAOToken is E...\n  SWAP1 \t\t\tcontract LanguageDAOToken is E...\n  PUSH [tag] 41\t\t\tcontract LanguageDAOToken is E...\n  JUMP \t\t\tcontract LanguageDAOToken is E...\ntag 42\t\t\tcontract LanguageDAOToken is E...\n  JUMPDEST \t\t\tcontract LanguageDAOToken is E...\ntag 38\t\t\tcontract LanguageDAOToken is E...\n  JUMPDEST \t\t\tcontract LanguageDAOToken is E...\n  POP \t\t\tcontract LanguageDAOToken is E...\n  SWAP1 \t\t\tcontract LanguageDAOToken is E...\n  POP \t\t\tcontract LanguageDAOToken is E...\n  PUSH [tag] 43\t\t\tcontract LanguageDAOToken is E...\n  SWAP2 \t\t\tcontract LanguageDAOToken is E...\n  SWAP1 \t\t\tcontract LanguageDAOToken is E...\n  PUSH [tag] 44\t\t\tcontract LanguageDAOToken is E...\n  JUMP [in]\t\t\tcontract LanguageDAOToken is E...\ntag 43\t\t\tcontract LanguageDAOToken is E...\n  JUMPDEST \t\t\tcontract LanguageDAOToken is E...\n  POP \t\t\tcontract LanguageDAOToken is E...\n  SWAP1 \t\t\tcontract LanguageDAOToken is E...\n  JUMP [out]\t\t\tcontract LanguageDAOToken is E...\ntag 44\t\t\tcontract LanguageDAOToken is E...\n  JUMPDEST \t\t\tcontract LanguageDAOToken is E...\ntag 45\t\t\tcontract LanguageDAOToken is E...\n  JUMPDEST \t\t\tcontract LanguageDAOToken is E...\n  DUP1 \t\t\tcontract LanguageDAOToken is E...\n  DUP3 \t\t\tcontract LanguageDAOToken is E...\n  GT \t\t\tcontract LanguageDAOToken is E...\n  ISZERO \t\t\tcontract LanguageDAOToken is E...\n  PUSH [tag] 46\t\t\tcontract LanguageDAOToken is E...\n  JUMPI \t\t\tcontract LanguageDAOToken is E...\n  PUSH 0\t\t\tcontract LanguageDAOToken is E...\n  DUP2 \t\t\tcontract LanguageDAOToken is E...\n  PUSH 0\t\t\tcontract LanguageDAOToken is E...\n  SWAP1 \t\t\tcontract LanguageDAOToken is E...\n  SSTORE \t\t\tcontract LanguageDAOToken is E...\n  POP \t\t\tcontract LanguageDAOToken is E...\n  PUSH 1\t\t\tcontract LanguageDAOToken is E...\n  ADD \t\t\tcontract LanguageDAOToken is E...\n  PUSH [tag] 45\t\t\tcontract LanguageDAOToken is E...\n  JUMP \t\t\tcontract LanguageDAOToken is E...\ntag 46\t\t\tcontract LanguageDAOToken is E...\n  JUMPDEST \t\t\tcontract LanguageDAOToken is E...\n  POP \t\t\tcontract LanguageDAOToken is E...\n  SWAP1 \t\t\tcontract LanguageDAOToken is E...\n  JUMP [out]\t\t\tcontract LanguageDAOToken is E...\ntag 48\t\t\t-License-Identifier: MIT\\r\\n\\r...\n  JUMPDEST \t\t\t-License-Identifier: MIT\\r\\n\\r...\n  PUSH 0\t\t\tpelin\n  PUSH [tag] 50\t\t\tcts/blob/master/contracts/toke...\n  PUSH [tag] 51\t\t\tcontracts/token/ERC20/ERC20.so...\n  DUP5 \t\t\t\"https\n  PUSH [tag] 52\t\t\tcontracts/token/ERC20/ERC20.so...\n  JUMP [in]\t\t\tcontracts/token/ERC20/ERC20.so...\ntag 51\t\t\tcontracts/token/ERC20/ERC20.so...\n  JUMPDEST \t\t\tcontracts/token/ERC20/ERC20.so...\n  PUSH [tag] 53\t\t\tcts/blob/master/contracts/toke...\n  JUMP [in]\t\t\tcts/blob/master/contracts/toke...\ntag 50\t\t\tcts/blob/master/contracts/toke...\n  JUMPDEST \t\t\tcts/blob/master/contracts/toke...\n  SWAP1 \t\t\tin-contracts/blob/master/contr...\n  POP \t\t\tin-contracts/blob/master/contr...\n  DUP3 \t\t\tn/open\n  DUP2 \t\t\tZeppe\n  MSTORE \t\t\tom/OpenZeppelin/openz\n  PUSH 20\t\t\tontr\n  DUP2 \t\t\taster\n  ADD \t\t\tob/master/contra\n  DUP5 \t\t\trt \n  DUP5 \t\t\t\\r\\n// i\n  DUP5 \t\t\tsol\n  ADD \t\t\tble.sol\";\\r\\n// im\n  GT \t\t\twnable.sol\";\\r\\n// import \"\n  ISZERO \t\t\ts/Ownable.sol\";\\r\\n// import \"...\n  PUSH [tag] 54\t\t\ts/Ownable.sol\";\\r\\n// import \"...\n  JUMPI \t\t\ts/Ownable.sol\";\\r\\n// import \"...\n  PUSH [tag] 55\t\t\tanguageDAO.sol\";\\r\\n\\r\\ncontra...\n  PUSH [tag] 56\t\t\tanguageDAO.sol\";\\r\\n\\r\\ncontra...\n  JUMP [in]\t\t\tanguageDAO.sol\";\\r\\n\\r\\ncontra...\ntag 55\t\t\tanguageDAO.sol\";\\r\\n\\r\\ncontra...\n  JUMPDEST \t\t\tanguageDAO.sol\";\\r\\n\\r\\ncontra...\ntag 54\t\t\ts/Ownable.sol\";\\r\\n// import \"...\n  JUMPDEST \t\t\ts/Ownable.sol\";\\r\\n// import \"...\n  PUSH [tag] 57\t\t\t\\r\\n    // LanguageDAO public ...\n  DUP5 \t\t\tuageDA\n  DUP3 \t\t\t la\n  DUP6 \t\t\tubl\n  PUSH [tag] 58\t\t\t\\r\\n    // LanguageDAO public ...\n  JUMP [in]\t\t\t\\r\\n    // LanguageDAO public ...\ntag 57\t\t\t\\r\\n    // LanguageDAO public ...\n  JUMPDEST \t\t\t\\r\\n    // LanguageDAO public ...\n  POP \t\t\topenzeppelin-contracts/blob/ma...\n  SWAP4 \t\t\t-License-Identifier: MIT\\r\\n\\r...\n  SWAP3 \t\t\t-License-Identifier: MIT\\r\\n\\r...\n  POP \t\t\t-License-Identifier: MIT\\r\\n\\r...\n  POP \t\t\t-License-Identifier: MIT\\r\\n\\r...\n  POP \t\t\t-License-Identifier: MIT\\r\\n\\r...\n  JUMP [out]\t\t\t-License-Identifier: MIT\\r\\n\\r...\ntag 59\t\t\t\\r\\n\\r\\n    constructor(string...\n  JUMPDEST \t\t\t\\r\\n\\r\\n    constructor(string...\n  PUSH 0\t\t\tymbol\n  DUP3 \t\t\tme,\n  PUSH 1F\t\t\ttoke\n  DUP4 \t\t\t ERC20\n  ADD \t\t\tner) ERC20(_token\n  SLT \t\t\tToOwner) ERC20(_tokenName, \n  PUSH [tag] 61\t\t\ttialSupplyToOwner) ERC20(_toke...\n  JUMPI \t\t\ttialSupplyToOwner) ERC20(_toke...\n  PUSH [tag] 62\t\t\tenSymbol) {\\r\\n        admin=m...\n  PUSH [tag] 63\t\t\tenSymbol) {\\r\\n        admin=m...\n  JUMP [in]\t\t\tenSymbol) {\\r\\n        admin=m...\ntag 62\t\t\tenSymbol) {\\r\\n        admin=m...\n  JUMPDEST \t\t\tenSymbol) {\\r\\n        admin=m...\ntag 61\t\t\ttialSupplyToOwner) ERC20(_toke...\n  JUMPDEST \t\t\ttialSupplyToOwner) ERC20(_toke...\n  DUP2 \t\t\ter, _i\n  MLOAD \t\t\tg.sender, _in\n  PUSH [tag] 64\t\t\t);\\r\\n        // languageDAO =...\n  DUP5 \t\t\toke\n  DUP3 \t\t\tint256\n  PUSH 20\t\t\t\\r\\n  \n  DUP7 \t\t\t\\n    }\n  ADD \t\t\ts);\\r\\n    }\\r\\n\\r\\n   \n  PUSH [tag] 48\t\t\t);\\r\\n        // languageDAO =...\n  JUMP [in]\t\t\t);\\r\\n        // languageDAO =...\ntag 64\t\t\t);\\r\\n        // languageDAO =...\n  JUMPDEST \t\t\t);\\r\\n        // languageDAO =...\n  SWAP2 \t\t\tlyToOwner);\\r\\n        // lang...\n  POP \t\t\tlyToOwner);\\r\\n        // lang...\n  POP \t\t\t uint _initialSupplyToOwner) E...\n  SWAP3 \t\t\t\\r\\n\\r\\n    constructor(string...\n  SWAP2 \t\t\t\\r\\n\\r\\n    constructor(string...\n  POP \t\t\t\\r\\n\\r\\n    constructor(string...\n  POP \t\t\t\\r\\n\\r\\n    constructor(string...\n  JUMP [out]\t\t\t\\r\\n\\r\\n    constructor(string...\ntag 65\t\t\t0000000000; // 1 token = 0.000...\n  JUMPDEST \t\t\t0000000000; // 1 token = 0.000...\n  PUSH 0\t\t\ttion \n  DUP2 \t\t\t_to, u\n  MLOAD \t\t\tyable _to, ui\n  SWAP1 \t\t\tddress payable _to, ui\n  POP \t\t\tddress payable _to, ui\n  PUSH [tag] 67\t\t\tount) public payable {\\r\\n    ...\n  DUP2 \t\t\t //  \n  PUSH [tag] 68\t\t\tount) public payable {\\r\\n    ...\n  JUMP [in]\t\t\tount) public payable {\\r\\n    ...\ntag 67\t\t\tount) public payable {\\r\\n    ...\n  JUMPDEST \t\t\tount) public payable {\\r\\n    ...\n  SWAP3 \t\t\t0000000000; // 1 token = 0.000...\n  SWAP2 \t\t\t0000000000; // 1 token = 0.000...\n  POP \t\t\t0000000000; // 1 token = 0.000...\n  POP \t\t\t0000000000; // 1 token = 0.000...\n  JUMP [out]\t\t\t0000000000; // 1 token = 0.000...\ntag 3\t\t\titialSupply>=_amount,\"not enou...\n  JUMPDEST \t\t\titialSupply>=_amount,\"not enou...\n  PUSH 0\t\t\tugh va\n  DUP1 \t\t\te!\");\\r\n  PUSH 0\t\t\t   // \n  PUSH 60\t\t\tnd\n  DUP5 \t\t\tAdded(msg\n  DUP7 \t\t\t.isMemb\n  SUB \t\t\teDAO.isMemberAdded(msg.\n  SLT \t\t\tguageDAO.isMemberAdded(msg.sen...\n  ISZERO \t\t\tlanguageDAO.isMemberAdded(msg....\n  PUSH [tag] 70\t\t\tlanguageDAO.isMemberAdded(msg....\n  JUMPI \t\t\tlanguageDAO.isMemberAdded(msg....\n  PUSH [tag] 71\t\t\t{\\r\\n    //     //     languag...\n  PUSH [tag] 72\t\t\t{\\r\\n    //     //     languag...\n  JUMP [in]\t\t\t{\\r\\n    //     //     languag...\ntag 71\t\t\t{\\r\\n    //     //     languag...\n  JUMPDEST \t\t\t{\\r\\n    //     //     languag...\ntag 70\t\t\tlanguageDAO.isMemberAdded(msg....\n  JUMPDEST \t\t\tlanguageDAO.isMemberAdded(msg....\n  PUSH 0\t\t\ti\n  DUP5 \t\t\tpply = in\n  ADD \t\t\talSupply = initia\n  MLOAD \t\t\t initialSupply = initial\n  PUSH FFFFFFFFFFFFFFFF\t\t\t    \\r\\n    function\n  DUP2 \t\t\t  // }\n  GT \t\t\t\\n    // }\\r\\n    \\r\\n    func...\n  ISZERO \t\t\tt;\\r\\n    // }\\r\\n    \\r\\n    ...\n  PUSH [tag] 73\t\t\tt;\\r\\n    // }\\r\\n    \\r\\n    ...\n  JUMPI \t\t\tt;\\r\\n    // }\\r\\n    \\r\\n    ...\n  PUSH [tag] 74\t\t\thdrawFromContract(uint _amount...\n  PUSH [tag] 75\t\t\thdrawFromContract(uint _amount...\n  JUMP [in]\t\t\thdrawFromContract(uint _amount...\ntag 74\t\t\thdrawFromContract(uint _amount...\n  JUMPDEST \t\t\thdrawFromContract(uint _amount...\ntag 73\t\t\tt;\\r\\n    // }\\r\\n    \\r\\n    ...\n  JUMPDEST \t\t\tt;\\r\\n    // }\\r\\n    \\r\\n    ...\n  PUSH [tag] 76\t\t\t _token = IERC20(_tokenAddress...\n  DUP7 \t\t\tsender,\n  DUP3 \t\t\tsfer(m\n  DUP8 \t\t\t_token.tr\n  ADD \t\t\t    _token.transfer(ms\n  PUSH [tag] 59\t\t\t _token = IERC20(_tokenAddress...\n  JUMP [in]\t\t\t _token = IERC20(_tokenAddress...\ntag 76\t\t\t _token = IERC20(_tokenAddress...\n  JUMPDEST \t\t\t _token = IERC20(_tokenAddress...\n  SWAP4 \t\t\t    IERC20 _token = IERC20(_to...\n  POP \t\t\t    IERC20 _token = IERC20(_to...\n  POP \t\t\ter(_to, _amount);\\r\\n    //   ...\n  PUSH 20\t\t\tli\n  DUP5 \t\t\tnPrice) p\n  ADD \t\t\ttokenPrice) public\n  MLOAD \t\t\tuint _tokenPrice) public \n  PUSH FFFFFFFFFFFFFFFF\t\t\trice = _tokenPrice\n  DUP2 \t\t\t  toke\n  GT \t\t\t     tokenPrice = _tokenPrice;\n  ISZERO \t\t\t        tokenPrice = _tokenPri...\n  PUSH [tag] 77\t\t\t        tokenPrice = _tokenPri...\n  JUMPI \t\t\t        tokenPrice = _tokenPri...\n  PUSH [tag] 78\t\t\t   }\\r\\n\\r\\n    function setAd...\n  PUSH [tag] 75\t\t\t   }\\r\\n\\r\\n    function setAd...\n  JUMP [in]\t\t\t   }\\r\\n\\r\\n    function setAd...\ntag 78\t\t\t   }\\r\\n\\r\\n    function setAd...\n  JUMPDEST \t\t\t   }\\r\\n\\r\\n    function setAd...\ntag 77\t\t\t        tokenPrice = _tokenPri...\n  JUMPDEST \t\t\t        tokenPrice = _tokenPri...\n  PUSH [tag] 79\t\t\tunction getAdmin() public view...\n  DUP7 \t\t\tdmin;\\r\\n\n  DUP3 \t\t\t retur\n  DUP8 \t\t\t){\\r\\n     \n  ADD \t\t\tress){\\r\\n        return\n  PUSH [tag] 59\t\t\tunction getAdmin() public view...\n  JUMP [in]\t\t\tunction getAdmin() public view...\ntag 79\t\t\tunction getAdmin() public view...\n  JUMPDEST \t\t\tunction getAdmin() public view...\n  SWAP3 \t\t\t}\\r\\n\\r\\n    function getAdmin...\n  POP \t\t\t}\\r\\n\\r\\n    function getAdmin...\n  POP \t\t\t\\r\\n    function setTokenprice...\n  PUSH 40\t\t\tre\n  PUSH [tag] 80\t\t\tturn tokenPrice;\\r\\n    }\\r\\n}\n  DUP7 \t\t\t\n  DUP3 \t\t\t\n  DUP8 \t\t\t\n  ADD \t\t\t\n  PUSH [tag] 65\t\t\tturn tokenPrice;\\r\\n    }\\r\\n}\n  JUMP [in]\t\t\tturn tokenPrice;\\r\\n    }\\r\\n}\ntag 80\t\t\tturn tokenPrice;\\r\\n    }\\r\\n}\n  JUMPDEST \t\t\tturn tokenPrice;\\r\\n    }\\r\\n}\n  SWAP2 \t\t\t        return tokenPrice;\\r\\n...\n  POP \t\t\t        return tokenPrice;\\r\\n...\n  POP \t\t\t getTokenPrice() public view r...\n  SWAP3 \t\t\titialSupply>=_amount,\"not enou...\n  POP \t\t\titialSupply>=_amount,\"not enou...\n  SWAP3 \t\t\titialSupply>=_amount,\"not enou...\n  POP \t\t\titialSupply>=_amount,\"not enou...\n  SWAP3 \t\t\titialSupply>=_amount,\"not enou...\n  JUMP [out]\t\t\titialSupply>=_amount,\"not enou...\ntag 81\t\t\t\n  JUMPDEST \t\t\t\n  PUSH 0\t\t\t\n  PUSH [tag] 83\t\t\t\n  PUSH 1F\t\t\t\n  DUP4 \t\t\t\n  PUSH [tag] 84\t\t\t\n  JUMP [in]\t\t\t\ntag 83\t\t\t\n  JUMPDEST \t\t\t\n  SWAP2 \t\t\t\n  POP \t\t\t\n  PUSH [tag] 85\t\t\t\n  DUP3 \t\t\t\n  PUSH [tag] 86\t\t\t\n  JUMP [in]\t\t\t\ntag 85\t\t\t\n  JUMPDEST \t\t\t\n  PUSH 20\t\t\t\n  DUP3 \t\t\t\n  ADD \t\t\t\n  SWAP1 \t\t\t\n  POP \t\t\t\n  SWAP2 \t\t\t\n  SWAP1 \t\t\t\n  POP \t\t\t\n  JUMP [out]\t\t\t\ntag 87\t\t\t\n  JUMPDEST \t\t\t\n  PUSH [tag] 89\t\t\t\n  DUP2 \t\t\t\n  PUSH [tag] 90\t\t\t\n  JUMP [in]\t\t\t\ntag 89\t\t\t\n  JUMPDEST \t\t\t\n  DUP3 \t\t\t\n  MSTORE \t\t\t\n  POP \t\t\t\n  POP \t\t\t\n  JUMP [out]\t\t\t\ntag 25\t\t\t\n  JUMPDEST \t\t\t\n  PUSH 0\t\t\t\n  PUSH 20\t\t\t\n  DUP3 \t\t\t\n  ADD \t\t\t\n  SWAP1 \t\t\t\n  POP \t\t\t\n  DUP2 \t\t\t\n  DUP2 \t\t\t\n  SUB \t\t\t\n  PUSH 0\t\t\t\n  DUP4 \t\t\t\n  ADD \t\t\t\n  MSTORE \t\t\t\n  PUSH [tag] 92\t\t\t\n  DUP2 \t\t\t\n  PUSH [tag] 81\t\t\t\n  JUMP [in]\t\t\t\ntag 92\t\t\t\n  JUMPDEST \t\t\t\n  SWAP1 \t\t\t\n  POP \t\t\t\n  SWAP2 \t\t\t\n  SWAP1 \t\t\t\n  POP \t\t\t\n  JUMP [out]\t\t\t\ntag 31\t\t\t\n  JUMPDEST \t\t\t\n  PUSH 0\t\t\t\n  PUSH 20\t\t\t\n  DUP3 \t\t\t\n  ADD \t\t\t\n  SWAP1 \t\t\t\n  POP \t\t\t\n  PUSH [tag] 94\t\t\t\n  PUSH 0\t\t\t\n  DUP4 \t\t\t\n  ADD \t\t\t\n  DUP5 \t\t\t\n  PUSH [tag] 87\t\t\t\n  JUMP [in]\t\t\t\ntag 94\t\t\t\n  JUMPDEST \t\t\t\n  SWAP3 \t\t\t\n  SWAP2 \t\t\t\n  POP \t\t\t\n  POP \t\t\t\n  JUMP [out]\t\t\t\ntag 53\t\t\t\n  JUMPDEST \t\t\t\n  PUSH 0\t\t\t\n  PUSH [tag] 96\t\t\t\n  PUSH [tag] 97\t\t\t\n  JUMP [in]\t\t\t\ntag 96\t\t\t\n  JUMPDEST \t\t\t\n  SWAP1 \t\t\t\n  POP \t\t\t\n  PUSH [tag] 98\t\t\t\n  DUP3 \t\t\t\n  DUP3 \t\t\t\n  PUSH [tag] 99\t\t\t\n  JUMP [in]\t\t\t\ntag 98\t\t\t\n  JUMPDEST \t\t\t\n  SWAP2 \t\t\t\n  SWAP1 \t\t\t\n  POP \t\t\t\n  JUMP [out]\t\t\t\ntag 97\t\t\t\n  JUMPDEST \t\t\t\n  PUSH 0\t\t\t\n  PUSH 40\t\t\t\n  MLOAD \t\t\t\n  SWAP1 \t\t\t\n  POP \t\t\t\n  SWAP1 \t\t\t\n  JUMP [out]\t\t\t\ntag 52\t\t\t\n  JUMPDEST \t\t\t\n  PUSH 0\t\t\t\n  PUSH FFFFFFFFFFFFFFFF\t\t\t\n  DUP3 \t\t\t\n  GT \t\t\t\n  ISZERO \t\t\t\n  PUSH [tag] 102\t\t\t\n  JUMPI \t\t\t\n  PUSH [tag] 103\t\t\t\n  PUSH [tag] 104\t\t\t\n  JUMP [in]\t\t\t\ntag 103\t\t\t\n  JUMPDEST \t\t\t\ntag 102\t\t\t\n  JUMPDEST \t\t\t\n  PUSH [tag] 105\t\t\t\n  DUP3 \t\t\t\n  PUSH [tag] 106\t\t\t\n  JUMP [in]\t\t\t\ntag 105\t\t\t\n  JUMPDEST \t\t\t\n  SWAP1 \t\t\t\n  POP \t\t\t\n  PUSH 20\t\t\t\n  DUP2 \t\t\t\n  ADD \t\t\t\n  SWAP1 \t\t\t\n  POP \t\t\t\n  SWAP2 \t\t\t\n  SWAP1 \t\t\t\n  POP \t\t\t\n  JUMP [out]\t\t\t\ntag 84\t\t\t\n  JUMPDEST \t\t\t\n  PUSH 0\t\t\t\n  DUP3 \t\t\t\n  DUP3 \t\t\t\n  MSTORE \t\t\t\n  PUSH 20\t\t\t\n  DUP3 \t\t\t\n  ADD \t\t\t\n  SWAP1 \t\t\t\n  POP \t\t\t\n  SWAP3 \t\t\t\n  SWAP2 \t\t\t\n  POP \t\t\t\n  POP \t\t\t\n  JUMP [out]\t\t\t\ntag 29\t\t\t\n  JUMPDEST \t\t\t\n  PUSH 0\t\t\t\n  PUSH [tag] 109\t\t\t\n  DUP3 \t\t\t\n  PUSH [tag] 90\t\t\t\n  JUMP [in]\t\t\t\ntag 109\t\t\t\n  JUMPDEST \t\t\t\n  SWAP2 \t\t\t\n  POP \t\t\t\n  PUSH [tag] 110\t\t\t\n  DUP4 \t\t\t\n  PUSH [tag] 90\t\t\t\n  JUMP [in]\t\t\t\ntag 110\t\t\t\n  JUMPDEST \t\t\t\n  SWAP3 \t\t\t\n  POP \t\t\t\n  DUP3 \t\t\t\n  PUSH FFFFFFFFFFFFFFFFFFFFFFFFFFFFFFFFFFFFFFFFFFFFFFFFFFFFFFFFFFFFFFFF\t\t\t\n  SUB \t\t\t\n  DUP3 \t\t\t\n  GT \t\t\t\n  ISZERO \t\t\t\n  PUSH [tag] 111\t\t\t\n  JUMPI \t\t\t\n  PUSH [tag] 112\t\t\t\n  PUSH [tag] 113\t\t\t\n  JUMP [in]\t\t\t\ntag 112\t\t\t\n  JUMPDEST \t\t\t\ntag 111\t\t\t\n  JUMPDEST \t\t\t\n  DUP3 \t\t\t\n  DUP3 \t\t\t\n  ADD \t\t\t\n  SWAP1 \t\t\t\n  POP \t\t\t\n  SWAP3 \t\t\t\n  SWAP2 \t\t\t\n  POP \t\t\t\n  POP \t\t\t\n  JUMP [out]\t\t\t\ntag 90\t\t\t\n  JUMPDEST \t\t\t\n  PUSH 0\t\t\t\n  DUP2 \t\t\t\n  SWAP1 \t\t\t\n  POP \t\t\t\n  SWAP2 \t\t\t\n  SWAP1 \t\t\t\n  POP \t\t\t\n  JUMP [out]\t\t\t\ntag 58\t\t\t\n  JUMPDEST \t\t\t\n  PUSH 0\t\t\t\ntag 116\t\t\t\n  JUMPDEST \t\t\t\n  DUP4 \t\t\t\n  DUP2 \t\t\t\n  LT \t\t\t\n  ISZERO \t\t\t\n  PUSH [tag] 118\t\t\t\n  JUMPI \t\t\t\n  DUP1 \t\t\t\n  DUP3 \t\t\t\n  ADD \t\t\t\n  MLOAD \t\t\t\n  DUP2 \t\t\t\n  DUP5 \t\t\t\n  ADD \t\t\t\n  MSTORE \t\t\t\n  PUSH 20\t\t\t\n  DUP2 \t\t\t\n  ADD \t\t\t\n  SWAP1 \t\t\t\n  POP \t\t\t\n  PUSH [tag] 116\t\t\t\n  JUMP \t\t\t\ntag 118\t\t\t\n  JUMPDEST \t\t\t\n  DUP4 \t\t\t\n  DUP2 \t\t\t\n  GT \t\t\t\n  ISZERO \t\t\t\n  PUSH [tag] 119\t\t\t\n  JUMPI \t\t\t\n  PUSH 0\t\t\t\n  DUP5 \t\t\t\n  DUP5 \t\t\t\n  ADD \t\t\t\n  MSTORE \t\t\t\ntag 119\t\t\t\n  JUMPDEST \t\t\t\n  POP \t\t\t\n  POP \t\t\t\n  POP \t\t\t\n  POP \t\t\t\n  JUMP [out]\t\t\t\ntag 37\t\t\t\n  JUMPDEST \t\t\t\n  PUSH 0\t\t\t\n  PUSH 2\t\t\t\n  DUP3 \t\t\t\n  DIV \t\t\t\n  SWAP1 \t\t\t\n  POP \t\t\t\n  PUSH 1\t\t\t\n  DUP3 \t\t\t\n  AND \t\t\t\n  DUP1 \t\t\t\n  PUSH [tag] 121\t\t\t\n  JUMPI \t\t\t\n  PUSH 7F\t\t\t\n  DUP3 \t\t\t\n  AND \t\t\t\n  SWAP2 \t\t\t\n  POP \t\t\t\ntag 121\t\t\t\n  JUMPDEST \t\t\t\n  PUSH 20\t\t\t\n  DUP3 \t\t\t\n  LT \t\t\t\n  DUP2 \t\t\t\n  EQ \t\t\t\n  ISZERO \t\t\t\n  PUSH [tag] 122\t\t\t\n  JUMPI \t\t\t\n  PUSH [tag] 123\t\t\t\n  PUSH [tag] 124\t\t\t\n  JUMP [in]\t\t\t\ntag 123\t\t\t\n  JUMPDEST \t\t\t\ntag 122\t\t\t\n  JUMPDEST \t\t\t\n  POP \t\t\t\n  SWAP2 \t\t\t\n  SWAP1 \t\t\t\n  POP \t\t\t\n  JUMP [out]\t\t\t\ntag 99\t\t\t\n  JUMPDEST \t\t\t\n  PUSH [tag] 126\t\t\t\n  DUP3 \t\t\t\n  PUSH [tag] 106\t\t\t\n  JUMP [in]\t\t\t\ntag 126\t\t\t\n  JUMPDEST \t\t\t\n  DUP2 \t\t\t\n  ADD \t\t\t\n  DUP2 \t\t\t\n  DUP2 \t\t\t\n  LT \t\t\t\n  PUSH FFFFFFFFFFFFFFFF\t\t\t\n  DUP3 \t\t\t\n  GT \t\t\t\n  OR \t\t\t\n  ISZERO \t\t\t\n  PUSH [tag] 127\t\t\t\n  JUMPI \t\t\t\n  PUSH [tag] 128\t\t\t\n  PUSH [tag] 104\t\t\t\n  JUMP [in]\t\t\t\ntag 128\t\t\t\n  JUMPDEST \t\t\t\ntag 127\t\t\t\n  JUMPDEST \t\t\t\n  DUP1 \t\t\t\n  PUSH 40\t\t\t\n  MSTORE \t\t\t\n  POP \t\t\t\n  POP \t\t\t\n  POP \t\t\t\n  JUMP [out]\t\t\t\ntag 113\t\t\t\n  JUMPDEST \t\t\t\n  PUSH 4E487B7100000000000000000000000000000000000000000000000000000000\t\t\t\n  PUSH 0\t\t\t\n  MSTORE \t\t\t\n  PUSH 11\t\t\t\n  PUSH 4\t\t\t\n  MSTORE \t\t\t\n  PUSH 24\t\t\t\n  PUSH 0\t\t\t\n  REVERT \t\t\t\ntag 124\t\t\t\n  JUMPDEST \t\t\t\n  PUSH 4E487B7100000000000000000000000000000000000000000000000000000000\t\t\t\n  PUSH 0\t\t\t\n  MSTORE \t\t\t\n  PUSH 22\t\t\t\n  PUSH 4\t\t\t\n  MSTORE \t\t\t\n  PUSH 24\t\t\t\n  PUSH 0\t\t\t\n  REVERT \t\t\t\ntag 104\t\t\t\n  JUMPDEST \t\t\t\n  PUSH 4E487B7100000000000000000000000000000000000000000000000000000000\t\t\t\n  PUSH 0\t\t\t\n  MSTORE \t\t\t\n  PUSH 41\t\t\t\n  PUSH 4\t\t\t\n  MSTORE \t\t\t\n  PUSH 24\t\t\t\n  PUSH 0\t\t\t\n  REVERT \t\t\t\ntag 63\t\t\t\n  JUMPDEST \t\t\t\n  PUSH 0\t\t\t\n  DUP1 \t\t\t\n  REVERT \t\t\t\ntag 56\t\t\t\n  JUMPDEST \t\t\t\n  PUSH 0\t\t\t\n  DUP1 \t\t\t\n  REVERT \t\t\t\ntag 75\t\t\t\n  JUMPDEST \t\t\t\n  PUSH 0\t\t\t\n  DUP1 \t\t\t\n  REVERT \t\t\t\ntag 72\t\t\t\n  JUMPDEST \t\t\t\n  PUSH 0\t\t\t\n  DUP1 \t\t\t\n  REVERT \t\t\t\ntag 106\t\t\t\n  JUMPDEST \t\t\t\n  PUSH 0\t\t\t\n  PUSH 1F\t\t\t\n  NOT \t\t\t\n  PUSH 1F\t\t\t\n  DUP4 \t\t\t\n  ADD \t\t\t\n  AND \t\t\t\n  SWAP1 \t\t\t\n  POP \t\t\t\n  SWAP2 \t\t\t\n  SWAP1 \t\t\t\n  POP \t\t\t\n  JUMP [out]\t\t\t\ntag 86\t\t\t\n  JUMPDEST \t\t\t\n  PUSH 45524332303A206D696E7420746F20746865207A65726F206164647265737300\t\t\t\n  PUSH 0\t\t\t\n  DUP3 \t\t\t\n  ADD \t\t\t\n  MSTORE \t\t\t\n  POP \t\t\t\n  JUMP [out]\t\t\t\ntag 68\t\t\t\n  JUMPDEST \t\t\t\n  PUSH [tag] 139\t\t\t\n  DUP2 \t\t\t\n  PUSH [tag] 90\t\t\t\n  JUMP [in]\t\t\t\ntag 139\t\t\t\n  JUMPDEST \t\t\t\n  DUP2 \t\t\t\n  EQ \t\t\t\n  PUSH [tag] 140\t\t\t\n  JUMPI \t\t\t\n  PUSH 0\t\t\t\n  DUP1 \t\t\t\n  REVERT \t\t\t\ntag 140\t\t\t\n  JUMPDEST \t\t\t\n  POP \t\t\t\n  JUMP [out]\t\t\t\ntag 19\t\t\tcontract LanguageDAOToken is E...\n  JUMPDEST \t\t\tcontract LanguageDAOToken is E...\n  PUSH #[$] 0000000000000000000000000000000000000000000000000000000000000000\t\t\tcontract LanguageDAOToken is E...\n  DUP1 \t\t\tcontract LanguageDAOToken is E...\n  PUSH [$] 0000000000000000000000000000000000000000000000000000000000000000\t\t\tcontract LanguageDAOToken is E...\n  PUSH 0\t\t\tcontract LanguageDAOToken is E...\n  CODECOPY \t\t\tcontract LanguageDAOToken is E...\n  PUSH 0\t\t\tcontract LanguageDAOToken is E...\n  RETURN \t\t\tcontract LanguageDAOToken is E...\n.data\n  0:\n    .code\n      PUSH 80\t\t\tcontract LanguageDAOToken is E...\n      PUSH 40\t\t\tcontract LanguageDAOToken is E...\n      MSTORE \t\t\tcontract LanguageDAOToken is E...\n      PUSH 4\t\t\tcontract LanguageDAOToken is E...\n      CALLDATASIZE \t\t\tcontract LanguageDAOToken is E...\n      LT \t\t\tcontract LanguageDAOToken is E...\n      PUSH [tag] 1\t\t\tcontract LanguageDAOToken is E...\n      JUMPI \t\t\tcontract LanguageDAOToken is E...\n      PUSH 0\t\t\tcontract LanguageDAOToken is E...\n      CALLDATALOAD \t\t\tcontract LanguageDAOToken is E...\n      PUSH E0\t\t\tcontract LanguageDAOToken is E...\n      SHR \t\t\tcontract LanguageDAOToken is E...\n      DUP1 \t\t\tcontract LanguageDAOToken is E...\n      PUSH 70A08231\t\t\tcontract LanguageDAOToken is E...\n      GT \t\t\tcontract LanguageDAOToken is E...\n      PUSH [tag] 21\t\t\tcontract LanguageDAOToken is E...\n      JUMPI \t\t\tcontract LanguageDAOToken is E...\n      DUP1 \t\t\tcontract LanguageDAOToken is E...\n      PUSH 9605F505\t\t\tcontract LanguageDAOToken is E...\n      GT \t\t\tcontract LanguageDAOToken is E...\n      PUSH [tag] 22\t\t\tcontract LanguageDAOToken is E...\n      JUMPI \t\t\tcontract LanguageDAOToken is E...\n      DUP1 \t\t\tcontract LanguageDAOToken is E...\n      PUSH 9605F505\t\t\tcontract LanguageDAOToken is E...\n      EQ \t\t\tcontract LanguageDAOToken is E...\n      PUSH [tag] 16\t\t\tcontract LanguageDAOToken is E...\n      JUMPI \t\t\tcontract LanguageDAOToken is E...\n      DUP1 \t\t\tcontract LanguageDAOToken is E...\n      PUSH A457C2D7\t\t\tcontract LanguageDAOToken is E...\n      EQ \t\t\tcontract LanguageDAOToken is E...\n      PUSH [tag] 17\t\t\tcontract LanguageDAOToken is E...\n      JUMPI \t\t\tcontract LanguageDAOToken is E...\n      DUP1 \t\t\tcontract LanguageDAOToken is E...\n      PUSH A9059CBB\t\t\tcontract LanguageDAOToken is E...\n      EQ \t\t\tcontract LanguageDAOToken is E...\n      PUSH [tag] 18\t\t\tcontract LanguageDAOToken is E...\n      JUMPI \t\t\tcontract LanguageDAOToken is E...\n      DUP1 \t\t\tcontract LanguageDAOToken is E...\n      PUSH DD62ED3E\t\t\tcontract LanguageDAOToken is E...\n      EQ \t\t\tcontract LanguageDAOToken is E...\n      PUSH [tag] 19\t\t\tcontract LanguageDAOToken is E...\n      JUMPI \t\t\tcontract LanguageDAOToken is E...\n      DUP1 \t\t\tcontract LanguageDAOToken is E...\n      PUSH F2FDE38B\t\t\tcontract LanguageDAOToken is E...\n      EQ \t\t\tcontract LanguageDAOToken is E...\n      PUSH [tag] 20\t\t\tcontract LanguageDAOToken is E...\n      JUMPI \t\t\tcontract LanguageDAOToken is E...\n      PUSH [tag] 1\t\t\tcontract LanguageDAOToken is E...\n      JUMP \t\t\tcontract LanguageDAOToken is E...\n    tag 22\t\t\tcontract LanguageDAOToken is E...\n      JUMPDEST \t\t\tcontract LanguageDAOToken is E...\n      DUP1 \t\t\tcontract LanguageDAOToken is E...\n      PUSH 70A08231\t\t\tcontract LanguageDAOToken is E...\n      EQ \t\t\tcontract LanguageDAOToken is E...\n      PUSH [tag] 11\t\t\tcontract LanguageDAOToken is E...\n      JUMPI \t\t\tcontract LanguageDAOToken is E...\n      DUP1 \t\t\tcontract LanguageDAOToken is E...\n      PUSH 715018A6\t\t\tcontract LanguageDAOToken is E...\n      EQ \t\t\tcontract LanguageDAOToken is E...\n      PUSH [tag] 12\t\t\tcontract LanguageDAOToken is E...\n      JUMPI \t\t\tcontract LanguageDAOToken is E...\n      DUP1 \t\t\tcontract LanguageDAOToken is E...\n      PUSH 8DA5CB5B\t\t\tcontract LanguageDAOToken is E...\n      EQ \t\t\tcontract LanguageDAOToken is E...\n      PUSH [tag] 13\t\t\tcontract LanguageDAOToken is E...\n      JUMPI \t\t\tcontract LanguageDAOToken is E...\n      DUP1 \t\t\tcontract LanguageDAOToken is E...\n      PUSH 8ECB987E\t\t\tcontract LanguageDAOToken is E...\n      EQ \t\t\tcontract LanguageDAOToken is E...\n      PUSH [tag] 14\t\t\tcontract LanguageDAOToken is E...\n      JUMPI \t\t\tcontract LanguageDAOToken is E...\n      DUP1 \t\t\tcontract LanguageDAOToken is E...\n      PUSH 95D89B41\t\t\tcontract LanguageDAOToken is E...\n      EQ \t\t\tcontract LanguageDAOToken is E...\n      PUSH [tag] 15\t\t\tcontract LanguageDAOToken is E...\n      JUMPI \t\t\tcontract LanguageDAOToken is E...\n      PUSH [tag] 1\t\t\tcontract LanguageDAOToken is E...\n      JUMP \t\t\tcontract LanguageDAOToken is E...\n    tag 21\t\t\tcontract LanguageDAOToken is E...\n      JUMPDEST \t\t\tcontract LanguageDAOToken is E...\n      DUP1 \t\t\tcontract LanguageDAOToken is E...\n      PUSH 313CE567\t\t\tcontract LanguageDAOToken is E...\n      GT \t\t\tcontract LanguageDAOToken is E...\n      PUSH [tag] 23\t\t\tcontract LanguageDAOToken is E...\n      JUMPI \t\t\tcontract LanguageDAOToken is E...\n      DUP1 \t\t\tcontract LanguageDAOToken is E...\n      PUSH 313CE567\t\t\tcontract LanguageDAOToken is E...\n      EQ \t\t\tcontract LanguageDAOToken is E...\n      PUSH [tag] 6\t\t\tcontract LanguageDAOToken is E...\n      JUMPI \t\t\tcontract LanguageDAOToken is E...\n      DUP1 \t\t\tcontract LanguageDAOToken is E...\n      PUSH 39509351\t\t\tcontract LanguageDAOToken is E...\n      EQ \t\t\tcontract LanguageDAOToken is E...\n      PUSH [tag] 7\t\t\tcontract LanguageDAOToken is E...\n      JUMPI \t\t\tcontract LanguageDAOToken is E...\n      DUP1 \t\t\tcontract LanguageDAOToken is E...\n      PUSH 4B94F50E\t\t\tcontract LanguageDAOToken is E...\n      EQ \t\t\tcontract LanguageDAOToken is E...\n      PUSH [tag] 8\t\t\tcontract LanguageDAOToken is E...\n      JUMPI \t\t\tcontract LanguageDAOToken is E...\n      DUP1 \t\t\tcontract LanguageDAOToken is E...\n      PUSH 6E9960C3\t\t\tcontract LanguageDAOToken is E...\n      EQ \t\t\tcontract LanguageDAOToken is E...\n      PUSH [tag] 9\t\t\tcontract LanguageDAOToken is E...\n      JUMPI \t\t\tcontract LanguageDAOToken is E...\n      DUP1 \t\t\tcontract LanguageDAOToken is E...\n      PUSH 704B6C02\t\t\tcontract LanguageDAOToken is E...\n      EQ \t\t\tcontract LanguageDAOToken is E...\n      PUSH [tag] 10\t\t\tcontract LanguageDAOToken is E...\n      JUMPI \t\t\tcontract LanguageDAOToken is E...\n      PUSH [tag] 1\t\t\tcontract LanguageDAOToken is E...\n      JUMP \t\t\tcontract LanguageDAOToken is E...\n    tag 23\t\t\tcontract LanguageDAOToken is E...\n      JUMPDEST \t\t\tcontract LanguageDAOToken is E...\n      DUP1 \t\t\tcontract LanguageDAOToken is E...\n      PUSH 6FDDE03\t\t\tcontract LanguageDAOToken is E...\n      EQ \t\t\tcontract LanguageDAOToken is E...\n      PUSH [tag] 2\t\t\tcontract LanguageDAOToken is E...\n      JUMPI \t\t\tcontract LanguageDAOToken is E...\n      DUP1 \t\t\tcontract LanguageDAOToken is E...\n      PUSH 95EA7B3\t\t\tcontract LanguageDAOToken is E...\n      EQ \t\t\tcontract LanguageDAOToken is E...\n      PUSH [tag] 3\t\t\tcontract LanguageDAOToken is E...\n      JUMPI \t\t\tcontract LanguageDAOToken is E...\n      DUP1 \t\t\tcontract LanguageDAOToken is E...\n      PUSH 18160DDD\t\t\tcontract LanguageDAOToken is E...\n      EQ \t\t\tcontract LanguageDAOToken is E...\n      PUSH [tag] 4\t\t\tcontract LanguageDAOToken is E...\n      JUMPI \t\t\tcontract LanguageDAOToken is E...\n      DUP1 \t\t\tcontract LanguageDAOToken is E...\n      PUSH 23B872DD\t\t\tcontract LanguageDAOToken is E...\n      EQ \t\t\tcontract LanguageDAOToken is E...\n      PUSH [tag] 5\t\t\tcontract LanguageDAOToken is E...\n      JUMPI \t\t\tcontract LanguageDAOToken is E...\n    tag 1\t\t\tcontract LanguageDAOToken is E...\n      JUMPDEST \t\t\tcontract LanguageDAOToken is E...\n      PUSH 0\t\t\tcontract LanguageDAOToken is E...\n      DUP1 \t\t\tcontract LanguageDAOToken is E...\n      REVERT \t\t\tcontract LanguageDAOToken is E...\n    tag 2\t\t\t\n      JUMPDEST \t\t\t\n      CALLVALUE \t\t\t\n      DUP1 \t\t\t\n      ISZERO \t\t\t\n      PUSH [tag] 24\t\t\t\n      JUMPI \t\t\t\n      PUSH 0\t\t\t\n      DUP1 \t\t\t\n      REVERT \t\t\t\n    tag 24\t\t\t\n      JUMPDEST \t\t\t\n      POP \t\t\t\n      PUSH [tag] 25\t\t\t\n      PUSH [tag] 26\t\t\t\n      JUMP [in]\t\t\t\n    tag 25\t\t\t\n      JUMPDEST \t\t\t\n      PUSH 40\t\t\t\n      MLOAD \t\t\t\n      PUSH [tag] 27\t\t\t\n      SWAP2 \t\t\t\n      SWAP1 \t\t\t\n      PUSH [tag] 28\t\t\t\n      JUMP [in]\t\t\t\n    tag 27\t\t\t\n      JUMPDEST \t\t\t\n      PUSH 40\t\t\t\n      MLOAD \t\t\t\n      DUP1 \t\t\t\n      SWAP2 \t\t\t\n      SUB \t\t\t\n      SWAP1 \t\t\t\n      RETURN \t\t\t\n    tag 3\t\t\t\n      JUMPDEST \t\t\t\n      CALLVALUE \t\t\t\n      DUP1 \t\t\t\n      ISZERO \t\t\t\n      PUSH [tag] 29\t\t\t\n      JUMPI \t\t\t\n      PUSH 0\t\t\t\n      DUP1 \t\t\t\n      REVERT \t\t\t\n    tag 29\t\t\t\n      JUMPDEST \t\t\t\n      POP \t\t\t\n      PUSH [tag] 30\t\t\t\n      PUSH 4\t\t\t\n      DUP1 \t\t\t\n      CALLDATASIZE \t\t\t\n      SUB \t\t\t\n      DUP2 \t\t\t\n      ADD \t\t\t\n      SWAP1 \t\t\t\n      PUSH [tag] 31\t\t\t\n      SWAP2 \t\t\t\n      SWAP1 \t\t\t\n      PUSH [tag] 32\t\t\t\n      JUMP [in]\t\t\t\n    tag 31\t\t\t\n      JUMPDEST \t\t\t\n      PUSH [tag] 33\t\t\t\n      JUMP [in]\t\t\t\n    tag 30\t\t\t\n      JUMPDEST \t\t\t\n      PUSH 40\t\t\t\n      MLOAD \t\t\t\n      PUSH [tag] 34\t\t\t\n      SWAP2 \t\t\t\n      SWAP1 \t\t\t\n      PUSH [tag] 35\t\t\t\n      JUMP [in]\t\t\t\n    tag 34\t\t\t\n      JUMPDEST \t\t\t\n      PUSH 40\t\t\t\n      MLOAD \t\t\t\n      DUP1 \t\t\t\n      SWAP2 \t\t\t\n      SUB \t\t\t\n      SWAP1 \t\t\t\n      RETURN \t\t\t\n    tag 4\t\t\t\n      JUMPDEST \t\t\t\n      CALLVALUE \t\t\t\n      DUP1 \t\t\t\n      ISZERO \t\t\t\n      PUSH [tag] 36\t\t\t\n      JUMPI \t\t\t\n      PUSH 0\t\t\t\n      DUP1 \t\t\t\n      REVERT \t\t\t\n    tag 36\t\t\t\n      JUMPDEST \t\t\t\n      POP \t\t\t\n      PUSH [tag] 37\t\t\t\n      PUSH [tag] 38\t\t\t\n      JUMP [in]\t\t\t\n    tag 37\t\t\t\n      JUMPDEST \t\t\t\n      PUSH 40\t\t\t\n      MLOAD \t\t\t\n      PUSH [tag] 39\t\t\t\n      SWAP2 \t\t\t\n      SWAP1 \t\t\t\n      PUSH [tag] 40\t\t\t\n      JUMP [in]\t\t\t\n    tag 39\t\t\t\n      JUMPDEST \t\t\t\n      PUSH 40\t\t\t\n      MLOAD \t\t\t\n      DUP1 \t\t\t\n      SWAP2 \t\t\t\n      SUB \t\t\t\n      SWAP1 \t\t\t\n      RETURN \t\t\t\n    tag 5\t\t\t\n      JUMPDEST \t\t\t\n      CALLVALUE \t\t\t\n      DUP1 \t\t\t\n      ISZERO \t\t\t\n      PUSH [tag] 41\t\t\t\n      JUMPI \t\t\t\n      PUSH 0\t\t\t\n      DUP1 \t\t\t\n      REVERT \t\t\t\n    tag 41\t\t\t\n      JUMPDEST \t\t\t\n      POP \t\t\t\n      PUSH [tag] 42\t\t\t\n      PUSH 4\t\t\t\n      DUP1 \t\t\t\n      CALLDATASIZE \t\t\t\n      SUB \t\t\t\n      DUP2 \t\t\t\n      ADD \t\t\t\n      SWAP1 \t\t\t\n      PUSH [tag] 43\t\t\t\n      SWAP2 \t\t\t\n      SWAP1 \t\t\t\n      PUSH [tag] 44\t\t\t\n      JUMP [in]\t\t\t\n    tag 43\t\t\t\n      JUMPDEST \t\t\t\n      PUSH [tag] 45\t\t\t\n      JUMP [in]\t\t\t\n    tag 42\t\t\t\n      JUMPDEST \t\t\t\n      PUSH 40\t\t\t\n      MLOAD \t\t\t\n      PUSH [tag] 46\t\t\t\n      SWAP2 \t\t\t\n      SWAP1 \t\t\t\n      PUSH [tag] 35\t\t\t\n      JUMP [in]\t\t\t\n    tag 46\t\t\t\n      JUMPDEST \t\t\t\n      PUSH 40\t\t\t\n      MLOAD \t\t\t\n      DUP1 \t\t\t\n      SWAP2 \t\t\t\n      SUB \t\t\t\n      SWAP1 \t\t\t\n      RETURN \t\t\t\n    tag 6\t\t\t\n      JUMPDEST \t\t\t\n      CALLVALUE \t\t\t\n      DUP1 \t\t\t\n      ISZERO \t\t\t\n      PUSH [tag] 47\t\t\t\n      JUMPI \t\t\t\n      PUSH 0\t\t\t\n      DUP1 \t\t\t\n      REVERT \t\t\t\n    tag 47\t\t\t\n      JUMPDEST \t\t\t\n      POP \t\t\t\n      PUSH [tag] 48\t\t\t\n      PUSH [tag] 49\t\t\t\n      JUMP [in]\t\t\t\n    tag 48\t\t\t\n      JUMPDEST \t\t\t\n      PUSH 40\t\t\t\n      MLOAD \t\t\t\n      PUSH [tag] 50\t\t\t\n      SWAP2 \t\t\t\n      SWAP1 \t\t\t\n      PUSH [tag] 51\t\t\t\n      JUMP [in]\t\t\t\n    tag 50\t\t\t\n      JUMPDEST \t\t\t\n      PUSH 40\t\t\t\n      MLOAD \t\t\t\n      DUP1 \t\t\t\n      SWAP2 \t\t\t\n      SUB \t\t\t\n      SWAP1 \t\t\t\n      RETURN \t\t\t\n    tag 7\t\t\t\n      JUMPDEST \t\t\t\n      CALLVALUE \t\t\t\n      DUP1 \t\t\t\n      ISZERO \t\t\t\n      PUSH [tag] 52\t\t\t\n      JUMPI \t\t\t\n      PUSH 0\t\t\t\n      DUP1 \t\t\t\n      REVERT \t\t\t\n    tag 52\t\t\t\n      JUMPDEST \t\t\t\n      POP \t\t\t\n      PUSH [tag] 53\t\t\t\n      PUSH 4\t\t\t\n      DUP1 \t\t\t\n      CALLDATASIZE \t\t\t\n      SUB \t\t\t\n      DUP2 \t\t\t\n      ADD \t\t\t\n      SWAP1 \t\t\t\n      PUSH [tag] 54\t\t\t\n      SWAP2 \t\t\t\n      SWAP1 \t\t\t\n      PUSH [tag] 32\t\t\t\n      JUMP [in]\t\t\t\n    tag 54\t\t\t\n      JUMPDEST \t\t\t\n      PUSH [tag] 55\t\t\t\n      JUMP [in]\t\t\t\n    tag 53\t\t\t\n      JUMPDEST \t\t\t\n      PUSH 40\t\t\t\n      MLOAD \t\t\t\n      PUSH [tag] 56\t\t\t\n      SWAP2 \t\t\t\n      SWAP1 \t\t\t\n      PUSH [tag] 35\t\t\t\n      JUMP [in]\t\t\t\n    tag 56\t\t\t\n      JUMPDEST \t\t\t\n      PUSH 40\t\t\t\n      MLOAD \t\t\t\n      DUP1 \t\t\t\n      SWAP2 \t\t\t\n      SUB \t\t\t\n      SWAP1 \t\t\t\n      RETURN \t\t\t\n    tag 8\t\t\tfunction getTokenPrice() publi...\n      JUMPDEST \t\t\tfunction getTokenPrice() publi...\n      CALLVALUE \t\t\tfunction getTokenPrice() publi...\n      DUP1 \t\t\tfunction getTokenPrice() publi...\n      ISZERO \t\t\tfunction getTokenPrice() publi...\n      PUSH [tag] 57\t\t\tfunction getTokenPrice() publi...\n      JUMPI \t\t\tfunction getTokenPrice() publi...\n      PUSH 0\t\t\tfunction getTokenPrice() publi...\n      DUP1 \t\t\tfunction getTokenPrice() publi...\n      REVERT \t\t\tfunction getTokenPrice() publi...\n    tag 57\t\t\tfunction getTokenPrice() publi...\n      JUMPDEST \t\t\tfunction getTokenPrice() publi...\n      POP \t\t\tfunction getTokenPrice() publi...\n      PUSH [tag] 58\t\t\tfunction getTokenPrice() publi...\n      PUSH [tag] 59\t\t\tfunction getTokenPrice() publi...\n      JUMP [in]\t\t\tfunction getTokenPrice() publi...\n    tag 58\t\t\tfunction getTokenPrice() publi...\n      JUMPDEST \t\t\tfunction getTokenPrice() publi...\n      PUSH 40\t\t\tfunction getTokenPrice() publi...\n      MLOAD \t\t\tfunction getTokenPrice() publi...\n      PUSH [tag] 60\t\t\tfunction getTokenPrice() publi...\n      SWAP2 \t\t\tfunction getTokenPrice() publi...\n      SWAP1 \t\t\tfunction getTokenPrice() publi...\n      PUSH [tag] 40\t\t\tfunction getTokenPrice() publi...\n      JUMP [in]\t\t\tfunction getTokenPrice() publi...\n    tag 60\t\t\tfunction getTokenPrice() publi...\n      JUMPDEST \t\t\tfunction getTokenPrice() publi...\n      PUSH 40\t\t\tfunction getTokenPrice() publi...\n      MLOAD \t\t\tfunction getTokenPrice() publi...\n      DUP1 \t\t\tfunction getTokenPrice() publi...\n      SWAP2 \t\t\tfunction getTokenPrice() publi...\n      SUB \t\t\tfunction getTokenPrice() publi...\n      SWAP1 \t\t\tfunction getTokenPrice() publi...\n      RETURN \t\t\tfunction getTokenPrice() publi...\n    tag 9\t\t\tfunction getAdmin() public vie...\n      JUMPDEST \t\t\tfunction getAdmin() public vie...\n      CALLVALUE \t\t\tfunction getAdmin() public vie...\n      DUP1 \t\t\tfunction getAdmin() public vie...\n      ISZERO \t\t\tfunction getAdmin() public vie...\n      PUSH [tag] 61\t\t\tfunction getAdmin() public vie...\n      JUMPI \t\t\tfunction getAdmin() public vie...\n      PUSH 0\t\t\tfunction getAdmin() public vie...\n      DUP1 \t\t\tfunction getAdmin() public vie...\n      REVERT \t\t\tfunction getAdmin() public vie...\n    tag 61\t\t\tfunction getAdmin() public vie...\n      JUMPDEST \t\t\tfunction getAdmin() public vie...\n      POP \t\t\tfunction getAdmin() public vie...\n      PUSH [tag] 62\t\t\tfunction getAdmin() public vie...\n      PUSH [tag] 63\t\t\tfunction getAdmin() public vie...\n      JUMP [in]\t\t\tfunction getAdmin() public vie...\n    tag 62\t\t\tfunction getAdmin() public vie...\n      JUMPDEST \t\t\tfunction getAdmin() public vie...\n      PUSH 40\t\t\tfunction getAdmin() public vie...\n      MLOAD \t\t\tfunction getAdmin() public vie...\n      PUSH [tag] 64\t\t\tfunction getAdmin() public vie...\n      SWAP2 \t\t\tfunction getAdmin() public vie...\n      SWAP1 \t\t\tfunction getAdmin() public vie...\n      PUSH [tag] 65\t\t\tfunction getAdmin() public vie...\n      JUMP [in]\t\t\tfunction getAdmin() public vie...\n    tag 64\t\t\tfunction getAdmin() public vie...\n      JUMPDEST \t\t\tfunction getAdmin() public vie...\n      PUSH 40\t\t\tfunction getAdmin() public vie...\n      MLOAD \t\t\tfunction getAdmin() public vie...\n      DUP1 \t\t\tfunction getAdmin() public vie...\n      SWAP2 \t\t\tfunction getAdmin() public vie...\n      SUB \t\t\tfunction getAdmin() public vie...\n      SWAP1 \t\t\tfunction getAdmin() public vie...\n      RETURN \t\t\tfunction getAdmin() public vie...\n    tag 10\t\t\tfunction setAdmin(address _adm...\n      JUMPDEST \t\t\tfunction setAdmin(address _adm...\n      CALLVALUE \t\t\tfunction setAdmin(address _adm...\n      DUP1 \t\t\tfunction setAdmin(address _adm...\n      ISZERO \t\t\tfunction setAdmin(address _adm...\n      PUSH [tag] 66\t\t\tfunction setAdmin(address _adm...\n      JUMPI \t\t\tfunction setAdmin(address _adm...\n      PUSH 0\t\t\tfunction setAdmin(address _adm...\n      DUP1 \t\t\tfunction setAdmin(address _adm...\n      REVERT \t\t\tfunction setAdmin(address _adm...\n    tag 66\t\t\tfunction setAdmin(address _adm...\n      JUMPDEST \t\t\tfunction setAdmin(address _adm...\n      POP \t\t\tfunction setAdmin(address _adm...\n      PUSH [tag] 67\t\t\tfunction setAdmin(address _adm...\n      PUSH 4\t\t\tfunction setAdmin(address _adm...\n      DUP1 \t\t\tfunction setAdmin(address _adm...\n      CALLDATASIZE \t\t\tfunction setAdmin(address _adm...\n      SUB \t\t\tfunction setAdmin(address _adm...\n      DUP2 \t\t\tfunction setAdmin(address _adm...\n      ADD \t\t\tfunction setAdmin(address _adm...\n      SWAP1 \t\t\tfunction setAdmin(address _adm...\n      PUSH [tag] 68\t\t\tfunction setAdmin(address _adm...\n      SWAP2 \t\t\tfunction setAdmin(address _adm...\n      SWAP1 \t\t\tfunction setAdmin(address _adm...\n      PUSH [tag] 69\t\t\tfunction setAdmin(address _adm...\n      JUMP [in]\t\t\tfunction setAdmin(address _adm...\n    tag 68\t\t\tfunction setAdmin(address _adm...\n      JUMPDEST \t\t\tfunction setAdmin(address _adm...\n      PUSH [tag] 70\t\t\tfunction setAdmin(address _adm...\n      JUMP [in]\t\t\tfunction setAdmin(address _adm...\n    tag 67\t\t\tfunction setAdmin(address _adm...\n      JUMPDEST \t\t\tfunction setAdmin(address _adm...\n      STOP \t\t\tfunction setAdmin(address _adm...\n    tag 11\t\t\t\n      JUMPDEST \t\t\t\n      CALLVALUE \t\t\t\n      DUP1 \t\t\t\n      ISZERO \t\t\t\n      PUSH [tag] 71\t\t\t\n      JUMPI \t\t\t\n      PUSH 0\t\t\t\n      DUP1 \t\t\t\n      REVERT \t\t\t\n    tag 71\t\t\t\n      JUMPDEST \t\t\t\n      POP \t\t\t\n      PUSH [tag] 72\t\t\t\n      PUSH 4\t\t\t\n      DUP1 \t\t\t\n      CALLDATASIZE \t\t\t\n      SUB \t\t\t\n      DUP2 \t\t\t\n      ADD \t\t\t\n      SWAP1 \t\t\t\n      PUSH [tag] 73\t\t\t\n      SWAP2 \t\t\t\n      SWAP1 \t\t\t\n      PUSH [tag] 69\t\t\t\n      JUMP [in]\t\t\t\n    tag 73\t\t\t\n      JUMPDEST \t\t\t\n      PUSH [tag] 74\t\t\t\n      JUMP [in]\t\t\t\n    tag 72\t\t\t\n      JUMPDEST \t\t\t\n      PUSH 40\t\t\t\n      MLOAD \t\t\t\n      PUSH [tag] 75\t\t\t\n      SWAP2 \t\t\t\n      SWAP1 \t\t\t\n      PUSH [tag] 40\t\t\t\n      JUMP [in]\t\t\t\n    tag 75\t\t\t\n      JUMPDEST \t\t\t\n      PUSH 40\t\t\t\n      MLOAD \t\t\t\n      DUP1 \t\t\t\n      SWAP2 \t\t\t\n      SUB \t\t\t\n      SWAP1 \t\t\t\n      RETURN \t\t\t\n    tag 12\t\t\t getTokenPrice() public view r...\n      JUMPDEST \t\t\t getTokenPrice() public view r...\n      CALLVALUE \t\t\t getTokenPrice() public view r...\n      DUP1 \t\t\t getTokenPrice() public view r...\n      ISZERO \t\t\t getTokenPrice() public view r...\n      PUSH [tag] 76\t\t\t getTokenPrice() public view r...\n      JUMPI \t\t\t getTokenPrice() public view r...\n      PUSH 0\t\t\t getTokenPrice() public view r...\n      DUP1 \t\t\t getTokenPrice() public view r...\n      REVERT \t\t\t getTokenPrice() public view r...\n    tag 76\t\t\t getTokenPrice() public view r...\n      JUMPDEST \t\t\t getTokenPrice() public view r...\n      POP \t\t\t getTokenPrice() public view r...\n      PUSH [tag] 77\t\t\t getTokenPrice() public view r...\n      PUSH [tag] 78\t\t\t getTokenPrice() public view r...\n      JUMP [in]\t\t\t getTokenPrice() public view r...\n    tag 77\t\t\t getTokenPrice() public view r...\n      JUMPDEST \t\t\t getTokenPrice() public view r...\n      STOP \t\t\t getTokenPrice() public view r...\n    tag 13\t\t\t    // }\\r\\n    //     transfe...\n      JUMPDEST \t\t\t    // }\\r\\n    //     transfe...\n      CALLVALUE \t\t\t    // }\\r\\n    //     transfe...\n      DUP1 \t\t\t    // }\\r\\n    //     transfe...\n      ISZERO \t\t\t    // }\\r\\n    //     transfe...\n      PUSH [tag] 79\t\t\t    // }\\r\\n    //     transfe...\n      JUMPI \t\t\t    // }\\r\\n    //     transfe...\n      PUSH 0\t\t\t    // }\\r\\n    //     transfe...\n      DUP1 \t\t\t    // }\\r\\n    //     transfe...\n      REVERT \t\t\t    // }\\r\\n    //     transfe...\n    tag 79\t\t\t    // }\\r\\n    //     transfe...\n      JUMPDEST \t\t\t    // }\\r\\n    //     transfe...\n      POP \t\t\t    // }\\r\\n    //     transfe...\n      PUSH [tag] 80\t\t\t    // }\\r\\n    //     transfe...\n      PUSH [tag] 81\t\t\t    // }\\r\\n    //     transfe...\n      JUMP [in]\t\t\t    // }\\r\\n    //     transfe...\n    tag 80\t\t\t    // }\\r\\n    //     transfe...\n      JUMPDEST \t\t\t    // }\\r\\n    //     transfe...\n      PUSH 40\t\t\t    // }\\r\\n    //     transfe...\n      MLOAD \t\t\t    // }\\r\\n    //     transfe...\n      PUSH [tag] 82\t\t\t    // }\\r\\n    //     transfe...\n      SWAP2 \t\t\t    // }\\r\\n    //     transfe...\n      SWAP1 \t\t\t    // }\\r\\n    //     transfe...\n      PUSH [tag] 65\t\t\t    // }\\r\\n    //     transfe...\n      JUMP [in]\t\t\t    // }\\r\\n    //     transfe...\n    tag 82\t\t\t    // }\\r\\n    //     transfe...\n      JUMPDEST \t\t\t    // }\\r\\n    //     transfe...\n      PUSH 40\t\t\t    // }\\r\\n    //     transfe...\n      MLOAD \t\t\t    // }\\r\\n    //     transfe...\n      DUP1 \t\t\t    // }\\r\\n    //     transfe...\n      SWAP2 \t\t\t    // }\\r\\n    //     transfe...\n      SUB \t\t\t    // }\\r\\n    //     transfe...\n      SWAP1 \t\t\t    // }\\r\\n    //     transfe...\n      RETURN \t\t\t    // }\\r\\n    //     transfe...\n    tag 14\t\t\tfunction setTokenprice(uint _t...\n      JUMPDEST \t\t\tfunction setTokenprice(uint _t...\n      CALLVALUE \t\t\tfunction setTokenprice(uint _t...\n      DUP1 \t\t\tfunction setTokenprice(uint _t...\n      ISZERO \t\t\tfunction setTokenprice(uint _t...\n      PUSH [tag] 83\t\t\tfunction setTokenprice(uint _t...\n      JUMPI \t\t\tfunction setTokenprice(uint _t...\n      PUSH 0\t\t\tfunction setTokenprice(uint _t...\n      DUP1 \t\t\tfunction setTokenprice(uint _t...\n      REVERT \t\t\tfunction setTokenprice(uint _t...\n    tag 83\t\t\tfunction setTokenprice(uint _t...\n      JUMPDEST \t\t\tfunction setTokenprice(uint _t...\n      POP \t\t\tfunction setTokenprice(uint _t...\n      PUSH [tag] 84\t\t\tfunction setTokenprice(uint _t...\n      PUSH 4\t\t\tfunction setTokenprice(uint _t...\n      DUP1 \t\t\tfunction setTokenprice(uint _t...\n      CALLDATASIZE \t\t\tfunction setTokenprice(uint _t...\n      SUB \t\t\tfunction setTokenprice(uint _t...\n      DUP2 \t\t\tfunction setTokenprice(uint _t...\n      ADD \t\t\tfunction setTokenprice(uint _t...\n      SWAP1 \t\t\tfunction setTokenprice(uint _t...\n      PUSH [tag] 85\t\t\tfunction setTokenprice(uint _t...\n      SWAP2 \t\t\tfunction setTokenprice(uint _t...\n      SWAP1 \t\t\tfunction setTokenprice(uint _t...\n      PUSH [tag] 86\t\t\tfunction setTokenprice(uint _t...\n      JUMP [in]\t\t\tfunction setTokenprice(uint _t...\n    tag 85\t\t\tfunction setTokenprice(uint _t...\n      JUMPDEST \t\t\tfunction setTokenprice(uint _t...\n      PUSH [tag] 87\t\t\tfunction setTokenprice(uint _t...\n      JUMP [in]\t\t\tfunction setTokenprice(uint _t...\n    tag 84\t\t\tfunction setTokenprice(uint _t...\n      JUMPDEST \t\t\tfunction setTokenprice(uint _t...\n      STOP \t\t\tfunction setTokenprice(uint _t...\n    tag 15\t\t\t\n      JUMPDEST \t\t\t\n      CALLVALUE \t\t\t\n      DUP1 \t\t\t\n      ISZERO \t\t\t\n      PUSH [tag] 88\t\t\t\n      JUMPI \t\t\t\n      PUSH 0\t\t\t\n      DUP1 \t\t\t\n      REVERT \t\t\t\n    tag 88\t\t\t\n      JUMPDEST \t\t\t\n      POP \t\t\t\n      PUSH [tag] 89\t\t\t\n      PUSH [tag] 90\t\t\t\n      JUMP [in]\t\t\t\n    tag 89\t\t\t\n      JUMPDEST \t\t\t\n      PUSH 40\t\t\t\n      MLOAD \t\t\t\n      PUSH [tag] 91\t\t\t\n      SWAP2 \t\t\t\n      SWAP1 \t\t\t\n      PUSH [tag] 28\t\t\t\n      JUMP [in]\t\t\t\n    tag 91\t\t\t\n      JUMPDEST \t\t\t\n      PUSH 40\t\t\t\n      MLOAD \t\t\t\n      DUP1 \t\t\t\n      SWAP2 \t\t\t\n      SUB \t\t\t\n      SWAP1 \t\t\t\n      RETURN \t\t\t\n    tag 16\t\t\tfunction withdrawFromContract(...\n      JUMPDEST \t\t\tfunction withdrawFromContract(...\n      PUSH [tag] 92\t\t\tfunction withdrawFromContract(...\n      PUSH 4\t\t\tfunction withdrawFromContract(...\n      DUP1 \t\t\tfunction withdrawFromContract(...\n      CALLDATASIZE \t\t\tfunction withdrawFromContract(...\n      SUB \t\t\tfunction withdrawFromContract(...\n      DUP2 \t\t\tfunction withdrawFromContract(...\n      ADD \t\t\tfunction withdrawFromContract(...\n      SWAP1 \t\t\tfunction withdrawFromContract(...\n      PUSH [tag] 93\t\t\tfunction withdrawFromContract(...\n      SWAP2 \t\t\tfunction withdrawFromContract(...\n      SWAP1 \t\t\tfunction withdrawFromContract(...\n      PUSH [tag] 94\t\t\tfunction withdrawFromContract(...\n      JUMP [in]\t\t\tfunction withdrawFromContract(...\n    tag 93\t\t\tfunction withdrawFromContract(...\n      JUMPDEST \t\t\tfunction withdrawFromContract(...\n      PUSH [tag] 95\t\t\tfunction withdrawFromContract(...\n      JUMP [in]\t\t\tfunction withdrawFromContract(...\n    tag 92\t\t\tfunction withdrawFromContract(...\n      JUMPDEST \t\t\tfunction withdrawFromContract(...\n      STOP \t\t\tfunction withdrawFromContract(...\n    tag 17\t\t\t\n      JUMPDEST \t\t\t\n      CALLVALUE \t\t\t\n      DUP1 \t\t\t\n      ISZERO \t\t\t\n      PUSH [tag] 96\t\t\t\n      JUMPI \t\t\t\n      PUSH 0\t\t\t\n      DUP1 \t\t\t\n      REVERT \t\t\t\n    tag 96\t\t\t\n      JUMPDEST \t\t\t\n      POP \t\t\t\n      PUSH [tag] 97\t\t\t\n      PUSH 4\t\t\t\n      DUP1 \t\t\t\n      CALLDATASIZE \t\t\t\n      SUB \t\t\t\n      DUP2 \t\t\t\n      ADD \t\t\t\n      SWAP1 \t\t\t\n      PUSH [tag] 98\t\t\t\n      SWAP2 \t\t\t\n      SWAP1 \t\t\t\n      PUSH [tag] 32\t\t\t\n      JUMP [in]\t\t\t\n    tag 98\t\t\t\n      JUMPDEST \t\t\t\n      PUSH [tag] 99\t\t\t\n      JUMP [in]\t\t\t\n    tag 97\t\t\t\n      JUMPDEST \t\t\t\n      PUSH 40\t\t\t\n      MLOAD \t\t\t\n      PUSH [tag] 100\t\t\t\n      SWAP2 \t\t\t\n      SWAP1 \t\t\t\n      PUSH [tag] 35\t\t\t\n      JUMP [in]\t\t\t\n    tag 100\t\t\t\n      JUMPDEST \t\t\t\n      PUSH 40\t\t\t\n      MLOAD \t\t\t\n      DUP1 \t\t\t\n      SWAP2 \t\t\t\n      SUB \t\t\t\n      SWAP1 \t\t\t\n      RETURN \t\t\t\n    tag 18\t\t\t\n      JUMPDEST \t\t\t\n      CALLVALUE \t\t\t\n      DUP1 \t\t\t\n      ISZERO \t\t\t\n      PUSH [tag] 101\t\t\t\n      JUMPI \t\t\t\n      PUSH 0\t\t\t\n      DUP1 \t\t\t\n      REVERT \t\t\t\n    tag 101\t\t\t\n      JUMPDEST \t\t\t\n      POP \t\t\t\n      PUSH [tag] 102\t\t\t\n      PUSH 4\t\t\t\n      DUP1 \t\t\t\n      CALLDATASIZE \t\t\t\n      SUB \t\t\t\n      DUP2 \t\t\t\n      ADD \t\t\t\n      SWAP1 \t\t\t\n      PUSH [tag] 103\t\t\t\n      SWAP2 \t\t\t\n      SWAP1 \t\t\t\n      PUSH [tag] 32\t\t\t\n      JUMP [in]\t\t\t\n    tag 103\t\t\t\n      JUMPDEST \t\t\t\n      PUSH [tag] 104\t\t\t\n      JUMP [in]\t\t\t\n    tag 102\t\t\t\n      JUMPDEST \t\t\t\n      PUSH 40\t\t\t\n      MLOAD \t\t\t\n      PUSH [tag] 105\t\t\t\n      SWAP2 \t\t\t\n      SWAP1 \t\t\t\n      PUSH [tag] 35\t\t\t\n      JUMP [in]\t\t\t\n    tag 105\t\t\t\n      JUMPDEST \t\t\t\n      PUSH 40\t\t\t\n      MLOAD \t\t\t\n      DUP1 \t\t\t\n      SWAP2 \t\t\t\n      SUB \t\t\t\n      SWAP1 \t\t\t\n      RETURN \t\t\t\n    tag 19\t\t\t\n      JUMPDEST \t\t\t\n      CALLVALUE \t\t\t\n      DUP1 \t\t\t\n      ISZERO \t\t\t\n      PUSH [tag] 106\t\t\t\n      JUMPI \t\t\t\n      PUSH 0\t\t\t\n      DUP1 \t\t\t\n      REVERT \t\t\t\n    tag 106\t\t\t\n      JUMPDEST \t\t\t\n      POP \t\t\t\n      PUSH [tag] 107\t\t\t\n      PUSH 4\t\t\t\n      DUP1 \t\t\t\n      CALLDATASIZE \t\t\t\n      SUB \t\t\t\n      DUP2 \t\t\t\n      ADD \t\t\t\n      SWAP1 \t\t\t\n      PUSH [tag] 108\t\t\t\n      SWAP2 \t\t\t\n      SWAP1 \t\t\t\n      PUSH [tag] 109\t\t\t\n      JUMP [in]\t\t\t\n    tag 108\t\t\t\n      JUMPDEST \t\t\t\n      PUSH [tag] 110\t\t\t\n      JUMP [in]\t\t\t\n    tag 107\t\t\t\n      JUMPDEST \t\t\t\n      PUSH 40\t\t\t\n      MLOAD \t\t\t\n      PUSH [tag] 111\t\t\t\n      SWAP2 \t\t\t\n      SWAP1 \t\t\t\n      PUSH [tag] 40\t\t\t\n      JUMP [in]\t\t\t\n    tag 111\t\t\t\n      JUMPDEST \t\t\t\n      PUSH 40\t\t\t\n      MLOAD \t\t\t\n      DUP1 \t\t\t\n      SWAP2 \t\t\t\n      SUB \t\t\t\n      SWAP1 \t\t\t\n      RETURN \t\t\t\n    tag 20\t\t\t\n      JUMPDEST \t\t\t\n      CALLVALUE \t\t\t\n      DUP1 \t\t\t\n      ISZERO \t\t\t\n      PUSH [tag] 112\t\t\t\n      JUMPI \t\t\t\n      PUSH 0\t\t\t\n      DUP1 \t\t\t\n      REVERT \t\t\t\n    tag 112\t\t\t\n      JUMPDEST \t\t\t\n      POP \t\t\t\n      PUSH [tag] 113\t\t\t\n      PUSH 4\t\t\t\n      DUP1 \t\t\t\n      CALLDATASIZE \t\t\t\n      SUB \t\t\t\n      DUP2 \t\t\t\n      ADD \t\t\t\n      SWAP1 \t\t\t\n      PUSH [tag] 114\t\t\t\n      SWAP2 \t\t\t\n      SWAP1 \t\t\t\n      PUSH [tag] 69\t\t\t\n      JUMP [in]\t\t\t\n    tag 114\t\t\t\n      JUMPDEST \t\t\t\n      PUSH [tag] 115\t\t\t\n      JUMP [in]\t\t\t\n    tag 113\t\t\t\n      JUMPDEST \t\t\t\n      STOP \t\t\t\n    tag 26\t\t\t\n      JUMPDEST \t\t\t\n      PUSH 60\t\t\t\n      PUSH 3\t\t\t\n      DUP1 \t\t\t\n      SLOAD \t\t\t\n      PUSH [tag] 117\t\t\t\n      SWAP1 \t\t\t\n      PUSH [tag] 118\t\t\t\n      JUMP [in]\t\t\t\n    tag 117\t\t\t\n      JUMPDEST \t\t\t\n      DUP1 \t\t\t\n      PUSH 1F\t\t\t\n      ADD \t\t\t\n      PUSH 20\t\t\t\n      DUP1 \t\t\t\n      SWAP2 \t\t\t\n      DIV \t\t\t\n      MUL \t\t\t\n      PUSH 20\t\t\t\n      ADD \t\t\t\n      PUSH 40\t\t\t\n      MLOAD \t\t\t\n      SWAP1 \t\t\t\n      DUP2 \t\t\t\n      ADD \t\t\t\n      PUSH 40\t\t\t\n      MSTORE \t\t\t\n      DUP1 \t\t\t\n      SWAP3 \t\t\t\n      SWAP2 \t\t\t\n      SWAP1 \t\t\t\n      DUP2 \t\t\t\n      DUP2 \t\t\t\n      MSTORE \t\t\t\n      PUSH 20\t\t\t\n      ADD \t\t\t\n      DUP3 \t\t\t\n      DUP1 \t\t\t\n      SLOAD \t\t\t\n      PUSH [tag] 119\t\t\t\n      SWAP1 \t\t\t\n      PUSH [tag] 118\t\t\t\n      JUMP [in]\t\t\t\n    tag 119\t\t\t\n      JUMPDEST \t\t\t\n      DUP1 \t\t\t\n      ISZERO \t\t\t\n      PUSH [tag] 120\t\t\t\n      JUMPI \t\t\t\n      DUP1 \t\t\t\n      PUSH 1F\t\t\t\n      LT \t\t\t\n      PUSH [tag] 121\t\t\t\n      JUMPI \t\t\t\n      PUSH 100\t\t\t\n      DUP1 \t\t\t\n      DUP4 \t\t\t\n      SLOAD \t\t\t\n      DIV \t\t\t\n      MUL \t\t\t\n      DUP4 \t\t\t\n      MSTORE \t\t\t\n      SWAP2 \t\t\t\n      PUSH 20\t\t\t\n      ADD \t\t\t\n      SWAP2 \t\t\t\n      PUSH [tag] 120\t\t\t\n      JUMP \t\t\t\n    tag 121\t\t\t\n      JUMPDEST \t\t\t\n      DUP3 \t\t\t\n      ADD \t\t\t\n      SWAP2 \t\t\t\n      SWAP1 \t\t\t\n      PUSH 0\t\t\t\n      MSTORE \t\t\t\n      PUSH 20\t\t\t\n      PUSH 0\t\t\t\n      KECCAK256 \t\t\t\n      SWAP1 \t\t\t\n    tag 122\t\t\t\n      JUMPDEST \t\t\t\n      DUP2 \t\t\t\n      SLOAD \t\t\t\n      DUP2 \t\t\t\n      MSTORE \t\t\t\n      SWAP1 \t\t\t\n      PUSH 1\t\t\t\n      ADD \t\t\t\n      SWAP1 \t\t\t\n      PUSH 20\t\t\t\n      ADD \t\t\t\n      DUP1 \t\t\t\n      DUP4 \t\t\t\n      GT \t\t\t\n      PUSH [tag] 122\t\t\t\n      JUMPI \t\t\t\n      DUP3 \t\t\t\n      SWAP1 \t\t\t\n      SUB \t\t\t\n      PUSH 1F\t\t\t\n      AND \t\t\t\n      DUP3 \t\t\t\n      ADD \t\t\t\n      SWAP2 \t\t\t\n    tag 120\t\t\t\n      JUMPDEST \t\t\t\n      POP \t\t\t\n      POP \t\t\t\n      POP \t\t\t\n      POP \t\t\t\n      POP \t\t\t\n      SWAP1 \t\t\t\n      POP \t\t\t\n      SWAP1 \t\t\t\n      JUMP [out]\t\t\t\n    tag 33\t\t\t\n      JUMPDEST \t\t\t\n      PUSH 0\t\t\t\n      DUP1 \t\t\t\n      PUSH [tag] 124\t\t\t\n      PUSH [tag] 125\t\t\t\n      JUMP [in]\t\t\t\n    tag 124\t\t\t\n      JUMPDEST \t\t\t\n      SWAP1 \t\t\t\n      POP \t\t\t\n      PUSH [tag] 126\t\t\t\n      DUP2 \t\t\t\n      DUP6 \t\t\t\n      DUP6 \t\t\t\n      PUSH [tag] 127\t\t\t\n      JUMP [in]\t\t\t\n    tag 126\t\t\t\n      JUMPDEST \t\t\t\n      PUSH 1\t\t\t\n      SWAP2 \t\t\t\n      POP \t\t\t\n      POP \t\t\t\n      SWAP3 \t\t\t\n      SWAP2 \t\t\t\n      POP \t\t\t\n      POP \t\t\t\n      JUMP [out]\t\t\t\n    tag 38\t\t\t\n      JUMPDEST \t\t\t\n      PUSH 0\t\t\t\n      PUSH 2\t\t\t\n      SLOAD \t\t\t\n      SWAP1 \t\t\t\n      POP \t\t\t\n      SWAP1 \t\t\t\n      JUMP [out]\t\t\t\n    tag 45\t\t\t\n      JUMPDEST \t\t\t\n      PUSH 0\t\t\t\n      DUP1 \t\t\t\n      PUSH [tag] 130\t\t\t\n      PUSH [tag] 125\t\t\t\n      JUMP [in]\t\t\t\n    tag 130\t\t\t\n      JUMPDEST \t\t\t\n      SWAP1 \t\t\t\n      POP \t\t\t\n      PUSH [tag] 131\t\t\t\n      DUP6 \t\t\t\n      DUP3 \t\t\t\n      DUP6 \t\t\t\n      PUSH [tag] 132\t\t\t\n      JUMP [in]\t\t\t\n    tag 131\t\t\t\n      JUMPDEST \t\t\t\n      PUSH [tag] 133\t\t\t\n      DUP6 \t\t\t\n      DUP6 \t\t\t\n      DUP6 \t\t\t\n      PUSH [tag] 134\t\t\t\n      JUMP [in]\t\t\t\n    tag 133\t\t\t\n      JUMPDEST \t\t\t\n      PUSH 1\t\t\t\n      SWAP2 \t\t\t\n      POP \t\t\t\n      POP \t\t\t\n      SWAP4 \t\t\t\n      SWAP3 \t\t\t\n      POP \t\t\t\n      POP \t\t\t\n      POP \t\t\t\n      JUMP [out]\t\t\t\n    tag 49\t\t\t\n      JUMPDEST \t\t\t\n      PUSH 0\t\t\t\n      PUSH 12\t\t\t\n      SWAP1 \t\t\t\n      POP \t\t\t\n      SWAP1 \t\t\t\n      JUMP [out]\t\t\t\n    tag 55\t\t\t\n      JUMPDEST \t\t\t\n      PUSH 0\t\t\t\n      DUP1 \t\t\t\n      PUSH [tag] 137\t\t\t\n      PUSH [tag] 125\t\t\t\n      JUMP [in]\t\t\t\n    tag 137\t\t\t\n      JUMPDEST \t\t\t\n      SWAP1 \t\t\t\n      POP \t\t\t\n      PUSH [tag] 138\t\t\t\n      DUP2 \t\t\t\n      DUP6 \t\t\t\n      DUP6 \t\t\t\n      PUSH [tag] 139\t\t\t\n      DUP6 \t\t\t\n      DUP10 \t\t\t\n      PUSH [tag] 110\t\t\t\n      JUMP [in]\t\t\t\n    tag 139\t\t\t\n      JUMPDEST \t\t\t\n      PUSH [tag] 140\t\t\t\n      SWAP2 \t\t\t\n      SWAP1 \t\t\t\n      PUSH [tag] 141\t\t\t\n      JUMP [in]\t\t\t\n    tag 140\t\t\t\n      JUMPDEST \t\t\t\n      PUSH [tag] 127\t\t\t\n      JUMP [in]\t\t\t\n    tag 138\t\t\t\n      JUMPDEST \t\t\t\n      PUSH 1\t\t\t\n      SWAP2 \t\t\t\n      POP \t\t\t\n      POP \t\t\t\n      SWAP3 \t\t\t\n      SWAP2 \t\t\t\n      POP \t\t\t\n      POP \t\t\t\n      JUMP [out]\t\t\t\n    tag 59\t\t\tfunction getTokenPrice() publi...\n      JUMPDEST \t\t\tfunction getTokenPrice() publi...\n      PUSH 0\t\t\tuint\n      PUSH 8\t\t\ttokenPrice\n      SLOAD \t\t\ttokenPrice\n      SWAP1 \t\t\treturn tokenPrice\n      POP \t\t\treturn tokenPrice\n      SWAP1 \t\t\tfunction getTokenPrice() publi...\n      JUMP [out]\t\t\tfunction getTokenPrice() publi...\n    tag 63\t\t\tfunction getAdmin() public vie...\n      JUMPDEST \t\t\tfunction getAdmin() public vie...\n      PUSH 0\t\t\taddress\n      PUSH 6\t\t\tadmin\n      PUSH 0\t\t\tadmin\n      SWAP1 \t\t\tadmin\n      SLOAD \t\t\tadmin\n      SWAP1 \t\t\tadmin\n      PUSH 100\t\t\tadmin\n      EXP \t\t\tadmin\n      SWAP1 \t\t\tadmin\n      DIV \t\t\tadmin\n      PUSH FFFFFFFFFFFFFFFFFFFFFFFFFFFFFFFFFFFFFFFF\t\t\tadmin\n      AND \t\t\tadmin\n      SWAP1 \t\t\treturn admin\n      POP \t\t\treturn admin\n      SWAP1 \t\t\tfunction getAdmin() public vie...\n      JUMP [out]\t\t\tfunction getAdmin() public vie...\n    tag 70\t\t\tfunction setAdmin(address _adm...\n      JUMPDEST \t\t\tfunction setAdmin(address _adm...\n      PUSH [tag] 145\t\t\t if(!language\n      PUSH [tag] 146\t\t\t if(!langua\n      JUMP [in]\t\t\t if(!language\n    tag 145\t\t\t if(!language\n      JUMPDEST \t\t\t if(!language\n      DUP1 \t\t\t_admin\n      PUSH 6\t\t\tadmin\n      PUSH 0\t\t\tadmin\n      PUSH 100\t\t\tadmin = _admin\n      EXP \t\t\tadmin = _admin\n      DUP2 \t\t\tadmin = _admin\n      SLOAD \t\t\tadmin = _admin\n      DUP2 \t\t\tadmin = _admin\n      PUSH FFFFFFFFFFFFFFFFFFFFFFFFFFFFFFFFFFFFFFFF\t\t\tadmin = _admin\n      MUL \t\t\tadmin = _admin\n      NOT \t\t\tadmin = _admin\n      AND \t\t\tadmin = _admin\n      SWAP1 \t\t\tadmin = _admin\n      DUP4 \t\t\tadmin = _admin\n      PUSH FFFFFFFFFFFFFFFFFFFFFFFFFFFFFFFFFFFFFFFF\t\t\tadmin = _admin\n      AND \t\t\tadmin = _admin\n      MUL \t\t\tadmin = _admin\n      OR \t\t\tadmin = _admin\n      SWAP1 \t\t\tadmin = _admin\n      SSTORE \t\t\tadmin = _admin\n      POP \t\t\tadmin = _admin\n      POP \t\t\tfunction setAdmin(address _adm...\n      JUMP [out]\t\t\tfunction setAdmin(address _adm...\n    tag 74\t\t\t\n      JUMPDEST \t\t\t\n      PUSH 0\t\t\t\n      DUP1 \t\t\t\n      PUSH 0\t\t\t\n      DUP4 \t\t\t\n      PUSH FFFFFFFFFFFFFFFFFFFFFFFFFFFFFFFFFFFFFFFF\t\t\t\n      AND \t\t\t\n      PUSH FFFFFFFFFFFFFFFFFFFFFFFFFFFFFFFFFFFFFFFF\t\t\t\n      AND \t\t\t\n      DUP2 \t\t\t\n      MSTORE \t\t\t\n      PUSH 20\t\t\t\n      ADD \t\t\t\n      SWAP1 \t\t\t\n      DUP2 \t\t\t\n      MSTORE \t\t\t\n      PUSH 20\t\t\t\n      ADD \t\t\t\n      PUSH 0\t\t\t\n      KECCAK256 \t\t\t\n      SLOAD \t\t\t\n      SWAP1 \t\t\t\n      POP \t\t\t\n      SWAP2 \t\t\t\n      SWAP1 \t\t\t\n      POP \t\t\t\n      JUMP [out]\t\t\t\n    tag 78\t\t\t getTokenPrice() public view r...\n      JUMPDEST \t\t\t getTokenPrice() public view r...\n      PUSH [tag] 150\t\t\t if(!language\n      PUSH [tag] 146\t\t\t if(!langua\n      JUMP [in]\t\t\t if(!language\n    tag 150\t\t\t if(!language\n      JUMPDEST \t\t\t if(!language\n      PUSH [tag] 152\t\t\tnPrice;\\r\\n    }\\r\\n}\n      PUSH 0\t\t\t\n      PUSH [tag] 153\t\t\tnPrice;\\r\\n    }\\r\\n}\n      JUMP [in]\t\t\tnPrice;\\r\\n    }\\r\\n}\n    tag 152\t\t\tnPrice;\\r\\n    }\\r\\n}\n      JUMPDEST \t\t\tnPrice;\\r\\n    }\\r\\n}\n      JUMP [out]\t\t\t getTokenPrice() public view r...\n    tag 81\t\t\t    // }\\r\\n    //     transfe...\n      JUMPDEST \t\t\t    // }\\r\\n    //     transfe...\n      PUSH 0\t\t\t    // \n      PUSH 5\t\t\t initi\n      PUSH 0\t\t\t initi\n      SWAP1 \t\t\t initi\n      SLOAD \t\t\t initi\n      SWAP1 \t\t\t initi\n      PUSH 100\t\t\t initi\n      EXP \t\t\t initi\n      SWAP1 \t\t\t initi\n      DIV \t\t\t initi\n      PUSH FFFFFFFFFFFFFFFFFFFFFFFFFFFFFFFFFFFFFFFF\t\t\t initi\n      AND \t\t\t initi\n      SWAP1 \t\t\tupply = initi\n      POP \t\t\tupply = initi\n      SWAP1 \t\t\t    // }\\r\\n    //     transfe...\n      JUMP [out]\t\t\t    // }\\r\\n    //     transfe...\n    tag 87\t\t\tfunction setTokenprice(uint _t...\n      JUMPDEST \t\t\tfunction setTokenprice(uint _t...\n      PUSH [tag] 156\t\t\t if(!language\n      PUSH [tag] 146\t\t\t if(!langua\n      JUMP [in]\t\t\t if(!language\n    tag 156\t\t\t if(!language\n      JUMPDEST \t\t\t if(!language\n      DUP1 \t\t\t_tokenPrice\n      PUSH 8\t\t\ttokenPrice\n      DUP2 \t\t\ttokenPrice = _tokenPrice\n      SWAP1 \t\t\ttokenPrice = _tokenPrice\n      SSTORE \t\t\ttokenPrice = _tokenPrice\n      POP \t\t\ttokenPrice = _tokenPrice\n      POP \t\t\tfunction setTokenprice(uint _t...\n      JUMP [out]\t\t\tfunction setTokenprice(uint _t...\n    tag 90\t\t\t\n      JUMPDEST \t\t\t\n      PUSH 60\t\t\t\n      PUSH 4\t\t\t\n      DUP1 \t\t\t\n      SLOAD \t\t\t\n      PUSH [tag] 159\t\t\t\n      SWAP1 \t\t\t\n      PUSH [tag] 118\t\t\t\n      JUMP [in]\t\t\t\n    tag 159\t\t\t\n      JUMPDEST \t\t\t\n      DUP1 \t\t\t\n      PUSH 1F\t\t\t\n      ADD \t\t\t\n      PUSH 20\t\t\t\n      DUP1 \t\t\t\n      SWAP2 \t\t\t\n      DIV \t\t\t\n      MUL \t\t\t\n      PUSH 20\t\t\t\n      ADD \t\t\t\n      PUSH 40\t\t\t\n      MLOAD \t\t\t\n      SWAP1 \t\t\t\n      DUP2 \t\t\t\n      ADD \t\t\t\n      PUSH 40\t\t\t\n      MSTORE \t\t\t\n      DUP1 \t\t\t\n      SWAP3 \t\t\t\n      SWAP2 \t\t\t\n      SWAP1 \t\t\t\n      DUP2 \t\t\t\n      DUP2 \t\t\t\n      MSTORE \t\t\t\n      PUSH 20\t\t\t\n      ADD \t\t\t\n      DUP3 \t\t\t\n      DUP1 \t\t\t\n      SLOAD \t\t\t\n      PUSH [tag] 160\t\t\t\n      SWAP1 \t\t\t\n      PUSH [tag] 118\t\t\t\n      JUMP [in]\t\t\t\n    tag 160\t\t\t\n      JUMPDEST \t\t\t\n      DUP1 \t\t\t\n      ISZERO \t\t\t\n      PUSH [tag] 161\t\t\t\n      JUMPI \t\t\t\n      DUP1 \t\t\t\n      PUSH 1F\t\t\t\n      LT \t\t\t\n      PUSH [tag] 162\t\t\t\n      JUMPI \t\t\t\n      PUSH 100\t\t\t\n      DUP1 \t\t\t\n      DUP4 \t\t\t\n      SLOAD \t\t\t\n      DIV \t\t\t\n      MUL \t\t\t\n      DUP4 \t\t\t\n      MSTORE \t\t\t\n      SWAP2 \t\t\t\n      PUSH 20\t\t\t\n      ADD \t\t\t\n      SWAP2 \t\t\t\n      PUSH [tag] 161\t\t\t\n      JUMP \t\t\t\n    tag 162\t\t\t\n      JUMPDEST \t\t\t\n      DUP3 \t\t\t\n      ADD \t\t\t\n      SWAP2 \t\t\t\n      SWAP1 \t\t\t\n      PUSH 0\t\t\t\n      MSTORE \t\t\t\n      PUSH 20\t\t\t\n      PUSH 0\t\t\t\n      KECCAK256 \t\t\t\n      SWAP1 \t\t\t\n    tag 163\t\t\t\n      JUMPDEST \t\t\t\n      DUP2 \t\t\t\n      SLOAD \t\t\t\n      DUP2 \t\t\t\n      MSTORE \t\t\t\n      SWAP1 \t\t\t\n      PUSH 1\t\t\t\n      ADD \t\t\t\n      SWAP1 \t\t\t\n      PUSH 20\t\t\t\n      ADD \t\t\t\n      DUP1 \t\t\t\n      DUP4 \t\t\t\n      GT \t\t\t\n      PUSH [tag] 163\t\t\t\n      JUMPI \t\t\t\n      DUP3 \t\t\t\n      SWAP1 \t\t\t\n      SUB \t\t\t\n      PUSH 1F\t\t\t\n      AND \t\t\t\n      DUP3 \t\t\t\n      ADD \t\t\t\n      SWAP2 \t\t\t\n    tag 161\t\t\t\n      JUMPDEST \t\t\t\n      POP \t\t\t\n      POP \t\t\t\n      POP \t\t\t\n      POP \t\t\t\n      POP \t\t\t\n      SWAP1 \t\t\t\n      POP \t\t\t\n      SWAP1 \t\t\t\n      JUMP [out]\t\t\t\n    tag 95\t\t\tfunction withdrawFromContract(...\n      JUMPDEST \t\t\tfunction withdrawFromContract(...\n      PUSH [tag] 165\t\t\t if(!language\n      PUSH [tag] 146\t\t\t if(!langua\n      JUMP [in]\t\t\t if(!language\n    tag 165\t\t\t if(!language\n      JUMPDEST \t\t\t if(!language\n      PUSH 0\t\t\tIERC20 _token\n      DUP2 \t\t\t_tokenAddress\n      SWAP1 \t\t\tIERC20 _token = IERC20(_tokenA...\n      POP \t\t\tIERC20 _token = IERC20(_tokenA...\n      DUP1 \t\t\t_token\n      PUSH FFFFFFFFFFFFFFFFFFFFFFFFFFFFFFFFFFFFFFFF\t\t\t_token.transfer\n      AND \t\t\t_token.transfer\n      PUSH A9059CBB\t\t\t_token.transfer\n      CALLER \t\t\tmsg.sender\n      DUP6 \t\t\t_amount\n      PUSH 40\t\t\t_token.transfer(msg.sender,_am...\n      MLOAD \t\t\t_token.transfer(msg.sender,_am...\n      DUP4 \t\t\t_token.transfer(msg.sender,_am...\n      PUSH FFFFFFFF\t\t\t_token.transfer(msg.sender,_am...\n      AND \t\t\t_token.transfer(msg.sender,_am...\n      PUSH E0\t\t\t_token.transfer(msg.sender,_am...\n      SHL \t\t\t_token.transfer(msg.sender,_am...\n      DUP2 \t\t\t_token.transfer(msg.sender,_am...\n      MSTORE \t\t\t_token.transfer(msg.sender,_am...\n      PUSH 4\t\t\t_token.transfer(msg.sender,_am...\n      ADD \t\t\t_token.transfer(msg.sender,_am...\n      PUSH [tag] 167\t\t\t_token.transfer(msg.sender,_am...\n      SWAP3 \t\t\t_token.transfer(msg.sender,_am...\n      SWAP2 \t\t\t_token.transfer(msg.sender,_am...\n      SWAP1 \t\t\t_token.transfer(msg.sender,_am...\n      PUSH [tag] 168\t\t\t_token.transfer(msg.sender,_am...\n      JUMP [in]\t\t\t_token.transfer(msg.sender,_am...\n    tag 167\t\t\t_token.transfer(msg.sender,_am...\n      JUMPDEST \t\t\t_token.transfer(msg.sender,_am...\n      PUSH 20\t\t\t_token.transfer(msg.sender,_am...\n      PUSH 40\t\t\t_token.transfer(msg.sender,_am...\n      MLOAD \t\t\t_token.transfer(msg.sender,_am...\n      DUP1 \t\t\t_token.transfer(msg.sender,_am...\n      DUP4 \t\t\t_token.transfer(msg.sender,_am...\n      SUB \t\t\t_token.transfer(msg.sender,_am...\n      DUP2 \t\t\t_token.transfer(msg.sender,_am...\n      PUSH 0\t\t\t_token.transfer(msg.sender,_am...\n      DUP8 \t\t\t_token.transfer(msg.sender,_am...\n      DUP1 \t\t\t_token.transfer(msg.sender,_am...\n      EXTCODESIZE \t\t\t_token.transfer(msg.sender,_am...\n      ISZERO \t\t\t_token.transfer(msg.sender,_am...\n      DUP1 \t\t\t_token.transfer(msg.sender,_am...\n      ISZERO \t\t\t_token.transfer(msg.sender,_am...\n      PUSH [tag] 169\t\t\t_token.transfer(msg.sender,_am...\n      JUMPI \t\t\t_token.transfer(msg.sender,_am...\n      PUSH 0\t\t\t_token.transfer(msg.sender,_am...\n      DUP1 \t\t\t_token.transfer(msg.sender,_am...\n      REVERT \t\t\t_token.transfer(msg.sender,_am...\n    tag 169\t\t\t_token.transfer(msg.sender,_am...\n      JUMPDEST \t\t\t_token.transfer(msg.sender,_am...\n      POP \t\t\t_token.transfer(msg.sender,_am...\n      GAS \t\t\t_token.transfer(msg.sender,_am...\n      CALL \t\t\t_token.transfer(msg.sender,_am...\n      ISZERO \t\t\t_token.transfer(msg.sender,_am...\n      DUP1 \t\t\t_token.transfer(msg.sender,_am...\n      ISZERO \t\t\t_token.transfer(msg.sender,_am...\n      PUSH [tag] 171\t\t\t_token.transfer(msg.sender,_am...\n      JUMPI \t\t\t_token.transfer(msg.sender,_am...\n      RETURNDATASIZE \t\t\t_token.transfer(msg.sender,_am...\n      PUSH 0\t\t\t_token.transfer(msg.sender,_am...\n      DUP1 \t\t\t_token.transfer(msg.sender,_am...\n      RETURNDATACOPY \t\t\t_token.transfer(msg.sender,_am...\n      RETURNDATASIZE \t\t\t_token.transfer(msg.sender,_am...\n      PUSH 0\t\t\t_token.transfer(msg.sender,_am...\n      REVERT \t\t\t_token.transfer(msg.sender,_am...\n    tag 171\t\t\t_token.transfer(msg.sender,_am...\n      JUMPDEST \t\t\t_token.transfer(msg.sender,_am...\n      POP \t\t\t_token.transfer(msg.sender,_am...\n      POP \t\t\t_token.transfer(msg.sender,_am...\n      POP \t\t\t_token.transfer(msg.sender,_am...\n      POP \t\t\t_token.transfer(msg.sender,_am...\n      PUSH 40\t\t\t_token.transfer(msg.sender,_am...\n      MLOAD \t\t\t_token.transfer(msg.sender,_am...\n      RETURNDATASIZE \t\t\t_token.transfer(msg.sender,_am...\n      PUSH 1F\t\t\t_token.transfer(msg.sender,_am...\n      NOT \t\t\t_token.transfer(msg.sender,_am...\n      PUSH 1F\t\t\t_token.transfer(msg.sender,_am...\n      DUP3 \t\t\t_token.transfer(msg.sender,_am...\n      ADD \t\t\t_token.transfer(msg.sender,_am...\n      AND \t\t\t_token.transfer(msg.sender,_am...\n      DUP3 \t\t\t_token.transfer(msg.sender,_am...\n      ADD \t\t\t_token.transfer(msg.sender,_am...\n      DUP1 \t\t\t_token.transfer(msg.sender,_am...\n      PUSH 40\t\t\t_token.transfer(msg.sender,_am...\n      MSTORE \t\t\t_token.transfer(msg.sender,_am...\n      POP \t\t\t_token.transfer(msg.sender,_am...\n      DUP2 \t\t\t_token.transfer(msg.sender,_am...\n      ADD \t\t\t_token.transfer(msg.sender,_am...\n      SWAP1 \t\t\t_token.transfer(msg.sender,_am...\n      PUSH [tag] 172\t\t\t_token.transfer(msg.sender,_am...\n      SWAP2 \t\t\t_token.transfer(msg.sender,_am...\n      SWAP1 \t\t\t_token.transfer(msg.sender,_am...\n      PUSH [tag] 173\t\t\t_token.transfer(msg.sender,_am...\n      JUMP [in]\t\t\t_token.transfer(msg.sender,_am...\n    tag 172\t\t\t_token.transfer(msg.sender,_am...\n      JUMPDEST \t\t\t_token.transfer(msg.sender,_am...\n      POP \t\t\t_token.transfer(msg.sender,_am...\n      POP \t\t\t{\\r\\n            IERC20 _token...\n      POP \t\t\tfunction withdrawFromContract(...\n      POP \t\t\tfunction withdrawFromContract(...\n      JUMP [out]\t\t\tfunction withdrawFromContract(...\n    tag 99\t\t\t\n      JUMPDEST \t\t\t\n      PUSH 0\t\t\t\n      DUP1 \t\t\t\n      PUSH [tag] 175\t\t\t\n      PUSH [tag] 125\t\t\t\n      JUMP [in]\t\t\t\n    tag 175\t\t\t\n      JUMPDEST \t\t\t\n      SWAP1 \t\t\t\n      POP \t\t\t\n      PUSH 0\t\t\t\n      PUSH [tag] 176\t\t\t\n      DUP3 \t\t\t\n      DUP7 \t\t\t\n      PUSH [tag] 110\t\t\t\n      JUMP [in]\t\t\t\n    tag 176\t\t\t\n      JUMPDEST \t\t\t\n      SWAP1 \t\t\t\n      POP \t\t\t\n      DUP4 \t\t\t\n      DUP2 \t\t\t\n      LT \t\t\t\n      ISZERO \t\t\t\n      PUSH [tag] 177\t\t\t\n      JUMPI \t\t\t\n      PUSH 40\t\t\t\n      MLOAD \t\t\t\n      PUSH 8C379A000000000000000000000000000000000000000000000000000000000\t\t\t\n      DUP2 \t\t\t\n      MSTORE \t\t\t\n      PUSH 4\t\t\t\n      ADD \t\t\t\n      PUSH [tag] 178\t\t\t\n      SWAP1 \t\t\t\n      PUSH [tag] 179\t\t\t\n      JUMP [in]\t\t\t\n    tag 178\t\t\t\n      JUMPDEST \t\t\t\n      PUSH 40\t\t\t\n      MLOAD \t\t\t\n      DUP1 \t\t\t\n      SWAP2 \t\t\t\n      SUB \t\t\t\n      SWAP1 \t\t\t\n      REVERT \t\t\t\n    tag 177\t\t\t\n      JUMPDEST \t\t\t\n      PUSH [tag] 180\t\t\t\n      DUP3 \t\t\t\n      DUP7 \t\t\t\n      DUP7 \t\t\t\n      DUP5 \t\t\t\n      SUB \t\t\t\n      PUSH [tag] 127\t\t\t\n      JUMP [in]\t\t\t\n    tag 180\t\t\t\n      JUMPDEST \t\t\t\n      PUSH 1\t\t\t\n      SWAP3 \t\t\t\n      POP \t\t\t\n      POP \t\t\t\n      POP \t\t\t\n      SWAP3 \t\t\t\n      SWAP2 \t\t\t\n      POP \t\t\t\n      POP \t\t\t\n      JUMP [out]\t\t\t\n    tag 104\t\t\t\n      JUMPDEST \t\t\t\n      PUSH 0\t\t\t\n      DUP1 \t\t\t\n      PUSH [tag] 182\t\t\t\n      PUSH [tag] 125\t\t\t\n      JUMP [in]\t\t\t\n    tag 182\t\t\t\n      JUMPDEST \t\t\t\n      SWAP1 \t\t\t\n      POP \t\t\t\n      PUSH [tag] 183\t\t\t\n      DUP2 \t\t\t\n      DUP6 \t\t\t\n      DUP6 \t\t\t\n      PUSH [tag] 134\t\t\t\n      JUMP [in]\t\t\t\n    tag 183\t\t\t\n      JUMPDEST \t\t\t\n      PUSH 1\t\t\t\n      SWAP2 \t\t\t\n      POP \t\t\t\n      POP \t\t\t\n      SWAP3 \t\t\t\n      SWAP2 \t\t\t\n      POP \t\t\t\n      POP \t\t\t\n      JUMP [out]\t\t\t\n    tag 110\t\t\t\n      JUMPDEST \t\t\t\n      PUSH 0\t\t\t\n      PUSH 1\t\t\t\n      PUSH 0\t\t\t\n      DUP5 \t\t\t\n      PUSH FFFFFFFFFFFFFFFFFFFFFFFFFFFFFFFFFFFFFFFF\t\t\t\n      AND \t\t\t\n      PUSH FFFFFFFFFFFFFFFFFFFFFFFFFFFFFFFFFFFFFFFF\t\t\t\n      AND \t\t\t\n      DUP2 \t\t\t\n      MSTORE \t\t\t\n      PUSH 20\t\t\t\n      ADD \t\t\t\n      SWAP1 \t\t\t\n      DUP2 \t\t\t\n      MSTORE \t\t\t\n      PUSH 20\t\t\t\n      ADD \t\t\t\n      PUSH 0\t\t\t\n      KECCAK256 \t\t\t\n      PUSH 0\t\t\t\n      DUP4 \t\t\t\n      PUSH FFFFFFFFFFFFFFFFFFFFFFFFFFFFFFFFFFFFFFFF\t\t\t\n      AND \t\t\t\n      PUSH FFFFFFFFFFFFFFFFFFFFFFFFFFFFFFFFFFFFFFFF\t\t\t\n      AND \t\t\t\n      DUP2 \t\t\t\n      MSTORE \t\t\t\n      PUSH 20\t\t\t\n      ADD \t\t\t\n      SWAP1 \t\t\t\n      DUP2 \t\t\t\n      MSTORE \t\t\t\n      PUSH 20\t\t\t\n      ADD \t\t\t\n      PUSH 0\t\t\t\n      KECCAK256 \t\t\t\n      SLOAD \t\t\t\n      SWAP1 \t\t\t\n      POP \t\t\t\n      SWAP3 \t\t\t\n      SWAP2 \t\t\t\n      POP \t\t\t\n      POP \t\t\t\n      JUMP [out]\t\t\t\n    tag 115\t\t\t\n      JUMPDEST \t\t\t\n      PUSH [tag] 186\t\t\t if(!language\n      PUSH [tag] 146\t\t\t if(!langua\n      JUMP [in]\t\t\t if(!language\n    tag 186\t\t\t if(!language\n      JUMPDEST \t\t\t if(!language\n      PUSH 0\t\t\t\n      PUSH FFFFFFFFFFFFFFFFFFFFFFFFFFFFFFFFFFFFFFFF\t\t\t\n      AND \t\t\t\n      DUP2 \t\t\t\n      PUSH FFFFFFFFFFFFFFFFFFFFFFFFFFFFFFFFFFFFFFFF\t\t\t\n      AND \t\t\t\n      EQ \t\t\t\n      ISZERO \t\t\t\n      PUSH [tag] 188\t\t\t\n      JUMPI \t\t\t\n      PUSH 40\t\t\t\n      MLOAD \t\t\t\n      PUSH 8C379A000000000000000000000000000000000000000000000000000000000\t\t\t\n      DUP2 \t\t\t\n      MSTORE \t\t\t\n      PUSH 4\t\t\t\n      ADD \t\t\t\n      PUSH [tag] 189\t\t\t\n      SWAP1 \t\t\t\n      PUSH [tag] 190\t\t\t\n      JUMP [in]\t\t\t\n    tag 189\t\t\t\n      JUMPDEST \t\t\t\n      PUSH 40\t\t\t\n      MLOAD \t\t\t\n      DUP1 \t\t\t\n      SWAP2 \t\t\t\n      SUB \t\t\t\n      SWAP1 \t\t\t\n      REVERT \t\t\t\n    tag 188\t\t\t\n      JUMPDEST \t\t\t\n      PUSH [tag] 191\t\t\t\n      DUP2 \t\t\t\n      PUSH [tag] 153\t\t\t\n      JUMP [in]\t\t\t\n    tag 191\t\t\t\n      JUMPDEST \t\t\t\n      POP \t\t\t\n      JUMP [out]\t\t\t\n    tag 125\t\t\ttialSupplyToOwner;\\r\\n        ...\n      JUMPDEST \t\t\ttialSupplyToOwner;\\r\\n        ...\n      PUSH 0\t\t\tlSupply\n      CALLER \t\t\t// languag\n      SWAP1 \t\t\t       // languag\n      POP \t\t\t       // languag\n      SWAP1 \t\t\ttialSupplyToOwner;\\r\\n        ...\n      JUMP [out]\t\t\ttialSupplyToOwner;\\r\\n        ...\n    tag 127\t\t\t\n      JUMPDEST \t\t\t\n      PUSH 0\t\t\t\n      PUSH FFFFFFFFFFFFFFFFFFFFFFFFFFFFFFFFFFFFFFFF\t\t\t\n      AND \t\t\t\n      DUP4 \t\t\t\n      PUSH FFFFFFFFFFFFFFFFFFFFFFFFFFFFFFFFFFFFFFFF\t\t\t\n      AND \t\t\t\n      EQ \t\t\t\n      ISZERO \t\t\t\n      PUSH [tag] 194\t\t\t\n      JUMPI \t\t\t\n      PUSH 40\t\t\t\n      MLOAD \t\t\t\n      PUSH 8C379A000000000000000000000000000000000000000000000000000000000\t\t\t\n      DUP2 \t\t\t\n      MSTORE \t\t\t\n      PUSH 4\t\t\t\n      ADD \t\t\t\n      PUSH [tag] 195\t\t\t\n      SWAP1 \t\t\t\n      PUSH [tag] 196\t\t\t\n      JUMP [in]\t\t\t\n    tag 195\t\t\t\n      JUMPDEST \t\t\t\n      PUSH 40\t\t\t\n      MLOAD \t\t\t\n      DUP1 \t\t\t\n      SWAP2 \t\t\t\n      SUB \t\t\t\n      SWAP1 \t\t\t\n      REVERT \t\t\t\n    tag 194\t\t\t\n      JUMPDEST \t\t\t\n      PUSH 0\t\t\t\n      PUSH FFFFFFFFFFFFFFFFFFFFFFFFFFFFFFFFFFFFFFFF\t\t\t\n      AND \t\t\t\n      DUP3 \t\t\t\n      PUSH FFFFFFFFFFFFFFFFFFFFFFFFFFFFFFFFFFFFFFFF\t\t\t\n      AND \t\t\t\n      EQ \t\t\t\n      ISZERO \t\t\t\n      PUSH [tag] 197\t\t\t\n      JUMPI \t\t\t\n      PUSH 40\t\t\t\n      MLOAD \t\t\t\n      PUSH 8C379A000000000000000000000000000000000000000000000000000000000\t\t\t\n      DUP2 \t\t\t\n      MSTORE \t\t\t\n      PUSH 4\t\t\t\n      ADD \t\t\t\n      PUSH [tag] 198\t\t\t\n      SWAP1 \t\t\t\n      PUSH [tag] 199\t\t\t\n      JUMP [in]\t\t\t\n    tag 198\t\t\t\n      JUMPDEST \t\t\t\n      PUSH 40\t\t\t\n      MLOAD \t\t\t\n      DUP1 \t\t\t\n      SWAP2 \t\t\t\n      SUB \t\t\t\n      SWAP1 \t\t\t\n      REVERT \t\t\t\n    tag 197\t\t\t\n      JUMPDEST \t\t\t\n      DUP1 \t\t\t\n      PUSH 1\t\t\t\n      PUSH 0\t\t\t\n      DUP6 \t\t\t\n      PUSH FFFFFFFFFFFFFFFFFFFFFFFFFFFFFFFFFFFFFFFF\t\t\t\n      AND \t\t\t\n      PUSH FFFFFFFFFFFFFFFFFFFFFFFFFFFFFFFFFFFFFFFF\t\t\t\n      AND \t\t\t\n      DUP2 \t\t\t\n      MSTORE \t\t\t\n      PUSH 20\t\t\t\n      ADD \t\t\t\n      SWAP1 \t\t\t\n      DUP2 \t\t\t\n      MSTORE \t\t\t\n      PUSH 20\t\t\t\n      ADD \t\t\t\n      PUSH 0\t\t\t\n      KECCAK256 \t\t\t\n      PUSH 0\t\t\t\n      DUP5 \t\t\t\n      PUSH FFFFFFFFFFFFFFFFFFFFFFFFFFFFFFFFFFFFFFFF\t\t\t\n      AND \t\t\t\n      PUSH FFFFFFFFFFFFFFFFFFFFFFFFFFFFFFFFFFFFFFFF\t\t\t\n      AND \t\t\t\n      DUP2 \t\t\t\n      MSTORE \t\t\t\n      PUSH 20\t\t\t\n      ADD \t\t\t\n      SWAP1 \t\t\t\n      DUP2 \t\t\t\n      MSTORE \t\t\t\n      PUSH 20\t\t\t\n      ADD \t\t\t\n      PUSH 0\t\t\t\n      KECCAK256 \t\t\t\n      DUP2 \t\t\t\n      SWAP1 \t\t\t\n      SSTORE \t\t\t\n      POP \t\t\t\n      DUP2 \t\t\t\n      PUSH FFFFFFFFFFFFFFFFFFFFFFFFFFFFFFFFFFFFFFFF\t\t\t\n      AND \t\t\t\n      DUP4 \t\t\t\n      PUSH FFFFFFFFFFFFFFFFFFFFFFFFFFFFFFFFFFFFFFFF\t\t\t\n      AND \t\t\t\n      PUSH 8C5BE1E5EBEC7D5BD14F71427D1E84F3DD0314C0F7B2291E5B200AC8C7C3B925\t\t\t\n      DUP4 \t\t\t\n      PUSH 40\t\t\t\n      MLOAD \t\t\t\n      PUSH [tag] 200\t\t\t\n      SWAP2 \t\t\t\n      SWAP1 \t\t\t\n      PUSH [tag] 40\t\t\t\n      JUMP [in]\t\t\t\n    tag 200\t\t\t\n      JUMPDEST \t\t\t\n      PUSH 40\t\t\t\n      MLOAD \t\t\t\n      DUP1 \t\t\t\n      SWAP2 \t\t\t\n      SUB \t\t\t\n      SWAP1 \t\t\t\n      LOG3 \t\t\t\n      POP \t\t\t\n      POP \t\t\t\n      POP \t\t\t\n      JUMP [out]\t\t\t\n    tag 132\t\t\t\n      JUMPDEST \t\t\t\n      PUSH 0\t\t\t\n      PUSH [tag] 202\t\t\t\n      DUP5 \t\t\t\n      DUP5 \t\t\t\n      PUSH [tag] 110\t\t\t\n      JUMP [in]\t\t\t\n    tag 202\t\t\t\n      JUMPDEST \t\t\t\n      SWAP1 \t\t\t\n      POP \t\t\t\n      PUSH FFFFFFFFFFFFFFFFFFFFFFFFFFFFFFFFFFFFFFFFFFFFFFFFFFFFFFFFFFFFFFFF\t\t\t\n      DUP2 \t\t\t\n      EQ \t\t\t\n      PUSH [tag] 203\t\t\t\n      JUMPI \t\t\t\n      DUP2 \t\t\t\n      DUP2 \t\t\t\n      LT \t\t\t\n      ISZERO \t\t\t\n      PUSH [tag] 204\t\t\t\n      JUMPI \t\t\t\n      PUSH 40\t\t\t\n      MLOAD \t\t\t\n      PUSH 8C379A000000000000000000000000000000000000000000000000000000000\t\t\t\n      DUP2 \t\t\t\n      MSTORE \t\t\t\n      PUSH 4\t\t\t\n      ADD \t\t\t\n      PUSH [tag] 205\t\t\t\n      SWAP1 \t\t\t\n      PUSH [tag] 206\t\t\t\n      JUMP [in]\t\t\t\n    tag 205\t\t\t\n      JUMPDEST \t\t\t\n      PUSH 40\t\t\t\n      MLOAD \t\t\t\n      DUP1 \t\t\t\n      SWAP2 \t\t\t\n      SUB \t\t\t\n      SWAP1 \t\t\t\n      REVERT \t\t\t\n    tag 204\t\t\t\n      JUMPDEST \t\t\t\n      PUSH [tag] 207\t\t\t\n      DUP5 \t\t\t\n      DUP5 \t\t\t\n      DUP5 \t\t\t\n      DUP5 \t\t\t\n      SUB \t\t\t\n      PUSH [tag] 127\t\t\t\n      JUMP [in]\t\t\t\n    tag 207\t\t\t\n      JUMPDEST \t\t\t\n    tag 203\t\t\t\n      JUMPDEST \t\t\t\n      POP \t\t\t\n      POP \t\t\t\n      POP \t\t\t\n      POP \t\t\t\n      JUMP [out]\t\t\t\n    tag 134\t\t\t\n      JUMPDEST \t\t\t\n      PUSH 0\t\t\t\n      PUSH FFFFFFFFFFFFFFFFFFFFFFFFFFFFFFFFFFFFFFFF\t\t\t\n      AND \t\t\t\n      DUP4 \t\t\t\n      PUSH FFFFFFFFFFFFFFFFFFFFFFFFFFFFFFFFFFFFFFFF\t\t\t\n      AND \t\t\t\n      EQ \t\t\t\n      ISZERO \t\t\t\n      PUSH [tag] 209\t\t\t\n      JUMPI \t\t\t\n      PUSH 40\t\t\t\n      MLOAD \t\t\t\n      PUSH 8C379A000000000000000000000000000000000000000000000000000000000\t\t\t\n      DUP2 \t\t\t\n      MSTORE \t\t\t\n      PUSH 4\t\t\t\n      ADD \t\t\t\n      PUSH [tag] 210\t\t\t\n      SWAP1 \t\t\t\n      PUSH [tag] 211\t\t\t\n      JUMP [in]\t\t\t\n    tag 210\t\t\t\n      JUMPDEST \t\t\t\n      PUSH 40\t\t\t\n      MLOAD \t\t\t\n      DUP1 \t\t\t\n      SWAP2 \t\t\t\n      SUB \t\t\t\n      SWAP1 \t\t\t\n      REVERT \t\t\t\n    tag 209\t\t\t\n      JUMPDEST \t\t\t\n      PUSH 0\t\t\t\n      PUSH FFFFFFFFFFFFFFFFFFFFFFFFFFFFFFFFFFFFFFFF\t\t\t\n      AND \t\t\t\n      DUP3 \t\t\t\n      PUSH FFFFFFFFFFFFFFFFFFFFFFFFFFFFFFFFFFFFFFFF\t\t\t\n      AND \t\t\t\n      EQ \t\t\t\n      ISZERO \t\t\t\n      PUSH [tag] 212\t\t\t\n      JUMPI \t\t\t\n      PUSH 40\t\t\t\n      MLOAD \t\t\t\n      PUSH 8C379A000000000000000000000000000000000000000000000000000000000\t\t\t\n      DUP2 \t\t\t\n      MSTORE \t\t\t\n      PUSH 4\t\t\t\n      ADD \t\t\t\n      PUSH [tag] 213\t\t\t\n      SWAP1 \t\t\t\n      PUSH [tag] 214\t\t\t\n      JUMP [in]\t\t\t\n    tag 213\t\t\t\n      JUMPDEST \t\t\t\n      PUSH 40\t\t\t\n      MLOAD \t\t\t\n      DUP1 \t\t\t\n      SWAP2 \t\t\t\n      SUB \t\t\t\n      SWAP1 \t\t\t\n      REVERT \t\t\t\n    tag 212\t\t\t\n      JUMPDEST \t\t\t\n      PUSH [tag] 215\t\t\t\n      DUP4 \t\t\t\n      DUP4 \t\t\t\n      DUP4 \t\t\t\n      PUSH [tag] 216\t\t\t\n      JUMP [in]\t\t\t\n    tag 215\t\t\t\n      JUMPDEST \t\t\t\n      PUSH 0\t\t\t\n      DUP1 \t\t\t\n      PUSH 0\t\t\t\n      DUP6 \t\t\t\n      PUSH FFFFFFFFFFFFFFFFFFFFFFFFFFFFFFFFFFFFFFFF\t\t\t\n      AND \t\t\t\n      PUSH FFFFFFFFFFFFFFFFFFFFFFFFFFFFFFFFFFFFFFFF\t\t\t\n      AND \t\t\t\n      DUP2 \t\t\t\n      MSTORE \t\t\t\n      PUSH 20\t\t\t\n      ADD \t\t\t\n      SWAP1 \t\t\t\n      DUP2 \t\t\t\n      MSTORE \t\t\t\n      PUSH 20\t\t\t\n      ADD \t\t\t\n      PUSH 0\t\t\t\n      KECCAK256 \t\t\t\n      SLOAD \t\t\t\n      SWAP1 \t\t\t\n      POP \t\t\t\n      DUP2 \t\t\t\n      DUP2 \t\t\t\n      LT \t\t\t\n      ISZERO \t\t\t\n      PUSH [tag] 217\t\t\t\n      JUMPI \t\t\t\n      PUSH 40\t\t\t\n      MLOAD \t\t\t\n      PUSH 8C379A000000000000000000000000000000000000000000000000000000000\t\t\t\n      DUP2 \t\t\t\n      MSTORE \t\t\t\n      PUSH 4\t\t\t\n      ADD \t\t\t\n      PUSH [tag] 218\t\t\t\n      SWAP1 \t\t\t\n      PUSH [tag] 219\t\t\t\n      JUMP [in]\t\t\t\n    tag 218\t\t\t\n      JUMPDEST \t\t\t\n      PUSH 40\t\t\t\n      MLOAD \t\t\t\n      DUP1 \t\t\t\n      SWAP2 \t\t\t\n      SUB \t\t\t\n      SWAP1 \t\t\t\n      REVERT \t\t\t\n    tag 217\t\t\t\n      JUMPDEST \t\t\t\n      DUP2 \t\t\t\n      DUP2 \t\t\t\n      SUB \t\t\t\n      PUSH 0\t\t\t\n      DUP1 \t\t\t\n      DUP7 \t\t\t\n      PUSH FFFFFFFFFFFFFFFFFFFFFFFFFFFFFFFFFFFFFFFF\t\t\t\n      AND \t\t\t\n      PUSH FFFFFFFFFFFFFFFFFFFFFFFFFFFFFFFFFFFFFFFF\t\t\t\n      AND \t\t\t\n      DUP2 \t\t\t\n      MSTORE \t\t\t\n      PUSH 20\t\t\t\n      ADD \t\t\t\n      SWAP1 \t\t\t\n      DUP2 \t\t\t\n      MSTORE \t\t\t\n      PUSH 20\t\t\t\n      ADD \t\t\t\n      PUSH 0\t\t\t\n      KECCAK256 \t\t\t\n      DUP2 \t\t\t\n      SWAP1 \t\t\t\n      SSTORE \t\t\t\n      POP \t\t\t\n      DUP2 \t\t\t\n      PUSH 0\t\t\t\n      DUP1 \t\t\t\n      DUP6 \t\t\t\n      PUSH FFFFFFFFFFFFFFFFFFFFFFFFFFFFFFFFFFFFFFFF\t\t\t\n      AND \t\t\t\n      PUSH FFFFFFFFFFFFFFFFFFFFFFFFFFFFFFFFFFFFFFFF\t\t\t\n      AND \t\t\t\n      DUP2 \t\t\t\n      MSTORE \t\t\t\n      PUSH 20\t\t\t\n      ADD \t\t\t\n      SWAP1 \t\t\t\n      DUP2 \t\t\t\n      MSTORE \t\t\t\n      PUSH 20\t\t\t\n      ADD \t\t\t\n      PUSH 0\t\t\t\n      KECCAK256 \t\t\t\n      PUSH 0\t\t\t\n      DUP3 \t\t\t\n      DUP3 \t\t\t\n      SLOAD \t\t\t\n      ADD \t\t\t\n      SWAP3 \t\t\t\n      POP \t\t\t\n      POP \t\t\t\n      DUP2 \t\t\t\n      SWAP1 \t\t\t\n      SSTORE \t\t\t\n      POP \t\t\t\n      DUP3 \t\t\t\n      PUSH FFFFFFFFFFFFFFFFFFFFFFFFFFFFFFFFFFFFFFFF\t\t\t\n      AND \t\t\t\n      DUP5 \t\t\t\n      PUSH FFFFFFFFFFFFFFFFFFFFFFFFFFFFFFFFFFFFFFFF\t\t\t\n      AND \t\t\t\n      PUSH DDF252AD1BE2C89B69C2B068FC378DAA952BA7F163C4A11628F55A4DF523B3EF\t\t\t\n      DUP5 \t\t\t\n      PUSH 40\t\t\t\n      MLOAD \t\t\t\n      PUSH [tag] 220\t\t\t\n      SWAP2 \t\t\t\n      SWAP1 \t\t\t\n      PUSH [tag] 40\t\t\t\n      JUMP [in]\t\t\t\n    tag 220\t\t\t\n      JUMPDEST \t\t\t\n      PUSH 40\t\t\t\n      MLOAD \t\t\t\n      DUP1 \t\t\t\n      SWAP2 \t\t\t\n      SUB \t\t\t\n      SWAP1 \t\t\t\n      LOG3 \t\t\t\n      PUSH [tag] 221\t\t\t\n      DUP5 \t\t\t\n      DUP5 \t\t\t\n      DUP5 \t\t\t\n      PUSH [tag] 222\t\t\t\n      JUMP [in]\t\t\t\n    tag 221\t\t\t\n      JUMPDEST \t\t\t\n      POP \t\t\t\n      POP \t\t\t\n      POP \t\t\t\n      POP \t\t\t\n      JUMP [out]\t\t\t\n    tag 146\t\t\tt,address _tokenAddress) publi...\n      JUMPDEST \t\t\tt,address _tokenAddress) publi...\n      PUSH [tag] 224\t\t\t20 _token = \n      PUSH [tag] 125\t\t\t20 _token \n      JUMP [in]\t\t\t20 _token = \n    tag 224\t\t\t20 _token = \n      JUMPDEST \t\t\t20 _token = \n      PUSH FFFFFFFFFFFFFFFFFFFFFFFFFFFFFFFFFFFFFFFF\t\t\t       IERC20 _token = \n      AND \t\t\t       IERC20 _token = \n      PUSH [tag] 225\t\t\t       \n      PUSH [tag] 81\t\t\t     \n      JUMP [in]\t\t\t       \n    tag 225\t\t\t       \n      JUMPDEST \t\t\t       \n      PUSH FFFFFFFFFFFFFFFFFFFFFFFFFFFFFFFFFFFFFFFF\t\t\t       IERC20 _token = \n      AND \t\t\t       IERC20 _token = \n      EQ \t\t\t       IERC20 _token = \n      PUSH [tag] 226\t\t\t{\\r\\n            IERC20 _token...\n      JUMPI \t\t\t{\\r\\n            IERC20 _token...\n      PUSH 40\t\t\t{\\r\\n            IERC20 _token...\n      MLOAD \t\t\t{\\r\\n            IERC20 _token...\n      PUSH 8C379A000000000000000000000000000000000000000000000000000000000\t\t\t{\\r\\n            IERC20 _token...\n      DUP2 \t\t\t{\\r\\n            IERC20 _token...\n      MSTORE \t\t\t{\\r\\n            IERC20 _token...\n      PUSH 4\t\t\t{\\r\\n            IERC20 _token...\n      ADD \t\t\t{\\r\\n            IERC20 _token...\n      PUSH [tag] 227\t\t\t{\\r\\n            IERC20 _token...\n      SWAP1 \t\t\t{\\r\\n            IERC20 _token...\n      PUSH [tag] 228\t\t\t{\\r\\n            IERC20 _token...\n      JUMP [in]\t\t\t{\\r\\n            IERC20 _token...\n    tag 227\t\t\t{\\r\\n            IERC20 _token...\n      JUMPDEST \t\t\t{\\r\\n            IERC20 _token...\n      PUSH 40\t\t\t{\\r\\n            IERC20 _token...\n      MLOAD \t\t\t{\\r\\n            IERC20 _token...\n      DUP1 \t\t\t{\\r\\n            IERC20 _token...\n      SWAP2 \t\t\t{\\r\\n            IERC20 _token...\n      SUB \t\t\t{\\r\\n            IERC20 _token...\n      SWAP1 \t\t\t{\\r\\n            IERC20 _token...\n      REVERT \t\t\t{\\r\\n            IERC20 _token...\n    tag 226\t\t\t{\\r\\n            IERC20 _token...\n      JUMPDEST \t\t\t{\\r\\n            IERC20 _token...\n      JUMP [out]\t\t\tt,address _tokenAddress) publi...\n    tag 153\t\t\t\n      JUMPDEST \t\t\t\n      PUSH 0\t\t\t\n      PUSH 5\t\t\t\n      PUSH 0\t\t\t\n      SWAP1 \t\t\t\n      SLOAD \t\t\t\n      SWAP1 \t\t\t\n      PUSH 100\t\t\t\n      EXP \t\t\t\n      SWAP1 \t\t\t\n      DIV \t\t\t\n      PUSH FFFFFFFFFFFFFFFFFFFFFFFFFFFFFFFFFFFFFFFF\t\t\t\n      AND \t\t\t\n      SWAP1 \t\t\t\n      POP \t\t\t\n      DUP2 \t\t\t\n      PUSH 5\t\t\t\n      PUSH 0\t\t\t\n      PUSH 100\t\t\t\n      EXP \t\t\t\n      DUP2 \t\t\t\n      SLOAD \t\t\t\n      DUP2 \t\t\t\n      PUSH FFFFFFFFFFFFFFFFFFFFFFFFFFFFFFFFFFFFFFFF\t\t\t\n      MUL \t\t\t\n      NOT \t\t\t\n      AND \t\t\t\n      SWAP1 \t\t\t\n      DUP4 \t\t\t\n      PUSH FFFFFFFFFFFFFFFFFFFFFFFFFFFFFFFFFFFFFFFF\t\t\t\n      AND \t\t\t\n      MUL \t\t\t\n      OR \t\t\t\n      SWAP1 \t\t\t\n      SSTORE \t\t\t\n      POP \t\t\t\n      DUP2 \t\t\t\n      PUSH FFFFFFFFFFFFFFFFFFFFFFFFFFFFFFFFFFFFFFFF\t\t\t\n      AND \t\t\t\n      DUP2 \t\t\t\n      PUSH FFFFFFFFFFFFFFFFFFFFFFFFFFFFFFFFFFFFFFFF\t\t\t\n      AND \t\t\t\n      PUSH 8BE0079C531659141344CD1FD0A4F28419497F9722A3DAAFE3B4186F6B6457E0\t\t\t\n      PUSH 40\t\t\t\n      MLOAD \t\t\t\n      PUSH 40\t\t\t\n      MLOAD \t\t\t\n      DUP1 \t\t\t\n      SWAP2 \t\t\t\n      SUB \t\t\t\n      SWAP1 \t\t\t\n      LOG3 \t\t\t\n      POP \t\t\t\n      POP \t\t\t\n      JUMP [out]\t\t\t\n    tag 216\t\t\t\n      JUMPDEST \t\t\t\n      POP \t\t\t\n      POP \t\t\t\n      POP \t\t\t\n      JUMP [out]\t\t\t\n    tag 222\t\t\t\n      JUMPDEST \t\t\t\n      POP \t\t\t\n      POP \t\t\t\n      POP \t\t\t\n      JUMP [out]\t\t\t\n    tag 233\t\t\t-License-Identifier: MIT\\r\\n\\r...\n      JUMPDEST \t\t\t-License-Identifier: MIT\\r\\n\\r...\n      PUSH 0\t\t\t.8.0;\n      DUP2 \t\t\tenZepp\n      CALLDATALOAD \t\t\tgithub.com/OpenZeppe\n      SWAP1 \t\t\t\"https://github.com/OpenZeppe\n      POP \t\t\t\"https://github.com/OpenZeppe\n      PUSH [tag] 235\t\t\teppelin-contracts/blob/master/...\n      DUP2 \t\t\ter/co\n      PUSH [tag] 236\t\t\teppelin-contracts/blob/master/...\n      JUMP [in]\t\t\teppelin-contracts/blob/master/...\n    tag 235\t\t\teppelin-contracts/blob/master/...\n      JUMPDEST \t\t\teppelin-contracts/blob/master/...\n      SWAP3 \t\t\t-License-Identifier: MIT\\r\\n\\r...\n      SWAP2 \t\t\t-License-Identifier: MIT\\r\\n\\r...\n      POP \t\t\t-License-Identifier: MIT\\r\\n\\r...\n      POP \t\t\t-License-Identifier: MIT\\r\\n\\r...\n      JUMP [out]\t\t\t-License-Identifier: MIT\\r\\n\\r...\n    tag 237\t\t\t/ERC20/ERC20.sol\";\\r\\nimport \"...\n      JUMPDEST \t\t\t/ERC20/ERC20.sol\";\\r\\nimport \"...\n      PUSH 0\t\t\tpelin\n      DUP2 \t\t\tob/mas\n      MLOAD \t\t\tcts/blob/mast\n      SWAP1 \t\t\tin-contracts/blob/mast\n      POP \t\t\tin-contracts/blob/mast\n      PUSH [tag] 239\t\t\tcts/access/Ownable.sol\";\\r\\n//...\n      DUP2 \t\t\t\\r\\n// \n      PUSH [tag] 240\t\t\tcts/access/Ownable.sol\";\\r\\n//...\n      JUMP [in]\t\t\tcts/access/Ownable.sol\";\\r\\n//...\n    tag 239\t\t\tcts/access/Ownable.sol\";\\r\\n//...\n      JUMPDEST \t\t\tcts/access/Ownable.sol\";\\r\\n//...\n      SWAP3 \t\t\t/ERC20/ERC20.sol\";\\r\\nimport \"...\n      SWAP2 \t\t\t/ERC20/ERC20.sol\";\\r\\nimport \"...\n      POP \t\t\t/ERC20/ERC20.sol\";\\r\\nimport \"...\n      POP \t\t\t/ERC20/ERC20.sol\";\\r\\nimport \"...\n      JUMP [out]\t\t\t/ERC20/ERC20.sol\";\\r\\nimport \"...\n    tag 241\t\t\tguageDAO.sol\";\\r\\n\\r\\ncontract...\n      JUMPDEST \t\t\tguageDAO.sol\";\\r\\n\\r\\ncontract...\n      PUSH 0\t\t\t ERC2\n      DUP2 \t\t\tmin;\\r\\n\n      CALLDATALOAD \t\t\t   address admin;\\r\\n \n      SWAP1 \t\t\t\\r\\n    \\r\\n    address admin;...\n      POP \t\t\t\\r\\n    \\r\\n    address admin;...\n      PUSH [tag] 243\t\t\tguageDAO public languageDAO;\\r...\n      DUP2 \t\t\t;\\r\\n  \n      PUSH [tag] 244\t\t\tguageDAO public languageDAO;\\r...\n      JUMP [in]\t\t\tguageDAO public languageDAO;\\r...\n    tag 243\t\t\tguageDAO public languageDAO;\\r...\n      JUMPDEST \t\t\tguageDAO public languageDAO;\\r...\n      SWAP3 \t\t\tguageDAO.sol\";\\r\\n\\r\\ncontract...\n      SWAP2 \t\t\tguageDAO.sol\";\\r\\n\\r\\ncontract...\n      POP \t\t\tguageDAO.sol\";\\r\\n\\r\\ncontract...\n      POP \t\t\tguageDAO.sol\";\\r\\n\\r\\ncontract...\n      JUMP [out]\t\t\tguageDAO.sol\";\\r\\n\\r\\ncontract...\n    tag 69\t\t\tlSupply;\\r\\n\\r\\n    constructo...\n      JUMPDEST \t\t\tlSupply;\\r\\n\\r\\n    constructo...\n      PUSH 0\t\t\tg memo\n      PUSH 20\t\t\t) \n      DUP3 \t\t\tupplyToOw\n      DUP5 \t\t\t_initia\n      SUB \t\t\tint _initialSupplyToOwn\n      SLT \t\t\tl, uint _initialSupplyToOwner)...\n      ISZERO \t\t\tmbol, uint _initialSupplyToOwn...\n      PUSH [tag] 246\t\t\tmbol, uint _initialSupplyToOwn...\n      JUMPI \t\t\tmbol, uint _initialSupplyToOwn...\n      PUSH [tag] 247\t\t\t0(_tokenName, _tokenSymbol) {\\...\n      PUSH [tag] 248\t\t\t0(_tokenName, _tokenSymbol) {\\...\n      JUMP [in]\t\t\t0(_tokenName, _tokenSymbol) {\\...\n    tag 247\t\t\t0(_tokenName, _tokenSymbol) {\\...\n      JUMPDEST \t\t\t0(_tokenName, _tokenSymbol) {\\...\n    tag 246\t\t\tmbol, uint _initialSupplyToOwn...\n      JUMPDEST \t\t\tmbol, uint _initialSupplyToOwn...\n      PUSH 0\t\t\tm\n      PUSH [tag] 249\t\t\tyToOwner);\\r\\n        // langu...\n      DUP5 \t\t\tDAO(_la\n      DUP3 \t\t\t Langu\n      DUP6 \t\t\tnguageDAO\n      ADD \t\t\t/ languageDAO = Langua\n      PUSH [tag] 233\t\t\tyToOwner);\\r\\n        // langu...\n      JUMP [in]\t\t\tyToOwner);\\r\\n        // langu...\n    tag 249\t\t\tyToOwner);\\r\\n        // langu...\n      JUMPDEST \t\t\tyToOwner);\\r\\n        // langu...\n      SWAP2 \t\t\titialSupplyToOwner);\\r\\n      ...\n      POP \t\t\titialSupplyToOwner);\\r\\n      ...\n      POP \t\t\tupplyToOwner;\\r\\n        _mint...\n      SWAP3 \t\t\tlSupply;\\r\\n\\r\\n    constructo...\n      SWAP2 \t\t\tlSupply;\\r\\n\\r\\n    constructo...\n      POP \t\t\tlSupply;\\r\\n\\r\\n    constructo...\n      POP \t\t\tlSupply;\\r\\n\\r\\n    constructo...\n      JUMP [out]\t\t\tlSupply;\\r\\n\\r\\n    constructo...\n    tag 109\t\t\t}\\r\\n\\r\\n    uint256 tokenPric...\n      JUMPDEST \t\t\t}\\r\\n\\r\\n    uint256 tokenPric...\n      PUSH 0\t\t\tther\\r\\n\n      DUP1 \t\t\t  \\r\\n  \n      PUSH 40\t\t\t, \n      DUP4 \t\t\t payable \n      DUP6 \t\t\tr(addre\n      SUB \t\t\tnsfer(address payable _\n      SLT \t\t\t_transfer(address payable _to,...\n      ISZERO \t\t\ton _transfer(address payable _...\n      PUSH [tag] 251\t\t\ton _transfer(address payable _...\n      JUMPI \t\t\ton _transfer(address payable _...\n      PUSH [tag] 252\t\t\t256 _amount) public payable {\\...\n      PUSH [tag] 248\t\t\t256 _amount) public payable {\\...\n      JUMP [in]\t\t\t256 _amount) public payable {\\...\n    tag 252\t\t\t256 _amount) public payable {\\...\n      JUMPDEST \t\t\t256 _amount) public payable {\\...\n    tag 251\t\t\ton _transfer(address payable _...\n      JUMPDEST \t\t\ton _transfer(address payable _...\n      PUSH 0\t\t\ta\n      PUSH [tag] 253\t\t\trice), \"Not enough value!\");\\r...\n      DUP6 \t\t\tf(!lang\n      DUP3 \t\t\t     /\n      DUP7 \t\t\t\");\\r\\n    \n      ADD \t\t\tlue!\");\\r\\n    //     //\n      PUSH [tag] 233\t\t\trice), \"Not enough value!\");\\r...\n      JUMP [in]\t\t\trice), \"Not enough value!\");\\r...\n    tag 253\t\t\trice), \"Not enough value!\");\\r...\n      JUMPDEST \t\t\trice), \"Not enough value!\");\\r...\n      SWAP3 \t\t\tt * tokenPrice), \"Not enough v...\n      POP \t\t\tt * tokenPrice), \"Not enough v...\n      POP \t\t\t\");\\r\\n    //     require(msg....\n      PUSH 20\t\t\t  \n      PUSH [tag] 254\t\t\t(msg.sender);\\r\\n    //     //...\n      DUP6 \t\t\tansfer(\n      DUP3 \t\t\t//    \n      DUP7 \t\t\t // }\\r\\n  \n      ADD \t\t\t     // }\\r\\n    //     \n      PUSH [tag] 233\t\t\t(msg.sender);\\r\\n    //     //...\n      JUMP [in]\t\t\t(msg.sender);\\r\\n    //     //...\n    tag 254\t\t\t(msg.sender);\\r\\n    //     //...\n      JUMPDEST \t\t\t(msg.sender);\\r\\n    //     //...\n      SWAP2 \t\t\t.addMember(msg.sender);\\r\\n   ...\n      POP \t\t\t.addMember(msg.sender);\\r\\n   ...\n      POP \t\t\t(msg.sender)){\\r\\n    //     /...\n      SWAP3 \t\t\t}\\r\\n\\r\\n    uint256 tokenPric...\n      POP \t\t\t}\\r\\n\\r\\n    uint256 tokenPric...\n      SWAP3 \t\t\t}\\r\\n\\r\\n    uint256 tokenPric...\n      SWAP1 \t\t\t}\\r\\n\\r\\n    uint256 tokenPric...\n      POP \t\t\t}\\r\\n\\r\\n    uint256 tokenPric...\n      JUMP [out]\t\t\t}\\r\\n\\r\\n    uint256 tokenPric...\n    tag 44\t\t\t   initialSupply = initialSupp...\n      JUMPDEST \t\t\t   initialSupply = initialSupp...\n      PUSH 0\t\t\trawFro\n      DUP1 \t\t\tontrac\n      PUSH 0\t\t\tuint _\n      PUSH 60\t\t\te \n      DUP5 \t\t\tublic pay\n      DUP7 \t\t\tddress)\n      SUB \t\t\tkenAddress) public paya\n      SLT \t\t\t _tokenAddress) public payable...\n      ISZERO \t\t\tess _tokenAddress) public paya...\n      PUSH [tag] 256\t\t\tess _tokenAddress) public paya...\n      JUMPI \t\t\tess _tokenAddress) public paya...\n      PUSH [tag] 257\t\t\tOwner\\r\\n    {\\r\\n            ...\n      PUSH [tag] 248\t\t\tOwner\\r\\n    {\\r\\n            ...\n      JUMP [in]\t\t\tOwner\\r\\n    {\\r\\n            ...\n    tag 257\t\t\tOwner\\r\\n    {\\r\\n            ...\n      JUMPDEST \t\t\tOwner\\r\\n    {\\r\\n            ...\n    tag 256\t\t\tess _tokenAddress) public paya...\n      JUMPDEST \t\t\tess _tokenAddress) public paya...\n      PUSH 0\t\t\t}\n      PUSH [tag] 258\t\t\tokenprice(uint _tokenPrice) pu...\n      DUP7 \t\t\t{\\r\\n    \n      DUP3 \t\t\tnlyOwn\n      DUP8 \t\t\te) public\n      ADD \t\t\tPrice) public onlyOwne\n      PUSH [tag] 233\t\t\tokenprice(uint _tokenPrice) pu...\n      JUMP [in]\t\t\tokenprice(uint _tokenPrice) pu...\n    tag 258\t\t\tokenprice(uint _tokenPrice) pu...\n      JUMPDEST \t\t\tokenprice(uint _tokenPrice) pu...\n      SWAP4 \t\t\tction setTokenprice(uint _toke...\n      POP \t\t\tction setTokenprice(uint _toke...\n      POP \t\t\ter(msg.sender,_amount);\\r\\n   ...\n      PUSH 20\t\t\ton\n      PUSH [tag] 259\t\t\t) public onlyOwner {\\r\\n      ...\n      DUP7 \t\t\t\\r\\n    }\n      DUP3 \t\t\t= _adm\n      DUP8 \t\t\t     admi\n      ADD \t\t\t\\n        admin = _admi\n      PUSH [tag] 233\t\t\t) public onlyOwner {\\r\\n      ...\n      JUMP [in]\t\t\t) public onlyOwner {\\r\\n      ...\n    tag 259\t\t\t) public onlyOwner {\\r\\n      ...\n      JUMPDEST \t\t\t) public onlyOwner {\\r\\n      ...\n      SWAP3 \t\t\tess _admin) public onlyOwner {...\n      POP \t\t\tess _admin) public onlyOwner {...\n      POP \t\t\tenPrice;\\r\\n    }\\r\\n\\r\\n    f...\n      PUSH 40\t\t\tdr\n      PUSH [tag] 260\t\t\tmin;\\r\\n    }\\r\\n\\r\\n    funct...\n      DUP7 \t\t\tublic v\n      DUP3 \t\t\tPrice(\n      DUP8 \t\t\ton getTok\n      ADD \t\t\tnction getTokenPrice()\n      PUSH [tag] 241\t\t\tmin;\\r\\n    }\\r\\n\\r\\n    funct...\n      JUMP [in]\t\t\tmin;\\r\\n    }\\r\\n\\r\\n    funct...\n    tag 260\t\t\tmin;\\r\\n    }\\r\\n\\r\\n    funct...\n      JUMPDEST \t\t\tmin;\\r\\n    }\\r\\n\\r\\n    funct...\n      SWAP2 \t\t\t return admin;\\r\\n    }\\r\\n\\r\\...\n      POP \t\t\t return admin;\\r\\n    }\\r\\n\\r\\...\n      POP \t\t\tdmin() public view returns(add...\n      SWAP3 \t\t\t   initialSupply = initialSupp...\n      POP \t\t\t   initialSupply = initialSupp...\n      SWAP3 \t\t\t   initialSupply = initialSupp...\n      POP \t\t\t   initialSupply = initialSupp...\n      SWAP3 \t\t\t   initialSupply = initialSupp...\n      JUMP [out]\t\t\t   initialSupply = initialSupp...\n    tag 32\t\t\t    return tokenPrice;\\r\\n    ...\n      JUMPDEST \t\t\t    return tokenPrice;\\r\\n    ...\n      PUSH 0\t\t\t\n      DUP1 \t\t\t\n      PUSH 40\t\t\t\n      DUP4 \t\t\t\n      DUP6 \t\t\t\n      SUB \t\t\t\n      SLT \t\t\t\n      ISZERO \t\t\t\n      PUSH [tag] 262\t\t\t\n      JUMPI \t\t\t\n      PUSH [tag] 263\t\t\t\n      PUSH [tag] 248\t\t\t\n      JUMP [in]\t\t\t\n    tag 263\t\t\t\n      JUMPDEST \t\t\t\n    tag 262\t\t\t\n      JUMPDEST \t\t\t\n      PUSH 0\t\t\t\n      PUSH [tag] 264\t\t\t\n      DUP6 \t\t\t\n      DUP3 \t\t\t\n      DUP7 \t\t\t\n      ADD \t\t\t\n      PUSH [tag] 233\t\t\t\n      JUMP [in]\t\t\t\n    tag 264\t\t\t\n      JUMPDEST \t\t\t\n      SWAP3 \t\t\t\n      POP \t\t\t\n      POP \t\t\t\n      PUSH 20\t\t\t\n      PUSH [tag] 265\t\t\t\n      DUP6 \t\t\t\n      DUP3 \t\t\t\n      DUP7 \t\t\t\n      ADD \t\t\t\n      PUSH [tag] 241\t\t\t\n      JUMP [in]\t\t\t\n    tag 265\t\t\t\n      JUMPDEST \t\t\t\n      SWAP2 \t\t\t\n      POP \t\t\t\n      POP \t\t\t\n      SWAP3 \t\t\t    return tokenPrice;\\r\\n    ...\n      POP \t\t\t    return tokenPrice;\\r\\n    ...\n      SWAP3 \t\t\t    return tokenPrice;\\r\\n    ...\n      SWAP1 \t\t\t    return tokenPrice;\\r\\n    ...\n      POP \t\t\t    return tokenPrice;\\r\\n    ...\n      JUMP [out]\t\t\t    return tokenPrice;\\r\\n    ...\n    tag 173\t\t\t\n      JUMPDEST \t\t\t\n      PUSH 0\t\t\t\n      PUSH 20\t\t\t\n      DUP3 \t\t\t\n      DUP5 \t\t\t\n      SUB \t\t\t\n      SLT \t\t\t\n      ISZERO \t\t\t\n      PUSH [tag] 267\t\t\t\n      JUMPI \t\t\t\n      PUSH [tag] 268\t\t\t\n      PUSH [tag] 248\t\t\t\n      JUMP [in]\t\t\t\n    tag 268\t\t\t\n      JUMPDEST \t\t\t\n    tag 267\t\t\t\n      JUMPDEST \t\t\t\n      PUSH 0\t\t\t\n      PUSH [tag] 269\t\t\t\n      DUP5 \t\t\t\n      DUP3 \t\t\t\n      DUP6 \t\t\t\n      ADD \t\t\t\n      PUSH [tag] 237\t\t\t\n      JUMP [in]\t\t\t\n    tag 269\t\t\t\n      JUMPDEST \t\t\t\n      SWAP2 \t\t\t\n      POP \t\t\t\n      POP \t\t\t\n      SWAP3 \t\t\t\n      SWAP2 \t\t\t\n      POP \t\t\t\n      POP \t\t\t\n      JUMP [out]\t\t\t\n    tag 86\t\t\t\n      JUMPDEST \t\t\t\n      PUSH 0\t\t\t\n      PUSH 20\t\t\t\n      DUP3 \t\t\t\n      DUP5 \t\t\t\n      SUB \t\t\t\n      SLT \t\t\t\n      ISZERO \t\t\t\n      PUSH [tag] 271\t\t\t\n      JUMPI \t\t\t\n      PUSH [tag] 272\t\t\t\n      PUSH [tag] 248\t\t\t\n      JUMP [in]\t\t\t\n    tag 272\t\t\t\n      JUMPDEST \t\t\t\n    tag 271\t\t\t\n      JUMPDEST \t\t\t\n      PUSH 0\t\t\t\n      PUSH [tag] 273\t\t\t\n      DUP5 \t\t\t\n      DUP3 \t\t\t\n      DUP6 \t\t\t\n      ADD \t\t\t\n      PUSH [tag] 241\t\t\t\n      JUMP [in]\t\t\t\n    tag 273\t\t\t\n      JUMPDEST \t\t\t\n      SWAP2 \t\t\t\n      POP \t\t\t\n      POP \t\t\t\n      SWAP3 \t\t\t\n      SWAP2 \t\t\t\n      POP \t\t\t\n      POP \t\t\t\n      JUMP [out]\t\t\t\n    tag 94\t\t\t\n      JUMPDEST \t\t\t\n      PUSH 0\t\t\t\n      DUP1 \t\t\t\n      PUSH 40\t\t\t\n      DUP4 \t\t\t\n      DUP6 \t\t\t\n      SUB \t\t\t\n      SLT \t\t\t\n      ISZERO \t\t\t\n      PUSH [tag] 275\t\t\t\n      JUMPI \t\t\t\n      PUSH [tag] 276\t\t\t\n      PUSH [tag] 248\t\t\t\n      JUMP [in]\t\t\t\n    tag 276\t\t\t\n      JUMPDEST \t\t\t\n    tag 275\t\t\t\n      JUMPDEST \t\t\t\n      PUSH 0\t\t\t\n      PUSH [tag] 277\t\t\t\n      DUP6 \t\t\t\n      DUP3 \t\t\t\n      DUP7 \t\t\t\n      ADD \t\t\t\n      PUSH [tag] 241\t\t\t\n      JUMP [in]\t\t\t\n    tag 277\t\t\t\n      JUMPDEST \t\t\t\n      SWAP3 \t\t\t\n      POP \t\t\t\n      POP \t\t\t\n      PUSH 20\t\t\t\n      PUSH [tag] 278\t\t\t\n      DUP6 \t\t\t\n      DUP3 \t\t\t\n      DUP7 \t\t\t\n      ADD \t\t\t\n      PUSH [tag] 233\t\t\t\n      JUMP [in]\t\t\t\n    tag 278\t\t\t\n      JUMPDEST \t\t\t\n      SWAP2 \t\t\t\n      POP \t\t\t\n      POP \t\t\t\n      SWAP3 \t\t\t\n      POP \t\t\t\n      SWAP3 \t\t\t\n      SWAP1 \t\t\t\n      POP \t\t\t\n      JUMP [out]\t\t\t\n    tag 279\t\t\t\n      JUMPDEST \t\t\t\n      PUSH [tag] 281\t\t\t\n      DUP2 \t\t\t\n      PUSH [tag] 282\t\t\t\n      JUMP [in]\t\t\t\n    tag 281\t\t\t\n      JUMPDEST \t\t\t\n      DUP3 \t\t\t\n      MSTORE \t\t\t\n      POP \t\t\t\n      POP \t\t\t\n      JUMP [out]\t\t\t\n    tag 283\t\t\t\n      JUMPDEST \t\t\t\n      PUSH [tag] 285\t\t\t\n      DUP2 \t\t\t\n      PUSH [tag] 286\t\t\t\n      JUMP [in]\t\t\t\n    tag 285\t\t\t\n      JUMPDEST \t\t\t\n      DUP3 \t\t\t\n      MSTORE \t\t\t\n      POP \t\t\t\n      POP \t\t\t\n      JUMP [out]\t\t\t\n    tag 287\t\t\t\n      JUMPDEST \t\t\t\n      PUSH 0\t\t\t\n      PUSH [tag] 289\t\t\t\n      DUP3 \t\t\t\n      PUSH [tag] 290\t\t\t\n      JUMP [in]\t\t\t\n    tag 289\t\t\t\n      JUMPDEST \t\t\t\n      PUSH [tag] 291\t\t\t\n      DUP2 \t\t\t\n      DUP6 \t\t\t\n      PUSH [tag] 292\t\t\t\n      JUMP [in]\t\t\t\n    tag 291\t\t\t\n      JUMPDEST \t\t\t\n      SWAP4 \t\t\t\n      POP \t\t\t\n      PUSH [tag] 293\t\t\t\n      DUP2 \t\t\t\n      DUP6 \t\t\t\n      PUSH 20\t\t\t\n      DUP7 \t\t\t\n      ADD \t\t\t\n      PUSH [tag] 294\t\t\t\n      JUMP [in]\t\t\t\n    tag 293\t\t\t\n      JUMPDEST \t\t\t\n      PUSH [tag] 295\t\t\t\n      DUP2 \t\t\t\n      PUSH [tag] 296\t\t\t\n      JUMP [in]\t\t\t\n    tag 295\t\t\t\n      JUMPDEST \t\t\t\n      DUP5 \t\t\t\n      ADD \t\t\t\n      SWAP2 \t\t\t\n      POP \t\t\t\n      POP \t\t\t\n      SWAP3 \t\t\t\n      SWAP2 \t\t\t\n      POP \t\t\t\n      POP \t\t\t\n      JUMP [out]\t\t\t\n    tag 297\t\t\t\n      JUMPDEST \t\t\t\n      PUSH 0\t\t\t\n      PUSH [tag] 299\t\t\t\n      PUSH 23\t\t\t\n      DUP4 \t\t\t\n      PUSH [tag] 292\t\t\t\n      JUMP [in]\t\t\t\n    tag 299\t\t\t\n      JUMPDEST \t\t\t\n      SWAP2 \t\t\t\n      POP \t\t\t\n      PUSH [tag] 300\t\t\t\n      DUP3 \t\t\t\n      PUSH [tag] 301\t\t\t\n      JUMP [in]\t\t\t\n    tag 300\t\t\t\n      JUMPDEST \t\t\t\n      PUSH 40\t\t\t\n      DUP3 \t\t\t\n      ADD \t\t\t\n      SWAP1 \t\t\t\n      POP \t\t\t\n      SWAP2 \t\t\t\n      SWAP1 \t\t\t\n      POP \t\t\t\n      JUMP [out]\t\t\t\n    tag 302\t\t\t\n      JUMPDEST \t\t\t\n      PUSH 0\t\t\t\n      PUSH [tag] 304\t\t\t\n      PUSH 26\t\t\t\n      DUP4 \t\t\t\n      PUSH [tag] 292\t\t\t\n      JUMP [in]\t\t\t\n    tag 304\t\t\t\n      JUMPDEST \t\t\t\n      SWAP2 \t\t\t\n      POP \t\t\t\n      PUSH [tag] 305\t\t\t\n      DUP3 \t\t\t\n      PUSH [tag] 306\t\t\t\n      JUMP [in]\t\t\t\n    tag 305\t\t\t\n      JUMPDEST \t\t\t\n      PUSH 40\t\t\t\n      DUP3 \t\t\t\n      ADD \t\t\t\n      SWAP1 \t\t\t\n      POP \t\t\t\n      SWAP2 \t\t\t\n      SWAP1 \t\t\t\n      POP \t\t\t\n      JUMP [out]\t\t\t\n    tag 307\t\t\t\n      JUMPDEST \t\t\t\n      PUSH 0\t\t\t\n      PUSH [tag] 309\t\t\t\n      PUSH 22\t\t\t\n      DUP4 \t\t\t\n      PUSH [tag] 292\t\t\t\n      JUMP [in]\t\t\t\n    tag 309\t\t\t\n      JUMPDEST \t\t\t\n      SWAP2 \t\t\t\n      POP \t\t\t\n      PUSH [tag] 310\t\t\t\n      DUP3 \t\t\t\n      PUSH [tag] 311\t\t\t\n      JUMP [in]\t\t\t\n    tag 310\t\t\t\n      JUMPDEST \t\t\t\n      PUSH 40\t\t\t\n      DUP3 \t\t\t\n      ADD \t\t\t\n      SWAP1 \t\t\t\n      POP \t\t\t\n      SWAP2 \t\t\t\n      SWAP1 \t\t\t\n      POP \t\t\t\n      JUMP [out]\t\t\t\n    tag 312\t\t\t\n      JUMPDEST \t\t\t\n      PUSH 0\t\t\t\n      PUSH [tag] 314\t\t\t\n      PUSH 1D\t\t\t\n      DUP4 \t\t\t\n      PUSH [tag] 292\t\t\t\n      JUMP [in]\t\t\t\n    tag 314\t\t\t\n      JUMPDEST \t\t\t\n      SWAP2 \t\t\t\n      POP \t\t\t\n      PUSH [tag] 315\t\t\t\n      DUP3 \t\t\t\n      PUSH [tag] 316\t\t\t\n      JUMP [in]\t\t\t\n    tag 315\t\t\t\n      JUMPDEST \t\t\t\n      PUSH 20\t\t\t\n      DUP3 \t\t\t\n      ADD \t\t\t\n      SWAP1 \t\t\t\n      POP \t\t\t\n      SWAP2 \t\t\t\n      SWAP1 \t\t\t\n      POP \t\t\t\n      JUMP [out]\t\t\t\n    tag 317\t\t\t\n      JUMPDEST \t\t\t\n      PUSH 0\t\t\t\n      PUSH [tag] 319\t\t\t\n      PUSH 26\t\t\t\n      DUP4 \t\t\t\n      PUSH [tag] 292\t\t\t\n      JUMP [in]\t\t\t\n    tag 319\t\t\t\n      JUMPDEST \t\t\t\n      SWAP2 \t\t\t\n      POP \t\t\t\n      PUSH [tag] 320\t\t\t\n      DUP3 \t\t\t\n      PUSH [tag] 321\t\t\t\n      JUMP [in]\t\t\t\n    tag 320\t\t\t\n      JUMPDEST \t\t\t\n      PUSH 40\t\t\t\n      DUP3 \t\t\t\n      ADD \t\t\t\n      SWAP1 \t\t\t\n      POP \t\t\t\n      SWAP2 \t\t\t\n      SWAP1 \t\t\t\n      POP \t\t\t\n      JUMP [out]\t\t\t\n    tag 322\t\t\t\n      JUMPDEST \t\t\t\n      PUSH 0\t\t\t\n      PUSH [tag] 324\t\t\t\n      PUSH 20\t\t\t\n      DUP4 \t\t\t\n      PUSH [tag] 292\t\t\t\n      JUMP [in]\t\t\t\n    tag 324\t\t\t\n      JUMPDEST \t\t\t\n      SWAP2 \t\t\t\n      POP \t\t\t\n      PUSH [tag] 325\t\t\t\n      DUP3 \t\t\t\n      PUSH [tag] 326\t\t\t\n      JUMP [in]\t\t\t\n    tag 325\t\t\t\n      JUMPDEST \t\t\t\n      PUSH 20\t\t\t\n      DUP3 \t\t\t\n      ADD \t\t\t\n      SWAP1 \t\t\t\n      POP \t\t\t\n      SWAP2 \t\t\t\n      SWAP1 \t\t\t\n      POP \t\t\t\n      JUMP [out]\t\t\t\n    tag 327\t\t\t\n      JUMPDEST \t\t\t\n      PUSH 0\t\t\t\n      PUSH [tag] 329\t\t\t\n      PUSH 25\t\t\t\n      DUP4 \t\t\t\n      PUSH [tag] 292\t\t\t\n      JUMP [in]\t\t\t\n    tag 329\t\t\t\n      JUMPDEST \t\t\t\n      SWAP2 \t\t\t\n      POP \t\t\t\n      PUSH [tag] 330\t\t\t\n      DUP3 \t\t\t\n      PUSH [tag] 331\t\t\t\n      JUMP [in]\t\t\t\n    tag 330\t\t\t\n      JUMPDEST \t\t\t\n      PUSH 40\t\t\t\n      DUP3 \t\t\t\n      ADD \t\t\t\n      SWAP1 \t\t\t\n      POP \t\t\t\n      SWAP2 \t\t\t\n      SWAP1 \t\t\t\n      POP \t\t\t\n      JUMP [out]\t\t\t\n    tag 332\t\t\t\n      JUMPDEST \t\t\t\n      PUSH 0\t\t\t\n      PUSH [tag] 334\t\t\t\n      PUSH 24\t\t\t\n      DUP4 \t\t\t\n      PUSH [tag] 292\t\t\t\n      JUMP [in]\t\t\t\n    tag 334\t\t\t\n      JUMPDEST \t\t\t\n      SWAP2 \t\t\t\n      POP \t\t\t\n      PUSH [tag] 335\t\t\t\n      DUP3 \t\t\t\n      PUSH [tag] 336\t\t\t\n      JUMP [in]\t\t\t\n    tag 335\t\t\t\n      JUMPDEST \t\t\t\n      PUSH 40\t\t\t\n      DUP3 \t\t\t\n      ADD \t\t\t\n      SWAP1 \t\t\t\n      POP \t\t\t\n      SWAP2 \t\t\t\n      SWAP1 \t\t\t\n      POP \t\t\t\n      JUMP [out]\t\t\t\n    tag 337\t\t\t\n      JUMPDEST \t\t\t\n      PUSH 0\t\t\t\n      PUSH [tag] 339\t\t\t\n      PUSH 25\t\t\t\n      DUP4 \t\t\t\n      PUSH [tag] 292\t\t\t\n      JUMP [in]\t\t\t\n    tag 339\t\t\t\n      JUMPDEST \t\t\t\n      SWAP2 \t\t\t\n      POP \t\t\t\n      PUSH [tag] 340\t\t\t\n      DUP3 \t\t\t\n      PUSH [tag] 341\t\t\t\n      JUMP [in]\t\t\t\n    tag 340\t\t\t\n      JUMPDEST \t\t\t\n      PUSH 40\t\t\t\n      DUP3 \t\t\t\n      ADD \t\t\t\n      SWAP1 \t\t\t\n      POP \t\t\t\n      SWAP2 \t\t\t\n      SWAP1 \t\t\t\n      POP \t\t\t\n      JUMP [out]\t\t\t\n    tag 342\t\t\t\n      JUMPDEST \t\t\t\n      PUSH [tag] 344\t\t\t\n      DUP2 \t\t\t\n      PUSH [tag] 345\t\t\t\n      JUMP [in]\t\t\t\n    tag 344\t\t\t\n      JUMPDEST \t\t\t\n      DUP3 \t\t\t\n      MSTORE \t\t\t\n      POP \t\t\t\n      POP \t\t\t\n      JUMP [out]\t\t\t\n    tag 346\t\t\t\n      JUMPDEST \t\t\t\n      PUSH [tag] 348\t\t\t\n      DUP2 \t\t\t\n      PUSH [tag] 349\t\t\t\n      JUMP [in]\t\t\t\n    tag 348\t\t\t\n      JUMPDEST \t\t\t\n      DUP3 \t\t\t\n      MSTORE \t\t\t\n      POP \t\t\t\n      POP \t\t\t\n      JUMP [out]\t\t\t\n    tag 65\t\t\t\n      JUMPDEST \t\t\t\n      PUSH 0\t\t\t\n      PUSH 20\t\t\t\n      DUP3 \t\t\t\n      ADD \t\t\t\n      SWAP1 \t\t\t\n      POP \t\t\t\n      PUSH [tag] 351\t\t\t\n      PUSH 0\t\t\t\n      DUP4 \t\t\t\n      ADD \t\t\t\n      DUP5 \t\t\t\n      PUSH [tag] 279\t\t\t\n      JUMP [in]\t\t\t\n    tag 351\t\t\t\n      JUMPDEST \t\t\t\n      SWAP3 \t\t\t\n      SWAP2 \t\t\t\n      POP \t\t\t\n      POP \t\t\t\n      JUMP [out]\t\t\t\n    tag 168\t\t\t\n      JUMPDEST \t\t\t\n      PUSH 0\t\t\t\n      PUSH 40\t\t\t\n      DUP3 \t\t\t\n      ADD \t\t\t\n      SWAP1 \t\t\t\n      POP \t\t\t\n      PUSH [tag] 353\t\t\t\n      PUSH 0\t\t\t\n      DUP4 \t\t\t\n      ADD \t\t\t\n      DUP6 \t\t\t\n      PUSH [tag] 279\t\t\t\n      JUMP [in]\t\t\t\n    tag 353\t\t\t\n      JUMPDEST \t\t\t\n      PUSH [tag] 354\t\t\t\n      PUSH 20\t\t\t\n      DUP4 \t\t\t\n      ADD \t\t\t\n      DUP5 \t\t\t\n      PUSH [tag] 342\t\t\t\n      JUMP [in]\t\t\t\n    tag 354\t\t\t\n      JUMPDEST \t\t\t\n      SWAP4 \t\t\t\n      SWAP3 \t\t\t\n      POP \t\t\t\n      POP \t\t\t\n      POP \t\t\t\n      JUMP [out]\t\t\t\n    tag 35\t\t\t\n      JUMPDEST \t\t\t\n      PUSH 0\t\t\t\n      PUSH 20\t\t\t\n      DUP3 \t\t\t\n      ADD \t\t\t\n      SWAP1 \t\t\t\n      POP \t\t\t\n      PUSH [tag] 356\t\t\t\n      PUSH 0\t\t\t\n      DUP4 \t\t\t\n      ADD \t\t\t\n      DUP5 \t\t\t\n      PUSH [tag] 283\t\t\t\n      JUMP [in]\t\t\t\n    tag 356\t\t\t\n      JUMPDEST \t\t\t\n      SWAP3 \t\t\t\n      SWAP2 \t\t\t\n      POP \t\t\t\n      POP \t\t\t\n      JUMP [out]\t\t\t\n    tag 28\t\t\t\n      JUMPDEST \t\t\t\n      PUSH 0\t\t\t\n      PUSH 20\t\t\t\n      DUP3 \t\t\t\n      ADD \t\t\t\n      SWAP1 \t\t\t\n      POP \t\t\t\n      DUP2 \t\t\t\n      DUP2 \t\t\t\n      SUB \t\t\t\n      PUSH 0\t\t\t\n      DUP4 \t\t\t\n      ADD \t\t\t\n      MSTORE \t\t\t\n      PUSH [tag] 358\t\t\t\n      DUP2 \t\t\t\n      DUP5 \t\t\t\n      PUSH [tag] 287\t\t\t\n      JUMP [in]\t\t\t\n    tag 358\t\t\t\n      JUMPDEST \t\t\t\n      SWAP1 \t\t\t\n      POP \t\t\t\n      SWAP3 \t\t\t\n      SWAP2 \t\t\t\n      POP \t\t\t\n      POP \t\t\t\n      JUMP [out]\t\t\t\n    tag 214\t\t\t\n      JUMPDEST \t\t\t\n      PUSH 0\t\t\t\n      PUSH 20\t\t\t\n      DUP3 \t\t\t\n      ADD \t\t\t\n      SWAP1 \t\t\t\n      POP \t\t\t\n      DUP2 \t\t\t\n      DUP2 \t\t\t\n      SUB \t\t\t\n      PUSH 0\t\t\t\n      DUP4 \t\t\t\n      ADD \t\t\t\n      MSTORE \t\t\t\n      PUSH [tag] 360\t\t\t\n      DUP2 \t\t\t\n      PUSH [tag] 297\t\t\t\n      JUMP [in]\t\t\t\n    tag 360\t\t\t\n      JUMPDEST \t\t\t\n      SWAP1 \t\t\t\n      POP \t\t\t\n      SWAP2 \t\t\t\n      SWAP1 \t\t\t\n      POP \t\t\t\n      JUMP [out]\t\t\t\n    tag 190\t\t\t\n      JUMPDEST \t\t\t\n      PUSH 0\t\t\t\n      PUSH 20\t\t\t\n      DUP3 \t\t\t\n      ADD \t\t\t\n      SWAP1 \t\t\t\n      POP \t\t\t\n      DUP2 \t\t\t\n      DUP2 \t\t\t\n      SUB \t\t\t\n      PUSH 0\t\t\t\n      DUP4 \t\t\t\n      ADD \t\t\t\n      MSTORE \t\t\t\n      PUSH [tag] 362\t\t\t\n      DUP2 \t\t\t\n      PUSH [tag] 302\t\t\t\n      JUMP [in]\t\t\t\n    tag 362\t\t\t\n      JUMPDEST \t\t\t\n      SWAP1 \t\t\t\n      POP \t\t\t\n      SWAP2 \t\t\t\n      SWAP1 \t\t\t\n      POP \t\t\t\n      JUMP [out]\t\t\t\n    tag 199\t\t\t\n      JUMPDEST \t\t\t\n      PUSH 0\t\t\t\n      PUSH 20\t\t\t\n      DUP3 \t\t\t\n      ADD \t\t\t\n      SWAP1 \t\t\t\n      POP \t\t\t\n      DUP2 \t\t\t\n      DUP2 \t\t\t\n      SUB \t\t\t\n      PUSH 0\t\t\t\n      DUP4 \t\t\t\n      ADD \t\t\t\n      MSTORE \t\t\t\n      PUSH [tag] 364\t\t\t\n      DUP2 \t\t\t\n      PUSH [tag] 307\t\t\t\n      JUMP [in]\t\t\t\n    tag 364\t\t\t\n      JUMPDEST \t\t\t\n      SWAP1 \t\t\t\n      POP \t\t\t\n      SWAP2 \t\t\t\n      SWAP1 \t\t\t\n      POP \t\t\t\n      JUMP [out]\t\t\t\n    tag 206\t\t\t\n      JUMPDEST \t\t\t\n      PUSH 0\t\t\t\n      PUSH 20\t\t\t\n      DUP3 \t\t\t\n      ADD \t\t\t\n      SWAP1 \t\t\t\n      POP \t\t\t\n      DUP2 \t\t\t\n      DUP2 \t\t\t\n      SUB \t\t\t\n      PUSH 0\t\t\t\n      DUP4 \t\t\t\n      ADD \t\t\t\n      MSTORE \t\t\t\n      PUSH [tag] 366\t\t\t\n      DUP2 \t\t\t\n      PUSH [tag] 312\t\t\t\n      JUMP [in]\t\t\t\n    tag 366\t\t\t\n      JUMPDEST \t\t\t\n      SWAP1 \t\t\t\n      POP \t\t\t\n      SWAP2 \t\t\t\n      SWAP1 \t\t\t\n      POP \t\t\t\n      JUMP [out]\t\t\t\n    tag 219\t\t\t\n      JUMPDEST \t\t\t\n      PUSH 0\t\t\t\n      PUSH 20\t\t\t\n      DUP3 \t\t\t\n      ADD \t\t\t\n      SWAP1 \t\t\t\n      POP \t\t\t\n      DUP2 \t\t\t\n      DUP2 \t\t\t\n      SUB \t\t\t\n      PUSH 0\t\t\t\n      DUP4 \t\t\t\n      ADD \t\t\t\n      MSTORE \t\t\t\n      PUSH [tag] 368\t\t\t\n      DUP2 \t\t\t\n      PUSH [tag] 317\t\t\t\n      JUMP [in]\t\t\t\n    tag 368\t\t\t\n      JUMPDEST \t\t\t\n      SWAP1 \t\t\t\n      POP \t\t\t\n      SWAP2 \t\t\t\n      SWAP1 \t\t\t\n      POP \t\t\t\n      JUMP [out]\t\t\t\n    tag 228\t\t\t\n      JUMPDEST \t\t\t\n      PUSH 0\t\t\t\n      PUSH 20\t\t\t\n      DUP3 \t\t\t\n      ADD \t\t\t\n      SWAP1 \t\t\t\n      POP \t\t\t\n      DUP2 \t\t\t\n      DUP2 \t\t\t\n      SUB \t\t\t\n      PUSH 0\t\t\t\n      DUP4 \t\t\t\n      ADD \t\t\t\n      MSTORE \t\t\t\n      PUSH [tag] 370\t\t\t\n      DUP2 \t\t\t\n      PUSH [tag] 322\t\t\t\n      JUMP [in]\t\t\t\n    tag 370\t\t\t\n      JUMPDEST \t\t\t\n      SWAP1 \t\t\t\n      POP \t\t\t\n      SWAP2 \t\t\t\n      SWAP1 \t\t\t\n      POP \t\t\t\n      JUMP [out]\t\t\t\n    tag 211\t\t\t\n      JUMPDEST \t\t\t\n      PUSH 0\t\t\t\n      PUSH 20\t\t\t\n      DUP3 \t\t\t\n      ADD \t\t\t\n      SWAP1 \t\t\t\n      POP \t\t\t\n      DUP2 \t\t\t\n      DUP2 \t\t\t\n      SUB \t\t\t\n      PUSH 0\t\t\t\n      DUP4 \t\t\t\n      ADD \t\t\t\n      MSTORE \t\t\t\n      PUSH [tag] 372\t\t\t\n      DUP2 \t\t\t\n      PUSH [tag] 327\t\t\t\n      JUMP [in]\t\t\t\n    tag 372\t\t\t\n      JUMPDEST \t\t\t\n      SWAP1 \t\t\t\n      POP \t\t\t\n      SWAP2 \t\t\t\n      SWAP1 \t\t\t\n      POP \t\t\t\n      JUMP [out]\t\t\t\n    tag 196\t\t\t\n      JUMPDEST \t\t\t\n      PUSH 0\t\t\t\n      PUSH 20\t\t\t\n      DUP3 \t\t\t\n      ADD \t\t\t\n      SWAP1 \t\t\t\n      POP \t\t\t\n      DUP2 \t\t\t\n      DUP2 \t\t\t\n      SUB \t\t\t\n      PUSH 0\t\t\t\n      DUP4 \t\t\t\n      ADD \t\t\t\n      MSTORE \t\t\t\n      PUSH [tag] 374\t\t\t\n      DUP2 \t\t\t\n      PUSH [tag] 332\t\t\t\n      JUMP [in]\t\t\t\n    tag 374\t\t\t\n      JUMPDEST \t\t\t\n      SWAP1 \t\t\t\n      POP \t\t\t\n      SWAP2 \t\t\t\n      SWAP1 \t\t\t\n      POP \t\t\t\n      JUMP [out]\t\t\t\n    tag 179\t\t\t\n      JUMPDEST \t\t\t\n      PUSH 0\t\t\t\n      PUSH 20\t\t\t\n      DUP3 \t\t\t\n      ADD \t\t\t\n      SWAP1 \t\t\t\n      POP \t\t\t\n      DUP2 \t\t\t\n      DUP2 \t\t\t\n      SUB \t\t\t\n      PUSH 0\t\t\t\n      DUP4 \t\t\t\n      ADD \t\t\t\n      MSTORE \t\t\t\n      PUSH [tag] 376\t\t\t\n      DUP2 \t\t\t\n      PUSH [tag] 337\t\t\t\n      JUMP [in]\t\t\t\n    tag 376\t\t\t\n      JUMPDEST \t\t\t\n      SWAP1 \t\t\t\n      POP \t\t\t\n      SWAP2 \t\t\t\n      SWAP1 \t\t\t\n      POP \t\t\t\n      JUMP [out]\t\t\t\n    tag 40\t\t\t\n      JUMPDEST \t\t\t\n      PUSH 0\t\t\t\n      PUSH 20\t\t\t\n      DUP3 \t\t\t\n      ADD \t\t\t\n      SWAP1 \t\t\t\n      POP \t\t\t\n      PUSH [tag] 378\t\t\t\n      PUSH 0\t\t\t\n      DUP4 \t\t\t\n      ADD \t\t\t\n      DUP5 \t\t\t\n      PUSH [tag] 342\t\t\t\n      JUMP [in]\t\t\t\n    tag 378\t\t\t\n      JUMPDEST \t\t\t\n      SWAP3 \t\t\t\n      SWAP2 \t\t\t\n      POP \t\t\t\n      POP \t\t\t\n      JUMP [out]\t\t\t\n    tag 51\t\t\t\n      JUMPDEST \t\t\t\n      PUSH 0\t\t\t\n      PUSH 20\t\t\t\n      DUP3 \t\t\t\n      ADD \t\t\t\n      SWAP1 \t\t\t\n      POP \t\t\t\n      PUSH [tag] 380\t\t\t\n      PUSH 0\t\t\t\n      DUP4 \t\t\t\n      ADD \t\t\t\n      DUP5 \t\t\t\n      PUSH [tag] 346\t\t\t\n      JUMP [in]\t\t\t\n    tag 380\t\t\t\n      JUMPDEST \t\t\t\n      SWAP3 \t\t\t\n      SWAP2 \t\t\t\n      POP \t\t\t\n      POP \t\t\t\n      JUMP [out]\t\t\t\n    tag 290\t\t\t\n      JUMPDEST \t\t\t\n      PUSH 0\t\t\t\n      DUP2 \t\t\t\n      MLOAD \t\t\t\n      SWAP1 \t\t\t\n      POP \t\t\t\n      SWAP2 \t\t\t\n      SWAP1 \t\t\t\n      POP \t\t\t\n      JUMP [out]\t\t\t\n    tag 292\t\t\t\n      JUMPDEST \t\t\t\n      PUSH 0\t\t\t\n      DUP3 \t\t\t\n      DUP3 \t\t\t\n      MSTORE \t\t\t\n      PUSH 20\t\t\t\n      DUP3 \t\t\t\n      ADD \t\t\t\n      SWAP1 \t\t\t\n      POP \t\t\t\n      SWAP3 \t\t\t\n      SWAP2 \t\t\t\n      POP \t\t\t\n      POP \t\t\t\n      JUMP [out]\t\t\t\n    tag 141\t\t\t\n      JUMPDEST \t\t\t\n      PUSH 0\t\t\t\n      PUSH [tag] 386\t\t\t\n      DUP3 \t\t\t\n      PUSH [tag] 345\t\t\t\n      JUMP [in]\t\t\t\n    tag 386\t\t\t\n      JUMPDEST \t\t\t\n      SWAP2 \t\t\t\n      POP \t\t\t\n      PUSH [tag] 387\t\t\t\n      DUP4 \t\t\t\n      PUSH [tag] 345\t\t\t\n      JUMP [in]\t\t\t\n    tag 387\t\t\t\n      JUMPDEST \t\t\t\n      SWAP3 \t\t\t\n      POP \t\t\t\n      DUP3 \t\t\t\n      PUSH FFFFFFFFFFFFFFFFFFFFFFFFFFFFFFFFFFFFFFFFFFFFFFFFFFFFFFFFFFFFFFFF\t\t\t\n      SUB \t\t\t\n      DUP3 \t\t\t\n      GT \t\t\t\n      ISZERO \t\t\t\n      PUSH [tag] 388\t\t\t\n      JUMPI \t\t\t\n      PUSH [tag] 389\t\t\t\n      PUSH [tag] 390\t\t\t\n      JUMP [in]\t\t\t\n    tag 389\t\t\t\n      JUMPDEST \t\t\t\n    tag 388\t\t\t\n      JUMPDEST \t\t\t\n      DUP3 \t\t\t\n      DUP3 \t\t\t\n      ADD \t\t\t\n      SWAP1 \t\t\t\n      POP \t\t\t\n      SWAP3 \t\t\t\n      SWAP2 \t\t\t\n      POP \t\t\t\n      POP \t\t\t\n      JUMP [out]\t\t\t\n    tag 282\t\t\t\n      JUMPDEST \t\t\t\n      PUSH 0\t\t\t\n      PUSH [tag] 392\t\t\t\n      DUP3 \t\t\t\n      PUSH [tag] 393\t\t\t\n      JUMP [in]\t\t\t\n    tag 392\t\t\t\n      JUMPDEST \t\t\t\n      SWAP1 \t\t\t\n      POP \t\t\t\n      SWAP2 \t\t\t\n      SWAP1 \t\t\t\n      POP \t\t\t\n      JUMP [out]\t\t\t\n    tag 286\t\t\t\n      JUMPDEST \t\t\t\n      PUSH 0\t\t\t\n      DUP2 \t\t\t\n      ISZERO \t\t\t\n      ISZERO \t\t\t\n      SWAP1 \t\t\t\n      POP \t\t\t\n      SWAP2 \t\t\t\n      SWAP1 \t\t\t\n      POP \t\t\t\n      JUMP [out]\t\t\t\n    tag 393\t\t\t\n      JUMPDEST \t\t\t\n      PUSH 0\t\t\t\n      PUSH FFFFFFFFFFFFFFFFFFFFFFFFFFFFFFFFFFFFFFFF\t\t\t\n      DUP3 \t\t\t\n      AND \t\t\t\n      SWAP1 \t\t\t\n      POP \t\t\t\n      SWAP2 \t\t\t\n      SWAP1 \t\t\t\n      POP \t\t\t\n      JUMP [out]\t\t\t\n    tag 345\t\t\t\n      JUMPDEST \t\t\t\n      PUSH 0\t\t\t\n      DUP2 \t\t\t\n      SWAP1 \t\t\t\n      POP \t\t\t\n      SWAP2 \t\t\t\n      SWAP1 \t\t\t\n      POP \t\t\t\n      JUMP [out]\t\t\t\n    tag 349\t\t\t\n      JUMPDEST \t\t\t\n      PUSH 0\t\t\t\n      PUSH FF\t\t\t\n      DUP3 \t\t\t\n      AND \t\t\t\n      SWAP1 \t\t\t\n      POP \t\t\t\n      SWAP2 \t\t\t\n      SWAP1 \t\t\t\n      POP \t\t\t\n      JUMP [out]\t\t\t\n    tag 294\t\t\t\n      JUMPDEST \t\t\t\n      PUSH 0\t\t\t\n    tag 399\t\t\t\n      JUMPDEST \t\t\t\n      DUP4 \t\t\t\n      DUP2 \t\t\t\n      LT \t\t\t\n      ISZERO \t\t\t\n      PUSH [tag] 401\t\t\t\n      JUMPI \t\t\t\n      DUP1 \t\t\t\n      DUP3 \t\t\t\n      ADD \t\t\t\n      MLOAD \t\t\t\n      DUP2 \t\t\t\n      DUP5 \t\t\t\n      ADD \t\t\t\n      MSTORE \t\t\t\n      PUSH 20\t\t\t\n      DUP2 \t\t\t\n      ADD \t\t\t\n      SWAP1 \t\t\t\n      POP \t\t\t\n      PUSH [tag] 399\t\t\t\n      JUMP \t\t\t\n    tag 401\t\t\t\n      JUMPDEST \t\t\t\n      DUP4 \t\t\t\n      DUP2 \t\t\t\n      GT \t\t\t\n      ISZERO \t\t\t\n      PUSH [tag] 402\t\t\t\n      JUMPI \t\t\t\n      PUSH 0\t\t\t\n      DUP5 \t\t\t\n      DUP5 \t\t\t\n      ADD \t\t\t\n      MSTORE \t\t\t\n    tag 402\t\t\t\n      JUMPDEST \t\t\t\n      POP \t\t\t\n      POP \t\t\t\n      POP \t\t\t\n      POP \t\t\t\n      JUMP [out]\t\t\t\n    tag 118\t\t\t\n      JUMPDEST \t\t\t\n      PUSH 0\t\t\t\n      PUSH 2\t\t\t\n      DUP3 \t\t\t\n      DIV \t\t\t\n      SWAP1 \t\t\t\n      POP \t\t\t\n      PUSH 1\t\t\t\n      DUP3 \t\t\t\n      AND \t\t\t\n      DUP1 \t\t\t\n      PUSH [tag] 404\t\t\t\n      JUMPI \t\t\t\n      PUSH 7F\t\t\t\n      DUP3 \t\t\t\n      AND \t\t\t\n      SWAP2 \t\t\t\n      POP \t\t\t\n    tag 404\t\t\t\n      JUMPDEST \t\t\t\n      PUSH 20\t\t\t\n      DUP3 \t\t\t\n      LT \t\t\t\n      DUP2 \t\t\t\n      EQ \t\t\t\n      ISZERO \t\t\t\n      PUSH [tag] 405\t\t\t\n      JUMPI \t\t\t\n      PUSH [tag] 406\t\t\t\n      PUSH [tag] 407\t\t\t\n      JUMP [in]\t\t\t\n    tag 406\t\t\t\n      JUMPDEST \t\t\t\n    tag 405\t\t\t\n      JUMPDEST \t\t\t\n      POP \t\t\t\n      SWAP2 \t\t\t\n      SWAP1 \t\t\t\n      POP \t\t\t\n      JUMP [out]\t\t\t\n    tag 390\t\t\t\n      JUMPDEST \t\t\t\n      PUSH 4E487B7100000000000000000000000000000000000000000000000000000000\t\t\t\n      PUSH 0\t\t\t\n      MSTORE \t\t\t\n      PUSH 11\t\t\t\n      PUSH 4\t\t\t\n      MSTORE \t\t\t\n      PUSH 24\t\t\t\n      PUSH 0\t\t\t\n      REVERT \t\t\t\n    tag 407\t\t\t\n      JUMPDEST \t\t\t\n      PUSH 4E487B7100000000000000000000000000000000000000000000000000000000\t\t\t\n      PUSH 0\t\t\t\n      MSTORE \t\t\t\n      PUSH 22\t\t\t\n      PUSH 4\t\t\t\n      MSTORE \t\t\t\n      PUSH 24\t\t\t\n      PUSH 0\t\t\t\n      REVERT \t\t\t\n    tag 248\t\t\t\n      JUMPDEST \t\t\t\n      PUSH 0\t\t\t\n      DUP1 \t\t\t\n      REVERT \t\t\t\n    tag 296\t\t\t\n      JUMPDEST \t\t\t\n      PUSH 0\t\t\t\n      PUSH 1F\t\t\t\n      NOT \t\t\t\n      PUSH 1F\t\t\t\n      DUP4 \t\t\t\n      ADD \t\t\t\n      AND \t\t\t\n      SWAP1 \t\t\t\n      POP \t\t\t\n      SWAP2 \t\t\t\n      SWAP1 \t\t\t\n      POP \t\t\t\n      JUMP [out]\t\t\t\n    tag 301\t\t\t\n      JUMPDEST \t\t\t\n      PUSH 45524332303A207472616E7366657220746F20746865207A65726F2061646472\t\t\t\n      PUSH 0\t\t\t\n      DUP3 \t\t\t\n      ADD \t\t\t\n      MSTORE \t\t\t\n      PUSH 6573730000000000000000000000000000000000000000000000000000000000\t\t\t\n      PUSH 20\t\t\t\n      DUP3 \t\t\t\n      ADD \t\t\t\n      MSTORE \t\t\t\n      POP \t\t\t\n      JUMP [out]\t\t\t\n    tag 306\t\t\t\n      JUMPDEST \t\t\t\n      PUSH 4F776E61626C653A206E6577206F776E657220697320746865207A65726F2061\t\t\t\n      PUSH 0\t\t\t\n      DUP3 \t\t\t\n      ADD \t\t\t\n      MSTORE \t\t\t\n      PUSH 6464726573730000000000000000000000000000000000000000000000000000\t\t\t\n      PUSH 20\t\t\t\n      DUP3 \t\t\t\n      ADD \t\t\t\n      MSTORE \t\t\t\n      POP \t\t\t\n      JUMP [out]\t\t\t\n    tag 311\t\t\t\n      JUMPDEST \t\t\t\n      PUSH 45524332303A20617070726F766520746F20746865207A65726F206164647265\t\t\t\n      PUSH 0\t\t\t\n      DUP3 \t\t\t\n      ADD \t\t\t\n      MSTORE \t\t\t\n      PUSH 7373000000000000000000000000000000000000000000000000000000000000\t\t\t\n      PUSH 20\t\t\t\n      DUP3 \t\t\t\n      ADD \t\t\t\n      MSTORE \t\t\t\n      POP \t\t\t\n      JUMP [out]\t\t\t\n    tag 316\t\t\t\n      JUMPDEST \t\t\t\n      PUSH 45524332303A20696E73756666696369656E7420616C6C6F77616E6365000000\t\t\t\n      PUSH 0\t\t\t\n      DUP3 \t\t\t\n      ADD \t\t\t\n      MSTORE \t\t\t\n      POP \t\t\t\n      JUMP [out]\t\t\t\n    tag 321\t\t\t\n      JUMPDEST \t\t\t\n      PUSH 45524332303A207472616E7366657220616D6F756E7420657863656564732062\t\t\t\n      PUSH 0\t\t\t\n      DUP3 \t\t\t\n      ADD \t\t\t\n      MSTORE \t\t\t\n      PUSH 616C616E63650000000000000000000000000000000000000000000000000000\t\t\t\n      PUSH 20\t\t\t\n      DUP3 \t\t\t\n      ADD \t\t\t\n      MSTORE \t\t\t\n      POP \t\t\t\n      JUMP [out]\t\t\t\n    tag 326\t\t\t\n      JUMPDEST \t\t\t\n      PUSH 4F776E61626C653A2063616C6C6572206973206E6F7420746865206F776E6572\t\t\t\n      PUSH 0\t\t\t\n      DUP3 \t\t\t\n      ADD \t\t\t\n      MSTORE \t\t\t\n      POP \t\t\t\n      JUMP [out]\t\t\t\n    tag 331\t\t\t\n      JUMPDEST \t\t\t\n      PUSH 45524332303A207472616E736665722066726F6D20746865207A65726F206164\t\t\t\n      PUSH 0\t\t\t\n      DUP3 \t\t\t\n      ADD \t\t\t\n      MSTORE \t\t\t\n      PUSH 6472657373000000000000000000000000000000000000000000000000000000\t\t\t\n      PUSH 20\t\t\t\n      DUP3 \t\t\t\n      ADD \t\t\t\n      MSTORE \t\t\t\n      POP \t\t\t\n      JUMP [out]\t\t\t\n    tag 336\t\t\t\n      JUMPDEST \t\t\t\n      PUSH 45524332303A20617070726F76652066726F6D20746865207A65726F20616464\t\t\t\n      PUSH 0\t\t\t\n      DUP3 \t\t\t\n      ADD \t\t\t\n      MSTORE \t\t\t\n      PUSH 7265737300000000000000000000000000000000000000000000000000000000\t\t\t\n      PUSH 20\t\t\t\n      DUP3 \t\t\t\n      ADD \t\t\t\n      MSTORE \t\t\t\n      POP \t\t\t\n      JUMP [out]\t\t\t\n    tag 341\t\t\t\n      JUMPDEST \t\t\t\n      PUSH 45524332303A2064656372656173656420616C6C6F77616E63652062656C6F77\t\t\t\n      PUSH 0\t\t\t\n      DUP3 \t\t\t\n      ADD \t\t\t\n      MSTORE \t\t\t\n      PUSH 207A65726F000000000000000000000000000000000000000000000000000000\t\t\t\n      PUSH 20\t\t\t\n      DUP3 \t\t\t\n      ADD \t\t\t\n      MSTORE \t\t\t\n      POP \t\t\t\n      JUMP [out]\t\t\t\n    tag 236\t\t\t\n      JUMPDEST \t\t\t\n      PUSH [tag] 424\t\t\t\n      DUP2 \t\t\t\n      PUSH [tag] 282\t\t\t\n      JUMP [in]\t\t\t\n    tag 424\t\t\t\n      JUMPDEST \t\t\t\n      DUP2 \t\t\t\n      EQ \t\t\t\n      PUSH [tag] 425\t\t\t\n      JUMPI \t\t\t\n      PUSH 0\t\t\t\n      DUP1 \t\t\t\n      REVERT \t\t\t\n    tag 425\t\t\t\n      JUMPDEST \t\t\t\n      POP \t\t\t\n      JUMP [out]\t\t\t\n    tag 240\t\t\t\n      JUMPDEST \t\t\t\n      PUSH [tag] 427\t\t\t\n      DUP2 \t\t\t\n      PUSH [tag] 286\t\t\t\n      JUMP [in]\t\t\t\n    tag 427\t\t\t\n      JUMPDEST \t\t\t\n      DUP2 \t\t\t\n      EQ \t\t\t\n      PUSH [tag] 428\t\t\t\n      JUMPI \t\t\t\n      PUSH 0\t\t\t\n      DUP1 \t\t\t\n      REVERT \t\t\t\n    tag 428\t\t\t\n      JUMPDEST \t\t\t\n      POP \t\t\t\n      JUMP [out]\t\t\t\n    tag 244\t\t\t\n      JUMPDEST \t\t\t\n      PUSH [tag] 430\t\t\t\n      DUP2 \t\t\t\n      PUSH [tag] 345\t\t\t\n      JUMP [in]\t\t\t\n    tag 430\t\t\t\n      JUMPDEST \t\t\t\n      DUP2 \t\t\t\n      EQ \t\t\t\n      PUSH [tag] 431\t\t\t\n      JUMPI \t\t\t\n      PUSH 0\t\t\t\n      DUP1 \t\t\t\n      REVERT \t\t\t\n    tag 431\t\t\t\n      JUMPDEST \t\t\t\n      POP \t\t\t\n      JUMP [out]\t\t\t\n    .data\n"
}